{"abi":[{"type":"constructor","inputs":[{"name":"tokenMessenger","type":"address","internalType":"contract ITokenMessenger"},{"name":"token","type":"address","internalType":"contract IBurnMintERC20"},{"name":"allowlist","type":"address[]","internalType":"address[]"},{"name":"rmnProxy","type":"address","internalType":"address"},{"name":"router","type":"address","internalType":"address"}],"stateMutability":"nonpayable"},{"type":"function","name":"SUPPORTED_USDC_VERSION","inputs":[],"outputs":[{"name":"","type":"uint32","internalType":"uint32"}],"stateMutability":"view"},{"type":"function","name":"acceptOwnership","inputs":[],"outputs":[],"stateMutability":"nonpayable"},{"type":"function","name":"applyAllowListUpdates","inputs":[{"name":"removes","type":"address[]","internalType":"address[]"},{"name":"adds","type":"address[]","internalType":"address[]"}],"outputs":[],"stateMutability":"nonpayable"},{"type":"function","name":"applyChainUpdates","inputs":[{"name":"chains","type":"tuple[]","internalType":"struct TokenPool.ChainUpdate[]","components":[{"name":"remoteChainSelector","type":"uint64","internalType":"uint64"},{"name":"allowed","type":"bool","internalType":"bool"},{"name":"remotePoolAddress","type":"bytes","internalType":"bytes"},{"name":"remoteTokenAddress","type":"bytes","internalType":"bytes"},{"name":"outboundRateLimiterConfig","type":"tuple","internalType":"struct RateLimiter.Config","components":[{"name":"isEnabled","type":"bool","internalType":"bool"},{"name":"capacity","type":"uint128","internalType":"uint128"},{"name":"rate","type":"uint128","internalType":"uint128"}]},{"name":"inboundRateLimiterConfig","type":"tuple","internalType":"struct RateLimiter.Config","components":[{"name":"isEnabled","type":"bool","internalType":"bool"},{"name":"capacity","type":"uint128","internalType":"uint128"},{"name":"rate","type":"uint128","internalType":"uint128"}]}]}],"outputs":[],"stateMutability":"nonpayable"},{"type":"function","name":"getAllowList","inputs":[],"outputs":[{"name":"","type":"address[]","internalType":"address[]"}],"stateMutability":"view"},{"type":"function","name":"getAllowListEnabled","inputs":[],"outputs":[{"name":"","type":"bool","internalType":"bool"}],"stateMutability":"view"},{"type":"function","name":"getCurrentInboundRateLimiterState","inputs":[{"name":"remoteChainSelector","type":"uint64","internalType":"uint64"}],"outputs":[{"name":"","type":"tuple","internalType":"struct RateLimiter.TokenBucket","components":[{"name":"tokens","type":"uint128","internalType":"uint128"},{"name":"lastUpdated","type":"uint32","internalType":"uint32"},{"name":"isEnabled","type":"bool","internalType":"bool"},{"name":"capacity","type":"uint128","internalType":"uint128"},{"name":"rate","type":"uint128","internalType":"uint128"}]}],"stateMutability":"view"},{"type":"function","name":"getCurrentOutboundRateLimiterState","inputs":[{"name":"remoteChainSelector","type":"uint64","internalType":"uint64"}],"outputs":[{"name":"","type":"tuple","internalType":"struct RateLimiter.TokenBucket","components":[{"name":"tokens","type":"uint128","internalType":"uint128"},{"name":"lastUpdated","type":"uint32","internalType":"uint32"},{"name":"isEnabled","type":"bool","internalType":"bool"},{"name":"capacity","type":"uint128","internalType":"uint128"},{"name":"rate","type":"uint128","internalType":"uint128"}]}],"stateMutability":"view"},{"type":"function","name":"getDomain","inputs":[{"name":"chainSelector","type":"uint64","internalType":"uint64"}],"outputs":[{"name":"","type":"tuple","internalType":"struct USDCTokenPool.Domain","components":[{"name":"allowedCaller","type":"bytes32","internalType":"bytes32"},{"name":"domainIdentifier","type":"uint32","internalType":"uint32"},{"name":"enabled","type":"bool","internalType":"bool"}]}],"stateMutability":"view"},{"type":"function","name":"getRemotePool","inputs":[{"name":"remoteChainSelector","type":"uint64","internalType":"uint64"}],"outputs":[{"name":"","type":"bytes","internalType":"bytes"}],"stateMutability":"view"},{"type":"function","name":"getRemoteToken","inputs":[{"name":"remoteChainSelector","type":"uint64","internalType":"uint64"}],"outputs":[{"name":"","type":"bytes","internalType":"bytes"}],"stateMutability":"view"},{"type":"function","name":"getRmnProxy","inputs":[],"outputs":[{"name":"rmnProxy","type":"address","internalType":"address"}],"stateMutability":"view"},{"type":"function","name":"getRouter","inputs":[],"outputs":[{"name":"router","type":"address","internalType":"address"}],"stateMutability":"view"},{"type":"function","name":"getSupportedChains","inputs":[],"outputs":[{"name":"","type":"uint64[]","internalType":"uint64[]"}],"stateMutability":"view"},{"type":"function","name":"getToken","inputs":[],"outputs":[{"name":"token","type":"address","internalType":"contract IERC20"}],"stateMutability":"view"},{"type":"function","name":"i_localDomainIdentifier","inputs":[],"outputs":[{"name":"","type":"uint32","internalType":"uint32"}],"stateMutability":"view"},{"type":"function","name":"i_messageTransmitter","inputs":[],"outputs":[{"name":"","type":"address","internalType":"contract IMessageTransmitter"}],"stateMutability":"view"},{"type":"function","name":"i_tokenMessenger","inputs":[],"outputs":[{"name":"","type":"address","internalType":"contract ITokenMessenger"}],"stateMutability":"view"},{"type":"function","name":"isSupportedChain","inputs":[{"name":"remoteChainSelector","type":"uint64","internalType":"uint64"}],"outputs":[{"name":"","type":"bool","internalType":"bool"}],"stateMutability":"view"},{"type":"function","name":"isSupportedToken","inputs":[{"name":"token","type":"address","internalType":"address"}],"outputs":[{"name":"","type":"bool","internalType":"bool"}],"stateMutability":"view"},{"type":"function","name":"lockOrBurn","inputs":[{"name":"lockOrBurnIn","type":"tuple","internalType":"struct Pool.LockOrBurnInV1","components":[{"name":"receiver","type":"bytes","internalType":"bytes"},{"name":"remoteChainSelector","type":"uint64","internalType":"uint64"},{"name":"originalSender","type":"address","internalType":"address"},{"name":"amount","type":"uint256","internalType":"uint256"},{"name":"localToken","type":"address","internalType":"address"}]}],"outputs":[{"name":"","type":"tuple","internalType":"struct Pool.LockOrBurnOutV1","components":[{"name":"destTokenAddress","type":"bytes","internalType":"bytes"},{"name":"destPoolData","type":"bytes","internalType":"bytes"}]}],"stateMutability":"nonpayable"},{"type":"function","name":"owner","inputs":[],"outputs":[{"name":"","type":"address","internalType":"address"}],"stateMutability":"view"},{"type":"function","name":"releaseOrMint","inputs":[{"name":"releaseOrMintIn","type":"tuple","internalType":"struct Pool.ReleaseOrMintInV1","components":[{"name":"originalSender","type":"bytes","internalType":"bytes"},{"name":"remoteChainSelector","type":"uint64","internalType":"uint64"},{"name":"receiver","type":"address","internalType":"address"},{"name":"amount","type":"uint256","internalType":"uint256"},{"name":"localToken","type":"address","internalType":"address"},{"name":"sourcePoolAddress","type":"bytes","internalType":"bytes"},{"name":"sourcePoolData","type":"bytes","internalType":"bytes"},{"name":"offchainTokenData","type":"bytes","internalType":"bytes"}]}],"outputs":[{"name":"","type":"tuple","internalType":"struct Pool.ReleaseOrMintOutV1","components":[{"name":"destinationAmount","type":"uint256","internalType":"uint256"}]}],"stateMutability":"nonpayable"},{"type":"function","name":"setChainRateLimiterConfig","inputs":[{"name":"remoteChainSelector","type":"uint64","internalType":"uint64"},{"name":"outboundConfig","type":"tuple","internalType":"struct RateLimiter.Config","components":[{"name":"isEnabled","type":"bool","internalType":"bool"},{"name":"capacity","type":"uint128","internalType":"uint128"},{"name":"rate","type":"uint128","internalType":"uint128"}]},{"name":"inboundConfig","type":"tuple","internalType":"struct RateLimiter.Config","components":[{"name":"isEnabled","type":"bool","internalType":"bool"},{"name":"capacity","type":"uint128","internalType":"uint128"},{"name":"rate","type":"uint128","internalType":"uint128"}]}],"outputs":[],"stateMutability":"nonpayable"},{"type":"function","name":"setDomains","inputs":[{"name":"domains","type":"tuple[]","internalType":"struct USDCTokenPool.DomainUpdate[]","components":[{"name":"allowedCaller","type":"bytes32","internalType":"bytes32"},{"name":"domainIdentifier","type":"uint32","internalType":"uint32"},{"name":"destChainSelector","type":"uint64","internalType":"uint64"},{"name":"enabled","type":"bool","internalType":"bool"}]}],"outputs":[],"stateMutability":"nonpayable"},{"type":"function","name":"setRemotePool","inputs":[{"name":"remoteChainSelector","type":"uint64","internalType":"uint64"},{"name":"remotePoolAddress","type":"bytes","internalType":"bytes"}],"outputs":[],"stateMutability":"nonpayable"},{"type":"function","name":"setRouter","inputs":[{"name":"newRouter","type":"address","internalType":"address"}],"outputs":[],"stateMutability":"nonpayable"},{"type":"function","name":"supportsInterface","inputs":[{"name":"interfaceId","type":"bytes4","internalType":"bytes4"}],"outputs":[{"name":"","type":"bool","internalType":"bool"}],"stateMutability":"pure"},{"type":"function","name":"transferOwnership","inputs":[{"name":"to","type":"address","internalType":"address"}],"outputs":[],"stateMutability":"nonpayable"},{"type":"function","name":"typeAndVersion","inputs":[],"outputs":[{"name":"","type":"string","internalType":"string"}],"stateMutability":"view"},{"type":"function","name":"validateMessage","inputs":[{"name":"usdcMessage","type":"bytes","internalType":"bytes"},{"name":"sourceTokenData","type":"tuple","internalType":"struct USDCTokenPool.SourceTokenDataPayload","components":[{"name":"nonce","type":"uint64","internalType":"uint64"},{"name":"sourceDomain","type":"uint32","internalType":"uint32"}]}],"outputs":[],"stateMutability":"view"},{"type":"event","name":"AllowListAdd","inputs":[{"name":"sender","type":"address","indexed":false,"internalType":"address"}],"anonymous":false},{"type":"event","name":"AllowListRemove","inputs":[{"name":"sender","type":"address","indexed":false,"internalType":"address"}],"anonymous":false},{"type":"event","name":"Burned","inputs":[{"name":"sender","type":"address","indexed":true,"internalType":"address"},{"name":"amount","type":"uint256","indexed":false,"internalType":"uint256"}],"anonymous":false},{"type":"event","name":"ChainAdded","inputs":[{"name":"remoteChainSelector","type":"uint64","indexed":false,"internalType":"uint64"},{"name":"remoteToken","type":"bytes","indexed":false,"internalType":"bytes"},{"name":"outboundRateLimiterConfig","type":"tuple","indexed":false,"internalType":"struct RateLimiter.Config","components":[{"name":"isEnabled","type":"bool","internalType":"bool"},{"name":"capacity","type":"uint128","internalType":"uint128"},{"name":"rate","type":"uint128","internalType":"uint128"}]},{"name":"inboundRateLimiterConfig","type":"tuple","indexed":false,"internalType":"struct RateLimiter.Config","components":[{"name":"isEnabled","type":"bool","internalType":"bool"},{"name":"capacity","type":"uint128","internalType":"uint128"},{"name":"rate","type":"uint128","internalType":"uint128"}]}],"anonymous":false},{"type":"event","name":"ChainConfigured","inputs":[{"name":"remoteChainSelector","type":"uint64","indexed":false,"internalType":"uint64"},{"name":"outboundRateLimiterConfig","type":"tuple","indexed":false,"internalType":"struct RateLimiter.Config","components":[{"name":"isEnabled","type":"bool","internalType":"bool"},{"name":"capacity","type":"uint128","internalType":"uint128"},{"name":"rate","type":"uint128","internalType":"uint128"}]},{"name":"inboundRateLimiterConfig","type":"tuple","indexed":false,"internalType":"struct RateLimiter.Config","components":[{"name":"isEnabled","type":"bool","internalType":"bool"},{"name":"capacity","type":"uint128","internalType":"uint128"},{"name":"rate","type":"uint128","internalType":"uint128"}]}],"anonymous":false},{"type":"event","name":"ChainRemoved","inputs":[{"name":"remoteChainSelector","type":"uint64","indexed":false,"internalType":"uint64"}],"anonymous":false},{"type":"event","name":"ConfigChanged","inputs":[{"name":"config","type":"tuple","indexed":false,"internalType":"struct RateLimiter.Config","components":[{"name":"isEnabled","type":"bool","internalType":"bool"},{"name":"capacity","type":"uint128","internalType":"uint128"},{"name":"rate","type":"uint128","internalType":"uint128"}]}],"anonymous":false},{"type":"event","name":"ConfigSet","inputs":[{"name":"tokenMessenger","type":"address","indexed":false,"internalType":"address"}],"anonymous":false},{"type":"event","name":"DomainsSet","inputs":[{"name":"","type":"tuple[]","indexed":false,"internalType":"struct USDCTokenPool.DomainUpdate[]","components":[{"name":"allowedCaller","type":"bytes32","internalType":"bytes32"},{"name":"domainIdentifier","type":"uint32","internalType":"uint32"},{"name":"destChainSelector","type":"uint64","internalType":"uint64"},{"name":"enabled","type":"bool","internalType":"bool"}]}],"anonymous":false},{"type":"event","name":"Locked","inputs":[{"name":"sender","type":"address","indexed":true,"internalType":"address"},{"name":"amount","type":"uint256","indexed":false,"internalType":"uint256"}],"anonymous":false},{"type":"event","name":"Minted","inputs":[{"name":"sender","type":"address","indexed":true,"internalType":"address"},{"name":"recipient","type":"address","indexed":true,"internalType":"address"},{"name":"amount","type":"uint256","indexed":false,"internalType":"uint256"}],"anonymous":false},{"type":"event","name":"OwnershipTransferRequested","inputs":[{"name":"from","type":"address","indexed":true,"internalType":"address"},{"name":"to","type":"address","indexed":true,"internalType":"address"}],"anonymous":false},{"type":"event","name":"OwnershipTransferred","inputs":[{"name":"from","type":"address","indexed":true,"internalType":"address"},{"name":"to","type":"address","indexed":true,"internalType":"address"}],"anonymous":false},{"type":"event","name":"Released","inputs":[{"name":"sender","type":"address","indexed":true,"internalType":"address"},{"name":"recipient","type":"address","indexed":true,"internalType":"address"},{"name":"amount","type":"uint256","indexed":false,"internalType":"uint256"}],"anonymous":false},{"type":"event","name":"RemotePoolSet","inputs":[{"name":"remoteChainSelector","type":"uint64","indexed":true,"internalType":"uint64"},{"name":"previousPoolAddress","type":"bytes","indexed":false,"internalType":"bytes"},{"name":"remotePoolAddress","type":"bytes","indexed":false,"internalType":"bytes"}],"anonymous":false},{"type":"event","name":"RouterUpdated","inputs":[{"name":"oldRouter","type":"address","indexed":false,"internalType":"address"},{"name":"newRouter","type":"address","indexed":false,"internalType":"address"}],"anonymous":false},{"type":"event","name":"TokensConsumed","inputs":[{"name":"tokens","type":"uint256","indexed":false,"internalType":"uint256"}],"anonymous":false},{"type":"error","name":"AggregateValueMaxCapacityExceeded","inputs":[{"name":"capacity","type":"uint256","internalType":"uint256"},{"name":"requested","type":"uint256","internalType":"uint256"}]},{"type":"error","name":"AggregateValueRateLimitReached","inputs":[{"name":"minWaitInSeconds","type":"uint256","internalType":"uint256"},{"name":"available","type":"uint256","internalType":"uint256"}]},{"type":"error","name":"AllowListNotEnabled","inputs":[]},{"type":"error","name":"BucketOverfilled","inputs":[]},{"type":"error","name":"CallerIsNotARampOnRouter","inputs":[{"name":"caller","type":"address","internalType":"address"}]},{"type":"error","name":"ChainAlreadyExists","inputs":[{"name":"chainSelector","type":"uint64","internalType":"uint64"}]},{"type":"error","name":"ChainNotAllowed","inputs":[{"name":"remoteChainSelector","type":"uint64","internalType":"uint64"}]},{"type":"error","name":"CursedByRMN","inputs":[]},{"type":"error","name":"DisabledNonZeroRateLimit","inputs":[{"name":"config","type":"tuple","internalType":"struct RateLimiter.Config","components":[{"name":"isEnabled","type":"bool","internalType":"bool"},{"name":"capacity","type":"uint128","internalType":"uint128"},{"name":"rate","type":"uint128","internalType":"uint128"}]}]},{"type":"error","name":"InvalidConfig","inputs":[]},{"type":"error","name":"InvalidDestinationDomain","inputs":[{"name":"expected","type":"uint32","internalType":"uint32"},{"name":"got","type":"uint32","internalType":"uint32"}]},{"type":"error","name":"InvalidDomain","inputs":[{"name":"domain","type":"tuple","internalType":"struct USDCTokenPool.DomainUpdate","components":[{"name":"allowedCaller","type":"bytes32","internalType":"bytes32"},{"name":"domainIdentifier","type":"uint32","internalType":"uint32"},{"name":"destChainSelector","type":"uint64","internalType":"uint64"},{"name":"enabled","type":"bool","internalType":"bool"}]}]},{"type":"error","name":"InvalidMessageVersion","inputs":[{"name":"version","type":"uint32","internalType":"uint32"}]},{"type":"error","name":"InvalidNonce","inputs":[{"name":"expected","type":"uint64","internalType":"uint64"},{"name":"got","type":"uint64","internalType":"uint64"}]},{"type":"error","name":"InvalidRateLimitRate","inputs":[{"name":"rateLimiterConfig","type":"tuple","internalType":"struct RateLimiter.Config","components":[{"name":"isEnabled","type":"bool","internalType":"bool"},{"name":"capacity","type":"uint128","internalType":"uint128"},{"name":"rate","type":"uint128","internalType":"uint128"}]}]},{"type":"error","name":"InvalidReceiver","inputs":[{"name":"receiver","type":"bytes","internalType":"bytes"}]},{"type":"error","name":"InvalidSourceDomain","inputs":[{"name":"expected","type":"uint32","internalType":"uint32"},{"name":"got","type":"uint32","internalType":"uint32"}]},{"type":"error","name":"InvalidSourcePoolAddress","inputs":[{"name":"sourcePoolAddress","type":"bytes","internalType":"bytes"}]},{"type":"error","name":"InvalidToken","inputs":[{"name":"token","type":"address","internalType":"address"}]},{"type":"error","name":"InvalidTokenMessengerVersion","inputs":[{"name":"version","type":"uint32","internalType":"uint32"}]},{"type":"error","name":"NonExistentChain","inputs":[{"name":"remoteChainSelector","type":"uint64","internalType":"uint64"}]},{"type":"error","name":"RateLimitMustBeDisabled","inputs":[]},{"type":"error","name":"SenderNotAllowed","inputs":[{"name":"sender","type":"address","internalType":"address"}]},{"type":"error","name":"TokenMaxCapacityExceeded","inputs":[{"name":"capacity","type":"uint256","internalType":"uint256"},{"name":"requested","type":"uint256","internalType":"uint256"},{"name":"tokenAddress","type":"address","internalType":"address"}]},{"type":"error","name":"TokenRateLimitReached","inputs":[{"name":"minWaitInSeconds","type":"uint256","internalType":"uint256"},{"name":"available","type":"uint256","internalType":"uint256"},{"name":"tokenAddress","type":"address","internalType":"address"}]},{"type":"error","name":"UnknownDomain","inputs":[{"name":"domain","type":"uint64","internalType":"uint64"}]},{"type":"error","name":"UnlockingUSDCFailed","inputs":[]},{"type":"error","name":"ZeroAddressNotAllowed","inputs":[]}],"bytecode":{"object":"0x6101406040523480156200001257600080fd5b5060405162007e9238038062007e928339818101604052810190620000389190620012a3565b848484848483838383338060008073ffffffffffffffffffffffffffffffffffffffff168273ffffffffffffffffffffffffffffffffffffffff1603620000b6576040517f08c379a0000000000000000000000000000000000000000000000000000000008152600401620000ad90620013ab565b60405180910390fd5b816000806101000a81548173ffffffffffffffffffffffffffffffffffffffff021916908373ffffffffffffffffffffffffffffffffffffffff160217905550600073ffffffffffffffffffffffffffffffffffffffff168173ffffffffffffffffffffffffffffffffffffffff16146200013d576200013c816200073b60201b60201c565b5b505050600073ffffffffffffffffffffffffffffffffffffffff168473ffffffffffffffffffffffffffffffffffffffff161480620001a85750600073ffffffffffffffffffffffffffffffffffffffff168173ffffffffffffffffffffffffffffffffffffffff16145b80620001e05750600073ffffffffffffffffffffffffffffffffffffffff168273ffffffffffffffffffffffffffffffffffffffff16145b1562000218576040517f8579befe00000000000000000000000000000000000000000000000000000000815260040160405180910390fd5b8373ffffffffffffffffffffffffffffffffffffffff1660808173ffffffffffffffffffffffffffffffffffffffff16815250508173ffffffffffffffffffffffffffffffffffffffff1660a08173ffffffffffffffffffffffffffffffffffffffff168152505080600460006101000a81548173ffffffffffffffffffffffffffffffffffffffff021916908373ffffffffffffffffffffffffffffffffffffffff1602179055506000835111151560c08115158152505060c051156200033a5762000339600067ffffffffffffffff811115620002fc57620002fb62001113565b5b6040519080825280602002602001820160405280156200032b5781602001602082028036833780820191505090505b50846200086a60201b60201c565b5b50505050600073ffffffffffffffffffffffffffffffffffffffff168573ffffffffffffffffffffffffffffffffffffffff1603620003a5576040517f35be3ac800000000000000000000000000000000000000000000000000000000815260040160405180910390fd5b60008573ffffffffffffffffffffffffffffffffffffffff16632c1219216040518163ffffffff1660e01b8152600401602060405180830381865afa158015620003f3573d6000803e3d6000fd5b505050506040513d601f19601f82011682018060405250810190620004199190620013cd565b905060008173ffffffffffffffffffffffffffffffffffffffff166354fd4d506040518163ffffffff1660e01b8152600401602060405180830381865afa15801562000469573d6000803e3d6000fd5b505050506040513d601f19601f820116820180604052508101906200048f919062001440565b9050600063ffffffff168163ffffffff1614620004e557806040517f68d2f8d6000000000000000000000000000000000000000000000000000000008152600401620004dc919062001483565b60405180910390fd5b60008773ffffffffffffffffffffffffffffffffffffffff16639cdbb1816040518163ffffffff1660e01b8152600401602060405180830381865afa15801562000533573d6000803e3d6000fd5b505050506040513d601f19601f8201168201806040525081019062000559919062001440565b9050600063ffffffff168163ffffffff1614620005af57806040517fb5d1ce28000000000000000000000000000000000000000000000000000000008152600401620005a6919062001483565b60405180910390fd5b8773ffffffffffffffffffffffffffffffffffffffff1660e08173ffffffffffffffffffffffffffffffffffffffff16815250508273ffffffffffffffffffffffffffffffffffffffff166101008173ffffffffffffffffffffffffffffffffffffffff16815250508273ffffffffffffffffffffffffffffffffffffffff16638d3638f46040518163ffffffff1660e01b8152600401602060405180830381865afa15801562000664573d6000803e3d6000fd5b505050506040513d601f19601f820116820180604052508101906200068a919062001440565b63ffffffff166101208163ffffffff1681525050620006ef60e0517fffffffffffffffffffffffffffffffffffffffffffffffffffffffffffffffff60805173ffffffffffffffffffffffffffffffffffffffff1662000a0b60201b9092919060201c565b7f2e902d38f15b233cbb63711add0fca4545334d3a169d60c0a616494d7eea954488604051620007209190620014b1565b60405180910390a15050505050505050505050505062001a2e565b3373ffffffffffffffffffffffffffffffffffffffff168173ffffffffffffffffffffffffffffffffffffffff1603620007ac576040517f08c379a0000000000000000000000000000000000000000000000000000000008152600401620007a3906200151e565b60405180910390fd5b80600160006101000a81548173ffffffffffffffffffffffffffffffffffffffff021916908373ffffffffffffffffffffffffffffffffffffffff1602179055508073ffffffffffffffffffffffffffffffffffffffff1660008054906101000a900473ffffffffffffffffffffffffffffffffffffffff1673ffffffffffffffffffffffffffffffffffffffff167fed8889f560326eb138920d842192f0eb3dd22b4f139c87a2c57538e05bae127860405160405180910390a350565b60c051620008a4576040517f35f4a7b300000000000000000000000000000000000000000000000000000000815260040160405180910390fd5b60005b825181101562000936576000838281518110620008c957620008c862001540565b5b60200260200101519050620008e981600262000b2e60201b90919060201c565b1562000929577f800671136ab6cfee9fbe5ed1fb7ca417811aca3cf864800d127b927adedf756681604051620009209190620014b1565b60405180910390a15b50806001019050620008a7565b5060005b815181101562000a065760008282815181106200095c576200095b62001540565b5b60200260200101519050600073ffffffffffffffffffffffffffffffffffffffff168173ffffffffffffffffffffffffffffffffffffffff1603620009a25750620009fa565b620009b881600262000b6660201b90919060201c565b15620009f8577f2640d4d76caf8bf478aabfa982fa4e1c4eb71a37f93cd15e80dbc657911546d881604051620009ef9190620014b1565b60405180910390a15b505b8060010190506200093a565b505050565b6000818473ffffffffffffffffffffffffffffffffffffffff1663dd62ed3e30866040518363ffffffff1660e01b815260040162000a4b9291906200156f565b602060405180830381865afa15801562000a69573d6000803e3d6000fd5b505050506040513d601f19601f8201168201806040525081019062000a8f9190620015d7565b62000a9b919062001638565b905062000b288463095ea7b360e01b858460405160240162000abf92919062001684565b604051602081830303815290604052907bffffffffffffffffffffffffffffffffffffffffffffffffffffffff19166020820180517bffffffffffffffffffffffffffffffffffffffffffffffffffffffff838183161783525050505062000b9e60201b60201c565b50505050565b600062000b5e836000018373ffffffffffffffffffffffffffffffffffffffff1660001b62000c6d60201b60201c565b905092915050565b600062000b96836000018373ffffffffffffffffffffffffffffffffffffffff1660001b62000d9160201b60201c565b905092915050565b600062000c02826040518060400160405280602081526020017f5361666545524332303a206c6f772d6c6576656c2063616c6c206661696c65648152508573ffffffffffffffffffffffffffffffffffffffff1662000e0b60201b9092919060201c565b905060008151111562000c68578080602001905181019062000c259190620016ee565b62000c67576040517f08c379a000000000000000000000000000000000000000000000000000000000815260040162000c5e9062001796565b60405180910390fd5b5b505050565b6000808360010160008481526020019081526020016000205490506000811462000d8557600060018262000ca29190620017b8565b905060006001866000018054905062000cbc9190620017b8565b905081811462000d3257600086600001828154811062000ce15762000ce062001540565b5b906000526020600020015490508087600001848154811062000d085762000d0762001540565b5b90600052602060002001819055508387600101600083815260200190815260200160002081905550505b8560000180548062000d495762000d48620017f3565b5b60019003818190600052602060002001600090559055856001016000868152602001908152602001600020600090556001935050505062000d8b565b60009150505b92915050565b600062000da5838362000e2b60201b60201c565b62000e0057826000018290806001815401808255809150506001900390600052602060002001600090919091909150558260000180549050836001016000848152602001908152602001600020819055506001905062000e05565b600090505b92915050565b606062000e22848460008562000e4e60201b60201c565b90509392505050565b600080836001016000848152602001908152602001600020541415905092915050565b60608247101562000e96576040517f08c379a000000000000000000000000000000000000000000000000000000000815260040162000e8d9062001898565b60405180910390fd5b6000808673ffffffffffffffffffffffffffffffffffffffff16858760405162000ec1919062001933565b60006040518083038185875af1925050503d806000811462000f00576040519150601f19603f3d011682016040523d82523d6000602084013e62000f05565b606091505b509150915062000f1e8783838762000f2a60201b60201c565b92505050949350505050565b6060831562000f9a57600083510362000f915762000f4e8562000fb560201b60201c565b62000f90576040517f08c379a000000000000000000000000000000000000000000000000000000000815260040162000f87906200199c565b60405180910390fd5b5b82905062000fad565b62000fac838362000fd860201b60201c565b5b949350505050565b6000808273ffffffffffffffffffffffffffffffffffffffff163b119050919050565b60008251111562000fec5781518083602001fd5b806040517f08c379a000000000000000000000000000000000000000000000000000000000815260040162001022919062001a0a565b60405180910390fd5b6000604051905090565b600080fd5b600080fd5b600073ffffffffffffffffffffffffffffffffffffffff82169050919050565b60006200106c826200103f565b9050919050565b600062001080826200105f565b9050919050565b620010928162001073565b81146200109e57600080fd5b50565b600081519050620010b28162001087565b92915050565b6000620010c5826200105f565b9050919050565b620010d781620010b8565b8114620010e357600080fd5b50565b600081519050620010f781620010cc565b92915050565b600080fd5b6000601f19601f8301169050919050565b7f4e487b7100000000000000000000000000000000000000000000000000000000600052604160045260246000fd5b6200114d8262001102565b810181811067ffffffffffffffff821117156200116f576200116e62001113565b5b80604052505050565b6000620011846200102b565b905062001192828262001142565b919050565b600067ffffffffffffffff821115620011b557620011b462001113565b5b602082029050602081019050919050565b600080fd5b620011d6816200105f565b8114620011e257600080fd5b50565b600081519050620011f681620011cb565b92915050565b6000620012136200120d8462001197565b62001178565b90508083825260208201905060208402830185811115620012395762001238620011c6565b5b835b81811015620012665780620012518882620011e5565b8452602084019350506020810190506200123b565b5050509392505050565b600082601f830112620012885762001287620010fd565b5b81516200129a848260208601620011fc565b91505092915050565b600080600080600060a08688031215620012c257620012c162001035565b5b6000620012d288828901620010a1565b9550506020620012e588828901620010e6565b945050604086015167ffffffffffffffff8111156200130957620013086200103a565b5b620013178882890162001270565b93505060606200132a88828901620011e5565b92505060806200133d88828901620011e5565b9150509295509295909350565b600082825260208201905092915050565b7f43616e6e6f7420736574206f776e657220746f207a65726f0000000000000000600082015250565b6000620013936018836200134a565b9150620013a0826200135b565b602082019050919050565b60006020820190508181036000830152620013c68162001384565b9050919050565b600060208284031215620013e657620013e562001035565b5b6000620013f684828501620011e5565b91505092915050565b600063ffffffff82169050919050565b6200141a81620013ff565b81146200142657600080fd5b50565b6000815190506200143a816200140f565b92915050565b60006020828403121562001459576200145862001035565b5b6000620014698482850162001429565b91505092915050565b6200147d81620013ff565b82525050565b60006020820190506200149a600083018462001472565b92915050565b620014ab816200105f565b82525050565b6000602082019050620014c86000830184620014a0565b92915050565b7f43616e6e6f74207472616e7366657220746f2073656c66000000000000000000600082015250565b6000620015066017836200134a565b91506200151382620014ce565b602082019050919050565b600060208201905081810360008301526200153981620014f7565b9050919050565b7f4e487b7100000000000000000000000000000000000000000000000000000000600052603260045260246000fd5b6000604082019050620015866000830185620014a0565b620015956020830184620014a0565b9392505050565b6000819050919050565b620015b1816200159c565b8114620015bd57600080fd5b50565b600081519050620015d181620015a6565b92915050565b600060208284031215620015f057620015ef62001035565b5b60006200160084828501620015c0565b91505092915050565b7f4e487b7100000000000000000000000000000000000000000000000000000000600052601160045260246000fd5b600062001645826200159c565b915062001652836200159c565b92508282019050808211156200166d576200166c62001609565b5b92915050565b6200167e816200159c565b82525050565b60006040820190506200169b6000830185620014a0565b620016aa602083018462001673565b9392505050565b60008115159050919050565b620016c881620016b1565b8114620016d457600080fd5b50565b600081519050620016e881620016bd565b92915050565b60006020828403121562001707576200170662001035565b5b60006200171784828501620016d7565b91505092915050565b7f5361666545524332303a204552433230206f7065726174696f6e20646964206e60008201527f6f74207375636365656400000000000000000000000000000000000000000000602082015250565b60006200177e602a836200134a565b91506200178b8262001720565b604082019050919050565b60006020820190508181036000830152620017b1816200176f565b9050919050565b6000620017c5826200159c565b9150620017d2836200159c565b9250828203905081811115620017ed57620017ec62001609565b5b92915050565b7f4e487b7100000000000000000000000000000000000000000000000000000000600052603160045260246000fd5b7f416464726573733a20696e73756666696369656e742062616c616e636520666f60008201527f722063616c6c0000000000000000000000000000000000000000000000000000602082015250565b6000620018806026836200134a565b91506200188d8262001822565b604082019050919050565b60006020820190508181036000830152620018b38162001871565b9050919050565b600081519050919050565b600081905092915050565b60005b83811015620018f0578082015181840152602081019050620018d3565b60008484015250505050565b60006200190982620018ba565b620019158185620018c5565b935062001927818560208601620018d0565b80840191505092915050565b6000620019418284620018fc565b915081905092915050565b7f416464726573733a2063616c6c20746f206e6f6e2d636f6e7472616374000000600082015250565b600062001984601d836200134a565b915062001991826200194c565b602082019050919050565b60006020820190508181036000830152620019b78162001975565b9050919050565b600081519050919050565b6000620019d682620019be565b620019e281856200134a565b9350620019f4818560208601620018d0565b620019ff8162001102565b840191505092915050565b6000602082019050818103600083015262001a268184620019c9565b905092915050565b60805160a05160c05160e05161010051610120516163b962001ad960003960008181610d32015281816113a501528181612569015261259c015260008181610abd0152612217015260008181610d0e01526112370152600081816121dd015281816126eb01526131ba0152600081816121290152818161231d01526128ff0152600081816109d5015281816109fd0152818161128201528181613012015261339901526163b96000f3fe608060405234801561001057600080fd5b50600436106101e45760003560e01c80639a4575b91161010f578063c75eea9c116100a2578063dfadfa3511610071578063dfadfa3514610593578063e0351e13146105c3578063f2fde38b146105e1578063fbf84dd7146105fd576101e4565b8063c75eea9c1461050d578063cf7401f31461053d578063db6327dc14610559578063dc0bd97114610575576101e4565b8063b0f479a1116100de578063b0f479a114610485578063b7946580146104a3578063c0d78655146104d3578063c4bffe2b146104ef576101e4565b80639a4575b9146103e95780639fdf13ff14610419578063a7cd63b714610437578063af58d59f14610455576101e4565b806346a23ab71161018757806378a010b21161015657806378a010b21461037557806379ba5097146103915780638926f54f1461039b5780638da5cb5b146103cb576101e4565b806346a23ab71461030157806354c8a4f31461031d5780636155cda0146103395780636b716b0d14610357576101e4565b8063181f5a77116101c3578063181f5a771461026557806321df0da714610283578063240028e8146102a157806339077537146102d1576101e4565b806241d3c1146101e957806301ffc9a7146102055780630a2fd49314610235575b600080fd5b61020360048036038101906101fe9190614015565b61061b565b005b61021f600480360381019061021a91906140ba565b6107bb565b60405161022c9190614102565b60405180910390f35b61024f600480360381019061024a919061415d565b6108dc565b60405161025c919061421a565b60405180910390f35b61026d610998565b60405161027a9190614291565b60405180910390f35b61028b6109d1565b6040516102989190614332565b60405180910390f35b6102bb60048036038101906102b6919061438b565b6109f9565b6040516102c89190614102565b60405180910390f35b6102eb60048036038101906102e691906143dd565b610a51565b6040516102f8919061445b565b60405180910390f35b61031b6004803603810190610316919061463c565b610c64565b005b610337600480360381019061033291906146ee565b610c72565b005b610341610d0c565b60405161034e9190614790565b60405180910390f35b61035f610d30565b60405161036c91906147ba565b60405180910390f35b61038f600480360381019061038a919061482b565b610d54565b005b610399610ee3565b005b6103b560048036038101906103b0919061415d565b611078565b6040516103c29190614102565b60405180910390f35b6103d361109f565b6040516103e0919061489a565b60405180910390f35b61040360048036038101906103fe91906148d4565b6110c8565b60405161041091906149ab565b60405180910390f35b6104216113f8565b60405161042e91906147ba565b60405180910390f35b61043f6113fd565b60405161044c9190614a8b565b60405180910390f35b61046f600480360381019061046a919061415d565b61140e565b60405161047c9190614b5e565b60405180910390f35b61048d611579565b60405161049a919061489a565b60405180910390f35b6104bd60048036038101906104b8919061415d565b6115a3565b6040516104ca919061421a565b60405180910390f35b6104ed60048036038101906104e8919061438b565b61165f565b005b6104f7611772565b6040516105049190614c37565b60405180910390f35b6105276004803603810190610522919061415d565b611840565b6040516105349190614b5e565b60405180910390f35b61055760048036038101906105529190614d15565b6119ab565b005b610573600480360381019061056e9190614dbe565b6119c3565b005b61057d612125565b60405161058a919061489a565b60405180910390f35b6105ad60048036038101906105a8919061415d565b61214d565b6040516105ba9190614e66565b60405180910390f35b6105cb6121d9565b6040516105d89190614102565b60405180910390f35b6105fb60048036038101906105f6919061438b565b612201565b005b610605612215565b6040516106129190614ea2565b60405180910390f35b610623612239565b60005b8282905081101561077d57600083838381811061064657610645614ebd565b5b90506080020180360381019061065c9190614f90565b90506000801b8160000151148061068157506000816040015167ffffffffffffffff16145b156106c357806040517fa087bd290000000000000000000000000000000000000000000000000000000081526004016106ba9190615012565b60405180910390fd5b604051806060016040528082600001518152602001826020015163ffffffff1681526020018260600151151581525060086000836040015167ffffffffffffffff1667ffffffffffffffff1681526020019081526020016000206000820151816000015560208201518160010160006101000a81548163ffffffff021916908363ffffffff16021790555060408201518160010160046101000a81548160ff02191690831515021790555090505050806001019050610626565b507f1889010d2535a0ab1643678d1da87fbbe8b87b2f585b47ddb72ec622aef9ee5682826040516107af9291906151a6565b60405180910390a15050565b600063aff2afbf60e01b7bffffffffffffffffffffffffffffffffffffffffffffffffffffffff1916827bffffffffffffffffffffffffffffffffffffffffffffffffffffffff1916148061086d57507f0e64dd29000000000000000000000000000000000000000000000000000000007bffffffffffffffffffffffffffffffffffffffffffffffffffffffff1916827bffffffffffffffffffffffffffffffffffffffffffffffffffffffff1916145b806108d557507f01ffc9a7000000000000000000000000000000000000000000000000000000007bffffffffffffffffffffffffffffffffffffffffffffffffffffffff1916827bffffffffffffffffffffffffffffffffffffffffffffffffffffffff1916145b9050919050565b6060600760008367ffffffffffffffff1667ffffffffffffffff1681526020019081526020016000206004018054610913906151f9565b80601f016020809104026020016040519081016040528092919081815260200182805461093f906151f9565b801561098c5780601f106109615761010080835404028352916020019161098c565b820191906000526020600020905b81548152906001019060200180831161096f57829003601f168201915b50505050509050919050565b6040518060400160405280601781526020017f55534443546f6b656e506f6f6c20312e352e302d64657600000000000000000081525081565b60007f0000000000000000000000000000000000000000000000000000000000000000905090565b60007f000000000000000000000000000000000000000000000000000000000000000073ffffffffffffffffffffffffffffffffffffffff168273ffffffffffffffffffffffffffffffffffffffff16149050919050565b610a59613e79565b610a6b82610a6690615390565b6122c9565b6000828060c00190610a7d91906153b2565b810190610a8a9190615415565b90506000838060e00190610a9e91906153b2565b810190610aab91906154ca565b9050610abb816000015183612499565b7f000000000000000000000000000000000000000000000000000000000000000073ffffffffffffffffffffffffffffffffffffffff166357ecfd28826000015183602001516040518363ffffffff1660e01b8152600401610b1e929190615513565b6020604051808303816000875af1158015610b3d573d6000803e3d6000fd5b505050506040513d601f19601f82011682018060405250810190610b61919061555f565b610b97576040517fbf969f2200000000000000000000000000000000000000000000000000000000815260040160405180910390fd5b610bcd338560600135610ba86109d1565b73ffffffffffffffffffffffffffffffffffffffff166126639092919063ffffffff16565b836040016020810190610be0919061438b565b73ffffffffffffffffffffffffffffffffffffffff163373ffffffffffffffffffffffffffffffffffffffff167f9d228d69b5fdb8d273a2336f8fb8612d039631024ea9bf09c424a9503aa078f08660600135604051610c40919061559b565b60405180910390a36040518060200160405280856060013581525092505050919050565b610c6e8282612499565b5050565b610c7a612239565b610d06848480806020026020016040519081016040528093929190818152602001838360200280828437600081840152601f19601f82011690508083019250505050505050838380806020026020016040519081016040528093929190818152602001838360200280828437600081840152601f19601f820116905080830192505050505050506126e9565b50505050565b7f000000000000000000000000000000000000000000000000000000000000000081565b7f000000000000000000000000000000000000000000000000000000000000000081565b610d5c612239565b610d6583611078565b610da657826040517f1e670e4b000000000000000000000000000000000000000000000000000000008152600401610d9d91906155c5565b60405180910390fd5b6000600760008567ffffffffffffffff1667ffffffffffffffff1681526020019081526020016000206004018054610ddd906151f9565b80601f0160208091040260200160405190810160405280929190818152602001828054610e09906151f9565b8015610e565780601f10610e2b57610100808354040283529160200191610e56565b820191906000526020600020905b815481529060010190602001808311610e3957829003601f168201915b505050505090508282600760008767ffffffffffffffff1667ffffffffffffffff1681526020019081526020016000206004019182610e9692919061578d565b508367ffffffffffffffff167fdb4d6220746a38cbc5335f7e108f7de80f482f4d23350253dfd0917df75a14bf828585604051610ed59392919061588a565b60405180910390a250505050565b600160009054906101000a900473ffffffffffffffffffffffffffffffffffffffff1673ffffffffffffffffffffffffffffffffffffffff163373ffffffffffffffffffffffffffffffffffffffff1614610f73576040517f08c379a0000000000000000000000000000000000000000000000000000000008152600401610f6a9061590f565b60405180910390fd5b60008060009054906101000a900473ffffffffffffffffffffffffffffffffffffffff169050336000806101000a81548173ffffffffffffffffffffffffffffffffffffffff021916908373ffffffffffffffffffffffffffffffffffffffff1602179055506000600160006101000a81548173ffffffffffffffffffffffffffffffffffffffff021916908373ffffffffffffffffffffffffffffffffffffffff1602179055503373ffffffffffffffffffffffffffffffffffffffff168173ffffffffffffffffffffffffffffffffffffffff167f8be0079c531659141344cd1fd0a4f28419497f9722a3daafe3b4186f6b6457e060405160405180910390a350565b60006110988267ffffffffffffffff16600561289190919063ffffffff16565b9050919050565b60008060009054906101000a900473ffffffffffffffffffffffffffffffffffffffff16905090565b6110d0613e8c565b6110e2826110dd906159d7565b6128ab565b6000600860008460200160208101906110fb919061415d565b67ffffffffffffffff1667ffffffffffffffff168152602001908152602001600020604051806060016040529081600082015481526020016001820160009054906101000a900463ffffffff1663ffffffff1663ffffffff1681526020016001820160049054906101000a900460ff161515151581525050905080604001516111cd57826020016020810190611191919061415d565b6040517fd201c48a0000000000000000000000000000000000000000000000000000000081526004016111c491906155c5565b60405180910390fd5b60208380600001906111df91906153b2565b905014611233578280600001906111f691906153b2565b6040517fa3c8cf0900000000000000000000000000000000000000000000000000000000815260040161122a9291906159ea565b60405180910390fd5b60007f000000000000000000000000000000000000000000000000000000000000000073ffffffffffffffffffffffffffffffffffffffff1663f856ddb68560600135846020015185600001517f000000000000000000000000000000000000000000000000000000000000000087600001516040518663ffffffff1660e01b81526004016112c6959493929190615a1d565b6020604051808303816000875af11580156112e5573d6000803e3d6000fd5b505050506040513d601f19601f820116820180604052508101906113099190615a85565b90503373ffffffffffffffffffffffffffffffffffffffff167f696de425f79f4a40bc6d2122ca50507f0efbeabbff86a84871b7196ab8ea8df78560600135604051611355919061559b565b60405180910390a2604051806040016040528061138386602001602081019061137e919061415d565b6115a3565b815260200160405180604001604052808467ffffffffffffffff1681526020017f000000000000000000000000000000000000000000000000000000000000000063ffffffff168152506040516020016113dd9190615ae1565b60405160208183030381529060405281525092505050919050565b600081565b60606114096002612a0e565b905090565b611416613ea6565b611572600760008467ffffffffffffffff1667ffffffffffffffff1681526020019081526020016000206002016040518060a00160405290816000820160009054906101000a90046fffffffffffffffffffffffffffffffff166fffffffffffffffffffffffffffffffff166fffffffffffffffffffffffffffffffff1681526020016000820160109054906101000a900463ffffffff1663ffffffff1663ffffffff1681526020016000820160149054906101000a900460ff161515151581526020016001820160009054906101000a90046fffffffffffffffffffffffffffffffff166fffffffffffffffffffffffffffffffff166fffffffffffffffffffffffffffffffff1681526020016001820160109054906101000a90046fffffffffffffffffffffffffffffffff166fffffffffffffffffffffffffffffffff166fffffffffffffffffffffffffffffffff1681525050612a2f565b9050919050565b6000600460009054906101000a900473ffffffffffffffffffffffffffffffffffffffff16905090565b6060600760008367ffffffffffffffff1667ffffffffffffffff16815260200190815260200160002060050180546115da906151f9565b80601f0160208091040260200160405190810160405280929190818152602001828054611606906151f9565b80156116535780601f1061162857610100808354040283529160200191611653565b820191906000526020600020905b81548152906001019060200180831161163657829003601f168201915b50505050509050919050565b611667612239565b600073ffffffffffffffffffffffffffffffffffffffff168173ffffffffffffffffffffffffffffffffffffffff16036116cd576040517f8579befe00000000000000000000000000000000000000000000000000000000815260040160405180910390fd5b6000600460009054906101000a900473ffffffffffffffffffffffffffffffffffffffff16905081600460006101000a81548173ffffffffffffffffffffffffffffffffffffffff021916908373ffffffffffffffffffffffffffffffffffffffff1602179055507f02dc5c233404867c793b749c6d644beb2277536d18a7e7974d3f238e4c6f16848183604051611766929190615afc565b60405180910390a15050565b606060006117806005612ae9565b90506000815167ffffffffffffffff81111561179f5761179e61447b565b5b6040519080825280602002602001820160405280156117cd5781602001602082028036833780820191505090505b50905060005b8251811015611837578281815181106117ef576117ee614ebd565b5b602002602001015182828151811061180a57611809614ebd565b5b602002602001019067ffffffffffffffff16908167ffffffffffffffff16815250508060010190506117d3565b50809250505090565b611848613ea6565b6119a4600760008467ffffffffffffffff1667ffffffffffffffff1681526020019081526020016000206000016040518060a00160405290816000820160009054906101000a90046fffffffffffffffffffffffffffffffff166fffffffffffffffffffffffffffffffff166fffffffffffffffffffffffffffffffff1681526020016000820160109054906101000a900463ffffffff1663ffffffff1663ffffffff1681526020016000820160149054906101000a900460ff161515151581526020016001820160009054906101000a90046fffffffffffffffffffffffffffffffff166fffffffffffffffffffffffffffffffff166fffffffffffffffffffffffffffffffff1681526020016001820160109054906101000a90046fffffffffffffffffffffffffffffffff166fffffffffffffffffffffffffffffffff166fffffffffffffffffffffffffffffffff1681525050612a2f565b9050919050565b6119b3612239565b6119be838383612b0a565b505050565b6119cb612239565b60005b828290508110156121205760008383838181106119ee576119ed614ebd565b5b9050602002810190611a009190615b25565b611a0990615c27565b9050611a1e8160800151826020015115612c22565b611a318160a00151826020015115612c22565b806020015115611eed57611a5d816000015167ffffffffffffffff166005612d8090919063ffffffff16565b611aa25780600001516040517f1d5ad3c5000000000000000000000000000000000000000000000000000000008152600401611a9991906155c5565b60405180910390fd5b60008160400151511480611abb57506000816060015151145b15611af2576040517f8579befe00000000000000000000000000000000000000000000000000000000815260040160405180910390fd5b60405180608001604052806040518060a001604052808460800151602001516fffffffffffffffffffffffffffffffff1681526020014263ffffffff168152602001846080015160000151151581526020018460800151602001516fffffffffffffffffffffffffffffffff1681526020018460800151604001516fffffffffffffffffffffffffffffffff1681525081526020016040518060a001604052808460a00151602001516fffffffffffffffffffffffffffffffff1681526020014263ffffffff1681526020018460a0015160000151151581526020018460a00151602001516fffffffffffffffffffffffffffffffff1681526020018460a00151604001516fffffffffffffffffffffffffffffffff16815250815260200182604001518152602001826060015181525060076000836000015167ffffffffffffffff1667ffffffffffffffff16815260200190815260200160002060008201518160000160008201518160000160006101000a8154816fffffffffffffffffffffffffffffffff02191690836fffffffffffffffffffffffffffffffff16021790555060208201518160000160106101000a81548163ffffffff021916908363ffffffff16021790555060408201518160000160146101000a81548160ff02191690831515021790555060608201518160010160006101000a8154816fffffffffffffffffffffffffffffffff02191690836fffffffffffffffffffffffffffffffff16021790555060808201518160010160106101000a8154816fffffffffffffffffffffffffffffffff02191690836fffffffffffffffffffffffffffffffff160217905550505060208201518160020160008201518160000160006101000a8154816fffffffffffffffffffffffffffffffff02191690836fffffffffffffffffffffffffffffffff16021790555060208201518160000160106101000a81548163ffffffff021916908363ffffffff16021790555060408201518160000160146101000a81548160ff02191690831515021790555060608201518160010160006101000a8154816fffffffffffffffffffffffffffffffff02191690836fffffffffffffffffffffffffffffffff16021790555060808201518160010160106101000a8154816fffffffffffffffffffffffffffffffff02191690836fffffffffffffffffffffffffffffffff16021790555050506040820151816004019081611e819190615c3a565b506060820151816005019081611e979190615c3a565b509050507f8d340f17e19058004c20453540862a9c62778504476f6756755cb33bcd6c38c28160000151826060015183608001518460a00151604051611ee09493929190615d4e565b60405180910390a1612114565b611f0f816000015167ffffffffffffffff166005612d9a90919063ffffffff16565b611f545780600001516040517f1e670e4b000000000000000000000000000000000000000000000000000000008152600401611f4b91906155c5565b60405180910390fd5b60076000826000015167ffffffffffffffff1667ffffffffffffffff1681526020019081526020016000206000808201600080820160006101000a8154906fffffffffffffffffffffffffffffffff02191690556000820160106101000a81549063ffffffff02191690556000820160146101000a81549060ff02191690556001820160006101000a8154906fffffffffffffffffffffffffffffffff02191690556001820160106101000a8154906fffffffffffffffffffffffffffffffff0219169055505060028201600080820160006101000a8154906fffffffffffffffffffffffffffffffff02191690556000820160106101000a81549063ffffffff02191690556000820160146101000a81549060ff02191690556001820160006101000a8154906fffffffffffffffffffffffffffffffff02191690556001820160106101000a8154906fffffffffffffffffffffffffffffffff021916905550506004820160006120c69190613f13565b6005820160006120d69190613f13565b50507f5204aec90a3c794d8e90fded8b46ae9c7c552803e7e832e0c1d358396d859916816000015160405161210b91906155c5565b60405180910390a15b508060010190506119ce565b505050565b60007f0000000000000000000000000000000000000000000000000000000000000000905090565b612155613f53565b600860008367ffffffffffffffff1667ffffffffffffffff168152602001908152602001600020604051806060016040529081600082015481526020016001820160009054906101000a900463ffffffff1663ffffffff1663ffffffff1681526020016001820160049054906101000a900460ff1615151515815250509050919050565b60007f0000000000000000000000000000000000000000000000000000000000000000905090565b612209612239565b61221281612db4565b50565b7f000000000000000000000000000000000000000000000000000000000000000081565b60008054906101000a900473ffffffffffffffffffffffffffffffffffffffff1673ffffffffffffffffffffffffffffffffffffffff163373ffffffffffffffffffffffffffffffffffffffff16146122c7576040517f08c379a00000000000000000000000000000000000000000000000000000000081526004016122be90615de7565b60405180910390fd5b565b6122d681608001516109f9565b61231b5780608001516040517f961c9a4f000000000000000000000000000000000000000000000000000000008152600401612312919061489a565b60405180910390fd5b7f000000000000000000000000000000000000000000000000000000000000000073ffffffffffffffffffffffffffffffffffffffff16632cbc26bb826020015167ffffffffffffffff1660801b6040518263ffffffff1660e01b81526004016123859190615e42565b602060405180830381865afa1580156123a2573d6000803e3d6000fd5b505050506040513d601f19601f820116820180604052508101906123c6919061555f565b156123fd576040517f53ad11d800000000000000000000000000000000000000000000000000000000815260040160405180910390fd5b61240a8160200151612ee0565b600061241982602001516108dc565b905060008151148061243d575080805190602001208260a001518051906020012014155b15612483578160a001516040517f24eb47e500000000000000000000000000000000000000000000000000000000815260040161247a919061421a565b60405180910390fd5b6124958260200151836060015161300c565b5050565b600060048301519050600063ffffffff168163ffffffff16146124f357806040517f68d2f8d60000000000000000000000000000000000000000000000000000000081526004016124ea91906147ba565b60405180910390fd5b600080600060088601519250600c860151915060148601519050846020015163ffffffff168363ffffffff1614612567578460200151836040517fe366a11700000000000000000000000000000000000000000000000000000000815260040161255e929190615e5d565b60405180910390fd5b7f000000000000000000000000000000000000000000000000000000000000000063ffffffff168263ffffffff16146125f9577f0000000000000000000000000000000000000000000000000000000000000000826040517f77e480260000000000000000000000000000000000000000000000000000000081526004016125f0929190615e5d565b60405180910390fd5b846000015167ffffffffffffffff168167ffffffffffffffff161461265b578460000151816040517ff917ffea000000000000000000000000000000000000000000000000000000008152600401612652929190615e86565b60405180910390fd5b505050505050565b6126e48363a9059cbb60e01b8484604051602401612682929190615eaf565b604051602081830303815290604052907bffffffffffffffffffffffffffffffffffffffffffffffffffffffff19166020820180517bffffffffffffffffffffffffffffffffffffffffffffffffffffffff838183161783525050505061306e565b505050565b7f0000000000000000000000000000000000000000000000000000000000000000612740576040517f35f4a7b300000000000000000000000000000000000000000000000000000000815260040160405180910390fd5b60005b82518110156127c857600083828151811061276157612760614ebd565b5b6020026020010151905061277f81600261313590919063ffffffff16565b156127bc577f800671136ab6cfee9fbe5ed1fb7ca417811aca3cf864800d127b927adedf7566816040516127b3919061489a565b60405180910390a15b50806001019050612743565b5060005b815181101561288c5760008282815181106127ea576127e9614ebd565b5b60200260200101519050600073ffffffffffffffffffffffffffffffffffffffff168173ffffffffffffffffffffffffffffffffffffffff160361282e5750612881565b61284281600261316590919063ffffffff16565b1561287f577f2640d4d76caf8bf478aabfa982fa4e1c4eb71a37f93cd15e80dbc657911546d881604051612876919061489a565b60405180910390a15b505b8060010190506127cc565b505050565b60006128a3836000018360001b613195565b905092915050565b6128b881608001516109f9565b6128fd5780608001516040517f961c9a4f0000000000000000000000000000000000000000000000000000000081526004016128f4919061489a565b60405180910390fd5b7f000000000000000000000000000000000000000000000000000000000000000073ffffffffffffffffffffffffffffffffffffffff16632cbc26bb826020015167ffffffffffffffff1660801b6040518263ffffffff1660e01b81526004016129679190615e42565b602060405180830381865afa158015612984573d6000803e3d6000fd5b505050506040513d601f19601f820116820180604052508101906129a8919061555f565b156129df576040517f53ad11d800000000000000000000000000000000000000000000000000000000815260040160405180910390fd5b6129ec81604001516131b8565b6129f9816020015161323b565b612a0b81602001518260600151613393565b50565b60606000612a1e836000016133f5565b905060608190508092505050919050565b612a37613ea6565b612a9a82606001516fffffffffffffffffffffffffffffffff1683600001516fffffffffffffffffffffffffffffffff16846020015163ffffffff1642612a7e9190615f07565b85608001516fffffffffffffffffffffffffffffffff16613451565b82600001906fffffffffffffffffffffffffffffffff1690816fffffffffffffffffffffffffffffffff168152505042826020019063ffffffff16908163ffffffff1681525050819050919050565b60606000612af9836000016133f5565b905060608190508092505050919050565b612b1383611078565b612b5457826040517f1e670e4b000000000000000000000000000000000000000000000000000000008152600401612b4b91906155c5565b60405180910390fd5b612b5f826000612c22565b612b9b82600760008667ffffffffffffffff1667ffffffffffffffff16815260200190815260200160002060000161347d90919063ffffffff16565b612ba6816000612c22565b612be281600760008667ffffffffffffffff1667ffffffffffffffff16815260200190815260200160002060020161347d90919063ffffffff16565b7f0350d63aa5f270e01729d00d627eeb8f3429772b1818c016c66a588a864f912b838383604051612c1593929190615f3b565b60405180910390a1505050565b816000015115612cfc5781602001516fffffffffffffffffffffffffffffffff1682604001516fffffffffffffffffffffffffffffffff16101580612c7d5750600082604001516fffffffffffffffffffffffffffffffff16145b15612cbf57816040517f8020d124000000000000000000000000000000000000000000000000000000008152600401612cb69190615f72565b60405180910390fd5b8015612cf7576040517f433fc33d00000000000000000000000000000000000000000000000000000000815260040160405180910390fd5b612d7c565b600082604001516fffffffffffffffffffffffffffffffff16141580612d395750600082602001516fffffffffffffffffffffffffffffffff1614155b15612d7b57816040517fd68af9cc000000000000000000000000000000000000000000000000000000008152600401612d729190615f72565b60405180910390fd5b5b5050565b6000612d92836000018360001b613715565b905092915050565b6000612dac836000018360001b613785565b905092915050565b3373ffffffffffffffffffffffffffffffffffffffff168173ffffffffffffffffffffffffffffffffffffffff1603612e22576040517f08c379a0000000000000000000000000000000000000000000000000000000008152600401612e1990615fd9565b60405180910390fd5b80600160006101000a81548173ffffffffffffffffffffffffffffffffffffffff021916908373ffffffffffffffffffffffffffffffffffffffff1602179055508073ffffffffffffffffffffffffffffffffffffffff1660008054906101000a900473ffffffffffffffffffffffffffffffffffffffff1673ffffffffffffffffffffffffffffffffffffffff167fed8889f560326eb138920d842192f0eb3dd22b4f139c87a2c57538e05bae127860405160405180910390a350565b612ee981611078565b612f2a57806040517fa9902c7e000000000000000000000000000000000000000000000000000000008152600401612f2191906155c5565b60405180910390fd5b600460009054906101000a900473ffffffffffffffffffffffffffffffffffffffff1673ffffffffffffffffffffffffffffffffffffffff166383826b2b82336040518363ffffffff1660e01b8152600401612f87929190615ff9565b602060405180830381865afa158015612fa4573d6000803e3d6000fd5b505050506040513d601f19601f82011682018060405250810190612fc8919061555f565b61300957336040517f728fe07b000000000000000000000000000000000000000000000000000000008152600401613000919061489a565b60405180910390fd5b50565b61306a817f0000000000000000000000000000000000000000000000000000000000000000600760008667ffffffffffffffff1667ffffffffffffffff1681526020019081526020016000206002016138999092919063ffffffff16565b5050565b60006130d0826040518060400160405280602081526020017f5361666545524332303a206c6f772d6c6576656c2063616c6c206661696c65648152508573ffffffffffffffffffffffffffffffffffffffff16613c639092919063ffffffff16565b905060008151111561313057808060200190518101906130f0919061555f565b61312f576040517f08c379a000000000000000000000000000000000000000000000000000000000815260040161312690616094565b60405180910390fd5b5b505050565b600061315d836000018373ffffffffffffffffffffffffffffffffffffffff1660001b613785565b905092915050565b600061318d836000018373ffffffffffffffffffffffffffffffffffffffff1660001b613715565b905092915050565b600080836001016000848152602001908152602001600020541415905092915050565b7f000000000000000000000000000000000000000000000000000000000000000080156131f657506131f4816002613c7b90919063ffffffff16565b155b1561323857806040517fd0d2597600000000000000000000000000000000000000000000000000000000815260040161322f919061489a565b60405180910390fd5b50565b61324481611078565b61328557806040517fa9902c7e00000000000000000000000000000000000000000000000000000000815260040161327c91906155c5565b60405180910390fd5b600460009054906101000a900473ffffffffffffffffffffffffffffffffffffffff1673ffffffffffffffffffffffffffffffffffffffff1663a8d87a3b826040518263ffffffff1660e01b81526004016132e091906155c5565b602060405180830381865afa1580156132fd573d6000803e3d6000fd5b505050506040513d601f19601f8201168201806040525081019061332191906160c9565b73ffffffffffffffffffffffffffffffffffffffff163373ffffffffffffffffffffffffffffffffffffffff161461339057336040517f728fe07b000000000000000000000000000000000000000000000000000000008152600401613387919061489a565b60405180910390fd5b50565b6133f1817f0000000000000000000000000000000000000000000000000000000000000000600760008667ffffffffffffffff1667ffffffffffffffff1681526020019081526020016000206000016138999092919063ffffffff16565b5050565b60608160000180548060200260200160405190810160405280929190818152602001828054801561344557602002820191906000526020600020905b815481526020019060010190808311613431575b50505050509050919050565b600061347385838561346391906160f6565b8661346e9190616138565b613cab565b9050949350505050565b60008260000160109054906101000a900463ffffffff1663ffffffff16426134a59190615f07565b9050600081146135af576135518360010160009054906101000a90046fffffffffffffffffffffffffffffffff166fffffffffffffffffffffffffffffffff168460000160009054906101000a90046fffffffffffffffffffffffffffffffff166fffffffffffffffffffffffffffffffff16838660010160109054906101000a90046fffffffffffffffffffffffffffffffff166fffffffffffffffffffffffffffffffff16613451565b8360000160006101000a8154816fffffffffffffffffffffffffffffffff02191690836fffffffffffffffffffffffffffffffff160217905550428360000160106101000a81548163ffffffff021916908363ffffffff1602179055505b61360182602001516fffffffffffffffffffffffffffffffff168460000160009054906101000a90046fffffffffffffffffffffffffffffffff166fffffffffffffffffffffffffffffffff16613cab565b8360000160006101000a8154816fffffffffffffffffffffffffffffffff02191690836fffffffffffffffffffffffffffffffff16021790555081600001518360000160146101000a81548160ff02191690831515021790555081602001518360010160006101000a8154816fffffffffffffffffffffffffffffffff02191690836fffffffffffffffffffffffffffffffff16021790555081604001518360010160106101000a8154816fffffffffffffffffffffffffffffffff02191690836fffffffffffffffffffffffffffffffff1602179055507f9ea3374b67bf275e6bb9c8ae68f9cae023e1c528b4b27e092f0bb209d3531c19826040516137089190615f72565b60405180910390a1505050565b60006137218383613195565b61377a57826000018290806001815401808255809150506001900390600052602060002001600090919091909150558260000180549050836001016000848152602001908152602001600020819055506001905061377f565b600090505b92915050565b6000808360010160008481526020019081526020016000205490506000811461388d5760006001826137b79190615f07565b90506000600186600001805490506137cf9190615f07565b905081811461383e5760008660000182815481106137f0576137ef614ebd565b5b906000526020600020015490508087600001848154811061381457613813614ebd565b5b90600052602060002001819055508387600101600083815260200190815260200160002081905550505b856000018054806138525761385161616c565b5b600190038181906000526020600020016000905590558560010160008681526020019081526020016000206000905560019350505050613893565b60009150505b92915050565b8260000160149054906101000a900460ff1615806138b75750600082145b613c5e5760008360000160009054906101000a90046fffffffffffffffffffffffffffffffff166fffffffffffffffffffffffffffffffff16905060008460010160009054906101000a90046fffffffffffffffffffffffffffffffff166fffffffffffffffffffffffffffffffff16905060008560000160109054906101000a900463ffffffff1663ffffffff16426139519190615f07565b9050600081146139f95781831115613995576040517f9725942a00000000000000000000000000000000000000000000000000000000815260040160405180910390fd5b6139d38284838960010160109054906101000a90046fffffffffffffffffffffffffffffffff166fffffffffffffffffffffffffffffffff16613451565b9250428660000160106101000a81548163ffffffff021916908363ffffffff1602179055505b84821015613ab557600073ffffffffffffffffffffffffffffffffffffffff168473ffffffffffffffffffffffffffffffffffffffff1603613a745781856040517ff94ebcd1000000000000000000000000000000000000000000000000000000008152600401613a6b92919061619b565b60405180910390fd5b8185856040517f1a76572a000000000000000000000000000000000000000000000000000000008152600401613aac939291906161c4565b60405180910390fd5b84831015613bda5760008660010160109054906101000a90046fffffffffffffffffffffffffffffffff166fffffffffffffffffffffffffffffffff169050600081600183613b049190615f07565b8689613b109190615f07565b613b1a9190616138565b613b24919061622a565b9050600073ffffffffffffffffffffffffffffffffffffffff168673ffffffffffffffffffffffffffffffffffffffff1603613b995780856040517f15279c08000000000000000000000000000000000000000000000000000000008152600401613b9092919061619b565b60405180910390fd5b8085876040517fd0c8d23a000000000000000000000000000000000000000000000000000000008152600401613bd1939291906161c4565b60405180910390fd5b8483613be69190615f07565b9250828660000160006101000a8154816fffffffffffffffffffffffffffffffff02191690836fffffffffffffffffffffffffffffffff1602179055507f1871cdf8010e63f2eb8384381a68dfa7416dc571a5517e66e88b2d2d0c0a690a85604051613c52919061559b565b60405180910390a15050505b505050565b6060613c728484600085613cc4565b90509392505050565b6000613ca3836000018373ffffffffffffffffffffffffffffffffffffffff1660001b613195565b905092915050565b6000818310613cba5781613cbc565b825b905092915050565b606082471015613d09576040517f08c379a0000000000000000000000000000000000000000000000000000000008152600401613d00906162cd565b60405180910390fd5b6000808673ffffffffffffffffffffffffffffffffffffffff168587604051613d329190616329565b60006040518083038185875af1925050503d8060008114613d6f576040519150601f19603f3d011682016040523d82523d6000602084013e613d74565b606091505b5091509150613d8587838387613d91565b92505050949350505050565b60608315613df3576000835103613deb57613dab85613e06565b613dea576040517f08c379a0000000000000000000000000000000000000000000000000000000008152600401613de19061638c565b60405180910390fd5b5b829050613dfe565b613dfd8383613e29565b5b949350505050565b6000808273ffffffffffffffffffffffffffffffffffffffff163b119050919050565b600082511115613e3c5781518083602001fd5b806040517f08c379a0000000000000000000000000000000000000000000000000000000008152600401613e709190614291565b60405180910390fd5b6040518060200160405280600081525090565b604051806040016040528060608152602001606081525090565b6040518060a0016040528060006fffffffffffffffffffffffffffffffff168152602001600063ffffffff16815260200160001515815260200160006fffffffffffffffffffffffffffffffff16815260200160006fffffffffffffffffffffffffffffffff1681525090565b508054613f1f906151f9565b6000825580601f10613f315750613f50565b601f016020900490600052602060002090810190613f4f9190613f7f565b5b50565b604051806060016040528060008019168152602001600063ffffffff1681526020016000151581525090565b5b80821115613f98576000816000905550600101613f80565b5090565b6000604051905090565b600080fd5b600080fd5b600080fd5b600080fd5b600080fd5b60008083601f840112613fd557613fd4613fb0565b5b8235905067ffffffffffffffff811115613ff257613ff1613fb5565b5b60208301915083608082028301111561400e5761400d613fba565b5b9250929050565b6000806020838503121561402c5761402b613fa6565b5b600083013567ffffffffffffffff81111561404a57614049613fab565b5b61405685828601613fbf565b92509250509250929050565b60007fffffffff0000000000000000000000000000000000000000000000000000000082169050919050565b61409781614062565b81146140a257600080fd5b50565b6000813590506140b48161408e565b92915050565b6000602082840312156140d0576140cf613fa6565b5b60006140de848285016140a5565b91505092915050565b60008115159050919050565b6140fc816140e7565b82525050565b600060208201905061411760008301846140f3565b92915050565b600067ffffffffffffffff82169050919050565b61413a8161411d565b811461414557600080fd5b50565b60008135905061415781614131565b92915050565b60006020828403121561417357614172613fa6565b5b600061418184828501614148565b91505092915050565b600081519050919050565b600082825260208201905092915050565b60005b838110156141c45780820151818401526020810190506141a9565b60008484015250505050565b6000601f19601f8301169050919050565b60006141ec8261418a565b6141f68185614195565b93506142068185602086016141a6565b61420f816141d0565b840191505092915050565b6000602082019050818103600083015261423481846141e1565b905092915050565b600081519050919050565b600082825260208201905092915050565b60006142638261423c565b61426d8185614247565b935061427d8185602086016141a6565b614286816141d0565b840191505092915050565b600060208201905081810360008301526142ab8184614258565b905092915050565b600073ffffffffffffffffffffffffffffffffffffffff82169050919050565b6000819050919050565b60006142f86142f36142ee846142b3565b6142d3565b6142b3565b9050919050565b600061430a826142dd565b9050919050565b600061431c826142ff565b9050919050565b61432c81614311565b82525050565b60006020820190506143476000830184614323565b92915050565b6000614358826142b3565b9050919050565b6143688161434d565b811461437357600080fd5b50565b6000813590506143858161435f565b92915050565b6000602082840312156143a1576143a0613fa6565b5b60006143af84828501614376565b91505092915050565b600080fd5b600061010082840312156143d4576143d36143b8565b5b81905092915050565b6000602082840312156143f3576143f2613fa6565b5b600082013567ffffffffffffffff81111561441157614410613fab565b5b61441d848285016143bd565b91505092915050565b6000819050919050565b61443981614426565b82525050565b6020820160008201516144556000850182614430565b50505050565b6000602082019050614470600083018461443f565b92915050565b600080fd5b7f4e487b7100000000000000000000000000000000000000000000000000000000600052604160045260246000fd5b6144b3826141d0565b810181811067ffffffffffffffff821117156144d2576144d161447b565b5b80604052505050565b60006144e5613f9c565b90506144f182826144aa565b919050565b600067ffffffffffffffff8211156145115761451061447b565b5b61451a826141d0565b9050602081019050919050565b82818337600083830152505050565b6000614549614544846144f6565b6144db565b90508281526020810184848401111561456557614564614476565b5b614570848285614527565b509392505050565b600082601f83011261458d5761458c613fb0565b5b813561459d848260208601614536565b91505092915050565b600080fd5b600080fd5b600063ffffffff82169050919050565b6145c9816145b0565b81146145d457600080fd5b50565b6000813590506145e6816145c0565b92915050565b600060408284031215614602576146016145a6565b5b61460c60406144db565b9050600061461c84828501614148565b6000830152506020614630848285016145d7565b60208301525092915050565b6000806060838503121561465357614652613fa6565b5b600083013567ffffffffffffffff81111561467157614670613fab565b5b61467d85828601614578565b925050602061468e858286016145ec565b9150509250929050565b60008083601f8401126146ae576146ad613fb0565b5b8235905067ffffffffffffffff8111156146cb576146ca613fb5565b5b6020830191508360208202830111156146e7576146e6613fba565b5b9250929050565b6000806000806040858703121561470857614707613fa6565b5b600085013567ffffffffffffffff81111561472657614725613fab565b5b61473287828801614698565b9450945050602085013567ffffffffffffffff81111561475557614754613fab565b5b61476187828801614698565b925092505092959194509250565b600061477a826142ff565b9050919050565b61478a8161476f565b82525050565b60006020820190506147a56000830184614781565b92915050565b6147b4816145b0565b82525050565b60006020820190506147cf60008301846147ab565b92915050565b60008083601f8401126147eb576147ea613fb0565b5b8235905067ffffffffffffffff81111561480857614807613fb5565b5b60208301915083600182028301111561482457614823613fba565b5b9250929050565b60008060006040848603121561484457614843613fa6565b5b600061485286828701614148565b935050602084013567ffffffffffffffff81111561487357614872613fab565b5b61487f868287016147d5565b92509250509250925092565b6148948161434d565b82525050565b60006020820190506148af600083018461488b565b92915050565b600060a082840312156148cb576148ca6143b8565b5b81905092915050565b6000602082840312156148ea576148e9613fa6565b5b600082013567ffffffffffffffff81111561490857614907613fab565b5b614914848285016148b5565b91505092915050565b600082825260208201905092915050565b60006149398261418a565b614943818561491d565b93506149538185602086016141a6565b61495c816141d0565b840191505092915050565b60006040830160008301518482036000860152614984828261492e565b9150506020830151848203602086015261499e828261492e565b9150508091505092915050565b600060208201905081810360008301526149c58184614967565b905092915050565b600081519050919050565b600082825260208201905092915050565b6000819050602082019050919050565b614a028161434d565b82525050565b6000614a1483836149f9565b60208301905092915050565b6000602082019050919050565b6000614a38826149cd565b614a4281856149d8565b9350614a4d836149e9565b8060005b83811015614a7e578151614a658882614a08565b9750614a7083614a20565b925050600181019050614a51565b5085935050505092915050565b60006020820190508181036000830152614aa58184614a2d565b905092915050565b60006fffffffffffffffffffffffffffffffff82169050919050565b614ad281614aad565b82525050565b614ae1816145b0565b82525050565b614af0816140e7565b82525050565b60a082016000820151614b0c6000850182614ac9565b506020820151614b1f6020850182614ad8565b506040820151614b326040850182614ae7565b506060820151614b456060850182614ac9565b506080820151614b586080850182614ac9565b50505050565b600060a082019050614b736000830184614af6565b92915050565b600081519050919050565b600082825260208201905092915050565b6000819050602082019050919050565b614bae8161411d565b82525050565b6000614bc08383614ba5565b60208301905092915050565b6000602082019050919050565b6000614be482614b79565b614bee8185614b84565b9350614bf983614b95565b8060005b83811015614c2a578151614c118882614bb4565b9750614c1c83614bcc565b925050600181019050614bfd565b5085935050505092915050565b60006020820190508181036000830152614c518184614bd9565b905092915050565b614c62816140e7565b8114614c6d57600080fd5b50565b600081359050614c7f81614c59565b92915050565b614c8e81614aad565b8114614c9957600080fd5b50565b600081359050614cab81614c85565b92915050565b600060608284031215614cc757614cc66145a6565b5b614cd160606144db565b90506000614ce184828501614c70565b6000830152506020614cf584828501614c9c565b6020830152506040614d0984828501614c9c565b60408301525092915050565b600080600060e08486031215614d2e57614d2d613fa6565b5b6000614d3c86828701614148565b9350506020614d4d86828701614cb1565b9250506080614d5e86828701614cb1565b9150509250925092565b60008083601f840112614d7e57614d7d613fb0565b5b8235905067ffffffffffffffff811115614d9b57614d9a613fb5565b5b602083019150836020820283011115614db757614db6613fba565b5b9250929050565b60008060208385031215614dd557614dd4613fa6565b5b600083013567ffffffffffffffff811115614df357614df2613fab565b5b614dff85828601614d68565b92509250509250929050565b6000819050919050565b614e1e81614e0b565b82525050565b606082016000820151614e3a6000850182614e15565b506020820151614e4d6020850182614ad8565b506040820151614e606040850182614ae7565b50505050565b6000606082019050614e7b6000830184614e24565b92915050565b6000614e8c826142ff565b9050919050565b614e9c81614e81565b82525050565b6000602082019050614eb76000830184614e93565b92915050565b7f4e487b7100000000000000000000000000000000000000000000000000000000600052603260045260246000fd5b614ef581614e0b565b8114614f0057600080fd5b50565b600081359050614f1281614eec565b92915050565b600060808284031215614f2e57614f2d6145a6565b5b614f3860806144db565b90506000614f4884828501614f03565b6000830152506020614f5c848285016145d7565b6020830152506040614f7084828501614148565b6040830152506060614f8484828501614c70565b60608301525092915050565b600060808284031215614fa657614fa5613fa6565b5b6000614fb484828501614f18565b91505092915050565b608082016000820151614fd36000850182614e15565b506020820151614fe66020850182614ad8565b506040820151614ff96040850182614ba5565b50606082015161500c6060850182614ae7565b50505050565b60006080820190506150276000830184614fbd565b92915050565b600082825260208201905092915050565b6000819050919050565b60006150576020840184614f03565b905092915050565b600061506e60208401846145d7565b905092915050565b60006150856020840184614148565b905092915050565b600061509c6020840184614c70565b905092915050565b608082016150b56000830183615048565b6150c26000850182614e15565b506150d0602083018361505f565b6150dd6020850182614ad8565b506150eb6040830183615076565b6150f86040850182614ba5565b50615106606083018361508d565b6151136060850182614ae7565b50505050565b600061512583836150a4565b60808301905092915050565b600082905092915050565b6000608082019050919050565b6000615155838561502d565b93506151608261503e565b8060005b85811015615199576151768284615131565b6151808882615119565b975061518b8361513c565b925050600181019050615164565b5085925050509392505050565b600060208201905081810360008301526151c1818486615149565b90509392505050565b7f4e487b7100000000000000000000000000000000000000000000000000000000600052602260045260246000fd5b6000600282049050600182168061521157607f821691505b602082108103615224576152236151ca565b5b50919050565b61523381614426565b811461523e57600080fd5b50565b6000813590506152508161522a565b92915050565b6000610100828403121561526d5761526c6145a6565b5b6152786101006144db565b9050600082013567ffffffffffffffff811115615298576152976145ab565b5b6152a484828501614578565b60008301525060206152b884828501614148565b60208301525060406152cc84828501614376565b60408301525060606152e084828501615241565b60608301525060806152f484828501614376565b60808301525060a082013567ffffffffffffffff811115615318576153176145ab565b5b61532484828501614578565b60a08301525060c082013567ffffffffffffffff811115615348576153476145ab565b5b61535484828501614578565b60c08301525060e082013567ffffffffffffffff811115615378576153776145ab565b5b61538484828501614578565b60e08301525092915050565b600061539c3683615256565b9050919050565b600080fd5b600080fd5b600080fd5b600080833560016020038436030381126153cf576153ce6153a3565b5b80840192508235915067ffffffffffffffff8211156153f1576153f06153a8565b5b60208301925060018202360383131561540d5761540c6153ad565b5b509250929050565b60006040828403121561542b5761542a613fa6565b5b6000615439848285016145ec565b91505092915050565b600060408284031215615458576154576145a6565b5b61546260406144db565b9050600082013567ffffffffffffffff811115615482576154816145ab565b5b61548e84828501614578565b600083015250602082013567ffffffffffffffff8111156154b2576154b16145ab565b5b6154be84828501614578565b60208301525092915050565b6000602082840312156154e0576154df613fa6565b5b600082013567ffffffffffffffff8111156154fe576154fd613fab565b5b61550a84828501615442565b91505092915050565b6000604082019050818103600083015261552d81856141e1565b9050818103602083015261554181846141e1565b90509392505050565b60008151905061555981614c59565b92915050565b60006020828403121561557557615574613fa6565b5b60006155838482850161554a565b91505092915050565b61559581614426565b82525050565b60006020820190506155b0600083018461558c565b92915050565b6155bf8161411d565b82525050565b60006020820190506155da60008301846155b6565b92915050565b600082905092915050565b60008190508160005260206000209050919050565b60006020601f8301049050919050565b600082821b905092915050565b60006008830261564d7fffffffffffffffffffffffffffffffffffffffffffffffffffffffffffffffff82615610565b6156578683615610565b95508019841693508086168417925050509392505050565b600061568a61568561568084614426565b6142d3565b614426565b9050919050565b6000819050919050565b6156a48361566f565b6156b86156b082615691565b84845461561d565b825550505050565b600090565b6156cd6156c0565b6156d881848461569b565b505050565b5b818110156156fc576156f16000826156c5565b6001810190506156de565b5050565b601f82111561574157615712816155eb565b61571b84615600565b8101602085101561572a578190505b61573e61573685615600565b8301826156dd565b50505b505050565b600082821c905092915050565b600061576460001984600802615746565b1980831691505092915050565b600061577d8383615753565b9150826002028217905092915050565b61579783836155e0565b67ffffffffffffffff8111156157b0576157af61447b565b5b6157ba82546151f9565b6157c5828285615700565b6000601f8311600181146157f457600084156157e2578287013590505b6157ec8582615771565b865550615854565b601f198416615802866155eb565b60005b8281101561582a57848901358255600182019150602085019450602081019050615805565b868310156158475784890135615843601f891682615753565b8355505b6001600288020188555050505b50505050505050565b60006158698385614195565b9350615876838584614527565b61587f836141d0565b840190509392505050565b600060408201905081810360008301526158a481866141e1565b905081810360208301526158b981848661585d565b9050949350505050565b7f4d7573742062652070726f706f736564206f776e657200000000000000000000600082015250565b60006158f9601683614247565b9150615904826158c3565b602082019050919050565b60006020820190508181036000830152615928816158ec565b9050919050565b600060a08284031215615945576159446145a6565b5b61594f60a06144db565b9050600082013567ffffffffffffffff81111561596f5761596e6145ab565b5b61597b84828501614578565b600083015250602061598f84828501614148565b60208301525060406159a384828501614376565b60408301525060606159b784828501615241565b60608301525060806159cb84828501614376565b60808301525092915050565b60006159e3368361592f565b9050919050565b60006020820190508181036000830152615a0581848661585d565b90509392505050565b615a1781614e0b565b82525050565b600060a082019050615a32600083018861558c565b615a3f60208301876147ab565b615a4c6040830186615a0e565b615a59606083018561488b565b615a666080830184615a0e565b9695505050505050565b600081519050615a7f81614131565b92915050565b600060208284031215615a9b57615a9a613fa6565b5b6000615aa984828501615a70565b91505092915050565b604082016000820151615ac86000850182614ba5565b506020820151615adb6020850182614ad8565b50505050565b6000604082019050615af66000830184615ab2565b92915050565b6000604082019050615b11600083018561488b565b615b1e602083018461488b565b9392505050565b60008235600161014003833603038112615b4257615b416153a3565b5b80830191505092915050565b60006101408284031215615b6557615b646145a6565b5b615b6f60c06144db565b90506000615b7f84828501614148565b6000830152506020615b9384828501614c70565b602083015250604082013567ffffffffffffffff811115615bb757615bb66145ab565b5b615bc384828501614578565b604083015250606082013567ffffffffffffffff811115615be757615be66145ab565b5b615bf384828501614578565b6060830152506080615c0784828501614cb1565b60808301525060e0615c1b84828501614cb1565b60a08301525092915050565b6000615c333683615b4e565b9050919050565b615c438261418a565b67ffffffffffffffff811115615c5c57615c5b61447b565b5b615c6682546151f9565b615c71828285615700565b600060209050601f831160018114615ca45760008415615c92578287015190505b615c9c8582615771565b865550615d04565b601f198416615cb2866155eb565b60005b82811015615cda57848901518255600182019150602085019450602081019050615cb5565b86831015615cf75784890151615cf3601f891682615753565b8355505b6001600288020188555050505b505050505050565b606082016000820151615d226000850182614ae7565b506020820151615d356020850182614ac9565b506040820151615d486040850182614ac9565b50505050565b600061010082019050615d6460008301876155b6565b8181036020830152615d7681866141e1565b9050615d856040830185615d0c565b615d9260a0830184615d0c565b95945050505050565b7f4f6e6c792063616c6c61626c65206279206f776e657200000000000000000000600082015250565b6000615dd1601683614247565b9150615ddc82615d9b565b602082019050919050565b60006020820190508181036000830152615e0081615dc4565b9050919050565b60007fffffffffffffffffffffffffffffffff0000000000000000000000000000000082169050919050565b615e3c81615e07565b82525050565b6000602082019050615e576000830184615e33565b92915050565b6000604082019050615e7260008301856147ab565b615e7f60208301846147ab565b9392505050565b6000604082019050615e9b60008301856155b6565b615ea860208301846155b6565b9392505050565b6000604082019050615ec4600083018561488b565b615ed1602083018461558c565b9392505050565b7f4e487b7100000000000000000000000000000000000000000000000000000000600052601160045260246000fd5b6000615f1282614426565b9150615f1d83614426565b9250828203905081811115615f3557615f34615ed8565b5b92915050565b600060e082019050615f5060008301866155b6565b615f5d6020830185615d0c565b615f6a6080830184615d0c565b949350505050565b6000606082019050615f876000830184615d0c565b92915050565b7f43616e6e6f74207472616e7366657220746f2073656c66000000000000000000600082015250565b6000615fc3601783614247565b9150615fce82615f8d565b602082019050919050565b60006020820190508181036000830152615ff281615fb6565b9050919050565b600060408201905061600e60008301856155b6565b61601b602083018461488b565b9392505050565b7f5361666545524332303a204552433230206f7065726174696f6e20646964206e60008201527f6f74207375636365656400000000000000000000000000000000000000000000602082015250565b600061607e602a83614247565b915061608982616022565b604082019050919050565b600060208201905081810360008301526160ad81616071565b9050919050565b6000815190506160c38161435f565b92915050565b6000602082840312156160df576160de613fa6565b5b60006160ed848285016160b4565b91505092915050565b600061610182614426565b915061610c83614426565b925082820261611a81614426565b9150828204841483151761613157616130615ed8565b5b5092915050565b600061614382614426565b915061614e83614426565b925082820190508082111561616657616165615ed8565b5b92915050565b7f4e487b7100000000000000000000000000000000000000000000000000000000600052603160045260246000fd5b60006040820190506161b0600083018561558c565b6161bd602083018461558c565b9392505050565b60006060820190506161d9600083018661558c565b6161e6602083018561558c565b6161f3604083018461488b565b949350505050565b7f4e487b7100000000000000000000000000000000000000000000000000000000600052601260045260246000fd5b600061623582614426565b915061624083614426565b9250826162505761624f6161fb565b5b828204905092915050565b7f416464726573733a20696e73756666696369656e742062616c616e636520666f60008201527f722063616c6c0000000000000000000000000000000000000000000000000000602082015250565b60006162b7602683614247565b91506162c28261625b565b604082019050919050565b600060208201905081810360008301526162e6816162aa565b9050919050565b600081905092915050565b60006163038261418a565b61630d81856162ed565b935061631d8185602086016141a6565b80840191505092915050565b600061633582846162f8565b915081905092915050565b7f416464726573733a2063616c6c20746f206e6f6e2d636f6e7472616374000000600082015250565b6000616376601d83614247565b915061638182616340565b602082019050919050565b600060208201905081810360008301526163a581616369565b905091905056fea164736f6c6343000818000a","linkReferences":{}},"methodIdentifiers":{"SUPPORTED_USDC_VERSION()":"9fdf13ff","acceptOwnership()":"79ba5097","applyAllowListUpdates(address[],address[])":"54c8a4f3","applyChainUpdates((uint64,bool,bytes,bytes,(bool,uint128,uint128),(bool,uint128,uint128))[])":"db6327dc","getAllowList()":"a7cd63b7","getAllowListEnabled()":"e0351e13","getCurrentInboundRateLimiterState(uint64)":"af58d59f","getCurrentOutboundRateLimiterState(uint64)":"c75eea9c","getDomain(uint64)":"dfadfa35","getRemotePool(uint64)":"0a2fd493","getRemoteToken(uint64)":"b7946580","getRmnProxy()":"dc0bd971","getRouter()":"b0f479a1","getSupportedChains()":"c4bffe2b","getToken()":"21df0da7","i_localDomainIdentifier()":"6b716b0d","i_messageTransmitter()":"fbf84dd7","i_tokenMessenger()":"6155cda0","isSupportedChain(uint64)":"8926f54f","isSupportedToken(address)":"240028e8","lockOrBurn((bytes,uint64,address,uint256,address))":"9a4575b9","owner()":"8da5cb5b","releaseOrMint((bytes,uint64,address,uint256,address,bytes,bytes,bytes))":"39077537","setChainRateLimiterConfig(uint64,(bool,uint128,uint128),(bool,uint128,uint128))":"cf7401f3","setDomains((bytes32,uint32,uint64,bool)[])":"0041d3c1","setRemotePool(uint64,bytes)":"78a010b2","setRouter(address)":"c0d78655","supportsInterface(bytes4)":"01ffc9a7","transferOwnership(address)":"f2fde38b","typeAndVersion()":"181f5a77","validateMessage(bytes,(uint64,uint32))":"46a23ab7"},"id":96}