{"abi":[{"type":"constructor","inputs":[{"name":"router","type":"address","internalType":"address"},{"name":"feeToken","type":"address","internalType":"contract IERC20"},{"name":"roundTripsBeforeFunding","type":"uint8","internalType":"uint8"}],"stateMutability":"nonpayable"},{"type":"function","name":"acceptOwnership","inputs":[],"outputs":[],"stateMutability":"nonpayable"},{"type":"function","name":"ccipReceive","inputs":[{"name":"message","type":"tuple","internalType":"struct Client.Any2EVMMessage","components":[{"name":"messageId","type":"bytes32","internalType":"bytes32"},{"name":"sourceChainSelector","type":"uint64","internalType":"uint64"},{"name":"sender","type":"bytes","internalType":"bytes"},{"name":"data","type":"bytes","internalType":"bytes"},{"name":"destTokenAmounts","type":"tuple[]","internalType":"struct Client.EVMTokenAmount[]","components":[{"name":"token","type":"address","internalType":"address"},{"name":"amount","type":"uint256","internalType":"uint256"}]}]}],"outputs":[],"stateMutability":"nonpayable"},{"type":"function","name":"fundPingPong","inputs":[{"name":"pingPongCount","type":"uint256","internalType":"uint256"}],"outputs":[],"stateMutability":"nonpayable"},{"type":"function","name":"getCountIncrBeforeFunding","inputs":[],"outputs":[{"name":"","type":"uint8","internalType":"uint8"}],"stateMutability":"view"},{"type":"function","name":"getCounterpartAddress","inputs":[],"outputs":[{"name":"","type":"address","internalType":"address"}],"stateMutability":"view"},{"type":"function","name":"getCounterpartChainSelector","inputs":[],"outputs":[{"name":"","type":"uint64","internalType":"uint64"}],"stateMutability":"view"},{"type":"function","name":"getFeeToken","inputs":[],"outputs":[{"name":"","type":"address","internalType":"contract IERC20"}],"stateMutability":"view"},{"type":"function","name":"getRouter","inputs":[],"outputs":[{"name":"","type":"address","internalType":"address"}],"stateMutability":"view"},{"type":"function","name":"isPaused","inputs":[],"outputs":[{"name":"","type":"bool","internalType":"bool"}],"stateMutability":"view"},{"type":"function","name":"owner","inputs":[],"outputs":[{"name":"","type":"address","internalType":"address"}],"stateMutability":"view"},{"type":"function","name":"setCountIncrBeforeFunding","inputs":[{"name":"countIncrBeforeFunding","type":"uint8","internalType":"uint8"}],"outputs":[],"stateMutability":"nonpayable"},{"type":"function","name":"setCounterpart","inputs":[{"name":"counterpartChainSelector","type":"uint64","internalType":"uint64"},{"name":"counterpartAddress","type":"address","internalType":"address"}],"outputs":[],"stateMutability":"nonpayable"},{"type":"function","name":"setCounterpartAddress","inputs":[{"name":"addr","type":"address","internalType":"address"}],"outputs":[],"stateMutability":"nonpayable"},{"type":"function","name":"setCounterpartChainSelector","inputs":[{"name":"chainSelector","type":"uint64","internalType":"uint64"}],"outputs":[],"stateMutability":"nonpayable"},{"type":"function","name":"setPaused","inputs":[{"name":"pause","type":"bool","internalType":"bool"}],"outputs":[],"stateMutability":"nonpayable"},{"type":"function","name":"startPingPong","inputs":[],"outputs":[],"stateMutability":"nonpayable"},{"type":"function","name":"supportsInterface","inputs":[{"name":"interfaceId","type":"bytes4","internalType":"bytes4"}],"outputs":[{"name":"","type":"bool","internalType":"bool"}],"stateMutability":"view"},{"type":"function","name":"transferOwnership","inputs":[{"name":"to","type":"address","internalType":"address"}],"outputs":[],"stateMutability":"nonpayable"},{"type":"function","name":"typeAndVersion","inputs":[],"outputs":[{"name":"","type":"string","internalType":"string"}],"stateMutability":"view"},{"type":"event","name":"CountIncrBeforeFundingSet","inputs":[{"name":"countIncrBeforeFunding","type":"uint8","indexed":false,"internalType":"uint8"}],"anonymous":false},{"type":"event","name":"Funded","inputs":[],"anonymous":false},{"type":"event","name":"OwnershipTransferRequested","inputs":[{"name":"from","type":"address","indexed":true,"internalType":"address"},{"name":"to","type":"address","indexed":true,"internalType":"address"}],"anonymous":false},{"type":"event","name":"OwnershipTransferred","inputs":[{"name":"from","type":"address","indexed":true,"internalType":"address"},{"name":"to","type":"address","indexed":true,"internalType":"address"}],"anonymous":false},{"type":"event","name":"Ping","inputs":[{"name":"pingPongCount","type":"uint256","indexed":false,"internalType":"uint256"}],"anonymous":false},{"type":"event","name":"Pong","inputs":[{"name":"pingPongCount","type":"uint256","indexed":false,"internalType":"uint256"}],"anonymous":false},{"type":"error","name":"InvalidRouter","inputs":[{"name":"router","type":"address","internalType":"address"}]}],"bytecode":{"object":"0x60a06040523480156200001157600080fd5b506040516200250438038062002504833981810160405281019062000037919062000556565b82823380600084600073ffffffffffffffffffffffffffffffffffffffff168173ffffffffffffffffffffffffffffffffffffffff1603620000b35760006040517fd7f73334000000000000000000000000000000000000000000000000000000008152600401620000aa9190620005c3565b60405180910390fd5b8073ffffffffffffffffffffffffffffffffffffffff1660808173ffffffffffffffffffffffffffffffffffffffff168152505050600073ffffffffffffffffffffffffffffffffffffffff168273ffffffffffffffffffffffffffffffffffffffff16036200015a576040517f08c379a0000000000000000000000000000000000000000000000000000000008152600401620001519062000641565b60405180910390fd5b816000806101000a81548173ffffffffffffffffffffffffffffffffffffffff021916908373ffffffffffffffffffffffffffffffffffffffff160217905550600073ffffffffffffffffffffffffffffffffffffffff168173ffffffffffffffffffffffffffffffffffffffff1614620001e157620001e0816200033a60201b60201c565b5b5050506000600260146101000a81548160ff02191690831515021790555080600360006101000a81548173ffffffffffffffffffffffffffffffffffffffff021916908373ffffffffffffffffffffffffffffffffffffffff160217905550600360009054906101000a900473ffffffffffffffffffffffffffffffffffffffff1673ffffffffffffffffffffffffffffffffffffffff1663095ea7b3837fffffffffffffffffffffffffffffffffffffffffffffffffffffffffffffffff6040518363ffffffff1660e01b8152600401620002bf9291906200067e565b6020604051808303816000875af1158015620002df573d6000803e3d6000fd5b505050506040513d601f19601f82011682018060405250810190620003059190620006e8565b50505060028162000317919062000749565b600360146101000a81548160ff021916908360ff16021790555050505062000801565b3373ffffffffffffffffffffffffffffffffffffffff168173ffffffffffffffffffffffffffffffffffffffff1603620003ab576040517f08c379a0000000000000000000000000000000000000000000000000000000008152600401620003a290620007df565b60405180910390fd5b80600160006101000a81548173ffffffffffffffffffffffffffffffffffffffff021916908373ffffffffffffffffffffffffffffffffffffffff1602179055508073ffffffffffffffffffffffffffffffffffffffff1660008054906101000a900473ffffffffffffffffffffffffffffffffffffffff1673ffffffffffffffffffffffffffffffffffffffff167fed8889f560326eb138920d842192f0eb3dd22b4f139c87a2c57538e05bae127860405160405180910390a350565b600080fd5b600073ffffffffffffffffffffffffffffffffffffffff82169050919050565b60006200049b826200046e565b9050919050565b620004ad816200048e565b8114620004b957600080fd5b50565b600081519050620004cd81620004a2565b92915050565b6000620004e0826200048e565b9050919050565b620004f281620004d3565b8114620004fe57600080fd5b50565b6000815190506200051281620004e7565b92915050565b600060ff82169050919050565b620005308162000518565b81146200053c57600080fd5b50565b600081519050620005508162000525565b92915050565b60008060006060848603121562000572576200057162000469565b5b60006200058286828701620004bc565b9350506020620005958682870162000501565b9250506040620005a8868287016200053f565b9150509250925092565b620005bd816200048e565b82525050565b6000602082019050620005da6000830184620005b2565b92915050565b600082825260208201905092915050565b7f43616e6e6f7420736574206f776e657220746f207a65726f0000000000000000600082015250565b600062000629601883620005e0565b91506200063682620005f1565b602082019050919050565b600060208201905081810360008301526200065c816200061a565b9050919050565b6000819050919050565b620006788162000663565b82525050565b6000604082019050620006956000830185620005b2565b620006a460208301846200066d565b9392505050565b60008115159050919050565b620006c281620006ab565b8114620006ce57600080fd5b50565b600081519050620006e281620006b7565b92915050565b60006020828403121562000701576200070062000469565b5b60006200071184828501620006d1565b91505092915050565b7f4e487b7100000000000000000000000000000000000000000000000000000000600052601160045260246000fd5b6000620007568262000518565b9150620007638362000518565b9250828202620007738162000518565b91508082146200078857620007876200071a565b5b5092915050565b7f43616e6e6f74207472616e7366657220746f2073656c66000000000000000000600082015250565b6000620007c7601783620005e0565b9150620007d4826200078f565b602082019050919050565b60006020820190508181036000830152620007fa81620007b8565b9050919050565b608051611ce76200081d60003960006109130152611ce76000f3fe608060405234801561001057600080fd5b50600436106101215760003560e01c80638f491cba116100ad578063bee518a411610071578063bee518a4146102a8578063ca709a25146102c6578063e6c725f5146102e4578063ef686d8e14610302578063f2fde38b1461031e57610121565b80638f491cba146102185780639d2aede514610234578063b0f479a114610250578063b187bd261461026e578063b5a110111461028c57610121565b80632874d8bf116100f45780632874d8bf146101ac5780632b6e5d63146101b657806379ba5097146101d457806385572ffb146101de5780638da5cb5b146101fa57610121565b806301ffc9a71461012657806316c38b3c14610156578063181f5a77146101725780631892b90614610190575b600080fd5b610140600480360381019061013b9190610f83565b61033a565b60405161014d9190610fcb565b60405180910390f35b610170600480360381019061016b9190611012565b61040c565b005b61017a610431565b60405161018791906110cf565b60405180910390f35b6101aa60048036038101906101a59190611131565b61046a565b005b6101b461049e565b005b6101be6104cd565b6040516101cb919061119f565b60405180910390f35b6101dc6104f7565b005b6101f860048036038101906101f391906111de565b61068c565b005b610202610718565b60405161020f919061119f565b60405180910390f35b610232600480360381019061022d919061125d565b610741565b005b61024e600480360381019061024991906112b6565b6108c3565b005b61025861090f565b604051610265919061119f565b60405180910390f35b610276610937565b6040516102839190610fcb565b60405180910390f35b6102a660048036038101906102a191906112e3565b61094e565b005b6102b06109c4565b6040516102bd9190611332565b60405180910390f35b6102ce6109e2565b6040516102db91906113ac565b60405180910390f35b6102ec610a0c565b6040516102f991906113e3565b60405180910390f35b61031c6004803603810190610317919061142a565b610a23565b005b610338600480360381019061033391906112b6565b610a80565b005b60007f85572ffb000000000000000000000000000000000000000000000000000000007bffffffffffffffffffffffffffffffffffffffffffffffffffffffff1916827bffffffffffffffffffffffffffffffffffffffffffffffffffffffff1916148061040557507f01ffc9a7000000000000000000000000000000000000000000000000000000007bffffffffffffffffffffffffffffffffffffffffffffffffffffffff1916827bffffffffffffffffffffffffffffffffffffffffffffffffffffffff1916145b9050919050565b610414610a94565b80600260146101000a81548160ff02191690831515021790555050565b6040518060400160405280601881526020017f53656c6646756e64656450696e67506f6e6720312e322e30000000000000000081525081565b610472610a94565b80600160146101000a81548167ffffffffffffffff021916908367ffffffffffffffff16021790555050565b6104a6610a94565b6000600260146101000a81548160ff0219169083151502179055506104cb6001610b24565b565b6000600260009054906101000a900473ffffffffffffffffffffffffffffffffffffffff16905090565b600160009054906101000a900473ffffffffffffffffffffffffffffffffffffffff1673ffffffffffffffffffffffffffffffffffffffff163373ffffffffffffffffffffffffffffffffffffffff1614610587576040517f08c379a000000000000000000000000000000000000000000000000000000000815260040161057e906114a3565b60405180910390fd5b60008060009054906101000a900473ffffffffffffffffffffffffffffffffffffffff169050336000806101000a81548173ffffffffffffffffffffffffffffffffffffffff021916908373ffffffffffffffffffffffffffffffffffffffff1602179055506000600160006101000a81548173ffffffffffffffffffffffffffffffffffffffff021916908373ffffffffffffffffffffffffffffffffffffffff1602179055503373ffffffffffffffffffffffffffffffffffffffff168173ffffffffffffffffffffffffffffffffffffffff167f8be0079c531659141344cd1fd0a4f28419497f9722a3daafe3b4186f6b6457e060405160405180910390a350565b61069461090f565b73ffffffffffffffffffffffffffffffffffffffff163373ffffffffffffffffffffffffffffffffffffffff161461070357336040517fd7f733340000000000000000000000000000000000000000000000000000000081526004016106fa919061119f565b60405180910390fd5b6107158161071090611830565b610d71565b50565b60008060009054906101000a900473ffffffffffffffffffffffffffffffffffffffff16905090565b6000600360149054906101000a900460ff1660ff1614806107735750600360149054906101000a900460ff1660ff1681105b6108c0576001600360149054906101000a900460ff1660ff16826107979190611872565b116108bf576107a461090f565b73ffffffffffffffffffffffffffffffffffffffff1663a8d87a3b600160149054906101000a900467ffffffffffffffff166040518263ffffffff1660e01b81526004016107f29190611332565b602060405180830381865afa15801561080f573d6000803e3d6000fd5b505050506040513d601f19601f8201168201806040525081019061083391906118b8565b73ffffffffffffffffffffffffffffffffffffffff1663eff7cc486040518163ffffffff1660e01b8152600401600060405180830381600087803b15801561087a57600080fd5b505af115801561088e573d6000803e3d6000fd5b505050507f302777af5d26fab9dd5120c5f1307c65193ebc51daf33244ada4365fab10602c60405160405180910390a15b5b50565b6108cb610a94565b80600260006101000a81548173ffffffffffffffffffffffffffffffffffffffff021916908373ffffffffffffffffffffffffffffffffffffffff16021790555050565b60007f0000000000000000000000000000000000000000000000000000000000000000905090565b6000600260149054906101000a900460ff16905090565b610956610a94565b81600160146101000a81548167ffffffffffffffff021916908367ffffffffffffffff16021790555080600260006101000a81548173ffffffffffffffffffffffffffffffffffffffff021916908373ffffffffffffffffffffffffffffffffffffffff1602179055505050565b6000600160149054906101000a900467ffffffffffffffff16905090565b6000600360009054906101000a900473ffffffffffffffffffffffffffffffffffffffff16905090565b6000600360149054906101000a900460ff16905090565b610a2b610a94565b80600360146101000a81548160ff021916908360ff1602179055507f4768dbf8645b24c54f2887651545d24f748c0d0d1d4c689eb810fb19f0befcf381604051610a7591906113e3565b60405180910390a150565b610a88610a94565b610a9181610dbb565b50565b60008054906101000a900473ffffffffffffffffffffffffffffffffffffffff1673ffffffffffffffffffffffffffffffffffffffff163373ffffffffffffffffffffffffffffffffffffffff1614610b22576040517f08c379a0000000000000000000000000000000000000000000000000000000008152600401610b1990611931565b60405180910390fd5b565b600180821603610b6a577f48257dc961b6f792c2b78a080dacfed693b660960a702de21cee364e20270e2f81604051610b5d9190611960565b60405180910390a1610ba2565b7f58b69f57828e6962d216502094c54f6562f3bf082ba758966c3454f9e37b152581604051610b999190611960565b60405180910390a15b610bab81610741565b60006040518060a00160405280600260009054906101000a900473ffffffffffffffffffffffffffffffffffffffff16604051602001610beb919061119f565b604051602081830303815290604052815260200183604051602001610c109190611960565b6040516020818303038152906040528152602001600067ffffffffffffffff811115610c3f57610c3e6114c8565b5b604051908082528060200260200182016040528015610c7857816020015b610c65610ee7565b815260200190600190039081610c5d5790505b508152602001600360009054906101000a900473ffffffffffffffffffffffffffffffffffffffff1673ffffffffffffffffffffffffffffffffffffffff168152602001604051806020016040528060008152508152509050610cd961090f565b73ffffffffffffffffffffffffffffffffffffffff166396f4e9f9600160149054906101000a900467ffffffffffffffff16836040518363ffffffff1660e01b8152600401610d29929190611b57565b6020604051808303816000875af1158015610d48573d6000803e3d6000fd5b505050506040513d601f19601f82011682018060405250810190610d6c9190611b9c565b505050565b60008160600151806020019051810190610d8b9190611bde565b9050600260149054906101000a900460ff16610db757610db6600182610db19190611c3a565b610b24565b5b5050565b3373ffffffffffffffffffffffffffffffffffffffff168173ffffffffffffffffffffffffffffffffffffffff1603610e29576040517f08c379a0000000000000000000000000000000000000000000000000000000008152600401610e2090611cba565b60405180910390fd5b80600160006101000a81548173ffffffffffffffffffffffffffffffffffffffff021916908373ffffffffffffffffffffffffffffffffffffffff1602179055508073ffffffffffffffffffffffffffffffffffffffff1660008054906101000a900473ffffffffffffffffffffffffffffffffffffffff1673ffffffffffffffffffffffffffffffffffffffff167fed8889f560326eb138920d842192f0eb3dd22b4f139c87a2c57538e05bae127860405160405180910390a350565b6040518060400160405280600073ffffffffffffffffffffffffffffffffffffffff168152602001600081525090565b6000604051905090565b600080fd5b600080fd5b60007fffffffff0000000000000000000000000000000000000000000000000000000082169050919050565b610f6081610f2b565b8114610f6b57600080fd5b50565b600081359050610f7d81610f57565b92915050565b600060208284031215610f9957610f98610f21565b5b6000610fa784828501610f6e565b91505092915050565b60008115159050919050565b610fc581610fb0565b82525050565b6000602082019050610fe06000830184610fbc565b92915050565b610fef81610fb0565b8114610ffa57600080fd5b50565b60008135905061100c81610fe6565b92915050565b60006020828403121561102857611027610f21565b5b600061103684828501610ffd565b91505092915050565b600081519050919050565b600082825260208201905092915050565b60005b8381101561107957808201518184015260208101905061105e565b60008484015250505050565b6000601f19601f8301169050919050565b60006110a18261103f565b6110ab818561104a565b93506110bb81856020860161105b565b6110c481611085565b840191505092915050565b600060208201905081810360008301526110e98184611096565b905092915050565b600067ffffffffffffffff82169050919050565b61110e816110f1565b811461111957600080fd5b50565b60008135905061112b81611105565b92915050565b60006020828403121561114757611146610f21565b5b60006111558482850161111c565b91505092915050565b600073ffffffffffffffffffffffffffffffffffffffff82169050919050565b60006111898261115e565b9050919050565b6111998161117e565b82525050565b60006020820190506111b46000830184611190565b92915050565b600080fd5b600060a082840312156111d5576111d46111ba565b5b81905092915050565b6000602082840312156111f4576111f3610f21565b5b600082013567ffffffffffffffff81111561121257611211610f26565b5b61121e848285016111bf565b91505092915050565b6000819050919050565b61123a81611227565b811461124557600080fd5b50565b60008135905061125781611231565b92915050565b60006020828403121561127357611272610f21565b5b600061128184828501611248565b91505092915050565b6112938161117e565b811461129e57600080fd5b50565b6000813590506112b08161128a565b92915050565b6000602082840312156112cc576112cb610f21565b5b60006112da848285016112a1565b91505092915050565b600080604083850312156112fa576112f9610f21565b5b60006113088582860161111c565b9250506020611319858286016112a1565b9150509250929050565b61132c816110f1565b82525050565b60006020820190506113476000830184611323565b92915050565b6000819050919050565b600061137261136d6113688461115e565b61134d565b61115e565b9050919050565b600061138482611357565b9050919050565b600061139682611379565b9050919050565b6113a68161138b565b82525050565b60006020820190506113c1600083018461139d565b92915050565b600060ff82169050919050565b6113dd816113c7565b82525050565b60006020820190506113f860008301846113d4565b92915050565b611407816113c7565b811461141257600080fd5b50565b600081359050611424816113fe565b92915050565b6000602082840312156114405761143f610f21565b5b600061144e84828501611415565b91505092915050565b7f4d7573742062652070726f706f736564206f776e657200000000000000000000600082015250565b600061148d60168361104a565b915061149882611457565b602082019050919050565b600060208201905081810360008301526114bc81611480565b9050919050565b600080fd5b7f4e487b7100000000000000000000000000000000000000000000000000000000600052604160045260246000fd5b61150082611085565b810181811067ffffffffffffffff8211171561151f5761151e6114c8565b5b80604052505050565b6000611532610f17565b905061153e82826114f7565b919050565b600080fd5b6000819050919050565b61155b81611548565b811461156657600080fd5b50565b60008135905061157881611552565b92915050565b600080fd5b600080fd5b600067ffffffffffffffff8211156115a3576115a26114c8565b5b6115ac82611085565b9050602081019050919050565b82818337600083830152505050565b60006115db6115d684611588565b611528565b9050828152602081018484840111156115f7576115f6611583565b5b6116028482856115b9565b509392505050565b600082601f83011261161f5761161e61157e565b5b813561162f8482602086016115c8565b91505092915050565b600067ffffffffffffffff821115611653576116526114c8565b5b602082029050602081019050919050565b600080fd5b60006040828403121561167f5761167e6114c3565b5b6116896040611528565b90506000611699848285016112a1565b60008301525060206116ad84828501611248565b60208301525092915050565b60006116cc6116c784611638565b611528565b905080838252602082019050604084028301858111156116ef576116ee611664565b5b835b8181101561171857806117048882611669565b8452602084019350506040810190506116f1565b5050509392505050565b600082601f8301126117375761173661157e565b5b81356117478482602086016116b9565b91505092915050565b600060a08284031215611766576117656114c3565b5b61177060a0611528565b9050600061178084828501611569565b60008301525060206117948482850161111c565b602083015250604082013567ffffffffffffffff8111156117b8576117b7611543565b5b6117c48482850161160a565b604083015250606082013567ffffffffffffffff8111156117e8576117e7611543565b5b6117f48482850161160a565b606083015250608082013567ffffffffffffffff81111561181857611817611543565b5b61182484828501611722565b60808301525092915050565b600061183c3683611750565b9050919050565b7f4e487b7100000000000000000000000000000000000000000000000000000000600052601260045260246000fd5b600061187d82611227565b915061188883611227565b92508261189857611897611843565b5b828206905092915050565b6000815190506118b28161128a565b92915050565b6000602082840312156118ce576118cd610f21565b5b60006118dc848285016118a3565b91505092915050565b7f4f6e6c792063616c6c61626c65206279206f776e657200000000000000000000600082015250565b600061191b60168361104a565b9150611926826118e5565b602082019050919050565b6000602082019050818103600083015261194a8161190e565b9050919050565b61195a81611227565b82525050565b60006020820190506119756000830184611951565b92915050565b600081519050919050565b600082825260208201905092915050565b60006119a28261197b565b6119ac8185611986565b93506119bc81856020860161105b565b6119c581611085565b840191505092915050565b600081519050919050565b600082825260208201905092915050565b6000819050602082019050919050565b611a058161117e565b82525050565b611a1481611227565b82525050565b604082016000820151611a3060008501826119fc565b506020820151611a436020850182611a0b565b50505050565b6000611a558383611a1a565b60408301905092915050565b6000602082019050919050565b6000611a79826119d0565b611a8381856119db565b9350611a8e836119ec565b8060005b83811015611abf578151611aa68882611a49565b9750611ab183611a61565b925050600181019050611a92565b5085935050505092915050565b600060a0830160008301518482036000860152611ae98282611997565b91505060208301518482036020860152611b038282611997565b91505060408301518482036040860152611b1d8282611a6e565b9150506060830151611b3260608601826119fc565b5060808301518482036080860152611b4a8282611997565b9150508091505092915050565b6000604082019050611b6c6000830185611323565b8181036020830152611b7e8184611acc565b90509392505050565b600081519050611b9681611552565b92915050565b600060208284031215611bb257611bb1610f21565b5b6000611bc084828501611b87565b91505092915050565b600081519050611bd881611231565b92915050565b600060208284031215611bf457611bf3610f21565b5b6000611c0284828501611bc9565b91505092915050565b7f4e487b7100000000000000000000000000000000000000000000000000000000600052601160045260246000fd5b6000611c4582611227565b9150611c5083611227565b9250828201905080821115611c6857611c67611c0b565b5b92915050565b7f43616e6e6f74207472616e7366657220746f2073656c66000000000000000000600082015250565b6000611ca460178361104a565b9150611caf82611c6e565b602082019050919050565b60006020820190508181036000830152611cd381611c97565b905091905056fea164736f6c6343000818000a","linkReferences":{}},"methodIdentifiers":{"acceptOwnership()":"79ba5097","ccipReceive((bytes32,uint64,bytes,bytes,(address,uint256)[]))":"85572ffb","fundPingPong(uint256)":"8f491cba","getCountIncrBeforeFunding()":"e6c725f5","getCounterpartAddress()":"2b6e5d63","getCounterpartChainSelector()":"bee518a4","getFeeToken()":"ca709a25","getRouter()":"b0f479a1","isPaused()":"b187bd26","owner()":"8da5cb5b","setCountIncrBeforeFunding(uint8)":"ef686d8e","setCounterpart(uint64,address)":"b5a11011","setCounterpartAddress(address)":"9d2aede5","setCounterpartChainSelector(uint64)":"1892b906","setPaused(bool)":"16c38b3c","startPingPong()":"2874d8bf","supportsInterface(bytes4)":"01ffc9a7","transferOwnership(address)":"f2fde38b","typeAndVersion()":"181f5a77"},"id":11}