{"abi":[{"type":"constructor","inputs":[{"name":"config","type":"tuple","internalType":"struct RMN.Config","components":[{"name":"voters","type":"tuple[]","internalType":"struct RMN.Voter[]","components":[{"name":"blessVoteAddr","type":"address","internalType":"address"},{"name":"curseVoteAddr","type":"address","internalType":"address"},{"name":"blessWeight","type":"uint8","internalType":"uint8"},{"name":"curseWeight","type":"uint8","internalType":"uint8"}]},{"name":"blessWeightThreshold","type":"uint16","internalType":"uint16"},{"name":"curseWeightThreshold","type":"uint16","internalType":"uint16"}]}],"stateMutability":"nonpayable"},{"type":"function","name":"acceptOwnership","inputs":[],"outputs":[],"stateMutability":"nonpayable"},{"type":"function","name":"getBlessProgress","inputs":[{"name":"taggedRoot","type":"tuple","internalType":"struct IRMN.TaggedRoot","components":[{"name":"commitStore","type":"address","internalType":"address"},{"name":"root","type":"bytes32","internalType":"bytes32"}]}],"outputs":[{"name":"blessVoteAddrs","type":"address[]","internalType":"address[]"},{"name":"accumulatedWeight","type":"uint16","internalType":"uint16"},{"name":"blessed","type":"bool","internalType":"bool"}],"stateMutability":"view"},{"type":"function","name":"getConfigDetails","inputs":[],"outputs":[{"name":"version","type":"uint32","internalType":"uint32"},{"name":"blockNumber","type":"uint32","internalType":"uint32"},{"name":"config","type":"tuple","internalType":"struct RMN.Config","components":[{"name":"voters","type":"tuple[]","internalType":"struct RMN.Voter[]","components":[{"name":"blessVoteAddr","type":"address","internalType":"address"},{"name":"curseVoteAddr","type":"address","internalType":"address"},{"name":"blessWeight","type":"uint8","internalType":"uint8"},{"name":"curseWeight","type":"uint8","internalType":"uint8"}]},{"name":"blessWeightThreshold","type":"uint16","internalType":"uint16"},{"name":"curseWeightThreshold","type":"uint16","internalType":"uint16"}]}],"stateMutability":"view"},{"type":"function","name":"getCurseProgress","inputs":[{"name":"subject","type":"bytes16","internalType":"bytes16"}],"outputs":[{"name":"curseVoteAddrs","type":"address[]","internalType":"address[]"},{"name":"cursesHashes","type":"bytes28[]","internalType":"bytes28[]"},{"name":"accumulatedWeight","type":"uint16","internalType":"uint16"},{"name":"cursed","type":"bool","internalType":"bool"}],"stateMutability":"view"},{"type":"function","name":"getCursedSubjectsCount","inputs":[],"outputs":[{"name":"","type":"uint256","internalType":"uint256"}],"stateMutability":"view"},{"type":"function","name":"getPermaBlessedCommitStores","inputs":[],"outputs":[{"name":"","type":"address[]","internalType":"address[]"}],"stateMutability":"view"},{"type":"function","name":"getRecordedCurseRelatedOps","inputs":[{"name":"offset","type":"uint256","internalType":"uint256"},{"name":"limit","type":"uint256","internalType":"uint256"}],"outputs":[{"name":"","type":"tuple[]","internalType":"struct RMN.RecordedCurseRelatedOp[]","components":[{"name":"tag","type":"uint8","internalType":"enum RMN.RecordedCurseRelatedOpTag"},{"name":"blockTimestamp","type":"uint64","internalType":"uint64"},{"name":"cursed","type":"bool","internalType":"bool"},{"name":"curseVoteAddr","type":"address","internalType":"address"},{"name":"subject","type":"bytes16","internalType":"bytes16"},{"name":"curseId","type":"bytes16","internalType":"bytes16"}]}],"stateMutability":"view"},{"type":"function","name":"getRecordedCurseRelatedOpsCount","inputs":[],"outputs":[{"name":"","type":"uint256","internalType":"uint256"}],"stateMutability":"view"},{"type":"function","name":"isBlessed","inputs":[{"name":"taggedRoot","type":"tuple","internalType":"struct IRMN.TaggedRoot","components":[{"name":"commitStore","type":"address","internalType":"address"},{"name":"root","type":"bytes32","internalType":"bytes32"}]}],"outputs":[{"name":"","type":"bool","internalType":"bool"}],"stateMutability":"view"},{"type":"function","name":"isCursed","inputs":[{"name":"subject","type":"bytes16","internalType":"bytes16"}],"outputs":[{"name":"","type":"bool","internalType":"bool"}],"stateMutability":"view"},{"type":"function","name":"isCursed","inputs":[],"outputs":[{"name":"","type":"bool","internalType":"bool"}],"stateMutability":"view"},{"type":"function","name":"owner","inputs":[],"outputs":[{"name":"","type":"address","internalType":"address"}],"stateMutability":"view"},{"type":"function","name":"ownerCurse","inputs":[{"name":"curseId","type":"bytes16","internalType":"bytes16"},{"name":"subjects","type":"bytes16[]","internalType":"bytes16[]"}],"outputs":[],"stateMutability":"nonpayable"},{"type":"function","name":"ownerRemoveThenAddPermaBlessedCommitStores","inputs":[{"name":"removes","type":"address[]","internalType":"address[]"},{"name":"adds","type":"address[]","internalType":"address[]"}],"outputs":[],"stateMutability":"nonpayable"},{"type":"function","name":"ownerResetBlessVotes","inputs":[{"name":"taggedRoots","type":"tuple[]","internalType":"struct IRMN.TaggedRoot[]","components":[{"name":"commitStore","type":"address","internalType":"address"},{"name":"root","type":"bytes32","internalType":"bytes32"}]}],"outputs":[],"stateMutability":"nonpayable"},{"type":"function","name":"ownerUnvoteToCurse","inputs":[{"name":"ownerUnvoteToCurseRequests","type":"tuple[]","internalType":"struct RMN.OwnerUnvoteToCurseRequest[]","components":[{"name":"curseVoteAddr","type":"address","internalType":"address"},{"name":"unit","type":"tuple","internalType":"struct RMN.UnvoteToCurseRequest","components":[{"name":"subject","type":"bytes16","internalType":"bytes16"},{"name":"cursesHash","type":"bytes28","internalType":"bytes28"}]},{"name":"forceUnvote","type":"bool","internalType":"bool"}]}],"outputs":[],"stateMutability":"nonpayable"},{"type":"function","name":"setConfig","inputs":[{"name":"config","type":"tuple","internalType":"struct RMN.Config","components":[{"name":"voters","type":"tuple[]","internalType":"struct RMN.Voter[]","components":[{"name":"blessVoteAddr","type":"address","internalType":"address"},{"name":"curseVoteAddr","type":"address","internalType":"address"},{"name":"blessWeight","type":"uint8","internalType":"uint8"},{"name":"curseWeight","type":"uint8","internalType":"uint8"}]},{"name":"blessWeightThreshold","type":"uint16","internalType":"uint16"},{"name":"curseWeightThreshold","type":"uint16","internalType":"uint16"}]}],"outputs":[],"stateMutability":"nonpayable"},{"type":"function","name":"transferOwnership","inputs":[{"name":"to","type":"address","internalType":"address"}],"outputs":[],"stateMutability":"nonpayable"},{"type":"function","name":"typeAndVersion","inputs":[],"outputs":[{"name":"","type":"string","internalType":"string"}],"stateMutability":"view"},{"type":"function","name":"unvoteToCurse","inputs":[{"name":"unvoteToCurseRequests","type":"tuple[]","internalType":"struct RMN.UnvoteToCurseRequest[]","components":[{"name":"subject","type":"bytes16","internalType":"bytes16"},{"name":"cursesHash","type":"bytes28","internalType":"bytes28"}]}],"outputs":[],"stateMutability":"nonpayable"},{"type":"function","name":"voteToBless","inputs":[{"name":"taggedRoots","type":"tuple[]","internalType":"struct IRMN.TaggedRoot[]","components":[{"name":"commitStore","type":"address","internalType":"address"},{"name":"root","type":"bytes32","internalType":"bytes32"}]}],"outputs":[],"stateMutability":"nonpayable"},{"type":"function","name":"voteToCurse","inputs":[{"name":"curseId","type":"bytes16","internalType":"bytes16"},{"name":"subjects","type":"bytes16[]","internalType":"bytes16[]"}],"outputs":[],"stateMutability":"nonpayable"},{"type":"event","name":"AlreadyBlessed","inputs":[{"name":"configVersion","type":"uint32","indexed":true,"internalType":"uint32"},{"name":"voter","type":"address","indexed":true,"internalType":"address"},{"name":"taggedRoot","type":"tuple","indexed":false,"internalType":"struct IRMN.TaggedRoot","components":[{"name":"commitStore","type":"address","internalType":"address"},{"name":"root","type":"bytes32","internalType":"bytes32"}]}],"anonymous":false},{"type":"event","name":"AlreadyVotedToBless","inputs":[{"name":"configVersion","type":"uint32","indexed":true,"internalType":"uint32"},{"name":"voter","type":"address","indexed":true,"internalType":"address"},{"name":"taggedRoot","type":"tuple","indexed":false,"internalType":"struct IRMN.TaggedRoot","components":[{"name":"commitStore","type":"address","internalType":"address"},{"name":"root","type":"bytes32","internalType":"bytes32"}]}],"anonymous":false},{"type":"event","name":"ConfigSet","inputs":[{"name":"configVersion","type":"uint32","indexed":true,"internalType":"uint32"},{"name":"config","type":"tuple","indexed":false,"internalType":"struct RMN.Config","components":[{"name":"voters","type":"tuple[]","internalType":"struct RMN.Voter[]","components":[{"name":"blessVoteAddr","type":"address","internalType":"address"},{"name":"curseVoteAddr","type":"address","internalType":"address"},{"name":"blessWeight","type":"uint8","internalType":"uint8"},{"name":"curseWeight","type":"uint8","internalType":"uint8"}]},{"name":"blessWeightThreshold","type":"uint16","internalType":"uint16"},{"name":"curseWeightThreshold","type":"uint16","internalType":"uint16"}]}],"anonymous":false},{"type":"event","name":"CurseLifted","inputs":[{"name":"subject","type":"bytes16","indexed":false,"internalType":"bytes16"}],"anonymous":false},{"type":"event","name":"Cursed","inputs":[{"name":"configVersion","type":"uint32","indexed":true,"internalType":"uint32"},{"name":"subject","type":"bytes16","indexed":false,"internalType":"bytes16"},{"name":"blockTimestamp","type":"uint64","indexed":false,"internalType":"uint64"}],"anonymous":false},{"type":"event","name":"OwnershipTransferRequested","inputs":[{"name":"from","type":"address","indexed":true,"internalType":"address"},{"name":"to","type":"address","indexed":true,"internalType":"address"}],"anonymous":false},{"type":"event","name":"OwnershipTransferred","inputs":[{"name":"from","type":"address","indexed":true,"internalType":"address"},{"name":"to","type":"address","indexed":true,"internalType":"address"}],"anonymous":false},{"type":"event","name":"PermaBlessedCommitStoreAdded","inputs":[{"name":"commitStore","type":"address","indexed":false,"internalType":"address"}],"anonymous":false},{"type":"event","name":"PermaBlessedCommitStoreRemoved","inputs":[{"name":"commitStore","type":"address","indexed":false,"internalType":"address"}],"anonymous":false},{"type":"event","name":"SkippedUnvoteToCurse","inputs":[{"name":"voter","type":"address","indexed":true,"internalType":"address"},{"name":"subject","type":"bytes16","indexed":false,"internalType":"bytes16"},{"name":"onchainCursesHash","type":"bytes28","indexed":false,"internalType":"bytes28"},{"name":"cursesHash","type":"bytes28","indexed":false,"internalType":"bytes28"}],"anonymous":false},{"type":"event","name":"TaggedRootBlessVotesReset","inputs":[{"name":"configVersion","type":"uint32","indexed":true,"internalType":"uint32"},{"name":"taggedRoot","type":"tuple","indexed":false,"internalType":"struct IRMN.TaggedRoot","components":[{"name":"commitStore","type":"address","internalType":"address"},{"name":"root","type":"bytes32","internalType":"bytes32"}]},{"name":"wasBlessed","type":"bool","indexed":false,"internalType":"bool"}],"anonymous":false},{"type":"event","name":"TaggedRootBlessed","inputs":[{"name":"configVersion","type":"uint32","indexed":true,"internalType":"uint32"},{"name":"taggedRoot","type":"tuple","indexed":false,"internalType":"struct IRMN.TaggedRoot","components":[{"name":"commitStore","type":"address","internalType":"address"},{"name":"root","type":"bytes32","internalType":"bytes32"}]},{"name":"accumulatedWeight","type":"uint16","indexed":false,"internalType":"uint16"}],"anonymous":false},{"type":"event","name":"UnvotedToCurse","inputs":[{"name":"configVersion","type":"uint32","indexed":true,"internalType":"uint32"},{"name":"voter","type":"address","indexed":true,"internalType":"address"},{"name":"subject","type":"bytes16","indexed":false,"internalType":"bytes16"},{"name":"weight","type":"uint8","indexed":false,"internalType":"uint8"},{"name":"cursesHash","type":"bytes28","indexed":false,"internalType":"bytes28"},{"name":"remainingAccumulatedWeight","type":"uint16","indexed":false,"internalType":"uint16"}],"anonymous":false},{"type":"event","name":"VotedToBless","inputs":[{"name":"configVersion","type":"uint32","indexed":true,"internalType":"uint32"},{"name":"voter","type":"address","indexed":true,"internalType":"address"},{"name":"taggedRoot","type":"tuple","indexed":false,"internalType":"struct IRMN.TaggedRoot","components":[{"name":"commitStore","type":"address","internalType":"address"},{"name":"root","type":"bytes32","internalType":"bytes32"}]},{"name":"weight","type":"uint8","indexed":false,"internalType":"uint8"}],"anonymous":false},{"type":"event","name":"VotedToCurse","inputs":[{"name":"configVersion","type":"uint32","indexed":true,"internalType":"uint32"},{"name":"voter","type":"address","indexed":true,"internalType":"address"},{"name":"subject","type":"bytes16","indexed":false,"internalType":"bytes16"},{"name":"curseId","type":"bytes16","indexed":false,"internalType":"bytes16"},{"name":"weight","type":"uint8","indexed":false,"internalType":"uint8"},{"name":"blockTimestamp","type":"uint64","indexed":false,"internalType":"uint64"},{"name":"cursesHash","type":"bytes28","indexed":false,"internalType":"bytes28"},{"name":"accumulatedWeight","type":"uint16","indexed":false,"internalType":"uint16"}],"anonymous":false},{"type":"error","name":"InvalidConfig","inputs":[]},{"type":"error","name":"ReusedCurseId","inputs":[{"name":"voter","type":"address","internalType":"address"},{"name":"curseId","type":"bytes16","internalType":"bytes16"}]},{"type":"error","name":"SubjectsMustBeStrictlyIncreasing","inputs":[]},{"type":"error","name":"UnauthorizedVoter","inputs":[{"name":"voter","type":"address","internalType":"address"}]},{"type":"error","name":"UnvoteToCurseNoop","inputs":[]},{"type":"error","name":"VoteToBlessForbiddenDuringActiveGlobalCurse","inputs":[]},{"type":"error","name":"VoteToBlessNoop","inputs":[]},{"type":"error","name":"VoteToCurseNoop","inputs":[]}],"bytecode":{"object":"0x60806040523480156200001157600080fd5b50604051620082033803806200820383398181016040528101906200003791906200149d565b338060008073ffffffffffffffffffffffffffffffffffffffff168273ffffffffffffffffffffffffffffffffffffffff1603620000ac576040517f08c379a0000000000000000000000000000000000000000000000000000000008152600401620000a3906200154f565b60405180910390fd5b816000806101000a81548173ffffffffffffffffffffffffffffffffffffffff021916908373ffffffffffffffffffffffffffffffffffffffff160217905550600073ffffffffffffffffffffffffffffffffffffffff168173ffffffffffffffffffffffffffffffffffffffff161462000133576200013281620001fe60201b60201c565b5b50505060006040518060800160405280600015158152602001600063ffffffff168152602001600061ffff16815260200178ffffffffffffffffffffffffffffffffffffffffffffffffff801681525090506001806010620001969190620015aa565b826060015178ffffffffffffffffffffffffffffffffffffffffffffffffff16901c78ffffffffffffffffffffffffffffffffffffffffffffffffff161015620001e557620001e4620015e5565b5b50620001f7816200032d60201b60201c565b50620019cf565b3373ffffffffffffffffffffffffffffffffffffffff168173ffffffffffffffffffffffffffffffffffffffff16036200026f576040517f08c379a0000000000000000000000000000000000000000000000000000000008152600401620002669062001664565b60405180910390fd5b80600160006101000a81548173ffffffffffffffffffffffffffffffffffffffff021916908373ffffffffffffffffffffffffffffffffffffffff1602179055508073ffffffffffffffffffffffffffffffffffffffff1660008054906101000a900473ffffffffffffffffffffffffffffffffffffffff1673ffffffffffffffffffffffffffffffffffffffff167fed8889f560326eb138920d842192f0eb3dd22b4f139c87a2c57538e05bae127860405160405180910390a350565b6200033e8162000ce460201b60201c565b62000375576040517f35be3ac800000000000000000000000000000000000000000000000000000000815260040160405180910390fd5b8060200151600260000160010160006101000a81548161ffff021916908361ffff1602179055508060400151600260000160010160026101000a81548161ffff021916908361ffff1602179055505b600060026000016000018054905014620006b557600060026000016000016001600260000160000180549050620003fc9190620015aa565b8154811062000410576200040f62001686565b5b90600052602060002090600202016040518060800160405290816000820160009054906101000a900473ffffffffffffffffffffffffffffffffffffffff1673ffffffffffffffffffffffffffffffffffffffff1673ffffffffffffffffffffffffffffffffffffffff1681526020016001820160009054906101000a900473ffffffffffffffffffffffffffffffffffffffff1673ffffffffffffffffffffffffffffffffffffffff1673ffffffffffffffffffffffffffffffffffffffff1681526020016001820160149054906101000a900460ff1660ff1660ff1681526020016001820160159054906101000a900460ff1660ff1660ff1681525050905060056000826000015173ffffffffffffffffffffffffffffffffffffffff1673ffffffffffffffffffffffffffffffffffffffff168152602001908152602001600020600080820160006101000a81549063ffffffff02191690556000820160046101000a81549060ff02191690556000820160056101000a81549060ff0219169055505060096000826020015173ffffffffffffffffffffffffffffffffffffffff1673ffffffffffffffffffffffffffffffffffffffff168152602001908152602001600020600080820160006101000a81549060ff02191690556000820160016101000a81549060ff0219169055505060026000016000018054806200061f576200061e620016b5565b5b6001900381819060005260206000209060020201600080820160006101000a81549073ffffffffffffffffffffffffffffffffffffffff02191690556001820160006101000a81549073ffffffffffffffffffffffffffffffffffffffff02191690556001820160146101000a81549060ff02191690556001820160156101000a81549060ff02191690555050905550620003c4565b60005b816000015151811015620007f757600260000160000182600001518281518110620006e857620006e762001686565b5b6020026020010151908060018154018082558091505060019003906000526020600020906002020160009091909190915060008201518160000160006101000a81548173ffffffffffffffffffffffffffffffffffffffff021916908373ffffffffffffffffffffffffffffffffffffffff16021790555060208201518160010160006101000a81548173ffffffffffffffffffffffffffffffffffffffff021916908373ffffffffffffffffffffffffffffffffffffffff16021790555060408201518160010160146101000a81548160ff021916908360ff16021790555060608201518160010160156101000a81548160ff021916908360ff1602179055505050806001019050620006b8565b5060028001600081819054906101000a900463ffffffff166200081a90620016f4565b91906101000a81548163ffffffff021916908363ffffffff16021790555060006002800160009054906101000a900463ffffffff16905060005b8260000151518160ff16101562000a0357600083600001518260ff168151811062000884576200088362001686565b5b6020026020010151905060405180606001604052808463ffffffff168152602001826040015160ff1681526020018360ff1681525060056000836000015173ffffffffffffffffffffffffffffffffffffffff1673ffffffffffffffffffffffffffffffffffffffff16815260200190815260200160002060008201518160000160006101000a81548163ffffffff021916908363ffffffff16021790555060208201518160000160046101000a81548160ff021916908360ff16021790555060408201518160000160056101000a81548160ff021916908360ff160217905550905050600060096000836020015173ffffffffffffffffffffffffffffffffffffffff1673ffffffffffffffffffffffffffffffffffffffff168152602001908152602001600020905060018160000160006101000a81548160ff02191690831515021790555081606001518160000160016101000a81548160ff021916908360ff160217905550505080620009fb9062001725565b905062000854565b50600060096000801973ffffffffffffffffffffffffffffffffffffffff1673ffffffffffffffffffffffffffffffffffffffff168152602001908152602001600020905060018160000160006101000a81548160ff02191690831515021790555060008160000160016101000a81548160ff021916908360ff16021790555050436002800160046101000a81548163ffffffff021916908363ffffffff1602179055508063ffffffff167f8c49fda8177c5c8c768eb39634bc6773695c7181711537b822451c12b2efd2a98360405162000adf9190620018f6565b60405180910390a2600c6040518060c0016040528060048081111562000b0a5762000b096200191a565b5b815260200162000b1f6200110d60201b60201c565b67ffffffffffffffff168152602001600015158152602001600073ffffffffffffffffffffffffffffffffffffffff168152602001600060801b6fffffffffffffffffffffffffffffffff19168152602001600060801b6fffffffffffffffffffffffffffffffff1916815250908060018154018082558091505060019003906000526020600020906002020160009091909190915060008201518160000160006101000a81548160ff0219169083600481111562000be35762000be26200191a565b5b021790555060208201518160000160016101000a81548167ffffffffffffffff021916908367ffffffffffffffff16021790555060408201518160000160096101000a81548160ff021916908315150217905550606082015181600001600a6101000a81548173ffffffffffffffffffffffffffffffffffffffff021916908373ffffffffffffffffffffffffffffffffffffffff16021790555060808201518160010160006101000a8154816fffffffffffffffffffffffffffffffff021916908360801c021790555060a08201518160010160106101000a8154816fffffffffffffffffffffffffffffffff021916908360801c021790555050505050565b600080826000015151148062000cff57506010826000015151115b8062000d1357506000826020015161ffff16145b8062000d2757506000826040015161ffff16145b1562000d37576000905062001108565b6000806000846000015151600262000d50919062001949565b67ffffffffffffffff81111562000d6c5762000d6b6200113f565b5b60405190808252806020026020018201604052801562000d9b5781602001602082028036833780820191505090505b50905060005b856000015151811015620010175760008660000151828151811062000dcb5762000dca62001686565b5b60200260200101519050600073ffffffffffffffffffffffffffffffffffffffff16816000015173ffffffffffffffffffffffffffffffffffffffff16148062000e455750600073ffffffffffffffffffffffffffffffffffffffff16816020015173ffffffffffffffffffffffffffffffffffffffff16145b8062000e815750600073ffffffffffffffffffffffffffffffffffffffff16816020015173ffffffffffffffffffffffffffffffffffffffff16145b8062000ebe575060001973ffffffffffffffffffffffffffffffffffffffff16816020015173ffffffffffffffffffffffffffffffffffffffff16145b8062000ee557506000816040015160ff1614801562000ee457506000816060015160ff16145b5b1562000efa5760009550505050505062001108565b806000015183600084600262000f11919062001949565b62000f1d919062001994565b8151811062000f315762000f3062001686565b5b602002602001019073ffffffffffffffffffffffffffffffffffffffff16908173ffffffffffffffffffffffffffffffffffffffff1681525050806020015183600184600262000f82919062001949565b62000f8e919062001994565b8151811062000fa25762000fa162001686565b5b602002602001019073ffffffffffffffffffffffffffffffffffffffff16908173ffffffffffffffffffffffffffffffffffffffff1681525050806040015160ff168562000ff1919062001994565b9450806060015160ff168462001008919062001994565b93505080600101905062000da1565b5060005b8151811015620010e05760008282815181106200103d576200103c62001686565b5b60200260200101519050600060018362001058919062001994565b90505b8351811015620010d2578381815181106200107b576200107a62001686565b5b602002602001015173ffffffffffffffffffffffffffffffffffffffff168273ffffffffffffffffffffffffffffffffffffffff1603620010c6576000965050505050505062001108565b8060010190506200105b565b50508060010190506200101b565b50846020015161ffff168310158015620011025750846040015161ffff168210155b93505050505b919050565b600042905090565b6000604051905090565b600080fd5b600080fd5b600080fd5b6000601f19601f8301169050919050565b7f4e487b7100000000000000000000000000000000000000000000000000000000600052604160045260246000fd5b62001179826200112e565b810181811067ffffffffffffffff821117156200119b576200119a6200113f565b5b80604052505050565b6000620011b062001115565b9050620011be82826200116e565b919050565b600080fd5b600080fd5b600067ffffffffffffffff821115620011eb57620011ea6200113f565b5b602082029050602081019050919050565b600080fd5b600073ffffffffffffffffffffffffffffffffffffffff82169050919050565b60006200122e8262001201565b9050919050565b620012408162001221565b81146200124c57600080fd5b50565b600081519050620012608162001235565b92915050565b600060ff82169050919050565b6200127e8162001266565b81146200128a57600080fd5b50565b6000815190506200129e8162001273565b92915050565b600060808284031215620012bd57620012bc62001129565b5b620012c96080620011a4565b90506000620012db848285016200124f565b6000830152506020620012f1848285016200124f565b602083015250604062001307848285016200128d565b60408301525060606200131d848285016200128d565b60608301525092915050565b6000620013406200133a84620011cd565b620011a4565b90508083825260208201905060808402830185811115620013665762001365620011fc565b5b835b818110156200139357806200137e8882620012a4565b84526020840193505060808101905062001368565b5050509392505050565b600082601f830112620013b557620013b4620011c8565b5b8151620013c784826020860162001329565b91505092915050565b600061ffff82169050919050565b620013e981620013d0565b8114620013f557600080fd5b50565b6000815190506200140981620013de565b92915050565b60006060828403121562001428576200142762001129565b5b620014346060620011a4565b9050600082015167ffffffffffffffff811115620014575762001456620011c3565b5b62001465848285016200139d565b60008301525060206200147b84828501620013f8565b60208301525060406200149184828501620013f8565b60408301525092915050565b600060208284031215620014b657620014b56200111f565b5b600082015167ffffffffffffffff811115620014d757620014d662001124565b5b620014e5848285016200140f565b91505092915050565b600082825260208201905092915050565b7f43616e6e6f7420736574206f776e657220746f207a65726f0000000000000000600082015250565b600062001537601883620014ee565b91506200154482620014ff565b602082019050919050565b600060208201905081810360008301526200156a8162001528565b9050919050565b6000819050919050565b7f4e487b7100000000000000000000000000000000000000000000000000000000600052601160045260246000fd5b6000620015b78262001571565b9150620015c48362001571565b9250828203905081811115620015df57620015de6200157b565b5b92915050565b7f4e487b7100000000000000000000000000000000000000000000000000000000600052600160045260246000fd5b7f43616e6e6f74207472616e7366657220746f2073656c66000000000000000000600082015250565b60006200164c601783620014ee565b9150620016598262001614565b602082019050919050565b600060208201905081810360008301526200167f816200163d565b9050919050565b7f4e487b7100000000000000000000000000000000000000000000000000000000600052603260045260246000fd5b7f4e487b7100000000000000000000000000000000000000000000000000000000600052603160045260246000fd5b600063ffffffff82169050919050565b60006200170182620016e4565b915063ffffffff82036200171a57620017196200157b565b5b600182019050919050565b6000620017328262001266565b915060ff82036200174857620017476200157b565b5b600182019050919050565b600081519050919050565b600082825260208201905092915050565b6000819050602082019050919050565b6200178a8162001221565b82525050565b6200179b8162001266565b82525050565b608082016000820151620017b960008501826200177f565b506020820151620017ce60208501826200177f565b506040820151620017e3604085018262001790565b506060820151620017f8606085018262001790565b50505050565b60006200180c8383620017a1565b60808301905092915050565b6000602082019050919050565b6000620018328262001753565b6200183e81856200175e565b93506200184b836200176f565b8060005b8381101562001882578151620018668882620017fe565b9750620018738362001818565b9250506001810190506200184f565b5085935050505092915050565b6200189a81620013d0565b82525050565b60006060830160008301518482036000860152620018bf828262001825565b9150506020830151620018d660208601826200188f565b506040830151620018eb60408601826200188f565b508091505092915050565b60006020820190508181036000830152620019128184620018a0565b905092915050565b7f4e487b7100000000000000000000000000000000000000000000000000000000600052602160045260246000fd5b6000620019568262001571565b9150620019638362001571565b9250828202620019738162001571565b915082820484148315176200198d576200198c6200157b565b5b5092915050565b6000620019a18262001571565b9150620019ae8362001571565b9250828201905080821115620019c957620019c86200157b565b5b92915050565b61682480620019df6000396000f3fe608060405234801561001057600080fd5b50600436106101425760003560e01c8063631ec73e116100b8578063979986111161007c578063979986111461032d578063ba86a1f014610349578063bd147ef414610365578063d927f26714610398578063f2fde38b146103c8578063f33f2895146103e457610142565b8063631ec73e146102af5780636ba0526d146102cb57806379ba5097146102e75780638da5cb5b146102f1578063970b8fc21461030f57610142565b8063397796f71161010a578063397796f7146101ed5780633d0cf6101461020b5780633f42ab73146102275780634102e4f4146102475780634d61677114610263578063586abe3c1461029357610142565b80630b009be21461014757806315c6558814610165578063181f5a77146101815780632cbc26bb1461019f578063328d716c146101cf575b600080fd5b61014f610416565b60405161015c9190614e40565b60405180910390f35b61017f600480360381019061017a91906150d9565b610427565b005b610189610599565b60405161019691906151a1565b60405180910390f35b6101b960048036038101906101b491906151c3565b6105d2565b6040516101c6919061520b565b60405180910390f35b6101d76106bd565b6040516101e4919061523f565b60405180910390f35b6101f56106e8565b604051610202919061520b565b60405180910390f35b61022560048036038101906102209190615349565b6107e4565b005b61022f61092a565b60405161023e9392919061556d565b60405180910390f35b610261600480360381019061025c91906157be565b610aff565b005b61027d6004803603810190610278919061582b565b610b13565b60405161028a919061520b565b60405180910390f35b6102ad60048036038101906102a8919061591b565b610b85565b005b6102c960048036038101906102c49190615aca565b610c70565b005b6102e560048036038101906102e0919061591b565b610f49565b005b6102ef610fac565b005b6102f9611141565b6040516103069190615b22565b60405180910390f35b61031761116a565b604051610324919061523f565b60405180910390f35b61034760048036038101906103429190615b98565b611177565b005b610363600480360381019061035e9190615b98565b6117dc565b005b61037f600480360381019061037a91906151c3565b611a2e565b60405161038f9493929190615cb2565b60405180910390f35b6103b260048036038101906103ad9190615d31565b611fc6565b6040516103bf9190615f53565b60405180910390f35b6103e260048036038101906103dd9190615f75565b61223c565b005b6103fe60048036038101906103f9919061582b565b612250565b60405161040d93929190615fa2565b60405180910390f35b606061042260076125f4565b905090565b60003390506000600960008373ffffffffffffffffffffffffffffffffffffffff1673ffffffffffffffffffffffffffffffffffffffff16815260200190815260200160002090508060000160009054906101000a900460ff166104c257816040517f85412e7f0000000000000000000000000000000000000000000000000000000081526004016104b99190615b22565b60405180910390fd5b60006002800160009054906101000a900463ffffffff1690506000805b855181101561055a5760008682815181106104fd576104fc615fe0565b5b602002602001015190506000610517858360000151612615565b905060008061052d6001888b8760008d8961289f565b9150915080156105405761053f61600f565b5b85806105495750815b9550505050508060010190506104df565b5080610592576040517ffb106b6a00000000000000000000000000000000000000000000000000000000815260040160405180910390fd5b5050505050565b6040518060400160405280600d81526020017f524d4e20312e352e302d6465760000000000000000000000000000000000000081525081565b600080600b60000160009054906101000a900467ffffffffffffffff1667ffffffffffffffff160361060757600090506106b8565b600a60006f0100000000000000000000000000000160801b6fffffffffffffffffffffffffffffffff19166fffffffffffffffffffffffffffffffff1916815260200190815260200160002060000160089054906101000a900460ff16806106b55750600a6000836fffffffffffffffffffffffffffffffff19166fffffffffffffffffffffffffffffffff1916815260200190815260200160002060000160089054906101000a900460ff165b90505b919050565b6000600b60000160009054906101000a900467ffffffffffffffff1667ffffffffffffffff16905090565b600080600b60000160009054906101000a900467ffffffffffffffff1667ffffffffffffffff160361071d57600090506107e1565b600a60006f0100000000000000000000000000000160801b6fffffffffffffffffffffffffffffffff19166fffffffffffffffffffffffffffffffff1916815260200190815260200160002060000160089054906101000a900460ff16806107de5750600a60006f0100000000000000000000000000000060801b6fffffffffffffffffffffffffffffffff19166fffffffffffffffffffffffffffffffff1916815260200190815260200160002060000160089054906101000a900460ff165b90505b90565b6107ec6130a4565b60005b82518110156108885761082683828151811061080e5761080d615fe0565b5b6020026020010151600761313490919063ffffffff16565b1561087d577fdca892154bbc36d0c05ccd01b3d0411875cb1b841fcdeebb384e5d0d6eb06b4483828151811061085f5761085e615fe0565b5b60200260200101516040516108749190615b22565b60405180910390a15b8060010190506107ef565b5060005b8151811015610925576108c38282815181106108ab576108aa615fe0565b5b6020026020010151600761316490919063ffffffff16565b1561091a577f66b4b4752c65ae8cd2f3a0a48c7dc8b2118c60d5ea15514992eb2ddf56c9cb158282815181106108fc576108fb615fe0565b5b60200260200101516040516109119190615b22565b60405180910390a15b80600101905061088c565b505050565b600080610935614c97565b6002800160009054906101000a900463ffffffff1692506002800160049054906101000a900463ffffffff169150600260000160405180606001604052908160008201805480602002602001604051908101604052809291908181526020016000905b82821015610ab057838290600052602060002090600202016040518060800160405290816000820160009054906101000a900473ffffffffffffffffffffffffffffffffffffffff1673ffffffffffffffffffffffffffffffffffffffff1673ffffffffffffffffffffffffffffffffffffffff1681526020016001820160009054906101000a900473ffffffffffffffffffffffffffffffffffffffff1673ffffffffffffffffffffffffffffffffffffffff1673ffffffffffffffffffffffffffffffffffffffff1681526020016001820160149054906101000a900460ff1660ff1660ff1681526020016001820160159054906101000a900460ff1660ff1660ff168152505081526020019060010190610998565b5050505081526020016001820160009054906101000a900461ffff1661ffff1661ffff1681526020016001820160029054906101000a900461ffff1661ffff1661ffff16815250509050909192565b610b076130a4565b610b1081613194565b50565b600060066000610b3284803603810190610b2d91906160c4565b613b1a565b815260200190815260200160002060000160009054906101000a900460ff1680610b7e5750610b7d826000016020810190610b6d9190615f75565b6007613b5490919063ffffffff16565b5b9050919050565b600033905060001973ffffffffffffffffffffffffffffffffffffffff168173ffffffffffffffffffffffffffffffffffffffff1603610bc857610bc761600f565b5b6000600960008373ffffffffffffffffffffffffffffffffffffffff1673ffffffffffffffffffffffffffffffffffffffff16815260200190815260200160002090508060000160009054906101000a900460ff16610c5e57816040517f85412e7f000000000000000000000000000000000000000000000000000000008152600401610c559190615b22565b60405180910390fd5b610c6a82858584613b84565b50505050565b610c786130a4565b60008060006002800160009054906101000a900463ffffffff16905060005b8451811015610d5f576000858281518110610cb557610cb4615fe0565b5b602002602001015190506000610cd384836020015160000151612615565b9050600080610d36600087866000015187602001518860400151600960008b6000015173ffffffffffffffffffffffffffffffffffffffff1673ffffffffffffffffffffffffffffffffffffffff1681526020019081526020016000208961289f565b915091508680610d435750815b96508780610d4e5750805b975050505050806001019050610c97565b508215610f0457610f03600260000160405180606001604052908160008201805480602002602001604051908101604052809291908181526020016000905b82821015610eb657838290600052602060002090600202016040518060800160405290816000820160009054906101000a900473ffffffffffffffffffffffffffffffffffffffff1673ffffffffffffffffffffffffffffffffffffffff1673ffffffffffffffffffffffffffffffffffffffff1681526020016001820160009054906101000a900473ffffffffffffffffffffffffffffffffffffffff1673ffffffffffffffffffffffffffffffffffffffff1673ffffffffffffffffffffffffffffffffffffffff1681526020016001820160149054906101000a900460ff1660ff1660ff1681526020016001820160159054906101000a900460ff1660ff1660ff168152505081526020019060010190610d9e565b5050505081526020016001820160009054906101000a900461ffff1661ffff1661ffff1681526020016001820160029054906101000a900461ffff1661ffff1661ffff1681525050613194565b5b8180610f0d5750825b610f43576040517ffb106b6a00000000000000000000000000000000000000000000000000000000815260040160405180910390fd5b50505050565b610f516130a4565b6000801990506000600960008373ffffffffffffffffffffffffffffffffffffffff1673ffffffffffffffffffffffffffffffffffffffff1681526020019081526020016000209050610fa682858584613b84565b50505050565b600160009054906101000a900473ffffffffffffffffffffffffffffffffffffffff1673ffffffffffffffffffffffffffffffffffffffff163373ffffffffffffffffffffffffffffffffffffffff161461103c576040517f08c379a00000000000000000000000000000000000000000000000000000000081526004016110339061613d565b60405180910390fd5b60008060009054906101000a900473ffffffffffffffffffffffffffffffffffffffff169050336000806101000a81548173ffffffffffffffffffffffffffffffffffffffff021916908373ffffffffffffffffffffffffffffffffffffffff1602179055506000600160006101000a81548173ffffffffffffffffffffffffffffffffffffffff021916908373ffffffffffffffffffffffffffffffffffffffff1602179055503373ffffffffffffffffffffffffffffffffffffffff168173ffffffffffffffffffffffffffffffffffffffff167f8be0079c531659141344cd1fd0a4f28419497f9722a3daafe3b4186f6b6457e060405160405180910390a350565b60008060009054906101000a900473ffffffffffffffffffffffffffffffffffffffff16905090565b6000600c80549050905090565b6111936f0100000000000000000000000000000160801b6105d2565b156111ca576040517fcde2d97c00000000000000000000000000000000000000000000000000000000815260040160405180910390fd5b60006002800160009054906101000a900463ffffffff1690506000600560003373ffffffffffffffffffffffffffffffffffffffff1673ffffffffffffffffffffffffffffffffffffffff1681526020019081526020016000206040518060600160405290816000820160009054906101000a900463ffffffff1663ffffffff1663ffffffff1681526020016000820160049054906101000a900460ff1660ff1660ff1681526020016000820160059054906101000a900460ff1660ff1660ff168152505090508163ffffffff16816000015163ffffffff16146112e557336040517f85412e7f0000000000000000000000000000000000000000000000000000000081526004016112dc9190615b22565b60405180910390fd5b60006001905060005b8585905081101561179c57600086868381811061130e5761130d615fe0565b5b90506040020180360381019061132491906160c4565b9050600061133182613b1a565b90506000600660008381526020019081526020016000206040518060800160405290816000820160009054906101000a900460ff161515151581526020016000820160019054906101000a900463ffffffff1663ffffffff1663ffffffff1681526020016000820160059054906101000a900461ffff1661ffff1661ffff1681526020016000820160079054906101000a900478ffffffffffffffffffffffffffffffffffffffffffffffffff1678ffffffffffffffffffffffffffffffffffffffffffffffffff1678ffffffffffffffffffffffffffffffffffffffffffffffffff16815250509050806000015115611482573373ffffffffffffffffffffffffffffffffffffffff168763ffffffff167f274d6d5b916b0a53974b7ab86c844b97a2e03a60f658cd9a4b1c028b604d7bf185604051611472919061619b565b60405180910390a3505050611791565b8663ffffffff16816020015163ffffffff16146114eb5760405180608001604052806000151581526020018863ffffffff168152602001600061ffff168152602001600078ffffffffffffffffffffffffffffffffffffffffffffffffff168152509050611560565b6114fd81606001518760400151614373565b1561155f573373ffffffffffffffffffffffffffffffffffffffff168763ffffffff167f6dfbb745226fa630aeb1b9557d17d508ddb789a04f0cb873ec16e58beb8beead8560405161154f919061619b565b60405180910390a3505050611791565b5b60009450611576816060015187604001516143d5565b816060019078ffffffffffffffffffffffffffffffffffffffffffffffffff16908178ffffffffffffffffffffffffffffffffffffffffffffffffff1681525050856020015160ff16816040018181516115d091906161e5565b91509061ffff16908161ffff16815250503373ffffffffffffffffffffffffffffffffffffffff168763ffffffff167f2a08a2bd2798f0aae9a843f0f4ad4de488c1b3d5f04049940cfed736ad69fb9785896020015160405161163492919061622a565b60405180910390a3600260000160010160009054906101000a900461ffff1661ffff16816040015161ffff16106116bb5760018160000190151590811515815250508663ffffffff167f8257378aa73bf8e4ada848713526584a3dcee0fd3db3beed7397f7a7f5067cc98483604001516040516116b2929190616253565b60405180910390a25b806006600084815260200190815260200160002060008201518160000160006101000a81548160ff02191690831515021790555060208201518160000160016101000a81548163ffffffff021916908363ffffffff16021790555060408201518160000160056101000a81548161ffff021916908361ffff16021790555060608201518160000160076101000a81548178ffffffffffffffffffffffffffffffffffffffffffffffffff021916908378ffffffffffffffffffffffffffffffffffffffffffffffffff1602179055509050505050505b8060010190506112ee565b5080156117d5576040517f604c767700000000000000000000000000000000000000000000000000000000815260040160405180910390fd5b5050505050565b6117e46130a4565b60006002800160009054906101000a900463ffffffff16905060005b83839050811015611a285760008484838181106118205761181f615fe0565b5b90506040020180360381019061183691906160c4565b9050600061184382613b1a565b90506000600660008381526020019081526020016000206040518060800160405290816000820160009054906101000a900460ff161515151581526020016000820160019054906101000a900463ffffffff1663ffffffff1663ffffffff1681526020016000820160059054906101000a900461ffff1661ffff1661ffff1681526020016000820160079054906101000a900478ffffffffffffffffffffffffffffffffffffffffffffffffff1678ffffffffffffffffffffffffffffffffffffffffffffffffff1678ffffffffffffffffffffffffffffffffffffffffffffffffff1681525050905060066000838152602001908152602001600020600080820160006101000a81549060ff02191690556000820160016101000a81549063ffffffff02191690556000820160056101000a81549061ffff02191690556000820160076101000a81549078ffffffffffffffffffffffffffffffffffffffffffffffffff021916905550506000816000015190508563ffffffff16826020015163ffffffff1614806119d35750805b15611a19578563ffffffff167f7d15a6eebaa019ea7d5b7d38937c51ebd3befbfdf51bb630a694fd28635bbcba8583604051611a1092919061627c565b60405180910390a25b50505050806001019050611800565b50505050565b60608060008060006002800160009054906101000a900463ffffffff1690506000600260000160405180606001604052908160008201805480602002602001604051908101604052809291908181526020016000905b82821015611b9c57838290600052602060002090600202016040518060800160405290816000820160009054906101000a900473ffffffffffffffffffffffffffffffffffffffff1673ffffffffffffffffffffffffffffffffffffffff1673ffffffffffffffffffffffffffffffffffffffff1681526020016001820160009054906101000a900473ffffffffffffffffffffffffffffffffffffffff1673ffffffffffffffffffffffffffffffffffffffff1673ffffffffffffffffffffffffffffffffffffffff1681526020016001820160149054906101000a900460ff1660ff1660ff1681526020016001820160159054906101000a900460ff1660ff1660ff168152505081526020019060010190611a84565b5050505081526020016001820160009054906101000a900461ffff1661ffff1661ffff1681526020016001820160029054906101000a900461ffff1661ffff1661ffff168152505090506000600a6000896fffffffffffffffffffffffffffffffff19166fffffffffffffffffffffffffffffffff1916815260200190815260200160002090508060000160089054906101000a900460ff16935060008363ffffffff168260000160009054906101000a900463ffffffff1663ffffffff16108015611c655750845b905060008096506000600190505b60028111611fb957600085600001515190505b600115611f0857600080876000015151831015611cec5787600001518381518110611cb457611cb3615fe0565b5b602002602001015160200151915087600001518381518110611cd957611cd8615fe0565b5b6020026020010151606001519050611cf6565b6000199150600090505b60008760010160008473ffffffffffffffffffffffffffffffffffffffff1673ffffffffffffffffffffffffffffffffffffffff1681526020019081526020016000206040518060400160405290816000820160009054906101000a900463ffffffff1663ffffffff1663ffffffff1681526020016000820160049054906101000a900460201b63ffffffff191663ffffffff191681525050905060008780611dae57508a63ffffffff16826000015163ffffffff16145b80611de6575060001973ffffffffffffffffffffffffffffffffffffffff168473ffffffffffffffffffffffffffffffffffffffff16145b8015611e085750600060201b63ffffffff1916826020015163ffffffff191614155b90508015611edc5760018603611e295786611e22906162a5565b9650611edb565b60028603611ed5578260ff168d611e4091906161e5565b9c5086611e4c906162ed565b9650838f8881518110611e6257611e61615fe0565b5b602002602001019073ffffffffffffffffffffffffffffffffffffffff16908173ffffffffffffffffffffffffffffffffffffffff168152505081602001518e8881518110611eb457611eb3615fe0565b5b602002602001019063ffffffff1916908163ffffffff191681525050611eda565b600080fd5b5b5b6000851115611ef65784611eef906162ed565b9450611eff565b50505050611f08565b50505050611c86565b60018203611fa7578267ffffffffffffffff811115611f2a57611f29614e8c565b5b604051908082528060200260200182016040528015611f585781602001602082028036833780820191505090505b509a508267ffffffffffffffff811115611f7557611f74614e8c565b5b604051908082528060200260200182016040528015611fa35781602001602082028036833780820191505090505b5099505b5080611fb2906162a5565b9050611c73565b5050505050509193509193565b60606000600c805490508385611fdc9190616316565b11611fe957829050612014565b600c8054905084101561200e5783600c80549050612007919061634a565b9050612013565b600090505b5b60008167ffffffffffffffff8111156120305761202f614e8c565b5b60405190808252806020026020018201604052801561206957816020015b612056614cc0565b81526020019060019003908161204e5790505b50905060005b8281101561223057600c81876120859190616316565b8154811061209657612095615fe0565b5b90600052602060002090600202016040518060c00160405290816000820160009054906101000a900460ff1660048111156120d4576120d3615d9d565b5b60048111156120e6576120e5615d9d565b5b81526020016000820160019054906101000a900467ffffffffffffffff1667ffffffffffffffff1667ffffffffffffffff1681526020016000820160099054906101000a900460ff1615151515815260200160008201600a9054906101000a900473ffffffffffffffffffffffffffffffffffffffff1673ffffffffffffffffffffffffffffffffffffffff1673ffffffffffffffffffffffffffffffffffffffff1681526020016001820160009054906101000a900460801b6fffffffffffffffffffffffffffffffff19166fffffffffffffffffffffffffffffffff191681526020016001820160109054906101000a900460801b6fffffffffffffffffffffffffffffffff19166fffffffffffffffffffffffffffffffff19168152505082828151811061221a57612219615fe0565b5b602002602001018190525080600101905061206f565b50809250505092915050565b6122446130a4565b61224d81614418565b50565b606060008060006122708580360381019061226b91906160c4565b613b1a565b90506000600660008381526020019081526020016000206040518060800160405290816000820160009054906101000a900460ff161515151581526020016000820160019054906101000a900463ffffffff1663ffffffff1663ffffffff1681526020016000820160059054906101000a900461ffff1661ffff1661ffff1681526020016000820160079054906101000a900478ffffffffffffffffffffffffffffffffffffffffffffffffff1678ffffffffffffffffffffffffffffffffffffffffffffffffff1678ffffffffffffffffffffffffffffffffffffffffffffffffff16815250509050806000015192506002800160009054906101000a900463ffffffff1663ffffffff16816020015163ffffffff16036125eb57806040015193506000816060015190506123a581614544565b60ff1667ffffffffffffffff8111156123c1576123c0614e8c565b5b6040519080825280602002602001820160405280156123ef5781602001602082028036833780820191505090505b50955060006002600001600001805480602002602001604051908101604052809291908181526020016000905b8282101561253457838290600052602060002090600202016040518060800160405290816000820160009054906101000a900473ffffffffffffffffffffffffffffffffffffffff1673ffffffffffffffffffffffffffffffffffffffff1673ffffffffffffffffffffffffffffffffffffffff1681526020016001820160009054906101000a900473ffffffffffffffffffffffffffffffffffffffff1673ffffffffffffffffffffffffffffffffffffffff1673ffffffffffffffffffffffffffffffffffffffff1681526020016001820160149054906101000a900460ff1660ff1660ff1681526020016001820160159054906101000a900460ff1660ff1660ff16815250508152602001906001019061241c565b5050505090506000805b82518160ff1610156125e6576125548482614373565b156125d557828160ff168151811061256f5761256e615fe0565b5b60200260200101516000015189838151811061258e5761258d615fe0565b5b602002602001019073ffffffffffffffffffffffffffffffffffffffff16908173ffffffffffffffffffffffffffffffffffffffff1681525050816125d2906162a5565b91505b806125df9061637e565b905061253e565b505050505b50509193909250565b60606000612604836000016145c1565b905060608190508092505050919050565b600080600a6000846fffffffffffffffffffffffffffffffff19166fffffffffffffffffffffffffffffffff1916815260200190815260200160002090508060000160009054906101000a900463ffffffff1663ffffffff168463ffffffff161461289557838160000160006101000a81548163ffffffff021916908363ffffffff160217905550600260000160010160029054906101000a900461ffff168160000160046101000a81548161ffff021916908361ffff16021790555060008160000160066101000a81548161ffff021916908361ffff1602179055508060000160089054906101000a900460ff16156128935760006002600001905060005b816000018054905081101561288c57600082600001828154811061273c5761273b615fe0565b5b9060005260206000209060020201905060008460010160008360010160009054906101000a900473ffffffffffffffffffffffffffffffffffffffff1673ffffffffffffffffffffffffffffffffffffffff1673ffffffffffffffffffffffffffffffffffffffff16815260200190815260200160002090508763ffffffff168160000160009054906101000a900463ffffffff1663ffffffff161080156128075750600060201b63ffffffff19168160000160049054906101000a900460201b63ffffffff191614155b1561287f57878160000160006101000a81548163ffffffff021916908363ffffffff1602179055508160010160159054906101000a900460ff1660ff168560000160068282829054906101000a900461ffff1661286491906161e5565b92506101000a81548161ffff021916908361ffff1602179055505b5050806001019050612715565b5050612894565b5b5b8091505092915050565b6000806001808111156128b5576128b4615d9d565b5b8960018111156128c8576128c7615d9d565b5b14806128f85750600060018111156128e3576128e2615d9d565b5b8960018111156128f6576128f5615d9d565b5b145b6129055761290461600f565b5b848061293e575060001973ffffffffffffffffffffffffffffffffffffffff168773ffffffffffffffffffffffffffffffffffffffff16145b806129755750600073ffffffffffffffffffffffffffffffffffffffff168773ffffffffffffffffffffffffffffffffffffffff16145b156129b0576000600181111561298e5761298d615d9d565b5b8960018111156129a1576129a0615d9d565b5b146129af576129ae61600f565b5b5b60008360010160008973ffffffffffffffffffffffffffffffffffffffff1673ffffffffffffffffffffffffffffffffffffffff1681526020019081526020016000206040518060400160405290816000820160009054906101000a900463ffffffff1663ffffffff1663ffffffff1681526020016000820160049054906101000a900460201b63ffffffff191663ffffffff19168152505090508460000160009054906101000a900460ff168015612ab0575060001973ffffffffffffffffffffffffffffffffffffffff168873ffffffffffffffffffffffffffffffffffffffff161480612aaf57508863ffffffff16816000015163ffffffff16145b5b8015612ad25750600060201b63ffffffff1916816020015163ffffffff191614155b8015612afb5750866020015163ffffffff1916816020015163ffffffff19161480612afa5750855b5b15612c6457600192508360010160008973ffffffffffffffffffffffffffffffffffffffff1673ffffffffffffffffffffffffffffffffffffffff168152602001908152602001600020600080820160006101000a81549063ffffffff02191690556000820160046101000a8154907bffffffffffffffffffffffffffffffffffffffffffffffffffffffff021916905550508460000160019054906101000a900460ff1660ff168460000160068282829054906101000a900461ffff16612bc391906163a7565b92506101000a81548161ffff021916908361ffff1602179055508773ffffffffffffffffffffffffffffffffffffffff168963ffffffff167fa96a155bd67c927a6c056befbd979b78465e2b2f1276bf7d4e90a31d4f430aa889600001518860000160019054906101000a900460ff168b602001518960000160069054906101000a900461ffff16604051612c5b94939291906163fb565b60405180910390a35b6000806001811115612c7957612c78615d9d565b5b8b6001811115612c8c57612c8b615d9d565b5b148015612ccd57508380612ccc5750600073ffffffffffffffffffffffffffffffffffffffff168973ffffffffffffffffffffffffffffffffffffffff16145b5b9050808015612cea57508460000160089054906101000a900460ff165b8015612cfc5750612cfa8561461d565b155b15612da9576001925060008560000160086101000a81548160ff021916908315150217905550600b600001600081819054906101000a900467ffffffffffffffff16612d4790616440565b91906101000a81548167ffffffffffffffff021916908367ffffffffffffffff1602179055507f65d0e78c3625f0956f58610cf0fb157eaf627683258875ef29af2f71d25ac8fd8860000151604051612da09190616469565b60405180910390a15b8380612db25750825b15613037576000806001811115612dcc57612dcb615d9d565b5b8c6001811115612ddf57612dde615d9d565b5b03612dfd578715612df35760039050612df8565b600290505b612e37565b600180811115612e1057612e0f615d9d565b5b8c6001811115612e2357612e22615d9d565b5b03612e315760019050612e36565b600080fd5b5b600c6040518060c00160405280836004811115612e5757612e56615d9d565b5b8152602001612e646146c4565b67ffffffffffffffff1681526020018860000160089054906101000a900460ff16151581526020018c73ffffffffffffffffffffffffffffffffffffffff1681526020018b600001516fffffffffffffffffffffffffffffffff19168152602001600060801b6fffffffffffffffffffffffffffffffff1916815250908060018154018082558091505060019003906000526020600020906002020160009091909190915060008201518160000160006101000a81548160ff02191690836004811115612f3457612f33615d9d565b5b021790555060208201518160000160016101000a81548167ffffffffffffffff021916908367ffffffffffffffff16021790555060408201518160000160096101000a81548160ff021916908315150217905550606082015181600001600a6101000a81548173ffffffffffffffffffffffffffffffffffffffff021916908373ffffffffffffffffffffffffffffffffffffffff16021790555060808201518160010160006101000a8154816fffffffffffffffffffffffffffffffff021916908360801c021790555060a08201518160010160106101000a8154816fffffffffffffffffffffffffffffffff021916908360801c0217905550505050613096565b8873ffffffffffffffffffffffffffffffffffffffff167fbabb0d7099e6ca14a29fad2a2cfb4fda2bd30f97cb3c27e546174bfb4277c1cc896000015184602001518b6020015160405161308d93929190616484565b60405180910390a25b505097509795505050505050565b60008054906101000a900473ffffffffffffffffffffffffffffffffffffffff1673ffffffffffffffffffffffffffffffffffffffff163373ffffffffffffffffffffffffffffffffffffffff1614613132576040517f08c379a000000000000000000000000000000000000000000000000000000000815260040161312990616507565b60405180910390fd5b565b600061315c836000018373ffffffffffffffffffffffffffffffffffffffff1660001b6146cc565b905092915050565b600061318c836000018373ffffffffffffffffffffffffffffffffffffffff1660001b6147e0565b905092915050565b61319d81614850565b6131d3576040517f35be3ac800000000000000000000000000000000000000000000000000000000815260040160405180910390fd5b8060200151600260000160010160006101000a81548161ffff021916908361ffff1602179055508060400151600260000160010160026101000a81548161ffff021916908361ffff1602179055505b60006002600001600001805490501461350957600060026000016000016001600260000160000180549050613257919061634a565b8154811061326857613267615fe0565b5b90600052602060002090600202016040518060800160405290816000820160009054906101000a900473ffffffffffffffffffffffffffffffffffffffff1673ffffffffffffffffffffffffffffffffffffffff1673ffffffffffffffffffffffffffffffffffffffff1681526020016001820160009054906101000a900473ffffffffffffffffffffffffffffffffffffffff1673ffffffffffffffffffffffffffffffffffffffff1673ffffffffffffffffffffffffffffffffffffffff1681526020016001820160149054906101000a900460ff1660ff1660ff1681526020016001820160159054906101000a900460ff1660ff1660ff1681525050905060056000826000015173ffffffffffffffffffffffffffffffffffffffff1673ffffffffffffffffffffffffffffffffffffffff168152602001908152602001600020600080820160006101000a81549063ffffffff02191690556000820160046101000a81549060ff02191690556000820160056101000a81549060ff0219169055505060096000826020015173ffffffffffffffffffffffffffffffffffffffff1673ffffffffffffffffffffffffffffffffffffffff168152602001908152602001600020600080820160006101000a81549060ff02191690556000820160016101000a81549060ff02191690555050600260000160000180548061347457613473616527565b5b6001900381819060005260206000209060020201600080820160006101000a81549073ffffffffffffffffffffffffffffffffffffffff02191690556001820160006101000a81549073ffffffffffffffffffffffffffffffffffffffff02191690556001820160146101000a81549060ff02191690556001820160156101000a81549060ff02191690555050905550613222565b60005b8160000151518110156136465760026000016000018260000151828151811061353857613537615fe0565b5b6020026020010151908060018154018082558091505060019003906000526020600020906002020160009091909190915060008201518160000160006101000a81548173ffffffffffffffffffffffffffffffffffffffff021916908373ffffffffffffffffffffffffffffffffffffffff16021790555060208201518160010160006101000a81548173ffffffffffffffffffffffffffffffffffffffff021916908373ffffffffffffffffffffffffffffffffffffffff16021790555060408201518160010160146101000a81548160ff021916908360ff16021790555060608201518160010160156101000a81548160ff021916908360ff160217905550505080600101905061350c565b5060028001600081819054906101000a900463ffffffff1661366790616556565b91906101000a81548163ffffffff021916908363ffffffff16021790555060006002800160009054906101000a900463ffffffff16905060005b8260000151518160ff16101561384957600083600001518260ff16815181106136cd576136cc615fe0565b5b6020026020010151905060405180606001604052808463ffffffff168152602001826040015160ff1681526020018360ff1681525060056000836000015173ffffffffffffffffffffffffffffffffffffffff1673ffffffffffffffffffffffffffffffffffffffff16815260200190815260200160002060008201518160000160006101000a81548163ffffffff021916908363ffffffff16021790555060208201518160000160046101000a81548160ff021916908360ff16021790555060408201518160000160056101000a81548160ff021916908360ff160217905550905050600060096000836020015173ffffffffffffffffffffffffffffffffffffffff1673ffffffffffffffffffffffffffffffffffffffff168152602001908152602001600020905060018160000160006101000a81548160ff02191690831515021790555081606001518160000160016101000a81548160ff021916908360ff1602179055505050806138429061637e565b90506136a1565b50600060096000801973ffffffffffffffffffffffffffffffffffffffff1673ffffffffffffffffffffffffffffffffffffffff168152602001908152602001600020905060018160000160006101000a81548160ff02191690831515021790555060008160000160016101000a81548160ff021916908360ff16021790555050436002800160046101000a81548163ffffffff021916908363ffffffff1602179055508063ffffffff167f8c49fda8177c5c8c768eb39634bc6773695c7181711537b822451c12b2efd2a9836040516139239190616582565b60405180910390a2600c6040518060c0016040528060048081111561394b5761394a615d9d565b5b81526020016139586146c4565b67ffffffffffffffff168152602001600015158152602001600073ffffffffffffffffffffffffffffffffffffffff168152602001600060801b6fffffffffffffffffffffffffffffffff19168152602001600060801b6fffffffffffffffffffffffffffffffff1916815250908060018154018082558091505060019003906000526020600020906002020160009091909190915060008201518160000160006101000a81548160ff02191690836004811115613a1957613a18615d9d565b5b021790555060208201518160000160016101000a81548167ffffffffffffffff021916908367ffffffffffffffff16021790555060408201518160000160096101000a81548160ff021916908315150217905550606082015181600001600a6101000a81548173ffffffffffffffffffffffffffffffffffffffff021916908373ffffffffffffffffffffffffffffffffffffffff16021790555060808201518160010160006101000a8154816fffffffffffffffffffffffffffffffff021916908360801c021790555060a08201518160010160106101000a8154816fffffffffffffffffffffffffffffffff021916908360801c021790555050505050565b600081600001518260200151604051602001613b379291906165b3565b604051602081830303815290604052805190602001209050919050565b6000613b7c836000018373ffffffffffffffffffffffffffffffffffffffff1660001b614c41565b905092915050565b6000825103613bbf576040517f55e9b08b00000000000000000000000000000000000000000000000000000000815260040160405180910390fd5b806001016000846fffffffffffffffffffffffffffffffff19166fffffffffffffffffffffffffffffffff1916815260200190815260200160002060009054906101000a900460ff1615613c4c5783836040517f078f3400000000000000000000000000000000000000000000000000000000008152600401613c439291906165dc565b60405180910390fd5b6001816001016000856fffffffffffffffffffffffffffffffff19166fffffffffffffffffffffffffffffffff1916815260200190815260200160002060006101000a81548160ff02191690831515021790555060006002800160009054906101000a900463ffffffff16905060005b835181101561436b5760018110158015613d3c5750838181518110613ce457613ce3615fe0565b5b60200260200101516fffffffffffffffffffffffffffffffff191684600183613d0d919061634a565b81518110613d1e57613d1d615fe0565b5b60200260200101516fffffffffffffffffffffffffffffffff191610155b15613d73576040517f2432d8ea00000000000000000000000000000000000000000000000000000000815260040160405180910390fd5b6000848281518110613d8857613d87615fe0565b5b602002602001015190506000613d9e8483612615565b905060008160010160008a73ffffffffffffffffffffffffffffffffffffffff1673ffffffffffffffffffffffffffffffffffffffff1681526020019081526020016000206040518060400160405290816000820160009054906101000a900463ffffffff1663ffffffff1663ffffffff1681526020016000820160049054906101000a900460201b63ffffffff191663ffffffff19168152505090506000801973ffffffffffffffffffffffffffffffffffffffff168a73ffffffffffffffffffffffffffffffffffffffff1614158015613e8957508563ffffffff16826000015163ffffffff16105b80613ea95750600060201b63ffffffff1916826020015163ffffffff1916145b15613f0957600060201b90508660000160019054906101000a900460ff1660ff168360000160068282829054906101000a900461ffff16613eea91906161e5565b92506101000a81548161ffff021916908361ffff160217905550613f11565b816020015190505b60405180604001604052808763ffffffff168152602001613f32838c614c64565b63ffffffff19168152509150818360010160008c73ffffffffffffffffffffffffffffffffffffffff1673ffffffffffffffffffffffffffffffffffffffff16815260200190815260200160002060008201518160000160006101000a81548163ffffffff021916908363ffffffff16021790555060208201518160000160046101000a8154817bffffffffffffffffffffffffffffffffffffffffffffffffffffffff021916908360201c02179055509050508973ffffffffffffffffffffffffffffffffffffffff168663ffffffff167f8137bc8a8d712aaa27bfc6506d5566ac405618bd53f9831b8ca6b6fe5442ee7a868c8b60000160019054906101000a900460ff166140416146c4565b88602001518a60000160069054906101000a900461ffff1660405161406b96959493929190616614565b60405180910390a3600060201b63ffffffff19168163ffffffff19161480156140a357508260000160089054906101000a900460ff16155b80156140b457506140b38361461d565b5b156141695760018360000160086101000a81548160ff021916908315150217905550600b600001600081819054906101000a900467ffffffffffffffff166140fb90616675565b91906101000a81548167ffffffffffffffff021916908367ffffffffffffffff1602179055508563ffffffff167fcfdbfd8ce9a56b5f7c202c0e102184d24f47ca87121dc165063fc4c290957bde856141526146c4565b6040516141609291906166a5565b60405180910390a25b600c6040518060c001604052806000600481111561418a57614189615d9d565b5b81526020016141976146c4565b67ffffffffffffffff1681526020018560000160089054906101000a900460ff16151581526020018c73ffffffffffffffffffffffffffffffffffffffff168152602001866fffffffffffffffffffffffffffffffff191681526020018b6fffffffffffffffffffffffffffffffff1916815250908060018154018082558091505060019003906000526020600020906002020160009091909190915060008201518160000160006101000a81548160ff0219169083600481111561425f5761425e615d9d565b5b021790555060208201518160000160016101000a81548167ffffffffffffffff021916908367ffffffffffffffff16021790555060408201518160000160096101000a81548160ff021916908315150217905550606082015181600001600a6101000a81548173ffffffffffffffffffffffffffffffffffffffff021916908373ffffffffffffffffffffffffffffffffffffffff16021790555060808201518160010160006101000a8154816fffffffffffffffffffffffffffffffff021916908360801c021790555060a08201518160010160106101000a8154816fffffffffffffffffffffffffffffffff021916908360801c0217905550505050505050806001019050613cbc565b505050505050565b600060108260ff16106143895761438861600f565b5b60008260ff16600178ffffffffffffffffffffffffffffffffffffffffffffffffff16901b841678ffffffffffffffffffffffffffffffffffffffffffffffffff161415905092915050565b600060108260ff16106143eb576143ea61600f565b5b8160ff16600178ffffffffffffffffffffffffffffffffffffffffffffffffff16901b8317905092915050565b3373ffffffffffffffffffffffffffffffffffffffff168173ffffffffffffffffffffffffffffffffffffffff1603614486576040517f08c379a000000000000000000000000000000000000000000000000000000000815260040161447d9061671a565b60405180910390fd5b80600160006101000a81548173ffffffffffffffffffffffffffffffffffffffff021916908373ffffffffffffffffffffffffffffffffffffffff1602179055508073ffffffffffffffffffffffffffffffffffffffff1660008054906101000a900473ffffffffffffffffffffffffffffffffffffffff1673ffffffffffffffffffffffffffffffffffffffff167fed8889f560326eb138920d842192f0eb3dd22b4f139c87a2c57538e05bae127860405160405180910390a350565b600060106001901b8278ffffffffffffffffffffffffffffffffffffffffffffffffff16106145765761457561600f565b5b5b60008278ffffffffffffffffffffffffffffffffffffffffffffffffff16146145bc576001826145a7919061675f565b82169150806145b59061637e565b9050614577565b919050565b60608160000180548060200260200160405190810160405280929190818152602001828054801561461157602002820191906000526020600020905b8154815260200190600101908083116145fd575b50505050509050919050565b60008060201b63ffffffff1916826001016000801973ffffffffffffffffffffffffffffffffffffffff1673ffffffffffffffffffffffffffffffffffffffff16815260200190815260200160002060000160049054906101000a900460201b63ffffffff19161415806146bd57508160000160049054906101000a900461ffff1661ffff168260000160069054906101000a900461ffff1661ffff1610155b9050919050565b600042905090565b600080836001016000848152602001908152602001600020549050600081146147d45760006001826146fe919061634a565b9050600060018660000180549050614716919061634a565b905081811461478557600086600001828154811061473757614736615fe0565b5b906000526020600020015490508087600001848154811061475b5761475a615fe0565b5b90600052602060002001819055508387600101600083815260200190815260200160002081905550505b8560000180548061479957614798616527565b5b6001900381819060005260206000200160009055905585600101600086815260200190815260200160002060009055600193505050506147da565b60009150505b92915050565b60006147ec8383614c41565b61484557826000018290806001815401808255809150506001900390600052602060002001600090919091909150558260000180549050836001016000848152602001908152602001600020819055506001905061484a565b600090505b92915050565b600080826000015151148061486a57506010826000015151115b8061487d57506000826020015161ffff16145b8061489057506000826040015161ffff16145b1561489e5760009050614c3c565b600080600084600001515160026148b591906167ac565b67ffffffffffffffff8111156148ce576148cd614e8c565b5b6040519080825280602002602001820160405280156148fc5781602001602082028036833780820191505090505b50905060005b856000015151811015614b5a5760008660000151828151811061492857614927615fe0565b5b60200260200101519050600073ffffffffffffffffffffffffffffffffffffffff16816000015173ffffffffffffffffffffffffffffffffffffffff1614806149a15750600073ffffffffffffffffffffffffffffffffffffffff16816020015173ffffffffffffffffffffffffffffffffffffffff16145b806149dc5750600073ffffffffffffffffffffffffffffffffffffffff16816020015173ffffffffffffffffffffffffffffffffffffffff16145b80614a18575060001973ffffffffffffffffffffffffffffffffffffffff16816020015173ffffffffffffffffffffffffffffffffffffffff16145b80614a3d57506000816040015160ff16148015614a3c57506000816060015160ff16145b5b15614a5057600095505050505050614c3c565b8060000151836000846002614a6591906167ac565b614a6f9190616316565b81518110614a8057614a7f615fe0565b5b602002602001019073ffffffffffffffffffffffffffffffffffffffff16908173ffffffffffffffffffffffffffffffffffffffff16815250508060200151836001846002614acf91906167ac565b614ad99190616316565b81518110614aea57614ae9615fe0565b5b602002602001019073ffffffffffffffffffffffffffffffffffffffff16908173ffffffffffffffffffffffffffffffffffffffff1681525050806040015160ff1685614b379190616316565b9450806060015160ff1684614b4c9190616316565b935050806001019050614902565b5060005b8151811015614c15576000828281518110614b7c57614b7b615fe0565b5b602002602001015190506000600183614b959190616316565b90505b8351811015614c0857838181518110614bb457614bb3615fe0565b5b602002602001015173ffffffffffffffffffffffffffffffffffffffff168273ffffffffffffffffffffffffffffffffffffffff1603614bfd5760009650505050505050614c3c565b806001019050614b98565b5050806001019050614b5e565b50846020015161ffff168310158015614c365750846040015161ffff168210155b93505050505b919050565b600080836001016000848152602001908152602001600020541415905092915050565b60008282604051602001614c799291906167ee565b60405160208183030381529060405280519060200120905092915050565b604051806060016040528060608152602001600061ffff168152602001600061ffff1681525090565b6040518060c0016040528060006004811115614cdf57614cde615d9d565b5b8152602001600067ffffffffffffffff168152602001600015158152602001600073ffffffffffffffffffffffffffffffffffffffff16815260200160006fffffffffffffffffffffffffffffffff1916815260200160006fffffffffffffffffffffffffffffffff191681525090565b600081519050919050565b600082825260208201905092915050565b6000819050602082019050919050565b600073ffffffffffffffffffffffffffffffffffffffff82169050919050565b6000614da782614d7c565b9050919050565b614db781614d9c565b82525050565b6000614dc98383614dae565b60208301905092915050565b6000602082019050919050565b6000614ded82614d50565b614df78185614d5b565b9350614e0283614d6c565b8060005b83811015614e33578151614e1a8882614dbd565b9750614e2583614dd5565b925050600181019050614e06565b5085935050505092915050565b60006020820190508181036000830152614e5a8184614de2565b905092915050565b6000604051905090565b600080fd5b600080fd5b600080fd5b6000601f19601f8301169050919050565b7f4e487b7100000000000000000000000000000000000000000000000000000000600052604160045260246000fd5b614ec482614e7b565b810181811067ffffffffffffffff82111715614ee357614ee2614e8c565b5b80604052505050565b6000614ef6614e62565b9050614f028282614ebb565b919050565b600067ffffffffffffffff821115614f2257614f21614e8c565b5b602082029050602081019050919050565b600080fd5b600080fd5b600080fd5b60007fffffffffffffffffffffffffffffffff0000000000000000000000000000000082169050919050565b614f7781614f42565b8114614f8257600080fd5b50565b600081359050614f9481614f6e565b92915050565b60007fffffffffffffffffffffffffffffffffffffffffffffffffffffffff0000000082169050919050565b614fcf81614f9a565b8114614fda57600080fd5b50565b600081359050614fec81614fc6565b92915050565b60006040828403121561500857615007614f38565b5b6150126040614eec565b9050600061502284828501614f85565b600083015250602061503684828501614fdd565b60208301525092915050565b600061505561505084614f07565b614eec565b9050808382526020820190506040840283018581111561507857615077614f33565b5b835b818110156150a1578061508d8882614ff2565b84526020840193505060408101905061507a565b5050509392505050565b600082601f8301126150c0576150bf614e76565b5b81356150d0848260208601615042565b91505092915050565b6000602082840312156150ef576150ee614e6c565b5b600082013567ffffffffffffffff81111561510d5761510c614e71565b5b615119848285016150ab565b91505092915050565b600081519050919050565b600082825260208201905092915050565b60005b8381101561515c578082015181840152602081019050615141565b60008484015250505050565b600061517382615122565b61517d818561512d565b935061518d81856020860161513e565b61519681614e7b565b840191505092915050565b600060208201905081810360008301526151bb8184615168565b905092915050565b6000602082840312156151d9576151d8614e6c565b5b60006151e784828501614f85565b91505092915050565b60008115159050919050565b615205816151f0565b82525050565b600060208201905061522060008301846151fc565b92915050565b6000819050919050565b61523981615226565b82525050565b60006020820190506152546000830184615230565b92915050565b600067ffffffffffffffff82111561527557615274614e8c565b5b602082029050602081019050919050565b61528f81614d9c565b811461529a57600080fd5b50565b6000813590506152ac81615286565b92915050565b60006152c56152c08461525a565b614eec565b905080838252602082019050602084028301858111156152e8576152e7614f33565b5b835b8181101561531157806152fd888261529d565b8452602084019350506020810190506152ea565b5050509392505050565b600082601f8301126153305761532f614e76565b5b81356153408482602086016152b2565b91505092915050565b600080604083850312156153605761535f614e6c565b5b600083013567ffffffffffffffff81111561537e5761537d614e71565b5b61538a8582860161531b565b925050602083013567ffffffffffffffff8111156153ab576153aa614e71565b5b6153b78582860161531b565b9150509250929050565b600063ffffffff82169050919050565b6153da816153c1565b82525050565b600081519050919050565b600082825260208201905092915050565b6000819050602082019050919050565b600060ff82169050919050565b6154228161540c565b82525050565b60808201600082015161543e6000850182614dae565b5060208201516154516020850182614dae565b5060408201516154646040850182615419565b5060608201516154776060850182615419565b50505050565b60006154898383615428565b60808301905092915050565b6000602082019050919050565b60006154ad826153e0565b6154b781856153eb565b93506154c2836153fc565b8060005b838110156154f35781516154da888261547d565b97506154e583615495565b9250506001810190506154c6565b5085935050505092915050565b600061ffff82169050919050565b61551781615500565b82525050565b6000606083016000830151848203600086015261553a82826154a2565b915050602083015161554f602086018261550e565b506040830151615562604086018261550e565b508091505092915050565b600060608201905061558260008301866153d1565b61558f60208301856153d1565b81810360408301526155a1818461551d565b9050949350505050565b600067ffffffffffffffff8211156155c6576155c5614e8c565b5b602082029050602081019050919050565b6155e08161540c565b81146155eb57600080fd5b50565b6000813590506155fd816155d7565b92915050565b60006080828403121561561957615618614f38565b5b6156236080614eec565b905060006156338482850161529d565b60008301525060206156478482850161529d565b602083015250604061565b848285016155ee565b604083015250606061566f848285016155ee565b60608301525092915050565b600061568e615689846155ab565b614eec565b905080838252602082019050608084028301858111156156b1576156b0614f33565b5b835b818110156156da57806156c68882615603565b8452602084019350506080810190506156b3565b5050509392505050565b600082601f8301126156f9576156f8614e76565b5b813561570984826020860161567b565b91505092915050565b61571b81615500565b811461572657600080fd5b50565b60008135905061573881615712565b92915050565b60006060828403121561575457615753614f38565b5b61575e6060614eec565b9050600082013567ffffffffffffffff81111561577e5761577d614f3d565b5b61578a848285016156e4565b600083015250602061579e84828501615729565b60208301525060406157b284828501615729565b60408301525092915050565b6000602082840312156157d4576157d3614e6c565b5b600082013567ffffffffffffffff8111156157f2576157f1614e71565b5b6157fe8482850161573e565b91505092915050565b600080fd5b60006040828403121561582257615821615807565b5b81905092915050565b60006040828403121561584157615840614e6c565b5b600061584f8482850161580c565b91505092915050565b600067ffffffffffffffff82111561587357615872614e8c565b5b602082029050602081019050919050565b600061589761589284615858565b614eec565b905080838252602082019050602084028301858111156158ba576158b9614f33565b5b835b818110156158e357806158cf8882614f85565b8452602084019350506020810190506158bc565b5050509392505050565b600082601f83011261590257615901614e76565b5b8135615912848260208601615884565b91505092915050565b6000806040838503121561593257615931614e6c565b5b600061594085828601614f85565b925050602083013567ffffffffffffffff81111561596157615960614e71565b5b61596d858286016158ed565b9150509250929050565b600067ffffffffffffffff82111561599257615991614e8c565b5b602082029050602081019050919050565b6159ac816151f0565b81146159b757600080fd5b50565b6000813590506159c9816159a3565b92915050565b6000608082840312156159e5576159e4614f38565b5b6159ef6060614eec565b905060006159ff8482850161529d565b6000830152506020615a1384828501614ff2565b6020830152506060615a27848285016159ba565b60408301525092915050565b6000615a46615a4184615977565b614eec565b90508083825260208201905060808402830185811115615a6957615a68614f33565b5b835b81811015615a925780615a7e88826159cf565b845260208401935050608081019050615a6b565b5050509392505050565b600082601f830112615ab157615ab0614e76565b5b8135615ac1848260208601615a33565b91505092915050565b600060208284031215615ae057615adf614e6c565b5b600082013567ffffffffffffffff811115615afe57615afd614e71565b5b615b0a84828501615a9c565b91505092915050565b615b1c81614d9c565b82525050565b6000602082019050615b376000830184615b13565b92915050565b600080fd5b60008083601f840112615b5857615b57614e76565b5b8235905067ffffffffffffffff811115615b7557615b74615b3d565b5b602083019150836040820283011115615b9157615b90614f33565b5b9250929050565b60008060208385031215615baf57615bae614e6c565b5b600083013567ffffffffffffffff811115615bcd57615bcc614e71565b5b615bd985828601615b42565b92509250509250929050565b600081519050919050565b600082825260208201905092915050565b6000819050602082019050919050565b615c1a81614f9a565b82525050565b6000615c2c8383615c11565b60208301905092915050565b6000602082019050919050565b6000615c5082615be5565b615c5a8185615bf0565b9350615c6583615c01565b8060005b83811015615c96578151615c7d8882615c20565b9750615c8883615c38565b925050600181019050615c69565b5085935050505092915050565b615cac81615500565b82525050565b60006080820190508181036000830152615ccc8187614de2565b90508181036020830152615ce08186615c45565b9050615cef6040830185615ca3565b615cfc60608301846151fc565b95945050505050565b615d0e81615226565b8114615d1957600080fd5b50565b600081359050615d2b81615d05565b92915050565b60008060408385031215615d4857615d47614e6c565b5b6000615d5685828601615d1c565b9250506020615d6785828601615d1c565b9150509250929050565b600081519050919050565b600082825260208201905092915050565b6000819050602082019050919050565b7f4e487b7100000000000000000000000000000000000000000000000000000000600052602160045260246000fd5b60058110615ddd57615ddc615d9d565b5b50565b6000819050615dee82615dcc565b919050565b6000615dfe82615de0565b9050919050565b615e0e81615df3565b82525050565b600067ffffffffffffffff82169050919050565b615e3181615e14565b82525050565b615e40816151f0565b82525050565b615e4f81614f42565b82525050565b60c082016000820151615e6b6000850182615e05565b506020820151615e7e6020850182615e28565b506040820151615e916040850182615e37565b506060820151615ea46060850182614dae565b506080820151615eb76080850182615e46565b5060a0820151615eca60a0850182615e46565b50505050565b6000615edc8383615e55565b60c08301905092915050565b6000602082019050919050565b6000615f0082615d71565b615f0a8185615d7c565b9350615f1583615d8d565b8060005b83811015615f46578151615f2d8882615ed0565b9750615f3883615ee8565b925050600181019050615f19565b5085935050505092915050565b60006020820190508181036000830152615f6d8184615ef5565b905092915050565b600060208284031215615f8b57615f8a614e6c565b5b6000615f998482850161529d565b91505092915050565b60006060820190508181036000830152615fbc8186614de2565b9050615fcb6020830185615ca3565b615fd860408301846151fc565b949350505050565b7f4e487b7100000000000000000000000000000000000000000000000000000000600052603260045260246000fd5b7f4e487b7100000000000000000000000000000000000000000000000000000000600052600160045260246000fd5b6000819050919050565b6160518161603e565b811461605c57600080fd5b50565b60008135905061606e81616048565b92915050565b60006040828403121561608a57616089614f38565b5b6160946040614eec565b905060006160a48482850161529d565b60008301525060206160b88482850161605f565b60208301525092915050565b6000604082840312156160da576160d9614e6c565b5b60006160e884828501616074565b91505092915050565b7f4d7573742062652070726f706f736564206f776e657200000000000000000000600082015250565b600061612760168361512d565b9150616132826160f1565b602082019050919050565b600060208201905081810360008301526161568161611a565b9050919050565b6161668161603e565b82525050565b6040820160008201516161826000850182614dae565b506020820151616195602085018261615d565b50505050565b60006040820190506161b0600083018461616c565b92915050565b7f4e487b7100000000000000000000000000000000000000000000000000000000600052601160045260246000fd5b60006161f082615500565b91506161fb83615500565b9250828201905061ffff811115616215576162146161b6565b5b92915050565b6162248161540c565b82525050565b600060608201905061623f600083018561616c565b61624c604083018461621b565b9392505050565b6000606082019050616268600083018561616c565b6162756040830184615ca3565b9392505050565b6000606082019050616291600083018561616c565b61629e60408301846151fc565b9392505050565b60006162b082615226565b91507fffffffffffffffffffffffffffffffffffffffffffffffffffffffffffffffff82036162e2576162e16161b6565b5b600182019050919050565b60006162f882615226565b91506000820361630b5761630a6161b6565b5b600182039050919050565b600061632182615226565b915061632c83615226565b9250828201905080821115616344576163436161b6565b5b92915050565b600061635582615226565b915061636083615226565b9250828203905081811115616378576163776161b6565b5b92915050565b60006163898261540c565b915060ff820361639c5761639b6161b6565b5b600182019050919050565b60006163b282615500565b91506163bd83615500565b9250828203905061ffff8111156163d7576163d66161b6565b5b92915050565b6163e681614f42565b82525050565b6163f581614f9a565b82525050565b600060808201905061641060008301876163dd565b61641d602083018661621b565b61642a60408301856163ec565b6164376060830184615ca3565b95945050505050565b600061644b82615e14565b91506000820361645e5761645d6161b6565b5b600182039050919050565b600060208201905061647e60008301846163dd565b92915050565b600060608201905061649960008301866163dd565b6164a660208301856163ec565b6164b360408301846163ec565b949350505050565b7f4f6e6c792063616c6c61626c65206279206f776e657200000000000000000000600082015250565b60006164f160168361512d565b91506164fc826164bb565b602082019050919050565b60006020820190508181036000830152616520816164e4565b9050919050565b7f4e487b7100000000000000000000000000000000000000000000000000000000600052603160045260246000fd5b6000616561826153c1565b915063ffffffff8203616577576165766161b6565b5b600182019050919050565b6000602082019050818103600083015261659c818461551d565b905092915050565b6165ad8161603e565b82525050565b60006040820190506165c86000830185615b13565b6165d560208301846165a4565b9392505050565b60006040820190506165f16000830185615b13565b6165fe60208301846163dd565b9392505050565b61660e81615e14565b82525050565b600060c08201905061662960008301896163dd565b61663660208301886163dd565b616643604083018761621b565b6166506060830186616605565b61665d60808301856163ec565b61666a60a0830184615ca3565b979650505050505050565b600061668082615e14565b915067ffffffffffffffff820361669a576166996161b6565b5b600182019050919050565b60006040820190506166ba60008301856163dd565b6166c76020830184616605565b9392505050565b7f43616e6e6f74207472616e7366657220746f2073656c66000000000000000000600082015250565b600061670460178361512d565b915061670f826166ce565b602082019050919050565b60006020820190508181036000830152616733816166f7565b9050919050565b600078ffffffffffffffffffffffffffffffffffffffffffffffffff82169050919050565b600061676a8261673a565b91506167758361673a565b9250828203905078ffffffffffffffffffffffffffffffffffffffffffffffffff8111156167a6576167a56161b6565b5b92915050565b60006167b782615226565b91506167c283615226565b92508282026167d081615226565b915082820484148315176167e7576167e66161b6565b5b5092915050565b600060408201905061680360008301856163ec565b61681060208301846163dd565b939250505056fea164736f6c6343000818000a","linkReferences":{}},"methodIdentifiers":{"acceptOwnership()":"79ba5097","getBlessProgress((address,bytes32))":"f33f2895","getConfigDetails()":"3f42ab73","getCurseProgress(bytes16)":"bd147ef4","getCursedSubjectsCount()":"328d716c","getPermaBlessedCommitStores()":"0b009be2","getRecordedCurseRelatedOps(uint256,uint256)":"d927f267","getRecordedCurseRelatedOpsCount()":"970b8fc2","isBlessed((address,bytes32))":"4d616771","isCursed()":"397796f7","isCursed(bytes16)":"2cbc26bb","owner()":"8da5cb5b","ownerCurse(bytes16,bytes16[])":"6ba0526d","ownerRemoveThenAddPermaBlessedCommitStores(address[],address[])":"3d0cf610","ownerResetBlessVotes((address,bytes32)[])":"ba86a1f0","ownerUnvoteToCurse((address,(bytes16,bytes28),bool)[])":"631ec73e","setConfig(((address,address,uint8,uint8)[],uint16,uint16))":"4102e4f4","transferOwnership(address)":"f2fde38b","typeAndVersion()":"181f5a77","unvoteToCurse((bytes16,bytes28)[])":"15c65588","voteToBless((address,bytes32)[])":"97998611","voteToCurse(bytes16,bytes16[])":"586abe3c"},"id":4}