{"abi":[{"type":"constructor","inputs":[{"name":"token","type":"address","internalType":"contract IBurnMintERC20"},{"name":"allowlist","type":"address[]","internalType":"address[]"},{"name":"rmnProxy","type":"address","internalType":"address"},{"name":"router","type":"address","internalType":"address"}],"stateMutability":"nonpayable"},{"type":"function","name":"acceptOwnership","inputs":[],"outputs":[],"stateMutability":"nonpayable"},{"type":"function","name":"applyAllowListUpdates","inputs":[{"name":"removes","type":"address[]","internalType":"address[]"},{"name":"adds","type":"address[]","internalType":"address[]"}],"outputs":[],"stateMutability":"nonpayable"},{"type":"function","name":"applyChainUpdates","inputs":[{"name":"chains","type":"tuple[]","internalType":"struct TokenPool.ChainUpdate[]","components":[{"name":"remoteChainSelector","type":"uint64","internalType":"uint64"},{"name":"allowed","type":"bool","internalType":"bool"},{"name":"remotePoolAddress","type":"bytes","internalType":"bytes"},{"name":"remoteTokenAddress","type":"bytes","internalType":"bytes"},{"name":"outboundRateLimiterConfig","type":"tuple","internalType":"struct RateLimiter.Config","components":[{"name":"isEnabled","type":"bool","internalType":"bool"},{"name":"capacity","type":"uint128","internalType":"uint128"},{"name":"rate","type":"uint128","internalType":"uint128"}]},{"name":"inboundRateLimiterConfig","type":"tuple","internalType":"struct RateLimiter.Config","components":[{"name":"isEnabled","type":"bool","internalType":"bool"},{"name":"capacity","type":"uint128","internalType":"uint128"},{"name":"rate","type":"uint128","internalType":"uint128"}]}]}],"outputs":[],"stateMutability":"nonpayable"},{"type":"function","name":"getAllowList","inputs":[],"outputs":[{"name":"","type":"address[]","internalType":"address[]"}],"stateMutability":"view"},{"type":"function","name":"getAllowListEnabled","inputs":[],"outputs":[{"name":"","type":"bool","internalType":"bool"}],"stateMutability":"view"},{"type":"function","name":"getCurrentInboundRateLimiterState","inputs":[{"name":"remoteChainSelector","type":"uint64","internalType":"uint64"}],"outputs":[{"name":"","type":"tuple","internalType":"struct RateLimiter.TokenBucket","components":[{"name":"tokens","type":"uint128","internalType":"uint128"},{"name":"lastUpdated","type":"uint32","internalType":"uint32"},{"name":"isEnabled","type":"bool","internalType":"bool"},{"name":"capacity","type":"uint128","internalType":"uint128"},{"name":"rate","type":"uint128","internalType":"uint128"}]}],"stateMutability":"view"},{"type":"function","name":"getCurrentOutboundRateLimiterState","inputs":[{"name":"remoteChainSelector","type":"uint64","internalType":"uint64"}],"outputs":[{"name":"","type":"tuple","internalType":"struct RateLimiter.TokenBucket","components":[{"name":"tokens","type":"uint128","internalType":"uint128"},{"name":"lastUpdated","type":"uint32","internalType":"uint32"},{"name":"isEnabled","type":"bool","internalType":"bool"},{"name":"capacity","type":"uint128","internalType":"uint128"},{"name":"rate","type":"uint128","internalType":"uint128"}]}],"stateMutability":"view"},{"type":"function","name":"getRemotePool","inputs":[{"name":"remoteChainSelector","type":"uint64","internalType":"uint64"}],"outputs":[{"name":"","type":"bytes","internalType":"bytes"}],"stateMutability":"view"},{"type":"function","name":"getRemoteToken","inputs":[{"name":"remoteChainSelector","type":"uint64","internalType":"uint64"}],"outputs":[{"name":"","type":"bytes","internalType":"bytes"}],"stateMutability":"view"},{"type":"function","name":"getRmnProxy","inputs":[],"outputs":[{"name":"rmnProxy","type":"address","internalType":"address"}],"stateMutability":"view"},{"type":"function","name":"getRouter","inputs":[],"outputs":[{"name":"router","type":"address","internalType":"address"}],"stateMutability":"view"},{"type":"function","name":"getSupportedChains","inputs":[],"outputs":[{"name":"","type":"uint64[]","internalType":"uint64[]"}],"stateMutability":"view"},{"type":"function","name":"getToken","inputs":[],"outputs":[{"name":"token","type":"address","internalType":"contract IERC20"}],"stateMutability":"view"},{"type":"function","name":"isSupportedChain","inputs":[{"name":"remoteChainSelector","type":"uint64","internalType":"uint64"}],"outputs":[{"name":"","type":"bool","internalType":"bool"}],"stateMutability":"view"},{"type":"function","name":"isSupportedToken","inputs":[{"name":"token","type":"address","internalType":"address"}],"outputs":[{"name":"","type":"bool","internalType":"bool"}],"stateMutability":"view"},{"type":"function","name":"lockOrBurn","inputs":[{"name":"lockOrBurnIn","type":"tuple","internalType":"struct Pool.LockOrBurnInV1","components":[{"name":"receiver","type":"bytes","internalType":"bytes"},{"name":"remoteChainSelector","type":"uint64","internalType":"uint64"},{"name":"originalSender","type":"address","internalType":"address"},{"name":"amount","type":"uint256","internalType":"uint256"},{"name":"localToken","type":"address","internalType":"address"}]}],"outputs":[{"name":"","type":"tuple","internalType":"struct Pool.LockOrBurnOutV1","components":[{"name":"destTokenAddress","type":"bytes","internalType":"bytes"},{"name":"destPoolData","type":"bytes","internalType":"bytes"}]}],"stateMutability":"nonpayable"},{"type":"function","name":"owner","inputs":[],"outputs":[{"name":"","type":"address","internalType":"address"}],"stateMutability":"view"},{"type":"function","name":"releaseOrMint","inputs":[{"name":"releaseOrMintIn","type":"tuple","internalType":"struct Pool.ReleaseOrMintInV1","components":[{"name":"originalSender","type":"bytes","internalType":"bytes"},{"name":"remoteChainSelector","type":"uint64","internalType":"uint64"},{"name":"receiver","type":"address","internalType":"address"},{"name":"amount","type":"uint256","internalType":"uint256"},{"name":"localToken","type":"address","internalType":"address"},{"name":"sourcePoolAddress","type":"bytes","internalType":"bytes"},{"name":"sourcePoolData","type":"bytes","internalType":"bytes"},{"name":"offchainTokenData","type":"bytes","internalType":"bytes"}]}],"outputs":[{"name":"","type":"tuple","internalType":"struct Pool.ReleaseOrMintOutV1","components":[{"name":"destinationAmount","type":"uint256","internalType":"uint256"}]}],"stateMutability":"nonpayable"},{"type":"function","name":"setChainRateLimiterConfig","inputs":[{"name":"remoteChainSelector","type":"uint64","internalType":"uint64"},{"name":"outboundConfig","type":"tuple","internalType":"struct RateLimiter.Config","components":[{"name":"isEnabled","type":"bool","internalType":"bool"},{"name":"capacity","type":"uint128","internalType":"uint128"},{"name":"rate","type":"uint128","internalType":"uint128"}]},{"name":"inboundConfig","type":"tuple","internalType":"struct RateLimiter.Config","components":[{"name":"isEnabled","type":"bool","internalType":"bool"},{"name":"capacity","type":"uint128","internalType":"uint128"},{"name":"rate","type":"uint128","internalType":"uint128"}]}],"outputs":[],"stateMutability":"nonpayable"},{"type":"function","name":"setRemotePool","inputs":[{"name":"remoteChainSelector","type":"uint64","internalType":"uint64"},{"name":"remotePoolAddress","type":"bytes","internalType":"bytes"}],"outputs":[],"stateMutability":"nonpayable"},{"type":"function","name":"setRouter","inputs":[{"name":"newRouter","type":"address","internalType":"address"}],"outputs":[],"stateMutability":"nonpayable"},{"type":"function","name":"supportsInterface","inputs":[{"name":"interfaceId","type":"bytes4","internalType":"bytes4"}],"outputs":[{"name":"","type":"bool","internalType":"bool"}],"stateMutability":"pure"},{"type":"function","name":"transferOwnership","inputs":[{"name":"to","type":"address","internalType":"address"}],"outputs":[],"stateMutability":"nonpayable"},{"type":"function","name":"typeAndVersion","inputs":[],"outputs":[{"name":"","type":"string","internalType":"string"}],"stateMutability":"view"},{"type":"event","name":"AllowListAdd","inputs":[{"name":"sender","type":"address","indexed":false,"internalType":"address"}],"anonymous":false},{"type":"event","name":"AllowListRemove","inputs":[{"name":"sender","type":"address","indexed":false,"internalType":"address"}],"anonymous":false},{"type":"event","name":"Burned","inputs":[{"name":"sender","type":"address","indexed":true,"internalType":"address"},{"name":"amount","type":"uint256","indexed":false,"internalType":"uint256"}],"anonymous":false},{"type":"event","name":"ChainAdded","inputs":[{"name":"remoteChainSelector","type":"uint64","indexed":false,"internalType":"uint64"},{"name":"remoteToken","type":"bytes","indexed":false,"internalType":"bytes"},{"name":"outboundRateLimiterConfig","type":"tuple","indexed":false,"internalType":"struct RateLimiter.Config","components":[{"name":"isEnabled","type":"bool","internalType":"bool"},{"name":"capacity","type":"uint128","internalType":"uint128"},{"name":"rate","type":"uint128","internalType":"uint128"}]},{"name":"inboundRateLimiterConfig","type":"tuple","indexed":false,"internalType":"struct RateLimiter.Config","components":[{"name":"isEnabled","type":"bool","internalType":"bool"},{"name":"capacity","type":"uint128","internalType":"uint128"},{"name":"rate","type":"uint128","internalType":"uint128"}]}],"anonymous":false},{"type":"event","name":"ChainConfigured","inputs":[{"name":"remoteChainSelector","type":"uint64","indexed":false,"internalType":"uint64"},{"name":"outboundRateLimiterConfig","type":"tuple","indexed":false,"internalType":"struct RateLimiter.Config","components":[{"name":"isEnabled","type":"bool","internalType":"bool"},{"name":"capacity","type":"uint128","internalType":"uint128"},{"name":"rate","type":"uint128","internalType":"uint128"}]},{"name":"inboundRateLimiterConfig","type":"tuple","indexed":false,"internalType":"struct RateLimiter.Config","components":[{"name":"isEnabled","type":"bool","internalType":"bool"},{"name":"capacity","type":"uint128","internalType":"uint128"},{"name":"rate","type":"uint128","internalType":"uint128"}]}],"anonymous":false},{"type":"event","name":"ChainRemoved","inputs":[{"name":"remoteChainSelector","type":"uint64","indexed":false,"internalType":"uint64"}],"anonymous":false},{"type":"event","name":"ConfigChanged","inputs":[{"name":"config","type":"tuple","indexed":false,"internalType":"struct RateLimiter.Config","components":[{"name":"isEnabled","type":"bool","internalType":"bool"},{"name":"capacity","type":"uint128","internalType":"uint128"},{"name":"rate","type":"uint128","internalType":"uint128"}]}],"anonymous":false},{"type":"event","name":"Locked","inputs":[{"name":"sender","type":"address","indexed":true,"internalType":"address"},{"name":"amount","type":"uint256","indexed":false,"internalType":"uint256"}],"anonymous":false},{"type":"event","name":"Minted","inputs":[{"name":"sender","type":"address","indexed":true,"internalType":"address"},{"name":"recipient","type":"address","indexed":true,"internalType":"address"},{"name":"amount","type":"uint256","indexed":false,"internalType":"uint256"}],"anonymous":false},{"type":"event","name":"OwnershipTransferRequested","inputs":[{"name":"from","type":"address","indexed":true,"internalType":"address"},{"name":"to","type":"address","indexed":true,"internalType":"address"}],"anonymous":false},{"type":"event","name":"OwnershipTransferred","inputs":[{"name":"from","type":"address","indexed":true,"internalType":"address"},{"name":"to","type":"address","indexed":true,"internalType":"address"}],"anonymous":false},{"type":"event","name":"Released","inputs":[{"name":"sender","type":"address","indexed":true,"internalType":"address"},{"name":"recipient","type":"address","indexed":true,"internalType":"address"},{"name":"amount","type":"uint256","indexed":false,"internalType":"uint256"}],"anonymous":false},{"type":"event","name":"RemotePoolSet","inputs":[{"name":"remoteChainSelector","type":"uint64","indexed":true,"internalType":"uint64"},{"name":"previousPoolAddress","type":"bytes","indexed":false,"internalType":"bytes"},{"name":"remotePoolAddress","type":"bytes","indexed":false,"internalType":"bytes"}],"anonymous":false},{"type":"event","name":"RouterUpdated","inputs":[{"name":"oldRouter","type":"address","indexed":false,"internalType":"address"},{"name":"newRouter","type":"address","indexed":false,"internalType":"address"}],"anonymous":false},{"type":"event","name":"TokensConsumed","inputs":[{"name":"tokens","type":"uint256","indexed":false,"internalType":"uint256"}],"anonymous":false},{"type":"error","name":"AggregateValueMaxCapacityExceeded","inputs":[{"name":"capacity","type":"uint256","internalType":"uint256"},{"name":"requested","type":"uint256","internalType":"uint256"}]},{"type":"error","name":"AggregateValueRateLimitReached","inputs":[{"name":"minWaitInSeconds","type":"uint256","internalType":"uint256"},{"name":"available","type":"uint256","internalType":"uint256"}]},{"type":"error","name":"AllowListNotEnabled","inputs":[]},{"type":"error","name":"BucketOverfilled","inputs":[]},{"type":"error","name":"CallerIsNotARampOnRouter","inputs":[{"name":"caller","type":"address","internalType":"address"}]},{"type":"error","name":"ChainAlreadyExists","inputs":[{"name":"chainSelector","type":"uint64","internalType":"uint64"}]},{"type":"error","name":"ChainNotAllowed","inputs":[{"name":"remoteChainSelector","type":"uint64","internalType":"uint64"}]},{"type":"error","name":"CursedByRMN","inputs":[]},{"type":"error","name":"DisabledNonZeroRateLimit","inputs":[{"name":"config","type":"tuple","internalType":"struct RateLimiter.Config","components":[{"name":"isEnabled","type":"bool","internalType":"bool"},{"name":"capacity","type":"uint128","internalType":"uint128"},{"name":"rate","type":"uint128","internalType":"uint128"}]}]},{"type":"error","name":"InvalidRateLimitRate","inputs":[{"name":"rateLimiterConfig","type":"tuple","internalType":"struct RateLimiter.Config","components":[{"name":"isEnabled","type":"bool","internalType":"bool"},{"name":"capacity","type":"uint128","internalType":"uint128"},{"name":"rate","type":"uint128","internalType":"uint128"}]}]},{"type":"error","name":"InvalidSourcePoolAddress","inputs":[{"name":"sourcePoolAddress","type":"bytes","internalType":"bytes"}]},{"type":"error","name":"InvalidToken","inputs":[{"name":"token","type":"address","internalType":"address"}]},{"type":"error","name":"NonExistentChain","inputs":[{"name":"remoteChainSelector","type":"uint64","internalType":"uint64"}]},{"type":"error","name":"RateLimitMustBeDisabled","inputs":[]},{"type":"error","name":"SenderNotAllowed","inputs":[{"name":"sender","type":"address","internalType":"address"}]},{"type":"error","name":"TokenMaxCapacityExceeded","inputs":[{"name":"capacity","type":"uint256","internalType":"uint256"},{"name":"requested","type":"uint256","internalType":"uint256"},{"name":"tokenAddress","type":"address","internalType":"address"}]},{"type":"error","name":"TokenRateLimitReached","inputs":[{"name":"minWaitInSeconds","type":"uint256","internalType":"uint256"},{"name":"available","type":"uint256","internalType":"uint256"},{"name":"tokenAddress","type":"address","internalType":"address"}]},{"type":"error","name":"ZeroAddressNotAllowed","inputs":[]}],"bytecode":{"object":"0x60e06040523480156200001157600080fd5b506040516200634c3803806200634c833981810160405281019062000037919062000eb2565b83838383338060008073ffffffffffffffffffffffffffffffffffffffff168273ffffffffffffffffffffffffffffffffffffffff1603620000b0576040517f08c379a0000000000000000000000000000000000000000000000000000000008152600401620000a79062000fa4565b60405180910390fd5b816000806101000a81548173ffffffffffffffffffffffffffffffffffffffff021916908373ffffffffffffffffffffffffffffffffffffffff160217905550600073ffffffffffffffffffffffffffffffffffffffff168173ffffffffffffffffffffffffffffffffffffffff1614620001375762000136816200038f60201b60201c565b5b505050600073ffffffffffffffffffffffffffffffffffffffff168473ffffffffffffffffffffffffffffffffffffffff161480620001a25750600073ffffffffffffffffffffffffffffffffffffffff168173ffffffffffffffffffffffffffffffffffffffff16145b80620001da5750600073ffffffffffffffffffffffffffffffffffffffff168273ffffffffffffffffffffffffffffffffffffffff16145b1562000212576040517f8579befe00000000000000000000000000000000000000000000000000000000815260040160405180910390fd5b8373ffffffffffffffffffffffffffffffffffffffff1660808173ffffffffffffffffffffffffffffffffffffffff16815250508173ffffffffffffffffffffffffffffffffffffffff1660a08173ffffffffffffffffffffffffffffffffffffffff168152505080600460006101000a81548173ffffffffffffffffffffffffffffffffffffffff021916908373ffffffffffffffffffffffffffffffffffffffff1602179055506000835111151560c08115158152505060c05115620003345762000333600067ffffffffffffffff811115620002f657620002f562000d22565b5b604051908082528060200260200182016040528015620003255781602001602082028036833780820191505090505b5084620004be60201b60201c565b5b5050505062000385307fffffffffffffffffffffffffffffffffffffffffffffffffffffffffffffffff8673ffffffffffffffffffffffffffffffffffffffff166200065f60201b9092919060201c565b5050505062001554565b3373ffffffffffffffffffffffffffffffffffffffff168173ffffffffffffffffffffffffffffffffffffffff160362000400576040517f08c379a0000000000000000000000000000000000000000000000000000000008152600401620003f79062001016565b60405180910390fd5b80600160006101000a81548173ffffffffffffffffffffffffffffffffffffffff021916908373ffffffffffffffffffffffffffffffffffffffff1602179055508073ffffffffffffffffffffffffffffffffffffffff1660008054906101000a900473ffffffffffffffffffffffffffffffffffffffff1673ffffffffffffffffffffffffffffffffffffffff167fed8889f560326eb138920d842192f0eb3dd22b4f139c87a2c57538e05bae127860405160405180910390a350565b60c051620004f8576040517f35f4a7b300000000000000000000000000000000000000000000000000000000815260040160405180910390fd5b60005b82518110156200058a5760008382815181106200051d576200051c62001038565b5b602002602001015190506200053d8160026200078260201b90919060201c565b156200057d577f800671136ab6cfee9fbe5ed1fb7ca417811aca3cf864800d127b927adedf75668160405162000574919062001078565b60405180910390a15b50806001019050620004fb565b5060005b81518110156200065a576000828281518110620005b057620005af62001038565b5b60200260200101519050600073ffffffffffffffffffffffffffffffffffffffff168173ffffffffffffffffffffffffffffffffffffffff1603620005f657506200064e565b6200060c816002620007ba60201b90919060201c565b156200064c577f2640d4d76caf8bf478aabfa982fa4e1c4eb71a37f93cd15e80dbc657911546d88160405162000643919062001078565b60405180910390a15b505b8060010190506200058e565b505050565b6000818473ffffffffffffffffffffffffffffffffffffffff1663dd62ed3e30866040518363ffffffff1660e01b81526004016200069f92919062001095565b602060405180830381865afa158015620006bd573d6000803e3d6000fd5b505050506040513d601f19601f82011682018060405250810190620006e39190620010fd565b620006ef91906200115e565b90506200077c8463095ea7b360e01b858460405160240162000713929190620011aa565b604051602081830303815290604052907bffffffffffffffffffffffffffffffffffffffffffffffffffffffff19166020820180517bffffffffffffffffffffffffffffffffffffffffffffffffffffffff8381831617835250505050620007f260201b60201c565b50505050565b6000620007b2836000018373ffffffffffffffffffffffffffffffffffffffff1660001b620008c160201b60201c565b905092915050565b6000620007ea836000018373ffffffffffffffffffffffffffffffffffffffff1660001b620009e560201b60201c565b905092915050565b600062000856826040518060400160405280602081526020017f5361666545524332303a206c6f772d6c6576656c2063616c6c206661696c65648152508573ffffffffffffffffffffffffffffffffffffffff1662000a5f60201b9092919060201c565b9050600081511115620008bc578080602001905181019062000879919062001214565b620008bb576040517f08c379a0000000000000000000000000000000000000000000000000000000008152600401620008b290620012bc565b60405180910390fd5b5b505050565b60008083600101600084815260200190815260200160002054905060008114620009d9576000600182620008f69190620012de565b9050600060018660000180549050620009109190620012de565b90508181146200098657600086600001828154811062000935576200093462001038565b5b90600052602060002001549050808760000184815481106200095c576200095b62001038565b5b90600052602060002001819055508387600101600083815260200190815260200160002081905550505b856000018054806200099d576200099c62001319565b5b600190038181906000526020600020016000905590558560010160008681526020019081526020016000206000905560019350505050620009df565b60009150505b92915050565b6000620009f9838362000a7f60201b60201c565b62000a5457826000018290806001815401808255809150506001900390600052602060002001600090919091909150558260000180549050836001016000848152602001908152602001600020819055506001905062000a59565b600090505b92915050565b606062000a76848460008562000aa260201b60201c565b90509392505050565b600080836001016000848152602001908152602001600020541415905092915050565b60608247101562000aea576040517f08c379a000000000000000000000000000000000000000000000000000000000815260040162000ae190620013be565b60405180910390fd5b6000808673ffffffffffffffffffffffffffffffffffffffff16858760405162000b15919062001459565b60006040518083038185875af1925050503d806000811462000b54576040519150601f19603f3d011682016040523d82523d6000602084013e62000b59565b606091505b509150915062000b728783838762000b7e60201b60201c565b92505050949350505050565b6060831562000bee57600083510362000be55762000ba28562000c0960201b60201c565b62000be4576040517f08c379a000000000000000000000000000000000000000000000000000000000815260040162000bdb90620014c2565b60405180910390fd5b5b82905062000c01565b62000c00838362000c2c60201b60201c565b5b949350505050565b6000808273ffffffffffffffffffffffffffffffffffffffff163b119050919050565b60008251111562000c405781518083602001fd5b806040517f08c379a000000000000000000000000000000000000000000000000000000000815260040162000c76919062001530565b60405180910390fd5b6000604051905090565b600080fd5b600080fd5b600073ffffffffffffffffffffffffffffffffffffffff82169050919050565b600062000cc08262000c93565b9050919050565b600062000cd48262000cb3565b9050919050565b62000ce68162000cc7565b811462000cf257600080fd5b50565b60008151905062000d068162000cdb565b92915050565b600080fd5b6000601f19601f8301169050919050565b7f4e487b7100000000000000000000000000000000000000000000000000000000600052604160045260246000fd5b62000d5c8262000d11565b810181811067ffffffffffffffff8211171562000d7e5762000d7d62000d22565b5b80604052505050565b600062000d9362000c7f565b905062000da1828262000d51565b919050565b600067ffffffffffffffff82111562000dc45762000dc362000d22565b5b602082029050602081019050919050565b600080fd5b62000de58162000cb3565b811462000df157600080fd5b50565b60008151905062000e058162000dda565b92915050565b600062000e2262000e1c8462000da6565b62000d87565b9050808382526020820190506020840283018581111562000e485762000e4762000dd5565b5b835b8181101562000e75578062000e60888262000df4565b84526020840193505060208101905062000e4a565b5050509392505050565b600082601f83011262000e975762000e9662000d0c565b5b815162000ea984826020860162000e0b565b91505092915050565b6000806000806080858703121562000ecf5762000ece62000c89565b5b600062000edf8782880162000cf5565b945050602085015167ffffffffffffffff81111562000f035762000f0262000c8e565b5b62000f118782880162000e7f565b935050604062000f248782880162000df4565b925050606062000f378782880162000df4565b91505092959194509250565b600082825260208201905092915050565b7f43616e6e6f7420736574206f776e657220746f207a65726f0000000000000000600082015250565b600062000f8c60188362000f43565b915062000f998262000f54565b602082019050919050565b6000602082019050818103600083015262000fbf8162000f7d565b9050919050565b7f43616e6e6f74207472616e7366657220746f2073656c66000000000000000000600082015250565b600062000ffe60178362000f43565b91506200100b8262000fc6565b602082019050919050565b60006020820190508181036000830152620010318162000fef565b9050919050565b7f4e487b7100000000000000000000000000000000000000000000000000000000600052603260045260246000fd5b620010728162000cb3565b82525050565b60006020820190506200108f600083018462001067565b92915050565b6000604082019050620010ac600083018562001067565b620010bb602083018462001067565b9392505050565b6000819050919050565b620010d781620010c2565b8114620010e357600080fd5b50565b600081519050620010f781620010cc565b92915050565b60006020828403121562001116576200111562000c89565b5b60006200112684828501620010e6565b91505092915050565b7f4e487b7100000000000000000000000000000000000000000000000000000000600052601160045260246000fd5b60006200116b82620010c2565b91506200117883620010c2565b92508282019050808211156200119357620011926200112f565b5b92915050565b620011a481620010c2565b82525050565b6000604082019050620011c1600083018562001067565b620011d0602083018462001199565b9392505050565b60008115159050919050565b620011ee81620011d7565b8114620011fa57600080fd5b50565b6000815190506200120e81620011e3565b92915050565b6000602082840312156200122d576200122c62000c89565b5b60006200123d84828501620011fd565b91505092915050565b7f5361666545524332303a204552433230206f7065726174696f6e20646964206e60008201527f6f74207375636365656400000000000000000000000000000000000000000000602082015250565b6000620012a4602a8362000f43565b9150620012b18262001246565b604082019050919050565b60006020820190508181036000830152620012d78162001295565b9050919050565b6000620012eb82620010c2565b9150620012f883620010c2565b92508282039050818111156200131357620013126200112f565b5b92915050565b7f4e487b7100000000000000000000000000000000000000000000000000000000600052603160045260246000fd5b7f416464726573733a20696e73756666696369656e742062616c616e636520666f60008201527f722063616c6c0000000000000000000000000000000000000000000000000000602082015250565b6000620013a660268362000f43565b9150620013b38262001348565b604082019050919050565b60006020820190508181036000830152620013d98162001397565b9050919050565b600081519050919050565b600081905092915050565b60005b8381101562001416578082015181840152602081019050620013f9565b60008484015250505050565b60006200142f82620013e0565b6200143b8185620013eb565b93506200144d818560208601620013f6565b80840191505092915050565b600062001467828462001422565b915081905092915050565b7f416464726573733a2063616c6c20746f206e6f6e2d636f6e7472616374000000600082015250565b6000620014aa601d8362000f43565b9150620014b78262001472565b602082019050919050565b60006020820190508181036000830152620014dd816200149b565b9050919050565b600081519050919050565b6000620014fc82620014e4565b62001508818562000f43565b93506200151a818560208601620013f6565b620015258162000d11565b840191505092915050565b600060208201905081810360008301526200154c8184620014ef565b905092915050565b60805160a05160c051614d89620015c360003960008181611a8801528181611d2201526127ba015260008181611a6001528181611b140152611f360152600081816106ac015281816106d40152818161074401528181612047015281816126d901526129990152614d896000f3fe608060405234801561001057600080fd5b50600436106101585760003560e01c8063a7cd63b7116100c3578063c75eea9c1161007c578063c75eea9c146103ef578063cf7401f31461041f578063db6327dc1461043b578063dc0bd97114610457578063e0351e1314610475578063f2fde38b1461049357610158565b8063a7cd63b714610319578063af58d59f14610337578063b0f479a114610367578063b794658014610385578063c0d78655146103b5578063c4bffe2b146103d157610158565b806354c8a4f31161011557806354c8a4f31461025957806378a010b21461027557806379ba5097146102915780638926f54f1461029b5780638da5cb5b146102cb5780639a4575b9146102e957610158565b806301ffc9a71461015d5780630a2fd4931461018d578063181f5a77146101bd57806321df0da7146101db578063240028e8146101f95780633907753714610229575b600080fd5b6101776004803603810190610172919061340f565b6104af565b6040516101849190613457565b60405180910390f35b6101a760048036038101906101a291906134b2565b6105d0565b6040516101b4919061356f565b60405180910390f35b6101c561068c565b6040516101d291906135e6565b60405180910390f35b6101e36106a8565b6040516101f09190613687565b60405180910390f35b610213600480360381019061020e91906136e0565b6106d0565b6040516102209190613457565b60405180910390f35b610243600480360381019061023e9190613732565b610728565b60405161025091906137b0565b60405180910390f35b610273600480360381019061026e9190613830565b610868565b005b61028f600480360381019061028a9190613907565b610902565b005b610299610a91565b005b6102b560048036038101906102b091906134b2565b610c26565b6040516102c29190613457565b60405180910390f35b6102d3610c4d565b6040516102e09190613976565b60405180910390f35b61030360048036038101906102fe91906139b0565b610c76565b6040516103109190613a87565b60405180910390f35b610321610d34565b60405161032e9190613b67565b60405180910390f35b610351600480360381019061034c91906134b2565b610d45565b60405161035e9190613c4a565b60405180910390f35b61036f610eb0565b60405161037c9190613976565b60405180910390f35b61039f600480360381019061039a91906134b2565b610eda565b6040516103ac919061356f565b60405180910390f35b6103cf60048036038101906103ca91906136e0565b610f96565b005b6103d96110a9565b6040516103e69190613d23565b60405180910390f35b610409600480360381019061040491906134b2565b611177565b6040516104169190613c4a565b60405180910390f35b61043960048036038101906104349190613e86565b6112e2565b005b61045560048036038101906104509190613f2f565b6112fa565b005b61045f611a5c565b60405161046c9190613976565b60405180910390f35b61047d611a84565b60405161048a9190613457565b60405180910390f35b6104ad60048036038101906104a891906136e0565b611aac565b005b600063aff2afbf60e01b7bffffffffffffffffffffffffffffffffffffffffffffffffffffffff1916827bffffffffffffffffffffffffffffffffffffffffffffffffffffffff1916148061056157507f0e64dd29000000000000000000000000000000000000000000000000000000007bffffffffffffffffffffffffffffffffffffffffffffffffffffffff1916827bffffffffffffffffffffffffffffffffffffffffffffffffffffffff1916145b806105c957507f01ffc9a7000000000000000000000000000000000000000000000000000000007bffffffffffffffffffffffffffffffffffffffffffffffffffffffff1916827bffffffffffffffffffffffffffffffffffffffffffffffffffffffff1916145b9050919050565b6060600760008367ffffffffffffffff1667ffffffffffffffff168152602001908152602001600020600401805461060790613fab565b80601f016020809104026020016040519081016040528092919081815260200182805461063390613fab565b80156106805780601f1061065557610100808354040283529160200191610680565b820191906000526020600020905b81548152906001019060200180831161066357829003601f168201915b50505050509050919050565b604051806060016040528060238152602001614d5a6023913981565b60007f0000000000000000000000000000000000000000000000000000000000000000905090565b60007f000000000000000000000000000000000000000000000000000000000000000073ffffffffffffffffffffffffffffffffffffffff168273ffffffffffffffffffffffffffffffffffffffff16149050919050565b6107306132ac565b6107428261073d906141f7565b611ac0565b7f000000000000000000000000000000000000000000000000000000000000000073ffffffffffffffffffffffffffffffffffffffff166340c10f193384606001356040518363ffffffff1660e01b81526004016107a1929190614219565b600060405180830381600087803b1580156107bb57600080fd5b505af11580156107cf573d6000803e3d6000fd5b505050508160400160208101906107e691906136e0565b73ffffffffffffffffffffffffffffffffffffffff163373ffffffffffffffffffffffffffffffffffffffff167f9d228d69b5fdb8d273a2336f8fb8612d039631024ea9bf09c424a9503aa078f084606001356040516108469190614242565b60405180910390a3604051806020016040528083606001358152509050919050565b610870611c90565b6108fc848480806020026020016040519081016040528093929190818152602001838360200280828437600081840152601f19601f82011690508083019250505050505050838380806020026020016040519081016040528093929190818152602001838360200280828437600081840152601f19601f82011690508083019250505050505050611d20565b50505050565b61090a611c90565b61091383610c26565b61095457826040517f1e670e4b00000000000000000000000000000000000000000000000000000000815260040161094b919061426c565b60405180910390fd5b6000600760008567ffffffffffffffff1667ffffffffffffffff168152602001908152602001600020600401805461098b90613fab565b80601f01602080910402602001604051908101604052809291908181526020018280546109b790613fab565b8015610a045780601f106109d957610100808354040283529160200191610a04565b820191906000526020600020905b8154815290600101906020018083116109e757829003601f168201915b505050505090508282600760008767ffffffffffffffff1667ffffffffffffffff1681526020019081526020016000206004019182610a44929190614434565b508367ffffffffffffffff167fdb4d6220746a38cbc5335f7e108f7de80f482f4d23350253dfd0917df75a14bf828585604051610a8393929190614531565b60405180910390a250505050565b600160009054906101000a900473ffffffffffffffffffffffffffffffffffffffff1673ffffffffffffffffffffffffffffffffffffffff163373ffffffffffffffffffffffffffffffffffffffff1614610b21576040517f08c379a0000000000000000000000000000000000000000000000000000000008152600401610b18906145b6565b60405180910390fd5b60008060009054906101000a900473ffffffffffffffffffffffffffffffffffffffff169050336000806101000a81548173ffffffffffffffffffffffffffffffffffffffff021916908373ffffffffffffffffffffffffffffffffffffffff1602179055506000600160006101000a81548173ffffffffffffffffffffffffffffffffffffffff021916908373ffffffffffffffffffffffffffffffffffffffff1602179055503373ffffffffffffffffffffffffffffffffffffffff168173ffffffffffffffffffffffffffffffffffffffff167f8be0079c531659141344cd1fd0a4f28419497f9722a3daafe3b4186f6b6457e060405160405180910390a350565b6000610c468267ffffffffffffffff166005611ec890919063ffffffff16565b9050919050565b60008060009054906101000a900473ffffffffffffffffffffffffffffffffffffffff16905090565b610c7e6132bf565b610c9082610c8b9061467e565b611ee2565b610c9d8260600135612045565b3373ffffffffffffffffffffffffffffffffffffffff167f696de425f79f4a40bc6d2122ca50507f0efbeabbff86a84871b7196ab8ea8df78360600135604051610ce79190614242565b60405180910390a26040518060400160405280610d15846020016020810190610d1091906134b2565b610eda565b8152602001604051806020016040528060008152508152509050919050565b6060610d4060026120d5565b905090565b610d4d6132d9565b610ea9600760008467ffffffffffffffff1667ffffffffffffffff1681526020019081526020016000206002016040518060a00160405290816000820160009054906101000a90046fffffffffffffffffffffffffffffffff166fffffffffffffffffffffffffffffffff166fffffffffffffffffffffffffffffffff1681526020016000820160109054906101000a900463ffffffff1663ffffffff1663ffffffff1681526020016000820160149054906101000a900460ff161515151581526020016001820160009054906101000a90046fffffffffffffffffffffffffffffffff166fffffffffffffffffffffffffffffffff166fffffffffffffffffffffffffffffffff1681526020016001820160109054906101000a90046fffffffffffffffffffffffffffffffff166fffffffffffffffffffffffffffffffff166fffffffffffffffffffffffffffffffff16815250506120f6565b9050919050565b6000600460009054906101000a900473ffffffffffffffffffffffffffffffffffffffff16905090565b6060600760008367ffffffffffffffff1667ffffffffffffffff1681526020019081526020016000206005018054610f1190613fab565b80601f0160208091040260200160405190810160405280929190818152602001828054610f3d90613fab565b8015610f8a5780601f10610f5f57610100808354040283529160200191610f8a565b820191906000526020600020905b815481529060010190602001808311610f6d57829003601f168201915b50505050509050919050565b610f9e611c90565b600073ffffffffffffffffffffffffffffffffffffffff168173ffffffffffffffffffffffffffffffffffffffff1603611004576040517f8579befe00000000000000000000000000000000000000000000000000000000815260040160405180910390fd5b6000600460009054906101000a900473ffffffffffffffffffffffffffffffffffffffff16905081600460006101000a81548173ffffffffffffffffffffffffffffffffffffffff021916908373ffffffffffffffffffffffffffffffffffffffff1602179055507f02dc5c233404867c793b749c6d644beb2277536d18a7e7974d3f238e4c6f1684818360405161109d929190614691565b60405180910390a15050565b606060006110b760056121b0565b90506000815167ffffffffffffffff8111156110d6576110d5613d4a565b5b6040519080825280602002602001820160405280156111045781602001602082028036833780820191505090505b50905060005b825181101561116e57828181518110611126576111256146ba565b5b6020026020010151828281518110611141576111406146ba565b5b602002602001019067ffffffffffffffff16908167ffffffffffffffff168152505080600101905061110a565b50809250505090565b61117f6132d9565b6112db600760008467ffffffffffffffff1667ffffffffffffffff1681526020019081526020016000206000016040518060a00160405290816000820160009054906101000a90046fffffffffffffffffffffffffffffffff166fffffffffffffffffffffffffffffffff166fffffffffffffffffffffffffffffffff1681526020016000820160109054906101000a900463ffffffff1663ffffffff1663ffffffff1681526020016000820160149054906101000a900460ff161515151581526020016001820160009054906101000a90046fffffffffffffffffffffffffffffffff166fffffffffffffffffffffffffffffffff166fffffffffffffffffffffffffffffffff1681526020016001820160109054906101000a90046fffffffffffffffffffffffffffffffff166fffffffffffffffffffffffffffffffff166fffffffffffffffffffffffffffffffff16815250506120f6565b9050919050565b6112ea611c90565b6112f58383836121d1565b505050565b611302611c90565b60005b82829050811015611a57576000838383818110611325576113246146ba565b5b905060200281019061133791906146ee565b611340906147f0565b905061135581608001518260200151156122e9565b6113688160a001518260200151156122e9565b80602001511561182457611394816000015167ffffffffffffffff16600561244790919063ffffffff16565b6113d95780600001516040517f1d5ad3c50000000000000000000000000000000000000000000000000000000081526004016113d0919061426c565b60405180910390fd5b600081604001515114806113f257506000816060015151145b15611429576040517f8579befe00000000000000000000000000000000000000000000000000000000815260040160405180910390fd5b60405180608001604052806040518060a001604052808460800151602001516fffffffffffffffffffffffffffffffff1681526020014263ffffffff168152602001846080015160000151151581526020018460800151602001516fffffffffffffffffffffffffffffffff1681526020018460800151604001516fffffffffffffffffffffffffffffffff1681525081526020016040518060a001604052808460a00151602001516fffffffffffffffffffffffffffffffff1681526020014263ffffffff1681526020018460a0015160000151151581526020018460a00151602001516fffffffffffffffffffffffffffffffff1681526020018460a00151604001516fffffffffffffffffffffffffffffffff16815250815260200182604001518152602001826060015181525060076000836000015167ffffffffffffffff1667ffffffffffffffff16815260200190815260200160002060008201518160000160008201518160000160006101000a8154816fffffffffffffffffffffffffffffffff02191690836fffffffffffffffffffffffffffffffff16021790555060208201518160000160106101000a81548163ffffffff021916908363ffffffff16021790555060408201518160000160146101000a81548160ff02191690831515021790555060608201518160010160006101000a8154816fffffffffffffffffffffffffffffffff02191690836fffffffffffffffffffffffffffffffff16021790555060808201518160010160106101000a8154816fffffffffffffffffffffffffffffffff02191690836fffffffffffffffffffffffffffffffff160217905550505060208201518160020160008201518160000160006101000a8154816fffffffffffffffffffffffffffffffff02191690836fffffffffffffffffffffffffffffffff16021790555060208201518160000160106101000a81548163ffffffff021916908363ffffffff16021790555060408201518160000160146101000a81548160ff02191690831515021790555060608201518160010160006101000a8154816fffffffffffffffffffffffffffffffff02191690836fffffffffffffffffffffffffffffffff16021790555060808201518160010160106101000a8154816fffffffffffffffffffffffffffffffff02191690836fffffffffffffffffffffffffffffffff160217905550505060408201518160040190816117b89190614803565b5060608201518160050190816117ce9190614803565b509050507f8d340f17e19058004c20453540862a9c62778504476f6756755cb33bcd6c38c28160000151826060015183608001518460a001516040516118179493929190614917565b60405180910390a1611a4b565b611846816000015167ffffffffffffffff16600561246190919063ffffffff16565b61188b5780600001516040517f1e670e4b000000000000000000000000000000000000000000000000000000008152600401611882919061426c565b60405180910390fd5b60076000826000015167ffffffffffffffff1667ffffffffffffffff1681526020019081526020016000206000808201600080820160006101000a8154906fffffffffffffffffffffffffffffffff02191690556000820160106101000a81549063ffffffff02191690556000820160146101000a81549060ff02191690556001820160006101000a8154906fffffffffffffffffffffffffffffffff02191690556001820160106101000a8154906fffffffffffffffffffffffffffffffff0219169055505060028201600080820160006101000a8154906fffffffffffffffffffffffffffffffff02191690556000820160106101000a81549063ffffffff02191690556000820160146101000a81549060ff02191690556001820160006101000a8154906fffffffffffffffffffffffffffffffff02191690556001820160106101000a8154906fffffffffffffffffffffffffffffffff021916905550506004820160006119fd9190613346565b600582016000611a0d9190613346565b50507f5204aec90a3c794d8e90fded8b46ae9c7c552803e7e832e0c1d358396d8599168160000151604051611a42919061426c565b60405180910390a15b50806001019050611305565b505050565b60007f0000000000000000000000000000000000000000000000000000000000000000905090565b60007f0000000000000000000000000000000000000000000000000000000000000000905090565b611ab4611c90565b611abd8161247b565b50565b611acd81608001516106d0565b611b125780608001516040517f961c9a4f000000000000000000000000000000000000000000000000000000008152600401611b099190613976565b60405180910390fd5b7f000000000000000000000000000000000000000000000000000000000000000073ffffffffffffffffffffffffffffffffffffffff16632cbc26bb826020015167ffffffffffffffff1660801b6040518263ffffffff1660e01b8152600401611b7c919061499f565b602060405180830381865afa158015611b99573d6000803e3d6000fd5b505050506040513d601f19601f82011682018060405250810190611bbd91906149cf565b15611bf4576040517f53ad11d800000000000000000000000000000000000000000000000000000000815260040160405180910390fd5b611c0181602001516125a7565b6000611c1082602001516105d0565b9050600081511480611c34575080805190602001208260a001518051906020012014155b15611c7a578160a001516040517f24eb47e5000000000000000000000000000000000000000000000000000000008152600401611c71919061356f565b60405180910390fd5b611c8c826020015183606001516126d3565b5050565b60008054906101000a900473ffffffffffffffffffffffffffffffffffffffff1673ffffffffffffffffffffffffffffffffffffffff163373ffffffffffffffffffffffffffffffffffffffff1614611d1e576040517f08c379a0000000000000000000000000000000000000000000000000000000008152600401611d1590614a48565b60405180910390fd5b565b7f0000000000000000000000000000000000000000000000000000000000000000611d77576040517f35f4a7b300000000000000000000000000000000000000000000000000000000815260040160405180910390fd5b60005b8251811015611dff576000838281518110611d9857611d976146ba565b5b60200260200101519050611db681600261273590919063ffffffff16565b15611df3577f800671136ab6cfee9fbe5ed1fb7ca417811aca3cf864800d127b927adedf756681604051611dea9190613976565b60405180910390a15b50806001019050611d7a565b5060005b8151811015611ec3576000828281518110611e2157611e206146ba565b5b60200260200101519050600073ffffffffffffffffffffffffffffffffffffffff168173ffffffffffffffffffffffffffffffffffffffff1603611e655750611eb8565b611e7981600261276590919063ffffffff16565b15611eb6577f2640d4d76caf8bf478aabfa982fa4e1c4eb71a37f93cd15e80dbc657911546d881604051611ead9190613976565b60405180910390a15b505b806001019050611e03565b505050565b6000611eda836000018360001b612795565b905092915050565b611eef81608001516106d0565b611f345780608001516040517f961c9a4f000000000000000000000000000000000000000000000000000000008152600401611f2b9190613976565b60405180910390fd5b7f000000000000000000000000000000000000000000000000000000000000000073ffffffffffffffffffffffffffffffffffffffff16632cbc26bb826020015167ffffffffffffffff1660801b6040518263ffffffff1660e01b8152600401611f9e919061499f565b602060405180830381865afa158015611fbb573d6000803e3d6000fd5b505050506040513d601f19601f82011682018060405250810190611fdf91906149cf565b15612016576040517f53ad11d800000000000000000000000000000000000000000000000000000000815260040160405180910390fd5b61202381604001516127b8565b612030816020015161283b565b61204281602001518260600151612993565b50565b7f000000000000000000000000000000000000000000000000000000000000000073ffffffffffffffffffffffffffffffffffffffff16639dc29fac30836040518363ffffffff1660e01b81526004016120a0929190614219565b600060405180830381600087803b1580156120ba57600080fd5b505af11580156120ce573d6000803e3d6000fd5b5050505050565b606060006120e5836000016129f5565b905060608190508092505050919050565b6120fe6132d9565b61216182606001516fffffffffffffffffffffffffffffffff1683600001516fffffffffffffffffffffffffffffffff16846020015163ffffffff16426121459190614a97565b85608001516fffffffffffffffffffffffffffffffff16612a51565b82600001906fffffffffffffffffffffffffffffffff1690816fffffffffffffffffffffffffffffffff168152505042826020019063ffffffff16908163ffffffff1681525050819050919050565b606060006121c0836000016129f5565b905060608190508092505050919050565b6121da83610c26565b61221b57826040517f1e670e4b000000000000000000000000000000000000000000000000000000008152600401612212919061426c565b60405180910390fd5b6122268260006122e9565b61226282600760008667ffffffffffffffff1667ffffffffffffffff168152602001908152602001600020600001612a7d90919063ffffffff16565b61226d8160006122e9565b6122a981600760008667ffffffffffffffff1667ffffffffffffffff168152602001908152602001600020600201612a7d90919063ffffffff16565b7f0350d63aa5f270e01729d00d627eeb8f3429772b1818c016c66a588a864f912b8383836040516122dc93929190614acb565b60405180910390a1505050565b8160000151156123c35781602001516fffffffffffffffffffffffffffffffff1682604001516fffffffffffffffffffffffffffffffff161015806123445750600082604001516fffffffffffffffffffffffffffffffff16145b1561238657816040517f8020d12400000000000000000000000000000000000000000000000000000000815260040161237d9190614b02565b60405180910390fd5b80156123be576040517f433fc33d00000000000000000000000000000000000000000000000000000000815260040160405180910390fd5b612443565b600082604001516fffffffffffffffffffffffffffffffff161415806124005750600082602001516fffffffffffffffffffffffffffffffff1614155b1561244257816040517fd68af9cc0000000000000000000000000000000000000000000000000000000081526004016124399190614b02565b60405180910390fd5b5b5050565b6000612459836000018360001b612d15565b905092915050565b6000612473836000018360001b612d85565b905092915050565b3373ffffffffffffffffffffffffffffffffffffffff168173ffffffffffffffffffffffffffffffffffffffff16036124e9576040517f08c379a00000000000000000000000000000000000000000000000000000000081526004016124e090614b69565b60405180910390fd5b80600160006101000a81548173ffffffffffffffffffffffffffffffffffffffff021916908373ffffffffffffffffffffffffffffffffffffffff1602179055508073ffffffffffffffffffffffffffffffffffffffff1660008054906101000a900473ffffffffffffffffffffffffffffffffffffffff1673ffffffffffffffffffffffffffffffffffffffff167fed8889f560326eb138920d842192f0eb3dd22b4f139c87a2c57538e05bae127860405160405180910390a350565b6125b081610c26565b6125f157806040517fa9902c7e0000000000000000000000000000000000000000000000000000000081526004016125e8919061426c565b60405180910390fd5b600460009054906101000a900473ffffffffffffffffffffffffffffffffffffffff1673ffffffffffffffffffffffffffffffffffffffff166383826b2b82336040518363ffffffff1660e01b815260040161264e929190614b89565b602060405180830381865afa15801561266b573d6000803e3d6000fd5b505050506040513d601f19601f8201168201806040525081019061268f91906149cf565b6126d057336040517f728fe07b0000000000000000000000000000000000000000000000000000000081526004016126c79190613976565b60405180910390fd5b50565b612731817f0000000000000000000000000000000000000000000000000000000000000000600760008667ffffffffffffffff1667ffffffffffffffff168152602001908152602001600020600201612e999092919063ffffffff16565b5050565b600061275d836000018373ffffffffffffffffffffffffffffffffffffffff1660001b612d85565b905092915050565b600061278d836000018373ffffffffffffffffffffffffffffffffffffffff1660001b612d15565b905092915050565b600080836001016000848152602001908152602001600020541415905092915050565b7f000000000000000000000000000000000000000000000000000000000000000080156127f657506127f481600261326390919063ffffffff16565b155b1561283857806040517fd0d2597600000000000000000000000000000000000000000000000000000000815260040161282f9190613976565b60405180910390fd5b50565b61284481610c26565b61288557806040517fa9902c7e00000000000000000000000000000000000000000000000000000000815260040161287c919061426c565b60405180910390fd5b600460009054906101000a900473ffffffffffffffffffffffffffffffffffffffff1673ffffffffffffffffffffffffffffffffffffffff1663a8d87a3b826040518263ffffffff1660e01b81526004016128e0919061426c565b602060405180830381865afa1580156128fd573d6000803e3d6000fd5b505050506040513d601f19601f820116820180604052508101906129219190614bc7565b73ffffffffffffffffffffffffffffffffffffffff163373ffffffffffffffffffffffffffffffffffffffff161461299057336040517f728fe07b0000000000000000000000000000000000000000000000000000000081526004016129879190613976565b60405180910390fd5b50565b6129f1817f0000000000000000000000000000000000000000000000000000000000000000600760008667ffffffffffffffff1667ffffffffffffffff168152602001908152602001600020600001612e999092919063ffffffff16565b5050565b606081600001805480602002602001604051908101604052809291908181526020018280548015612a4557602002820191906000526020600020905b815481526020019060010190808311612a31575b50505050509050919050565b6000612a73858385612a639190614bf4565b86612a6e9190614c36565b613293565b9050949350505050565b60008260000160109054906101000a900463ffffffff1663ffffffff1642612aa59190614a97565b905060008114612baf57612b518360010160009054906101000a90046fffffffffffffffffffffffffffffffff166fffffffffffffffffffffffffffffffff168460000160009054906101000a90046fffffffffffffffffffffffffffffffff166fffffffffffffffffffffffffffffffff16838660010160109054906101000a90046fffffffffffffffffffffffffffffffff166fffffffffffffffffffffffffffffffff16612a51565b8360000160006101000a8154816fffffffffffffffffffffffffffffffff02191690836fffffffffffffffffffffffffffffffff160217905550428360000160106101000a81548163ffffffff021916908363ffffffff1602179055505b612c0182602001516fffffffffffffffffffffffffffffffff168460000160009054906101000a90046fffffffffffffffffffffffffffffffff166fffffffffffffffffffffffffffffffff16613293565b8360000160006101000a8154816fffffffffffffffffffffffffffffffff02191690836fffffffffffffffffffffffffffffffff16021790555081600001518360000160146101000a81548160ff02191690831515021790555081602001518360010160006101000a8154816fffffffffffffffffffffffffffffffff02191690836fffffffffffffffffffffffffffffffff16021790555081604001518360010160106101000a8154816fffffffffffffffffffffffffffffffff02191690836fffffffffffffffffffffffffffffffff1602179055507f9ea3374b67bf275e6bb9c8ae68f9cae023e1c528b4b27e092f0bb209d3531c1982604051612d089190614b02565b60405180910390a1505050565b6000612d218383612795565b612d7a578260000182908060018154018082558091505060019003906000526020600020016000909190919091505582600001805490508360010160008481526020019081526020016000208190555060019050612d7f565b600090505b92915050565b60008083600101600084815260200190815260200160002054905060008114612e8d576000600182612db79190614a97565b9050600060018660000180549050612dcf9190614a97565b9050818114612e3e576000866000018281548110612df057612def6146ba565b5b9060005260206000200154905080876000018481548110612e1457612e136146ba565b5b90600052602060002001819055508387600101600083815260200190815260200160002081905550505b85600001805480612e5257612e51614c6a565b5b600190038181906000526020600020016000905590558560010160008681526020019081526020016000206000905560019350505050612e93565b60009150505b92915050565b8260000160149054906101000a900460ff161580612eb75750600082145b61325e5760008360000160009054906101000a90046fffffffffffffffffffffffffffffffff166fffffffffffffffffffffffffffffffff16905060008460010160009054906101000a90046fffffffffffffffffffffffffffffffff166fffffffffffffffffffffffffffffffff16905060008560000160109054906101000a900463ffffffff1663ffffffff1642612f519190614a97565b905060008114612ff95781831115612f95576040517f9725942a00000000000000000000000000000000000000000000000000000000815260040160405180910390fd5b612fd38284838960010160109054906101000a90046fffffffffffffffffffffffffffffffff166fffffffffffffffffffffffffffffffff16612a51565b9250428660000160106101000a81548163ffffffff021916908363ffffffff1602179055505b848210156130b557600073ffffffffffffffffffffffffffffffffffffffff168473ffffffffffffffffffffffffffffffffffffffff16036130745781856040517ff94ebcd100000000000000000000000000000000000000000000000000000000815260040161306b929190614c99565b60405180910390fd5b8185856040517f1a76572a0000000000000000000000000000000000000000000000000000000081526004016130ac93929190614cc2565b60405180910390fd5b848310156131da5760008660010160109054906101000a90046fffffffffffffffffffffffffffffffff166fffffffffffffffffffffffffffffffff1690506000816001836131049190614a97565b86896131109190614a97565b61311a9190614c36565b6131249190614d28565b9050600073ffffffffffffffffffffffffffffffffffffffff168673ffffffffffffffffffffffffffffffffffffffff16036131995780856040517f15279c08000000000000000000000000000000000000000000000000000000008152600401613190929190614c99565b60405180910390fd5b8085876040517fd0c8d23a0000000000000000000000000000000000000000000000000000000081526004016131d193929190614cc2565b60405180910390fd5b84836131e69190614a97565b9250828660000160006101000a8154816fffffffffffffffffffffffffffffffff02191690836fffffffffffffffffffffffffffffffff1602179055507f1871cdf8010e63f2eb8384381a68dfa7416dc571a5517e66e88b2d2d0c0a690a856040516132529190614242565b60405180910390a15050505b505050565b600061328b836000018373ffffffffffffffffffffffffffffffffffffffff1660001b612795565b905092915050565b60008183106132a257816132a4565b825b905092915050565b6040518060200160405280600081525090565b604051806040016040528060608152602001606081525090565b6040518060a0016040528060006fffffffffffffffffffffffffffffffff168152602001600063ffffffff16815260200160001515815260200160006fffffffffffffffffffffffffffffffff16815260200160006fffffffffffffffffffffffffffffffff1681525090565b50805461335290613fab565b6000825580601f106133645750613383565b601f0160209004906000526020600020908101906133829190613386565b5b50565b5b8082111561339f576000816000905550600101613387565b5090565b6000604051905090565b600080fd5b600080fd5b60007fffffffff0000000000000000000000000000000000000000000000000000000082169050919050565b6133ec816133b7565b81146133f757600080fd5b50565b600081359050613409816133e3565b92915050565b600060208284031215613425576134246133ad565b5b6000613433848285016133fa565b91505092915050565b60008115159050919050565b6134518161343c565b82525050565b600060208201905061346c6000830184613448565b92915050565b600067ffffffffffffffff82169050919050565b61348f81613472565b811461349a57600080fd5b50565b6000813590506134ac81613486565b92915050565b6000602082840312156134c8576134c76133ad565b5b60006134d68482850161349d565b91505092915050565b600081519050919050565b600082825260208201905092915050565b60005b838110156135195780820151818401526020810190506134fe565b60008484015250505050565b6000601f19601f8301169050919050565b6000613541826134df565b61354b81856134ea565b935061355b8185602086016134fb565b61356481613525565b840191505092915050565b600060208201905081810360008301526135898184613536565b905092915050565b600081519050919050565b600082825260208201905092915050565b60006135b882613591565b6135c2818561359c565b93506135d28185602086016134fb565b6135db81613525565b840191505092915050565b6000602082019050818103600083015261360081846135ad565b905092915050565b600073ffffffffffffffffffffffffffffffffffffffff82169050919050565b6000819050919050565b600061364d61364861364384613608565b613628565b613608565b9050919050565b600061365f82613632565b9050919050565b600061367182613654565b9050919050565b61368181613666565b82525050565b600060208201905061369c6000830184613678565b92915050565b60006136ad82613608565b9050919050565b6136bd816136a2565b81146136c857600080fd5b50565b6000813590506136da816136b4565b92915050565b6000602082840312156136f6576136f56133ad565b5b6000613704848285016136cb565b91505092915050565b600080fd5b600061010082840312156137295761372861370d565b5b81905092915050565b600060208284031215613748576137476133ad565b5b600082013567ffffffffffffffff811115613766576137656133b2565b5b61377284828501613712565b91505092915050565b6000819050919050565b61378e8161377b565b82525050565b6020820160008201516137aa6000850182613785565b50505050565b60006020820190506137c56000830184613794565b92915050565b600080fd5b600080fd5b600080fd5b60008083601f8401126137f0576137ef6137cb565b5b8235905067ffffffffffffffff81111561380d5761380c6137d0565b5b602083019150836020820283011115613829576138286137d5565b5b9250929050565b6000806000806040858703121561384a576138496133ad565b5b600085013567ffffffffffffffff811115613868576138676133b2565b5b613874878288016137da565b9450945050602085013567ffffffffffffffff811115613897576138966133b2565b5b6138a3878288016137da565b925092505092959194509250565b60008083601f8401126138c7576138c66137cb565b5b8235905067ffffffffffffffff8111156138e4576138e36137d0565b5b602083019150836001820283011115613900576138ff6137d5565b5b9250929050565b6000806000604084860312156139205761391f6133ad565b5b600061392e8682870161349d565b935050602084013567ffffffffffffffff81111561394f5761394e6133b2565b5b61395b868287016138b1565b92509250509250925092565b613970816136a2565b82525050565b600060208201905061398b6000830184613967565b92915050565b600060a082840312156139a7576139a661370d565b5b81905092915050565b6000602082840312156139c6576139c56133ad565b5b600082013567ffffffffffffffff8111156139e4576139e36133b2565b5b6139f084828501613991565b91505092915050565b600082825260208201905092915050565b6000613a15826134df565b613a1f81856139f9565b9350613a2f8185602086016134fb565b613a3881613525565b840191505092915050565b60006040830160008301518482036000860152613a608282613a0a565b91505060208301518482036020860152613a7a8282613a0a565b9150508091505092915050565b60006020820190508181036000830152613aa18184613a43565b905092915050565b600081519050919050565b600082825260208201905092915050565b6000819050602082019050919050565b613ade816136a2565b82525050565b6000613af08383613ad5565b60208301905092915050565b6000602082019050919050565b6000613b1482613aa9565b613b1e8185613ab4565b9350613b2983613ac5565b8060005b83811015613b5a578151613b418882613ae4565b9750613b4c83613afc565b925050600181019050613b2d565b5085935050505092915050565b60006020820190508181036000830152613b818184613b09565b905092915050565b60006fffffffffffffffffffffffffffffffff82169050919050565b613bae81613b89565b82525050565b600063ffffffff82169050919050565b613bcd81613bb4565b82525050565b613bdc8161343c565b82525050565b60a082016000820151613bf86000850182613ba5565b506020820151613c0b6020850182613bc4565b506040820151613c1e6040850182613bd3565b506060820151613c316060850182613ba5565b506080820151613c446080850182613ba5565b50505050565b600060a082019050613c5f6000830184613be2565b92915050565b600081519050919050565b600082825260208201905092915050565b6000819050602082019050919050565b613c9a81613472565b82525050565b6000613cac8383613c91565b60208301905092915050565b6000602082019050919050565b6000613cd082613c65565b613cda8185613c70565b9350613ce583613c81565b8060005b83811015613d16578151613cfd8882613ca0565b9750613d0883613cb8565b925050600181019050613ce9565b5085935050505092915050565b60006020820190508181036000830152613d3d8184613cc5565b905092915050565b600080fd5b7f4e487b7100000000000000000000000000000000000000000000000000000000600052604160045260246000fd5b613d8282613525565b810181811067ffffffffffffffff82111715613da157613da0613d4a565b5b80604052505050565b6000613db46133a3565b9050613dc08282613d79565b919050565b600080fd5b613dd38161343c565b8114613dde57600080fd5b50565b600081359050613df081613dca565b92915050565b613dff81613b89565b8114613e0a57600080fd5b50565b600081359050613e1c81613df6565b92915050565b600060608284031215613e3857613e37613d45565b5b613e426060613daa565b90506000613e5284828501613de1565b6000830152506020613e6684828501613e0d565b6020830152506040613e7a84828501613e0d565b60408301525092915050565b600080600060e08486031215613e9f57613e9e6133ad565b5b6000613ead8682870161349d565b9350506020613ebe86828701613e22565b9250506080613ecf86828701613e22565b9150509250925092565b60008083601f840112613eef57613eee6137cb565b5b8235905067ffffffffffffffff811115613f0c57613f0b6137d0565b5b602083019150836020820283011115613f2857613f276137d5565b5b9250929050565b60008060208385031215613f4657613f456133ad565b5b600083013567ffffffffffffffff811115613f6457613f636133b2565b5b613f7085828601613ed9565b92509250509250929050565b7f4e487b7100000000000000000000000000000000000000000000000000000000600052602260045260246000fd5b60006002820490506001821680613fc357607f821691505b602082108103613fd657613fd5613f7c565b5b50919050565b600080fd5b600067ffffffffffffffff821115613ffc57613ffb613d4a565b5b61400582613525565b9050602081019050919050565b82818337600083830152505050565b600061403461402f84613fe1565b613daa565b9050828152602081018484840111156140505761404f613fdc565b5b61405b848285614012565b509392505050565b600082601f830112614078576140776137cb565b5b8135614088848260208601614021565b91505092915050565b61409a8161377b565b81146140a557600080fd5b50565b6000813590506140b781614091565b92915050565b600061010082840312156140d4576140d3613d45565b5b6140df610100613daa565b9050600082013567ffffffffffffffff8111156140ff576140fe613dc5565b5b61410b84828501614063565b600083015250602061411f8482850161349d565b6020830152506040614133848285016136cb565b6040830152506060614147848285016140a8565b606083015250608061415b848285016136cb565b60808301525060a082013567ffffffffffffffff81111561417f5761417e613dc5565b5b61418b84828501614063565b60a08301525060c082013567ffffffffffffffff8111156141af576141ae613dc5565b5b6141bb84828501614063565b60c08301525060e082013567ffffffffffffffff8111156141df576141de613dc5565b5b6141eb84828501614063565b60e08301525092915050565b600061420336836140bd565b9050919050565b6142138161377b565b82525050565b600060408201905061422e6000830185613967565b61423b602083018461420a565b9392505050565b6000602082019050614257600083018461420a565b92915050565b61426681613472565b82525050565b6000602082019050614281600083018461425d565b92915050565b600082905092915050565b60008190508160005260206000209050919050565b60006020601f8301049050919050565b600082821b905092915050565b6000600883026142f47fffffffffffffffffffffffffffffffffffffffffffffffffffffffffffffffff826142b7565b6142fe86836142b7565b95508019841693508086168417925050509392505050565b600061433161432c6143278461377b565b613628565b61377b565b9050919050565b6000819050919050565b61434b83614316565b61435f61435782614338565b8484546142c4565b825550505050565b600090565b614374614367565b61437f818484614342565b505050565b5b818110156143a35761439860008261436c565b600181019050614385565b5050565b601f8211156143e8576143b981614292565b6143c2846142a7565b810160208510156143d1578190505b6143e56143dd856142a7565b830182614384565b50505b505050565b600082821c905092915050565b600061440b600019846008026143ed565b1980831691505092915050565b600061442483836143fa565b9150826002028217905092915050565b61443e8383614287565b67ffffffffffffffff81111561445757614456613d4a565b5b6144618254613fab565b61446c8282856143a7565b6000601f83116001811461449b5760008415614489578287013590505b6144938582614418565b8655506144fb565b601f1984166144a986614292565b60005b828110156144d1578489013582556001820191506020850194506020810190506144ac565b868310156144ee57848901356144ea601f8916826143fa565b8355505b6001600288020188555050505b50505050505050565b600061451083856134ea565b935061451d838584614012565b61452683613525565b840190509392505050565b6000604082019050818103600083015261454b8186613536565b90508181036020830152614560818486614504565b9050949350505050565b7f4d7573742062652070726f706f736564206f776e657200000000000000000000600082015250565b60006145a060168361359c565b91506145ab8261456a565b602082019050919050565b600060208201905081810360008301526145cf81614593565b9050919050565b600060a082840312156145ec576145eb613d45565b5b6145f660a0613daa565b9050600082013567ffffffffffffffff81111561461657614615613dc5565b5b61462284828501614063565b60008301525060206146368482850161349d565b602083015250604061464a848285016136cb565b604083015250606061465e848285016140a8565b6060830152506080614672848285016136cb565b60808301525092915050565b600061468a36836145d6565b9050919050565b60006040820190506146a66000830185613967565b6146b36020830184613967565b9392505050565b7f4e487b7100000000000000000000000000000000000000000000000000000000600052603260045260246000fd5b600080fd5b6000823560016101400383360303811261470b5761470a6146e9565b5b80830191505092915050565b6000610140828403121561472e5761472d613d45565b5b61473860c0613daa565b905060006147488482850161349d565b600083015250602061475c84828501613de1565b602083015250604082013567ffffffffffffffff8111156147805761477f613dc5565b5b61478c84828501614063565b604083015250606082013567ffffffffffffffff8111156147b0576147af613dc5565b5b6147bc84828501614063565b60608301525060806147d084828501613e22565b60808301525060e06147e484828501613e22565b60a08301525092915050565b60006147fc3683614717565b9050919050565b61480c826134df565b67ffffffffffffffff81111561482557614824613d4a565b5b61482f8254613fab565b61483a8282856143a7565b600060209050601f83116001811461486d576000841561485b578287015190505b6148658582614418565b8655506148cd565b601f19841661487b86614292565b60005b828110156148a35784890151825560018201915060208501945060208101905061487e565b868310156148c057848901516148bc601f8916826143fa565b8355505b6001600288020188555050505b505050505050565b6060820160008201516148eb6000850182613bd3565b5060208201516148fe6020850182613ba5565b5060408201516149116040850182613ba5565b50505050565b60006101008201905061492d600083018761425d565b818103602083015261493f8186613536565b905061494e60408301856148d5565b61495b60a08301846148d5565b95945050505050565b60007fffffffffffffffffffffffffffffffff0000000000000000000000000000000082169050919050565b61499981614964565b82525050565b60006020820190506149b46000830184614990565b92915050565b6000815190506149c981613dca565b92915050565b6000602082840312156149e5576149e46133ad565b5b60006149f3848285016149ba565b91505092915050565b7f4f6e6c792063616c6c61626c65206279206f776e657200000000000000000000600082015250565b6000614a3260168361359c565b9150614a3d826149fc565b602082019050919050565b60006020820190508181036000830152614a6181614a25565b9050919050565b7f4e487b7100000000000000000000000000000000000000000000000000000000600052601160045260246000fd5b6000614aa28261377b565b9150614aad8361377b565b9250828203905081811115614ac557614ac4614a68565b5b92915050565b600060e082019050614ae0600083018661425d565b614aed60208301856148d5565b614afa60808301846148d5565b949350505050565b6000606082019050614b1760008301846148d5565b92915050565b7f43616e6e6f74207472616e7366657220746f2073656c66000000000000000000600082015250565b6000614b5360178361359c565b9150614b5e82614b1d565b602082019050919050565b60006020820190508181036000830152614b8281614b46565b9050919050565b6000604082019050614b9e600083018561425d565b614bab6020830184613967565b9392505050565b600081519050614bc1816136b4565b92915050565b600060208284031215614bdd57614bdc6133ad565b5b6000614beb84828501614bb2565b91505092915050565b6000614bff8261377b565b9150614c0a8361377b565b9250828202614c188161377b565b91508282048414831517614c2f57614c2e614a68565b5b5092915050565b6000614c418261377b565b9150614c4c8361377b565b9250828201905080821115614c6457614c63614a68565b5b92915050565b7f4e487b7100000000000000000000000000000000000000000000000000000000600052603160045260246000fd5b6000604082019050614cae600083018561420a565b614cbb602083018461420a565b9392505050565b6000606082019050614cd7600083018661420a565b614ce4602083018561420a565b614cf16040830184613967565b949350505050565b7f4e487b7100000000000000000000000000000000000000000000000000000000600052601260045260246000fd5b6000614d338261377b565b9150614d3e8361377b565b925082614d4e57614d4d614cf9565b5b82820490509291505056fe4275726e5769746846726f6d4d696e74546f6b656e506f6f6c20312e352e302d646576a164736f6c6343000818000a","linkReferences":{}},"methodIdentifiers":{"acceptOwnership()":"79ba5097","applyAllowListUpdates(address[],address[])":"54c8a4f3","applyChainUpdates((uint64,bool,bytes,bytes,(bool,uint128,uint128),(bool,uint128,uint128))[])":"db6327dc","getAllowList()":"a7cd63b7","getAllowListEnabled()":"e0351e13","getCurrentInboundRateLimiterState(uint64)":"af58d59f","getCurrentOutboundRateLimiterState(uint64)":"c75eea9c","getRemotePool(uint64)":"0a2fd493","getRemoteToken(uint64)":"b7946580","getRmnProxy()":"dc0bd971","getRouter()":"b0f479a1","getSupportedChains()":"c4bffe2b","getToken()":"21df0da7","isSupportedChain(uint64)":"8926f54f","isSupportedToken(address)":"240028e8","lockOrBurn((bytes,uint64,address,uint256,address))":"9a4575b9","owner()":"8da5cb5b","releaseOrMint((bytes,uint64,address,uint256,address,bytes,bytes,bytes))":"39077537","setChainRateLimiterConfig(uint64,(bool,uint128,uint128),(bool,uint128,uint128))":"cf7401f3","setRemotePool(uint64,bytes)":"78a010b2","setRouter(address)":"c0d78655","supportsInterface(bytes4)":"01ffc9a7","transferOwnership(address)":"f2fde38b","typeAndVersion()":"181f5a77"},"id":44}