{"abi":[{"type":"constructor","inputs":[{"name":"router","type":"address","internalType":"address"},{"name":"destChainSelector","type":"uint64","internalType":"uint64"},{"name":"sourceToken","type":"address","internalType":"contract IERC20"},{"name":"feeToken","type":"address","internalType":"contract IERC20"},{"name":"receiver","type":"address","internalType":"address"}],"stateMutability":"nonpayable"},{"type":"function","name":"getSequence","inputs":[],"outputs":[{"name":"","type":"uint256","internalType":"uint256"}],"stateMutability":"view"},{"type":"function","name":"send","inputs":[{"name":"amount","type":"uint256","internalType":"uint256"}],"outputs":[],"stateMutability":"nonpayable"}],"bytecode":{"object":"0x61012060405260016000553480156200001757600080fd5b5060405162000d6438038062000d6483398181016040528101906200003d919062000371565b8473ffffffffffffffffffffffffffffffffffffffff1660808173ffffffffffffffffffffffffffffffffffffffff16815250508367ffffffffffffffff1660a08167ffffffffffffffff16815250508273ffffffffffffffffffffffffffffffffffffffff1660c08173ffffffffffffffffffffffffffffffffffffffff16815250508173ffffffffffffffffffffffffffffffffffffffff1660e08173ffffffffffffffffffffffffffffffffffffffff16815250508073ffffffffffffffffffffffffffffffffffffffff166101008173ffffffffffffffffffffffffffffffffffffffff16815250508273ffffffffffffffffffffffffffffffffffffffff1663095ea7b3867fffffffffffffffffffffffffffffffffffffffffffffffffffffffffffffffff6040518363ffffffff1660e01b81526004016200018792919062000461565b6020604051808303816000875af1158015620001a7573d6000803e3d6000fd5b505050506040513d601f19601f82011682018060405250810190620001cd9190620004cb565b508173ffffffffffffffffffffffffffffffffffffffff1663095ea7b3867fffffffffffffffffffffffffffffffffffffffffffffffffffffffffffffffff6040518363ffffffff1660e01b81526004016200022b92919062000461565b6020604051808303816000875af11580156200024b573d6000803e3d6000fd5b505050506040513d601f19601f82011682018060405250810190620002719190620004cb565b505050505050620004fd565b600080fd5b600073ffffffffffffffffffffffffffffffffffffffff82169050919050565b6000620002af8262000282565b9050919050565b620002c181620002a2565b8114620002cd57600080fd5b50565b600081519050620002e181620002b6565b92915050565b600067ffffffffffffffff82169050919050565b6200030681620002e7565b81146200031257600080fd5b50565b6000815190506200032681620002fb565b92915050565b60006200033982620002a2565b9050919050565b6200034b816200032c565b81146200035757600080fd5b50565b6000815190506200036b8162000340565b92915050565b600080600080600060a0868803121562000390576200038f6200027d565b5b6000620003a088828901620002d0565b9550506020620003b38882890162000315565b9450506040620003c6888289016200035a565b9350506060620003d9888289016200035a565b9250506080620003ec88828901620002d0565b9150509295509295909350565b6200040481620002a2565b82525050565b6000819050919050565b6000819050919050565b6000819050919050565b600062000449620004436200043d846200040a565b6200041e565b62000414565b9050919050565b6200045b8162000428565b82525050565b6000604082019050620004786000830185620003f9565b62000487602083018462000450565b9392505050565b60008115159050919050565b620004a5816200048e565b8114620004b157600080fd5b50565b600081519050620004c5816200049a565b92915050565b600060208284031215620004e457620004e36200027d565b5b6000620004f484828501620004b4565b91505092915050565b60805160a05160c05160e0516101005161082362000541600039600061017e015260006101f00152600060d9015260006102940152600061025801526108236000f3fe608060405234801561001057600080fd5b50600436106100365760003560e01c8063334ee98a1461003b578063a52c101e14610059575b600080fd5b610043610075565b6040516100509190610363565b60405180910390f35b610073600480360381019061006e91906103af565b61007e565b005b60008054905090565b6000600167ffffffffffffffff81111561009b5761009a6103dc565b5b6040519080825280602002602001820160405280156100d457816020015b6100c161031a565b8152602001906001900390816100b95790505b5090507f00000000000000000000000000000000000000000000000000000000000000008160008151811061010c5761010b61040b565b5b60200260200101516000019073ffffffffffffffffffffffffffffffffffffffff16908173ffffffffffffffffffffffffffffffffffffffff1681525050818160008151811061015f5761015e61040b565b5b6020026020010151602001818152505060006040518060a001604052807f00000000000000000000000000000000000000000000000000000000000000006040516020016101ad919061047b565b60405160208183030381529060405281526020016000546040516020016101d491906104b7565b60405160208183030381529060405281526020018381526020017f000000000000000000000000000000000000000000000000000000000000000073ffffffffffffffffffffffffffffffffffffffff16815260200160405180602001604052806000815250815250905060008081548092919061025190610501565b91905055507f000000000000000000000000000000000000000000000000000000000000000073ffffffffffffffffffffffffffffffffffffffff166396f4e9f97f0000000000000000000000000000000000000000000000000000000000000000836040518363ffffffff1660e01b81526004016102d1929190610783565b6020604051808303816000875af11580156102f0573d6000803e3d6000fd5b505050506040513d601f19601f8201168201806040525081019061031491906107e9565b50505050565b6040518060400160405280600073ffffffffffffffffffffffffffffffffffffffff168152602001600081525090565b6000819050919050565b61035d8161034a565b82525050565b60006020820190506103786000830184610354565b92915050565b600080fd5b61038c8161034a565b811461039757600080fd5b50565b6000813590506103a981610383565b92915050565b6000602082840312156103c5576103c461037e565b5b60006103d38482850161039a565b91505092915050565b7f4e487b7100000000000000000000000000000000000000000000000000000000600052604160045260246000fd5b7f4e487b7100000000000000000000000000000000000000000000000000000000600052603260045260246000fd5b600073ffffffffffffffffffffffffffffffffffffffff82169050919050565b60006104658261043a565b9050919050565b6104758161045a565b82525050565b6000602082019050610490600083018461046c565b92915050565b6000819050919050565b6104b16104ac8261034a565b610496565b82525050565b60006104c382846104a0565b60208201915081905092915050565b7f4e487b7100000000000000000000000000000000000000000000000000000000600052601160045260246000fd5b600061050c8261034a565b91507fffffffffffffffffffffffffffffffffffffffffffffffffffffffffffffffff820361053e5761053d6104d2565b5b600182019050919050565b600067ffffffffffffffff82169050919050565b61056681610549565b82525050565b600081519050919050565b600082825260208201905092915050565b60005b838110156105a657808201518184015260208101905061058b565b60008484015250505050565b6000601f19601f8301169050919050565b60006105ce8261056c565b6105d88185610577565b93506105e8818560208601610588565b6105f1816105b2565b840191505092915050565b600081519050919050565b600082825260208201905092915050565b6000819050602082019050919050565b6106318161045a565b82525050565b6106408161034a565b82525050565b60408201600082015161065c6000850182610628565b50602082015161066f6020850182610637565b50505050565b60006106818383610646565b60408301905092915050565b6000602082019050919050565b60006106a5826105fc565b6106af8185610607565b93506106ba83610618565b8060005b838110156106eb5781516106d28882610675565b97506106dd8361068d565b9250506001810190506106be565b5085935050505092915050565b600060a083016000830151848203600086015261071582826105c3565b9150506020830151848203602086015261072f82826105c3565b91505060408301518482036040860152610749828261069a565b915050606083015161075e6060860182610628565b506080830151848203608086015261077682826105c3565b9150508091505092915050565b6000604082019050610798600083018561055d565b81810360208301526107aa81846106f8565b90509392505050565b6000819050919050565b6107c6816107b3565b81146107d157600080fd5b50565b6000815190506107e3816107bd565b92915050565b6000602082840312156107ff576107fe61037e565b5b600061080d848285016107d4565b9150509291505056fea164736f6c6343000818000a","linkReferences":{}},"methodIdentifiers":{"getSequence()":"334ee98a","send(uint256)":"a52c101e"},"id":74}