{"abi":[{"type":"constructor","inputs":[{"name":"allowList","type":"address[]","internalType":"address[]"}],"stateMutability":"payable"},{"type":"function","name":"getCreator","inputs":[],"outputs":[{"name":"","type":"address","internalType":"address"}],"stateMutability":"view"},{"type":"function","name":"getTotalAllowedVoters","inputs":[],"outputs":[{"name":"","type":"uint256","internalType":"uint256"}],"stateMutability":"view"},{"type":"function","name":"isActive","inputs":[],"outputs":[{"name":"","type":"bool","internalType":"bool"}],"stateMutability":"view"},{"type":"function","name":"vote","inputs":[{"name":"voteInput","type":"bool","internalType":"bool"}],"outputs":[],"stateMutability":"nonpayable"},{"type":"error","name":"MathOverflowedMulDiv","inputs":[]}],"bytecode":{"object":"0x60806040526040516109d83803806109d88339810160408190526100229161029e565b670de0b6b3a76400003410156100925760405162461bcd60e51b815260206004820152602a60248201527f44503a204d696e696d756d2031206574682070726f706f73616c20726577617260448201526919081c995c5d5a5c995960b21b60648201526084015b60405180910390fd5b805160038110156100e55760405162461bcd60e51b815260206004820152601d60248201527f44503a204d696e696d756d203320766f746572732072657175697265640000006044820152606401610089565b60098111156101365760405162461bcd60e51b815260206004820152601c60248201527f44503a204d6178696d756d203920766f7465727320616c6c6f776564000000006044820152606401610089565b610141600282610362565b60000361019a5760405162461bcd60e51b815260206004820152602160248201527f44503a204f6464206e756d626572206f6620766f7465727320726571756972656044820152601960fa1b6064820152608401610089565b60005b818110156102505760008382815181106101b9576101b9610384565b6020026020010151905060006001600160a01b0316816001600160a01b0316036102255760405162461bcd60e51b815260206004820181905260248201527f44503a2061646472657373283029206e6f7420612076616c696420766f7465726044820152606401610089565b6001600160a01b03166000908152602081905260409020805460ff191660019081179091550161019d565b6002555050600180546001600160a01b0319163317905561039a565b634e487b7160e01b600052604160045260246000fd5b80516001600160a01b038116811461029957600080fd5b919050565b600060208083850312156102b157600080fd5b82516001600160401b03808211156102c857600080fd5b818501915085601f8301126102dc57600080fd5b8151818111156102ee576102ee61026c565b8060051b604051601f19603f830116810181811085821117156103135761031361026c565b60405291825284820192508381018501918883111561033157600080fd5b938501935b828510156103565761034785610282565b84529385019392850192610336565b98975050505050505050565b60008261037f57634e487b7160e01b600052601260045260246000fd5b500690565b634e487b7160e01b600052603260045260246000fd5b61062f806103a96000396000f3fe608060405234801561001057600080fd5b506004361061004c5760003560e01c80630ee2cb101461005157806322f3e2d4146100715780634b9f5c98146100875780639c7d41ee1461009c575b600080fd5b6001546040516001600160a01b0390911681526020015b60405180910390f35b60065460405160ff909116158152602001610068565b61009a6100953660046104ed565b6100ad565b005b600254604051908152602001610068565b60065460ff161561011c5760405162461bcd60e51b815260206004820152602e60248201527f44503a20766f74696e6720686173206265656e20636f6d706c65746564206f6e60448201526d081d1a1a5cc81c1c9bdc1bdcd85b60921b60648201526084015b60405180910390fd5b3360008181526020819052604090205460ff1660011461018d5760405162461bcd60e51b815260206004820152602660248201527f44503a20766f746572206e6f7420616c6c6f776564206f7220616c7265616479604482015265081d9bdd195960d21b6064820152608401610113565b6001600160a01b0381166000908152602081905260408120805460ff191660021790556003805482906101bf90610525565b91829055509050821561021c57600480546001810182556000919091527f8a35acfbc15ff81a39ae7d344fd709f28e8600b4aa8c65c6b64bfe7fe36bd19b0180546001600160a01b0319166001600160a01b038416179055610268565b600580546001810182556000919091527f036b6384b5eca791c62761152d0c79bb0604c104a5fb6f4eb0703f3154bb3db00180546001600160a01b0319166001600160a01b0384161790555b60025460339061027983606461053e565b6102839190610571565b1061029d576006805460ff1916600117905561029d6102a2565b505050565b60045460055460006102b48284610585565b9050478383106102d9576001546102d4906001600160a01b031682610356565b610350565b60006102e58383610571565b905060005b8581101561034d576102fd600187610598565b8103610314576103118360018660016103aa565b91505b6103456004828154811061032a5761032a6105ab565b6000918252602090912001546001600160a01b031683610356565b6001016102ea565b50505b50505050565b600080600080600085875af190508061029d5760405162461bcd60e51b8152602060048201526016602482015275088a07440ccc2d2d8cac840e8de40e6cadcc840cae8d60531b6044820152606401610113565b6000806103b88686866103fb565b90506103c3836104c0565b80156103df5750600084806103da576103da61055b565b868809115b156103f2576103ef600182610585565b90505b95945050505050565b6000838302816000198587098281108382030391505080600003610432578382816104285761042861055b565b04925050506104b9565b8084116104525760405163227bc15360e01b815260040160405180910390fd5b6000848688096000868103871696879004966002600389028118808a02820302808a02820302808a02820302808a02820302808a02820302808a02909103029181900381900460010186841190950394909402919094039290920491909117919091029150505b9392505050565b600060028260038111156104d6576104d66105c1565b6104e091906105d7565b60ff166001149050919050565b6000602082840312156104ff57600080fd5b813580151581146104b957600080fd5b634e487b7160e01b600052601160045260246000fd5b6000600182016105375761053761050f565b5060010190565b80820281158282048414176105555761055561050f565b92915050565b634e487b7160e01b600052601260045260246000fd5b6000826105805761058061055b565b500490565b808201808211156105555761055561050f565b818103818111156105555761055561050f565b634e487b7160e01b600052603260045260246000fd5b634e487b7160e01b600052602160045260246000fd5b600060ff8316806105ea576105ea61055b565b8060ff8416069150509291505056fea2646970667358221220d61e1ba0ea9d041985b6ebf99e36695ed0531a0d1becdf2a4b140a30f4cee29764736f6c63430008170033","linkReferences":{}},"methodIdentifiers":{"getCreator()":"0ee2cb10","getTotalAllowedVoters()":"9c7d41ee","isActive()":"22f3e2d4","vote(bool)":"4b9f5c98"},"id":21}