{"abi":[{"type":"constructor","inputs":[{"name":"_version","type":"uint32","internalType":"uint32"},{"name":"_localDomain","type":"uint32","internalType":"uint32"},{"name":"token","type":"address","internalType":"address"}],"stateMutability":"nonpayable"},{"type":"function","name":"localDomain","inputs":[],"outputs":[{"name":"","type":"uint32","internalType":"uint32"}],"stateMutability":"view"},{"type":"function","name":"nextAvailableNonce","inputs":[],"outputs":[{"name":"","type":"uint64","internalType":"uint64"}],"stateMutability":"view"},{"type":"function","name":"receiveMessage","inputs":[{"name":"message","type":"bytes","internalType":"bytes"},{"name":"","type":"bytes","internalType":"bytes"}],"outputs":[{"name":"success","type":"bool","internalType":"bool"}],"stateMutability":"nonpayable"},{"type":"function","name":"s_shouldSucceed","inputs":[],"outputs":[{"name":"","type":"bool","internalType":"bool"}],"stateMutability":"view"},{"type":"function","name":"sendMessage","inputs":[{"name":"destinationDomain","type":"uint32","internalType":"uint32"},{"name":"recipient","type":"bytes32","internalType":"bytes32"},{"name":"messageBody","type":"bytes","internalType":"bytes"}],"outputs":[{"name":"","type":"uint64","internalType":"uint64"}],"stateMutability":"nonpayable"},{"type":"function","name":"sendMessageWithCaller","inputs":[{"name":"destinationDomain","type":"uint32","internalType":"uint32"},{"name":"recipient","type":"bytes32","internalType":"bytes32"},{"name":"destinationCaller","type":"bytes32","internalType":"bytes32"},{"name":"messageBody","type":"bytes","internalType":"bytes"}],"outputs":[{"name":"","type":"uint64","internalType":"uint64"}],"stateMutability":"nonpayable"},{"type":"function","name":"setShouldSucceed","inputs":[{"name":"shouldSucceed","type":"bool","internalType":"bool"}],"outputs":[],"stateMutability":"nonpayable"},{"type":"function","name":"version","inputs":[],"outputs":[{"name":"","type":"uint32","internalType":"uint32"}],"stateMutability":"view"},{"type":"event","name":"MessageSent","inputs":[{"name":"message","type":"bytes","indexed":false,"internalType":"bytes"}],"anonymous":false}],"bytecode":{"object":"0x60e06040523480156200001157600080fd5b5060405162000fea38038062000fea833981810160405281019062000037919062000161565b8263ffffffff1660808163ffffffff16815250508163ffffffff1660a08163ffffffff168152505060016000806101000a81548160ff0219169083151502179055508073ffffffffffffffffffffffffffffffffffffffff1660c08173ffffffffffffffffffffffffffffffffffffffff1681525050505050620001bd565b600080fd5b600063ffffffff82169050919050565b620000d681620000bb565b8114620000e257600080fd5b50565b600081519050620000f681620000cb565b92915050565b600073ffffffffffffffffffffffffffffffffffffffff82169050919050565b60006200012982620000fc565b9050919050565b6200013b816200011c565b81146200014757600080fd5b50565b6000815190506200015b8162000130565b92915050565b6000806000606084860312156200017d576200017c620000b6565b5b60006200018d86828701620000e5565b9350506020620001a086828701620000e5565b9250506040620001b3868287016200014a565b9150509250925092565b60805160a05160c051610def620001fb600039600061025201526000818161032e01526104d401526000818161020501526104b30152610def6000f3fe608060405234801561001057600080fd5b50600436106100885760003560e01c80638371744e1161005b5780638371744e146101295780638d3638f4146101475780639e31ddb614610165578063f7259a751461018157610088565b80630ba469bc1461008d57806354fd4d50146100bd57806357ecfd28146100db5780637a6429351461010b575b600080fd5b6100a760048036038101906100a29190610645565b6101b1565b6040516100b491906106dc565b60405180910390f35b6100c5610201565b6040516100d29190610706565b60405180910390f35b6100f560048036038101906100f09190610721565b610229565b60405161010291906107bd565b60405180910390f35b6101136102ff565b60405161012091906107bd565b60405180910390f35b610131610310565b60405161013e91906106dc565b60405180910390f35b61014f61032a565b60405161015c9190610706565b60405180910390f35b61017f600480360381019061017a9190610804565b610352565b005b61019b60048036038101906101969190610831565b61036e565b6040516101a891906106dc565b60405180910390f35b6000806000801b905060006101c46103fc565b905060003373ffffffffffffffffffffffffffffffffffffffff1660001b90506101f388888584868b8b61046a565b819350505050949350505050565b60007f0000000000000000000000000000000000000000000000000000000000000000905090565b6000808585604090605492610240939291906108c3565b9061024b9190610942565b60601c90507f000000000000000000000000000000000000000000000000000000000000000073ffffffffffffffffffffffffffffffffffffffff166340c10f1982683635c9adc5dea000006040518363ffffffff1660e01b81526004016102b4929190610a31565b600060405180830381600087803b1580156102ce57600080fd5b505af11580156102e2573d6000803e3d6000fd5b5050505060008054906101000a900460ff16915050949350505050565b60008054906101000a900460ff1681565b600060019054906101000a900467ffffffffffffffff1681565b60007f0000000000000000000000000000000000000000000000000000000000000000905090565b806000806101000a81548160ff02191690831515021790555050565b60008060001b84036103b5576040517f08c379a00000000000000000000000000000000000000000000000000000000081526004016103ac90610add565b60405180910390fd5b60006103bf6103fc565b905060003373ffffffffffffffffffffffffffffffffffffffff1660001b90506103ee88888884868a8a61046a565b819250505095945050505050565b600080600060019054906101000a900467ffffffffffffffff1690506001600060019054906101000a900467ffffffffffffffff1661043b9190610b2c565b600060016101000a81548167ffffffffffffffff021916908367ffffffffffffffff1602179055508091505090565b6000801b86036104af576040517f08c379a00000000000000000000000000000000000000000000000000000000081526004016104a690610bb4565b60405180910390fd5b60007f00000000000000000000000000000000000000000000000000000000000000007f00000000000000000000000000000000000000000000000000000000000000008986888b8b898960405160200161051299989796959493929190610ca0565b60405160208183030381529060405290507f8c5261668696ce22758910d05bab8f186d6eb247ceac2af2e82c7dc17669b036816040516105529190610dc0565b60405180910390a15050505050505050565b600080fd5b600080fd5b600063ffffffff82169050919050565b6105878161056e565b811461059257600080fd5b50565b6000813590506105a48161057e565b92915050565b6000819050919050565b6105bd816105aa565b81146105c857600080fd5b50565b6000813590506105da816105b4565b92915050565b600080fd5b600080fd5b600080fd5b60008083601f840112610605576106046105e0565b5b8235905067ffffffffffffffff811115610622576106216105e5565b5b60208301915083600182028301111561063e5761063d6105ea565b5b9250929050565b6000806000806060858703121561065f5761065e610564565b5b600061066d87828801610595565b945050602061067e878288016105cb565b935050604085013567ffffffffffffffff81111561069f5761069e610569565b5b6106ab878288016105ef565b925092505092959194509250565b600067ffffffffffffffff82169050919050565b6106d6816106b9565b82525050565b60006020820190506106f160008301846106cd565b92915050565b6107008161056e565b82525050565b600060208201905061071b60008301846106f7565b92915050565b6000806000806040858703121561073b5761073a610564565b5b600085013567ffffffffffffffff81111561075957610758610569565b5b610765878288016105ef565b9450945050602085013567ffffffffffffffff81111561078857610787610569565b5b610794878288016105ef565b925092505092959194509250565b60008115159050919050565b6107b7816107a2565b82525050565b60006020820190506107d260008301846107ae565b92915050565b6107e1816107a2565b81146107ec57600080fd5b50565b6000813590506107fe816107d8565b92915050565b60006020828403121561081a57610819610564565b5b6000610828848285016107ef565b91505092915050565b60008060008060006080868803121561084d5761084c610564565b5b600061085b88828901610595565b955050602061086c888289016105cb565b945050604061087d888289016105cb565b935050606086013567ffffffffffffffff81111561089e5761089d610569565b5b6108aa888289016105ef565b92509250509295509295909350565b600080fd5b600080fd5b600080858511156108d7576108d66108b9565b5b838611156108e8576108e76108be565b5b6001850283019150848603905094509492505050565b600082905092915050565b60007fffffffffffffffffffffffffffffffffffffffff00000000000000000000000082169050919050565b600082821b905092915050565b600061094e83836108fe565b826109598135610909565b92506014821015610999576109947fffffffffffffffffffffffffffffffffffffffff00000000000000000000000083601403600802610935565b831692505b505092915050565b600073ffffffffffffffffffffffffffffffffffffffff82169050919050565b60006109cc826109a1565b9050919050565b6109dc816109c1565b82525050565b6000819050919050565b6000819050919050565b6000819050919050565b6000610a1b610a16610a11846109e2565b6109f6565b6109ec565b9050919050565b610a2b81610a00565b82525050565b6000604082019050610a4660008301856109d3565b610a536020830184610a22565b9392505050565b600082825260208201905092915050565b7f44657374696e6174696f6e2063616c6c6572206d757374206265206e6f6e7a6560008201527f726f000000000000000000000000000000000000000000000000000000000000602082015250565b6000610ac7602283610a5a565b9150610ad282610a6b565b604082019050919050565b60006020820190508181036000830152610af681610aba565b9050919050565b7f4e487b7100000000000000000000000000000000000000000000000000000000600052601160045260246000fd5b6000610b37826106b9565b9150610b42836106b9565b9250828201905067ffffffffffffffff811115610b6257610b61610afd565b5b92915050565b7f526563697069656e74206d757374206265206e6f6e7a65726f00000000000000600082015250565b6000610b9e601983610a5a565b9150610ba982610b68565b602082019050919050565b60006020820190508181036000830152610bcd81610b91565b9050919050565b60008160e01b9050919050565b6000610bec82610bd4565b9050919050565b610c04610bff8261056e565b610be1565b82525050565b60008160c01b9050919050565b6000610c2282610c0a565b9050919050565b610c3a610c35826106b9565b610c17565b82525050565b6000819050919050565b610c5b610c56826105aa565b610c40565b82525050565b600081905092915050565b82818337600083830152505050565b6000610c878385610c61565b9350610c94838584610c6c565b82840190509392505050565b6000610cac828c610bf3565b600482019150610cbc828b610bf3565b600482019150610ccc828a610bf3565b600482019150610cdc8289610c29565b600882019150610cec8288610c4a565b602082019150610cfc8287610c4a565b602082019150610d0c8286610c4a565b602082019150610d1d828486610c7b565b91508190509a9950505050505050505050565b600081519050919050565b600082825260208201905092915050565b60005b83811015610d6a578082015181840152602081019050610d4f565b60008484015250505050565b6000601f19601f8301169050919050565b6000610d9282610d30565b610d9c8185610d3b565b9350610dac818560208601610d4c565b610db581610d76565b840191505092915050565b60006020820190508181036000830152610dda8184610d87565b90509291505056fea164736f6c6343000818000a","linkReferences":{}},"methodIdentifiers":{"localDomain()":"8d3638f4","nextAvailableNonce()":"8371744e","receiveMessage(bytes,bytes)":"57ecfd28","s_shouldSucceed()":"7a642935","sendMessage(uint32,bytes32,bytes)":"0ba469bc","sendMessageWithCaller(uint32,bytes32,bytes32,bytes)":"f7259a75","setShouldSucceed(bool)":"9e31ddb6","version()":"54fd4d50"},"id":108}