{"abi":[{"type":"constructor","inputs":[{"name":"priceUpdaters","type":"address[]","internalType":"address[]"},{"name":"feeTokens","type":"address[]","internalType":"address[]"},{"name":"stalenessThreshold","type":"uint32","internalType":"uint32"}],"stateMutability":"nonpayable"},{"type":"function","name":"acceptOwnership","inputs":[],"outputs":[],"stateMutability":"nonpayable"},{"type":"function","name":"applyFeeTokensUpdates","inputs":[{"name":"feeTokensToAdd","type":"address[]","internalType":"address[]"},{"name":"feeTokensToRemove","type":"address[]","internalType":"address[]"}],"outputs":[],"stateMutability":"nonpayable"},{"type":"function","name":"applyPriceUpdatersUpdates","inputs":[{"name":"priceUpdatersToAdd","type":"address[]","internalType":"address[]"},{"name":"priceUpdatersToRemove","type":"address[]","internalType":"address[]"}],"outputs":[],"stateMutability":"nonpayable"},{"type":"function","name":"convertTokenAmount","inputs":[{"name":"fromToken","type":"address","internalType":"address"},{"name":"fromTokenAmount","type":"uint256","internalType":"uint256"},{"name":"toToken","type":"address","internalType":"address"}],"outputs":[{"name":"","type":"uint256","internalType":"uint256"}],"stateMutability":"view"},{"type":"function","name":"getDestinationChainGasPrice","inputs":[{"name":"destChainSelector","type":"uint64","internalType":"uint64"}],"outputs":[{"name":"","type":"tuple","internalType":"struct Internal.TimestampedPackedUint224","components":[{"name":"value","type":"uint224","internalType":"uint224"},{"name":"timestamp","type":"uint32","internalType":"uint32"}]}],"stateMutability":"view"},{"type":"function","name":"getFeeTokens","inputs":[],"outputs":[{"name":"","type":"address[]","internalType":"address[]"}],"stateMutability":"view"},{"type":"function","name":"getPriceUpdaters","inputs":[],"outputs":[{"name":"","type":"address[]","internalType":"address[]"}],"stateMutability":"view"},{"type":"function","name":"getStalenessThreshold","inputs":[],"outputs":[{"name":"","type":"uint128","internalType":"uint128"}],"stateMutability":"view"},{"type":"function","name":"getTokenAndGasPrices","inputs":[{"name":"token","type":"address","internalType":"address"},{"name":"destChainSelector","type":"uint64","internalType":"uint64"}],"outputs":[{"name":"tokenPrice","type":"uint224","internalType":"uint224"},{"name":"gasPriceValue","type":"uint224","internalType":"uint224"}],"stateMutability":"view"},{"type":"function","name":"getTokenPrice","inputs":[{"name":"token","type":"address","internalType":"address"}],"outputs":[{"name":"","type":"tuple","internalType":"struct Internal.TimestampedPackedUint224","components":[{"name":"value","type":"uint224","internalType":"uint224"},{"name":"timestamp","type":"uint32","internalType":"uint32"}]}],"stateMutability":"view"},{"type":"function","name":"getTokenPrices","inputs":[{"name":"tokens","type":"address[]","internalType":"address[]"}],"outputs":[{"name":"","type":"tuple[]","internalType":"struct Internal.TimestampedPackedUint224[]","components":[{"name":"value","type":"uint224","internalType":"uint224"},{"name":"timestamp","type":"uint32","internalType":"uint32"}]}],"stateMutability":"view"},{"type":"function","name":"getValidatedTokenPrice","inputs":[{"name":"token","type":"address","internalType":"address"}],"outputs":[{"name":"","type":"uint224","internalType":"uint224"}],"stateMutability":"view"},{"type":"function","name":"owner","inputs":[],"outputs":[{"name":"","type":"address","internalType":"address"}],"stateMutability":"view"},{"type":"function","name":"transferOwnership","inputs":[{"name":"to","type":"address","internalType":"address"}],"outputs":[],"stateMutability":"nonpayable"},{"type":"function","name":"typeAndVersion","inputs":[],"outputs":[{"name":"","type":"string","internalType":"string"}],"stateMutability":"view"},{"type":"function","name":"updatePrices","inputs":[{"name":"priceUpdates","type":"tuple","internalType":"struct Internal.PriceUpdates","components":[{"name":"tokenPriceUpdates","type":"tuple[]","internalType":"struct Internal.TokenPriceUpdate[]","components":[{"name":"sourceToken","type":"address","internalType":"address"},{"name":"usdPerToken","type":"uint224","internalType":"uint224"}]},{"name":"gasPriceUpdates","type":"tuple[]","internalType":"struct Internal.GasPriceUpdate[]","components":[{"name":"destChainSelector","type":"uint64","internalType":"uint64"},{"name":"usdPerUnitGas","type":"uint224","internalType":"uint224"}]}]}],"outputs":[],"stateMutability":"nonpayable"},{"type":"event","name":"FeeTokenAdded","inputs":[{"name":"feeToken","type":"address","indexed":true,"internalType":"address"}],"anonymous":false},{"type":"event","name":"FeeTokenRemoved","inputs":[{"name":"feeToken","type":"address","indexed":true,"internalType":"address"}],"anonymous":false},{"type":"event","name":"OwnershipTransferRequested","inputs":[{"name":"from","type":"address","indexed":true,"internalType":"address"},{"name":"to","type":"address","indexed":true,"internalType":"address"}],"anonymous":false},{"type":"event","name":"OwnershipTransferred","inputs":[{"name":"from","type":"address","indexed":true,"internalType":"address"},{"name":"to","type":"address","indexed":true,"internalType":"address"}],"anonymous":false},{"type":"event","name":"PriceUpdaterRemoved","inputs":[{"name":"priceUpdater","type":"address","indexed":true,"internalType":"address"}],"anonymous":false},{"type":"event","name":"PriceUpdaterSet","inputs":[{"name":"priceUpdater","type":"address","indexed":true,"internalType":"address"}],"anonymous":false},{"type":"event","name":"UsdPerTokenUpdated","inputs":[{"name":"token","type":"address","indexed":true,"internalType":"address"},{"name":"value","type":"uint256","indexed":false,"internalType":"uint256"},{"name":"timestamp","type":"uint256","indexed":false,"internalType":"uint256"}],"anonymous":false},{"type":"event","name":"UsdPerUnitGasUpdated","inputs":[{"name":"destChain","type":"uint64","indexed":true,"internalType":"uint64"},{"name":"value","type":"uint256","indexed":false,"internalType":"uint256"},{"name":"timestamp","type":"uint256","indexed":false,"internalType":"uint256"}],"anonymous":false},{"type":"error","name":"ChainNotSupported","inputs":[{"name":"chain","type":"uint64","internalType":"uint64"}]},{"type":"error","name":"InvalidStalenessThreshold","inputs":[]},{"type":"error","name":"OnlyCallableByUpdaterOrOwner","inputs":[]},{"type":"error","name":"StaleGasPrice","inputs":[{"name":"destChainSelector","type":"uint64","internalType":"uint64"},{"name":"threshold","type":"uint256","internalType":"uint256"},{"name":"timePassed","type":"uint256","internalType":"uint256"}]},{"type":"error","name":"StaleTokenPrice","inputs":[{"name":"token","type":"address","internalType":"address"},{"name":"threshold","type":"uint256","internalType":"uint256"},{"name":"timePassed","type":"uint256","internalType":"uint256"}]},{"type":"error","name":"TokenNotSupported","inputs":[{"name":"token","type":"address","internalType":"address"}]}],"bytecode":{"object":"0x60a06040523480156200001157600080fd5b506040516200340d3803806200340d833981810160405281019062000037919062000ab9565b338060008073ffffffffffffffffffffffffffffffffffffffff168273ffffffffffffffffffffffffffffffffffffffff1603620000ac576040517f08c379a0000000000000000000000000000000000000000000000000000000008152600401620000a39062000bb4565b60405180910390fd5b816000806101000a81548173ffffffffffffffffffffffffffffffffffffffff021916908373ffffffffffffffffffffffffffffffffffffffff160217905550600073ffffffffffffffffffffffffffffffffffffffff168173ffffffffffffffffffffffffffffffffffffffff1614620001335762000132816200025260201b60201c565b5b5050506200019583600067ffffffffffffffff811115620001595762000158620008b4565b5b604051908082528060200260200182016040528015620001885781602001602082028036833780820191505090505b506200038160201b60201c565b620001f482600067ffffffffffffffff811115620001b857620001b7620008b4565b5b604051908082528060200260200182016040528015620001e75781602001602082028036833780820191505090505b50620004ed60201b60201c565b60008163ffffffff160362000235576040517f22a2821200000000000000000000000000000000000000000000000000000000815260040160405180910390fd5b8063ffffffff1660808163ffffffff168152505050505062000d1a565b3373ffffffffffffffffffffffffffffffffffffffff168173ffffffffffffffffffffffffffffffffffffffff1603620002c3576040517f08c379a0000000000000000000000000000000000000000000000000000000008152600401620002ba9062000c26565b60405180910390fd5b80600160006101000a81548173ffffffffffffffffffffffffffffffffffffffff021916908373ffffffffffffffffffffffffffffffffffffffff1602179055508073ffffffffffffffffffffffffffffffffffffffff1660008054906101000a900473ffffffffffffffffffffffffffffffffffffffff1673ffffffffffffffffffffffffffffffffffffffff167fed8889f560326eb138920d842192f0eb3dd22b4f139c87a2c57538e05bae127860405160405180910390a350565b60005b82518110156200043457620003c1838281518110620003a857620003a762000c48565b5b602002602001015160046200065960201b90919060201c565b156200042857828181518110620003dd57620003dc62000c48565b5b602002602001015173ffffffffffffffffffffffffffffffffffffffff167f34a02290b7920078c19f58e94b78c77eb9cc10195b20676e19bd3b82085893b860405160405180910390a25b80600101905062000384565b5060005b8151811015620004e857620004758282815181106200045c576200045b62000c48565b5b602002602001015160046200069160201b90919060201c565b15620004dc5781818151811062000491576200049062000c48565b5b602002602001015173ffffffffffffffffffffffffffffffffffffffff167fff7dbb85c77ca68ca1f894d6498570e3d5095cd19466f07ee8d222b337e4068c60405160405180910390a25b80600101905062000438565b505050565b60005b8251811015620005a0576200052d83828151811062000514576200051362000c48565b5b602002602001015160066200065960201b90919060201c565b15620005945782818151811062000549576200054862000c48565b5b602002602001015173ffffffffffffffffffffffffffffffffffffffff167fdf1b1bd32a69711488d71554706bb130b1fc63a5fa1a2cd85e8440f84065ba2360405160405180910390a25b806001019050620004f0565b5060005b81518110156200065457620005e1828281518110620005c857620005c762000c48565b5b602002602001015160066200069160201b90919060201c565b156200064857818181518110620005fd57620005fc62000c48565b5b602002602001015173ffffffffffffffffffffffffffffffffffffffff167f1795838dc8ab2ffc5f431a1729a6afa0b587f982f7b2be0b9d7187a1ef547f9160405160405180910390a25b806001019050620005a4565b505050565b600062000689836000018373ffffffffffffffffffffffffffffffffffffffff1660001b620006c960201b60201c565b905092915050565b6000620006c1836000018373ffffffffffffffffffffffffffffffffffffffff1660001b6200074360201b60201c565b905092915050565b6000620006dd83836200086760201b60201c565b620007385782600001829080600181540180825580915050600190039060005260206000200160009091909190915055826000018054905083600101600084815260200190815260200160002081905550600190506200073d565b600090505b92915050565b600080836001016000848152602001908152602001600020549050600081146200085b57600060018262000778919062000cb0565b905060006001866000018054905062000792919062000cb0565b905081811462000808576000866000018281548110620007b757620007b662000c48565b5b9060005260206000200154905080876000018481548110620007de57620007dd62000c48565b5b90600052602060002001819055508387600101600083815260200190815260200160002081905550505b856000018054806200081f576200081e62000ceb565b5b60019003818190600052602060002001600090559055856001016000868152602001908152602001600020600090556001935050505062000861565b60009150505b92915050565b600080836001016000848152602001908152602001600020541415905092915050565b6000604051905090565b600080fd5b600080fd5b600080fd5b6000601f19601f8301169050919050565b7f4e487b7100000000000000000000000000000000000000000000000000000000600052604160045260246000fd5b620008ee82620008a3565b810181811067ffffffffffffffff8211171562000910576200090f620008b4565b5b80604052505050565b6000620009256200088a565b9050620009338282620008e3565b919050565b600067ffffffffffffffff821115620009565762000955620008b4565b5b602082029050602081019050919050565b600080fd5b600073ffffffffffffffffffffffffffffffffffffffff82169050919050565b600062000999826200096c565b9050919050565b620009ab816200098c565b8114620009b757600080fd5b50565b600081519050620009cb81620009a0565b92915050565b6000620009e8620009e28462000938565b62000919565b9050808382526020820190506020840283018581111562000a0e5762000a0d62000967565b5b835b8181101562000a3b578062000a268882620009ba565b84526020840193505060208101905062000a10565b5050509392505050565b600082601f83011262000a5d5762000a5c6200089e565b5b815162000a6f848260208601620009d1565b91505092915050565b600063ffffffff82169050919050565b62000a938162000a78565b811462000a9f57600080fd5b50565b60008151905062000ab38162000a88565b92915050565b60008060006060848603121562000ad55762000ad462000894565b5b600084015167ffffffffffffffff81111562000af65762000af562000899565b5b62000b048682870162000a45565b935050602084015167ffffffffffffffff81111562000b285762000b2762000899565b5b62000b368682870162000a45565b925050604062000b498682870162000aa2565b9150509250925092565b600082825260208201905092915050565b7f43616e6e6f7420736574206f776e657220746f207a65726f0000000000000000600082015250565b600062000b9c60188362000b53565b915062000ba98262000b64565b602082019050919050565b6000602082019050818103600083015262000bcf8162000b8d565b9050919050565b7f43616e6e6f74207472616e7366657220746f2073656c66000000000000000000600082015250565b600062000c0e60178362000b53565b915062000c1b8262000bd6565b602082019050919050565b6000602082019050818103600083015262000c418162000bff565b9050919050565b7f4e487b7100000000000000000000000000000000000000000000000000000000600052603260045260246000fd5b6000819050919050565b7f4e487b7100000000000000000000000000000000000000000000000000000000600052601160045260246000fd5b600062000cbd8262000c77565b915062000cca8362000c77565b925082820390508181111562000ce55762000ce462000c81565b5b92915050565b7f4e487b7100000000000000000000000000000000000000000000000000000000600052603160045260246000fd5b6080516126bb62000d5260003960008181610b7301528181610df801528181610e270152818161101c015261104b01526126bb6000f3fe608060405234801561001057600080fd5b50600436106100ff5760003560e01c80637afac32211610097578063cdc73d5111610066578063cdc73d511461029a578063d02641a0146102b8578063f2fde38b146102e8578063ffdb4b3714610304576100ff565b80637afac322146102245780638da5cb5b14610240578063a6c94a731461025e578063bfcd45661461027c576100ff565b80634ab35b0b116100d35780634ab35b0b1461019e578063514e8cff146101ce57806352877af0146101fe57806379ba50971461021a576100ff565b806241e5be14610104578063181f5a77146101345780633937306f1461015257806345ac924d1461016e575b600080fd5b61011e600480360381019061011991906118b9565b610335565b60405161012b919061191b565b60405180910390f35b61013c6103a3565b60405161014991906119c6565b60405180910390f35b61016c60048036038101906101679190611a0c565b6103dc565b005b61018860048036038101906101839190611aba565b6107cc565b6040516101959190611c3b565b60405180910390f35b6101b860048036038101906101b39190611c5d565b61089e565b6040516101c59190611c99565b60405180910390f35b6101e860048036038101906101e39190611cf4565b6108b0565b6040516101f59190611d50565b60405180910390f35b61021860048036038101906102139190611ea9565b610985565b005b61022261099b565b005b61023e60048036038101906102399190611ea9565b610b30565b005b610248610b46565b6040516102559190611f30565b60405180910390f35b610266610b6f565b6040516102739190611f76565b60405180910390f35b610284610b9d565b604051610291919061204f565b60405180910390f35b6102a2610bae565b6040516102af919061204f565b60405180910390f35b6102d260048036038101906102cd9190611c5d565b610bbf565b6040516102df9190611d50565b60405180910390f35b61030260048036038101906102fd9190611c5d565b610cac565b005b61031e60048036038101906103199190612071565b610cc0565b60405161032c9291906120b1565b60405180910390f35b600061034082610ea0565b7bffffffffffffffffffffffffffffffffffffffffffffffffffffffff1661036785610ea0565b7bffffffffffffffffffffffffffffffffffffffffffffffffffffffff16846103909190612109565b61039a919061217a565b90509392505050565b6040518060400160405280601381526020017f5072696365526567697374727920312e322e300000000000000000000000000081525081565b6103e4610b46565b73ffffffffffffffffffffffffffffffffffffffff163373ffffffffffffffffffffffffffffffffffffffff1614158015610430575061042e3360046110b790919063ffffffff16565b155b15610467576040517f46f0815400000000000000000000000000000000000000000000000000000000815260040160405180910390fd5b600081806000019061047991906121ba565b9050905060005b8181101561062857600083806000019061049a91906121ba565b838181106104ab576104aa61221d565b5b9050604002018036038101906104c191906122cd565b9050604051806040016040528082602001517bffffffffffffffffffffffffffffffffffffffffffffffffffffffff1681526020014263ffffffff1681525060036000836000015173ffffffffffffffffffffffffffffffffffffffff1673ffffffffffffffffffffffffffffffffffffffff16815260200190815260200160002060008201518160000160006101000a8154817bffffffffffffffffffffffffffffffffffffffffffffffffffffffff02191690837bffffffffffffffffffffffffffffffffffffffffffffffffffffffff160217905550602082015181600001601c6101000a81548163ffffffff021916908363ffffffff160217905550905050806000015173ffffffffffffffffffffffffffffffffffffffff167f52f50aa6d1a95a4595361ecf953d095f125d442e4673716dede699e049de148a826020015142604051610614929190612335565b60405180910390a250806001019050610480565b50600082806020019061063b919061235e565b9050905060005b818110156107c657600084806020019061065c919061235e565b8381811061066d5761066c61221d565b5b9050604002018036038101906106839190612411565b9050604051806040016040528082602001517bffffffffffffffffffffffffffffffffffffffffffffffffffffffff1681526020014263ffffffff1681525060026000836000015167ffffffffffffffff1667ffffffffffffffff16815260200190815260200160002060008201518160000160006101000a8154817bffffffffffffffffffffffffffffffffffffffffffffffffffffffff02191690837bffffffffffffffffffffffffffffffffffffffffffffffffffffffff160217905550602082015181600001601c6101000a81548163ffffffff021916908363ffffffff160217905550905050806000015167ffffffffffffffff167fdd84a3fa9ef9409f550d54d6affec7e9c480c878c6ab27b78912a03e1b371c6e8260200151426040516107b2929190612335565b60405180910390a250806001019050610642565b50505050565b6060600083839050905060008167ffffffffffffffff8111156107f2576107f1611d6b565b5b60405190808252806020026020018201604052801561082b57816020015b6108186117d3565b8152602001906001900390816108105790505b50905060005b828110156108925761086986868381811061084f5761084e61221d565b5b90506020020160208101906108649190611c5d565b610bbf565b82828151811061087c5761087b61221d565b5b6020026020010181905250806001019050610831565b50809250505092915050565b60006108a982610ea0565b9050919050565b6108b86117d3565b600260008367ffffffffffffffff1667ffffffffffffffff1681526020019081526020016000206040518060400160405290816000820160009054906101000a90047bffffffffffffffffffffffffffffffffffffffffffffffffffffffff167bffffffffffffffffffffffffffffffffffffffffffffffffffffffff167bffffffffffffffffffffffffffffffffffffffffffffffffffffffff16815260200160008201601c9054906101000a900463ffffffff1663ffffffff1663ffffffff16815250509050919050565b61098d6110e7565b6109978282611177565b5050565b600160009054906101000a900473ffffffffffffffffffffffffffffffffffffffff1673ffffffffffffffffffffffffffffffffffffffff163373ffffffffffffffffffffffffffffffffffffffff1614610a2b576040517f08c379a0000000000000000000000000000000000000000000000000000000008152600401610a229061248a565b60405180910390fd5b60008060009054906101000a900473ffffffffffffffffffffffffffffffffffffffff169050336000806101000a81548173ffffffffffffffffffffffffffffffffffffffff021916908373ffffffffffffffffffffffffffffffffffffffff1602179055506000600160006101000a81548173ffffffffffffffffffffffffffffffffffffffff021916908373ffffffffffffffffffffffffffffffffffffffff1602179055503373ffffffffffffffffffffffffffffffffffffffff168173ffffffffffffffffffffffffffffffffffffffff167f8be0079c531659141344cd1fd0a4f28419497f9722a3daafe3b4186f6b6457e060405160405180910390a350565b610b386110e7565b610b4282826112cd565b5050565b60008060009054906101000a900473ffffffffffffffffffffffffffffffffffffffff16905090565b60007f000000000000000000000000000000000000000000000000000000000000000063ffffffff16905090565b6060610ba96004611423565b905090565b6060610bba6006611423565b905090565b610bc76117d3565b600360008373ffffffffffffffffffffffffffffffffffffffff1673ffffffffffffffffffffffffffffffffffffffff1681526020019081526020016000206040518060400160405290816000820160009054906101000a90047bffffffffffffffffffffffffffffffffffffffffffffffffffffffff167bffffffffffffffffffffffffffffffffffffffffffffffffffffffff167bffffffffffffffffffffffffffffffffffffffffffffffffffffffff16815260200160008201601c9054906101000a900463ffffffff1663ffffffff1663ffffffff16815250509050919050565b610cb46110e7565b610cbd81611444565b50565b6000806000600260008567ffffffffffffffff1667ffffffffffffffff1681526020019081526020016000206040518060400160405290816000820160009054906101000a90047bffffffffffffffffffffffffffffffffffffffffffffffffffffffff167bffffffffffffffffffffffffffffffffffffffffffffffffffffffff167bffffffffffffffffffffffffffffffffffffffffffffffffffffffff16815260200160008201601c9054906101000a900463ffffffff1663ffffffff1663ffffffff168152505090506000816020015163ffffffff1603610ddc57836040517f2e59db3a000000000000000000000000000000000000000000000000000000008152600401610dd391906124b9565b60405180910390fd5b6000816020015163ffffffff1642610df491906124d4565b90507f000000000000000000000000000000000000000000000000000000000000000063ffffffff16811115610e8557847f0000000000000000000000000000000000000000000000000000000000000000826040517ff08bcb3e000000000000000000000000000000000000000000000000000000008152600401610e7c93929190612539565b60405180910390fd5b610e8e86610ea0565b82600001519350935050509250929050565b600080600360008473ffffffffffffffffffffffffffffffffffffffff1673ffffffffffffffffffffffffffffffffffffffff1681526020019081526020016000206040518060400160405290816000820160009054906101000a90047bffffffffffffffffffffffffffffffffffffffffffffffffffffffff167bffffffffffffffffffffffffffffffffffffffffffffffffffffffff167bffffffffffffffffffffffffffffffffffffffffffffffffffffffff16815260200160008201601c9054906101000a900463ffffffff1663ffffffff1663ffffffff168152505090506000816020015163ffffffff161480610fbe5750600081600001517bffffffffffffffffffffffffffffffffffffffffffffffffffffffff16145b1561100057826040517f06439c6b000000000000000000000000000000000000000000000000000000008152600401610ff79190611f30565b60405180910390fd5b6000816020015163ffffffff164261101891906124d4565b90507f000000000000000000000000000000000000000000000000000000000000000063ffffffff168111156110a957837f0000000000000000000000000000000000000000000000000000000000000000826040517fc65fdfca0000000000000000000000000000000000000000000000000000000081526004016110a093929190612570565b60405180910390fd5b816000015192505050919050565b60006110df836000018373ffffffffffffffffffffffffffffffffffffffff1660001b611570565b905092915050565b60008054906101000a900473ffffffffffffffffffffffffffffffffffffffff1673ffffffffffffffffffffffffffffffffffffffff163373ffffffffffffffffffffffffffffffffffffffff1614611175576040517f08c379a000000000000000000000000000000000000000000000000000000000815260040161116c906125f3565b60405180910390fd5b565b60005b825181101561121f576111b18382815181106111995761119861221d565b5b6020026020010151600461159390919063ffffffff16565b15611214578281815181106111c9576111c861221d565b5b602002602001015173ffffffffffffffffffffffffffffffffffffffff167f34a02290b7920078c19f58e94b78c77eb9cc10195b20676e19bd3b82085893b860405160405180910390a25b80600101905061117a565b5060005b81518110156112c85761125a8282815181106112425761124161221d565b5b602002602001015160046115c390919063ffffffff16565b156112bd578181815181106112725761127161221d565b5b602002602001015173ffffffffffffffffffffffffffffffffffffffff167fff7dbb85c77ca68ca1f894d6498570e3d5095cd19466f07ee8d222b337e4068c60405160405180910390a25b806001019050611223565b505050565b60005b8251811015611375576113078382815181106112ef576112ee61221d565b5b6020026020010151600661159390919063ffffffff16565b1561136a5782818151811061131f5761131e61221d565b5b602002602001015173ffffffffffffffffffffffffffffffffffffffff167fdf1b1bd32a69711488d71554706bb130b1fc63a5fa1a2cd85e8440f84065ba2360405160405180910390a25b8060010190506112d0565b5060005b815181101561141e576113b08282815181106113985761139761221d565b5b602002602001015160066115c390919063ffffffff16565b15611413578181815181106113c8576113c761221d565b5b602002602001015173ffffffffffffffffffffffffffffffffffffffff167f1795838dc8ab2ffc5f431a1729a6afa0b587f982f7b2be0b9d7187a1ef547f9160405160405180910390a25b806001019050611379565b505050565b60606000611433836000016115f3565b905060608190508092505050919050565b3373ffffffffffffffffffffffffffffffffffffffff168173ffffffffffffffffffffffffffffffffffffffff16036114b2576040517f08c379a00000000000000000000000000000000000000000000000000000000081526004016114a99061265f565b60405180910390fd5b80600160006101000a81548173ffffffffffffffffffffffffffffffffffffffff021916908373ffffffffffffffffffffffffffffffffffffffff1602179055508073ffffffffffffffffffffffffffffffffffffffff1660008054906101000a900473ffffffffffffffffffffffffffffffffffffffff1673ffffffffffffffffffffffffffffffffffffffff167fed8889f560326eb138920d842192f0eb3dd22b4f139c87a2c57538e05bae127860405160405180910390a350565b600080836001016000848152602001908152602001600020541415905092915050565b60006115bb836000018373ffffffffffffffffffffffffffffffffffffffff1660001b61164f565b905092915050565b60006115eb836000018373ffffffffffffffffffffffffffffffffffffffff1660001b6116bf565b905092915050565b60608160000180548060200260200160405190810160405280929190818152602001828054801561164357602002820191906000526020600020905b81548152602001906001019080831161162f575b50505050509050919050565b600061165b8383611570565b6116b45782600001829080600181540180825580915050600190039060005260206000200160009091909190915055826000018054905083600101600084815260200190815260200160002081905550600190506116b9565b600090505b92915050565b600080836001016000848152602001908152602001600020549050600081146117c75760006001826116f191906124d4565b905060006001866000018054905061170991906124d4565b905081811461177857600086600001828154811061172a5761172961221d565b5b906000526020600020015490508087600001848154811061174e5761174d61221d565b5b90600052602060002001819055508387600101600083815260200190815260200160002081905550505b8560000180548061178c5761178b61267f565b5b6001900381819060005260206000200160009055905585600101600086815260200190815260200160002060009055600193505050506117cd565b60009150505b92915050565b604051806040016040528060007bffffffffffffffffffffffffffffffffffffffffffffffffffffffff168152602001600063ffffffff1681525090565b6000604051905090565b600080fd5b600080fd5b600073ffffffffffffffffffffffffffffffffffffffff82169050919050565b600061185082611825565b9050919050565b61186081611845565b811461186b57600080fd5b50565b60008135905061187d81611857565b92915050565b6000819050919050565b61189681611883565b81146118a157600080fd5b50565b6000813590506118b38161188d565b92915050565b6000806000606084860312156118d2576118d161181b565b5b60006118e08682870161186e565b93505060206118f1868287016118a4565b92505060406119028682870161186e565b9150509250925092565b61191581611883565b82525050565b6000602082019050611930600083018461190c565b92915050565b600081519050919050565b600082825260208201905092915050565b60005b83811015611970578082015181840152602081019050611955565b60008484015250505050565b6000601f19601f8301169050919050565b600061199882611936565b6119a28185611941565b93506119b2818560208601611952565b6119bb8161197c565b840191505092915050565b600060208201905081810360008301526119e0818461198d565b905092915050565b600080fd5b600060408284031215611a0357611a026119e8565b5b81905092915050565b600060208284031215611a2257611a2161181b565b5b600082013567ffffffffffffffff811115611a4057611a3f611820565b5b611a4c848285016119ed565b91505092915050565b600080fd5b600080fd5b600080fd5b60008083601f840112611a7a57611a79611a55565b5b8235905067ffffffffffffffff811115611a9757611a96611a5a565b5b602083019150836020820283011115611ab357611ab2611a5f565b5b9250929050565b60008060208385031215611ad157611ad061181b565b5b600083013567ffffffffffffffff811115611aef57611aee611820565b5b611afb85828601611a64565b92509250509250929050565b600081519050919050565b600082825260208201905092915050565b6000819050602082019050919050565b60007bffffffffffffffffffffffffffffffffffffffffffffffffffffffff82169050919050565b611b6481611b33565b82525050565b600063ffffffff82169050919050565b611b8381611b6a565b82525050565b604082016000820151611b9f6000850182611b5b565b506020820151611bb26020850182611b7a565b50505050565b6000611bc48383611b89565b60408301905092915050565b6000602082019050919050565b6000611be882611b07565b611bf28185611b12565b9350611bfd83611b23565b8060005b83811015611c2e578151611c158882611bb8565b9750611c2083611bd0565b925050600181019050611c01565b5085935050505092915050565b60006020820190508181036000830152611c558184611bdd565b905092915050565b600060208284031215611c7357611c7261181b565b5b6000611c818482850161186e565b91505092915050565b611c9381611b33565b82525050565b6000602082019050611cae6000830184611c8a565b92915050565b600067ffffffffffffffff82169050919050565b611cd181611cb4565b8114611cdc57600080fd5b50565b600081359050611cee81611cc8565b92915050565b600060208284031215611d0a57611d0961181b565b5b6000611d1884828501611cdf565b91505092915050565b604082016000820151611d376000850182611b5b565b506020820151611d4a6020850182611b7a565b50505050565b6000604082019050611d656000830184611d21565b92915050565b7f4e487b7100000000000000000000000000000000000000000000000000000000600052604160045260246000fd5b611da38261197c565b810181811067ffffffffffffffff82111715611dc257611dc1611d6b565b5b80604052505050565b6000611dd5611811565b9050611de18282611d9a565b919050565b600067ffffffffffffffff821115611e0157611e00611d6b565b5b602082029050602081019050919050565b6000611e25611e2084611de6565b611dcb565b90508083825260208201905060208402830185811115611e4857611e47611a5f565b5b835b81811015611e715780611e5d888261186e565b845260208401935050602081019050611e4a565b5050509392505050565b600082601f830112611e9057611e8f611a55565b5b8135611ea0848260208601611e12565b91505092915050565b60008060408385031215611ec057611ebf61181b565b5b600083013567ffffffffffffffff811115611ede57611edd611820565b5b611eea85828601611e7b565b925050602083013567ffffffffffffffff811115611f0b57611f0a611820565b5b611f1785828601611e7b565b9150509250929050565b611f2a81611845565b82525050565b6000602082019050611f456000830184611f21565b92915050565b60006fffffffffffffffffffffffffffffffff82169050919050565b611f7081611f4b565b82525050565b6000602082019050611f8b6000830184611f67565b92915050565b600081519050919050565b600082825260208201905092915050565b6000819050602082019050919050565b611fc681611845565b82525050565b6000611fd88383611fbd565b60208301905092915050565b6000602082019050919050565b6000611ffc82611f91565b6120068185611f9c565b935061201183611fad565b8060005b838110156120425781516120298882611fcc565b975061203483611fe4565b925050600181019050612015565b5085935050505092915050565b600060208201905081810360008301526120698184611ff1565b905092915050565b600080604083850312156120885761208761181b565b5b60006120968582860161186e565b92505060206120a785828601611cdf565b9150509250929050565b60006040820190506120c66000830185611c8a565b6120d36020830184611c8a565b9392505050565b7f4e487b7100000000000000000000000000000000000000000000000000000000600052601160045260246000fd5b600061211482611883565b915061211f83611883565b925082820261212d81611883565b91508282048414831517612144576121436120da565b5b5092915050565b7f4e487b7100000000000000000000000000000000000000000000000000000000600052601260045260246000fd5b600061218582611883565b915061219083611883565b9250826121a05761219f61214b565b5b828204905092915050565b600080fd5b600080fd5b600080fd5b600080833560016020038436030381126121d7576121d66121ab565b5b80840192508235915067ffffffffffffffff8211156121f9576121f86121b0565b5b602083019250604082023603831315612215576122146121b5565b5b509250929050565b7f4e487b7100000000000000000000000000000000000000000000000000000000600052603260045260246000fd5b600080fd5b61225a81611b33565b811461226557600080fd5b50565b60008135905061227781612251565b92915050565b6000604082840312156122935761229261224c565b5b61229d6040611dcb565b905060006122ad8482850161186e565b60008301525060206122c184828501612268565b60208301525092915050565b6000604082840312156122e3576122e261181b565b5b60006122f18482850161227d565b91505092915050565b6000819050919050565b600061231f61231a61231584611b33565b6122fa565b611883565b9050919050565b61232f81612304565b82525050565b600060408201905061234a6000830185612326565b612357602083018461190c565b9392505050565b6000808335600160200384360303811261237b5761237a6121ab565b5b80840192508235915067ffffffffffffffff82111561239d5761239c6121b0565b5b6020830192506040820236038313156123b9576123b86121b5565b5b509250929050565b6000604082840312156123d7576123d661224c565b5b6123e16040611dcb565b905060006123f184828501611cdf565b600083015250602061240584828501612268565b60208301525092915050565b6000604082840312156124275761242661181b565b5b6000612435848285016123c1565b91505092915050565b7f4d7573742062652070726f706f736564206f776e657200000000000000000000600082015250565b6000612474601683611941565b915061247f8261243e565b602082019050919050565b600060208201905081810360008301526124a381612467565b9050919050565b6124b381611cb4565b82525050565b60006020820190506124ce60008301846124aa565b92915050565b60006124df82611883565b91506124ea83611883565b9250828203905081811115612502576125016120da565b5b92915050565b600061252361251e61251984611b6a565b6122fa565b611883565b9050919050565b61253381612508565b82525050565b600060608201905061254e60008301866124aa565b61255b602083018561252a565b612568604083018461190c565b949350505050565b60006060820190506125856000830186611f21565b612592602083018561252a565b61259f604083018461190c565b949350505050565b7f4f6e6c792063616c6c61626c65206279206f776e657200000000000000000000600082015250565b60006125dd601683611941565b91506125e8826125a7565b602082019050919050565b6000602082019050818103600083015261260c816125d0565b9050919050565b7f43616e6e6f74207472616e7366657220746f2073656c66000000000000000000600082015250565b6000612649601783611941565b915061265482612613565b602082019050919050565b600060208201905081810360008301526126788161263c565b9050919050565b7f4e487b7100000000000000000000000000000000000000000000000000000000600052603160045260246000fdfea164736f6c6343000818000a","linkReferences":{}},"methodIdentifiers":{"acceptOwnership()":"79ba5097","applyFeeTokensUpdates(address[],address[])":"7afac322","applyPriceUpdatersUpdates(address[],address[])":"52877af0","convertTokenAmount(address,uint256,address)":"0041e5be","getDestinationChainGasPrice(uint64)":"514e8cff","getFeeTokens()":"cdc73d51","getPriceUpdaters()":"bfcd4566","getStalenessThreshold()":"a6c94a73","getTokenAndGasPrices(address,uint64)":"ffdb4b37","getTokenPrice(address)":"d02641a0","getTokenPrices(address[])":"45ac924d","getValidatedTokenPrice(address)":"4ab35b0b","owner()":"8da5cb5b","transferOwnership(address)":"f2fde38b","typeAndVersion()":"181f5a77","updatePrices(((address,uint224)[],(uint64,uint224)[]))":"3937306f"},"id":3}