{"abi":[{"type":"constructor","inputs":[{"name":"token","type":"address","internalType":"contract IBurnMintERC20"},{"name":"allowlist","type":"address[]","internalType":"address[]"},{"name":"rmnProxy","type":"address","internalType":"address"},{"name":"router","type":"address","internalType":"address"}],"stateMutability":"nonpayable"},{"type":"function","name":"acceptOwnership","inputs":[],"outputs":[],"stateMutability":"nonpayable"},{"type":"function","name":"applyAllowListUpdates","inputs":[{"name":"removes","type":"address[]","internalType":"address[]"},{"name":"adds","type":"address[]","internalType":"address[]"}],"outputs":[],"stateMutability":"nonpayable"},{"type":"function","name":"applyChainUpdates","inputs":[{"name":"chains","type":"tuple[]","internalType":"struct TokenPool.ChainUpdate[]","components":[{"name":"remoteChainSelector","type":"uint64","internalType":"uint64"},{"name":"allowed","type":"bool","internalType":"bool"},{"name":"remotePoolAddress","type":"bytes","internalType":"bytes"},{"name":"remoteTokenAddress","type":"bytes","internalType":"bytes"},{"name":"outboundRateLimiterConfig","type":"tuple","internalType":"struct RateLimiter.Config","components":[{"name":"isEnabled","type":"bool","internalType":"bool"},{"name":"capacity","type":"uint128","internalType":"uint128"},{"name":"rate","type":"uint128","internalType":"uint128"}]},{"name":"inboundRateLimiterConfig","type":"tuple","internalType":"struct RateLimiter.Config","components":[{"name":"isEnabled","type":"bool","internalType":"bool"},{"name":"capacity","type":"uint128","internalType":"uint128"},{"name":"rate","type":"uint128","internalType":"uint128"}]}]}],"outputs":[],"stateMutability":"nonpayable"},{"type":"function","name":"getAllowList","inputs":[],"outputs":[{"name":"","type":"address[]","internalType":"address[]"}],"stateMutability":"view"},{"type":"function","name":"getAllowListEnabled","inputs":[],"outputs":[{"name":"","type":"bool","internalType":"bool"}],"stateMutability":"view"},{"type":"function","name":"getCurrentInboundRateLimiterState","inputs":[{"name":"remoteChainSelector","type":"uint64","internalType":"uint64"}],"outputs":[{"name":"","type":"tuple","internalType":"struct RateLimiter.TokenBucket","components":[{"name":"tokens","type":"uint128","internalType":"uint128"},{"name":"lastUpdated","type":"uint32","internalType":"uint32"},{"name":"isEnabled","type":"bool","internalType":"bool"},{"name":"capacity","type":"uint128","internalType":"uint128"},{"name":"rate","type":"uint128","internalType":"uint128"}]}],"stateMutability":"view"},{"type":"function","name":"getCurrentOutboundRateLimiterState","inputs":[{"name":"remoteChainSelector","type":"uint64","internalType":"uint64"}],"outputs":[{"name":"","type":"tuple","internalType":"struct RateLimiter.TokenBucket","components":[{"name":"tokens","type":"uint128","internalType":"uint128"},{"name":"lastUpdated","type":"uint32","internalType":"uint32"},{"name":"isEnabled","type":"bool","internalType":"bool"},{"name":"capacity","type":"uint128","internalType":"uint128"},{"name":"rate","type":"uint128","internalType":"uint128"}]}],"stateMutability":"view"},{"type":"function","name":"getOnRamp","inputs":[{"name":"","type":"uint64","internalType":"uint64"}],"outputs":[{"name":"onRampAddress","type":"address","internalType":"address"}],"stateMutability":"view"},{"type":"function","name":"getRemotePool","inputs":[{"name":"remoteChainSelector","type":"uint64","internalType":"uint64"}],"outputs":[{"name":"","type":"bytes","internalType":"bytes"}],"stateMutability":"view"},{"type":"function","name":"getRemoteToken","inputs":[{"name":"remoteChainSelector","type":"uint64","internalType":"uint64"}],"outputs":[{"name":"","type":"bytes","internalType":"bytes"}],"stateMutability":"view"},{"type":"function","name":"getRmnProxy","inputs":[],"outputs":[{"name":"rmnProxy","type":"address","internalType":"address"}],"stateMutability":"view"},{"type":"function","name":"getRouter","inputs":[],"outputs":[{"name":"router","type":"address","internalType":"address"}],"stateMutability":"view"},{"type":"function","name":"getSupportedChains","inputs":[],"outputs":[{"name":"","type":"uint64[]","internalType":"uint64[]"}],"stateMutability":"view"},{"type":"function","name":"getToken","inputs":[],"outputs":[{"name":"token","type":"address","internalType":"contract IERC20"}],"stateMutability":"view"},{"type":"function","name":"isOffRamp","inputs":[{"name":"sourceChainSelector","type":"uint64","internalType":"uint64"},{"name":"offRamp","type":"address","internalType":"address"}],"outputs":[{"name":"","type":"bool","internalType":"bool"}],"stateMutability":"view"},{"type":"function","name":"isSupportedChain","inputs":[{"name":"remoteChainSelector","type":"uint64","internalType":"uint64"}],"outputs":[{"name":"","type":"bool","internalType":"bool"}],"stateMutability":"view"},{"type":"function","name":"isSupportedToken","inputs":[{"name":"token","type":"address","internalType":"address"}],"outputs":[{"name":"","type":"bool","internalType":"bool"}],"stateMutability":"view"},{"type":"function","name":"lockOrBurn","inputs":[{"name":"lockOrBurnIn","type":"tuple","internalType":"struct Pool.LockOrBurnInV1","components":[{"name":"receiver","type":"bytes","internalType":"bytes"},{"name":"remoteChainSelector","type":"uint64","internalType":"uint64"},{"name":"originalSender","type":"address","internalType":"address"},{"name":"amount","type":"uint256","internalType":"uint256"},{"name":"localToken","type":"address","internalType":"address"}]}],"outputs":[{"name":"","type":"tuple","internalType":"struct Pool.LockOrBurnOutV1","components":[{"name":"destTokenAddress","type":"bytes","internalType":"bytes"},{"name":"destPoolData","type":"bytes","internalType":"bytes"}]}],"stateMutability":"nonpayable"},{"type":"function","name":"owner","inputs":[],"outputs":[{"name":"","type":"address","internalType":"address"}],"stateMutability":"view"},{"type":"function","name":"releaseOrMint","inputs":[{"name":"releaseOrMintIn","type":"tuple","internalType":"struct Pool.ReleaseOrMintInV1","components":[{"name":"originalSender","type":"bytes","internalType":"bytes"},{"name":"remoteChainSelector","type":"uint64","internalType":"uint64"},{"name":"receiver","type":"address","internalType":"address"},{"name":"amount","type":"uint256","internalType":"uint256"},{"name":"localToken","type":"address","internalType":"address"},{"name":"sourcePoolAddress","type":"bytes","internalType":"bytes"},{"name":"sourcePoolData","type":"bytes","internalType":"bytes"},{"name":"offchainTokenData","type":"bytes","internalType":"bytes"}]}],"outputs":[{"name":"","type":"tuple","internalType":"struct Pool.ReleaseOrMintOutV1","components":[{"name":"destinationAmount","type":"uint256","internalType":"uint256"}]}],"stateMutability":"nonpayable"},{"type":"function","name":"setChainRateLimiterConfig","inputs":[{"name":"remoteChainSelector","type":"uint64","internalType":"uint64"},{"name":"outboundConfig","type":"tuple","internalType":"struct RateLimiter.Config","components":[{"name":"isEnabled","type":"bool","internalType":"bool"},{"name":"capacity","type":"uint128","internalType":"uint128"},{"name":"rate","type":"uint128","internalType":"uint128"}]},{"name":"inboundConfig","type":"tuple","internalType":"struct RateLimiter.Config","components":[{"name":"isEnabled","type":"bool","internalType":"bool"},{"name":"capacity","type":"uint128","internalType":"uint128"},{"name":"rate","type":"uint128","internalType":"uint128"}]}],"outputs":[],"stateMutability":"nonpayable"},{"type":"function","name":"setPreviousPool","inputs":[{"name":"prevPool","type":"address","internalType":"contract IPoolPriorTo1_5"}],"outputs":[],"stateMutability":"nonpayable"},{"type":"function","name":"setRemotePool","inputs":[{"name":"remoteChainSelector","type":"uint64","internalType":"uint64"},{"name":"remotePoolAddress","type":"bytes","internalType":"bytes"}],"outputs":[],"stateMutability":"nonpayable"},{"type":"function","name":"setRouter","inputs":[{"name":"newRouter","type":"address","internalType":"address"}],"outputs":[],"stateMutability":"nonpayable"},{"type":"function","name":"supportsInterface","inputs":[{"name":"interfaceId","type":"bytes4","internalType":"bytes4"}],"outputs":[{"name":"","type":"bool","internalType":"bool"}],"stateMutability":"pure"},{"type":"function","name":"transferOwnership","inputs":[{"name":"to","type":"address","internalType":"address"}],"outputs":[],"stateMutability":"nonpayable"},{"type":"function","name":"typeAndVersion","inputs":[],"outputs":[{"name":"","type":"string","internalType":"string"}],"stateMutability":"view"},{"type":"event","name":"AllowListAdd","inputs":[{"name":"sender","type":"address","indexed":false,"internalType":"address"}],"anonymous":false},{"type":"event","name":"AllowListRemove","inputs":[{"name":"sender","type":"address","indexed":false,"internalType":"address"}],"anonymous":false},{"type":"event","name":"Burned","inputs":[{"name":"sender","type":"address","indexed":true,"internalType":"address"},{"name":"amount","type":"uint256","indexed":false,"internalType":"uint256"}],"anonymous":false},{"type":"event","name":"ChainAdded","inputs":[{"name":"remoteChainSelector","type":"uint64","indexed":false,"internalType":"uint64"},{"name":"remoteToken","type":"bytes","indexed":false,"internalType":"bytes"},{"name":"outboundRateLimiterConfig","type":"tuple","indexed":false,"internalType":"struct RateLimiter.Config","components":[{"name":"isEnabled","type":"bool","internalType":"bool"},{"name":"capacity","type":"uint128","internalType":"uint128"},{"name":"rate","type":"uint128","internalType":"uint128"}]},{"name":"inboundRateLimiterConfig","type":"tuple","indexed":false,"internalType":"struct RateLimiter.Config","components":[{"name":"isEnabled","type":"bool","internalType":"bool"},{"name":"capacity","type":"uint128","internalType":"uint128"},{"name":"rate","type":"uint128","internalType":"uint128"}]}],"anonymous":false},{"type":"event","name":"ChainConfigured","inputs":[{"name":"remoteChainSelector","type":"uint64","indexed":false,"internalType":"uint64"},{"name":"outboundRateLimiterConfig","type":"tuple","indexed":false,"internalType":"struct RateLimiter.Config","components":[{"name":"isEnabled","type":"bool","internalType":"bool"},{"name":"capacity","type":"uint128","internalType":"uint128"},{"name":"rate","type":"uint128","internalType":"uint128"}]},{"name":"inboundRateLimiterConfig","type":"tuple","indexed":false,"internalType":"struct RateLimiter.Config","components":[{"name":"isEnabled","type":"bool","internalType":"bool"},{"name":"capacity","type":"uint128","internalType":"uint128"},{"name":"rate","type":"uint128","internalType":"uint128"}]}],"anonymous":false},{"type":"event","name":"ChainRemoved","inputs":[{"name":"remoteChainSelector","type":"uint64","indexed":false,"internalType":"uint64"}],"anonymous":false},{"type":"event","name":"ConfigChanged","inputs":[{"name":"config","type":"tuple","indexed":false,"internalType":"struct RateLimiter.Config","components":[{"name":"isEnabled","type":"bool","internalType":"bool"},{"name":"capacity","type":"uint128","internalType":"uint128"},{"name":"rate","type":"uint128","internalType":"uint128"}]}],"anonymous":false},{"type":"event","name":"LegacyPoolChanged","inputs":[{"name":"oldPool","type":"address","indexed":false,"internalType":"contract IPoolPriorTo1_5"},{"name":"newPool","type":"address","indexed":false,"internalType":"contract IPoolPriorTo1_5"}],"anonymous":false},{"type":"event","name":"Locked","inputs":[{"name":"sender","type":"address","indexed":true,"internalType":"address"},{"name":"amount","type":"uint256","indexed":false,"internalType":"uint256"}],"anonymous":false},{"type":"event","name":"Minted","inputs":[{"name":"sender","type":"address","indexed":true,"internalType":"address"},{"name":"recipient","type":"address","indexed":true,"internalType":"address"},{"name":"amount","type":"uint256","indexed":false,"internalType":"uint256"}],"anonymous":false},{"type":"event","name":"OwnershipTransferRequested","inputs":[{"name":"from","type":"address","indexed":true,"internalType":"address"},{"name":"to","type":"address","indexed":true,"internalType":"address"}],"anonymous":false},{"type":"event","name":"OwnershipTransferred","inputs":[{"name":"from","type":"address","indexed":true,"internalType":"address"},{"name":"to","type":"address","indexed":true,"internalType":"address"}],"anonymous":false},{"type":"event","name":"Released","inputs":[{"name":"sender","type":"address","indexed":true,"internalType":"address"},{"name":"recipient","type":"address","indexed":true,"internalType":"address"},{"name":"amount","type":"uint256","indexed":false,"internalType":"uint256"}],"anonymous":false},{"type":"event","name":"RemotePoolSet","inputs":[{"name":"remoteChainSelector","type":"uint64","indexed":true,"internalType":"uint64"},{"name":"previousPoolAddress","type":"bytes","indexed":false,"internalType":"bytes"},{"name":"remotePoolAddress","type":"bytes","indexed":false,"internalType":"bytes"}],"anonymous":false},{"type":"event","name":"RouterUpdated","inputs":[{"name":"oldRouter","type":"address","indexed":false,"internalType":"address"},{"name":"newRouter","type":"address","indexed":false,"internalType":"address"}],"anonymous":false},{"type":"event","name":"TokensConsumed","inputs":[{"name":"tokens","type":"uint256","indexed":false,"internalType":"uint256"}],"anonymous":false},{"type":"error","name":"AggregateValueMaxCapacityExceeded","inputs":[{"name":"capacity","type":"uint256","internalType":"uint256"},{"name":"requested","type":"uint256","internalType":"uint256"}]},{"type":"error","name":"AggregateValueRateLimitReached","inputs":[{"name":"minWaitInSeconds","type":"uint256","internalType":"uint256"},{"name":"available","type":"uint256","internalType":"uint256"}]},{"type":"error","name":"AllowListNotEnabled","inputs":[]},{"type":"error","name":"BucketOverfilled","inputs":[]},{"type":"error","name":"CallerIsNotARampOnRouter","inputs":[{"name":"caller","type":"address","internalType":"address"}]},{"type":"error","name":"ChainAlreadyExists","inputs":[{"name":"chainSelector","type":"uint64","internalType":"uint64"}]},{"type":"error","name":"ChainNotAllowed","inputs":[{"name":"remoteChainSelector","type":"uint64","internalType":"uint64"}]},{"type":"error","name":"CursedByRMN","inputs":[]},{"type":"error","name":"DisabledNonZeroRateLimit","inputs":[{"name":"config","type":"tuple","internalType":"struct RateLimiter.Config","components":[{"name":"isEnabled","type":"bool","internalType":"bool"},{"name":"capacity","type":"uint128","internalType":"uint128"},{"name":"rate","type":"uint128","internalType":"uint128"}]}]},{"type":"error","name":"InvalidRateLimitRate","inputs":[{"name":"rateLimiterConfig","type":"tuple","internalType":"struct RateLimiter.Config","components":[{"name":"isEnabled","type":"bool","internalType":"bool"},{"name":"capacity","type":"uint128","internalType":"uint128"},{"name":"rate","type":"uint128","internalType":"uint128"}]}]},{"type":"error","name":"InvalidSourcePoolAddress","inputs":[{"name":"sourcePoolAddress","type":"bytes","internalType":"bytes"}]},{"type":"error","name":"InvalidToken","inputs":[{"name":"token","type":"address","internalType":"address"}]},{"type":"error","name":"NonExistentChain","inputs":[{"name":"remoteChainSelector","type":"uint64","internalType":"uint64"}]},{"type":"error","name":"RateLimitMustBeDisabled","inputs":[]},{"type":"error","name":"SenderNotAllowed","inputs":[{"name":"sender","type":"address","internalType":"address"}]},{"type":"error","name":"TokenMaxCapacityExceeded","inputs":[{"name":"capacity","type":"uint256","internalType":"uint256"},{"name":"requested","type":"uint256","internalType":"uint256"},{"name":"tokenAddress","type":"address","internalType":"address"}]},{"type":"error","name":"TokenRateLimitReached","inputs":[{"name":"minWaitInSeconds","type":"uint256","internalType":"uint256"},{"name":"available","type":"uint256","internalType":"uint256"},{"name":"tokenAddress","type":"address","internalType":"address"}]},{"type":"error","name":"ZeroAddressNotAllowed","inputs":[]}],"bytecode":{"object":"0x60e06040523480156200001157600080fd5b506040516200675738038062006757833981810160405281019062000037919062000a7e565b8383838383838383338060008073ffffffffffffffffffffffffffffffffffffffff168273ffffffffffffffffffffffffffffffffffffffff1603620000b4576040517f08c379a0000000000000000000000000000000000000000000000000000000008152600401620000ab9062000b70565b60405180910390fd5b816000806101000a81548173ffffffffffffffffffffffffffffffffffffffff021916908373ffffffffffffffffffffffffffffffffffffffff160217905550600073ffffffffffffffffffffffffffffffffffffffff168173ffffffffffffffffffffffffffffffffffffffff16146200013b576200013a816200034a60201b60201c565b5b505050600073ffffffffffffffffffffffffffffffffffffffff168473ffffffffffffffffffffffffffffffffffffffff161480620001a65750600073ffffffffffffffffffffffffffffffffffffffff168173ffffffffffffffffffffffffffffffffffffffff16145b80620001de5750600073ffffffffffffffffffffffffffffffffffffffff168273ffffffffffffffffffffffffffffffffffffffff16145b1562000216576040517f8579befe00000000000000000000000000000000000000000000000000000000815260040160405180910390fd5b8373ffffffffffffffffffffffffffffffffffffffff1660808173ffffffffffffffffffffffffffffffffffffffff16815250508173ffffffffffffffffffffffffffffffffffffffff1660a08173ffffffffffffffffffffffffffffffffffffffff168152505080600460006101000a81548173ffffffffffffffffffffffffffffffffffffffff021916908373ffffffffffffffffffffffffffffffffffffffff1602179055506000835111151560c08115158152505060c05115620003385762000337600067ffffffffffffffff811115620002fa57620002f9620008ee565b5b604051908082528060200260200182016040528015620003295781602001602082028036833780820191505090505b50846200047960201b60201c565b5b50505050505050505050505062000d04565b3373ffffffffffffffffffffffffffffffffffffffff168173ffffffffffffffffffffffffffffffffffffffff1603620003bb576040517f08c379a0000000000000000000000000000000000000000000000000000000008152600401620003b29062000be2565b60405180910390fd5b80600160006101000a81548173ffffffffffffffffffffffffffffffffffffffff021916908373ffffffffffffffffffffffffffffffffffffffff1602179055508073ffffffffffffffffffffffffffffffffffffffff1660008054906101000a900473ffffffffffffffffffffffffffffffffffffffff1673ffffffffffffffffffffffffffffffffffffffff167fed8889f560326eb138920d842192f0eb3dd22b4f139c87a2c57538e05bae127860405160405180910390a350565b60c051620004b3576040517f35f4a7b300000000000000000000000000000000000000000000000000000000815260040160405180910390fd5b60005b825181101562000545576000838281518110620004d857620004d762000c04565b5b60200260200101519050620004f88160026200061a60201b90919060201c565b1562000538577f800671136ab6cfee9fbe5ed1fb7ca417811aca3cf864800d127b927adedf7566816040516200052f919062000c44565b60405180910390a15b50806001019050620004b6565b5060005b8151811015620006155760008282815181106200056b576200056a62000c04565b5b60200260200101519050600073ffffffffffffffffffffffffffffffffffffffff168173ffffffffffffffffffffffffffffffffffffffff1603620005b1575062000609565b620005c78160026200065260201b90919060201c565b1562000607577f2640d4d76caf8bf478aabfa982fa4e1c4eb71a37f93cd15e80dbc657911546d881604051620005fe919062000c44565b60405180910390a15b505b80600101905062000549565b505050565b60006200064a836000018373ffffffffffffffffffffffffffffffffffffffff1660001b6200068a60201b60201c565b905092915050565b600062000682836000018373ffffffffffffffffffffffffffffffffffffffff1660001b620007ae60201b60201c565b905092915050565b60008083600101600084815260200190815260200160002054905060008114620007a2576000600182620006bf919062000c9a565b9050600060018660000180549050620006d9919062000c9a565b90508181146200074f576000866000018281548110620006fe57620006fd62000c04565b5b906000526020600020015490508087600001848154811062000725576200072462000c04565b5b90600052602060002001819055508387600101600083815260200190815260200160002081905550505b8560000180548062000766576200076562000cd5565b5b600190038181906000526020600020016000905590558560010160008681526020019081526020016000206000905560019350505050620007a8565b60009150505b92915050565b6000620007c283836200082860201b60201c565b6200081d57826000018290806001815401808255809150506001900390600052602060002001600090919091909150558260000180549050836001016000848152602001908152602001600020819055506001905062000822565b600090505b92915050565b600080836001016000848152602001908152602001600020541415905092915050565b6000604051905090565b600080fd5b600080fd5b600073ffffffffffffffffffffffffffffffffffffffff82169050919050565b60006200088c826200085f565b9050919050565b6000620008a0826200087f565b9050919050565b620008b28162000893565b8114620008be57600080fd5b50565b600081519050620008d281620008a7565b92915050565b600080fd5b6000601f19601f8301169050919050565b7f4e487b7100000000000000000000000000000000000000000000000000000000600052604160045260246000fd5b6200092882620008dd565b810181811067ffffffffffffffff821117156200094a5762000949620008ee565b5b80604052505050565b60006200095f6200084b565b90506200096d82826200091d565b919050565b600067ffffffffffffffff82111562000990576200098f620008ee565b5b602082029050602081019050919050565b600080fd5b620009b1816200087f565b8114620009bd57600080fd5b50565b600081519050620009d181620009a6565b92915050565b6000620009ee620009e88462000972565b62000953565b9050808382526020820190506020840283018581111562000a145762000a13620009a1565b5b835b8181101562000a41578062000a2c8882620009c0565b84526020840193505060208101905062000a16565b5050509392505050565b600082601f83011262000a635762000a62620008d8565b5b815162000a75848260208601620009d7565b91505092915050565b6000806000806080858703121562000a9b5762000a9a62000855565b5b600062000aab87828801620008c1565b945050602085015167ffffffffffffffff81111562000acf5762000ace6200085a565b5b62000add8782880162000a4b565b935050604062000af087828801620009c0565b925050606062000b0387828801620009c0565b91505092959194509250565b600082825260208201905092915050565b7f43616e6e6f7420736574206f776e657220746f207a65726f0000000000000000600082015250565b600062000b5860188362000b0f565b915062000b658262000b20565b602082019050919050565b6000602082019050818103600083015262000b8b8162000b49565b9050919050565b7f43616e6e6f74207472616e7366657220746f2073656c66000000000000000000600082015250565b600062000bca60178362000b0f565b915062000bd78262000b92565b602082019050919050565b6000602082019050818103600083015262000bfd8162000bbb565b9050919050565b7f4e487b7100000000000000000000000000000000000000000000000000000000600052603260045260246000fd5b62000c3e816200087f565b82525050565b600060208201905062000c5b600083018462000c33565b92915050565b6000819050919050565b7f4e487b7100000000000000000000000000000000000000000000000000000000600052601160045260246000fd5b600062000ca78262000c61565b915062000cb48362000c61565b925082820390508181111562000ccf5762000cce62000c6b565b5b92915050565b7f4e487b7100000000000000000000000000000000000000000000000000000000600052603160045260246000fd5b60805160a05160c0516159dd62000d7a60003960008181611db4015281816121490152612c7f015260008181611d8c01528181611e40015261235d015260008181610779015281816107a10152818161081d01528181610f1a0152818161249901528181612b9e0152612e5e01526159dd6000f3fe608060405234801561001057600080fd5b50600436106101a95760003560e01c80639a4575b9116100f9578063c4bffe2b11610097578063db6327dc11610071578063db6327dc14610508578063dc0bd97114610524578063e0351e1314610542578063f2fde38b14610560576101a9565b8063c4bffe2b1461049e578063c75eea9c146104bc578063cf7401f3146104ec576101a9565b8063af58d59f116100d3578063af58d59f14610404578063b0f479a114610434578063b794658014610452578063c0d7865514610482576101a9565b80639a4575b914610386578063a7cd63b7146103b6578063a8d87a3b146103d4576101a9565b806354c8a4f31161016657806383826b2b1161014057806383826b2b146102ec5780638926f54f1461031c5780638da5cb5b1461034c5780639766b9321461036a576101a9565b806354c8a4f3146102aa57806378a010b2146102c657806379ba5097146102e2576101a9565b806301ffc9a7146101ae5780630a2fd493146101de578063181f5a771461020e57806321df0da71461022c578063240028e81461024a578063390775371461027a575b600080fd5b6101c860048036038101906101c39190613bee565b61057c565b6040516101d59190613c36565b60405180910390f35b6101f860048036038101906101f39190613c91565b61069d565b6040516102059190613d4e565b60405180910390f35b610216610759565b6040516102239190613dc5565b60405180910390f35b610234610775565b6040516102419190613e66565b60405180910390f35b610264600480360381019061025f9190613ebf565b61079d565b6040516102719190613c36565b60405180910390f35b610294600480360381019061028f9190613f11565b6107f5565b6040516102a19190613f8f565b60405180910390f35b6102c460048036038101906102bf919061400f565b610959565b005b6102e060048036038101906102db91906140e6565b6109f3565b005b6102ea610b82565b005b61030660048036038101906103019190614146565b610d17565b6040516103139190613c36565b60405180910390f35b61033660048036038101906103319190613c91565b610df5565b6040516103439190613c36565b60405180910390f35b610354610e1c565b6040516103619190614195565b60405180910390f35b610384600480360381019061037f91906141ee565b610e45565b005b6103a0600480360381019061039b919061423a565b610ef2565b6040516103ad9190614311565b60405180910390f35b6103be611056565b6040516103cb91906143f1565b60405180910390f35b6103ee60048036038101906103e99190613c91565b611067565b6040516103fb9190614195565b60405180910390f35b61041e60048036038101906104199190613c91565b611071565b60405161042b91906144d4565b60405180910390f35b61043c6111dc565b6040516104499190614195565b60405180910390f35b61046c60048036038101906104679190613c91565b611206565b6040516104799190613d4e565b60405180910390f35b61049c60048036038101906104979190613ebf565b6112c2565b005b6104a66113d5565b6040516104b391906145ad565b60405180910390f35b6104d660048036038101906104d19190613c91565b6114a3565b6040516104e391906144d4565b60405180910390f35b61050660048036038101906105019190614710565b61160e565b005b610522600480360381019061051d91906147b9565b611626565b005b61052c611d88565b6040516105399190614195565b60405180910390f35b61054a611db0565b6040516105579190613c36565b60405180910390f35b61057a60048036038101906105759190613ebf565b611dd8565b005b600063aff2afbf60e01b7bffffffffffffffffffffffffffffffffffffffffffffffffffffffff1916827bffffffffffffffffffffffffffffffffffffffffffffffffffffffff1916148061062e57507f0e64dd29000000000000000000000000000000000000000000000000000000007bffffffffffffffffffffffffffffffffffffffffffffffffffffffff1916827bffffffffffffffffffffffffffffffffffffffffffffffffffffffff1916145b8061069657507f01ffc9a7000000000000000000000000000000000000000000000000000000007bffffffffffffffffffffffffffffffffffffffffffffffffffffffff1916827bffffffffffffffffffffffffffffffffffffffffffffffffffffffff1916145b9050919050565b6060600760008367ffffffffffffffff1667ffffffffffffffff16815260200190815260200160002060040180546106d490614835565b80601f016020809104026020016040519081016040528092919081815260200182805461070090614835565b801561074d5780601f106107225761010080835404028352916020019161074d565b820191906000526020600020905b81548152906001019060200180831161073057829003601f168201915b50505050509050919050565b6040518060600160405280602381526020016159ae6023913981565b60007f0000000000000000000000000000000000000000000000000000000000000000905090565b60007f000000000000000000000000000000000000000000000000000000000000000073ffffffffffffffffffffffffffffffffffffffff168273ffffffffffffffffffffffffffffffffffffffff16149050919050565b6107fd613a8b565b61080f8261080a90614a81565b611dec565b610817611fbc565b6108b1577f000000000000000000000000000000000000000000000000000000000000000073ffffffffffffffffffffffffffffffffffffffff166340c10f193384606001356040518363ffffffff1660e01b815260040161087a929190614aa3565b600060405180830381600087803b15801561089457600080fd5b505af11580156108a8573d6000803e3d6000fd5b505050506108c4565b6108c3826108be90614a81565b612015565b5b8160400160208101906108d79190613ebf565b73ffffffffffffffffffffffffffffffffffffffff163373ffffffffffffffffffffffffffffffffffffffff167f9d228d69b5fdb8d273a2336f8fb8612d039631024ea9bf09c424a9503aa078f084606001356040516109379190614acc565b60405180910390a3604051806020016040528083606001358152509050919050565b6109616120b7565b6109ed848480806020026020016040519081016040528093929190818152602001838360200280828437600081840152601f19601f82011690508083019250505050505050838380806020026020016040519081016040528093929190818152602001838360200280828437600081840152601f19601f82011690508083019250505050505050612147565b50505050565b6109fb6120b7565b610a0483610df5565b610a4557826040517f1e670e4b000000000000000000000000000000000000000000000000000000008152600401610a3c9190614af6565b60405180910390fd5b6000600760008567ffffffffffffffff1667ffffffffffffffff1681526020019081526020016000206004018054610a7c90614835565b80601f0160208091040260200160405190810160405280929190818152602001828054610aa890614835565b8015610af55780601f10610aca57610100808354040283529160200191610af5565b820191906000526020600020905b815481529060010190602001808311610ad857829003601f168201915b505050505090508282600760008767ffffffffffffffff1667ffffffffffffffff1681526020019081526020016000206004019182610b35929190614cbe565b508367ffffffffffffffff167fdb4d6220746a38cbc5335f7e108f7de80f482f4d23350253dfd0917df75a14bf828585604051610b7493929190614dbb565b60405180910390a250505050565b600160009054906101000a900473ffffffffffffffffffffffffffffffffffffffff1673ffffffffffffffffffffffffffffffffffffffff163373ffffffffffffffffffffffffffffffffffffffff1614610c12576040517f08c379a0000000000000000000000000000000000000000000000000000000008152600401610c0990614e40565b60405180910390fd5b60008060009054906101000a900473ffffffffffffffffffffffffffffffffffffffff169050336000806101000a81548173ffffffffffffffffffffffffffffffffffffffff021916908373ffffffffffffffffffffffffffffffffffffffff1602179055506000600160006101000a81548173ffffffffffffffffffffffffffffffffffffffff021916908373ffffffffffffffffffffffffffffffffffffffff1602179055503373ffffffffffffffffffffffffffffffffffffffff168173ffffffffffffffffffffffffffffffffffffffff167f8be0079c531659141344cd1fd0a4f28419497f9722a3daafe3b4186f6b6457e060405160405180910390a350565b60003073ffffffffffffffffffffffffffffffffffffffff168273ffffffffffffffffffffffffffffffffffffffff161480610ded5750600460009054906101000a900473ffffffffffffffffffffffffffffffffffffffff1673ffffffffffffffffffffffffffffffffffffffff166383826b2b84846040518363ffffffff1660e01b8152600401610dab929190614e60565b602060405180830381865afa158015610dc8573d6000803e3d6000fd5b505050506040513d601f19601f82011682018060405250810190610dec9190614e9e565b5b905092915050565b6000610e158267ffffffffffffffff1660056122ef90919063ffffffff16565b9050919050565b60008060009054906101000a900473ffffffffffffffffffffffffffffffffffffffff16905090565b610e4d6120b7565b6000600860009054906101000a900473ffffffffffffffffffffffffffffffffffffffff16905081600860006101000a81548173ffffffffffffffffffffffffffffffffffffffff021916908373ffffffffffffffffffffffffffffffffffffffff1602179055507f81accd0a7023865eaa51b3399dd0eafc488bf3ba238402911e1659cfe860f2288183604051610ee6929190614eec565b60405180910390a15050565b610efa613a9e565b610f0c82610f0790614fbd565b612309565b610f14611fbc565b610fac577f000000000000000000000000000000000000000000000000000000000000000073ffffffffffffffffffffffffffffffffffffffff166342966c6883606001356040518263ffffffff1660e01b8152600401610f759190614acc565b600060405180830381600087803b158015610f8f57600080fd5b505af1158015610fa3573d6000803e3d6000fd5b50505050610fbf565b610fbe82610fb990614fbd565b61246c565b5b3373ffffffffffffffffffffffffffffffffffffffff167f696de425f79f4a40bc6d2122ca50507f0efbeabbff86a84871b7196ab8ea8df783606001356040516110099190614acc565b60405180910390a260405180604001604052806110378460200160208101906110329190613c91565b611206565b8152602001604051806020016040528060008152508152509050919050565b6060611062600261259a565b905090565b6000309050919050565b611079613ab8565b6111d5600760008467ffffffffffffffff1667ffffffffffffffff1681526020019081526020016000206002016040518060a00160405290816000820160009054906101000a90046fffffffffffffffffffffffffffffffff166fffffffffffffffffffffffffffffffff166fffffffffffffffffffffffffffffffff1681526020016000820160109054906101000a900463ffffffff1663ffffffff1663ffffffff1681526020016000820160149054906101000a900460ff161515151581526020016001820160009054906101000a90046fffffffffffffffffffffffffffffffff166fffffffffffffffffffffffffffffffff166fffffffffffffffffffffffffffffffff1681526020016001820160109054906101000a90046fffffffffffffffffffffffffffffffff166fffffffffffffffffffffffffffffffff166fffffffffffffffffffffffffffffffff16815250506125bb565b9050919050565b6000600460009054906101000a900473ffffffffffffffffffffffffffffffffffffffff16905090565b6060600760008367ffffffffffffffff1667ffffffffffffffff168152602001908152602001600020600501805461123d90614835565b80601f016020809104026020016040519081016040528092919081815260200182805461126990614835565b80156112b65780601f1061128b576101008083540402835291602001916112b6565b820191906000526020600020905b81548152906001019060200180831161129957829003601f168201915b50505050509050919050565b6112ca6120b7565b600073ffffffffffffffffffffffffffffffffffffffff168173ffffffffffffffffffffffffffffffffffffffff1603611330576040517f8579befe00000000000000000000000000000000000000000000000000000000815260040160405180910390fd5b6000600460009054906101000a900473ffffffffffffffffffffffffffffffffffffffff16905081600460006101000a81548173ffffffffffffffffffffffffffffffffffffffff021916908373ffffffffffffffffffffffffffffffffffffffff1602179055507f02dc5c233404867c793b749c6d644beb2277536d18a7e7974d3f238e4c6f168481836040516113c9929190614fd0565b60405180910390a15050565b606060006113e36005612675565b90506000815167ffffffffffffffff811115611402576114016145d4565b5b6040519080825280602002602001820160405280156114305781602001602082028036833780820191505090505b50905060005b825181101561149a5782818151811061145257611451614ff9565b5b602002602001015182828151811061146d5761146c614ff9565b5b602002602001019067ffffffffffffffff16908167ffffffffffffffff1681525050806001019050611436565b50809250505090565b6114ab613ab8565b611607600760008467ffffffffffffffff1667ffffffffffffffff1681526020019081526020016000206000016040518060a00160405290816000820160009054906101000a90046fffffffffffffffffffffffffffffffff166fffffffffffffffffffffffffffffffff166fffffffffffffffffffffffffffffffff1681526020016000820160109054906101000a900463ffffffff1663ffffffff1663ffffffff1681526020016000820160149054906101000a900460ff161515151581526020016001820160009054906101000a90046fffffffffffffffffffffffffffffffff166fffffffffffffffffffffffffffffffff166fffffffffffffffffffffffffffffffff1681526020016001820160109054906101000a90046fffffffffffffffffffffffffffffffff166fffffffffffffffffffffffffffffffff166fffffffffffffffffffffffffffffffff16815250506125bb565b9050919050565b6116166120b7565b611621838383612696565b505050565b61162e6120b7565b60005b82829050811015611d8357600083838381811061165157611650614ff9565b5b9050602002810190611663919061502d565b61166c9061512f565b905061168181608001518260200151156127ae565b6116948160a001518260200151156127ae565b806020015115611b50576116c0816000015167ffffffffffffffff16600561290c90919063ffffffff16565b6117055780600001516040517f1d5ad3c50000000000000000000000000000000000000000000000000000000081526004016116fc9190614af6565b60405180910390fd5b6000816040015151148061171e57506000816060015151145b15611755576040517f8579befe00000000000000000000000000000000000000000000000000000000815260040160405180910390fd5b60405180608001604052806040518060a001604052808460800151602001516fffffffffffffffffffffffffffffffff1681526020014263ffffffff168152602001846080015160000151151581526020018460800151602001516fffffffffffffffffffffffffffffffff1681526020018460800151604001516fffffffffffffffffffffffffffffffff1681525081526020016040518060a001604052808460a00151602001516fffffffffffffffffffffffffffffffff1681526020014263ffffffff1681526020018460a0015160000151151581526020018460a00151602001516fffffffffffffffffffffffffffffffff1681526020018460a00151604001516fffffffffffffffffffffffffffffffff16815250815260200182604001518152602001826060015181525060076000836000015167ffffffffffffffff1667ffffffffffffffff16815260200190815260200160002060008201518160000160008201518160000160006101000a8154816fffffffffffffffffffffffffffffffff02191690836fffffffffffffffffffffffffffffffff16021790555060208201518160000160106101000a81548163ffffffff021916908363ffffffff16021790555060408201518160000160146101000a81548160ff02191690831515021790555060608201518160010160006101000a8154816fffffffffffffffffffffffffffffffff02191690836fffffffffffffffffffffffffffffffff16021790555060808201518160010160106101000a8154816fffffffffffffffffffffffffffffffff02191690836fffffffffffffffffffffffffffffffff160217905550505060208201518160020160008201518160000160006101000a8154816fffffffffffffffffffffffffffffffff02191690836fffffffffffffffffffffffffffffffff16021790555060208201518160000160106101000a81548163ffffffff021916908363ffffffff16021790555060408201518160000160146101000a81548160ff02191690831515021790555060608201518160010160006101000a8154816fffffffffffffffffffffffffffffffff02191690836fffffffffffffffffffffffffffffffff16021790555060808201518160010160106101000a8154816fffffffffffffffffffffffffffffffff02191690836fffffffffffffffffffffffffffffffff16021790555050506040820151816004019081611ae49190615142565b506060820151816005019081611afa9190615142565b509050507f8d340f17e19058004c20453540862a9c62778504476f6756755cb33bcd6c38c28160000151826060015183608001518460a00151604051611b439493929190615256565b60405180910390a1611d77565b611b72816000015167ffffffffffffffff16600561292690919063ffffffff16565b611bb75780600001516040517f1e670e4b000000000000000000000000000000000000000000000000000000008152600401611bae9190614af6565b60405180910390fd5b60076000826000015167ffffffffffffffff1667ffffffffffffffff1681526020019081526020016000206000808201600080820160006101000a8154906fffffffffffffffffffffffffffffffff02191690556000820160106101000a81549063ffffffff02191690556000820160146101000a81549060ff02191690556001820160006101000a8154906fffffffffffffffffffffffffffffffff02191690556001820160106101000a8154906fffffffffffffffffffffffffffffffff0219169055505060028201600080820160006101000a8154906fffffffffffffffffffffffffffffffff02191690556000820160106101000a81549063ffffffff02191690556000820160146101000a81549060ff02191690556001820160006101000a8154906fffffffffffffffffffffffffffffffff02191690556001820160106101000a8154906fffffffffffffffffffffffffffffffff02191690555050600482016000611d299190613b25565b600582016000611d399190613b25565b50507f5204aec90a3c794d8e90fded8b46ae9c7c552803e7e832e0c1d358396d8599168160000151604051611d6e9190614af6565b60405180910390a15b50806001019050611631565b505050565b60007f0000000000000000000000000000000000000000000000000000000000000000905090565b60007f0000000000000000000000000000000000000000000000000000000000000000905090565b611de06120b7565b611de981612940565b50565b611df9816080015161079d565b611e3e5780608001516040517f961c9a4f000000000000000000000000000000000000000000000000000000008152600401611e359190614195565b60405180910390fd5b7f000000000000000000000000000000000000000000000000000000000000000073ffffffffffffffffffffffffffffffffffffffff16632cbc26bb826020015167ffffffffffffffff1660801b6040518263ffffffff1660e01b8152600401611ea891906152de565b602060405180830381865afa158015611ec5573d6000803e3d6000fd5b505050506040513d601f19601f82011682018060405250810190611ee99190614e9e565b15611f20576040517f53ad11d800000000000000000000000000000000000000000000000000000000815260040160405180910390fd5b611f2d8160200151612a6c565b6000611f3c826020015161069d565b9050600081511480611f60575080805190602001208260a001518051906020012014155b15611fa6578160a001516040517f24eb47e5000000000000000000000000000000000000000000000000000000008152600401611f9d9190613d4e565b60405180910390fd5b611fb882602001518360600151612b98565b5050565b60008073ffffffffffffffffffffffffffffffffffffffff16600860009054906101000a900473ffffffffffffffffffffffffffffffffffffffff1673ffffffffffffffffffffffffffffffffffffffff161415905090565b600860009054906101000a900473ffffffffffffffffffffffffffffffffffffffff1673ffffffffffffffffffffffffffffffffffffffff16638627fad6826000015133846060015185602001516040518563ffffffff1660e01b8152600401612082949392919061531f565b600060405180830381600087803b15801561209c57600080fd5b505af11580156120b0573d6000803e3d6000fd5b5050505050565b60008054906101000a900473ffffffffffffffffffffffffffffffffffffffff1673ffffffffffffffffffffffffffffffffffffffff163373ffffffffffffffffffffffffffffffffffffffff1614612145576040517f08c379a000000000000000000000000000000000000000000000000000000000815260040161213c906153ca565b60405180910390fd5b565b7f000000000000000000000000000000000000000000000000000000000000000061219e576040517f35f4a7b300000000000000000000000000000000000000000000000000000000815260040160405180910390fd5b60005b82518110156122265760008382815181106121bf576121be614ff9565b5b602002602001015190506121dd816002612bfa90919063ffffffff16565b1561221a577f800671136ab6cfee9fbe5ed1fb7ca417811aca3cf864800d127b927adedf7566816040516122119190614195565b60405180910390a15b508060010190506121a1565b5060005b81518110156122ea57600082828151811061224857612247614ff9565b5b60200260200101519050600073ffffffffffffffffffffffffffffffffffffffff168173ffffffffffffffffffffffffffffffffffffffff160361228c57506122df565b6122a0816002612c2a90919063ffffffff16565b156122dd577f2640d4d76caf8bf478aabfa982fa4e1c4eb71a37f93cd15e80dbc657911546d8816040516122d49190614195565b60405180910390a15b505b80600101905061222a565b505050565b6000612301836000018360001b612c5a565b905092915050565b612316816080015161079d565b61235b5780608001516040517f961c9a4f0000000000000000000000000000000000000000000000000000000081526004016123529190614195565b60405180910390fd5b7f000000000000000000000000000000000000000000000000000000000000000073ffffffffffffffffffffffffffffffffffffffff16632cbc26bb826020015167ffffffffffffffff1660801b6040518263ffffffff1660e01b81526004016123c591906152de565b602060405180830381865afa1580156123e2573d6000803e3d6000fd5b505050506040513d601f19601f820116820180604052508101906124069190614e9e565b1561243d576040517f53ad11d800000000000000000000000000000000000000000000000000000000815260040160405180910390fd5b61244a8160400151612c7d565b6124578160200151612d00565b61246981602001518260600151612e58565b50565b6124dd600860009054906101000a900473ffffffffffffffffffffffffffffffffffffffff1682606001517f000000000000000000000000000000000000000000000000000000000000000073ffffffffffffffffffffffffffffffffffffffff16612eba9092919063ffffffff16565b600860009054906101000a900473ffffffffffffffffffffffffffffffffffffffff1673ffffffffffffffffffffffffffffffffffffffff16639687544582604001518360000151846060015185602001516040518563ffffffff1660e01b815260040161254e94939291906153ea565b6000604051808303816000875af115801561256d573d6000803e3d6000fd5b505050506040513d6000823e3d601f19601f8201168201806040525081019061259691906154b9565b5050565b606060006125aa83600001612f40565b905060608190508092505050919050565b6125c3613ab8565b61262682606001516fffffffffffffffffffffffffffffffff1683600001516fffffffffffffffffffffffffffffffff16846020015163ffffffff164261260a9190615531565b85608001516fffffffffffffffffffffffffffffffff16612f9c565b82600001906fffffffffffffffffffffffffffffffff1690816fffffffffffffffffffffffffffffffff168152505042826020019063ffffffff16908163ffffffff1681525050819050919050565b6060600061268583600001612f40565b905060608190508092505050919050565b61269f83610df5565b6126e057826040517f1e670e4b0000000000000000000000000000000000000000000000000000000081526004016126d79190614af6565b60405180910390fd5b6126eb8260006127ae565b61272782600760008667ffffffffffffffff1667ffffffffffffffff168152602001908152602001600020600001612fc890919063ffffffff16565b6127328160006127ae565b61276e81600760008667ffffffffffffffff1667ffffffffffffffff168152602001908152602001600020600201612fc890919063ffffffff16565b7f0350d63aa5f270e01729d00d627eeb8f3429772b1818c016c66a588a864f912b8383836040516127a193929190615565565b60405180910390a1505050565b8160000151156128885781602001516fffffffffffffffffffffffffffffffff1682604001516fffffffffffffffffffffffffffffffff161015806128095750600082604001516fffffffffffffffffffffffffffffffff16145b1561284b57816040517f8020d124000000000000000000000000000000000000000000000000000000008152600401612842919061559c565b60405180910390fd5b8015612883576040517f433fc33d00000000000000000000000000000000000000000000000000000000815260040160405180910390fd5b612908565b600082604001516fffffffffffffffffffffffffffffffff161415806128c55750600082602001516fffffffffffffffffffffffffffffffff1614155b1561290757816040517fd68af9cc0000000000000000000000000000000000000000000000000000000081526004016128fe919061559c565b60405180910390fd5b5b5050565b600061291e836000018360001b613260565b905092915050565b6000612938836000018360001b6132d0565b905092915050565b3373ffffffffffffffffffffffffffffffffffffffff168173ffffffffffffffffffffffffffffffffffffffff16036129ae576040517f08c379a00000000000000000000000000000000000000000000000000000000081526004016129a590615603565b60405180910390fd5b80600160006101000a81548173ffffffffffffffffffffffffffffffffffffffff021916908373ffffffffffffffffffffffffffffffffffffffff1602179055508073ffffffffffffffffffffffffffffffffffffffff1660008054906101000a900473ffffffffffffffffffffffffffffffffffffffff1673ffffffffffffffffffffffffffffffffffffffff167fed8889f560326eb138920d842192f0eb3dd22b4f139c87a2c57538e05bae127860405160405180910390a350565b612a7581610df5565b612ab657806040517fa9902c7e000000000000000000000000000000000000000000000000000000008152600401612aad9190614af6565b60405180910390fd5b600460009054906101000a900473ffffffffffffffffffffffffffffffffffffffff1673ffffffffffffffffffffffffffffffffffffffff166383826b2b82336040518363ffffffff1660e01b8152600401612b13929190614e60565b602060405180830381865afa158015612b30573d6000803e3d6000fd5b505050506040513d601f19601f82011682018060405250810190612b549190614e9e565b612b9557336040517f728fe07b000000000000000000000000000000000000000000000000000000008152600401612b8c9190614195565b60405180910390fd5b50565b612bf6817f0000000000000000000000000000000000000000000000000000000000000000600760008667ffffffffffffffff1667ffffffffffffffff1681526020019081526020016000206002016133e49092919063ffffffff16565b5050565b6000612c22836000018373ffffffffffffffffffffffffffffffffffffffff1660001b6132d0565b905092915050565b6000612c52836000018373ffffffffffffffffffffffffffffffffffffffff1660001b613260565b905092915050565b600080836001016000848152602001908152602001600020541415905092915050565b7f00000000000000000000000000000000000000000000000000000000000000008015612cbb5750612cb98160026137ae90919063ffffffff16565b155b15612cfd57806040517fd0d25976000000000000000000000000000000000000000000000000000000008152600401612cf49190614195565b60405180910390fd5b50565b612d0981610df5565b612d4a57806040517fa9902c7e000000000000000000000000000000000000000000000000000000008152600401612d419190614af6565b60405180910390fd5b600460009054906101000a900473ffffffffffffffffffffffffffffffffffffffff1673ffffffffffffffffffffffffffffffffffffffff1663a8d87a3b826040518263ffffffff1660e01b8152600401612da59190614af6565b602060405180830381865afa158015612dc2573d6000803e3d6000fd5b505050506040513d601f19601f82011682018060405250810190612de69190615638565b73ffffffffffffffffffffffffffffffffffffffff163373ffffffffffffffffffffffffffffffffffffffff1614612e5557336040517f728fe07b000000000000000000000000000000000000000000000000000000008152600401612e4c9190614195565b60405180910390fd5b50565b612eb6817f0000000000000000000000000000000000000000000000000000000000000000600760008667ffffffffffffffff1667ffffffffffffffff1681526020019081526020016000206000016133e49092919063ffffffff16565b5050565b612f3b8363a9059cbb60e01b8484604051602401612ed9929190614aa3565b604051602081830303815290604052907bffffffffffffffffffffffffffffffffffffffffffffffffffffffff19166020820180517bffffffffffffffffffffffffffffffffffffffffffffffffffffffff83818316178352505050506137de565b505050565b606081600001805480602002602001604051908101604052809291908181526020018280548015612f9057602002820191906000526020600020905b815481526020019060010190808311612f7c575b50505050509050919050565b6000612fbe858385612fae9190615665565b86612fb991906156a7565b6138a5565b9050949350505050565b60008260000160109054906101000a900463ffffffff1663ffffffff1642612ff09190615531565b9050600081146130fa5761309c8360010160009054906101000a90046fffffffffffffffffffffffffffffffff166fffffffffffffffffffffffffffffffff168460000160009054906101000a90046fffffffffffffffffffffffffffffffff166fffffffffffffffffffffffffffffffff16838660010160109054906101000a90046fffffffffffffffffffffffffffffffff166fffffffffffffffffffffffffffffffff16612f9c565b8360000160006101000a8154816fffffffffffffffffffffffffffffffff02191690836fffffffffffffffffffffffffffffffff160217905550428360000160106101000a81548163ffffffff021916908363ffffffff1602179055505b61314c82602001516fffffffffffffffffffffffffffffffff168460000160009054906101000a90046fffffffffffffffffffffffffffffffff166fffffffffffffffffffffffffffffffff166138a5565b8360000160006101000a8154816fffffffffffffffffffffffffffffffff02191690836fffffffffffffffffffffffffffffffff16021790555081600001518360000160146101000a81548160ff02191690831515021790555081602001518360010160006101000a8154816fffffffffffffffffffffffffffffffff02191690836fffffffffffffffffffffffffffffffff16021790555081604001518360010160106101000a8154816fffffffffffffffffffffffffffffffff02191690836fffffffffffffffffffffffffffffffff1602179055507f9ea3374b67bf275e6bb9c8ae68f9cae023e1c528b4b27e092f0bb209d3531c1982604051613253919061559c565b60405180910390a1505050565b600061326c8383612c5a565b6132c55782600001829080600181540180825580915050600190039060005260206000200160009091909190915055826000018054905083600101600084815260200190815260200160002081905550600190506132ca565b600090505b92915050565b600080836001016000848152602001908152602001600020549050600081146133d85760006001826133029190615531565b905060006001866000018054905061331a9190615531565b905081811461338957600086600001828154811061333b5761333a614ff9565b5b906000526020600020015490508087600001848154811061335f5761335e614ff9565b5b90600052602060002001819055508387600101600083815260200190815260200160002081905550505b8560000180548061339d5761339c6156db565b5b6001900381819060005260206000200160009055905585600101600086815260200190815260200160002060009055600193505050506133de565b60009150505b92915050565b8260000160149054906101000a900460ff1615806134025750600082145b6137a95760008360000160009054906101000a90046fffffffffffffffffffffffffffffffff166fffffffffffffffffffffffffffffffff16905060008460010160009054906101000a90046fffffffffffffffffffffffffffffffff166fffffffffffffffffffffffffffffffff16905060008560000160109054906101000a900463ffffffff1663ffffffff164261349c9190615531565b90506000811461354457818311156134e0576040517f9725942a00000000000000000000000000000000000000000000000000000000815260040160405180910390fd5b61351e8284838960010160109054906101000a90046fffffffffffffffffffffffffffffffff166fffffffffffffffffffffffffffffffff16612f9c565b9250428660000160106101000a81548163ffffffff021916908363ffffffff1602179055505b8482101561360057600073ffffffffffffffffffffffffffffffffffffffff168473ffffffffffffffffffffffffffffffffffffffff16036135bf5781856040517ff94ebcd10000000000000000000000000000000000000000000000000000000081526004016135b692919061570a565b60405180910390fd5b8185856040517f1a76572a0000000000000000000000000000000000000000000000000000000081526004016135f793929190615733565b60405180910390fd5b848310156137255760008660010160109054906101000a90046fffffffffffffffffffffffffffffffff166fffffffffffffffffffffffffffffffff16905060008160018361364f9190615531565b868961365b9190615531565b61366591906156a7565b61366f9190615799565b9050600073ffffffffffffffffffffffffffffffffffffffff168673ffffffffffffffffffffffffffffffffffffffff16036136e45780856040517f15279c080000000000000000000000000000000000000000000000000000000081526004016136db92919061570a565b60405180910390fd5b8085876040517fd0c8d23a00000000000000000000000000000000000000000000000000000000815260040161371c93929190615733565b60405180910390fd5b84836137319190615531565b9250828660000160006101000a8154816fffffffffffffffffffffffffffffffff02191690836fffffffffffffffffffffffffffffffff1602179055507f1871cdf8010e63f2eb8384381a68dfa7416dc571a5517e66e88b2d2d0c0a690a8560405161379d9190614acc565b60405180910390a15050505b505050565b60006137d6836000018373ffffffffffffffffffffffffffffffffffffffff1660001b612c5a565b905092915050565b6000613840826040518060400160405280602081526020017f5361666545524332303a206c6f772d6c6576656c2063616c6c206661696c65648152508573ffffffffffffffffffffffffffffffffffffffff166138be9092919063ffffffff16565b90506000815111156138a057808060200190518101906138609190614e9e565b61389f576040517f08c379a00000000000000000000000000000000000000000000000000000000081526004016138969061583c565b60405180910390fd5b5b505050565b60008183106138b457816138b6565b825b905092915050565b60606138cd84846000856138d6565b90509392505050565b60608247101561391b576040517f08c379a0000000000000000000000000000000000000000000000000000000008152600401613912906158ce565b60405180910390fd5b6000808673ffffffffffffffffffffffffffffffffffffffff168587604051613944919061592a565b60006040518083038185875af1925050503d8060008114613981576040519150601f19603f3d011682016040523d82523d6000602084013e613986565b606091505b5091509150613997878383876139a3565b92505050949350505050565b60608315613a055760008351036139fd576139bd85613a18565b6139fc576040517f08c379a00000000000000000000000000000000000000000000000000000000081526004016139f39061598d565b60405180910390fd5b5b829050613a10565b613a0f8383613a3b565b5b949350505050565b6000808273ffffffffffffffffffffffffffffffffffffffff163b119050919050565b600082511115613a4e5781518083602001fd5b806040517f08c379a0000000000000000000000000000000000000000000000000000000008152600401613a829190613dc5565b60405180910390fd5b6040518060200160405280600081525090565b604051806040016040528060608152602001606081525090565b6040518060a0016040528060006fffffffffffffffffffffffffffffffff168152602001600063ffffffff16815260200160001515815260200160006fffffffffffffffffffffffffffffffff16815260200160006fffffffffffffffffffffffffffffffff1681525090565b508054613b3190614835565b6000825580601f10613b435750613b62565b601f016020900490600052602060002090810190613b619190613b65565b5b50565b5b80821115613b7e576000816000905550600101613b66565b5090565b6000604051905090565b600080fd5b600080fd5b60007fffffffff0000000000000000000000000000000000000000000000000000000082169050919050565b613bcb81613b96565b8114613bd657600080fd5b50565b600081359050613be881613bc2565b92915050565b600060208284031215613c0457613c03613b8c565b5b6000613c1284828501613bd9565b91505092915050565b60008115159050919050565b613c3081613c1b565b82525050565b6000602082019050613c4b6000830184613c27565b92915050565b600067ffffffffffffffff82169050919050565b613c6e81613c51565b8114613c7957600080fd5b50565b600081359050613c8b81613c65565b92915050565b600060208284031215613ca757613ca6613b8c565b5b6000613cb584828501613c7c565b91505092915050565b600081519050919050565b600082825260208201905092915050565b60005b83811015613cf8578082015181840152602081019050613cdd565b60008484015250505050565b6000601f19601f8301169050919050565b6000613d2082613cbe565b613d2a8185613cc9565b9350613d3a818560208601613cda565b613d4381613d04565b840191505092915050565b60006020820190508181036000830152613d688184613d15565b905092915050565b600081519050919050565b600082825260208201905092915050565b6000613d9782613d70565b613da18185613d7b565b9350613db1818560208601613cda565b613dba81613d04565b840191505092915050565b60006020820190508181036000830152613ddf8184613d8c565b905092915050565b600073ffffffffffffffffffffffffffffffffffffffff82169050919050565b6000819050919050565b6000613e2c613e27613e2284613de7565b613e07565b613de7565b9050919050565b6000613e3e82613e11565b9050919050565b6000613e5082613e33565b9050919050565b613e6081613e45565b82525050565b6000602082019050613e7b6000830184613e57565b92915050565b6000613e8c82613de7565b9050919050565b613e9c81613e81565b8114613ea757600080fd5b50565b600081359050613eb981613e93565b92915050565b600060208284031215613ed557613ed4613b8c565b5b6000613ee384828501613eaa565b91505092915050565b600080fd5b60006101008284031215613f0857613f07613eec565b5b81905092915050565b600060208284031215613f2757613f26613b8c565b5b600082013567ffffffffffffffff811115613f4557613f44613b91565b5b613f5184828501613ef1565b91505092915050565b6000819050919050565b613f6d81613f5a565b82525050565b602082016000820151613f896000850182613f64565b50505050565b6000602082019050613fa46000830184613f73565b92915050565b600080fd5b600080fd5b600080fd5b60008083601f840112613fcf57613fce613faa565b5b8235905067ffffffffffffffff811115613fec57613feb613faf565b5b60208301915083602082028301111561400857614007613fb4565b5b9250929050565b6000806000806040858703121561402957614028613b8c565b5b600085013567ffffffffffffffff81111561404757614046613b91565b5b61405387828801613fb9565b9450945050602085013567ffffffffffffffff81111561407657614075613b91565b5b61408287828801613fb9565b925092505092959194509250565b60008083601f8401126140a6576140a5613faa565b5b8235905067ffffffffffffffff8111156140c3576140c2613faf565b5b6020830191508360018202830111156140df576140de613fb4565b5b9250929050565b6000806000604084860312156140ff576140fe613b8c565b5b600061410d86828701613c7c565b935050602084013567ffffffffffffffff81111561412e5761412d613b91565b5b61413a86828701614090565b92509250509250925092565b6000806040838503121561415d5761415c613b8c565b5b600061416b85828601613c7c565b925050602061417c85828601613eaa565b9150509250929050565b61418f81613e81565b82525050565b60006020820190506141aa6000830184614186565b92915050565b60006141bb82613e81565b9050919050565b6141cb816141b0565b81146141d657600080fd5b50565b6000813590506141e8816141c2565b92915050565b60006020828403121561420457614203613b8c565b5b6000614212848285016141d9565b91505092915050565b600060a0828403121561423157614230613eec565b5b81905092915050565b6000602082840312156142505761424f613b8c565b5b600082013567ffffffffffffffff81111561426e5761426d613b91565b5b61427a8482850161421b565b91505092915050565b600082825260208201905092915050565b600061429f82613cbe565b6142a98185614283565b93506142b9818560208601613cda565b6142c281613d04565b840191505092915050565b600060408301600083015184820360008601526142ea8282614294565b915050602083015184820360208601526143048282614294565b9150508091505092915050565b6000602082019050818103600083015261432b81846142cd565b905092915050565b600081519050919050565b600082825260208201905092915050565b6000819050602082019050919050565b61436881613e81565b82525050565b600061437a838361435f565b60208301905092915050565b6000602082019050919050565b600061439e82614333565b6143a8818561433e565b93506143b38361434f565b8060005b838110156143e45781516143cb888261436e565b97506143d683614386565b9250506001810190506143b7565b5085935050505092915050565b6000602082019050818103600083015261440b8184614393565b905092915050565b60006fffffffffffffffffffffffffffffffff82169050919050565b61443881614413565b82525050565b600063ffffffff82169050919050565b6144578161443e565b82525050565b61446681613c1b565b82525050565b60a082016000820151614482600085018261442f565b506020820151614495602085018261444e565b5060408201516144a8604085018261445d565b5060608201516144bb606085018261442f565b5060808201516144ce608085018261442f565b50505050565b600060a0820190506144e9600083018461446c565b92915050565b600081519050919050565b600082825260208201905092915050565b6000819050602082019050919050565b61452481613c51565b82525050565b6000614536838361451b565b60208301905092915050565b6000602082019050919050565b600061455a826144ef565b61456481856144fa565b935061456f8361450b565b8060005b838110156145a0578151614587888261452a565b975061459283614542565b925050600181019050614573565b5085935050505092915050565b600060208201905081810360008301526145c7818461454f565b905092915050565b600080fd5b7f4e487b7100000000000000000000000000000000000000000000000000000000600052604160045260246000fd5b61460c82613d04565b810181811067ffffffffffffffff8211171561462b5761462a6145d4565b5b80604052505050565b600061463e613b82565b905061464a8282614603565b919050565b600080fd5b61465d81613c1b565b811461466857600080fd5b50565b60008135905061467a81614654565b92915050565b61468981614413565b811461469457600080fd5b50565b6000813590506146a681614680565b92915050565b6000606082840312156146c2576146c16145cf565b5b6146cc6060614634565b905060006146dc8482850161466b565b60008301525060206146f084828501614697565b602083015250604061470484828501614697565b60408301525092915050565b600080600060e0848603121561472957614728613b8c565b5b600061473786828701613c7c565b9350506020614748868287016146ac565b9250506080614759868287016146ac565b9150509250925092565b60008083601f84011261477957614778613faa565b5b8235905067ffffffffffffffff81111561479657614795613faf565b5b6020830191508360208202830111156147b2576147b1613fb4565b5b9250929050565b600080602083850312156147d0576147cf613b8c565b5b600083013567ffffffffffffffff8111156147ee576147ed613b91565b5b6147fa85828601614763565b92509250509250929050565b7f4e487b7100000000000000000000000000000000000000000000000000000000600052602260045260246000fd5b6000600282049050600182168061484d57607f821691505b6020821081036148605761485f614806565b5b50919050565b600080fd5b600067ffffffffffffffff821115614886576148856145d4565b5b61488f82613d04565b9050602081019050919050565b82818337600083830152505050565b60006148be6148b98461486b565b614634565b9050828152602081018484840111156148da576148d9614866565b5b6148e584828561489c565b509392505050565b600082601f83011261490257614901613faa565b5b81356149128482602086016148ab565b91505092915050565b61492481613f5a565b811461492f57600080fd5b50565b6000813590506149418161491b565b92915050565b6000610100828403121561495e5761495d6145cf565b5b614969610100614634565b9050600082013567ffffffffffffffff8111156149895761498861464f565b5b614995848285016148ed565b60008301525060206149a984828501613c7c565b60208301525060406149bd84828501613eaa565b60408301525060606149d184828501614932565b60608301525060806149e584828501613eaa565b60808301525060a082013567ffffffffffffffff811115614a0957614a0861464f565b5b614a15848285016148ed565b60a08301525060c082013567ffffffffffffffff811115614a3957614a3861464f565b5b614a45848285016148ed565b60c08301525060e082013567ffffffffffffffff811115614a6957614a6861464f565b5b614a75848285016148ed565b60e08301525092915050565b6000614a8d3683614947565b9050919050565b614a9d81613f5a565b82525050565b6000604082019050614ab86000830185614186565b614ac56020830184614a94565b9392505050565b6000602082019050614ae16000830184614a94565b92915050565b614af081613c51565b82525050565b6000602082019050614b0b6000830184614ae7565b92915050565b600082905092915050565b60008190508160005260206000209050919050565b60006020601f8301049050919050565b600082821b905092915050565b600060088302614b7e7fffffffffffffffffffffffffffffffffffffffffffffffffffffffffffffffff82614b41565b614b888683614b41565b95508019841693508086168417925050509392505050565b6000614bbb614bb6614bb184613f5a565b613e07565b613f5a565b9050919050565b6000819050919050565b614bd583614ba0565b614be9614be182614bc2565b848454614b4e565b825550505050565b600090565b614bfe614bf1565b614c09818484614bcc565b505050565b5b81811015614c2d57614c22600082614bf6565b600181019050614c0f565b5050565b601f821115614c7257614c4381614b1c565b614c4c84614b31565b81016020851015614c5b578190505b614c6f614c6785614b31565b830182614c0e565b50505b505050565b600082821c905092915050565b6000614c9560001984600802614c77565b1980831691505092915050565b6000614cae8383614c84565b9150826002028217905092915050565b614cc88383614b11565b67ffffffffffffffff811115614ce157614ce06145d4565b5b614ceb8254614835565b614cf6828285614c31565b6000601f831160018114614d255760008415614d13578287013590505b614d1d8582614ca2565b865550614d85565b601f198416614d3386614b1c565b60005b82811015614d5b57848901358255600182019150602085019450602081019050614d36565b86831015614d785784890135614d74601f891682614c84565b8355505b6001600288020188555050505b50505050505050565b6000614d9a8385613cc9565b9350614da783858461489c565b614db083613d04565b840190509392505050565b60006040820190508181036000830152614dd58186613d15565b90508181036020830152614dea818486614d8e565b9050949350505050565b7f4d7573742062652070726f706f736564206f776e657200000000000000000000600082015250565b6000614e2a601683613d7b565b9150614e3582614df4565b602082019050919050565b60006020820190508181036000830152614e5981614e1d565b9050919050565b6000604082019050614e756000830185614ae7565b614e826020830184614186565b9392505050565b600081519050614e9881614654565b92915050565b600060208284031215614eb457614eb3613b8c565b5b6000614ec284828501614e89565b91505092915050565b6000614ed682613e33565b9050919050565b614ee681614ecb565b82525050565b6000604082019050614f016000830185614edd565b614f0e6020830184614edd565b9392505050565b600060a08284031215614f2b57614f2a6145cf565b5b614f3560a0614634565b9050600082013567ffffffffffffffff811115614f5557614f5461464f565b5b614f61848285016148ed565b6000830152506020614f7584828501613c7c565b6020830152506040614f8984828501613eaa565b6040830152506060614f9d84828501614932565b6060830152506080614fb184828501613eaa565b60808301525092915050565b6000614fc93683614f15565b9050919050565b6000604082019050614fe56000830185614186565b614ff26020830184614186565b9392505050565b7f4e487b7100000000000000000000000000000000000000000000000000000000600052603260045260246000fd5b600080fd5b6000823560016101400383360303811261504a57615049615028565b5b80830191505092915050565b6000610140828403121561506d5761506c6145cf565b5b61507760c0614634565b9050600061508784828501613c7c565b600083015250602061509b8482850161466b565b602083015250604082013567ffffffffffffffff8111156150bf576150be61464f565b5b6150cb848285016148ed565b604083015250606082013567ffffffffffffffff8111156150ef576150ee61464f565b5b6150fb848285016148ed565b606083015250608061510f848285016146ac565b60808301525060e0615123848285016146ac565b60a08301525092915050565b600061513b3683615056565b9050919050565b61514b82613cbe565b67ffffffffffffffff811115615164576151636145d4565b5b61516e8254614835565b615179828285614c31565b600060209050601f8311600181146151ac576000841561519a578287015190505b6151a48582614ca2565b86555061520c565b601f1984166151ba86614b1c565b60005b828110156151e2578489015182556001820191506020850194506020810190506151bd565b868310156151ff57848901516151fb601f891682614c84565b8355505b6001600288020188555050505b505050505050565b60608201600082015161522a600085018261445d565b50602082015161523d602085018261442f565b506040820151615250604085018261442f565b50505050565b60006101008201905061526c6000830187614ae7565b818103602083015261527e8186613d15565b905061528d6040830185615214565b61529a60a0830184615214565b95945050505050565b60007fffffffffffffffffffffffffffffffff0000000000000000000000000000000082169050919050565b6152d8816152a3565b82525050565b60006020820190506152f360008301846152cf565b92915050565b50565b6000615309600083613cc9565b9150615314826152f9565b600082019050919050565b600060a08201905081810360008301526153398187613d15565b90506153486020830186614186565b6153556040830185614a94565b6153626060830184614ae7565b8181036080830152615373816152fc565b905095945050505050565b7f4f6e6c792063616c6c61626c65206279206f776e657200000000000000000000600082015250565b60006153b4601683613d7b565b91506153bf8261537e565b602082019050919050565b600060208201905081810360008301526153e3816153a7565b9050919050565b600060a0820190506153ff6000830187614186565b81810360208301526154118186613d15565b90506154206040830185614a94565b61542d6060830184614ae7565b818103608083015261543e816152fc565b905095945050505050565b600061545c6154578461486b565b614634565b90508281526020810184848401111561547857615477614866565b5b615483848285613cda565b509392505050565b600082601f8301126154a05761549f613faa565b5b81516154b0848260208601615449565b91505092915050565b6000602082840312156154cf576154ce613b8c565b5b600082015167ffffffffffffffff8111156154ed576154ec613b91565b5b6154f98482850161548b565b91505092915050565b7f4e487b7100000000000000000000000000000000000000000000000000000000600052601160045260246000fd5b600061553c82613f5a565b915061554783613f5a565b925082820390508181111561555f5761555e615502565b5b92915050565b600060e08201905061557a6000830186614ae7565b6155876020830185615214565b6155946080830184615214565b949350505050565b60006060820190506155b16000830184615214565b92915050565b7f43616e6e6f74207472616e7366657220746f2073656c66000000000000000000600082015250565b60006155ed601783613d7b565b91506155f8826155b7565b602082019050919050565b6000602082019050818103600083015261561c816155e0565b9050919050565b60008151905061563281613e93565b92915050565b60006020828403121561564e5761564d613b8c565b5b600061565c84828501615623565b91505092915050565b600061567082613f5a565b915061567b83613f5a565b925082820261568981613f5a565b915082820484148315176156a05761569f615502565b5b5092915050565b60006156b282613f5a565b91506156bd83613f5a565b92508282019050808211156156d5576156d4615502565b5b92915050565b7f4e487b7100000000000000000000000000000000000000000000000000000000600052603160045260246000fd5b600060408201905061571f6000830185614a94565b61572c6020830184614a94565b9392505050565b60006060820190506157486000830186614a94565b6157556020830185614a94565b6157626040830184614186565b949350505050565b7f4e487b7100000000000000000000000000000000000000000000000000000000600052601260045260246000fd5b60006157a482613f5a565b91506157af83613f5a565b9250826157bf576157be61576a565b5b828204905092915050565b7f5361666545524332303a204552433230206f7065726174696f6e20646964206e60008201527f6f74207375636365656400000000000000000000000000000000000000000000602082015250565b6000615826602a83613d7b565b9150615831826157ca565b604082019050919050565b6000602082019050818103600083015261585581615819565b9050919050565b7f416464726573733a20696e73756666696369656e742062616c616e636520666f60008201527f722063616c6c0000000000000000000000000000000000000000000000000000602082015250565b60006158b8602683613d7b565b91506158c38261585c565b604082019050919050565b600060208201905081810360008301526158e7816158ab565b9050919050565b600081905092915050565b600061590482613cbe565b61590e81856158ee565b935061591e818560208601613cda565b80840191505092915050565b600061593682846158f9565b915081905092915050565b7f416464726573733a2063616c6c20746f206e6f6e2d636f6e7472616374000000600082015250565b6000615977601d83613d7b565b915061598282615941565b602082019050919050565b600060208201905081810360008301526159a68161596a565b905091905056fe4275726e4d696e74546f6b656e506f6f6c416e6450726f787920312e352e302d646576a164736f6c6343000818000a","linkReferences":{}},"methodIdentifiers":{"acceptOwnership()":"79ba5097","applyAllowListUpdates(address[],address[])":"54c8a4f3","applyChainUpdates((uint64,bool,bytes,bytes,(bool,uint128,uint128),(bool,uint128,uint128))[])":"db6327dc","getAllowList()":"a7cd63b7","getAllowListEnabled()":"e0351e13","getCurrentInboundRateLimiterState(uint64)":"af58d59f","getCurrentOutboundRateLimiterState(uint64)":"c75eea9c","getOnRamp(uint64)":"a8d87a3b","getRemotePool(uint64)":"0a2fd493","getRemoteToken(uint64)":"b7946580","getRmnProxy()":"dc0bd971","getRouter()":"b0f479a1","getSupportedChains()":"c4bffe2b","getToken()":"21df0da7","isOffRamp(uint64,address)":"83826b2b","isSupportedChain(uint64)":"8926f54f","isSupportedToken(address)":"240028e8","lockOrBurn((bytes,uint64,address,uint256,address))":"9a4575b9","owner()":"8da5cb5b","releaseOrMint((bytes,uint64,address,uint256,address,bytes,bytes,bytes))":"39077537","setChainRateLimiterConfig(uint64,(bool,uint128,uint128),(bool,uint128,uint128))":"cf7401f3","setPreviousPool(address)":"9766b932","setRemotePool(uint64,bytes)":"78a010b2","setRouter(address)":"c0d78655","supportsInterface(bytes4)":"01ffc9a7","transferOwnership(address)":"f2fde38b","typeAndVersion()":"181f5a77"},"id":43}