{"abi":[{"type":"function","name":"getExpectedNextSequenceNumber","inputs":[],"outputs":[{"name":"","type":"uint64","internalType":"uint64"}],"stateMutability":"view"},{"type":"function","name":"pause","inputs":[],"outputs":[],"stateMutability":"nonpayable"},{"type":"function","name":"paused","inputs":[],"outputs":[{"name":"","type":"bool","internalType":"bool"}],"stateMutability":"view"},{"type":"function","name":"setExpectedNextSequenceNumber","inputs":[{"name":"nextSeqNum","type":"uint64","internalType":"uint64"}],"outputs":[],"stateMutability":"nonpayable"},{"type":"function","name":"verify","inputs":[{"name":"","type":"bytes32[]","internalType":"bytes32[]"},{"name":"","type":"bytes32[]","internalType":"bytes32[]"},{"name":"","type":"uint256","internalType":"uint256"}],"outputs":[{"name":"timestamp","type":"uint256","internalType":"uint256"}],"stateMutability":"view"},{"type":"error","name":"PausedError","inputs":[]}],"bytecode":{"object":"0x608060405260016000806101000a81548167ffffffffffffffff021916908367ffffffffffffffff16021790555060008060086101000a81548160ff02191690831515021790555034801561005357600080fd5b506103f5806100636000396000f3fe608060405234801561001057600080fd5b50600436106100575760003560e01c8063320488751461005c5780634120fccd1461008c5780635c975abb146100aa5780638456cb59146100c8578063ca4908cb146100d2575b600080fd5b6100766004803603810190610071919061025c565b6100ee565b6040516100839190610300565b60405180910390f35b61009461013c565b6040516100a1919061033e565b60405180910390f35b6100b2610159565b6040516100bf9190610374565b60405180910390f35b6100d061016f565b005b6100ec60048036038101906100e791906103bb565b61018c565b005b60006100f8610159565b1561012f576040517feced32bc00000000000000000000000000000000000000000000000000000000815260040160405180910390fd5b6001905095945050505050565b60008060009054906101000a900467ffffffffffffffff16905090565b60008060089054906101000a900460ff16905090565b6001600060086101000a81548160ff021916908315150217905550565b806000806101000a81548167ffffffffffffffff021916908367ffffffffffffffff16021790555050565b600080fd5b600080fd5b600080fd5b600080fd5b600080fd5b60008083601f8401126101e6576101e56101c1565b5b8235905067ffffffffffffffff811115610203576102026101c6565b5b60208301915083602082028301111561021f5761021e6101cb565b5b9250929050565b6000819050919050565b61023981610226565b811461024457600080fd5b50565b60008135905061025681610230565b92915050565b600080600080600060608688031215610278576102776101b7565b5b600086013567ffffffffffffffff811115610296576102956101bc565b5b6102a2888289016101d0565b9550955050602086013567ffffffffffffffff8111156102c5576102c46101bc565b5b6102d1888289016101d0565b935093505060406102e488828901610247565b9150509295509295909350565b6102fa81610226565b82525050565b600060208201905061031560008301846102f1565b92915050565b600067ffffffffffffffff82169050919050565b6103388161031b565b82525050565b6000602082019050610353600083018461032f565b92915050565b60008115159050919050565b61036e81610359565b82525050565b60006020820190506103896000830184610365565b92915050565b6103988161031b565b81146103a357600080fd5b50565b6000813590506103b58161038f565b92915050565b6000602082840312156103d1576103d06101b7565b5b60006103df848285016103a6565b9150509291505056fea164736f6c6343000818000a","linkReferences":{}},"methodIdentifiers":{"getExpectedNextSequenceNumber()":"4120fccd","pause()":"8456cb59","paused()":"5c975abb","setExpectedNextSequenceNumber(uint64)":"ca4908cb","verify(bytes32[],bytes32[],uint256)":"32048875"},"id":106}