{"abi":[{"type":"function","name":"acceptAdminRole","inputs":[{"name":"localToken","type":"address","internalType":"address"}],"outputs":[],"stateMutability":"nonpayable"},{"type":"function","name":"acceptOwnership","inputs":[],"outputs":[],"stateMutability":"nonpayable"},{"type":"function","name":"addRegistryModule","inputs":[{"name":"module","type":"address","internalType":"address"}],"outputs":[],"stateMutability":"nonpayable"},{"type":"function","name":"getAllConfiguredTokens","inputs":[{"name":"startIndex","type":"uint64","internalType":"uint64"},{"name":"maxCount","type":"uint64","internalType":"uint64"}],"outputs":[{"name":"tokens","type":"address[]","internalType":"address[]"}],"stateMutability":"view"},{"type":"function","name":"getPool","inputs":[{"name":"token","type":"address","internalType":"address"}],"outputs":[{"name":"","type":"address","internalType":"address"}],"stateMutability":"view"},{"type":"function","name":"getPools","inputs":[{"name":"tokens","type":"address[]","internalType":"address[]"}],"outputs":[{"name":"","type":"address[]","internalType":"address[]"}],"stateMutability":"view"},{"type":"function","name":"getTokenConfig","inputs":[{"name":"token","type":"address","internalType":"address"}],"outputs":[{"name":"","type":"tuple","internalType":"struct TokenAdminRegistry.TokenConfig","components":[{"name":"administrator","type":"address","internalType":"address"},{"name":"pendingAdministrator","type":"address","internalType":"address"},{"name":"tokenPool","type":"address","internalType":"address"}]}],"stateMutability":"view"},{"type":"function","name":"isAdministrator","inputs":[{"name":"localToken","type":"address","internalType":"address"},{"name":"administrator","type":"address","internalType":"address"}],"outputs":[{"name":"","type":"bool","internalType":"bool"}],"stateMutability":"view"},{"type":"function","name":"isRegistryModule","inputs":[{"name":"module","type":"address","internalType":"address"}],"outputs":[{"name":"","type":"bool","internalType":"bool"}],"stateMutability":"view"},{"type":"function","name":"owner","inputs":[],"outputs":[{"name":"","type":"address","internalType":"address"}],"stateMutability":"view"},{"type":"function","name":"proposeAdministrator","inputs":[{"name":"localToken","type":"address","internalType":"address"},{"name":"administrator","type":"address","internalType":"address"}],"outputs":[],"stateMutability":"nonpayable"},{"type":"function","name":"removeRegistryModule","inputs":[{"name":"module","type":"address","internalType":"address"}],"outputs":[],"stateMutability":"nonpayable"},{"type":"function","name":"setPool","inputs":[{"name":"localToken","type":"address","internalType":"address"},{"name":"pool","type":"address","internalType":"address"}],"outputs":[],"stateMutability":"nonpayable"},{"type":"function","name":"transferAdminRole","inputs":[{"name":"localToken","type":"address","internalType":"address"},{"name":"newAdmin","type":"address","internalType":"address"}],"outputs":[],"stateMutability":"nonpayable"},{"type":"function","name":"transferOwnership","inputs":[{"name":"to","type":"address","internalType":"address"}],"outputs":[],"stateMutability":"nonpayable"},{"type":"function","name":"typeAndVersion","inputs":[],"outputs":[{"name":"","type":"string","internalType":"string"}],"stateMutability":"view"},{"type":"event","name":"AdministratorTransferRequested","inputs":[{"name":"token","type":"address","indexed":true,"internalType":"address"},{"name":"currentAdmin","type":"address","indexed":true,"internalType":"address"},{"name":"newAdmin","type":"address","indexed":true,"internalType":"address"}],"anonymous":false},{"type":"event","name":"AdministratorTransferred","inputs":[{"name":"token","type":"address","indexed":true,"internalType":"address"},{"name":"newAdmin","type":"address","indexed":true,"internalType":"address"}],"anonymous":false},{"type":"event","name":"DisableReRegistrationSet","inputs":[{"name":"token","type":"address","indexed":true,"internalType":"address"},{"name":"disabled","type":"bool","indexed":false,"internalType":"bool"}],"anonymous":false},{"type":"event","name":"OwnershipTransferRequested","inputs":[{"name":"from","type":"address","indexed":true,"internalType":"address"},{"name":"to","type":"address","indexed":true,"internalType":"address"}],"anonymous":false},{"type":"event","name":"OwnershipTransferred","inputs":[{"name":"from","type":"address","indexed":true,"internalType":"address"},{"name":"to","type":"address","indexed":true,"internalType":"address"}],"anonymous":false},{"type":"event","name":"PoolSet","inputs":[{"name":"token","type":"address","indexed":true,"internalType":"address"},{"name":"previousPool","type":"address","indexed":true,"internalType":"address"},{"name":"newPool","type":"address","indexed":true,"internalType":"address"}],"anonymous":false},{"type":"event","name":"RegistryModuleAdded","inputs":[{"name":"module","type":"address","indexed":false,"internalType":"address"}],"anonymous":false},{"type":"event","name":"RegistryModuleRemoved","inputs":[{"name":"module","type":"address","indexed":true,"internalType":"address"}],"anonymous":false},{"type":"event","name":"RemovedAdministrator","inputs":[{"name":"token","type":"address","indexed":false,"internalType":"address"}],"anonymous":false},{"type":"error","name":"AlreadyRegistered","inputs":[{"name":"token","type":"address","internalType":"address"}]},{"type":"error","name":"InvalidTokenPoolToken","inputs":[{"name":"token","type":"address","internalType":"address"}]},{"type":"error","name":"OnlyAdministrator","inputs":[{"name":"sender","type":"address","internalType":"address"},{"name":"token","type":"address","internalType":"address"}]},{"type":"error","name":"OnlyPendingAdministrator","inputs":[{"name":"sender","type":"address","internalType":"address"},{"name":"token","type":"address","internalType":"address"}]},{"type":"error","name":"OnlyRegistryModuleOrOwner","inputs":[{"name":"sender","type":"address","internalType":"address"}]},{"type":"error","name":"ZeroAddress","inputs":[]}],"bytecode":{"object":"0x60806040523480156200001157600080fd5b50338060008073ffffffffffffffffffffffffffffffffffffffff168273ffffffffffffffffffffffffffffffffffffffff160362000087576040517f08c379a00000000000000000000000000000000000000000000000000000000081526004016200007e90620002a7565b60405180910390fd5b816000806101000a81548173ffffffffffffffffffffffffffffffffffffffff021916908373ffffffffffffffffffffffffffffffffffffffff160217905550600073ffffffffffffffffffffffffffffffffffffffff168173ffffffffffffffffffffffffffffffffffffffff16146200010e576200010d816200011760201b60201c565b5b5050506200033b565b3373ffffffffffffffffffffffffffffffffffffffff168173ffffffffffffffffffffffffffffffffffffffff160362000188576040517f08c379a00000000000000000000000000000000000000000000000000000000081526004016200017f9062000319565b60405180910390fd5b80600160006101000a81548173ffffffffffffffffffffffffffffffffffffffff021916908373ffffffffffffffffffffffffffffffffffffffff1602179055508073ffffffffffffffffffffffffffffffffffffffff1660008054906101000a900473ffffffffffffffffffffffffffffffffffffffff1673ffffffffffffffffffffffffffffffffffffffff167fed8889f560326eb138920d842192f0eb3dd22b4f139c87a2c57538e05bae127860405160405180910390a350565b600082825260208201905092915050565b7f43616e6e6f7420736574206f776e657220746f207a65726f0000000000000000600082015250565b60006200028f60188362000246565b91506200029c8262000257565b602082019050919050565b60006020820190508181036000830152620002c28162000280565b9050919050565b7f43616e6e6f74207472616e7366657220746f2073656c66000000000000000000600082015250565b60006200030160178362000246565b91506200030e82620002c9565b602082019050919050565b600060208201905081810360008301526200033481620002f2565b9050919050565b61207d806200034b6000396000f3fe608060405234801561001057600080fd5b50600436106101005760003560e01c80637d3f255211610097578063cb67e3b111610066578063cb67e3b1146102ab578063ddadfa8e146102db578063e677ae37146102f7578063f2fde38b1461031357610100565b80637d3f2552146101fd5780638da5cb5b1461022d578063bbe4f6db1461024b578063c1af6e031461027b57610100565b80634e847fc7116100d35780634e847fc7146101775780635e63547a1461019357806372d64a81146101c357806379ba5097146101f357610100565b806310cbcf1814610105578063156194da14610121578063181f5a771461013d5780633dc457721461015b575b600080fd5b61011f600480360381019061011a919061198e565b61032f565b005b61013b6004803603810190610136919061198e565b610397565b005b610145610555565b6040516101529190611a4b565b60405180910390f35b6101756004803603810190610170919061198e565b61058e565b005b610191600480360381019061018c9190611a6d565b6105ea565b005b6101ad60048036038101906101a89190611b12565b610910565b6040516101ba9190611c1d565b60405180910390f35b6101dd60048036038101906101d89190611c7f565b610a5d565b6040516101ea9190611c1d565b60405180910390f35b6101fb610baa565b005b6102176004803603810190610212919061198e565b610d3f565b6040516102249190611cda565b60405180910390f35b610235610d5c565b6040516102429190611d04565b60405180910390f35b6102656004803603810190610260919061198e565b610d85565b6040516102729190611d04565b60405180910390f35b61029560048036038101906102909190611a6d565b610df1565b6040516102a29190611cda565b60405180910390f35b6102c560048036038101906102c0919061198e565b610e8c565b6040516102d29190611d61565b60405180910390f35b6102f560048036038101906102f09190611a6d565b610fe7565b005b610311600480360381019061030c9190611a6d565b6111b9565b005b61032d6004803603810190610328919061198e565b611451565b005b610337611465565b61034b8160056114f590919063ffffffff16565b15610394578073ffffffffffffffffffffffffffffffffffffffff167f93eaa26dcb9275e56bacb1d33fdbf402262da6f0f4baf2a6e2cd154b73f387f860405160405180910390a25b50565b6000600260008373ffffffffffffffffffffffffffffffffffffffff1673ffffffffffffffffffffffffffffffffffffffff16815260200190815260200160002090503373ffffffffffffffffffffffffffffffffffffffff168160010160009054906101000a900473ffffffffffffffffffffffffffffffffffffffff1673ffffffffffffffffffffffffffffffffffffffff16146104705733826040517f3edffe75000000000000000000000000000000000000000000000000000000008152600401610467929190611d7c565b60405180910390fd5b338160000160006101000a81548173ffffffffffffffffffffffffffffffffffffffff021916908373ffffffffffffffffffffffffffffffffffffffff16021790555060008160010160006101000a81548173ffffffffffffffffffffffffffffffffffffffff021916908373ffffffffffffffffffffffffffffffffffffffff1602179055503373ffffffffffffffffffffffffffffffffffffffff168273ffffffffffffffffffffffffffffffffffffffff167f399b55200f7f639a63d76efe3dcfa9156ce367058d6b673041b84a628885f5a760405160405180910390a35050565b6040518060400160405280601c81526020017f546f6b656e41646d696e526567697374727920312e352e302d6465760000000081525081565b610596611465565b6105aa81600561152590919063ffffffff16565b156105e7577f3cabf004338366bfeaeb610ad827cb58d16b588017c509501f2c97c83caae7b2816040516105de9190611d04565b60405180910390a15b50565b813373ffffffffffffffffffffffffffffffffffffffff16600260008373ffffffffffffffffffffffffffffffffffffffff1673ffffffffffffffffffffffffffffffffffffffff16815260200190815260200160002060000160009054906101000a900473ffffffffffffffffffffffffffffffffffffffff1673ffffffffffffffffffffffffffffffffffffffff16146106bf5733816040517fed5d85b50000000000000000000000000000000000000000000000000000000081526004016106b6929190611d7c565b60405180910390fd5b600073ffffffffffffffffffffffffffffffffffffffff168273ffffffffffffffffffffffffffffffffffffffff161415801561077357508173ffffffffffffffffffffffffffffffffffffffff1663240028e8846040518263ffffffff1660e01b81526004016107309190611d04565b602060405180830381865afa15801561074d573d6000803e3d6000fd5b505050506040513d601f19601f820116820180604052508101906107719190611dd1565b155b156107b557826040517f962b60e60000000000000000000000000000000000000000000000000000000081526004016107ac9190611d04565b60405180910390fd5b6000600260008573ffffffffffffffffffffffffffffffffffffffff1673ffffffffffffffffffffffffffffffffffffffff168152602001908152602001600020905060008160020160009054906101000a900473ffffffffffffffffffffffffffffffffffffffff169050838260020160006101000a81548173ffffffffffffffffffffffffffffffffffffffff021916908373ffffffffffffffffffffffffffffffffffffffff1602179055508373ffffffffffffffffffffffffffffffffffffffff168173ffffffffffffffffffffffffffffffffffffffff1614610909578373ffffffffffffffffffffffffffffffffffffffff168173ffffffffffffffffffffffffffffffffffffffff168673ffffffffffffffffffffffffffffffffffffffff167f754449ec3aff3bd528bfce43ae9319c4a381b67fcd1d20097b3b24dacaecc35d60405160405180910390a45b5050505050565b606060008383905067ffffffffffffffff81111561093157610930611dfe565b5b60405190808252806020026020018201604052801561095f5781602001602082028036833780820191505090505b50905060005b84849050811015610a52576002600086868481811061098757610986611e2d565b5b905060200201602081019061099c919061198e565b73ffffffffffffffffffffffffffffffffffffffff1673ffffffffffffffffffffffffffffffffffffffff16815260200190815260200160002060020160009054906101000a900473ffffffffffffffffffffffffffffffffffffffff16828281518110610a0d57610a0c611e2d565b5b602002602001019073ffffffffffffffffffffffffffffffffffffffff16908173ffffffffffffffffffffffffffffffffffffffff1681525050806001019050610965565b508091505092915050565b60606000610a6b6003611555565b9050808467ffffffffffffffff1610610a845750610ba4565b60008367ffffffffffffffff169050818567ffffffffffffffff1682610aaa9190611e95565b1115610ac9578467ffffffffffffffff1682610ac69190611ec9565b90505b8067ffffffffffffffff811115610ae357610ae2611dfe565b5b604051908082528060200260200182016040528015610b115781602001602082028036833780820191505090505b50925060005b81811015610ba057610b48818767ffffffffffffffff16610b389190611e95565b600361156a90919063ffffffff16565b848281518110610b5b57610b5a611e2d565b5b602002602001019073ffffffffffffffffffffffffffffffffffffffff16908173ffffffffffffffffffffffffffffffffffffffff1681525050806001019050610b17565b5050505b92915050565b600160009054906101000a900473ffffffffffffffffffffffffffffffffffffffff1673ffffffffffffffffffffffffffffffffffffffff163373ffffffffffffffffffffffffffffffffffffffff1614610c3a576040517f08c379a0000000000000000000000000000000000000000000000000000000008152600401610c3190611f49565b60405180910390fd5b60008060009054906101000a900473ffffffffffffffffffffffffffffffffffffffff169050336000806101000a81548173ffffffffffffffffffffffffffffffffffffffff021916908373ffffffffffffffffffffffffffffffffffffffff1602179055506000600160006101000a81548173ffffffffffffffffffffffffffffffffffffffff021916908373ffffffffffffffffffffffffffffffffffffffff1602179055503373ffffffffffffffffffffffffffffffffffffffff168173ffffffffffffffffffffffffffffffffffffffff167f8be0079c531659141344cd1fd0a4f28419497f9722a3daafe3b4186f6b6457e060405160405180910390a350565b6000610d5582600561158490919063ffffffff16565b9050919050565b60008060009054906101000a900473ffffffffffffffffffffffffffffffffffffffff16905090565b6000600260008373ffffffffffffffffffffffffffffffffffffffff1673ffffffffffffffffffffffffffffffffffffffff16815260200190815260200160002060020160009054906101000a900473ffffffffffffffffffffffffffffffffffffffff169050919050565b60008173ffffffffffffffffffffffffffffffffffffffff16600260008573ffffffffffffffffffffffffffffffffffffffff1673ffffffffffffffffffffffffffffffffffffffff16815260200190815260200160002060000160009054906101000a900473ffffffffffffffffffffffffffffffffffffffff1673ffffffffffffffffffffffffffffffffffffffff1614905092915050565b610e946118c3565b600260008373ffffffffffffffffffffffffffffffffffffffff1673ffffffffffffffffffffffffffffffffffffffff1681526020019081526020016000206040518060600160405290816000820160009054906101000a900473ffffffffffffffffffffffffffffffffffffffff1673ffffffffffffffffffffffffffffffffffffffff1673ffffffffffffffffffffffffffffffffffffffff1681526020016001820160009054906101000a900473ffffffffffffffffffffffffffffffffffffffff1673ffffffffffffffffffffffffffffffffffffffff1673ffffffffffffffffffffffffffffffffffffffff1681526020016002820160009054906101000a900473ffffffffffffffffffffffffffffffffffffffff1673ffffffffffffffffffffffffffffffffffffffff1673ffffffffffffffffffffffffffffffffffffffff16815250509050919050565b813373ffffffffffffffffffffffffffffffffffffffff16600260008373ffffffffffffffffffffffffffffffffffffffff1673ffffffffffffffffffffffffffffffffffffffff16815260200190815260200160002060000160009054906101000a900473ffffffffffffffffffffffffffffffffffffffff1673ffffffffffffffffffffffffffffffffffffffff16146110bc5733816040517fed5d85b50000000000000000000000000000000000000000000000000000000081526004016110b3929190611d7c565b60405180910390fd5b6000600260008573ffffffffffffffffffffffffffffffffffffffff1673ffffffffffffffffffffffffffffffffffffffff1681526020019081526020016000209050828160010160006101000a81548173ffffffffffffffffffffffffffffffffffffffff021916908373ffffffffffffffffffffffffffffffffffffffff1602179055508273ffffffffffffffffffffffffffffffffffffffff163373ffffffffffffffffffffffffffffffffffffffff168573ffffffffffffffffffffffffffffffffffffffff167fc54c3051ff16e63bb9203214432372aca006c589e3653619b577a3265675b71660405160405180910390a450505050565b6111c233610d3f565b15801561120257506111d2610d5c565b73ffffffffffffffffffffffffffffffffffffffff163373ffffffffffffffffffffffffffffffffffffffff1614155b1561124457336040517f51ca1ec300000000000000000000000000000000000000000000000000000000815260040161123b9190611d04565b60405180910390fd5b600073ffffffffffffffffffffffffffffffffffffffff168173ffffffffffffffffffffffffffffffffffffffff16036112aa576040517fd92e233d00000000000000000000000000000000000000000000000000000000815260040160405180910390fd5b6000600260008473ffffffffffffffffffffffffffffffffffffffff1673ffffffffffffffffffffffffffffffffffffffff1681526020019081526020016000209050600073ffffffffffffffffffffffffffffffffffffffff168160000160009054906101000a900473ffffffffffffffffffffffffffffffffffffffff1673ffffffffffffffffffffffffffffffffffffffff161461138257826040517f45ed80e90000000000000000000000000000000000000000000000000000000081526004016113799190611d04565b60405180910390fd5b818160010160006101000a81548173ffffffffffffffffffffffffffffffffffffffff021916908373ffffffffffffffffffffffffffffffffffffffff1602179055506113d983600361152590919063ffffffff16565b508173ffffffffffffffffffffffffffffffffffffffff16600073ffffffffffffffffffffffffffffffffffffffff168473ffffffffffffffffffffffffffffffffffffffff167fc54c3051ff16e63bb9203214432372aca006c589e3653619b577a3265675b71660405160405180910390a4505050565b611459611465565b611462816115b4565b50565b60008054906101000a900473ffffffffffffffffffffffffffffffffffffffff1673ffffffffffffffffffffffffffffffffffffffff163373ffffffffffffffffffffffffffffffffffffffff16146114f3576040517f08c379a00000000000000000000000000000000000000000000000000000000081526004016114ea90611fb5565b60405180910390fd5b565b600061151d836000018373ffffffffffffffffffffffffffffffffffffffff1660001b6116e0565b905092915050565b600061154d836000018373ffffffffffffffffffffffffffffffffffffffff1660001b6117f4565b905092915050565b600061156382600001611864565b9050919050565b60006115798360000183611875565b60001c905092915050565b60006115ac836000018373ffffffffffffffffffffffffffffffffffffffff1660001b6118a0565b905092915050565b3373ffffffffffffffffffffffffffffffffffffffff168173ffffffffffffffffffffffffffffffffffffffff1603611622576040517f08c379a000000000000000000000000000000000000000000000000000000000815260040161161990612021565b60405180910390fd5b80600160006101000a81548173ffffffffffffffffffffffffffffffffffffffff021916908373ffffffffffffffffffffffffffffffffffffffff1602179055508073ffffffffffffffffffffffffffffffffffffffff1660008054906101000a900473ffffffffffffffffffffffffffffffffffffffff1673ffffffffffffffffffffffffffffffffffffffff167fed8889f560326eb138920d842192f0eb3dd22b4f139c87a2c57538e05bae127860405160405180910390a350565b600080836001016000848152602001908152602001600020549050600081146117e85760006001826117129190611ec9565b905060006001866000018054905061172a9190611ec9565b905081811461179957600086600001828154811061174b5761174a611e2d565b5b906000526020600020015490508087600001848154811061176f5761176e611e2d565b5b90600052602060002001819055508387600101600083815260200190815260200160002081905550505b856000018054806117ad576117ac612041565b5b6001900381819060005260206000200160009055905585600101600086815260200190815260200160002060009055600193505050506117ee565b60009150505b92915050565b600061180083836118a0565b61185957826000018290806001815401808255809150506001900390600052602060002001600090919091909150558260000180549050836001016000848152602001908152602001600020819055506001905061185e565b600090505b92915050565b600081600001805490509050919050565b600082600001828154811061188d5761188c611e2d565b5b9060005260206000200154905092915050565b600080836001016000848152602001908152602001600020541415905092915050565b6040518060600160405280600073ffffffffffffffffffffffffffffffffffffffff168152602001600073ffffffffffffffffffffffffffffffffffffffff168152602001600073ffffffffffffffffffffffffffffffffffffffff1681525090565b600080fd5b600080fd5b600073ffffffffffffffffffffffffffffffffffffffff82169050919050565b600061195b82611930565b9050919050565b61196b81611950565b811461197657600080fd5b50565b60008135905061198881611962565b92915050565b6000602082840312156119a4576119a3611926565b5b60006119b284828501611979565b91505092915050565b600081519050919050565b600082825260208201905092915050565b60005b838110156119f55780820151818401526020810190506119da565b60008484015250505050565b6000601f19601f8301169050919050565b6000611a1d826119bb565b611a2781856119c6565b9350611a378185602086016119d7565b611a4081611a01565b840191505092915050565b60006020820190508181036000830152611a658184611a12565b905092915050565b60008060408385031215611a8457611a83611926565b5b6000611a9285828601611979565b9250506020611aa385828601611979565b9150509250929050565b600080fd5b600080fd5b600080fd5b60008083601f840112611ad257611ad1611aad565b5b8235905067ffffffffffffffff811115611aef57611aee611ab2565b5b602083019150836020820283011115611b0b57611b0a611ab7565b5b9250929050565b60008060208385031215611b2957611b28611926565b5b600083013567ffffffffffffffff811115611b4757611b4661192b565b5b611b5385828601611abc565b92509250509250929050565b600081519050919050565b600082825260208201905092915050565b6000819050602082019050919050565b611b9481611950565b82525050565b6000611ba68383611b8b565b60208301905092915050565b6000602082019050919050565b6000611bca82611b5f565b611bd48185611b6a565b9350611bdf83611b7b565b8060005b83811015611c10578151611bf78882611b9a565b9750611c0283611bb2565b925050600181019050611be3565b5085935050505092915050565b60006020820190508181036000830152611c378184611bbf565b905092915050565b600067ffffffffffffffff82169050919050565b611c5c81611c3f565b8114611c6757600080fd5b50565b600081359050611c7981611c53565b92915050565b60008060408385031215611c9657611c95611926565b5b6000611ca485828601611c6a565b9250506020611cb585828601611c6a565b9150509250929050565b60008115159050919050565b611cd481611cbf565b82525050565b6000602082019050611cef6000830184611ccb565b92915050565b611cfe81611950565b82525050565b6000602082019050611d196000830184611cf5565b92915050565b606082016000820151611d356000850182611b8b565b506020820151611d486020850182611b8b565b506040820151611d5b6040850182611b8b565b50505050565b6000606082019050611d766000830184611d1f565b92915050565b6000604082019050611d916000830185611cf5565b611d9e6020830184611cf5565b9392505050565b611dae81611cbf565b8114611db957600080fd5b50565b600081519050611dcb81611da5565b92915050565b600060208284031215611de757611de6611926565b5b6000611df584828501611dbc565b91505092915050565b7f4e487b7100000000000000000000000000000000000000000000000000000000600052604160045260246000fd5b7f4e487b7100000000000000000000000000000000000000000000000000000000600052603260045260246000fd5b6000819050919050565b7f4e487b7100000000000000000000000000000000000000000000000000000000600052601160045260246000fd5b6000611ea082611e5c565b9150611eab83611e5c565b9250828201905080821115611ec357611ec2611e66565b5b92915050565b6000611ed482611e5c565b9150611edf83611e5c565b9250828203905081811115611ef757611ef6611e66565b5b92915050565b7f4d7573742062652070726f706f736564206f776e657200000000000000000000600082015250565b6000611f336016836119c6565b9150611f3e82611efd565b602082019050919050565b60006020820190508181036000830152611f6281611f26565b9050919050565b7f4f6e6c792063616c6c61626c65206279206f776e657200000000000000000000600082015250565b6000611f9f6016836119c6565b9150611faa82611f69565b602082019050919050565b60006020820190508181036000830152611fce81611f92565b9050919050565b7f43616e6e6f74207472616e7366657220746f2073656c66000000000000000000600082015250565b600061200b6017836119c6565b915061201682611fd5565b602082019050919050565b6000602082019050818103600083015261203a81611ffe565b9050919050565b7f4e487b7100000000000000000000000000000000000000000000000000000000600052603160045260246000fdfea164736f6c6343000818000a","linkReferences":{}},"methodIdentifiers":{"acceptAdminRole(address)":"156194da","acceptOwnership()":"79ba5097","addRegistryModule(address)":"3dc45772","getAllConfiguredTokens(uint64,uint64)":"72d64a81","getPool(address)":"bbe4f6db","getPools(address[])":"5e63547a","getTokenConfig(address)":"cb67e3b1","isAdministrator(address,address)":"c1af6e03","isRegistryModule(address)":"7d3f2552","owner()":"8da5cb5b","proposeAdministrator(address,address)":"e677ae37","removeRegistryModule(address)":"10cbcf18","setPool(address,address)":"4e847fc7","transferAdminRole(address,address)":"ddadfa8e","transferOwnership(address)":"f2fde38b","typeAndVersion()":"181f5a77"},"id":135}