{"abi":[{"type":"constructor","inputs":[{"name":"router","type":"address","internalType":"address"}],"stateMutability":"nonpayable"},{"type":"receive","stateMutability":"payable"},{"type":"function","name":"ccipReceive","inputs":[{"name":"message","type":"tuple","internalType":"struct Client.Any2EVMMessage","components":[{"name":"messageId","type":"bytes32","internalType":"bytes32"},{"name":"sourceChainSelector","type":"uint64","internalType":"uint64"},{"name":"sender","type":"bytes","internalType":"bytes"},{"name":"data","type":"bytes","internalType":"bytes"},{"name":"destTokenAmounts","type":"tuple[]","internalType":"struct Client.EVMTokenAmount[]","components":[{"name":"token","type":"address","internalType":"address"},{"name":"amount","type":"uint256","internalType":"uint256"}]}]}],"outputs":[],"stateMutability":"nonpayable"},{"type":"function","name":"ccipSend","inputs":[{"name":"destinationChainSelector","type":"uint64","internalType":"uint64"},{"name":"message","type":"tuple","internalType":"struct Client.EVM2AnyMessage","components":[{"name":"receiver","type":"bytes","internalType":"bytes"},{"name":"data","type":"bytes","internalType":"bytes"},{"name":"tokenAmounts","type":"tuple[]","internalType":"struct Client.EVMTokenAmount[]","components":[{"name":"token","type":"address","internalType":"address"},{"name":"amount","type":"uint256","internalType":"uint256"}]},{"name":"feeToken","type":"address","internalType":"address"},{"name":"extraArgs","type":"bytes","internalType":"bytes"}]}],"outputs":[{"name":"","type":"bytes32","internalType":"bytes32"}],"stateMutability":"payable"},{"type":"function","name":"getFee","inputs":[{"name":"destinationChainSelector","type":"uint64","internalType":"uint64"},{"name":"message","type":"tuple","internalType":"struct Client.EVM2AnyMessage","components":[{"name":"receiver","type":"bytes","internalType":"bytes"},{"name":"data","type":"bytes","internalType":"bytes"},{"name":"tokenAmounts","type":"tuple[]","internalType":"struct Client.EVMTokenAmount[]","components":[{"name":"token","type":"address","internalType":"address"},{"name":"amount","type":"uint256","internalType":"uint256"}]},{"name":"feeToken","type":"address","internalType":"address"},{"name":"extraArgs","type":"bytes","internalType":"bytes"}]}],"outputs":[{"name":"fee","type":"uint256","internalType":"uint256"}],"stateMutability":"view"},{"type":"function","name":"getRouter","inputs":[],"outputs":[{"name":"","type":"address","internalType":"address"}],"stateMutability":"view"},{"type":"function","name":"i_weth","inputs":[],"outputs":[{"name":"","type":"address","internalType":"contract IWrappedNative"}],"stateMutability":"view"},{"type":"function","name":"publicCcipReceive","inputs":[{"name":"message","type":"tuple","internalType":"struct Client.Any2EVMMessage","components":[{"name":"messageId","type":"bytes32","internalType":"bytes32"},{"name":"sourceChainSelector","type":"uint64","internalType":"uint64"},{"name":"sender","type":"bytes","internalType":"bytes"},{"name":"data","type":"bytes","internalType":"bytes"},{"name":"destTokenAmounts","type":"tuple[]","internalType":"struct Client.EVMTokenAmount[]","components":[{"name":"token","type":"address","internalType":"address"},{"name":"amount","type":"uint256","internalType":"uint256"}]}]}],"outputs":[],"stateMutability":"nonpayable"},{"type":"function","name":"supportsInterface","inputs":[{"name":"interfaceId","type":"bytes4","internalType":"bytes4"}],"outputs":[{"name":"","type":"bool","internalType":"bool"}],"stateMutability":"view"},{"type":"function","name":"typeAndVersion","inputs":[],"outputs":[{"name":"","type":"string","internalType":"string"}],"stateMutability":"view"},{"type":"function","name":"validateFeeToken","inputs":[{"name":"message","type":"tuple","internalType":"struct Client.EVM2AnyMessage","components":[{"name":"receiver","type":"bytes","internalType":"bytes"},{"name":"data","type":"bytes","internalType":"bytes"},{"name":"tokenAmounts","type":"tuple[]","internalType":"struct Client.EVMTokenAmount[]","components":[{"name":"token","type":"address","internalType":"address"},{"name":"amount","type":"uint256","internalType":"uint256"}]},{"name":"feeToken","type":"address","internalType":"address"},{"name":"extraArgs","type":"bytes","internalType":"bytes"}]}],"outputs":[],"stateMutability":"payable"},{"type":"function","name":"validatedMessage","inputs":[{"name":"message","type":"tuple","internalType":"struct Client.EVM2AnyMessage","components":[{"name":"receiver","type":"bytes","internalType":"bytes"},{"name":"data","type":"bytes","internalType":"bytes"},{"name":"tokenAmounts","type":"tuple[]","internalType":"struct Client.EVMTokenAmount[]","components":[{"name":"token","type":"address","internalType":"address"},{"name":"amount","type":"uint256","internalType":"uint256"}]},{"name":"feeToken","type":"address","internalType":"address"},{"name":"extraArgs","type":"bytes","internalType":"bytes"}]}],"outputs":[{"name":"","type":"tuple","internalType":"struct Client.EVM2AnyMessage","components":[{"name":"receiver","type":"bytes","internalType":"bytes"},{"name":"data","type":"bytes","internalType":"bytes"},{"name":"tokenAmounts","type":"tuple[]","internalType":"struct Client.EVMTokenAmount[]","components":[{"name":"token","type":"address","internalType":"address"},{"name":"amount","type":"uint256","internalType":"uint256"}]},{"name":"feeToken","type":"address","internalType":"address"},{"name":"extraArgs","type":"bytes","internalType":"bytes"}]}],"stateMutability":"view"},{"type":"error","name":"InvalidRouter","inputs":[{"name":"router","type":"address","internalType":"address"}]},{"type":"error","name":"InvalidToken","inputs":[{"name":"gotToken","type":"address","internalType":"address"},{"name":"expectedToken","type":"address","internalType":"address"}]},{"type":"error","name":"InvalidTokenAmounts","inputs":[{"name":"gotAmounts","type":"uint256","internalType":"uint256"}]},{"type":"error","name":"TokenAmountNotEqualToMsgValue","inputs":[{"name":"gotAmount","type":"uint256","internalType":"uint256"},{"name":"msgValue","type":"uint256","internalType":"uint256"}]}],"bytecode":{"object":"0x60c06040523480156200001157600080fd5b506040516200264a3803806200264a8339818101604052810190620000379190620002a0565b8080600073ffffffffffffffffffffffffffffffffffffffff168173ffffffffffffffffffffffffffffffffffffffff1603620000ae5760006040517fd7f73334000000000000000000000000000000000000000000000000000000008152600401620000a59190620002e3565b60405180910390fd5b8073ffffffffffffffffffffffffffffffffffffffff1660808173ffffffffffffffffffffffffffffffffffffffff1681525050508073ffffffffffffffffffffffffffffffffffffffff1663e861e9076040518163ffffffff1660e01b8152600401602060405180830381865afa1580156200012f573d6000803e3d6000fd5b505050506040513d601f19601f82011682018060405250810190620001559190620002a0565b73ffffffffffffffffffffffffffffffffffffffff1660a08173ffffffffffffffffffffffffffffffffffffffff168152505060a05173ffffffffffffffffffffffffffffffffffffffff1663095ea7b3827fffffffffffffffffffffffffffffffffffffffffffffffffffffffffffffffff6040518363ffffffff1660e01b8152600401620001e79291906200031b565b6020604051808303816000875af115801562000207573d6000803e3d6000fd5b505050506040513d601f19601f820116820180604052508101906200022d919062000385565b505050620003b7565b600080fd5b600073ffffffffffffffffffffffffffffffffffffffff82169050919050565b600062000268826200023b565b9050919050565b6200027a816200025b565b81146200028657600080fd5b50565b6000815190506200029a816200026f565b92915050565b600060208284031215620002b957620002b862000236565b5b6000620002c98482850162000289565b91505092915050565b620002dd816200025b565b82525050565b6000602082019050620002fa6000830184620002d2565b92915050565b6000819050919050565b620003158162000300565b82525050565b6000604082019050620003326000830185620002d2565b6200034160208301846200030a565b9392505050565b60008115159050919050565b6200035f8162000348565b81146200036b57600080fd5b50565b6000815190506200037f8162000354565b92915050565b6000602082840312156200039e576200039d62000236565b5b6000620003ae848285016200036e565b91505092915050565b60805160a05161223562000415600039600081816104360152818161050a0152818161069e0152818161096001528181610b0c01528181610ba601528181610c2c01528181610d280152610da9015260006108ad01526122356000f3fe6080604052600436106100955760003560e01c806353a79dd81161005957806353a79dd8146101ae57806385572ffb146101ca57806396f4e9f9146101f3578063ab9fec0514610223578063b0f479a11461024c5761009c565b806301ffc9a7146100a1578063181f5a77146100de57806320487ded1461010957806325a31f52146101465780634dbe7e92146101835761009c565b3661009c57005b600080fd5b3480156100ad57600080fd5b506100c860048036038101906100c3919061121b565b610277565b6040516100d59190611263565b60405180910390f35b3480156100ea57600080fd5b506100f3610349565b604051610100919061130e565b60405180910390f35b34801561011557600080fd5b50610130600480360381019061012b9190611394565b610382565b60405161013d9190611409565b60405180910390f35b34801561015257600080fd5b5061016d60048036038101906101689190611424565b61041c565b60405161017a919061167b565b60405180910390f35b34801561018f57600080fd5b50610198610434565b6040516101a591906116fc565b60405180910390f35b6101c860048036038101906101c39190611424565b610458565b005b3480156101d657600080fd5b506101f160048036038101906101ec9190611736565b610464565b005b61020d60048036038101906102089190611394565b6104f0565b60405161021a9190611798565b60405180910390f35b34801561022f57600080fd5b5061024a60048036038101906102459190611b6e565b61089d565b005b34801561025857600080fd5b506102616108a9565b60405161026e9190611bc6565b60405180910390f35b60007f85572ffb000000000000000000000000000000000000000000000000000000007bffffffffffffffffffffffffffffffffffffffffffffffffffffffff1916827bffffffffffffffffffffffffffffffffffffffffffffffffffffffff1916148061034257507f01ffc9a7000000000000000000000000000000000000000000000000000000007bffffffffffffffffffffffffffffffffffffffffffffffffffffffff1916827bffffffffffffffffffffffffffffffffffffffffffffffffffffffff1916145b9050919050565b6040518060400160405280601981526020017f457468657253656e646572526563656976657220312e352e300000000000000081525081565b60008061038e836108d1565b90506103986108a9565b73ffffffffffffffffffffffffffffffffffffffff166320487ded85836040518363ffffffff1660e01b81526004016103d2929190611bf0565b602060405180830381865afa1580156103ef573d6000803e3d6000fd5b505050506040513d601f19601f820116820180604052508101906104139190611c35565b91505092915050565b61042461116a565b61042d826108d1565b9050919050565b7f000000000000000000000000000000000000000000000000000000000000000081565b610461816109de565b50565b61046c6108a9565b73ffffffffffffffffffffffffffffffffffffffff163373ffffffffffffffffffffffffffffffffffffffff16146104db57336040517fd7f733340000000000000000000000000000000000000000000000000000000081526004016104d29190611bc6565b60405180910390fd5b6104ed816104e890611c62565b610a9f565b50565b60006104fb826109de565b6000610506836108d1565b90507f000000000000000000000000000000000000000000000000000000000000000073ffffffffffffffffffffffffffffffffffffffff1663d0e30db0826040015160008151811061055c5761055b611c75565b5b6020026020010151602001516040518263ffffffff1660e01b81526004016000604051808303818588803b15801561059357600080fd5b505af11580156105a7573d6000803e3d6000fd5b505050505060006105b66108a9565b73ffffffffffffffffffffffffffffffffffffffff166320487ded86846040518363ffffffff1660e01b81526004016105f0929190611bf0565b602060405180830381865afa15801561060d573d6000803e3d6000fd5b505050506040513d601f19601f820116820180604052508101906106319190611c35565b9050600073ffffffffffffffffffffffffffffffffffffffff16826060015173ffffffffffffffffffffffffffffffffffffffff161461080c5761069c333083856060015173ffffffffffffffffffffffffffffffffffffffff16610e4d909392919063ffffffff16565b7f000000000000000000000000000000000000000000000000000000000000000073ffffffffffffffffffffffffffffffffffffffff16826060015173ffffffffffffffffffffffffffffffffffffffff161461077e57816060015173ffffffffffffffffffffffffffffffffffffffff1663095ea7b361071b6108a9565b836040518363ffffffff1660e01b8152600401610739929190611ca4565b6020604051808303816000875af1158015610758573d6000803e3d6000fd5b505050506040513d601f19601f8201168201806040525081019061077c9190611cf9565b505b6107866108a9565b73ffffffffffffffffffffffffffffffffffffffff166396f4e9f986846040518363ffffffff1660e01b81526004016107c0929190611bf0565b6020604051808303816000875af11580156107df573d6000803e3d6000fd5b505050506040513d601f19601f820116820180604052508101906108039190611d3b565b92505050610897565b6108146108a9565b73ffffffffffffffffffffffffffffffffffffffff166396f4e9f94787856040518463ffffffff1660e01b815260040161084f929190611bf0565b60206040518083038185885af115801561086d573d6000803e3d6000fd5b50505050506040513d601f19601f820116820180604052508101906108929190611d3b565b925050505b92915050565b6108a681610a9f565b50565b60007f0000000000000000000000000000000000000000000000000000000000000000905090565b6108d961116a565b6000826108e590611e64565b9050600181604001515114610936578060400151516040517f83b9f0ae00000000000000000000000000000000000000000000000000000000815260040161092d9190611409565b60405180910390fd5b336040516020016109479190611bc6565b60405160208183030381529060405281602001819052507f0000000000000000000000000000000000000000000000000000000000000000816040015160008151811061099757610996611c75565b5b60200260200101516000019073ffffffffffffffffffffffffffffffffffffffff16908173ffffffffffffffffffffffffffffffffffffffff168152505080915050919050565b60008180604001906109f09190611e86565b6000818110610a0257610a01611c75565b5b905060400201602001359050600073ffffffffffffffffffffffffffffffffffffffff16826060016020810190610a399190611ee9565b73ffffffffffffffffffffffffffffffffffffffff1614610a9b57803414610a9a5780346040517fba2f7467000000000000000000000000000000000000000000000000000000008152600401610a91929190611f16565b60405180910390fd5b5b5050565b60008160600151806020019051810190610ab99190611f7d565b9050600182608001515114610b0a578160800151516040517f83b9f0ae000000000000000000000000000000000000000000000000000000008152600401610b019190611409565b60405180910390fd5b7f000000000000000000000000000000000000000000000000000000000000000073ffffffffffffffffffffffffffffffffffffffff168260800151600081518110610b5957610b58611c75565b5b60200260200101516000015173ffffffffffffffffffffffffffffffffffffffff1614610c02578160800151600081518110610b9857610b97611c75565b5b6020026020010151600001517f00000000000000000000000000000000000000000000000000000000000000006040517f0fc746a1000000000000000000000000000000000000000000000000000000008152600401610bf9929190611faa565b60405180910390fd5b60008260800151600081518110610c1c57610c1b611c75565b5b60200260200101516020015190507f000000000000000000000000000000000000000000000000000000000000000073ffffffffffffffffffffffffffffffffffffffff16632e1a7d4d826040518263ffffffff1660e01b8152600401610c839190611409565b600060405180830381600087803b158015610c9d57600080fd5b505af1158015610cb1573d6000803e3d6000fd5b5050505060008273ffffffffffffffffffffffffffffffffffffffff1682604051610cdb90612004565b60006040518083038185875af1925050503d8060008114610d18576040519150601f19603f3d011682016040523d82523d6000602084013e610d1d565b606091505b5050905080610e47577f000000000000000000000000000000000000000000000000000000000000000073ffffffffffffffffffffffffffffffffffffffff1663d0e30db0836040518263ffffffff1660e01b81526004016000604051808303818588803b158015610d8e57600080fd5b505af1158015610da2573d6000803e3d6000fd5b50505050507f000000000000000000000000000000000000000000000000000000000000000073ffffffffffffffffffffffffffffffffffffffff1663a9059cbb84846040518363ffffffff1660e01b8152600401610e02929190611ca4565b6020604051808303816000875af1158015610e21573d6000803e3d6000fd5b505050506040513d601f19601f82011682018060405250810190610e459190611cf9565b505b50505050565b610ed0846323b872dd60e01b858585604051602401610e6e93929190612019565b604051602081830303815290604052907bffffffffffffffffffffffffffffffffffffffffffffffffffffffff19166020820180517bffffffffffffffffffffffffffffffffffffffffffffffffffffffff8381831617835250505050610ed6565b50505050565b6000610f38826040518060400160405280602081526020017f5361666545524332303a206c6f772d6c6576656c2063616c6c206661696c65648152508573ffffffffffffffffffffffffffffffffffffffff16610f9d9092919063ffffffff16565b9050600081511115610f985780806020019051810190610f589190611cf9565b610f97576040517f08c379a0000000000000000000000000000000000000000000000000000000008152600401610f8e906120c2565b60405180910390fd5b5b505050565b6060610fac8484600085610fb5565b90509392505050565b606082471015610ffa576040517f08c379a0000000000000000000000000000000000000000000000000000000008152600401610ff190612154565b60405180910390fd5b6000808673ffffffffffffffffffffffffffffffffffffffff16858760405161102391906121a5565b60006040518083038185875af1925050503d8060008114611060576040519150601f19603f3d011682016040523d82523d6000602084013e611065565b606091505b509150915061107687838387611082565b92505050949350505050565b606083156110e45760008351036110dc5761109c856110f7565b6110db576040517f08c379a00000000000000000000000000000000000000000000000000000000081526004016110d290612208565b60405180910390fd5b5b8290506110ef565b6110ee838361111a565b5b949350505050565b6000808273ffffffffffffffffffffffffffffffffffffffff163b119050919050565b60008251111561112d5781518083602001fd5b806040517f08c379a0000000000000000000000000000000000000000000000000000000008152600401611161919061130e565b60405180910390fd5b6040518060a00160405280606081526020016060815260200160608152602001600073ffffffffffffffffffffffffffffffffffffffff168152602001606081525090565b6000604051905090565b600080fd5b600080fd5b60007fffffffff0000000000000000000000000000000000000000000000000000000082169050919050565b6111f8816111c3565b811461120357600080fd5b50565b600081359050611215816111ef565b92915050565b600060208284031215611231576112306111b9565b5b600061123f84828501611206565b91505092915050565b60008115159050919050565b61125d81611248565b82525050565b60006020820190506112786000830184611254565b92915050565b600081519050919050565b600082825260208201905092915050565b60005b838110156112b857808201518184015260208101905061129d565b60008484015250505050565b6000601f19601f8301169050919050565b60006112e08261127e565b6112ea8185611289565b93506112fa81856020860161129a565b611303816112c4565b840191505092915050565b6000602082019050818103600083015261132881846112d5565b905092915050565b600067ffffffffffffffff82169050919050565b61134d81611330565b811461135857600080fd5b50565b60008135905061136a81611344565b92915050565b600080fd5b600060a0828403121561138b5761138a611370565b5b81905092915050565b600080604083850312156113ab576113aa6111b9565b5b60006113b98582860161135b565b925050602083013567ffffffffffffffff8111156113da576113d96111be565b5b6113e685828601611375565b9150509250929050565b6000819050919050565b611403816113f0565b82525050565b600060208201905061141e60008301846113fa565b92915050565b60006020828403121561143a576114396111b9565b5b600082013567ffffffffffffffff811115611458576114576111be565b5b61146484828501611375565b91505092915050565b600081519050919050565b600082825260208201905092915050565b60006114948261146d565b61149e8185611478565b93506114ae81856020860161129a565b6114b7816112c4565b840191505092915050565b600081519050919050565b600082825260208201905092915050565b6000819050602082019050919050565b600073ffffffffffffffffffffffffffffffffffffffff82169050919050565b6000611519826114ee565b9050919050565b6115298161150e565b82525050565b611538816113f0565b82525050565b6040820160008201516115546000850182611520565b506020820151611567602085018261152f565b50505050565b6000611579838361153e565b60408301905092915050565b6000602082019050919050565b600061159d826114c2565b6115a781856114cd565b93506115b2836114de565b8060005b838110156115e35781516115ca888261156d565b97506115d583611585565b9250506001810190506115b6565b5085935050505092915050565b600060a083016000830151848203600086015261160d8282611489565b915050602083015184820360208601526116278282611489565b915050604083015184820360408601526116418282611592565b91505060608301516116566060860182611520565b506080830151848203608086015261166e8282611489565b9150508091505092915050565b6000602082019050818103600083015261169581846115f0565b905092915050565b6000819050919050565b60006116c26116bd6116b8846114ee565b61169d565b6114ee565b9050919050565b60006116d4826116a7565b9050919050565b60006116e6826116c9565b9050919050565b6116f6816116db565b82525050565b600060208201905061171160008301846116ed565b92915050565b600060a0828403121561172d5761172c611370565b5b81905092915050565b60006020828403121561174c5761174b6111b9565b5b600082013567ffffffffffffffff81111561176a576117696111be565b5b61177684828501611717565b91505092915050565b6000819050919050565b6117928161177f565b82525050565b60006020820190506117ad6000830184611789565b92915050565b600080fd5b7f4e487b7100000000000000000000000000000000000000000000000000000000600052604160045260246000fd5b6117f0826112c4565b810181811067ffffffffffffffff8211171561180f5761180e6117b8565b5b80604052505050565b60006118226111af565b905061182e82826117e7565b919050565b600080fd5b6118418161177f565b811461184c57600080fd5b50565b60008135905061185e81611838565b92915050565b600080fd5b600080fd5b600067ffffffffffffffff821115611889576118886117b8565b5b611892826112c4565b9050602081019050919050565b82818337600083830152505050565b60006118c16118bc8461186e565b611818565b9050828152602081018484840111156118dd576118dc611869565b5b6118e884828561189f565b509392505050565b600082601f83011261190557611904611864565b5b81356119158482602086016118ae565b91505092915050565b600067ffffffffffffffff821115611939576119386117b8565b5b602082029050602081019050919050565b600080fd5b6119588161150e565b811461196357600080fd5b50565b6000813590506119758161194f565b92915050565b611984816113f0565b811461198f57600080fd5b50565b6000813590506119a18161197b565b92915050565b6000604082840312156119bd576119bc6117b3565b5b6119c76040611818565b905060006119d784828501611966565b60008301525060206119eb84828501611992565b60208301525092915050565b6000611a0a611a058461191e565b611818565b90508083825260208201905060408402830185811115611a2d57611a2c61194a565b5b835b81811015611a565780611a4288826119a7565b845260208401935050604081019050611a2f565b5050509392505050565b600082601f830112611a7557611a74611864565b5b8135611a858482602086016119f7565b91505092915050565b600060a08284031215611aa457611aa36117b3565b5b611aae60a0611818565b90506000611abe8482850161184f565b6000830152506020611ad28482850161135b565b602083015250604082013567ffffffffffffffff811115611af657611af5611833565b5b611b02848285016118f0565b604083015250606082013567ffffffffffffffff811115611b2657611b25611833565b5b611b32848285016118f0565b606083015250608082013567ffffffffffffffff811115611b5657611b55611833565b5b611b6284828501611a60565b60808301525092915050565b600060208284031215611b8457611b836111b9565b5b600082013567ffffffffffffffff811115611ba257611ba16111be565b5b611bae84828501611a8e565b91505092915050565b611bc08161150e565b82525050565b6000602082019050611bdb6000830184611bb7565b92915050565b611bea81611330565b82525050565b6000604082019050611c056000830185611be1565b8181036020830152611c1781846115f0565b90509392505050565b600081519050611c2f8161197b565b92915050565b600060208284031215611c4b57611c4a6111b9565b5b6000611c5984828501611c20565b91505092915050565b6000611c6e3683611a8e565b9050919050565b7f4e487b7100000000000000000000000000000000000000000000000000000000600052603260045260246000fd5b6000604082019050611cb96000830185611bb7565b611cc660208301846113fa565b9392505050565b611cd681611248565b8114611ce157600080fd5b50565b600081519050611cf381611ccd565b92915050565b600060208284031215611d0f57611d0e6111b9565b5b6000611d1d84828501611ce4565b91505092915050565b600081519050611d3581611838565b92915050565b600060208284031215611d5157611d506111b9565b5b6000611d5f84828501611d26565b91505092915050565b600060a08284031215611d7e57611d7d6117b3565b5b611d8860a0611818565b9050600082013567ffffffffffffffff811115611da857611da7611833565b5b611db4848285016118f0565b600083015250602082013567ffffffffffffffff811115611dd857611dd7611833565b5b611de4848285016118f0565b602083015250604082013567ffffffffffffffff811115611e0857611e07611833565b5b611e1484828501611a60565b6040830152506060611e2884828501611966565b606083015250608082013567ffffffffffffffff811115611e4c57611e4b611833565b5b611e58848285016118f0565b60808301525092915050565b6000611e703683611d68565b9050919050565b600080fd5b600080fd5b600080fd5b60008083356001602003843603038112611ea357611ea2611e77565b5b80840192508235915067ffffffffffffffff821115611ec557611ec4611e7c565b5b602083019250604082023603831315611ee157611ee0611e81565b5b509250929050565b600060208284031215611eff57611efe6111b9565b5b6000611f0d84828501611966565b91505092915050565b6000604082019050611f2b60008301856113fa565b611f3860208301846113fa565b9392505050565b6000611f4a826114ee565b9050919050565b611f5a81611f3f565b8114611f6557600080fd5b50565b600081519050611f7781611f51565b92915050565b600060208284031215611f9357611f926111b9565b5b6000611fa184828501611f68565b91505092915050565b6000604082019050611fbf6000830185611bb7565b611fcc6020830184611bb7565b9392505050565b600081905092915050565b50565b6000611fee600083611fd3565b9150611ff982611fde565b600082019050919050565b600061200f82611fe1565b9150819050919050565b600060608201905061202e6000830186611bb7565b61203b6020830185611bb7565b61204860408301846113fa565b949350505050565b7f5361666545524332303a204552433230206f7065726174696f6e20646964206e60008201527f6f74207375636365656400000000000000000000000000000000000000000000602082015250565b60006120ac602a83611289565b91506120b782612050565b604082019050919050565b600060208201905081810360008301526120db8161209f565b9050919050565b7f416464726573733a20696e73756666696369656e742062616c616e636520666f60008201527f722063616c6c0000000000000000000000000000000000000000000000000000602082015250565b600061213e602683611289565b9150612149826120e2565b604082019050919050565b6000602082019050818103600083015261216d81612131565b9050919050565b600061217f8261146d565b6121898185611fd3565b935061219981856020860161129a565b80840191505092915050565b60006121b18284612174565b915081905092915050565b7f416464726573733a2063616c6c20746f206e6f6e2d636f6e7472616374000000600082015250565b60006121f2601d83611289565b91506121fd826121bc565b602082019050919050565b60006020820190508181036000830152612221816121e5565b905091905056fea164736f6c6343000818000a","linkReferences":{}},"methodIdentifiers":{"ccipReceive((bytes32,uint64,bytes,bytes,(address,uint256)[]))":"85572ffb","ccipSend(uint64,(bytes,bytes,(address,uint256)[],address,bytes))":"96f4e9f9","getFee(uint64,(bytes,bytes,(address,uint256)[],address,bytes))":"20487ded","getRouter()":"b0f479a1","i_weth()":"4dbe7e92","publicCcipReceive((bytes32,uint64,bytes,bytes,(address,uint256)[]))":"ab9fec05","supportsInterface(bytes4)":"01ffc9a7","typeAndVersion()":"181f5a77","validateFeeToken((bytes,bytes,(address,uint256)[],address,bytes))":"53a79dd8","validatedMessage((bytes,bytes,(address,uint256)[],address,bytes))":"25a31f52"},"id":87}