{"abi":[{"type":"constructor","inputs":[{"name":"version","type":"uint32","internalType":"uint32"},{"name":"transmitter","type":"address","internalType":"address"}],"stateMutability":"nonpayable"},{"type":"function","name":"DESTINATION_TOKEN_MESSENGER","inputs":[],"outputs":[{"name":"","type":"bytes32","internalType":"bytes32"}],"stateMutability":"view"},{"type":"function","name":"depositForBurnWithCaller","inputs":[{"name":"amount","type":"uint256","internalType":"uint256"},{"name":"destinationDomain","type":"uint32","internalType":"uint32"},{"name":"mintRecipient","type":"bytes32","internalType":"bytes32"},{"name":"burnToken","type":"address","internalType":"address"},{"name":"destinationCaller","type":"bytes32","internalType":"bytes32"}],"outputs":[{"name":"","type":"uint64","internalType":"uint64"}],"stateMutability":"nonpayable"},{"type":"function","name":"localMessageTransmitter","inputs":[],"outputs":[{"name":"","type":"address","internalType":"address"}],"stateMutability":"view"},{"type":"function","name":"messageBodyVersion","inputs":[],"outputs":[{"name":"","type":"uint32","internalType":"uint32"}],"stateMutability":"view"},{"type":"function","name":"s_nonce","inputs":[],"outputs":[{"name":"","type":"uint64","internalType":"uint64"}],"stateMutability":"view"},{"type":"event","name":"DepositForBurn","inputs":[{"name":"nonce","type":"uint64","indexed":true,"internalType":"uint64"},{"name":"burnToken","type":"address","indexed":true,"internalType":"address"},{"name":"amount","type":"uint256","indexed":false,"internalType":"uint256"},{"name":"depositor","type":"address","indexed":true,"internalType":"address"},{"name":"mintRecipient","type":"bytes32","indexed":false,"internalType":"bytes32"},{"name":"destinationDomain","type":"uint32","indexed":false,"internalType":"uint32"},{"name":"destinationTokenMessenger","type":"bytes32","indexed":false,"internalType":"bytes32"},{"name":"destinationCaller","type":"bytes32","indexed":false,"internalType":"bytes32"}],"anonymous":false}],"bytecode":{"object":"0x60c060405234801561001057600080fd5b506040516108f53803806108f583398181016040528101906100329190610149565b8163ffffffff1660808163ffffffff168152505060016000806101000a81548167ffffffffffffffff021916908367ffffffffffffffff1602179055508073ffffffffffffffffffffffffffffffffffffffff1660a08173ffffffffffffffffffffffffffffffffffffffff16815250505050610189565b600080fd5b600063ffffffff82169050919050565b6100c8816100af565b81146100d357600080fd5b50565b6000815190506100e5816100bf565b92915050565b600073ffffffffffffffffffffffffffffffffffffffff82169050919050565b6000610116826100eb565b9050919050565b6101268161010b565b811461013157600080fd5b50565b6000815190506101438161011d565b92915050565b600080604083850312156101605761015f6100aa565b5b600061016e858286016100d6565b925050602061017f85828601610134565b9150509250929050565b60805160a0516107476101ae60003960006101080152600061014801526107476000f3fe608060405234801561001057600080fd5b50600436106100575760003560e01c80632c1219211461005c5780637eccf63e1461007a5780639cdbb18114610098578063f856ddb6146100b6578063fb8406a9146100e6575b600080fd5b610064610104565b60405161007191906103c1565b60405180910390f35b61008261012c565b60405161008f91906103ff565b60405180910390f35b6100a0610144565b6040516100ad9190610439565b60405180910390f35b6100d060048036038101906100cb919061051d565b61016c565b6040516100dd91906103ff565b60405180910390f35b6100ee61035c565b6040516100fb91906105a7565b60405180910390f35b60007f0000000000000000000000000000000000000000000000000000000000000000905090565b60008054906101000a900467ffffffffffffffff1681565b60007f0000000000000000000000000000000000000000000000000000000000000000905090565b60008273ffffffffffffffffffffffffffffffffffffffff166323b872dd3330896040518463ffffffff1660e01b81526004016101ab939291906105d1565b6020604051808303816000875af11580156101ca573d6000803e3d6000fd5b505050506040513d601f19601f820116820180604052508101906101ee9190610640565b508273ffffffffffffffffffffffffffffffffffffffff166342966c68876040518263ffffffff1660e01b8152600401610228919061066d565b600060405180830381600087803b15801561024257600080fd5b505af1158015610256573d6000803e3d6000fd5b505050503373ffffffffffffffffffffffffffffffffffffffff168373ffffffffffffffffffffffffffffffffffffffff1660008054906101000a900467ffffffffffffffff1667ffffffffffffffff167f2fa9ca894982930190727e75500a97d8dc500233a5065e0f3126c48fbe0343c089888a7f17c71eed51b181d8ae1908b4743526c6dbf099c201f158a1acd5f6718e82e8f6896040516102fe959493929190610688565b60405180910390a460008081819054906101000a900467ffffffffffffffff168092919061032b9061070a565b91906101000a81548167ffffffffffffffff021916908367ffffffffffffffff160217905550905095945050505050565b7f17c71eed51b181d8ae1908b4743526c6dbf099c201f158a1acd5f6718e82e8f681565b600073ffffffffffffffffffffffffffffffffffffffff82169050919050565b60006103ab82610380565b9050919050565b6103bb816103a0565b82525050565b60006020820190506103d660008301846103b2565b92915050565b600067ffffffffffffffff82169050919050565b6103f9816103dc565b82525050565b600060208201905061041460008301846103f0565b92915050565b600063ffffffff82169050919050565b6104338161041a565b82525050565b600060208201905061044e600083018461042a565b92915050565b600080fd5b6000819050919050565b61046c81610459565b811461047757600080fd5b50565b60008135905061048981610463565b92915050565b6104988161041a565b81146104a357600080fd5b50565b6000813590506104b58161048f565b92915050565b6000819050919050565b6104ce816104bb565b81146104d957600080fd5b50565b6000813590506104eb816104c5565b92915050565b6104fa816103a0565b811461050557600080fd5b50565b600081359050610517816104f1565b92915050565b600080600080600060a0868803121561053957610538610454565b5b60006105478882890161047a565b9550506020610558888289016104a6565b9450506040610569888289016104dc565b935050606061057a88828901610508565b925050608061058b888289016104dc565b9150509295509295909350565b6105a1816104bb565b82525050565b60006020820190506105bc6000830184610598565b92915050565b6105cb81610459565b82525050565b60006060820190506105e660008301866103b2565b6105f360208301856103b2565b61060060408301846105c2565b949350505050565b60008115159050919050565b61061d81610608565b811461062857600080fd5b50565b60008151905061063a81610614565b92915050565b60006020828403121561065657610655610454565b5b60006106648482850161062b565b91505092915050565b600060208201905061068260008301846105c2565b92915050565b600060a08201905061069d60008301886105c2565b6106aa6020830187610598565b6106b7604083018661042a565b6106c46060830185610598565b6106d16080830184610598565b9695505050505050565b7f4e487b7100000000000000000000000000000000000000000000000000000000600052601160045260246000fd5b6000610715826103dc565b915067ffffffffffffffff820361072f5761072e6106db565b5b60018201905091905056fea164736f6c6343000818000a","linkReferences":{}},"methodIdentifiers":{"DESTINATION_TOKEN_MESSENGER()":"fb8406a9","depositForBurnWithCaller(uint256,uint32,bytes32,address,bytes32)":"f856ddb6","localMessageTransmitter()":"2c121921","messageBodyVersion()":"9cdbb181","s_nonce()":"7eccf63e"},"id":111}