{"abi":[{"type":"constructor","inputs":[{"name":"version","type":"uint32","internalType":"uint32"},{"name":"transmitter","type":"address","internalType":"address"}],"stateMutability":"nonpayable"},{"type":"function","name":"DESTINATION_TOKEN_MESSENGER","inputs":[],"outputs":[{"name":"","type":"bytes32","internalType":"bytes32"}],"stateMutability":"view"},{"type":"function","name":"depositForBurnWithCaller","inputs":[{"name":"amount","type":"uint256","internalType":"uint256"},{"name":"destinationDomain","type":"uint32","internalType":"uint32"},{"name":"mintRecipient","type":"bytes32","internalType":"bytes32"},{"name":"burnToken","type":"address","internalType":"address"},{"name":"destinationCaller","type":"bytes32","internalType":"bytes32"}],"outputs":[{"name":"","type":"uint64","internalType":"uint64"}],"stateMutability":"nonpayable"},{"type":"function","name":"localMessageTransmitter","inputs":[],"outputs":[{"name":"","type":"address","internalType":"address"}],"stateMutability":"view"},{"type":"function","name":"localMessageTransmitterWithRelay","inputs":[],"outputs":[{"name":"","type":"address","internalType":"contract IMessageTransmitterWithRelay"}],"stateMutability":"view"},{"type":"function","name":"messageBodyVersion","inputs":[],"outputs":[{"name":"","type":"uint32","internalType":"uint32"}],"stateMutability":"view"},{"type":"function","name":"s_nonce","inputs":[],"outputs":[{"name":"","type":"uint64","internalType":"uint64"}],"stateMutability":"view"},{"type":"event","name":"DepositForBurn","inputs":[{"name":"nonce","type":"uint64","indexed":true,"internalType":"uint64"},{"name":"burnToken","type":"address","indexed":true,"internalType":"address"},{"name":"amount","type":"uint256","indexed":false,"internalType":"uint256"},{"name":"depositor","type":"address","indexed":true,"internalType":"address"},{"name":"mintRecipient","type":"bytes32","indexed":false,"internalType":"bytes32"},{"name":"destinationDomain","type":"uint32","indexed":false,"internalType":"uint32"},{"name":"destinationTokenMessenger","type":"bytes32","indexed":false,"internalType":"bytes32"},{"name":"destinationCaller","type":"bytes32","indexed":false,"internalType":"bytes32"}],"anonymous":false}],"bytecode":{"object":"0x60e06040523480156200001157600080fd5b5060405162000e3f38038062000e3f83398181016040528101906200003791906200018f565b8163ffffffff1660808163ffffffff168152505060016000806101000a81548167ffffffffffffffff021916908367ffffffffffffffff1602179055508073ffffffffffffffffffffffffffffffffffffffff1660a08173ffffffffffffffffffffffffffffffffffffffff16815250508073ffffffffffffffffffffffffffffffffffffffff1660c08173ffffffffffffffffffffffffffffffffffffffff16815250505050620001d6565b600080fd5b600063ffffffff82169050919050565b6200010481620000e9565b81146200011057600080fd5b50565b6000815190506200012481620000f9565b92915050565b600073ffffffffffffffffffffffffffffffffffffffff82169050919050565b600062000157826200012a565b9050919050565b62000169816200014a565b81146200017557600080fd5b50565b60008151905062000189816200015e565b92915050565b60008060408385031215620001a957620001a8620000e4565b5b6000620001b98582860162000113565b9250506020620001cc8582860162000178565b9150509250929050565b60805160a05160c051610c246200021b600039600081816101970152818161045e01526105050152600061013101526000818161017101526102ab0152610c246000f3fe608060405234801561001057600080fd5b50600436106100625760003560e01c80632c121921146100675780637eccf63e146100855780639cdbb181146100a3578063a250c66a146100c1578063f856ddb6146100df578063fb8406a91461010f575b600080fd5b61006f61012d565b60405161007c91906105f1565b60405180910390f35b61008d610155565b60405161009a919061062f565b60405180910390f35b6100ab61016d565b6040516100b89190610669565b60405180910390f35b6100c9610195565b6040516100d691906106e3565b60405180910390f35b6100f960048036038101906100f491906107c7565b6101b9565b604051610106919061062f565b60405180910390f35b61011761042c565b6040516101249190610851565b60405180910390f35b60007f0000000000000000000000000000000000000000000000000000000000000000905090565b60008054906101000a900467ffffffffffffffff1681565b60007f0000000000000000000000000000000000000000000000000000000000000000905090565b7f000000000000000000000000000000000000000000000000000000000000000081565b60008273ffffffffffffffffffffffffffffffffffffffff166323b872dd3330896040518463ffffffff1660e01b81526004016101f89392919061087b565b6020604051808303816000875af1158015610217573d6000803e3d6000fd5b505050506040513d601f19601f8201168201806040525081019061023b91906108ea565b508273ffffffffffffffffffffffffffffffffffffffff166342966c68876040518263ffffffff1660e01b81526004016102759190610917565b600060405180830381600087803b15801561028f57600080fd5b505af11580156102a3573d6000803e3d6000fd5b5050505060007f00000000000000000000000000000000000000000000000000000000000000008486893373ffffffffffffffffffffffffffffffffffffffff1660001b6040516020016102fb9594939291906109f2565b6040516020818303038152906040529050610338867f17c71eed51b181d8ae1908b4743526c6dbf099c201f158a1acd5f6718e82e8f68584610450565b6000806101000a81548167ffffffffffffffff021916908367ffffffffffffffff1602179055503373ffffffffffffffffffffffffffffffffffffffff168473ffffffffffffffffffffffffffffffffffffffff1660008054906101000a900467ffffffffffffffff1667ffffffffffffffff167f2fa9ca894982930190727e75500a97d8dc500233a5065e0f3126c48fbe0343c08a898b7f17c71eed51b181d8ae1908b4743526c6dbf099c201f158a1acd5f6718e82e8f68a604051610403959493929190610a51565b60405180910390a460008054906101000a900467ffffffffffffffff1691505095945050505050565b7f17c71eed51b181d8ae1908b4743526c6dbf099c201f158a1acd5f6718e82e8f681565b60008060001b8303610503577f000000000000000000000000000000000000000000000000000000000000000073ffffffffffffffffffffffffffffffffffffffff16630ba469bc8686856040518463ffffffff1660e01b81526004016104b993929190610b34565b6020604051808303816000875af11580156104d8573d6000803e3d6000fd5b505050506040513d601f19601f820116820180604052508101906104fc9190610b9e565b90506105a8565b7f000000000000000000000000000000000000000000000000000000000000000073ffffffffffffffffffffffffffffffffffffffff1663f7259a75868686866040518563ffffffff1660e01b81526004016105629493929190610bcb565b6020604051808303816000875af1158015610581573d6000803e3d6000fd5b505050506040513d601f19601f820116820180604052508101906105a59190610b9e565b90505b949350505050565b600073ffffffffffffffffffffffffffffffffffffffff82169050919050565b60006105db826105b0565b9050919050565b6105eb816105d0565b82525050565b600060208201905061060660008301846105e2565b92915050565b600067ffffffffffffffff82169050919050565b6106298161060c565b82525050565b60006020820190506106446000830184610620565b92915050565b600063ffffffff82169050919050565b6106638161064a565b82525050565b600060208201905061067e600083018461065a565b92915050565b6000819050919050565b60006106a96106a461069f846105b0565b610684565b6105b0565b9050919050565b60006106bb8261068e565b9050919050565b60006106cd826106b0565b9050919050565b6106dd816106c2565b82525050565b60006020820190506106f860008301846106d4565b92915050565b600080fd5b6000819050919050565b61071681610703565b811461072157600080fd5b50565b6000813590506107338161070d565b92915050565b6107428161064a565b811461074d57600080fd5b50565b60008135905061075f81610739565b92915050565b6000819050919050565b61077881610765565b811461078357600080fd5b50565b6000813590506107958161076f565b92915050565b6107a4816105d0565b81146107af57600080fd5b50565b6000813590506107c18161079b565b92915050565b600080600080600060a086880312156107e3576107e26106fe565b5b60006107f188828901610724565b955050602061080288828901610750565b945050604061081388828901610786565b9350506060610824888289016107b2565b925050608061083588828901610786565b9150509295509295909350565b61084b81610765565b82525050565b60006020820190506108666000830184610842565b92915050565b61087581610703565b82525050565b600060608201905061089060008301866105e2565b61089d60208301856105e2565b6108aa604083018461086c565b949350505050565b60008115159050919050565b6108c7816108b2565b81146108d257600080fd5b50565b6000815190506108e4816108be565b92915050565b600060208284031215610900576108ff6106fe565b5b600061090e848285016108d5565b91505092915050565b600060208201905061092c600083018461086c565b92915050565b60008160e01b9050919050565b600061094a82610932565b9050919050565b61096261095d8261064a565b61093f565b82525050565b60008160601b9050919050565b600061098082610968565b9050919050565b600061099282610975565b9050919050565b6109aa6109a5826105d0565b610987565b82525050565b6000819050919050565b6109cb6109c682610765565b6109b0565b82525050565b6000819050919050565b6109ec6109e782610703565b6109d1565b82525050565b60006109fe8288610951565b600482019150610a0e8287610999565b601482019150610a1e82866109ba565b602082019150610a2e82856109db565b602082019150610a3e82846109ba565b6020820191508190509695505050505050565b600060a082019050610a66600083018861086c565b610a736020830187610842565b610a80604083018661065a565b610a8d6060830185610842565b610a9a6080830184610842565b9695505050505050565b600081519050919050565b600082825260208201905092915050565b60005b83811015610ade578082015181840152602081019050610ac3565b60008484015250505050565b6000601f19601f8301169050919050565b6000610b0682610aa4565b610b108185610aaf565b9350610b20818560208601610ac0565b610b2981610aea565b840191505092915050565b6000606082019050610b49600083018661065a565b610b566020830185610842565b8181036040830152610b688184610afb565b9050949350505050565b610b7b8161060c565b8114610b8657600080fd5b50565b600081519050610b9881610b72565b92915050565b600060208284031215610bb457610bb36106fe565b5b6000610bc284828501610b89565b91505092915050565b6000608082019050610be0600083018761065a565b610bed6020830186610842565b610bfa6040830185610842565b8181036060830152610c0c8184610afb565b90509594505050505056fea164736f6c6343000818000a","linkReferences":{}},"methodIdentifiers":{"DESTINATION_TOKEN_MESSENGER()":"fb8406a9","depositForBurnWithCaller(uint256,uint32,bytes32,address,bytes32)":"f856ddb6","localMessageTransmitter()":"2c121921","localMessageTransmitterWithRelay()":"a250c66a","messageBodyVersion()":"9cdbb181","s_nonce()":"7eccf63e"},"id":107}