{"abi":[{"type":"function","name":"DEFAULT_GAS_LIMIT","inputs":[],"outputs":[{"name":"","type":"uint64","internalType":"uint64"}],"stateMutability":"view"},{"type":"function","name":"GAS_FOR_CALL_EXACT_CHECK","inputs":[],"outputs":[{"name":"","type":"uint16","internalType":"uint16"}],"stateMutability":"view"},{"type":"function","name":"ccipSend","inputs":[{"name":"destinationChainSelector","type":"uint64","internalType":"uint64"},{"name":"message","type":"tuple","internalType":"struct Client.EVM2AnyMessage","components":[{"name":"receiver","type":"bytes","internalType":"bytes"},{"name":"data","type":"bytes","internalType":"bytes"},{"name":"tokenAmounts","type":"tuple[]","internalType":"struct Client.EVMTokenAmount[]","components":[{"name":"token","type":"address","internalType":"address"},{"name":"amount","type":"uint256","internalType":"uint256"}]},{"name":"feeToken","type":"address","internalType":"address"},{"name":"extraArgs","type":"bytes","internalType":"bytes"}]}],"outputs":[{"name":"","type":"bytes32","internalType":"bytes32"}],"stateMutability":"payable"},{"type":"function","name":"getFee","inputs":[{"name":"","type":"uint64","internalType":"uint64"},{"name":"","type":"tuple","internalType":"struct Client.EVM2AnyMessage","components":[{"name":"receiver","type":"bytes","internalType":"bytes"},{"name":"data","type":"bytes","internalType":"bytes"},{"name":"tokenAmounts","type":"tuple[]","internalType":"struct Client.EVMTokenAmount[]","components":[{"name":"token","type":"address","internalType":"address"},{"name":"amount","type":"uint256","internalType":"uint256"}]},{"name":"feeToken","type":"address","internalType":"address"},{"name":"extraArgs","type":"bytes","internalType":"bytes"}]}],"outputs":[{"name":"","type":"uint256","internalType":"uint256"}],"stateMutability":"view"},{"type":"function","name":"getOnRamp","inputs":[{"name":"","type":"uint64","internalType":"uint64"}],"outputs":[{"name":"onRampAddress","type":"address","internalType":"address"}],"stateMutability":"pure"},{"type":"function","name":"getSupportedTokens","inputs":[{"name":"","type":"uint64","internalType":"uint64"}],"outputs":[{"name":"tokens","type":"address[]","internalType":"address[]"}],"stateMutability":"pure"},{"type":"function","name":"isChainSupported","inputs":[{"name":"","type":"uint64","internalType":"uint64"}],"outputs":[{"name":"supported","type":"bool","internalType":"bool"}],"stateMutability":"pure"},{"type":"function","name":"isOffRamp","inputs":[{"name":"","type":"uint64","internalType":"uint64"},{"name":"","type":"address","internalType":"address"}],"outputs":[{"name":"","type":"bool","internalType":"bool"}],"stateMutability":"pure"},{"type":"function","name":"routeMessage","inputs":[{"name":"message","type":"tuple","internalType":"struct Client.Any2EVMMessage","components":[{"name":"messageId","type":"bytes32","internalType":"bytes32"},{"name":"sourceChainSelector","type":"uint64","internalType":"uint64"},{"name":"sender","type":"bytes","internalType":"bytes"},{"name":"data","type":"bytes","internalType":"bytes"},{"name":"destTokenAmounts","type":"tuple[]","internalType":"struct Client.EVMTokenAmount[]","components":[{"name":"token","type":"address","internalType":"address"},{"name":"amount","type":"uint256","internalType":"uint256"}]}]},{"name":"gasForCallExactCheck","type":"uint16","internalType":"uint16"},{"name":"gasLimit","type":"uint256","internalType":"uint256"},{"name":"receiver","type":"address","internalType":"address"}],"outputs":[{"name":"success","type":"bool","internalType":"bool"},{"name":"retData","type":"bytes","internalType":"bytes"},{"name":"gasUsed","type":"uint256","internalType":"uint256"}],"stateMutability":"nonpayable"},{"type":"function","name":"setFee","inputs":[{"name":"feeAmount","type":"uint256","internalType":"uint256"}],"outputs":[],"stateMutability":"nonpayable"},{"type":"event","name":"MessageExecuted","inputs":[{"name":"messageId","type":"bytes32","indexed":false,"internalType":"bytes32"},{"name":"sourceChainSelector","type":"uint64","indexed":false,"internalType":"uint64"},{"name":"offRamp","type":"address","indexed":false,"internalType":"address"},{"name":"calldataHash","type":"bytes32","indexed":false,"internalType":"bytes32"}],"anonymous":false},{"type":"event","name":"MsgExecuted","inputs":[{"name":"success","type":"bool","indexed":false,"internalType":"bool"},{"name":"retData","type":"bytes","indexed":false,"internalType":"bytes"},{"name":"gasUsed","type":"uint256","indexed":false,"internalType":"uint256"}],"anonymous":false},{"type":"error","name":"InsufficientFeeTokenAmount","inputs":[]},{"type":"error","name":"InvalidAddress","inputs":[{"name":"encodedAddress","type":"bytes","internalType":"bytes"}]},{"type":"error","name":"InvalidExtraArgsTag","inputs":[]},{"type":"error","name":"InvalidMsgValue","inputs":[]},{"type":"error","name":"OnlyOffRamp","inputs":[]},{"type":"error","name":"ReceiverError","inputs":[{"name":"error","type":"bytes","internalType":"bytes"}]},{"type":"error","name":"UnsupportedDestinationChain","inputs":[{"name":"destChainSelector","type":"uint64","internalType":"uint64"}]}],"bytecode":{"object":"0x608060405234801561001057600080fd5b50612632806100206000396000f3fe6080604052600436106100915760003560e01c8063a48a905811610059578063a48a9058146101a8578063a8d87a3b146101e5578063d6be695a14610222578063ee18e0d31461024d578063fbca3b741461027857610091565b806320487ded146100965780633cf97983146100d357806369fe0e2d1461011257806383826b2b1461013b57806396f4e9f914610178575b600080fd5b3480156100a257600080fd5b506100bd60048036038101906100b89190611499565b6102b5565b6040516100ca9190611504565b60405180910390f35b3480156100df57600080fd5b506100fa60048036038101906100f5919061157d565b6102c1565b6040516101099392919061169a565b60405180910390f35b34801561011e57600080fd5b50610139600480360381019061013491906116d8565b6102ec565b005b34801561014757600080fd5b50610162600480360381019061015d9190611705565b6102f6565b60405161016f9190611745565b60405180910390f35b610192600480360381019061018d919061177f565b610302565b60405161019f91906117f4565b60405180910390f35b3480156101b457600080fd5b506101cf60048036038101906101ca919061180f565b61079a565b6040516101dc9190611745565b60405180910390f35b3480156101f157600080fd5b5061020c6004803603810190610207919061180f565b6107a5565b604051610219919061184b565b60405180910390f35b34801561022e57600080fd5b506102376107b3565b6040516102449190611875565b60405180910390f35b34801561025957600080fd5b506102626107ba565b60405161026f919061189f565b60405180910390f35b34801561028457600080fd5b5061029f600480360381019061029a919061180f565b6107c0565b6040516102ac9190611978565b60405180910390f35b60008054905092915050565b6000606060006102dc876102d490611aa6565b878787610813565b9250925092509450945094915050565b8060008190555050565b60006001905092915050565b600060208280600001906103169190611ac8565b90501461036a5781806000019061032d9190611ac8565b6040517f370d875f000000000000000000000000000000000000000000000000000000008152600401610361929190611b58565b60405180910390fd5b600082806000019061037c9190611ac8565b81019061038991906116d8565b905073ffffffffffffffffffffffffffffffffffffffff80168111806103af5750600a81105b15610401578280600001906103c49190611ac8565b6040517f370d875f0000000000000000000000000000000000000000000000000000000081526004016103f8929190611b58565b60405180910390fd5b6000610416858561041190611b7c565b6102b5565b9050600073ffffffffffffffffffffffffffffffffffffffff168460600160208101906104439190611b8f565b73ffffffffffffffffffffffffffffffffffffffff160361049d5780341015610498576040517f07da6ee600000000000000000000000000000000000000000000000000000000815260040160405180910390fd5b610518565b60003411156104d8576040517f1841b4e100000000000000000000000000000000000000000000000000000000815260040160405180910390fd5b6105173330838760600160208101906104f19190611b8f565b73ffffffffffffffffffffffffffffffffffffffff166109d0909392919063ffffffff16565b5b600082905060006105378680608001906105329190611ac8565b610a59565b6000015190506000866040516020016105509190611eae565b60405160208183030381529060405280519060200120905060006040518060a0016040528083815260200167de41ba4fc9d91ad967ffffffffffffffff168152602001336040516020016105a4919061184b565b60405160208183030381529060405281526020018980602001906105c89190611ac8565b8080601f016020809104026020016040519081016040528093929190818152602001838380828437600081840152601f19601f8201169050808301925050505050505081526020018980604001906106209190611ed0565b808060200260200160405190810160405280939291908181526020016000905b82821015610670578484839050604002018036038101906106619190611f33565b81526020019060010190610640565b5050505050815250905060005b88806040019061068d9190611ed0565b90508110156107305761072533868b80604001906106ab9190611ed0565b858181106106bc576106bb611f60565b5b905060400201602001358c80604001906106d69190611ed0565b868181106106e7576106e6611f60565b5b90506040020160000160208101906106ff9190611b8f565b73ffffffffffffffffffffffffffffffffffffffff166109d0909392919063ffffffff16565b80600101905061067d565b50600080610742836113888789610813565b50915091508161078957806040517f0a8d6e8c0000000000000000000000000000000000000000000000000000000081526004016107809190611f8f565b60405180910390fd5b839850505050505050505092915050565b600060019050919050565b600063499602d29050919050565b62030d4081565b61138881565b6060600067ffffffffffffffff8111156107dd576107dc6110b7565b5b60405190808252806020026020018201604052801561080b5781602001602082028036833780820191505090505b509050919050565b600060606000808473ffffffffffffffffffffffffffffffffffffffff163b148061088457506108827f85572ffb000000000000000000000000000000000000000000000000000000008573ffffffffffffffffffffffffffffffffffffffff16610b4290919063ffffffff16565b155b156108a9576001600060405180602001604052806000815250909250925092506109c6565b60006385572ffb60e01b886040516024016108c49190612159565b604051602081830303815290604052907bffffffffffffffffffffffffffffffffffffffffffffffffffffffff19166020820180517bffffffffffffffffffffffffffffffffffffffffffffffffffffffff838183161783525050505090506109318186888a6084610b67565b8094508195508296505050507fa8b0355886b5b7a28bb97e4f0a24feb172618407402721c4012d8b7c6433102f8484846040516109709392919061169a565b60405180910390a17f9b877de93ea9895756e337442c657f95a34fc68e7eb988bdfa693d5be83016b6886000015189602001513384805190602001206040516109bc949392919061217b565b60405180910390a1505b9450945094915050565b610a53846323b872dd60e01b8585856040516024016109f1939291906121c0565b604051602081830303815290604052907bffffffffffffffffffffffffffffffffffffffffffffffffffffffff19166020820180517bffffffffffffffffffffffffffffffffffffffffffffffffffffffff8381831617835250505050610c9a565b50505050565b610a6161103a565b60008383905003610a8f57604051806020016040528062030d4067ffffffffffffffff168152509050610b3c565b6397a657c960e01b7bffffffffffffffffffffffffffffffffffffffffffffffffffffffff1916838390610ac3919061223b565b7bffffffffffffffffffffffffffffffffffffffffffffffffffffffff191614610b19576040517f5247fdce00000000000000000000000000000000000000000000000000000000815260040160405180910390fd5b82826004908092610b2c939291906122a4565b810190610b39919061231b565b90505b92915050565b6000610b4d83610d61565b8015610b5f5750610b5e8383610dae565b5b905092915050565b6000606060008361ffff1667ffffffffffffffff811115610b8b57610b8a6110b7565b5b6040519080825280601f01601f191660200182016040528015610bbd5781602001600182028036833780820191505090505b509150863b610bf0577f0c3b563c0000000000000000000000000000000000000000000000000000000060005260046000fd5b5a85811015610c23577fafa32a2c0000000000000000000000000000000000000000000000000000000060005260046000fd5b85810390508660408204820311610c5e577f37c3be290000000000000000000000000000000000000000000000000000000060005260046000fd5b5a6000808b5160208d0160008d8df194505a810392503d86811115610c81578690505b808552806000602087013e505050955095509592505050565b6000610cfc826040518060400160405280602081526020017f5361666545524332303a206c6f772d6c6576656c2063616c6c206661696c65648152508573ffffffffffffffffffffffffffffffffffffffff16610e6d9092919063ffffffff16565b9050600081511115610d5c5780806020019051810190610d1c9190612374565b610d5b576040517f08c379a0000000000000000000000000000000000000000000000000000000008152600401610d5290612424565b60405180910390fd5b5b505050565b6000610d8d827f01ffc9a700000000000000000000000000000000000000000000000000000000610dae565b8015610da75750610da58263ffffffff60e01b610dae565b155b9050919050565b6000806301ffc9a760e01b83604051602401610dca9190612453565b604051602081830303815290604052907bffffffffffffffffffffffffffffffffffffffffffffffffffffffff19166020820180517bffffffffffffffffffffffffffffffffffffffffffffffffffffffff838183161783525050505090506000806000602060008551602087018a617530fa92503d91506000519050828015610e55575060208210155b8015610e615750600081115b94505050505092915050565b6060610e7c8484600085610e85565b90509392505050565b606082471015610eca576040517f08c379a0000000000000000000000000000000000000000000000000000000008152600401610ec1906124e0565b60405180910390fd5b6000808673ffffffffffffffffffffffffffffffffffffffff168587604051610ef3919061253c565b60006040518083038185875af1925050503d8060008114610f30576040519150601f19603f3d011682016040523d82523d6000602084013e610f35565b606091505b5091509150610f4687838387610f52565b92505050949350505050565b60608315610fb4576000835103610fac57610f6c85610fc7565b610fab576040517f08c379a0000000000000000000000000000000000000000000000000000000008152600401610fa29061259f565b60405180910390fd5b5b829050610fbf565b610fbe8383610fea565b5b949350505050565b6000808273ffffffffffffffffffffffffffffffffffffffff163b119050919050565b600082511115610ffd5781518083602001fd5b806040517f08c379a00000000000000000000000000000000000000000000000000000000081526004016110319190612603565b60405180910390fd5b6040518060200160405280600081525090565b6000604051905090565b600080fd5b600080fd5b600067ffffffffffffffff82169050919050565b61107e81611061565b811461108957600080fd5b50565b60008135905061109b81611075565b92915050565b600080fd5b6000601f19601f8301169050919050565b7f4e487b7100000000000000000000000000000000000000000000000000000000600052604160045260246000fd5b6110ef826110a6565b810181811067ffffffffffffffff8211171561110e5761110d6110b7565b5b80604052505050565b600061112161104d565b905061112d82826110e6565b919050565b600080fd5b600080fd5b600080fd5b600067ffffffffffffffff82111561115c5761115b6110b7565b5b611165826110a6565b9050602081019050919050565b82818337600083830152505050565b600061119461118f84611141565b611117565b9050828152602081018484840111156111b0576111af61113c565b5b6111bb848285611172565b509392505050565b600082601f8301126111d8576111d7611137565b5b81356111e8848260208601611181565b91505092915050565b600067ffffffffffffffff82111561120c5761120b6110b7565b5b602082029050602081019050919050565b600080fd5b600073ffffffffffffffffffffffffffffffffffffffff82169050919050565b600061124d82611222565b9050919050565b61125d81611242565b811461126857600080fd5b50565b60008135905061127a81611254565b92915050565b6000819050919050565b61129381611280565b811461129e57600080fd5b50565b6000813590506112b08161128a565b92915050565b6000604082840312156112cc576112cb6110a1565b5b6112d66040611117565b905060006112e68482850161126b565b60008301525060206112fa848285016112a1565b60208301525092915050565b6000611319611314846111f1565b611117565b9050808382526020820190506040840283018581111561133c5761133b61121d565b5b835b81811015611365578061135188826112b6565b84526020840193505060408101905061133e565b5050509392505050565b600082601f83011261138457611383611137565b5b8135611394848260208601611306565b91505092915050565b600060a082840312156113b3576113b26110a1565b5b6113bd60a0611117565b9050600082013567ffffffffffffffff8111156113dd576113dc611132565b5b6113e9848285016111c3565b600083015250602082013567ffffffffffffffff81111561140d5761140c611132565b5b611419848285016111c3565b602083015250604082013567ffffffffffffffff81111561143d5761143c611132565b5b6114498482850161136f565b604083015250606061145d8482850161126b565b606083015250608082013567ffffffffffffffff81111561148157611480611132565b5b61148d848285016111c3565b60808301525092915050565b600080604083850312156114b0576114af611057565b5b60006114be8582860161108c565b925050602083013567ffffffffffffffff8111156114df576114de61105c565b5b6114eb8582860161139d565b9150509250929050565b6114fe81611280565b82525050565b600060208201905061151960008301846114f5565b92915050565b600080fd5b600060a0828403121561153a5761153961151f565b5b81905092915050565b600061ffff82169050919050565b61155a81611543565b811461156557600080fd5b50565b60008135905061157781611551565b92915050565b6000806000806080858703121561159757611596611057565b5b600085013567ffffffffffffffff8111156115b5576115b461105c565b5b6115c187828801611524565b94505060206115d287828801611568565b93505060406115e3878288016112a1565b92505060606115f48782880161126b565b91505092959194509250565b60008115159050919050565b61161581611600565b82525050565b600081519050919050565b600082825260208201905092915050565b60005b8381101561165557808201518184015260208101905061163a565b60008484015250505050565b600061166c8261161b565b6116768185611626565b9350611686818560208601611637565b61168f816110a6565b840191505092915050565b60006060820190506116af600083018661160c565b81810360208301526116c18185611661565b90506116d060408301846114f5565b949350505050565b6000602082840312156116ee576116ed611057565b5b60006116fc848285016112a1565b91505092915050565b6000806040838503121561171c5761171b611057565b5b600061172a8582860161108c565b925050602061173b8582860161126b565b9150509250929050565b600060208201905061175a600083018461160c565b92915050565b600060a082840312156117765761177561151f565b5b81905092915050565b6000806040838503121561179657611795611057565b5b60006117a48582860161108c565b925050602083013567ffffffffffffffff8111156117c5576117c461105c565b5b6117d185828601611760565b9150509250929050565b6000819050919050565b6117ee816117db565b82525050565b600060208201905061180960008301846117e5565b92915050565b60006020828403121561182557611824611057565b5b60006118338482850161108c565b91505092915050565b61184581611242565b82525050565b6000602082019050611860600083018461183c565b92915050565b61186f81611061565b82525050565b600060208201905061188a6000830184611866565b92915050565b61189981611543565b82525050565b60006020820190506118b46000830184611890565b92915050565b600081519050919050565b600082825260208201905092915050565b6000819050602082019050919050565b6118ef81611242565b82525050565b600061190183836118e6565b60208301905092915050565b6000602082019050919050565b6000611925826118ba565b61192f81856118c5565b935061193a836118d6565b8060005b8381101561196b57815161195288826118f5565b975061195d8361190d565b92505060018101905061193e565b5085935050505092915050565b60006020820190508181036000830152611992818461191a565b905092915050565b6119a3816117db565b81146119ae57600080fd5b50565b6000813590506119c08161199a565b92915050565b600060a082840312156119dc576119db6110a1565b5b6119e660a0611117565b905060006119f6848285016119b1565b6000830152506020611a0a8482850161108c565b602083015250604082013567ffffffffffffffff811115611a2e57611a2d611132565b5b611a3a848285016111c3565b604083015250606082013567ffffffffffffffff811115611a5e57611a5d611132565b5b611a6a848285016111c3565b606083015250608082013567ffffffffffffffff811115611a8e57611a8d611132565b5b611a9a8482850161136f565b60808301525092915050565b6000611ab236836119c6565b9050919050565b600080fd5b600080fd5b600080fd5b60008083356001602003843603038112611ae557611ae4611ab9565b5b80840192508235915067ffffffffffffffff821115611b0757611b06611abe565b5b602083019250600182023603831315611b2357611b22611ac3565b5b509250929050565b6000611b378385611626565b9350611b44838584611172565b611b4d836110a6565b840190509392505050565b60006020820190508181036000830152611b73818486611b2b565b90509392505050565b6000611b88368361139d565b9050919050565b600060208284031215611ba557611ba4611057565b5b6000611bb38482850161126b565b91505092915050565b600080fd5b600080fd5b600080fd5b60008083356001602003843603038112611be857611be7611bc6565b5b83810192508235915060208301925067ffffffffffffffff821115611c1057611c0f611bbc565b5b600182023603831315611c2657611c25611bc1565b5b509250929050565b600082825260208201905092915050565b6000611c4b8385611c2e565b9350611c58838584611172565b611c61836110a6565b840190509392505050565b60008083356001602003843603038112611c8957611c88611bc6565b5b83810192508235915060208301925067ffffffffffffffff821115611cb157611cb0611bbc565b5b604082023603831315611cc757611cc6611bc1565b5b509250929050565b600082825260208201905092915050565b6000819050919050565b6000611cf9602084018461126b565b905092915050565b6000611d1060208401846112a1565b905092915050565b611d2181611280565b82525050565b60408201611d386000830183611cea565b611d4560008501826118e6565b50611d536020830183611d01565b611d606020850182611d18565b50505050565b6000611d728383611d27565b60408301905092915050565b600082905092915050565b6000604082019050919050565b6000611da28385611ccf565b9350611dad82611ce0565b8060005b85811015611de657611dc38284611d7e565b611dcd8882611d66565b9750611dd883611d89565b925050600181019050611db1565b5085925050509392505050565b600060a08301611e066000840184611bcb565b8583036000870152611e19838284611c3f565b92505050611e2a6020840184611bcb565b8583036020870152611e3d838284611c3f565b92505050611e4e6040840184611c6c565b8583036040870152611e61838284611d96565b92505050611e726060840184611cea565b611e7f60608601826118e6565b50611e8d6080840184611bcb565b8583036080870152611ea0838284611c3f565b925050508091505092915050565b60006020820190508181036000830152611ec88184611df3565b905092915050565b60008083356001602003843603038112611eed57611eec611ab9565b5b80840192508235915067ffffffffffffffff821115611f0f57611f0e611abe565b5b602083019250604082023603831315611f2b57611f2a611ac3565b5b509250929050565b600060408284031215611f4957611f48611057565b5b6000611f57848285016112b6565b91505092915050565b7f4e487b7100000000000000000000000000000000000000000000000000000000600052603260045260246000fd5b60006020820190508181036000830152611fa98184611661565b905092915050565b611fba816117db565b82525050565b611fc981611061565b82525050565b6000611fda8261161b565b611fe48185611c2e565b9350611ff4818560208601611637565b611ffd816110a6565b840191505092915050565b600081519050919050565b6000819050602082019050919050565b60408201600082015161203960008501826118e6565b50602082015161204c6020850182611d18565b50505050565b600061205e8383612023565b60408301905092915050565b6000602082019050919050565b600061208282612008565b61208c8185611ccf565b935061209783612013565b8060005b838110156120c85781516120af8882612052565b97506120ba8361206a565b92505060018101905061209b565b5085935050505092915050565b600060a0830160008301516120ed6000860182611fb1565b5060208301516121006020860182611fc0565b50604083015184820360408601526121188282611fcf565b915050606083015184820360608601526121328282611fcf565b9150506080830151848203608086015261214c8282612077565b9150508091505092915050565b6000602082019050818103600083015261217381846120d5565b905092915050565b600060808201905061219060008301876117e5565b61219d6020830186611866565b6121aa604083018561183c565b6121b760608301846117e5565b95945050505050565b60006060820190506121d5600083018661183c565b6121e2602083018561183c565b6121ef60408301846114f5565b949350505050565b600082905092915050565b60007fffffffff0000000000000000000000000000000000000000000000000000000082169050919050565b600082821b905092915050565b600061224783836121f7565b826122528135612202565b925060048210156122925761228d7fffffffff000000000000000000000000000000000000000000000000000000008360040360080261222e565b831692505b505092915050565b600080fd5b600080fd5b600080858511156122b8576122b761229a565b5b838611156122c9576122c861229f565b5b6001850283019150848603905094509492505050565b6000602082840312156122f5576122f46110a1565b5b6122ff6020611117565b9050600061230f848285016112a1565b60008301525092915050565b60006020828403121561233157612330611057565b5b600061233f848285016122df565b91505092915050565b61235181611600565b811461235c57600080fd5b50565b60008151905061236e81612348565b92915050565b60006020828403121561238a57612389611057565b5b60006123988482850161235f565b91505092915050565b600082825260208201905092915050565b7f5361666545524332303a204552433230206f7065726174696f6e20646964206e60008201527f6f74207375636365656400000000000000000000000000000000000000000000602082015250565b600061240e602a836123a1565b9150612419826123b2565b604082019050919050565b6000602082019050818103600083015261243d81612401565b9050919050565b61244d81612202565b82525050565b60006020820190506124686000830184612444565b92915050565b7f416464726573733a20696e73756666696369656e742062616c616e636520666f60008201527f722063616c6c0000000000000000000000000000000000000000000000000000602082015250565b60006124ca6026836123a1565b91506124d58261246e565b604082019050919050565b600060208201905081810360008301526124f9816124bd565b9050919050565b600081905092915050565b60006125168261161b565b6125208185612500565b9350612530818560208601611637565b80840191505092915050565b6000612548828461250b565b915081905092915050565b7f416464726573733a2063616c6c20746f206e6f6e2d636f6e7472616374000000600082015250565b6000612589601d836123a1565b915061259482612553565b602082019050919050565b600060208201905081810360008301526125b88161257c565b9050919050565b600081519050919050565b60006125d5826125bf565b6125df81856123a1565b93506125ef818560208601611637565b6125f8816110a6565b840191505092915050565b6000602082019050818103600083015261261d81846125ca565b90509291505056fea164736f6c6343000818000a","linkReferences":{}},"methodIdentifiers":{"DEFAULT_GAS_LIMIT()":"d6be695a","GAS_FOR_CALL_EXACT_CHECK()":"ee18e0d3","ccipSend(uint64,(bytes,bytes,(address,uint256)[],address,bytes))":"96f4e9f9","getFee(uint64,(bytes,bytes,(address,uint256)[],address,bytes))":"20487ded","getOnRamp(uint64)":"a8d87a3b","getSupportedTokens(uint64)":"fbca3b74","isChainSupported(uint64)":"a48a9058","isOffRamp(uint64,address)":"83826b2b","routeMessage((bytes32,uint64,bytes,bytes,(address,uint256)[]),uint16,uint256,address)":"3cf97983","setFee(uint256)":"69fe0e2d"},"id":110}