{"abi":[{"type":"constructor","inputs":[{"name":"router","type":"address","internalType":"address"}],"stateMutability":"nonpayable"},{"type":"receive","stateMutability":"payable"},{"type":"function","name":"ccipReceive","inputs":[{"name":"message","type":"tuple","internalType":"struct Client.Any2EVMMessage","components":[{"name":"messageId","type":"bytes32","internalType":"bytes32"},{"name":"sourceChainSelector","type":"uint64","internalType":"uint64"},{"name":"sender","type":"bytes","internalType":"bytes"},{"name":"data","type":"bytes","internalType":"bytes"},{"name":"destTokenAmounts","type":"tuple[]","internalType":"struct Client.EVMTokenAmount[]","components":[{"name":"token","type":"address","internalType":"address"},{"name":"amount","type":"uint256","internalType":"uint256"}]}]}],"outputs":[],"stateMutability":"nonpayable"},{"type":"function","name":"ccipSend","inputs":[{"name":"destinationChainSelector","type":"uint64","internalType":"uint64"},{"name":"message","type":"tuple","internalType":"struct Client.EVM2AnyMessage","components":[{"name":"receiver","type":"bytes","internalType":"bytes"},{"name":"data","type":"bytes","internalType":"bytes"},{"name":"tokenAmounts","type":"tuple[]","internalType":"struct Client.EVMTokenAmount[]","components":[{"name":"token","type":"address","internalType":"address"},{"name":"amount","type":"uint256","internalType":"uint256"}]},{"name":"feeToken","type":"address","internalType":"address"},{"name":"extraArgs","type":"bytes","internalType":"bytes"}]}],"outputs":[{"name":"","type":"bytes32","internalType":"bytes32"}],"stateMutability":"payable"},{"type":"function","name":"getFee","inputs":[{"name":"destinationChainSelector","type":"uint64","internalType":"uint64"},{"name":"message","type":"tuple","internalType":"struct Client.EVM2AnyMessage","components":[{"name":"receiver","type":"bytes","internalType":"bytes"},{"name":"data","type":"bytes","internalType":"bytes"},{"name":"tokenAmounts","type":"tuple[]","internalType":"struct Client.EVMTokenAmount[]","components":[{"name":"token","type":"address","internalType":"address"},{"name":"amount","type":"uint256","internalType":"uint256"}]},{"name":"feeToken","type":"address","internalType":"address"},{"name":"extraArgs","type":"bytes","internalType":"bytes"}]}],"outputs":[{"name":"fee","type":"uint256","internalType":"uint256"}],"stateMutability":"view"},{"type":"function","name":"getRouter","inputs":[],"outputs":[{"name":"","type":"address","internalType":"address"}],"stateMutability":"view"},{"type":"function","name":"i_weth","inputs":[],"outputs":[{"name":"","type":"address","internalType":"contract IWrappedNative"}],"stateMutability":"view"},{"type":"function","name":"supportsInterface","inputs":[{"name":"interfaceId","type":"bytes4","internalType":"bytes4"}],"outputs":[{"name":"","type":"bool","internalType":"bool"}],"stateMutability":"view"},{"type":"function","name":"typeAndVersion","inputs":[],"outputs":[{"name":"","type":"string","internalType":"string"}],"stateMutability":"view"},{"type":"error","name":"InvalidRouter","inputs":[{"name":"router","type":"address","internalType":"address"}]},{"type":"error","name":"InvalidToken","inputs":[{"name":"gotToken","type":"address","internalType":"address"},{"name":"expectedToken","type":"address","internalType":"address"}]},{"type":"error","name":"InvalidTokenAmounts","inputs":[{"name":"gotAmounts","type":"uint256","internalType":"uint256"}]},{"type":"error","name":"TokenAmountNotEqualToMsgValue","inputs":[{"name":"gotAmount","type":"uint256","internalType":"uint256"},{"name":"msgValue","type":"uint256","internalType":"uint256"}]}],"bytecode":{"object":"0x60c06040523480156200001157600080fd5b50604051620024c1380380620024c183398181016040528101906200003791906200029e565b80600073ffffffffffffffffffffffffffffffffffffffff168173ffffffffffffffffffffffffffffffffffffffff1603620000ad5760006040517fd7f73334000000000000000000000000000000000000000000000000000000008152600401620000a49190620002e1565b60405180910390fd5b8073ffffffffffffffffffffffffffffffffffffffff1660808173ffffffffffffffffffffffffffffffffffffffff1681525050508073ffffffffffffffffffffffffffffffffffffffff1663e861e9076040518163ffffffff1660e01b8152600401602060405180830381865afa1580156200012e573d6000803e3d6000fd5b505050506040513d601f19601f820116820180604052508101906200015491906200029e565b73ffffffffffffffffffffffffffffffffffffffff1660a08173ffffffffffffffffffffffffffffffffffffffff168152505060a05173ffffffffffffffffffffffffffffffffffffffff1663095ea7b3827fffffffffffffffffffffffffffffffffffffffffffffffffffffffffffffffff6040518363ffffffff1660e01b8152600401620001e692919062000319565b6020604051808303816000875af115801562000206573d6000803e3d6000fd5b505050506040513d601f19601f820116820180604052508101906200022c919062000383565b5050620003b5565b600080fd5b600073ffffffffffffffffffffffffffffffffffffffff82169050919050565b6000620002668262000239565b9050919050565b620002788162000259565b81146200028457600080fd5b50565b60008151905062000298816200026d565b92915050565b600060208284031215620002b757620002b662000234565b5b6000620002c78482850162000287565b91505092915050565b620002db8162000259565b82525050565b6000602082019050620002f86000830184620002d0565b92915050565b6000819050919050565b6200031381620002fe565b82525050565b6000604082019050620003306000830185620002d0565b6200033f602083018462000308565b9392505050565b60008115159050919050565b6200035d8162000346565b81146200036957600080fd5b50565b6000815190506200037d8162000352565b92915050565b6000602082840312156200039c576200039b62000234565b5b6000620003ac848285016200036c565b91505092915050565b60805160a0516120ae620004136000396000818161037b01528181610443015281816105d70152818161088d0152818161097801528181610a1201528181610a9801528181610b940152610c15015260006107da01526120ae6000f3fe6080604052600436106100745760003560e01c80634dbe7e921161004e5780634dbe7e921461012557806385572ffb1461015057806396f4e9f914610179578063b0f479a1146101a95761007b565b806301ffc9a714610080578063181f5a77146100bd57806320487ded146100e85761007b565b3661007b57005b600080fd5b34801561008c57600080fd5b506100a760048036038101906100a29190611148565b6101d4565b6040516100b49190611190565b60405180910390f35b3480156100c957600080fd5b506100d26102a6565b6040516100df919061123b565b60405180910390f35b3480156100f457600080fd5b5061010f600480360381019061010a91906112c1565b6102df565b60405161011c9190611336565b60405180910390f35b34801561013157600080fd5b5061013a610379565b60405161014791906113d0565b60405180910390f35b34801561015c57600080fd5b506101776004803603810190610172919061140a565b61039d565b005b610193600480360381019061018e91906112c1565b610429565b6040516101a0919061146c565b60405180910390f35b3480156101b557600080fd5b506101be6107d6565b6040516101cb91906114a8565b60405180910390f35b60007f85572ffb000000000000000000000000000000000000000000000000000000007bffffffffffffffffffffffffffffffffffffffffffffffffffffffff1916827bffffffffffffffffffffffffffffffffffffffffffffffffffffffff1916148061029f57507f01ffc9a7000000000000000000000000000000000000000000000000000000007bffffffffffffffffffffffffffffffffffffffffffffffffffffffff1916827bffffffffffffffffffffffffffffffffffffffffffffffffffffffff1916145b9050919050565b6040518060400160405280601981526020017f457468657253656e646572526563656976657220312e352e300000000000000081525081565b6000806102eb836107fe565b90506102f56107d6565b73ffffffffffffffffffffffffffffffffffffffff166320487ded85836040518363ffffffff1660e01b815260040161032f9291906116ae565b602060405180830381865afa15801561034c573d6000803e3d6000fd5b505050506040513d601f19601f82011682018060405250810190610370919061170a565b91505092915050565b7f000000000000000000000000000000000000000000000000000000000000000081565b6103a56107d6565b73ffffffffffffffffffffffffffffffffffffffff163373ffffffffffffffffffffffffffffffffffffffff161461041457336040517fd7f7333400000000000000000000000000000000000000000000000000000000815260040161040b91906114a8565b60405180910390fd5b6104268161042190611adb565b61090b565b50565b600061043482610cb9565b600061043f836107fe565b90507f000000000000000000000000000000000000000000000000000000000000000073ffffffffffffffffffffffffffffffffffffffff1663d0e30db0826040015160008151811061049557610494611aee565b5b6020026020010151602001516040518263ffffffff1660e01b81526004016000604051808303818588803b1580156104cc57600080fd5b505af11580156104e0573d6000803e3d6000fd5b505050505060006104ef6107d6565b73ffffffffffffffffffffffffffffffffffffffff166320487ded86846040518363ffffffff1660e01b81526004016105299291906116ae565b602060405180830381865afa158015610546573d6000803e3d6000fd5b505050506040513d601f19601f8201168201806040525081019061056a919061170a565b9050600073ffffffffffffffffffffffffffffffffffffffff16826060015173ffffffffffffffffffffffffffffffffffffffff1614610745576105d5333083856060015173ffffffffffffffffffffffffffffffffffffffff16610d7a909392919063ffffffff16565b7f000000000000000000000000000000000000000000000000000000000000000073ffffffffffffffffffffffffffffffffffffffff16826060015173ffffffffffffffffffffffffffffffffffffffff16146106b757816060015173ffffffffffffffffffffffffffffffffffffffff1663095ea7b36106546107d6565b836040518363ffffffff1660e01b8152600401610672929190611b1d565b6020604051808303816000875af1158015610691573d6000803e3d6000fd5b505050506040513d601f19601f820116820180604052508101906106b59190611b72565b505b6106bf6107d6565b73ffffffffffffffffffffffffffffffffffffffff166396f4e9f986846040518363ffffffff1660e01b81526004016106f99291906116ae565b6020604051808303816000875af1158015610718573d6000803e3d6000fd5b505050506040513d601f19601f8201168201806040525081019061073c9190611bb4565b925050506107d0565b61074d6107d6565b73ffffffffffffffffffffffffffffffffffffffff166396f4e9f94787856040518463ffffffff1660e01b81526004016107889291906116ae565b60206040518083038185885af11580156107a6573d6000803e3d6000fd5b50505050506040513d601f19601f820116820180604052508101906107cb9190611bb4565b925050505b92915050565b60007f0000000000000000000000000000000000000000000000000000000000000000905090565b610806611097565b60008261081290611cdd565b9050600181604001515114610863578060400151516040517f83b9f0ae00000000000000000000000000000000000000000000000000000000815260040161085a9190611336565b60405180910390fd5b3360405160200161087491906114a8565b60405160208183030381529060405281602001819052507f000000000000000000000000000000000000000000000000000000000000000081604001516000815181106108c4576108c3611aee565b5b60200260200101516000019073ffffffffffffffffffffffffffffffffffffffff16908173ffffffffffffffffffffffffffffffffffffffff168152505080915050919050565b600081606001518060200190518101906109259190611d2e565b9050600182608001515114610976578160800151516040517f83b9f0ae00000000000000000000000000000000000000000000000000000000815260040161096d9190611336565b60405180910390fd5b7f000000000000000000000000000000000000000000000000000000000000000073ffffffffffffffffffffffffffffffffffffffff1682608001516000815181106109c5576109c4611aee565b5b60200260200101516000015173ffffffffffffffffffffffffffffffffffffffff1614610a6e578160800151600081518110610a0457610a03611aee565b5b6020026020010151600001517f00000000000000000000000000000000000000000000000000000000000000006040517f0fc746a1000000000000000000000000000000000000000000000000000000008152600401610a65929190611d5b565b60405180910390fd5b60008260800151600081518110610a8857610a87611aee565b5b60200260200101516020015190507f000000000000000000000000000000000000000000000000000000000000000073ffffffffffffffffffffffffffffffffffffffff16632e1a7d4d826040518263ffffffff1660e01b8152600401610aef9190611336565b600060405180830381600087803b158015610b0957600080fd5b505af1158015610b1d573d6000803e3d6000fd5b5050505060008273ffffffffffffffffffffffffffffffffffffffff1682604051610b4790611db5565b60006040518083038185875af1925050503d8060008114610b84576040519150601f19603f3d011682016040523d82523d6000602084013e610b89565b606091505b5050905080610cb3577f000000000000000000000000000000000000000000000000000000000000000073ffffffffffffffffffffffffffffffffffffffff1663d0e30db0836040518263ffffffff1660e01b81526004016000604051808303818588803b158015610bfa57600080fd5b505af1158015610c0e573d6000803e3d6000fd5b50505050507f000000000000000000000000000000000000000000000000000000000000000073ffffffffffffffffffffffffffffffffffffffff1663a9059cbb84846040518363ffffffff1660e01b8152600401610c6e929190611b1d565b6020604051808303816000875af1158015610c8d573d6000803e3d6000fd5b505050506040513d601f19601f82011682018060405250810190610cb19190611b72565b505b50505050565b6000818060400190610ccb9190611dd9565b6000818110610cdd57610cdc611aee565b5b905060400201602001359050600073ffffffffffffffffffffffffffffffffffffffff16826060016020810190610d149190611e3c565b73ffffffffffffffffffffffffffffffffffffffff1614610d7657803414610d755780346040517fba2f7467000000000000000000000000000000000000000000000000000000008152600401610d6c929190611e69565b60405180910390fd5b5b5050565b610dfd846323b872dd60e01b858585604051602401610d9b93929190611e92565b604051602081830303815290604052907bffffffffffffffffffffffffffffffffffffffffffffffffffffffff19166020820180517bffffffffffffffffffffffffffffffffffffffffffffffffffffffff8381831617835250505050610e03565b50505050565b6000610e65826040518060400160405280602081526020017f5361666545524332303a206c6f772d6c6576656c2063616c6c206661696c65648152508573ffffffffffffffffffffffffffffffffffffffff16610eca9092919063ffffffff16565b9050600081511115610ec55780806020019051810190610e859190611b72565b610ec4576040517f08c379a0000000000000000000000000000000000000000000000000000000008152600401610ebb90611f3b565b60405180910390fd5b5b505050565b6060610ed98484600085610ee2565b90509392505050565b606082471015610f27576040517f08c379a0000000000000000000000000000000000000000000000000000000008152600401610f1e90611fcd565b60405180910390fd5b6000808673ffffffffffffffffffffffffffffffffffffffff168587604051610f50919061201e565b60006040518083038185875af1925050503d8060008114610f8d576040519150601f19603f3d011682016040523d82523d6000602084013e610f92565b606091505b5091509150610fa387838387610faf565b92505050949350505050565b6060831561101157600083510361100957610fc985611024565b611008576040517f08c379a0000000000000000000000000000000000000000000000000000000008152600401610fff90612081565b60405180910390fd5b5b82905061101c565b61101b8383611047565b5b949350505050565b6000808273ffffffffffffffffffffffffffffffffffffffff163b119050919050565b60008251111561105a5781518083602001fd5b806040517f08c379a000000000000000000000000000000000000000000000000000000000815260040161108e919061123b565b60405180910390fd5b6040518060a00160405280606081526020016060815260200160608152602001600073ffffffffffffffffffffffffffffffffffffffff168152602001606081525090565b6000604051905090565b600080fd5b600080fd5b60007fffffffff0000000000000000000000000000000000000000000000000000000082169050919050565b611125816110f0565b811461113057600080fd5b50565b6000813590506111428161111c565b92915050565b60006020828403121561115e5761115d6110e6565b5b600061116c84828501611133565b91505092915050565b60008115159050919050565b61118a81611175565b82525050565b60006020820190506111a56000830184611181565b92915050565b600081519050919050565b600082825260208201905092915050565b60005b838110156111e55780820151818401526020810190506111ca565b60008484015250505050565b6000601f19601f8301169050919050565b600061120d826111ab565b61121781856111b6565b93506112278185602086016111c7565b611230816111f1565b840191505092915050565b600060208201905081810360008301526112558184611202565b905092915050565b600067ffffffffffffffff82169050919050565b61127a8161125d565b811461128557600080fd5b50565b60008135905061129781611271565b92915050565b600080fd5b600060a082840312156112b8576112b761129d565b5b81905092915050565b600080604083850312156112d8576112d76110e6565b5b60006112e685828601611288565b925050602083013567ffffffffffffffff811115611307576113066110eb565b5b611313858286016112a2565b9150509250929050565b6000819050919050565b6113308161131d565b82525050565b600060208201905061134b6000830184611327565b92915050565b600073ffffffffffffffffffffffffffffffffffffffff82169050919050565b6000819050919050565b600061139661139161138c84611351565b611371565b611351565b9050919050565b60006113a88261137b565b9050919050565b60006113ba8261139d565b9050919050565b6113ca816113af565b82525050565b60006020820190506113e560008301846113c1565b92915050565b600060a082840312156114015761140061129d565b5b81905092915050565b6000602082840312156114205761141f6110e6565b5b600082013567ffffffffffffffff81111561143e5761143d6110eb565b5b61144a848285016113eb565b91505092915050565b6000819050919050565b61146681611453565b82525050565b6000602082019050611481600083018461145d565b92915050565b600061149282611351565b9050919050565b6114a281611487565b82525050565b60006020820190506114bd6000830184611499565b92915050565b6114cc8161125d565b82525050565b600081519050919050565b600082825260208201905092915050565b60006114f9826114d2565b61150381856114dd565b93506115138185602086016111c7565b61151c816111f1565b840191505092915050565b600081519050919050565b600082825260208201905092915050565b6000819050602082019050919050565b61155c81611487565b82525050565b61156b8161131d565b82525050565b6040820160008201516115876000850182611553565b50602082015161159a6020850182611562565b50505050565b60006115ac8383611571565b60408301905092915050565b6000602082019050919050565b60006115d082611527565b6115da8185611532565b93506115e583611543565b8060005b838110156116165781516115fd88826115a0565b9750611608836115b8565b9250506001810190506115e9565b5085935050505092915050565b600060a083016000830151848203600086015261164082826114ee565b9150506020830151848203602086015261165a82826114ee565b9150506040830151848203604086015261167482826115c5565b91505060608301516116896060860182611553565b50608083015184820360808601526116a182826114ee565b9150508091505092915050565b60006040820190506116c360008301856114c3565b81810360208301526116d58184611623565b90509392505050565b6116e78161131d565b81146116f257600080fd5b50565b600081519050611704816116de565b92915050565b6000602082840312156117205761171f6110e6565b5b600061172e848285016116f5565b91505092915050565b600080fd5b7f4e487b7100000000000000000000000000000000000000000000000000000000600052604160045260246000fd5b611774826111f1565b810181811067ffffffffffffffff821117156117935761179261173c565b5b80604052505050565b60006117a66110dc565b90506117b2828261176b565b919050565b600080fd5b6117c581611453565b81146117d057600080fd5b50565b6000813590506117e2816117bc565b92915050565b600080fd5b600080fd5b600067ffffffffffffffff82111561180d5761180c61173c565b5b611816826111f1565b9050602081019050919050565b82818337600083830152505050565b6000611845611840846117f2565b61179c565b905082815260208101848484011115611861576118606117ed565b5b61186c848285611823565b509392505050565b600082601f830112611889576118886117e8565b5b8135611899848260208601611832565b91505092915050565b600067ffffffffffffffff8211156118bd576118bc61173c565b5b602082029050602081019050919050565b600080fd5b6118dc81611487565b81146118e757600080fd5b50565b6000813590506118f9816118d3565b92915050565b60008135905061190e816116de565b92915050565b60006040828403121561192a57611929611737565b5b611934604061179c565b90506000611944848285016118ea565b6000830152506020611958848285016118ff565b60208301525092915050565b6000611977611972846118a2565b61179c565b9050808382526020820190506040840283018581111561199a576119996118ce565b5b835b818110156119c357806119af8882611914565b84526020840193505060408101905061199c565b5050509392505050565b600082601f8301126119e2576119e16117e8565b5b81356119f2848260208601611964565b91505092915050565b600060a08284031215611a1157611a10611737565b5b611a1b60a061179c565b90506000611a2b848285016117d3565b6000830152506020611a3f84828501611288565b602083015250604082013567ffffffffffffffff811115611a6357611a626117b7565b5b611a6f84828501611874565b604083015250606082013567ffffffffffffffff811115611a9357611a926117b7565b5b611a9f84828501611874565b606083015250608082013567ffffffffffffffff811115611ac357611ac26117b7565b5b611acf848285016119cd565b60808301525092915050565b6000611ae736836119fb565b9050919050565b7f4e487b7100000000000000000000000000000000000000000000000000000000600052603260045260246000fd5b6000604082019050611b326000830185611499565b611b3f6020830184611327565b9392505050565b611b4f81611175565b8114611b5a57600080fd5b50565b600081519050611b6c81611b46565b92915050565b600060208284031215611b8857611b876110e6565b5b6000611b9684828501611b5d565b91505092915050565b600081519050611bae816117bc565b92915050565b600060208284031215611bca57611bc96110e6565b5b6000611bd884828501611b9f565b91505092915050565b600060a08284031215611bf757611bf6611737565b5b611c0160a061179c565b9050600082013567ffffffffffffffff811115611c2157611c206117b7565b5b611c2d84828501611874565b600083015250602082013567ffffffffffffffff811115611c5157611c506117b7565b5b611c5d84828501611874565b602083015250604082013567ffffffffffffffff811115611c8157611c806117b7565b5b611c8d848285016119cd565b6040830152506060611ca1848285016118ea565b606083015250608082013567ffffffffffffffff811115611cc557611cc46117b7565b5b611cd184828501611874565b60808301525092915050565b6000611ce93683611be1565b9050919050565b6000611cfb82611351565b9050919050565b611d0b81611cf0565b8114611d1657600080fd5b50565b600081519050611d2881611d02565b92915050565b600060208284031215611d4457611d436110e6565b5b6000611d5284828501611d19565b91505092915050565b6000604082019050611d706000830185611499565b611d7d6020830184611499565b9392505050565b600081905092915050565b50565b6000611d9f600083611d84565b9150611daa82611d8f565b600082019050919050565b6000611dc082611d92565b9150819050919050565b600080fd5b600080fd5b600080fd5b60008083356001602003843603038112611df657611df5611dca565b5b80840192508235915067ffffffffffffffff821115611e1857611e17611dcf565b5b602083019250604082023603831315611e3457611e33611dd4565b5b509250929050565b600060208284031215611e5257611e516110e6565b5b6000611e60848285016118ea565b91505092915050565b6000604082019050611e7e6000830185611327565b611e8b6020830184611327565b9392505050565b6000606082019050611ea76000830186611499565b611eb46020830185611499565b611ec16040830184611327565b949350505050565b7f5361666545524332303a204552433230206f7065726174696f6e20646964206e60008201527f6f74207375636365656400000000000000000000000000000000000000000000602082015250565b6000611f25602a836111b6565b9150611f3082611ec9565b604082019050919050565b60006020820190508181036000830152611f5481611f18565b9050919050565b7f416464726573733a20696e73756666696369656e742062616c616e636520666f60008201527f722063616c6c0000000000000000000000000000000000000000000000000000602082015250565b6000611fb76026836111b6565b9150611fc282611f5b565b604082019050919050565b60006020820190508181036000830152611fe681611faa565b9050919050565b6000611ff8826114d2565b6120028185611d84565b93506120128185602086016111c7565b80840191505092915050565b600061202a8284611fed565b915081905092915050565b7f416464726573733a2063616c6c20746f206e6f6e2d636f6e7472616374000000600082015250565b600061206b601d836111b6565b915061207682612035565b602082019050919050565b6000602082019050818103600083015261209a8161205e565b905091905056fea164736f6c6343000818000a","linkReferences":{}},"methodIdentifiers":{"ccipReceive((bytes32,uint64,bytes,bytes,(address,uint256)[]))":"85572ffb","ccipSend(uint64,(bytes,bytes,(address,uint256)[],address,bytes))":"96f4e9f9","getFee(uint64,(bytes,bytes,(address,uint256)[],address,bytes))":"20487ded","getRouter()":"b0f479a1","i_weth()":"4dbe7e92","supportsInterface(bytes4)":"01ffc9a7","typeAndVersion()":"181f5a77"},"id":9}