{"abi":[{"type":"constructor","inputs":[{"name":"token","type":"address","internalType":"contract IBurnMintERC20"},{"name":"allowlist","type":"address[]","internalType":"address[]"},{"name":"rmnProxy","type":"address","internalType":"address"},{"name":"router","type":"address","internalType":"address"}],"stateMutability":"nonpayable"},{"type":"function","name":"acceptOwnership","inputs":[],"outputs":[],"stateMutability":"nonpayable"},{"type":"function","name":"applyAllowListUpdates","inputs":[{"name":"removes","type":"address[]","internalType":"address[]"},{"name":"adds","type":"address[]","internalType":"address[]"}],"outputs":[],"stateMutability":"nonpayable"},{"type":"function","name":"applyChainUpdates","inputs":[{"name":"chains","type":"tuple[]","internalType":"struct TokenPool.ChainUpdate[]","components":[{"name":"remoteChainSelector","type":"uint64","internalType":"uint64"},{"name":"allowed","type":"bool","internalType":"bool"},{"name":"remotePoolAddress","type":"bytes","internalType":"bytes"},{"name":"remoteTokenAddress","type":"bytes","internalType":"bytes"},{"name":"outboundRateLimiterConfig","type":"tuple","internalType":"struct RateLimiter.Config","components":[{"name":"isEnabled","type":"bool","internalType":"bool"},{"name":"capacity","type":"uint128","internalType":"uint128"},{"name":"rate","type":"uint128","internalType":"uint128"}]},{"name":"inboundRateLimiterConfig","type":"tuple","internalType":"struct RateLimiter.Config","components":[{"name":"isEnabled","type":"bool","internalType":"bool"},{"name":"capacity","type":"uint128","internalType":"uint128"},{"name":"rate","type":"uint128","internalType":"uint128"}]}]}],"outputs":[],"stateMutability":"nonpayable"},{"type":"function","name":"getAllowList","inputs":[],"outputs":[{"name":"","type":"address[]","internalType":"address[]"}],"stateMutability":"view"},{"type":"function","name":"getAllowListEnabled","inputs":[],"outputs":[{"name":"","type":"bool","internalType":"bool"}],"stateMutability":"view"},{"type":"function","name":"getCurrentInboundRateLimiterState","inputs":[{"name":"remoteChainSelector","type":"uint64","internalType":"uint64"}],"outputs":[{"name":"","type":"tuple","internalType":"struct RateLimiter.TokenBucket","components":[{"name":"tokens","type":"uint128","internalType":"uint128"},{"name":"lastUpdated","type":"uint32","internalType":"uint32"},{"name":"isEnabled","type":"bool","internalType":"bool"},{"name":"capacity","type":"uint128","internalType":"uint128"},{"name":"rate","type":"uint128","internalType":"uint128"}]}],"stateMutability":"view"},{"type":"function","name":"getCurrentOutboundRateLimiterState","inputs":[{"name":"remoteChainSelector","type":"uint64","internalType":"uint64"}],"outputs":[{"name":"","type":"tuple","internalType":"struct RateLimiter.TokenBucket","components":[{"name":"tokens","type":"uint128","internalType":"uint128"},{"name":"lastUpdated","type":"uint32","internalType":"uint32"},{"name":"isEnabled","type":"bool","internalType":"bool"},{"name":"capacity","type":"uint128","internalType":"uint128"},{"name":"rate","type":"uint128","internalType":"uint128"}]}],"stateMutability":"view"},{"type":"function","name":"getRemotePool","inputs":[{"name":"remoteChainSelector","type":"uint64","internalType":"uint64"}],"outputs":[{"name":"","type":"bytes","internalType":"bytes"}],"stateMutability":"view"},{"type":"function","name":"getRemoteToken","inputs":[{"name":"remoteChainSelector","type":"uint64","internalType":"uint64"}],"outputs":[{"name":"","type":"bytes","internalType":"bytes"}],"stateMutability":"view"},{"type":"function","name":"getRmnProxy","inputs":[],"outputs":[{"name":"rmnProxy","type":"address","internalType":"address"}],"stateMutability":"view"},{"type":"function","name":"getRouter","inputs":[],"outputs":[{"name":"router","type":"address","internalType":"address"}],"stateMutability":"view"},{"type":"function","name":"getSupportedChains","inputs":[],"outputs":[{"name":"","type":"uint64[]","internalType":"uint64[]"}],"stateMutability":"view"},{"type":"function","name":"getToken","inputs":[],"outputs":[{"name":"token","type":"address","internalType":"contract IERC20"}],"stateMutability":"view"},{"type":"function","name":"isSupportedChain","inputs":[{"name":"remoteChainSelector","type":"uint64","internalType":"uint64"}],"outputs":[{"name":"","type":"bool","internalType":"bool"}],"stateMutability":"view"},{"type":"function","name":"isSupportedToken","inputs":[{"name":"token","type":"address","internalType":"address"}],"outputs":[{"name":"","type":"bool","internalType":"bool"}],"stateMutability":"view"},{"type":"function","name":"lockOrBurn","inputs":[{"name":"lockOrBurnIn","type":"tuple","internalType":"struct Pool.LockOrBurnInV1","components":[{"name":"receiver","type":"bytes","internalType":"bytes"},{"name":"remoteChainSelector","type":"uint64","internalType":"uint64"},{"name":"originalSender","type":"address","internalType":"address"},{"name":"amount","type":"uint256","internalType":"uint256"},{"name":"localToken","type":"address","internalType":"address"}]}],"outputs":[{"name":"","type":"tuple","internalType":"struct Pool.LockOrBurnOutV1","components":[{"name":"destTokenAddress","type":"bytes","internalType":"bytes"},{"name":"destPoolData","type":"bytes","internalType":"bytes"}]}],"stateMutability":"nonpayable"},{"type":"function","name":"owner","inputs":[],"outputs":[{"name":"","type":"address","internalType":"address"}],"stateMutability":"view"},{"type":"function","name":"releaseOrMint","inputs":[{"name":"releaseOrMintIn","type":"tuple","internalType":"struct Pool.ReleaseOrMintInV1","components":[{"name":"originalSender","type":"bytes","internalType":"bytes"},{"name":"remoteChainSelector","type":"uint64","internalType":"uint64"},{"name":"receiver","type":"address","internalType":"address"},{"name":"amount","type":"uint256","internalType":"uint256"},{"name":"localToken","type":"address","internalType":"address"},{"name":"sourcePoolAddress","type":"bytes","internalType":"bytes"},{"name":"sourcePoolData","type":"bytes","internalType":"bytes"},{"name":"offchainTokenData","type":"bytes","internalType":"bytes"}]}],"outputs":[{"name":"","type":"tuple","internalType":"struct Pool.ReleaseOrMintOutV1","components":[{"name":"destinationAmount","type":"uint256","internalType":"uint256"}]}],"stateMutability":"nonpayable"},{"type":"function","name":"s_revertReason","inputs":[],"outputs":[{"name":"","type":"bytes","internalType":"bytes"}],"stateMutability":"view"},{"type":"function","name":"s_sourceTokenData","inputs":[],"outputs":[{"name":"","type":"bytes","internalType":"bytes"}],"stateMutability":"view"},{"type":"function","name":"setChainRateLimiterConfig","inputs":[{"name":"remoteChainSelector","type":"uint64","internalType":"uint64"},{"name":"outboundConfig","type":"tuple","internalType":"struct RateLimiter.Config","components":[{"name":"isEnabled","type":"bool","internalType":"bool"},{"name":"capacity","type":"uint128","internalType":"uint128"},{"name":"rate","type":"uint128","internalType":"uint128"}]},{"name":"inboundConfig","type":"tuple","internalType":"struct RateLimiter.Config","components":[{"name":"isEnabled","type":"bool","internalType":"bool"},{"name":"capacity","type":"uint128","internalType":"uint128"},{"name":"rate","type":"uint128","internalType":"uint128"}]}],"outputs":[],"stateMutability":"nonpayable"},{"type":"function","name":"setRemotePool","inputs":[{"name":"remoteChainSelector","type":"uint64","internalType":"uint64"},{"name":"remotePoolAddress","type":"bytes","internalType":"bytes"}],"outputs":[],"stateMutability":"nonpayable"},{"type":"function","name":"setRouter","inputs":[{"name":"newRouter","type":"address","internalType":"address"}],"outputs":[],"stateMutability":"nonpayable"},{"type":"function","name":"setShouldRevert","inputs":[{"name":"revertReason","type":"bytes","internalType":"bytes"}],"outputs":[],"stateMutability":"nonpayable"},{"type":"function","name":"setSourceTokenData","inputs":[{"name":"sourceTokenData","type":"bytes","internalType":"bytes"}],"outputs":[],"stateMutability":"nonpayable"},{"type":"function","name":"supportsInterface","inputs":[{"name":"interfaceId","type":"bytes4","internalType":"bytes4"}],"outputs":[{"name":"","type":"bool","internalType":"bool"}],"stateMutability":"pure"},{"type":"function","name":"transferOwnership","inputs":[{"name":"to","type":"address","internalType":"address"}],"outputs":[],"stateMutability":"nonpayable"},{"type":"function","name":"typeAndVersion","inputs":[],"outputs":[{"name":"","type":"string","internalType":"string"}],"stateMutability":"view"},{"type":"event","name":"AllowListAdd","inputs":[{"name":"sender","type":"address","indexed":false,"internalType":"address"}],"anonymous":false},{"type":"event","name":"AllowListRemove","inputs":[{"name":"sender","type":"address","indexed":false,"internalType":"address"}],"anonymous":false},{"type":"event","name":"Burned","inputs":[{"name":"sender","type":"address","indexed":true,"internalType":"address"},{"name":"amount","type":"uint256","indexed":false,"internalType":"uint256"}],"anonymous":false},{"type":"event","name":"ChainAdded","inputs":[{"name":"remoteChainSelector","type":"uint64","indexed":false,"internalType":"uint64"},{"name":"remoteToken","type":"bytes","indexed":false,"internalType":"bytes"},{"name":"outboundRateLimiterConfig","type":"tuple","indexed":false,"internalType":"struct RateLimiter.Config","components":[{"name":"isEnabled","type":"bool","internalType":"bool"},{"name":"capacity","type":"uint128","internalType":"uint128"},{"name":"rate","type":"uint128","internalType":"uint128"}]},{"name":"inboundRateLimiterConfig","type":"tuple","indexed":false,"internalType":"struct RateLimiter.Config","components":[{"name":"isEnabled","type":"bool","internalType":"bool"},{"name":"capacity","type":"uint128","internalType":"uint128"},{"name":"rate","type":"uint128","internalType":"uint128"}]}],"anonymous":false},{"type":"event","name":"ChainConfigured","inputs":[{"name":"remoteChainSelector","type":"uint64","indexed":false,"internalType":"uint64"},{"name":"outboundRateLimiterConfig","type":"tuple","indexed":false,"internalType":"struct RateLimiter.Config","components":[{"name":"isEnabled","type":"bool","internalType":"bool"},{"name":"capacity","type":"uint128","internalType":"uint128"},{"name":"rate","type":"uint128","internalType":"uint128"}]},{"name":"inboundRateLimiterConfig","type":"tuple","indexed":false,"internalType":"struct RateLimiter.Config","components":[{"name":"isEnabled","type":"bool","internalType":"bool"},{"name":"capacity","type":"uint128","internalType":"uint128"},{"name":"rate","type":"uint128","internalType":"uint128"}]}],"anonymous":false},{"type":"event","name":"ChainRemoved","inputs":[{"name":"remoteChainSelector","type":"uint64","indexed":false,"internalType":"uint64"}],"anonymous":false},{"type":"event","name":"ConfigChanged","inputs":[{"name":"config","type":"tuple","indexed":false,"internalType":"struct RateLimiter.Config","components":[{"name":"isEnabled","type":"bool","internalType":"bool"},{"name":"capacity","type":"uint128","internalType":"uint128"},{"name":"rate","type":"uint128","internalType":"uint128"}]}],"anonymous":false},{"type":"event","name":"Locked","inputs":[{"name":"sender","type":"address","indexed":true,"internalType":"address"},{"name":"amount","type":"uint256","indexed":false,"internalType":"uint256"}],"anonymous":false},{"type":"event","name":"Minted","inputs":[{"name":"sender","type":"address","indexed":true,"internalType":"address"},{"name":"recipient","type":"address","indexed":true,"internalType":"address"},{"name":"amount","type":"uint256","indexed":false,"internalType":"uint256"}],"anonymous":false},{"type":"event","name":"OwnershipTransferRequested","inputs":[{"name":"from","type":"address","indexed":true,"internalType":"address"},{"name":"to","type":"address","indexed":true,"internalType":"address"}],"anonymous":false},{"type":"event","name":"OwnershipTransferred","inputs":[{"name":"from","type":"address","indexed":true,"internalType":"address"},{"name":"to","type":"address","indexed":true,"internalType":"address"}],"anonymous":false},{"type":"event","name":"Released","inputs":[{"name":"sender","type":"address","indexed":true,"internalType":"address"},{"name":"recipient","type":"address","indexed":true,"internalType":"address"},{"name":"amount","type":"uint256","indexed":false,"internalType":"uint256"}],"anonymous":false},{"type":"event","name":"RemotePoolSet","inputs":[{"name":"remoteChainSelector","type":"uint64","indexed":true,"internalType":"uint64"},{"name":"previousPoolAddress","type":"bytes","indexed":false,"internalType":"bytes"},{"name":"remotePoolAddress","type":"bytes","indexed":false,"internalType":"bytes"}],"anonymous":false},{"type":"event","name":"RouterUpdated","inputs":[{"name":"oldRouter","type":"address","indexed":false,"internalType":"address"},{"name":"newRouter","type":"address","indexed":false,"internalType":"address"}],"anonymous":false},{"type":"event","name":"TokensConsumed","inputs":[{"name":"tokens","type":"uint256","indexed":false,"internalType":"uint256"}],"anonymous":false},{"type":"error","name":"AggregateValueMaxCapacityExceeded","inputs":[{"name":"capacity","type":"uint256","internalType":"uint256"},{"name":"requested","type":"uint256","internalType":"uint256"}]},{"type":"error","name":"AggregateValueRateLimitReached","inputs":[{"name":"minWaitInSeconds","type":"uint256","internalType":"uint256"},{"name":"available","type":"uint256","internalType":"uint256"}]},{"type":"error","name":"AllowListNotEnabled","inputs":[]},{"type":"error","name":"BucketOverfilled","inputs":[]},{"type":"error","name":"CallerIsNotARampOnRouter","inputs":[{"name":"caller","type":"address","internalType":"address"}]},{"type":"error","name":"ChainAlreadyExists","inputs":[{"name":"chainSelector","type":"uint64","internalType":"uint64"}]},{"type":"error","name":"ChainNotAllowed","inputs":[{"name":"remoteChainSelector","type":"uint64","internalType":"uint64"}]},{"type":"error","name":"CursedByRMN","inputs":[]},{"type":"error","name":"DisabledNonZeroRateLimit","inputs":[{"name":"config","type":"tuple","internalType":"struct RateLimiter.Config","components":[{"name":"isEnabled","type":"bool","internalType":"bool"},{"name":"capacity","type":"uint128","internalType":"uint128"},{"name":"rate","type":"uint128","internalType":"uint128"}]}]},{"type":"error","name":"InvalidRateLimitRate","inputs":[{"name":"rateLimiterConfig","type":"tuple","internalType":"struct RateLimiter.Config","components":[{"name":"isEnabled","type":"bool","internalType":"bool"},{"name":"capacity","type":"uint128","internalType":"uint128"},{"name":"rate","type":"uint128","internalType":"uint128"}]}]},{"type":"error","name":"InvalidSourcePoolAddress","inputs":[{"name":"sourcePoolAddress","type":"bytes","internalType":"bytes"}]},{"type":"error","name":"InvalidToken","inputs":[{"name":"token","type":"address","internalType":"address"}]},{"type":"error","name":"NonExistentChain","inputs":[{"name":"remoteChainSelector","type":"uint64","internalType":"uint64"}]},{"type":"error","name":"RateLimitMustBeDisabled","inputs":[]},{"type":"error","name":"SenderNotAllowed","inputs":[{"name":"sender","type":"address","internalType":"address"}]},{"type":"error","name":"TokenMaxCapacityExceeded","inputs":[{"name":"capacity","type":"uint256","internalType":"uint256"},{"name":"requested","type":"uint256","internalType":"uint256"},{"name":"tokenAddress","type":"address","internalType":"address"}]},{"type":"error","name":"TokenRateLimitReached","inputs":[{"name":"minWaitInSeconds","type":"uint256","internalType":"uint256"},{"name":"available","type":"uint256","internalType":"uint256"},{"name":"tokenAddress","type":"address","internalType":"address"}]},{"type":"error","name":"ZeroAddressNotAllowed","inputs":[]}],"bytecode":{"object":"0x60e0604052604051806020016040528060008152506008908162000024919062000b07565b50604051806020016040528060008152506009908162000045919062000b07565b503480156200005357600080fd5b506040516200628438038062006284833981810160405281019062000079919062000df2565b8383838383838383338060008073ffffffffffffffffffffffffffffffffffffffff168273ffffffffffffffffffffffffffffffffffffffff1603620000f6576040517f08c379a0000000000000000000000000000000000000000000000000000000008152600401620000ed9062000ee4565b60405180910390fd5b816000806101000a81548173ffffffffffffffffffffffffffffffffffffffff021916908373ffffffffffffffffffffffffffffffffffffffff160217905550600073ffffffffffffffffffffffffffffffffffffffff168173ffffffffffffffffffffffffffffffffffffffff16146200017d576200017c816200038c60201b60201c565b5b505050600073ffffffffffffffffffffffffffffffffffffffff168473ffffffffffffffffffffffffffffffffffffffff161480620001e85750600073ffffffffffffffffffffffffffffffffffffffff168173ffffffffffffffffffffffffffffffffffffffff16145b80620002205750600073ffffffffffffffffffffffffffffffffffffffff168273ffffffffffffffffffffffffffffffffffffffff16145b1562000258576040517f8579befe00000000000000000000000000000000000000000000000000000000815260040160405180910390fd5b8373ffffffffffffffffffffffffffffffffffffffff1660808173ffffffffffffffffffffffffffffffffffffffff16815250508173ffffffffffffffffffffffffffffffffffffffff1660a08173ffffffffffffffffffffffffffffffffffffffff168152505080600460006101000a81548173ffffffffffffffffffffffffffffffffffffffff021916908373ffffffffffffffffffffffffffffffffffffffff1602179055506000835111151560c08115158152505060c051156200037a5762000379600067ffffffffffffffff8111156200033c576200033b62000898565b5b6040519080825280602002602001820160405280156200036b5781602001602082028036833780820191505090505b5084620004bb60201b60201c565b5b5050505050505050505050506200106e565b3373ffffffffffffffffffffffffffffffffffffffff168173ffffffffffffffffffffffffffffffffffffffff1603620003fd576040517f08c379a0000000000000000000000000000000000000000000000000000000008152600401620003f49062000f56565b60405180910390fd5b80600160006101000a81548173ffffffffffffffffffffffffffffffffffffffff021916908373ffffffffffffffffffffffffffffffffffffffff1602179055508073ffffffffffffffffffffffffffffffffffffffff1660008054906101000a900473ffffffffffffffffffffffffffffffffffffffff1673ffffffffffffffffffffffffffffffffffffffff167fed8889f560326eb138920d842192f0eb3dd22b4f139c87a2c57538e05bae127860405160405180910390a350565b60c051620004f5576040517f35f4a7b300000000000000000000000000000000000000000000000000000000815260040160405180910390fd5b60005b8251811015620005875760008382815181106200051a576200051962000f78565b5b602002602001015190506200053a8160026200065c60201b90919060201c565b156200057a577f800671136ab6cfee9fbe5ed1fb7ca417811aca3cf864800d127b927adedf75668160405162000571919062000fb8565b60405180910390a15b50806001019050620004f8565b5060005b815181101562000657576000828281518110620005ad57620005ac62000f78565b5b60200260200101519050600073ffffffffffffffffffffffffffffffffffffffff168173ffffffffffffffffffffffffffffffffffffffff1603620005f357506200064b565b620006098160026200069460201b90919060201c565b1562000649577f2640d4d76caf8bf478aabfa982fa4e1c4eb71a37f93cd15e80dbc657911546d88160405162000640919062000fb8565b60405180910390a15b505b8060010190506200058b565b505050565b60006200068c836000018373ffffffffffffffffffffffffffffffffffffffff1660001b620006cc60201b60201c565b905092915050565b6000620006c4836000018373ffffffffffffffffffffffffffffffffffffffff1660001b620007f060201b60201c565b905092915050565b60008083600101600084815260200190815260200160002054905060008114620007e457600060018262000701919062001004565b90506000600186600001805490506200071b919062001004565b90508181146200079157600086600001828154811062000740576200073f62000f78565b5b906000526020600020015490508087600001848154811062000767576200076662000f78565b5b90600052602060002001819055508387600101600083815260200190815260200160002081905550505b85600001805480620007a857620007a76200103f565b5b600190038181906000526020600020016000905590558560010160008681526020019081526020016000206000905560019350505050620007ea565b60009150505b92915050565b60006200080483836200086a60201b60201c565b6200085f57826000018290806001815401808255809150506001900390600052602060002001600090919091909150558260000180549050836001016000848152602001908152602001600020819055506001905062000864565b600090505b92915050565b600080836001016000848152602001908152602001600020541415905092915050565b600081519050919050565b7f4e487b7100000000000000000000000000000000000000000000000000000000600052604160045260246000fd5b7f4e487b7100000000000000000000000000000000000000000000000000000000600052602260045260246000fd5b600060028204905060018216806200090f57607f821691505b602082108103620009255762000924620008c7565b5b50919050565b60008190508160005260206000209050919050565b60006020601f8301049050919050565b600082821b905092915050565b6000600883026200098f7fffffffffffffffffffffffffffffffffffffffffffffffffffffffffffffffff8262000950565b6200099b868362000950565b95508019841693508086168417925050509392505050565b6000819050919050565b6000819050919050565b6000620009e8620009e2620009dc84620009b3565b620009bd565b620009b3565b9050919050565b6000819050919050565b62000a0483620009c7565b62000a1c62000a1382620009ef565b8484546200095d565b825550505050565b600090565b62000a3362000a24565b62000a40818484620009f9565b505050565b5b8181101562000a685762000a5c60008262000a29565b60018101905062000a46565b5050565b601f82111562000ab75762000a81816200092b565b62000a8c8462000940565b8101602085101562000a9c578190505b62000ab462000aab8562000940565b83018262000a45565b50505b505050565b600082821c905092915050565b600062000adc6000198460080262000abc565b1980831691505092915050565b600062000af7838362000ac9565b9150826002028217905092915050565b62000b12826200088d565b67ffffffffffffffff81111562000b2e5762000b2d62000898565b5b62000b3a8254620008f6565b62000b4782828562000a6c565b600060209050601f83116001811462000b7f576000841562000b6a578287015190505b62000b76858262000ae9565b86555062000be6565b601f19841662000b8f866200092b565b60005b8281101562000bb95784890151825560018201915060208501945060208101905062000b92565b8683101562000bd9578489015162000bd5601f89168262000ac9565b8355505b6001600288020188555050505b505050505050565b6000604051905090565b600080fd5b600080fd5b600073ffffffffffffffffffffffffffffffffffffffff82169050919050565b600062000c2f8262000c02565b9050919050565b600062000c438262000c22565b9050919050565b62000c558162000c36565b811462000c6157600080fd5b50565b60008151905062000c758162000c4a565b92915050565b600080fd5b6000601f19601f8301169050919050565b62000c9c8262000c80565b810181811067ffffffffffffffff8211171562000cbe5762000cbd62000898565b5b80604052505050565b600062000cd362000bee565b905062000ce1828262000c91565b919050565b600067ffffffffffffffff82111562000d045762000d0362000898565b5b602082029050602081019050919050565b600080fd5b62000d258162000c22565b811462000d3157600080fd5b50565b60008151905062000d458162000d1a565b92915050565b600062000d6262000d5c8462000ce6565b62000cc7565b9050808382526020820190506020840283018581111562000d885762000d8762000d15565b5b835b8181101562000db5578062000da0888262000d34565b84526020840193505060208101905062000d8a565b5050509392505050565b600082601f83011262000dd75762000dd662000c7b565b5b815162000de984826020860162000d4b565b91505092915050565b6000806000806080858703121562000e0f5762000e0e62000bf8565b5b600062000e1f8782880162000c64565b945050602085015167ffffffffffffffff81111562000e435762000e4262000bfd565b5b62000e518782880162000dbf565b935050604062000e648782880162000d34565b925050606062000e778782880162000d34565b91505092959194509250565b600082825260208201905092915050565b7f43616e6e6f7420736574206f776e657220746f207a65726f0000000000000000600082015250565b600062000ecc60188362000e83565b915062000ed98262000e94565b602082019050919050565b6000602082019050818103600083015262000eff8162000ebd565b9050919050565b7f43616e6e6f74207472616e7366657220746f2073656c66000000000000000000600082015250565b600062000f3e60178362000e83565b915062000f4b8262000f06565b602082019050919050565b6000602082019050818103600083015262000f718162000f2f565b9050919050565b7f4e487b7100000000000000000000000000000000000000000000000000000000600052603260045260246000fd5b62000fb28162000c22565b82525050565b600060208201905062000fcf600083018462000fa7565b92915050565b7f4e487b7100000000000000000000000000000000000000000000000000000000600052601160045260246000fd5b60006200101182620009b3565b91506200101e83620009b3565b925082820390508181111562001039576200103862000fd5565b5b92915050565b7f4e487b7100000000000000000000000000000000000000000000000000000000600052603160045260246000fd5b60805160a05160c0516151a7620010dd60003960008181611ef6015281816121a60152612bae015260008181611ece01528181611f9801526123ba0152600081816107a9015281816107d10152818161096f01528181610f5e01528181612acd0152612d8d01526151a76000f3fe608060405234801561001057600080fd5b50600436106101c45760003560e01c8063af58d59f116100f9578063cf7401f311610097578063dc0bd97111610071578063dc0bd9711461051b578063e0351e1314610539578063e7e0bfbc14610557578063f2fde38b14610573576101c4565b8063cf7401f3146104c7578063d5a25d8a146104e3578063db6327dc146104ff576101c4565b8063c0d78655116100d3578063c0d786551461043f578063c4bffe2b1461045b578063c75eea9c14610479578063cf5d85f7146104a9576101c4565b8063af58d59f146103c1578063b0f479a1146103f1578063b79465801461040f576101c4565b806354c8a4f3116101665780638926f54f116101405780638926f54f146103255780638da5cb5b146103555780639a4575b914610373578063a7cd63b7146103a3576101c4565b806354c8a4f3146102e357806378a010b2146102ff57806379ba50971461031b576101c4565b806321df0da7116101a257806321df0da714610247578063240028e8146102655780632f586bd41461029557806339077537146102b3576101c4565b806301ffc9a7146101c95780630a2fd493146101f9578063181f5a7714610229575b600080fd5b6101e360048036038101906101de9190613803565b61058f565b6040516101f0919061384b565b60405180910390f35b610213600480360381019061020e91906138a6565b6106b0565b6040516102209190613963565b60405180910390f35b61023161076c565b60405161023e91906139da565b60405180910390f35b61024f6107a5565b60405161025c9190613a7b565b60405180910390f35b61027f600480360381019061027a9190613ad4565b6107cd565b60405161028c919061384b565b60405180910390f35b61029d610825565b6040516102aa9190613963565b60405180910390f35b6102cd60048036038101906102c89190613b26565b6108b3565b6040516102da9190613ba4565b60405180910390f35b6102fd60048036038101906102f89190613c24565b610a94565b005b61031960048036038101906103149190613cfb565b610b2e565b005b610323610cbd565b005b61033f600480360381019061033a91906138a6565b610e52565b60405161034c919061384b565b60405180910390f35b61035d610e79565b60405161036a9190613d6a565b60405180910390f35b61038d60048036038101906103889190613da4565b610ea2565b60405161039a9190613e7b565b60405180910390f35b6103ab6110fe565b6040516103b89190613f5b565b60405180910390f35b6103db60048036038101906103d691906138a6565b61110f565b6040516103e8919061403e565b60405180910390f35b6103f961127a565b6040516104069190613d6a565b60405180910390f35b610429600480360381019061042491906138a6565b6112a4565b6040516104369190613963565b60405180910390f35b61045960048036038101906104549190613ad4565b611360565b005b610463611473565b6040516104709190614117565b60405180910390f35b610493600480360381019061048e91906138a6565b611541565b6040516104a0919061403e565b60405180910390f35b6104b16116ac565b6040516104be9190613963565b60405180910390f35b6104e160048036038101906104dc919061427a565b61173a565b005b6104fd60048036038101906104f891906142cd565b611752565b005b61051960048036038101906105149190614370565b611768565b005b610523611eca565b6040516105309190613d6a565b60405180910390f35b610541611ef2565b60405161054e919061384b565b60405180910390f35b610571600480360381019061056c91906142cd565b611f1a565b005b61058d60048036038101906105889190613ad4565b611f30565b005b600063aff2afbf60e01b7bffffffffffffffffffffffffffffffffffffffffffffffffffffffff1916827bffffffffffffffffffffffffffffffffffffffffffffffffffffffff1916148061064157507f0e64dd29000000000000000000000000000000000000000000000000000000007bffffffffffffffffffffffffffffffffffffffffffffffffffffffff1916827bffffffffffffffffffffffffffffffffffffffffffffffffffffffff1916145b806106a957507f01ffc9a7000000000000000000000000000000000000000000000000000000007bffffffffffffffffffffffffffffffffffffffffffffffffffffffff1916827bffffffffffffffffffffffffffffffffffffffffffffffffffffffff1916145b9050919050565b6060600760008367ffffffffffffffff1667ffffffffffffffff16815260200190815260200160002060040180546106e7906143ec565b80601f0160208091040260200160405190810160405280929190818152602001828054610713906143ec565b80156107605780601f1061073557610100808354040283529160200191610760565b820191906000526020600020905b81548152906001019060200180831161074357829003601f168201915b50505050509050919050565b6040518060400160405280601b81526020017f4275726e4d696e74546f6b656e506f6f6c20312e352e302d646576000000000081525081565b60007f0000000000000000000000000000000000000000000000000000000000000000905090565b60007f000000000000000000000000000000000000000000000000000000000000000073ffffffffffffffffffffffffffffffffffffffff168273ffffffffffffffffffffffffffffffffffffffff16149050919050565b60088054610832906143ec565b80601f016020809104026020016040519081016040528092919081815260200182805461085e906143ec565b80156108ab5780601f10610880576101008083540402835291602001916108ab565b820191906000526020600020905b81548152906001019060200180831161088e57829003601f168201915b505050505081565b6108bb6136a0565b6108cd826108c890614638565b611f44565b6000600880546108dc906143ec565b80601f0160208091040260200160405190810160405280929190818152602001828054610908906143ec565b80156109555780601f1061092a57610100808354040283529160200191610955565b820191906000526020600020905b81548152906001019060200180831161093857829003601f168201915b50505050509050600081511461096d57805181602001fd5b7f000000000000000000000000000000000000000000000000000000000000000073ffffffffffffffffffffffffffffffffffffffff166340c10f193385606001356040518363ffffffff1660e01b81526004016109cc92919061465a565b600060405180830381600087803b1580156109e657600080fd5b505af11580156109fa573d6000803e3d6000fd5b50505050826040016020810190610a119190613ad4565b73ffffffffffffffffffffffffffffffffffffffff163373ffffffffffffffffffffffffffffffffffffffff167f9d228d69b5fdb8d273a2336f8fb8612d039631024ea9bf09c424a9503aa078f08560600135604051610a719190614683565b60405180910390a360405180602001604052808460600135815250915050919050565b610a9c612114565b610b28848480806020026020016040519081016040528093929190818152602001838360200280828437600081840152601f19601f82011690508083019250505050505050838380806020026020016040519081016040528093929190818152602001838360200280828437600081840152601f19601f820116905080830192505050505050506121a4565b50505050565b610b36612114565b610b3f83610e52565b610b8057826040517f1e670e4b000000000000000000000000000000000000000000000000000000008152600401610b7791906146ad565b60405180910390fd5b6000600760008567ffffffffffffffff1667ffffffffffffffff1681526020019081526020016000206004018054610bb7906143ec565b80601f0160208091040260200160405190810160405280929190818152602001828054610be3906143ec565b8015610c305780601f10610c0557610100808354040283529160200191610c30565b820191906000526020600020905b815481529060010190602001808311610c1357829003601f168201915b505050505090508282600760008767ffffffffffffffff1667ffffffffffffffff1681526020019081526020016000206004019182610c70929190614875565b508367ffffffffffffffff167fdb4d6220746a38cbc5335f7e108f7de80f482f4d23350253dfd0917df75a14bf828585604051610caf93929190614972565b60405180910390a250505050565b600160009054906101000a900473ffffffffffffffffffffffffffffffffffffffff1673ffffffffffffffffffffffffffffffffffffffff163373ffffffffffffffffffffffffffffffffffffffff1614610d4d576040517f08c379a0000000000000000000000000000000000000000000000000000000008152600401610d44906149f7565b60405180910390fd5b60008060009054906101000a900473ffffffffffffffffffffffffffffffffffffffff169050336000806101000a81548173ffffffffffffffffffffffffffffffffffffffff021916908373ffffffffffffffffffffffffffffffffffffffff1602179055506000600160006101000a81548173ffffffffffffffffffffffffffffffffffffffff021916908373ffffffffffffffffffffffffffffffffffffffff1602179055503373ffffffffffffffffffffffffffffffffffffffff168173ffffffffffffffffffffffffffffffffffffffff167f8be0079c531659141344cd1fd0a4f28419497f9722a3daafe3b4186f6b6457e060405160405180910390a350565b6000610e728267ffffffffffffffff16600561234c90919063ffffffff16565b9050919050565b60008060009054906101000a900473ffffffffffffffffffffffffffffffffffffffff16905090565b610eaa6136b3565b610ebc82610eb790614abf565b612366565b600060088054610ecb906143ec565b80601f0160208091040260200160405190810160405280929190818152602001828054610ef7906143ec565b8015610f445780601f10610f1957610100808354040283529160200191610f44565b820191906000526020600020905b815481529060010190602001808311610f2757829003601f168201915b505050505090506000815114610f5c57805181602001fd5b7f000000000000000000000000000000000000000000000000000000000000000073ffffffffffffffffffffffffffffffffffffffff166342966c6884606001356040518263ffffffff1660e01b8152600401610fb99190614683565b600060405180830381600087803b158015610fd357600080fd5b505af1158015610fe7573d6000803e3d6000fd5b505050503373ffffffffffffffffffffffffffffffffffffffff167f696de425f79f4a40bc6d2122ca50507f0efbeabbff86a84871b7196ab8ea8df784606001356040516110359190614683565b60405180910390a2604051806040016040528061106385602001602081019061105e91906138a6565b6112a4565b815260200160098054611075906143ec565b80601f01602080910402602001604051908101604052809291908181526020018280546110a1906143ec565b80156110ee5780601f106110c3576101008083540402835291602001916110ee565b820191906000526020600020905b8154815290600101906020018083116110d157829003601f168201915b5050505050815250915050919050565b606061110a60026124c9565b905090565b6111176136cd565b611273600760008467ffffffffffffffff1667ffffffffffffffff1681526020019081526020016000206002016040518060a00160405290816000820160009054906101000a90046fffffffffffffffffffffffffffffffff166fffffffffffffffffffffffffffffffff166fffffffffffffffffffffffffffffffff1681526020016000820160109054906101000a900463ffffffff1663ffffffff1663ffffffff1681526020016000820160149054906101000a900460ff161515151581526020016001820160009054906101000a90046fffffffffffffffffffffffffffffffff166fffffffffffffffffffffffffffffffff166fffffffffffffffffffffffffffffffff1681526020016001820160109054906101000a90046fffffffffffffffffffffffffffffffff166fffffffffffffffffffffffffffffffff166fffffffffffffffffffffffffffffffff16815250506124ea565b9050919050565b6000600460009054906101000a900473ffffffffffffffffffffffffffffffffffffffff16905090565b6060600760008367ffffffffffffffff1667ffffffffffffffff16815260200190815260200160002060050180546112db906143ec565b80601f0160208091040260200160405190810160405280929190818152602001828054611307906143ec565b80156113545780601f1061132957610100808354040283529160200191611354565b820191906000526020600020905b81548152906001019060200180831161133757829003601f168201915b50505050509050919050565b611368612114565b600073ffffffffffffffffffffffffffffffffffffffff168173ffffffffffffffffffffffffffffffffffffffff16036113ce576040517f8579befe00000000000000000000000000000000000000000000000000000000815260040160405180910390fd5b6000600460009054906101000a900473ffffffffffffffffffffffffffffffffffffffff16905081600460006101000a81548173ffffffffffffffffffffffffffffffffffffffff021916908373ffffffffffffffffffffffffffffffffffffffff1602179055507f02dc5c233404867c793b749c6d644beb2277536d18a7e7974d3f238e4c6f16848183604051611467929190614ad2565b60405180910390a15050565b6060600061148160056125a4565b90506000815167ffffffffffffffff8111156114a05761149f61413e565b5b6040519080825280602002602001820160405280156114ce5781602001602082028036833780820191505090505b50905060005b8251811015611538578281815181106114f0576114ef614afb565b5b602002602001015182828151811061150b5761150a614afb565b5b602002602001019067ffffffffffffffff16908167ffffffffffffffff16815250508060010190506114d4565b50809250505090565b6115496136cd565b6116a5600760008467ffffffffffffffff1667ffffffffffffffff1681526020019081526020016000206000016040518060a00160405290816000820160009054906101000a90046fffffffffffffffffffffffffffffffff166fffffffffffffffffffffffffffffffff166fffffffffffffffffffffffffffffffff1681526020016000820160109054906101000a900463ffffffff1663ffffffff1663ffffffff1681526020016000820160149054906101000a900460ff161515151581526020016001820160009054906101000a90046fffffffffffffffffffffffffffffffff166fffffffffffffffffffffffffffffffff166fffffffffffffffffffffffffffffffff1681526020016001820160109054906101000a90046fffffffffffffffffffffffffffffffff166fffffffffffffffffffffffffffffffff166fffffffffffffffffffffffffffffffff16815250506124ea565b9050919050565b600980546116b9906143ec565b80601f01602080910402602001604051908101604052809291908181526020018280546116e5906143ec565b80156117325780601f1061170757610100808354040283529160200191611732565b820191906000526020600020905b81548152906001019060200180831161171557829003601f168201915b505050505081565b611742612114565b61174d8383836125c5565b505050565b818160089182611763929190614875565b505050565b611770612114565b60005b82829050811015611ec557600083838381811061179357611792614afb565b5b90506020028101906117a59190614b2f565b6117ae90614c31565b90506117c381608001518260200151156126dd565b6117d68160a001518260200151156126dd565b806020015115611c9257611802816000015167ffffffffffffffff16600561283b90919063ffffffff16565b6118475780600001516040517f1d5ad3c500000000000000000000000000000000000000000000000000000000815260040161183e91906146ad565b60405180910390fd5b6000816040015151148061186057506000816060015151145b15611897576040517f8579befe00000000000000000000000000000000000000000000000000000000815260040160405180910390fd5b60405180608001604052806040518060a001604052808460800151602001516fffffffffffffffffffffffffffffffff1681526020014263ffffffff168152602001846080015160000151151581526020018460800151602001516fffffffffffffffffffffffffffffffff1681526020018460800151604001516fffffffffffffffffffffffffffffffff1681525081526020016040518060a001604052808460a00151602001516fffffffffffffffffffffffffffffffff1681526020014263ffffffff1681526020018460a0015160000151151581526020018460a00151602001516fffffffffffffffffffffffffffffffff1681526020018460a00151604001516fffffffffffffffffffffffffffffffff16815250815260200182604001518152602001826060015181525060076000836000015167ffffffffffffffff1667ffffffffffffffff16815260200190815260200160002060008201518160000160008201518160000160006101000a8154816fffffffffffffffffffffffffffffffff02191690836fffffffffffffffffffffffffffffffff16021790555060208201518160000160106101000a81548163ffffffff021916908363ffffffff16021790555060408201518160000160146101000a81548160ff02191690831515021790555060608201518160010160006101000a8154816fffffffffffffffffffffffffffffffff02191690836fffffffffffffffffffffffffffffffff16021790555060808201518160010160106101000a8154816fffffffffffffffffffffffffffffffff02191690836fffffffffffffffffffffffffffffffff160217905550505060208201518160020160008201518160000160006101000a8154816fffffffffffffffffffffffffffffffff02191690836fffffffffffffffffffffffffffffffff16021790555060208201518160000160106101000a81548163ffffffff021916908363ffffffff16021790555060408201518160000160146101000a81548160ff02191690831515021790555060608201518160010160006101000a8154816fffffffffffffffffffffffffffffffff02191690836fffffffffffffffffffffffffffffffff16021790555060808201518160010160106101000a8154816fffffffffffffffffffffffffffffffff02191690836fffffffffffffffffffffffffffffffff16021790555050506040820151816004019081611c269190614c44565b506060820151816005019081611c3c9190614c44565b509050507f8d340f17e19058004c20453540862a9c62778504476f6756755cb33bcd6c38c28160000151826060015183608001518460a00151604051611c859493929190614d58565b60405180910390a1611eb9565b611cb4816000015167ffffffffffffffff16600561285590919063ffffffff16565b611cf95780600001516040517f1e670e4b000000000000000000000000000000000000000000000000000000008152600401611cf091906146ad565b60405180910390fd5b60076000826000015167ffffffffffffffff1667ffffffffffffffff1681526020019081526020016000206000808201600080820160006101000a8154906fffffffffffffffffffffffffffffffff02191690556000820160106101000a81549063ffffffff02191690556000820160146101000a81549060ff02191690556001820160006101000a8154906fffffffffffffffffffffffffffffffff02191690556001820160106101000a8154906fffffffffffffffffffffffffffffffff0219169055505060028201600080820160006101000a8154906fffffffffffffffffffffffffffffffff02191690556000820160106101000a81549063ffffffff02191690556000820160146101000a81549060ff02191690556001820160006101000a8154906fffffffffffffffffffffffffffffffff02191690556001820160106101000a8154906fffffffffffffffffffffffffffffffff02191690555050600482016000611e6b919061373a565b600582016000611e7b919061373a565b50507f5204aec90a3c794d8e90fded8b46ae9c7c552803e7e832e0c1d358396d8599168160000151604051611eb091906146ad565b60405180910390a15b50806001019050611773565b505050565b60007f0000000000000000000000000000000000000000000000000000000000000000905090565b60007f0000000000000000000000000000000000000000000000000000000000000000905090565b818160099182611f2b929190614875565b505050565b611f38612114565b611f418161286f565b50565b611f5181608001516107cd565b611f965780608001516040517f961c9a4f000000000000000000000000000000000000000000000000000000008152600401611f8d9190613d6a565b60405180910390fd5b7f000000000000000000000000000000000000000000000000000000000000000073ffffffffffffffffffffffffffffffffffffffff16632cbc26bb826020015167ffffffffffffffff1660801b6040518263ffffffff1660e01b81526004016120009190614de0565b602060405180830381865afa15801561201d573d6000803e3d6000fd5b505050506040513d601f19601f820116820180604052508101906120419190614e10565b15612078576040517f53ad11d800000000000000000000000000000000000000000000000000000000815260040160405180910390fd5b612085816020015161299b565b600061209482602001516106b0565b90506000815114806120b8575080805190602001208260a001518051906020012014155b156120fe578160a001516040517f24eb47e50000000000000000000000000000000000000000000000000000000081526004016120f59190613963565b60405180910390fd5b61211082602001518360600151612ac7565b5050565b60008054906101000a900473ffffffffffffffffffffffffffffffffffffffff1673ffffffffffffffffffffffffffffffffffffffff163373ffffffffffffffffffffffffffffffffffffffff16146121a2576040517f08c379a000000000000000000000000000000000000000000000000000000000815260040161219990614e89565b60405180910390fd5b565b7f00000000000000000000000000000000000000000000000000000000000000006121fb576040517f35f4a7b300000000000000000000000000000000000000000000000000000000815260040160405180910390fd5b60005b825181101561228357600083828151811061221c5761221b614afb565b5b6020026020010151905061223a816002612b2990919063ffffffff16565b15612277577f800671136ab6cfee9fbe5ed1fb7ca417811aca3cf864800d127b927adedf75668160405161226e9190613d6a565b60405180910390a15b508060010190506121fe565b5060005b81518110156123475760008282815181106122a5576122a4614afb565b5b60200260200101519050600073ffffffffffffffffffffffffffffffffffffffff168173ffffffffffffffffffffffffffffffffffffffff16036122e9575061233c565b6122fd816002612b5990919063ffffffff16565b1561233a577f2640d4d76caf8bf478aabfa982fa4e1c4eb71a37f93cd15e80dbc657911546d8816040516123319190613d6a565b60405180910390a15b505b806001019050612287565b505050565b600061235e836000018360001b612b89565b905092915050565b61237381608001516107cd565b6123b85780608001516040517f961c9a4f0000000000000000000000000000000000000000000000000000000081526004016123af9190613d6a565b60405180910390fd5b7f000000000000000000000000000000000000000000000000000000000000000073ffffffffffffffffffffffffffffffffffffffff16632cbc26bb826020015167ffffffffffffffff1660801b6040518263ffffffff1660e01b81526004016124229190614de0565b602060405180830381865afa15801561243f573d6000803e3d6000fd5b505050506040513d601f19601f820116820180604052508101906124639190614e10565b1561249a576040517f53ad11d800000000000000000000000000000000000000000000000000000000815260040160405180910390fd5b6124a78160400151612bac565b6124b48160200151612c2f565b6124c681602001518260600151612d87565b50565b606060006124d983600001612de9565b905060608190508092505050919050565b6124f26136cd565b61255582606001516fffffffffffffffffffffffffffffffff1683600001516fffffffffffffffffffffffffffffffff16846020015163ffffffff16426125399190614ed8565b85608001516fffffffffffffffffffffffffffffffff16612e45565b82600001906fffffffffffffffffffffffffffffffff1690816fffffffffffffffffffffffffffffffff168152505042826020019063ffffffff16908163ffffffff1681525050819050919050565b606060006125b483600001612de9565b905060608190508092505050919050565b6125ce83610e52565b61260f57826040517f1e670e4b00000000000000000000000000000000000000000000000000000000815260040161260691906146ad565b60405180910390fd5b61261a8260006126dd565b61265682600760008667ffffffffffffffff1667ffffffffffffffff168152602001908152602001600020600001612e7190919063ffffffff16565b6126618160006126dd565b61269d81600760008667ffffffffffffffff1667ffffffffffffffff168152602001908152602001600020600201612e7190919063ffffffff16565b7f0350d63aa5f270e01729d00d627eeb8f3429772b1818c016c66a588a864f912b8383836040516126d093929190614f0c565b60405180910390a1505050565b8160000151156127b75781602001516fffffffffffffffffffffffffffffffff1682604001516fffffffffffffffffffffffffffffffff161015806127385750600082604001516fffffffffffffffffffffffffffffffff16145b1561277a57816040517f8020d1240000000000000000000000000000000000000000000000000000000081526004016127719190614f43565b60405180910390fd5b80156127b2576040517f433fc33d00000000000000000000000000000000000000000000000000000000815260040160405180910390fd5b612837565b600082604001516fffffffffffffffffffffffffffffffff161415806127f45750600082602001516fffffffffffffffffffffffffffffffff1614155b1561283657816040517fd68af9cc00000000000000000000000000000000000000000000000000000000815260040161282d9190614f43565b60405180910390fd5b5b5050565b600061284d836000018360001b613109565b905092915050565b6000612867836000018360001b613179565b905092915050565b3373ffffffffffffffffffffffffffffffffffffffff168173ffffffffffffffffffffffffffffffffffffffff16036128dd576040517f08c379a00000000000000000000000000000000000000000000000000000000081526004016128d490614faa565b60405180910390fd5b80600160006101000a81548173ffffffffffffffffffffffffffffffffffffffff021916908373ffffffffffffffffffffffffffffffffffffffff1602179055508073ffffffffffffffffffffffffffffffffffffffff1660008054906101000a900473ffffffffffffffffffffffffffffffffffffffff1673ffffffffffffffffffffffffffffffffffffffff167fed8889f560326eb138920d842192f0eb3dd22b4f139c87a2c57538e05bae127860405160405180910390a350565b6129a481610e52565b6129e557806040517fa9902c7e0000000000000000000000000000000000000000000000000000000081526004016129dc91906146ad565b60405180910390fd5b600460009054906101000a900473ffffffffffffffffffffffffffffffffffffffff1673ffffffffffffffffffffffffffffffffffffffff166383826b2b82336040518363ffffffff1660e01b8152600401612a42929190614fca565b602060405180830381865afa158015612a5f573d6000803e3d6000fd5b505050506040513d601f19601f82011682018060405250810190612a839190614e10565b612ac457336040517f728fe07b000000000000000000000000000000000000000000000000000000008152600401612abb9190613d6a565b60405180910390fd5b50565b612b25817f0000000000000000000000000000000000000000000000000000000000000000600760008667ffffffffffffffff1667ffffffffffffffff16815260200190815260200160002060020161328d9092919063ffffffff16565b5050565b6000612b51836000018373ffffffffffffffffffffffffffffffffffffffff1660001b613179565b905092915050565b6000612b81836000018373ffffffffffffffffffffffffffffffffffffffff1660001b613109565b905092915050565b600080836001016000848152602001908152602001600020541415905092915050565b7f00000000000000000000000000000000000000000000000000000000000000008015612bea5750612be881600261365790919063ffffffff16565b155b15612c2c57806040517fd0d25976000000000000000000000000000000000000000000000000000000008152600401612c239190613d6a565b60405180910390fd5b50565b612c3881610e52565b612c7957806040517fa9902c7e000000000000000000000000000000000000000000000000000000008152600401612c7091906146ad565b60405180910390fd5b600460009054906101000a900473ffffffffffffffffffffffffffffffffffffffff1673ffffffffffffffffffffffffffffffffffffffff1663a8d87a3b826040518263ffffffff1660e01b8152600401612cd491906146ad565b602060405180830381865afa158015612cf1573d6000803e3d6000fd5b505050506040513d601f19601f82011682018060405250810190612d159190615008565b73ffffffffffffffffffffffffffffffffffffffff163373ffffffffffffffffffffffffffffffffffffffff1614612d8457336040517f728fe07b000000000000000000000000000000000000000000000000000000008152600401612d7b9190613d6a565b60405180910390fd5b50565b612de5817f0000000000000000000000000000000000000000000000000000000000000000600760008667ffffffffffffffff1667ffffffffffffffff16815260200190815260200160002060000161328d9092919063ffffffff16565b5050565b606081600001805480602002602001604051908101604052809291908181526020018280548015612e3957602002820191906000526020600020905b815481526020019060010190808311612e25575b50505050509050919050565b6000612e67858385612e579190615035565b86612e629190615077565b613687565b9050949350505050565b60008260000160109054906101000a900463ffffffff1663ffffffff1642612e999190614ed8565b905060008114612fa357612f458360010160009054906101000a90046fffffffffffffffffffffffffffffffff166fffffffffffffffffffffffffffffffff168460000160009054906101000a90046fffffffffffffffffffffffffffffffff166fffffffffffffffffffffffffffffffff16838660010160109054906101000a90046fffffffffffffffffffffffffffffffff166fffffffffffffffffffffffffffffffff16612e45565b8360000160006101000a8154816fffffffffffffffffffffffffffffffff02191690836fffffffffffffffffffffffffffffffff160217905550428360000160106101000a81548163ffffffff021916908363ffffffff1602179055505b612ff582602001516fffffffffffffffffffffffffffffffff168460000160009054906101000a90046fffffffffffffffffffffffffffffffff166fffffffffffffffffffffffffffffffff16613687565b8360000160006101000a8154816fffffffffffffffffffffffffffffffff02191690836fffffffffffffffffffffffffffffffff16021790555081600001518360000160146101000a81548160ff02191690831515021790555081602001518360010160006101000a8154816fffffffffffffffffffffffffffffffff02191690836fffffffffffffffffffffffffffffffff16021790555081604001518360010160106101000a8154816fffffffffffffffffffffffffffffffff02191690836fffffffffffffffffffffffffffffffff1602179055507f9ea3374b67bf275e6bb9c8ae68f9cae023e1c528b4b27e092f0bb209d3531c19826040516130fc9190614f43565b60405180910390a1505050565b60006131158383612b89565b61316e578260000182908060018154018082558091505060019003906000526020600020016000909190919091505582600001805490508360010160008481526020019081526020016000208190555060019050613173565b600090505b92915050565b600080836001016000848152602001908152602001600020549050600081146132815760006001826131ab9190614ed8565b90506000600186600001805490506131c39190614ed8565b90508181146132325760008660000182815481106131e4576131e3614afb565b5b906000526020600020015490508087600001848154811061320857613207614afb565b5b90600052602060002001819055508387600101600083815260200190815260200160002081905550505b85600001805480613246576132456150ab565b5b600190038181906000526020600020016000905590558560010160008681526020019081526020016000206000905560019350505050613287565b60009150505b92915050565b8260000160149054906101000a900460ff1615806132ab5750600082145b6136525760008360000160009054906101000a90046fffffffffffffffffffffffffffffffff166fffffffffffffffffffffffffffffffff16905060008460010160009054906101000a90046fffffffffffffffffffffffffffffffff166fffffffffffffffffffffffffffffffff16905060008560000160109054906101000a900463ffffffff1663ffffffff16426133459190614ed8565b9050600081146133ed5781831115613389576040517f9725942a00000000000000000000000000000000000000000000000000000000815260040160405180910390fd5b6133c78284838960010160109054906101000a90046fffffffffffffffffffffffffffffffff166fffffffffffffffffffffffffffffffff16612e45565b9250428660000160106101000a81548163ffffffff021916908363ffffffff1602179055505b848210156134a957600073ffffffffffffffffffffffffffffffffffffffff168473ffffffffffffffffffffffffffffffffffffffff16036134685781856040517ff94ebcd100000000000000000000000000000000000000000000000000000000815260040161345f9291906150da565b60405180910390fd5b8185856040517f1a76572a0000000000000000000000000000000000000000000000000000000081526004016134a093929190615103565b60405180910390fd5b848310156135ce5760008660010160109054906101000a90046fffffffffffffffffffffffffffffffff166fffffffffffffffffffffffffffffffff1690506000816001836134f89190614ed8565b86896135049190614ed8565b61350e9190615077565b6135189190615169565b9050600073ffffffffffffffffffffffffffffffffffffffff168673ffffffffffffffffffffffffffffffffffffffff160361358d5780856040517f15279c080000000000000000000000000000000000000000000000000000000081526004016135849291906150da565b60405180910390fd5b8085876040517fd0c8d23a0000000000000000000000000000000000000000000000000000000081526004016135c593929190615103565b60405180910390fd5b84836135da9190614ed8565b9250828660000160006101000a8154816fffffffffffffffffffffffffffffffff02191690836fffffffffffffffffffffffffffffffff1602179055507f1871cdf8010e63f2eb8384381a68dfa7416dc571a5517e66e88b2d2d0c0a690a856040516136469190614683565b60405180910390a15050505b505050565b600061367f836000018373ffffffffffffffffffffffffffffffffffffffff1660001b612b89565b905092915050565b60008183106136965781613698565b825b905092915050565b6040518060200160405280600081525090565b604051806040016040528060608152602001606081525090565b6040518060a0016040528060006fffffffffffffffffffffffffffffffff168152602001600063ffffffff16815260200160001515815260200160006fffffffffffffffffffffffffffffffff16815260200160006fffffffffffffffffffffffffffffffff1681525090565b508054613746906143ec565b6000825580601f106137585750613777565b601f016020900490600052602060002090810190613776919061377a565b5b50565b5b8082111561379357600081600090555060010161377b565b5090565b6000604051905090565b600080fd5b600080fd5b60007fffffffff0000000000000000000000000000000000000000000000000000000082169050919050565b6137e0816137ab565b81146137eb57600080fd5b50565b6000813590506137fd816137d7565b92915050565b600060208284031215613819576138186137a1565b5b6000613827848285016137ee565b91505092915050565b60008115159050919050565b61384581613830565b82525050565b6000602082019050613860600083018461383c565b92915050565b600067ffffffffffffffff82169050919050565b61388381613866565b811461388e57600080fd5b50565b6000813590506138a08161387a565b92915050565b6000602082840312156138bc576138bb6137a1565b5b60006138ca84828501613891565b91505092915050565b600081519050919050565b600082825260208201905092915050565b60005b8381101561390d5780820151818401526020810190506138f2565b60008484015250505050565b6000601f19601f8301169050919050565b6000613935826138d3565b61393f81856138de565b935061394f8185602086016138ef565b61395881613919565b840191505092915050565b6000602082019050818103600083015261397d818461392a565b905092915050565b600081519050919050565b600082825260208201905092915050565b60006139ac82613985565b6139b68185613990565b93506139c68185602086016138ef565b6139cf81613919565b840191505092915050565b600060208201905081810360008301526139f481846139a1565b905092915050565b600073ffffffffffffffffffffffffffffffffffffffff82169050919050565b6000819050919050565b6000613a41613a3c613a37846139fc565b613a1c565b6139fc565b9050919050565b6000613a5382613a26565b9050919050565b6000613a6582613a48565b9050919050565b613a7581613a5a565b82525050565b6000602082019050613a906000830184613a6c565b92915050565b6000613aa1826139fc565b9050919050565b613ab181613a96565b8114613abc57600080fd5b50565b600081359050613ace81613aa8565b92915050565b600060208284031215613aea57613ae96137a1565b5b6000613af884828501613abf565b91505092915050565b600080fd5b60006101008284031215613b1d57613b1c613b01565b5b81905092915050565b600060208284031215613b3c57613b3b6137a1565b5b600082013567ffffffffffffffff811115613b5a57613b596137a6565b5b613b6684828501613b06565b91505092915050565b6000819050919050565b613b8281613b6f565b82525050565b602082016000820151613b9e6000850182613b79565b50505050565b6000602082019050613bb96000830184613b88565b92915050565b600080fd5b600080fd5b600080fd5b60008083601f840112613be457613be3613bbf565b5b8235905067ffffffffffffffff811115613c0157613c00613bc4565b5b602083019150836020820283011115613c1d57613c1c613bc9565b5b9250929050565b60008060008060408587031215613c3e57613c3d6137a1565b5b600085013567ffffffffffffffff811115613c5c57613c5b6137a6565b5b613c6887828801613bce565b9450945050602085013567ffffffffffffffff811115613c8b57613c8a6137a6565b5b613c9787828801613bce565b925092505092959194509250565b60008083601f840112613cbb57613cba613bbf565b5b8235905067ffffffffffffffff811115613cd857613cd7613bc4565b5b602083019150836001820283011115613cf457613cf3613bc9565b5b9250929050565b600080600060408486031215613d1457613d136137a1565b5b6000613d2286828701613891565b935050602084013567ffffffffffffffff811115613d4357613d426137a6565b5b613d4f86828701613ca5565b92509250509250925092565b613d6481613a96565b82525050565b6000602082019050613d7f6000830184613d5b565b92915050565b600060a08284031215613d9b57613d9a613b01565b5b81905092915050565b600060208284031215613dba57613db96137a1565b5b600082013567ffffffffffffffff811115613dd857613dd76137a6565b5b613de484828501613d85565b91505092915050565b600082825260208201905092915050565b6000613e09826138d3565b613e138185613ded565b9350613e238185602086016138ef565b613e2c81613919565b840191505092915050565b60006040830160008301518482036000860152613e548282613dfe565b91505060208301518482036020860152613e6e8282613dfe565b9150508091505092915050565b60006020820190508181036000830152613e958184613e37565b905092915050565b600081519050919050565b600082825260208201905092915050565b6000819050602082019050919050565b613ed281613a96565b82525050565b6000613ee48383613ec9565b60208301905092915050565b6000602082019050919050565b6000613f0882613e9d565b613f128185613ea8565b9350613f1d83613eb9565b8060005b83811015613f4e578151613f358882613ed8565b9750613f4083613ef0565b925050600181019050613f21565b5085935050505092915050565b60006020820190508181036000830152613f758184613efd565b905092915050565b60006fffffffffffffffffffffffffffffffff82169050919050565b613fa281613f7d565b82525050565b600063ffffffff82169050919050565b613fc181613fa8565b82525050565b613fd081613830565b82525050565b60a082016000820151613fec6000850182613f99565b506020820151613fff6020850182613fb8565b5060408201516140126040850182613fc7565b5060608201516140256060850182613f99565b5060808201516140386080850182613f99565b50505050565b600060a0820190506140536000830184613fd6565b92915050565b600081519050919050565b600082825260208201905092915050565b6000819050602082019050919050565b61408e81613866565b82525050565b60006140a08383614085565b60208301905092915050565b6000602082019050919050565b60006140c482614059565b6140ce8185614064565b93506140d983614075565b8060005b8381101561410a5781516140f18882614094565b97506140fc836140ac565b9250506001810190506140dd565b5085935050505092915050565b6000602082019050818103600083015261413181846140b9565b905092915050565b600080fd5b7f4e487b7100000000000000000000000000000000000000000000000000000000600052604160045260246000fd5b61417682613919565b810181811067ffffffffffffffff821117156141955761419461413e565b5b80604052505050565b60006141a8613797565b90506141b4828261416d565b919050565b600080fd5b6141c781613830565b81146141d257600080fd5b50565b6000813590506141e4816141be565b92915050565b6141f381613f7d565b81146141fe57600080fd5b50565b600081359050614210816141ea565b92915050565b60006060828403121561422c5761422b614139565b5b614236606061419e565b90506000614246848285016141d5565b600083015250602061425a84828501614201565b602083015250604061426e84828501614201565b60408301525092915050565b600080600060e08486031215614293576142926137a1565b5b60006142a186828701613891565b93505060206142b286828701614216565b92505060806142c386828701614216565b9150509250925092565b600080602083850312156142e4576142e36137a1565b5b600083013567ffffffffffffffff811115614302576143016137a6565b5b61430e85828601613ca5565b92509250509250929050565b60008083601f8401126143305761432f613bbf565b5b8235905067ffffffffffffffff81111561434d5761434c613bc4565b5b60208301915083602082028301111561436957614368613bc9565b5b9250929050565b60008060208385031215614387576143866137a1565b5b600083013567ffffffffffffffff8111156143a5576143a46137a6565b5b6143b18582860161431a565b92509250509250929050565b7f4e487b7100000000000000000000000000000000000000000000000000000000600052602260045260246000fd5b6000600282049050600182168061440457607f821691505b602082108103614417576144166143bd565b5b50919050565b600080fd5b600067ffffffffffffffff82111561443d5761443c61413e565b5b61444682613919565b9050602081019050919050565b82818337600083830152505050565b600061447561447084614422565b61419e565b9050828152602081018484840111156144915761449061441d565b5b61449c848285614453565b509392505050565b600082601f8301126144b9576144b8613bbf565b5b81356144c9848260208601614462565b91505092915050565b6144db81613b6f565b81146144e657600080fd5b50565b6000813590506144f8816144d2565b92915050565b6000610100828403121561451557614514614139565b5b61452061010061419e565b9050600082013567ffffffffffffffff8111156145405761453f6141b9565b5b61454c848285016144a4565b600083015250602061456084828501613891565b602083015250604061457484828501613abf565b6040830152506060614588848285016144e9565b606083015250608061459c84828501613abf565b60808301525060a082013567ffffffffffffffff8111156145c0576145bf6141b9565b5b6145cc848285016144a4565b60a08301525060c082013567ffffffffffffffff8111156145f0576145ef6141b9565b5b6145fc848285016144a4565b60c08301525060e082013567ffffffffffffffff8111156146205761461f6141b9565b5b61462c848285016144a4565b60e08301525092915050565b600061464436836144fe565b9050919050565b61465481613b6f565b82525050565b600060408201905061466f6000830185613d5b565b61467c602083018461464b565b9392505050565b6000602082019050614698600083018461464b565b92915050565b6146a781613866565b82525050565b60006020820190506146c2600083018461469e565b92915050565b600082905092915050565b60008190508160005260206000209050919050565b60006020601f8301049050919050565b600082821b905092915050565b6000600883026147357fffffffffffffffffffffffffffffffffffffffffffffffffffffffffffffffff826146f8565b61473f86836146f8565b95508019841693508086168417925050509392505050565b600061477261476d61476884613b6f565b613a1c565b613b6f565b9050919050565b6000819050919050565b61478c83614757565b6147a061479882614779565b848454614705565b825550505050565b600090565b6147b56147a8565b6147c0818484614783565b505050565b5b818110156147e4576147d96000826147ad565b6001810190506147c6565b5050565b601f821115614829576147fa816146d3565b614803846146e8565b81016020851015614812578190505b61482661481e856146e8565b8301826147c5565b50505b505050565b600082821c905092915050565b600061484c6000198460080261482e565b1980831691505092915050565b6000614865838361483b565b9150826002028217905092915050565b61487f83836146c8565b67ffffffffffffffff8111156148985761489761413e565b5b6148a282546143ec565b6148ad8282856147e8565b6000601f8311600181146148dc57600084156148ca578287013590505b6148d48582614859565b86555061493c565b601f1984166148ea866146d3565b60005b82811015614912578489013582556001820191506020850194506020810190506148ed565b8683101561492f578489013561492b601f89168261483b565b8355505b6001600288020188555050505b50505050505050565b600061495183856138de565b935061495e838584614453565b61496783613919565b840190509392505050565b6000604082019050818103600083015261498c818661392a565b905081810360208301526149a1818486614945565b9050949350505050565b7f4d7573742062652070726f706f736564206f776e657200000000000000000000600082015250565b60006149e1601683613990565b91506149ec826149ab565b602082019050919050565b60006020820190508181036000830152614a10816149d4565b9050919050565b600060a08284031215614a2d57614a2c614139565b5b614a3760a061419e565b9050600082013567ffffffffffffffff811115614a5757614a566141b9565b5b614a63848285016144a4565b6000830152506020614a7784828501613891565b6020830152506040614a8b84828501613abf565b6040830152506060614a9f848285016144e9565b6060830152506080614ab384828501613abf565b60808301525092915050565b6000614acb3683614a17565b9050919050565b6000604082019050614ae76000830185613d5b565b614af46020830184613d5b565b9392505050565b7f4e487b7100000000000000000000000000000000000000000000000000000000600052603260045260246000fd5b600080fd5b60008235600161014003833603038112614b4c57614b4b614b2a565b5b80830191505092915050565b60006101408284031215614b6f57614b6e614139565b5b614b7960c061419e565b90506000614b8984828501613891565b6000830152506020614b9d848285016141d5565b602083015250604082013567ffffffffffffffff811115614bc157614bc06141b9565b5b614bcd848285016144a4565b604083015250606082013567ffffffffffffffff811115614bf157614bf06141b9565b5b614bfd848285016144a4565b6060830152506080614c1184828501614216565b60808301525060e0614c2584828501614216565b60a08301525092915050565b6000614c3d3683614b58565b9050919050565b614c4d826138d3565b67ffffffffffffffff811115614c6657614c6561413e565b5b614c7082546143ec565b614c7b8282856147e8565b600060209050601f831160018114614cae5760008415614c9c578287015190505b614ca68582614859565b865550614d0e565b601f198416614cbc866146d3565b60005b82811015614ce457848901518255600182019150602085019450602081019050614cbf565b86831015614d015784890151614cfd601f89168261483b565b8355505b6001600288020188555050505b505050505050565b606082016000820151614d2c6000850182613fc7565b506020820151614d3f6020850182613f99565b506040820151614d526040850182613f99565b50505050565b600061010082019050614d6e600083018761469e565b8181036020830152614d80818661392a565b9050614d8f6040830185614d16565b614d9c60a0830184614d16565b95945050505050565b60007fffffffffffffffffffffffffffffffff0000000000000000000000000000000082169050919050565b614dda81614da5565b82525050565b6000602082019050614df56000830184614dd1565b92915050565b600081519050614e0a816141be565b92915050565b600060208284031215614e2657614e256137a1565b5b6000614e3484828501614dfb565b91505092915050565b7f4f6e6c792063616c6c61626c65206279206f776e657200000000000000000000600082015250565b6000614e73601683613990565b9150614e7e82614e3d565b602082019050919050565b60006020820190508181036000830152614ea281614e66565b9050919050565b7f4e487b7100000000000000000000000000000000000000000000000000000000600052601160045260246000fd5b6000614ee382613b6f565b9150614eee83613b6f565b9250828203905081811115614f0657614f05614ea9565b5b92915050565b600060e082019050614f21600083018661469e565b614f2e6020830185614d16565b614f3b6080830184614d16565b949350505050565b6000606082019050614f586000830184614d16565b92915050565b7f43616e6e6f74207472616e7366657220746f2073656c66000000000000000000600082015250565b6000614f94601783613990565b9150614f9f82614f5e565b602082019050919050565b60006020820190508181036000830152614fc381614f87565b9050919050565b6000604082019050614fdf600083018561469e565b614fec6020830184613d5b565b9392505050565b60008151905061500281613aa8565b92915050565b60006020828403121561501e5761501d6137a1565b5b600061502c84828501614ff3565b91505092915050565b600061504082613b6f565b915061504b83613b6f565b925082820261505981613b6f565b915082820484148315176150705761506f614ea9565b5b5092915050565b600061508282613b6f565b915061508d83613b6f565b92508282019050808211156150a5576150a4614ea9565b5b92915050565b7f4e487b7100000000000000000000000000000000000000000000000000000000600052603160045260246000fd5b60006040820190506150ef600083018561464b565b6150fc602083018461464b565b9392505050565b6000606082019050615118600083018661464b565b615125602083018561464b565b6151326040830184613d5b565b949350505050565b7f4e487b7100000000000000000000000000000000000000000000000000000000600052601260045260246000fd5b600061517482613b6f565b915061517f83613b6f565b92508261518f5761518e61513a565b5b82820490509291505056fea164736f6c6343000818000a","linkReferences":{}},"methodIdentifiers":{"acceptOwnership()":"79ba5097","applyAllowListUpdates(address[],address[])":"54c8a4f3","applyChainUpdates((uint64,bool,bytes,bytes,(bool,uint128,uint128),(bool,uint128,uint128))[])":"db6327dc","getAllowList()":"a7cd63b7","getAllowListEnabled()":"e0351e13","getCurrentInboundRateLimiterState(uint64)":"af58d59f","getCurrentOutboundRateLimiterState(uint64)":"c75eea9c","getRemotePool(uint64)":"0a2fd493","getRemoteToken(uint64)":"b7946580","getRmnProxy()":"dc0bd971","getRouter()":"b0f479a1","getSupportedChains()":"c4bffe2b","getToken()":"21df0da7","isSupportedChain(uint64)":"8926f54f","isSupportedToken(address)":"240028e8","lockOrBurn((bytes,uint64,address,uint256,address))":"9a4575b9","owner()":"8da5cb5b","releaseOrMint((bytes,uint64,address,uint256,address,bytes,bytes,bytes))":"39077537","s_revertReason()":"2f586bd4","s_sourceTokenData()":"cf5d85f7","setChainRateLimiterConfig(uint64,(bool,uint128,uint128),(bool,uint128,uint128))":"cf7401f3","setRemotePool(uint64,bytes)":"78a010b2","setRouter(address)":"c0d78655","setShouldRevert(bytes)":"d5a25d8a","setSourceTokenData(bytes)":"e7e0bfbc","supportsInterface(bytes4)":"01ffc9a7","transferOwnership(address)":"f2fde38b","typeAndVersion()":"181f5a77"},"id":89}