{"abi":[{"type":"function","name":"computeNextLayer","inputs":[{"name":"layer","type":"bytes32[]","internalType":"bytes32[]"}],"outputs":[{"name":"","type":"bytes32[]","internalType":"bytes32[]"}],"stateMutability":"pure"},{"type":"function","name":"getMerkleRoot","inputs":[{"name":"hashedLeaves","type":"bytes32[]","internalType":"bytes32[]"}],"outputs":[{"name":"","type":"bytes32","internalType":"bytes32"}],"stateMutability":"pure"},{"type":"function","name":"hashInternalNode","inputs":[{"name":"left","type":"bytes32","internalType":"bytes32"},{"name":"right","type":"bytes32","internalType":"bytes32"}],"outputs":[{"name":"hash","type":"bytes32","internalType":"bytes32"}],"stateMutability":"pure"},{"type":"function","name":"hashPair","inputs":[{"name":"a","type":"bytes32","internalType":"bytes32"},{"name":"b","type":"bytes32","internalType":"bytes32"}],"outputs":[{"name":"","type":"bytes32","internalType":"bytes32"}],"stateMutability":"pure"}],"bytecode":{"object":"0x61071e610053600b82828239805160001a607314610046577f4e487b7100000000000000000000000000000000000000000000000000000000600052600060045260246000fd5b30600052607381538281f3fe73000000000000000000000000000000000000000030146080604052600436106100565760003560e01c80633695a9401461005b5780634869bfb61461008b578063cb544023146100bb578063dcff4cbc146100eb575b600080fd5b61007560048036038101906100709190610381565b61011b565b60405161008291906103d0565b60405180910390f35b6100a560048036038101906100a09190610544565b610146565b6040516100b291906103d0565b60405180910390f35b6100d560048036038101906100d09190610381565b610196565b6040516100e291906103d0565b60405180910390f35b61010560048036038101906101009190610544565b6101cf565b604051610112919061064b565b60405180910390f35b60008183106101335761012e8284610196565b61013e565b61013d8383610196565b5b905092915050565b60006101008251111561015857600080fd5b5b6001825111156101735761016c826101cf565b9150610159565b816000815181106101875761018661066d565b5b60200260200101519050919050565b6000600160001b83836040516020016101b1939291906106ab565b60405160208183030381529060405280519060200120905092915050565b6060600082519050600181036101e85782915050610332565b6000600260018301816101fe576101fd6106e2565b5b0467ffffffffffffffff81111561021857610217610401565b5b6040519080825280602002602001820160405280156102465781602001602082028036833780820191505090505b50905060005b8281101561032b576001830381036102ae578481815181106102715761027061066d565b5b6020026020010151826002838161028b5761028a6106e2565b5b048151811061029d5761029c61066d565b5b602002602001018181525050610320565b6102ef8582815181106102c4576102c361066d565b5b60200260200101518660018401815181106102e2576102e161066d565b5b602002602001015161011b565b8260028381610301576103006106e2565b5b04815181106103135761031261066d565b5b6020026020010181815250505b60028101905061024c565b5080925050505b919050565b6000604051905090565b600080fd5b600080fd5b6000819050919050565b61035e8161034b565b811461036957600080fd5b50565b60008135905061037b81610355565b92915050565b6000806040838503121561039857610397610341565b5b60006103a68582860161036c565b92505060206103b78582860161036c565b9150509250929050565b6103ca8161034b565b82525050565b60006020820190506103e560008301846103c1565b92915050565b600080fd5b6000601f19601f8301169050919050565b7f4e487b7100000000000000000000000000000000000000000000000000000000600052604160045260246000fd5b610439826103f0565b810181811067ffffffffffffffff8211171561045857610457610401565b5b80604052505050565b600061046b610337565b90506104778282610430565b919050565b600067ffffffffffffffff82111561049757610496610401565b5b602082029050602081019050919050565b600080fd5b60006104c06104bb8461047c565b610461565b905080838252602082019050602084028301858111156104e3576104e26104a8565b5b835b8181101561050c57806104f8888261036c565b8452602084019350506020810190506104e5565b5050509392505050565b600082601f83011261052b5761052a6103eb565b5b813561053b8482602086016104ad565b91505092915050565b60006020828403121561055a57610559610341565b5b600082013567ffffffffffffffff81111561057857610577610346565b5b61058484828501610516565b91505092915050565b600081519050919050565b600082825260208201905092915050565b6000819050602082019050919050565b6105c28161034b565b82525050565b60006105d483836105b9565b60208301905092915050565b6000602082019050919050565b60006105f88261058d565b6106028185610598565b935061060d836105a9565b8060005b8381101561063e57815161062588826105c8565b9750610630836105e0565b925050600181019050610611565b5085935050505092915050565b6000602082019050818103600083015261066581846105ed565b905092915050565b7f4e487b7100000000000000000000000000000000000000000000000000000000600052603260045260246000fd5b6106a58161034b565b82525050565b60006060820190506106c0600083018661069c565b6106cd602083018561069c565b6106da604083018461069c565b949350505050565b7f4e487b7100000000000000000000000000000000000000000000000000000000600052601260045260246000fdfea164736f6c6343000818000a","linkReferences":{}},"methodIdentifiers":{"computeNextLayer(bytes32[])":"dcff4cbc","getMerkleRoot(bytes32[])":"4869bfb6","hashInternalNode(bytes32,bytes32)":"cb544023","hashPair(bytes32,bytes32)":"3695a940"},"id":90}