{"abi":[{"type":"constructor","inputs":[{"name":"tokenMessenger","type":"address","internalType":"contract ITokenMessenger"},{"name":"token","type":"address","internalType":"contract IERC20"},{"name":"allowlist","type":"address[]","internalType":"address[]"},{"name":"rmnProxy","type":"address","internalType":"address"},{"name":"router","type":"address","internalType":"address"}],"stateMutability":"nonpayable"},{"type":"function","name":"SUPPORTED_USDC_VERSION","inputs":[],"outputs":[{"name":"","type":"uint32","internalType":"uint32"}],"stateMutability":"view"},{"type":"function","name":"acceptOwnership","inputs":[],"outputs":[],"stateMutability":"nonpayable"},{"type":"function","name":"applyAllowListUpdates","inputs":[{"name":"removes","type":"address[]","internalType":"address[]"},{"name":"adds","type":"address[]","internalType":"address[]"}],"outputs":[],"stateMutability":"nonpayable"},{"type":"function","name":"applyChainUpdates","inputs":[{"name":"chains","type":"tuple[]","internalType":"struct TokenPool.ChainUpdate[]","components":[{"name":"remoteChainSelector","type":"uint64","internalType":"uint64"},{"name":"allowed","type":"bool","internalType":"bool"},{"name":"remotePoolAddress","type":"bytes","internalType":"bytes"},{"name":"remoteTokenAddress","type":"bytes","internalType":"bytes"},{"name":"outboundRateLimiterConfig","type":"tuple","internalType":"struct RateLimiter.Config","components":[{"name":"isEnabled","type":"bool","internalType":"bool"},{"name":"capacity","type":"uint128","internalType":"uint128"},{"name":"rate","type":"uint128","internalType":"uint128"}]},{"name":"inboundRateLimiterConfig","type":"tuple","internalType":"struct RateLimiter.Config","components":[{"name":"isEnabled","type":"bool","internalType":"bool"},{"name":"capacity","type":"uint128","internalType":"uint128"},{"name":"rate","type":"uint128","internalType":"uint128"}]}]}],"outputs":[],"stateMutability":"nonpayable"},{"type":"function","name":"getAllowList","inputs":[],"outputs":[{"name":"","type":"address[]","internalType":"address[]"}],"stateMutability":"view"},{"type":"function","name":"getAllowListEnabled","inputs":[],"outputs":[{"name":"","type":"bool","internalType":"bool"}],"stateMutability":"view"},{"type":"function","name":"getCurrentInboundRateLimiterState","inputs":[{"name":"remoteChainSelector","type":"uint64","internalType":"uint64"}],"outputs":[{"name":"","type":"tuple","internalType":"struct RateLimiter.TokenBucket","components":[{"name":"tokens","type":"uint128","internalType":"uint128"},{"name":"lastUpdated","type":"uint32","internalType":"uint32"},{"name":"isEnabled","type":"bool","internalType":"bool"},{"name":"capacity","type":"uint128","internalType":"uint128"},{"name":"rate","type":"uint128","internalType":"uint128"}]}],"stateMutability":"view"},{"type":"function","name":"getCurrentOutboundRateLimiterState","inputs":[{"name":"remoteChainSelector","type":"uint64","internalType":"uint64"}],"outputs":[{"name":"","type":"tuple","internalType":"struct RateLimiter.TokenBucket","components":[{"name":"tokens","type":"uint128","internalType":"uint128"},{"name":"lastUpdated","type":"uint32","internalType":"uint32"},{"name":"isEnabled","type":"bool","internalType":"bool"},{"name":"capacity","type":"uint128","internalType":"uint128"},{"name":"rate","type":"uint128","internalType":"uint128"}]}],"stateMutability":"view"},{"type":"function","name":"getDomain","inputs":[{"name":"chainSelector","type":"uint64","internalType":"uint64"}],"outputs":[{"name":"","type":"tuple","internalType":"struct USDCTokenPool.Domain","components":[{"name":"allowedCaller","type":"bytes32","internalType":"bytes32"},{"name":"domainIdentifier","type":"uint32","internalType":"uint32"},{"name":"enabled","type":"bool","internalType":"bool"}]}],"stateMutability":"view"},{"type":"function","name":"getRemotePool","inputs":[{"name":"remoteChainSelector","type":"uint64","internalType":"uint64"}],"outputs":[{"name":"","type":"bytes","internalType":"bytes"}],"stateMutability":"view"},{"type":"function","name":"getRemoteToken","inputs":[{"name":"remoteChainSelector","type":"uint64","internalType":"uint64"}],"outputs":[{"name":"","type":"bytes","internalType":"bytes"}],"stateMutability":"view"},{"type":"function","name":"getRmnProxy","inputs":[],"outputs":[{"name":"rmnProxy","type":"address","internalType":"address"}],"stateMutability":"view"},{"type":"function","name":"getRouter","inputs":[],"outputs":[{"name":"router","type":"address","internalType":"address"}],"stateMutability":"view"},{"type":"function","name":"getSupportedChains","inputs":[],"outputs":[{"name":"","type":"uint64[]","internalType":"uint64[]"}],"stateMutability":"view"},{"type":"function","name":"getToken","inputs":[],"outputs":[{"name":"token","type":"address","internalType":"contract IERC20"}],"stateMutability":"view"},{"type":"function","name":"i_localDomainIdentifier","inputs":[],"outputs":[{"name":"","type":"uint32","internalType":"uint32"}],"stateMutability":"view"},{"type":"function","name":"i_messageTransmitter","inputs":[],"outputs":[{"name":"","type":"address","internalType":"contract IMessageTransmitter"}],"stateMutability":"view"},{"type":"function","name":"i_tokenMessenger","inputs":[],"outputs":[{"name":"","type":"address","internalType":"contract ITokenMessenger"}],"stateMutability":"view"},{"type":"function","name":"isSupportedChain","inputs":[{"name":"remoteChainSelector","type":"uint64","internalType":"uint64"}],"outputs":[{"name":"","type":"bool","internalType":"bool"}],"stateMutability":"view"},{"type":"function","name":"isSupportedToken","inputs":[{"name":"token","type":"address","internalType":"address"}],"outputs":[{"name":"","type":"bool","internalType":"bool"}],"stateMutability":"view"},{"type":"function","name":"lockOrBurn","inputs":[{"name":"lockOrBurnIn","type":"tuple","internalType":"struct Pool.LockOrBurnInV1","components":[{"name":"receiver","type":"bytes","internalType":"bytes"},{"name":"remoteChainSelector","type":"uint64","internalType":"uint64"},{"name":"originalSender","type":"address","internalType":"address"},{"name":"amount","type":"uint256","internalType":"uint256"},{"name":"localToken","type":"address","internalType":"address"}]}],"outputs":[{"name":"","type":"tuple","internalType":"struct Pool.LockOrBurnOutV1","components":[{"name":"destTokenAddress","type":"bytes","internalType":"bytes"},{"name":"destPoolData","type":"bytes","internalType":"bytes"}]}],"stateMutability":"nonpayable"},{"type":"function","name":"owner","inputs":[],"outputs":[{"name":"","type":"address","internalType":"address"}],"stateMutability":"view"},{"type":"function","name":"releaseOrMint","inputs":[{"name":"releaseOrMintIn","type":"tuple","internalType":"struct Pool.ReleaseOrMintInV1","components":[{"name":"originalSender","type":"bytes","internalType":"bytes"},{"name":"remoteChainSelector","type":"uint64","internalType":"uint64"},{"name":"receiver","type":"address","internalType":"address"},{"name":"amount","type":"uint256","internalType":"uint256"},{"name":"localToken","type":"address","internalType":"address"},{"name":"sourcePoolAddress","type":"bytes","internalType":"bytes"},{"name":"sourcePoolData","type":"bytes","internalType":"bytes"},{"name":"offchainTokenData","type":"bytes","internalType":"bytes"}]}],"outputs":[{"name":"","type":"tuple","internalType":"struct Pool.ReleaseOrMintOutV1","components":[{"name":"destinationAmount","type":"uint256","internalType":"uint256"}]}],"stateMutability":"nonpayable"},{"type":"function","name":"setChainRateLimiterConfig","inputs":[{"name":"remoteChainSelector","type":"uint64","internalType":"uint64"},{"name":"outboundConfig","type":"tuple","internalType":"struct RateLimiter.Config","components":[{"name":"isEnabled","type":"bool","internalType":"bool"},{"name":"capacity","type":"uint128","internalType":"uint128"},{"name":"rate","type":"uint128","internalType":"uint128"}]},{"name":"inboundConfig","type":"tuple","internalType":"struct RateLimiter.Config","components":[{"name":"isEnabled","type":"bool","internalType":"bool"},{"name":"capacity","type":"uint128","internalType":"uint128"},{"name":"rate","type":"uint128","internalType":"uint128"}]}],"outputs":[],"stateMutability":"nonpayable"},{"type":"function","name":"setDomains","inputs":[{"name":"domains","type":"tuple[]","internalType":"struct USDCTokenPool.DomainUpdate[]","components":[{"name":"allowedCaller","type":"bytes32","internalType":"bytes32"},{"name":"domainIdentifier","type":"uint32","internalType":"uint32"},{"name":"destChainSelector","type":"uint64","internalType":"uint64"},{"name":"enabled","type":"bool","internalType":"bool"}]}],"outputs":[],"stateMutability":"nonpayable"},{"type":"function","name":"setRemotePool","inputs":[{"name":"remoteChainSelector","type":"uint64","internalType":"uint64"},{"name":"remotePoolAddress","type":"bytes","internalType":"bytes"}],"outputs":[],"stateMutability":"nonpayable"},{"type":"function","name":"setRouter","inputs":[{"name":"newRouter","type":"address","internalType":"address"}],"outputs":[],"stateMutability":"nonpayable"},{"type":"function","name":"supportsInterface","inputs":[{"name":"interfaceId","type":"bytes4","internalType":"bytes4"}],"outputs":[{"name":"","type":"bool","internalType":"bool"}],"stateMutability":"pure"},{"type":"function","name":"transferOwnership","inputs":[{"name":"to","type":"address","internalType":"address"}],"outputs":[],"stateMutability":"nonpayable"},{"type":"function","name":"typeAndVersion","inputs":[],"outputs":[{"name":"","type":"string","internalType":"string"}],"stateMutability":"view"},{"type":"event","name":"AllowListAdd","inputs":[{"name":"sender","type":"address","indexed":false,"internalType":"address"}],"anonymous":false},{"type":"event","name":"AllowListRemove","inputs":[{"name":"sender","type":"address","indexed":false,"internalType":"address"}],"anonymous":false},{"type":"event","name":"Burned","inputs":[{"name":"sender","type":"address","indexed":true,"internalType":"address"},{"name":"amount","type":"uint256","indexed":false,"internalType":"uint256"}],"anonymous":false},{"type":"event","name":"ChainAdded","inputs":[{"name":"remoteChainSelector","type":"uint64","indexed":false,"internalType":"uint64"},{"name":"remoteToken","type":"bytes","indexed":false,"internalType":"bytes"},{"name":"outboundRateLimiterConfig","type":"tuple","indexed":false,"internalType":"struct RateLimiter.Config","components":[{"name":"isEnabled","type":"bool","internalType":"bool"},{"name":"capacity","type":"uint128","internalType":"uint128"},{"name":"rate","type":"uint128","internalType":"uint128"}]},{"name":"inboundRateLimiterConfig","type":"tuple","indexed":false,"internalType":"struct RateLimiter.Config","components":[{"name":"isEnabled","type":"bool","internalType":"bool"},{"name":"capacity","type":"uint128","internalType":"uint128"},{"name":"rate","type":"uint128","internalType":"uint128"}]}],"anonymous":false},{"type":"event","name":"ChainConfigured","inputs":[{"name":"remoteChainSelector","type":"uint64","indexed":false,"internalType":"uint64"},{"name":"outboundRateLimiterConfig","type":"tuple","indexed":false,"internalType":"struct RateLimiter.Config","components":[{"name":"isEnabled","type":"bool","internalType":"bool"},{"name":"capacity","type":"uint128","internalType":"uint128"},{"name":"rate","type":"uint128","internalType":"uint128"}]},{"name":"inboundRateLimiterConfig","type":"tuple","indexed":false,"internalType":"struct RateLimiter.Config","components":[{"name":"isEnabled","type":"bool","internalType":"bool"},{"name":"capacity","type":"uint128","internalType":"uint128"},{"name":"rate","type":"uint128","internalType":"uint128"}]}],"anonymous":false},{"type":"event","name":"ChainRemoved","inputs":[{"name":"remoteChainSelector","type":"uint64","indexed":false,"internalType":"uint64"}],"anonymous":false},{"type":"event","name":"ConfigChanged","inputs":[{"name":"config","type":"tuple","indexed":false,"internalType":"struct RateLimiter.Config","components":[{"name":"isEnabled","type":"bool","internalType":"bool"},{"name":"capacity","type":"uint128","internalType":"uint128"},{"name":"rate","type":"uint128","internalType":"uint128"}]}],"anonymous":false},{"type":"event","name":"ConfigSet","inputs":[{"name":"tokenMessenger","type":"address","indexed":false,"internalType":"address"}],"anonymous":false},{"type":"event","name":"DomainsSet","inputs":[{"name":"","type":"tuple[]","indexed":false,"internalType":"struct USDCTokenPool.DomainUpdate[]","components":[{"name":"allowedCaller","type":"bytes32","internalType":"bytes32"},{"name":"domainIdentifier","type":"uint32","internalType":"uint32"},{"name":"destChainSelector","type":"uint64","internalType":"uint64"},{"name":"enabled","type":"bool","internalType":"bool"}]}],"anonymous":false},{"type":"event","name":"Locked","inputs":[{"name":"sender","type":"address","indexed":true,"internalType":"address"},{"name":"amount","type":"uint256","indexed":false,"internalType":"uint256"}],"anonymous":false},{"type":"event","name":"Minted","inputs":[{"name":"sender","type":"address","indexed":true,"internalType":"address"},{"name":"recipient","type":"address","indexed":true,"internalType":"address"},{"name":"amount","type":"uint256","indexed":false,"internalType":"uint256"}],"anonymous":false},{"type":"event","name":"OwnershipTransferRequested","inputs":[{"name":"from","type":"address","indexed":true,"internalType":"address"},{"name":"to","type":"address","indexed":true,"internalType":"address"}],"anonymous":false},{"type":"event","name":"OwnershipTransferred","inputs":[{"name":"from","type":"address","indexed":true,"internalType":"address"},{"name":"to","type":"address","indexed":true,"internalType":"address"}],"anonymous":false},{"type":"event","name":"Released","inputs":[{"name":"sender","type":"address","indexed":true,"internalType":"address"},{"name":"recipient","type":"address","indexed":true,"internalType":"address"},{"name":"amount","type":"uint256","indexed":false,"internalType":"uint256"}],"anonymous":false},{"type":"event","name":"RemotePoolSet","inputs":[{"name":"remoteChainSelector","type":"uint64","indexed":true,"internalType":"uint64"},{"name":"previousPoolAddress","type":"bytes","indexed":false,"internalType":"bytes"},{"name":"remotePoolAddress","type":"bytes","indexed":false,"internalType":"bytes"}],"anonymous":false},{"type":"event","name":"RouterUpdated","inputs":[{"name":"oldRouter","type":"address","indexed":false,"internalType":"address"},{"name":"newRouter","type":"address","indexed":false,"internalType":"address"}],"anonymous":false},{"type":"event","name":"TokensConsumed","inputs":[{"name":"tokens","type":"uint256","indexed":false,"internalType":"uint256"}],"anonymous":false},{"type":"error","name":"AggregateValueMaxCapacityExceeded","inputs":[{"name":"capacity","type":"uint256","internalType":"uint256"},{"name":"requested","type":"uint256","internalType":"uint256"}]},{"type":"error","name":"AggregateValueRateLimitReached","inputs":[{"name":"minWaitInSeconds","type":"uint256","internalType":"uint256"},{"name":"available","type":"uint256","internalType":"uint256"}]},{"type":"error","name":"AllowListNotEnabled","inputs":[]},{"type":"error","name":"BucketOverfilled","inputs":[]},{"type":"error","name":"CallerIsNotARampOnRouter","inputs":[{"name":"caller","type":"address","internalType":"address"}]},{"type":"error","name":"ChainAlreadyExists","inputs":[{"name":"chainSelector","type":"uint64","internalType":"uint64"}]},{"type":"error","name":"ChainNotAllowed","inputs":[{"name":"remoteChainSelector","type":"uint64","internalType":"uint64"}]},{"type":"error","name":"CursedByRMN","inputs":[]},{"type":"error","name":"DisabledNonZeroRateLimit","inputs":[{"name":"config","type":"tuple","internalType":"struct RateLimiter.Config","components":[{"name":"isEnabled","type":"bool","internalType":"bool"},{"name":"capacity","type":"uint128","internalType":"uint128"},{"name":"rate","type":"uint128","internalType":"uint128"}]}]},{"type":"error","name":"InvalidConfig","inputs":[]},{"type":"error","name":"InvalidDestinationDomain","inputs":[{"name":"expected","type":"uint32","internalType":"uint32"},{"name":"got","type":"uint32","internalType":"uint32"}]},{"type":"error","name":"InvalidDomain","inputs":[{"name":"domain","type":"tuple","internalType":"struct USDCTokenPool.DomainUpdate","components":[{"name":"allowedCaller","type":"bytes32","internalType":"bytes32"},{"name":"domainIdentifier","type":"uint32","internalType":"uint32"},{"name":"destChainSelector","type":"uint64","internalType":"uint64"},{"name":"enabled","type":"bool","internalType":"bool"}]}]},{"type":"error","name":"InvalidMessageVersion","inputs":[{"name":"version","type":"uint32","internalType":"uint32"}]},{"type":"error","name":"InvalidNonce","inputs":[{"name":"expected","type":"uint64","internalType":"uint64"},{"name":"got","type":"uint64","internalType":"uint64"}]},{"type":"error","name":"InvalidRateLimitRate","inputs":[{"name":"rateLimiterConfig","type":"tuple","internalType":"struct RateLimiter.Config","components":[{"name":"isEnabled","type":"bool","internalType":"bool"},{"name":"capacity","type":"uint128","internalType":"uint128"},{"name":"rate","type":"uint128","internalType":"uint128"}]}]},{"type":"error","name":"InvalidReceiver","inputs":[{"name":"receiver","type":"bytes","internalType":"bytes"}]},{"type":"error","name":"InvalidSourceDomain","inputs":[{"name":"expected","type":"uint32","internalType":"uint32"},{"name":"got","type":"uint32","internalType":"uint32"}]},{"type":"error","name":"InvalidSourcePoolAddress","inputs":[{"name":"sourcePoolAddress","type":"bytes","internalType":"bytes"}]},{"type":"error","name":"InvalidToken","inputs":[{"name":"token","type":"address","internalType":"address"}]},{"type":"error","name":"InvalidTokenMessengerVersion","inputs":[{"name":"version","type":"uint32","internalType":"uint32"}]},{"type":"error","name":"NonExistentChain","inputs":[{"name":"remoteChainSelector","type":"uint64","internalType":"uint64"}]},{"type":"error","name":"RateLimitMustBeDisabled","inputs":[]},{"type":"error","name":"SenderNotAllowed","inputs":[{"name":"sender","type":"address","internalType":"address"}]},{"type":"error","name":"TokenMaxCapacityExceeded","inputs":[{"name":"capacity","type":"uint256","internalType":"uint256"},{"name":"requested","type":"uint256","internalType":"uint256"},{"name":"tokenAddress","type":"address","internalType":"address"}]},{"type":"error","name":"TokenRateLimitReached","inputs":[{"name":"minWaitInSeconds","type":"uint256","internalType":"uint256"},{"name":"available","type":"uint256","internalType":"uint256"},{"name":"tokenAddress","type":"address","internalType":"address"}]},{"type":"error","name":"UnknownDomain","inputs":[{"name":"domain","type":"uint64","internalType":"uint64"}]},{"type":"error","name":"UnlockingUSDCFailed","inputs":[]},{"type":"error","name":"ZeroAddressNotAllowed","inputs":[]}],"bytecode":{"object":"0x6101406040523480156200001257600080fd5b5060405162007df738038062007df7833981810160405281019062000038919062001299565b83838383338060008073ffffffffffffffffffffffffffffffffffffffff168273ffffffffffffffffffffffffffffffffffffffff1603620000b1576040517f08c379a0000000000000000000000000000000000000000000000000000000008152600401620000a890620013a1565b60405180910390fd5b816000806101000a81548173ffffffffffffffffffffffffffffffffffffffff021916908373ffffffffffffffffffffffffffffffffffffffff160217905550600073ffffffffffffffffffffffffffffffffffffffff168173ffffffffffffffffffffffffffffffffffffffff1614620001385762000137816200073160201b60201c565b5b505050600073ffffffffffffffffffffffffffffffffffffffff168473ffffffffffffffffffffffffffffffffffffffff161480620001a35750600073ffffffffffffffffffffffffffffffffffffffff168173ffffffffffffffffffffffffffffffffffffffff16145b80620001db5750600073ffffffffffffffffffffffffffffffffffffffff168273ffffffffffffffffffffffffffffffffffffffff16145b1562000213576040517f8579befe00000000000000000000000000000000000000000000000000000000815260040160405180910390fd5b8373ffffffffffffffffffffffffffffffffffffffff1660808173ffffffffffffffffffffffffffffffffffffffff16815250508173ffffffffffffffffffffffffffffffffffffffff1660a08173ffffffffffffffffffffffffffffffffffffffff168152505080600460006101000a81548173ffffffffffffffffffffffffffffffffffffffff021916908373ffffffffffffffffffffffffffffffffffffffff1602179055506000835111151560c08115158152505060c05115620003355762000334600067ffffffffffffffff811115620002f757620002f662001109565b5b604051908082528060200260200182016040528015620003265781602001602082028036833780820191505090505b50846200086060201b60201c565b5b50505050600073ffffffffffffffffffffffffffffffffffffffff168573ffffffffffffffffffffffffffffffffffffffff1603620003a0576040517f35be3ac800000000000000000000000000000000000000000000000000000000815260040160405180910390fd5b60008573ffffffffffffffffffffffffffffffffffffffff16632c1219216040518163ffffffff1660e01b8152600401602060405180830381865afa158015620003ee573d6000803e3d6000fd5b505050506040513d601f19601f82011682018060405250810190620004149190620013c3565b905060008173ffffffffffffffffffffffffffffffffffffffff166354fd4d506040518163ffffffff1660e01b8152600401602060405180830381865afa15801562000464573d6000803e3d6000fd5b505050506040513d601f19601f820116820180604052508101906200048a919062001436565b9050600063ffffffff168163ffffffff1614620004e057806040517f68d2f8d6000000000000000000000000000000000000000000000000000000008152600401620004d7919062001479565b60405180910390fd5b60008773ffffffffffffffffffffffffffffffffffffffff16639cdbb1816040518163ffffffff1660e01b8152600401602060405180830381865afa1580156200052e573d6000803e3d6000fd5b505050506040513d601f19601f8201168201806040525081019062000554919062001436565b9050600063ffffffff168163ffffffff1614620005aa57806040517fb5d1ce28000000000000000000000000000000000000000000000000000000008152600401620005a1919062001479565b60405180910390fd5b8773ffffffffffffffffffffffffffffffffffffffff1660e08173ffffffffffffffffffffffffffffffffffffffff16815250508273ffffffffffffffffffffffffffffffffffffffff166101008173ffffffffffffffffffffffffffffffffffffffff16815250508273ffffffffffffffffffffffffffffffffffffffff16638d3638f46040518163ffffffff1660e01b8152600401602060405180830381865afa1580156200065f573d6000803e3d6000fd5b505050506040513d601f19601f8201168201806040525081019062000685919062001436565b63ffffffff166101208163ffffffff1681525050620006ea60e0517fffffffffffffffffffffffffffffffffffffffffffffffffffffffffffffffff60805173ffffffffffffffffffffffffffffffffffffffff1662000a0160201b9092919060201c565b7f2e902d38f15b233cbb63711add0fca4545334d3a169d60c0a616494d7eea9544886040516200071b9190620014a7565b60405180910390a1505050505050505062001a24565b3373ffffffffffffffffffffffffffffffffffffffff168173ffffffffffffffffffffffffffffffffffffffff1603620007a2576040517f08c379a0000000000000000000000000000000000000000000000000000000008152600401620007999062001514565b60405180910390fd5b80600160006101000a81548173ffffffffffffffffffffffffffffffffffffffff021916908373ffffffffffffffffffffffffffffffffffffffff1602179055508073ffffffffffffffffffffffffffffffffffffffff1660008054906101000a900473ffffffffffffffffffffffffffffffffffffffff1673ffffffffffffffffffffffffffffffffffffffff167fed8889f560326eb138920d842192f0eb3dd22b4f139c87a2c57538e05bae127860405160405180910390a350565b60c0516200089a576040517f35f4a7b300000000000000000000000000000000000000000000000000000000815260040160405180910390fd5b60005b82518110156200092c576000838281518110620008bf57620008be62001536565b5b60200260200101519050620008df81600262000b2460201b90919060201c565b156200091f577f800671136ab6cfee9fbe5ed1fb7ca417811aca3cf864800d127b927adedf756681604051620009169190620014a7565b60405180910390a15b508060010190506200089d565b5060005b8151811015620009fc57600082828151811062000952576200095162001536565b5b60200260200101519050600073ffffffffffffffffffffffffffffffffffffffff168173ffffffffffffffffffffffffffffffffffffffff1603620009985750620009f0565b620009ae81600262000b5c60201b90919060201c565b15620009ee577f2640d4d76caf8bf478aabfa982fa4e1c4eb71a37f93cd15e80dbc657911546d881604051620009e59190620014a7565b60405180910390a15b505b80600101905062000930565b505050565b6000818473ffffffffffffffffffffffffffffffffffffffff1663dd62ed3e30866040518363ffffffff1660e01b815260040162000a4192919062001565565b602060405180830381865afa15801562000a5f573d6000803e3d6000fd5b505050506040513d601f19601f8201168201806040525081019062000a859190620015cd565b62000a9191906200162e565b905062000b1e8463095ea7b360e01b858460405160240162000ab59291906200167a565b604051602081830303815290604052907bffffffffffffffffffffffffffffffffffffffffffffffffffffffff19166020820180517bffffffffffffffffffffffffffffffffffffffffffffffffffffffff838183161783525050505062000b9460201b60201c565b50505050565b600062000b54836000018373ffffffffffffffffffffffffffffffffffffffff1660001b62000c6360201b60201c565b905092915050565b600062000b8c836000018373ffffffffffffffffffffffffffffffffffffffff1660001b62000d8760201b60201c565b905092915050565b600062000bf8826040518060400160405280602081526020017f5361666545524332303a206c6f772d6c6576656c2063616c6c206661696c65648152508573ffffffffffffffffffffffffffffffffffffffff1662000e0160201b9092919060201c565b905060008151111562000c5e578080602001905181019062000c1b9190620016e4565b62000c5d576040517f08c379a000000000000000000000000000000000000000000000000000000000815260040162000c54906200178c565b60405180910390fd5b5b505050565b6000808360010160008481526020019081526020016000205490506000811462000d7b57600060018262000c989190620017ae565b905060006001866000018054905062000cb29190620017ae565b905081811462000d2857600086600001828154811062000cd75762000cd662001536565b5b906000526020600020015490508087600001848154811062000cfe5762000cfd62001536565b5b90600052602060002001819055508387600101600083815260200190815260200160002081905550505b8560000180548062000d3f5762000d3e620017e9565b5b60019003818190600052602060002001600090559055856001016000868152602001908152602001600020600090556001935050505062000d81565b60009150505b92915050565b600062000d9b838362000e2160201b60201c565b62000df657826000018290806001815401808255809150506001900390600052602060002001600090919091909150558260000180549050836001016000848152602001908152602001600020819055506001905062000dfb565b600090505b92915050565b606062000e18848460008562000e4460201b60201c565b90509392505050565b600080836001016000848152602001908152602001600020541415905092915050565b60608247101562000e8c576040517f08c379a000000000000000000000000000000000000000000000000000000000815260040162000e83906200188e565b60405180910390fd5b6000808673ffffffffffffffffffffffffffffffffffffffff16858760405162000eb7919062001929565b60006040518083038185875af1925050503d806000811462000ef6576040519150601f19603f3d011682016040523d82523d6000602084013e62000efb565b606091505b509150915062000f148783838762000f2060201b60201c565b92505050949350505050565b6060831562000f9057600083510362000f875762000f448562000fab60201b60201c565b62000f86576040517f08c379a000000000000000000000000000000000000000000000000000000000815260040162000f7d9062001992565b60405180910390fd5b5b82905062000fa3565b62000fa2838362000fce60201b60201c565b5b949350505050565b6000808273ffffffffffffffffffffffffffffffffffffffff163b119050919050565b60008251111562000fe25781518083602001fd5b806040517f08c379a000000000000000000000000000000000000000000000000000000000815260040162001018919062001a00565b60405180910390fd5b6000604051905090565b600080fd5b600080fd5b600073ffffffffffffffffffffffffffffffffffffffff82169050919050565b6000620010628262001035565b9050919050565b6000620010768262001055565b9050919050565b620010888162001069565b81146200109457600080fd5b50565b600081519050620010a8816200107d565b92915050565b6000620010bb8262001055565b9050919050565b620010cd81620010ae565b8114620010d957600080fd5b50565b600081519050620010ed81620010c2565b92915050565b600080fd5b6000601f19601f8301169050919050565b7f4e487b7100000000000000000000000000000000000000000000000000000000600052604160045260246000fd5b6200114382620010f8565b810181811067ffffffffffffffff8211171562001165576200116462001109565b5b80604052505050565b60006200117a62001021565b905062001188828262001138565b919050565b600067ffffffffffffffff821115620011ab57620011aa62001109565b5b602082029050602081019050919050565b600080fd5b620011cc8162001055565b8114620011d857600080fd5b50565b600081519050620011ec81620011c1565b92915050565b60006200120962001203846200118d565b6200116e565b905080838252602082019050602084028301858111156200122f576200122e620011bc565b5b835b818110156200125c5780620012478882620011db565b84526020840193505060208101905062001231565b5050509392505050565b600082601f8301126200127e576200127d620010f3565b5b815162001290848260208601620011f2565b91505092915050565b600080600080600060a08688031215620012b857620012b76200102b565b5b6000620012c88882890162001097565b9550506020620012db88828901620010dc565b945050604086015167ffffffffffffffff811115620012ff57620012fe62001030565b5b6200130d8882890162001266565b93505060606200132088828901620011db565b92505060806200133388828901620011db565b9150509295509295909350565b600082825260208201905092915050565b7f43616e6e6f7420736574206f776e657220746f207a65726f0000000000000000600082015250565b60006200138960188362001340565b9150620013968262001351565b602082019050919050565b60006020820190508181036000830152620013bc816200137a565b9050919050565b600060208284031215620013dc57620013db6200102b565b5b6000620013ec84828501620011db565b91505092915050565b600063ffffffff82169050919050565b6200141081620013f5565b81146200141c57600080fd5b50565b600081519050620014308162001405565b92915050565b6000602082840312156200144f576200144e6200102b565b5b60006200145f848285016200141f565b91505092915050565b6200147381620013f5565b82525050565b600060208201905062001490600083018462001468565b92915050565b620014a18162001055565b82525050565b6000602082019050620014be600083018462001496565b92915050565b7f43616e6e6f74207472616e7366657220746f2073656c66000000000000000000600082015250565b6000620014fc60178362001340565b91506200150982620014c4565b602082019050919050565b600060208201905081810360008301526200152f81620014ed565b9050919050565b7f4e487b7100000000000000000000000000000000000000000000000000000000600052603260045260246000fd5b60006040820190506200157c600083018562001496565b6200158b602083018462001496565b9392505050565b6000819050919050565b620015a78162001592565b8114620015b357600080fd5b50565b600081519050620015c7816200159c565b92915050565b600060208284031215620015e657620015e56200102b565b5b6000620015f684828501620015b6565b91505092915050565b7f4e487b7100000000000000000000000000000000000000000000000000000000600052601160045260246000fd5b60006200163b8262001592565b9150620016488362001592565b9250828201905080821115620016635762001662620015ff565b5b92915050565b620016748162001592565b82525050565b600060408201905062001691600083018562001496565b620016a0602083018462001669565b9392505050565b60008115159050919050565b620016be81620016a7565b8114620016ca57600080fd5b50565b600081519050620016de81620016b3565b92915050565b600060208284031215620016fd57620016fc6200102b565b5b60006200170d84828501620016cd565b91505092915050565b7f5361666545524332303a204552433230206f7065726174696f6e20646964206e60008201527f6f74207375636365656400000000000000000000000000000000000000000000602082015250565b600062001774602a8362001340565b9150620017818262001716565b604082019050919050565b60006020820190508181036000830152620017a78162001765565b9050919050565b6000620017bb8262001592565b9150620017c88362001592565b9250828203905081811115620017e357620017e2620015ff565b5b92915050565b7f4e487b7100000000000000000000000000000000000000000000000000000000600052603160045260246000fd5b7f416464726573733a20696e73756666696369656e742062616c616e636520666f60008201527f722063616c6c0000000000000000000000000000000000000000000000000000602082015250565b60006200187660268362001340565b9150620018838262001818565b604082019050919050565b60006020820190508181036000830152620018a98162001867565b9050919050565b600081519050919050565b600081905092915050565b60005b83811015620018e6578082015181840152602081019050620018c9565b60008484015250505050565b6000620018ff82620018b0565b6200190b8185620018bb565b93506200191d818560208601620018c6565b80840191505092915050565b6000620019378284620018f2565b915081905092915050565b7f416464726573733a2063616c6c20746f206e6f6e2d636f6e7472616374000000600082015250565b60006200197a601d8362001340565b9150620019878262001942565b602082019050919050565b60006020820190508181036000830152620019ad816200196b565b9050919050565b600081519050919050565b6000620019cc82620019b4565b620019d8818562001340565b9350620019ea818560208601620018c6565b620019f581620010f8565b840191505092915050565b6000602082019050818103600083015262001a1c8184620019bf565b905092915050565b60805160a05160c05160e051610100516101205161632862001acf60003960008181610cfd01528181611370015281816125340152612567015260008181610a9601526121e2015260008181610cd901526112020152600081816121a8015281816126b601526131850152600081816120f4015281816122e801526128ca0152600081816109ae015281816109d60152818161124d01528181612fdd015261336401526163286000f3fe608060405234801561001057600080fd5b50600436106101d95760003560e01c80639fdf13ff11610104578063c75eea9c116100a2578063dfadfa3511610071578063dfadfa351461056c578063e0351e131461059c578063f2fde38b146105ba578063fbf84dd7146105d6576101d9565b8063c75eea9c146104e6578063cf7401f314610516578063db6327dc14610532578063dc0bd9711461054e576101d9565b8063b0f479a1116100de578063b0f479a11461045e578063b79465801461047c578063c0d78655146104ac578063c4bffe2b146104c8576101d9565b80639fdf13ff146103f2578063a7cd63b714610410578063af58d59f1461042e576101d9565b806354c8a4f31161017c57806379ba50971161014b57806379ba50971461036a5780638926f54f146103745780638da5cb5b146103a45780639a4575b9146103c2576101d9565b806354c8a4f3146102f65780636155cda0146103125780636b716b0d1461033057806378a010b21461034e576101d9565b8063181f5a77116101b8578063181f5a771461025a57806321df0da714610278578063240028e81461029657806339077537146102c6576101d9565b806241d3c1146101de57806301ffc9a7146101fa5780630a2fd4931461022a575b600080fd5b6101f860048036038101906101f39190613fe0565b6105f4565b005b610214600480360381019061020f9190614085565b610794565b60405161022191906140cd565b60405180910390f35b610244600480360381019061023f9190614128565b6108b5565b60405161025191906141e5565b60405180910390f35b610262610971565b60405161026f919061425c565b60405180910390f35b6102806109aa565b60405161028d91906142fd565b60405180910390f35b6102b060048036038101906102ab9190614356565b6109d2565b6040516102bd91906140cd565b60405180910390f35b6102e060048036038101906102db91906143a8565b610a2a565b6040516102ed9190614426565b60405180910390f35b610310600480360381019061030b9190614497565b610c3d565b005b61031a610cd7565b6040516103279190614539565b60405180910390f35b610338610cfb565b6040516103459190614573565b60405180910390f35b610368600480360381019061036391906145e4565b610d1f565b005b610372610eae565b005b61038e60048036038101906103899190614128565b611043565b60405161039b91906140cd565b60405180910390f35b6103ac61106a565b6040516103b99190614653565b60405180910390f35b6103dc60048036038101906103d7919061468d565b611093565b6040516103e99190614764565b60405180910390f35b6103fa6113c3565b6040516104079190614573565b60405180910390f35b6104186113c8565b6040516104259190614844565b60405180910390f35b61044860048036038101906104439190614128565b6113d9565b6040516104559190614917565b60405180910390f35b610466611544565b6040516104739190614653565b60405180910390f35b61049660048036038101906104919190614128565b61156e565b6040516104a391906141e5565b60405180910390f35b6104c660048036038101906104c19190614356565b61162a565b005b6104d061173d565b6040516104dd91906149f0565b60405180910390f35b61050060048036038101906104fb9190614128565b61180b565b60405161050d9190614917565b60405180910390f35b610530600480360381019061052b9190614b53565b611976565b005b61054c60048036038101906105479190614bfc565b61198e565b005b6105566120f0565b6040516105639190614653565b60405180910390f35b61058660048036038101906105819190614128565b612118565b6040516105939190614ca4565b60405180910390f35b6105a46121a4565b6040516105b191906140cd565b60405180910390f35b6105d460048036038101906105cf9190614356565b6121cc565b005b6105de6121e0565b6040516105eb9190614ce0565b60405180910390f35b6105fc612204565b60005b8282905081101561075657600083838381811061061f5761061e614cfb565b5b9050608002018036038101906106359190614dfa565b90506000801b8160000151148061065a57506000816040015167ffffffffffffffff16145b1561069c57806040517fa087bd290000000000000000000000000000000000000000000000000000000081526004016106939190614e7c565b60405180910390fd5b604051806060016040528082600001518152602001826020015163ffffffff1681526020018260600151151581525060086000836040015167ffffffffffffffff1667ffffffffffffffff1681526020019081526020016000206000820151816000015560208201518160010160006101000a81548163ffffffff021916908363ffffffff16021790555060408201518160010160046101000a81548160ff021916908315150217905550905050508060010190506105ff565b507f1889010d2535a0ab1643678d1da87fbbe8b87b2f585b47ddb72ec622aef9ee568282604051610788929190615010565b60405180910390a15050565b600063aff2afbf60e01b7bffffffffffffffffffffffffffffffffffffffffffffffffffffffff1916827bffffffffffffffffffffffffffffffffffffffffffffffffffffffff1916148061084657507f0e64dd29000000000000000000000000000000000000000000000000000000007bffffffffffffffffffffffffffffffffffffffffffffffffffffffff1916827bffffffffffffffffffffffffffffffffffffffffffffffffffffffff1916145b806108ae57507f01ffc9a7000000000000000000000000000000000000000000000000000000007bffffffffffffffffffffffffffffffffffffffffffffffffffffffff1916827bffffffffffffffffffffffffffffffffffffffffffffffffffffffff1916145b9050919050565b6060600760008367ffffffffffffffff1667ffffffffffffffff16815260200190815260200160002060040180546108ec90615063565b80601f016020809104026020016040519081016040528092919081815260200182805461091890615063565b80156109655780601f1061093a57610100808354040283529160200191610965565b820191906000526020600020905b81548152906001019060200180831161094857829003601f168201915b50505050509050919050565b6040518060400160405280601781526020017f55534443546f6b656e506f6f6c20312e352e302d64657600000000000000000081525081565b60007f0000000000000000000000000000000000000000000000000000000000000000905090565b60007f000000000000000000000000000000000000000000000000000000000000000073ffffffffffffffffffffffffffffffffffffffff168273ffffffffffffffffffffffffffffffffffffffff16149050919050565b610a32613e44565b610a4482610a3f906152af565b612294565b6000828060c00190610a5691906152d1565b810190610a639190615384565b90506000838060e00190610a7791906152d1565b810190610a849190615439565b9050610a94816000015183612464565b7f000000000000000000000000000000000000000000000000000000000000000073ffffffffffffffffffffffffffffffffffffffff166357ecfd28826000015183602001516040518363ffffffff1660e01b8152600401610af7929190615482565b6020604051808303816000875af1158015610b16573d6000803e3d6000fd5b505050506040513d601f19601f82011682018060405250810190610b3a91906154ce565b610b70576040517fbf969f2200000000000000000000000000000000000000000000000000000000815260040160405180910390fd5b610ba6338560600135610b816109aa565b73ffffffffffffffffffffffffffffffffffffffff1661262e9092919063ffffffff16565b836040016020810190610bb99190614356565b73ffffffffffffffffffffffffffffffffffffffff163373ffffffffffffffffffffffffffffffffffffffff167f9d228d69b5fdb8d273a2336f8fb8612d039631024ea9bf09c424a9503aa078f08660600135604051610c19919061550a565b60405180910390a36040518060200160405280856060013581525092505050919050565b610c45612204565b610cd1848480806020026020016040519081016040528093929190818152602001838360200280828437600081840152601f19601f82011690508083019250505050505050838380806020026020016040519081016040528093929190818152602001838360200280828437600081840152601f19601f820116905080830192505050505050506126b4565b50505050565b7f000000000000000000000000000000000000000000000000000000000000000081565b7f000000000000000000000000000000000000000000000000000000000000000081565b610d27612204565b610d3083611043565b610d7157826040517f1e670e4b000000000000000000000000000000000000000000000000000000008152600401610d689190615534565b60405180910390fd5b6000600760008567ffffffffffffffff1667ffffffffffffffff1681526020019081526020016000206004018054610da890615063565b80601f0160208091040260200160405190810160405280929190818152602001828054610dd490615063565b8015610e215780601f10610df657610100808354040283529160200191610e21565b820191906000526020600020905b815481529060010190602001808311610e0457829003601f168201915b505050505090508282600760008767ffffffffffffffff1667ffffffffffffffff1681526020019081526020016000206004019182610e619291906156fc565b508367ffffffffffffffff167fdb4d6220746a38cbc5335f7e108f7de80f482f4d23350253dfd0917df75a14bf828585604051610ea0939291906157f9565b60405180910390a250505050565b600160009054906101000a900473ffffffffffffffffffffffffffffffffffffffff1673ffffffffffffffffffffffffffffffffffffffff163373ffffffffffffffffffffffffffffffffffffffff1614610f3e576040517f08c379a0000000000000000000000000000000000000000000000000000000008152600401610f359061587e565b60405180910390fd5b60008060009054906101000a900473ffffffffffffffffffffffffffffffffffffffff169050336000806101000a81548173ffffffffffffffffffffffffffffffffffffffff021916908373ffffffffffffffffffffffffffffffffffffffff1602179055506000600160006101000a81548173ffffffffffffffffffffffffffffffffffffffff021916908373ffffffffffffffffffffffffffffffffffffffff1602179055503373ffffffffffffffffffffffffffffffffffffffff168173ffffffffffffffffffffffffffffffffffffffff167f8be0079c531659141344cd1fd0a4f28419497f9722a3daafe3b4186f6b6457e060405160405180910390a350565b60006110638267ffffffffffffffff16600561285c90919063ffffffff16565b9050919050565b60008060009054906101000a900473ffffffffffffffffffffffffffffffffffffffff16905090565b61109b613e57565b6110ad826110a890615946565b612876565b6000600860008460200160208101906110c69190614128565b67ffffffffffffffff1667ffffffffffffffff168152602001908152602001600020604051806060016040529081600082015481526020016001820160009054906101000a900463ffffffff1663ffffffff1663ffffffff1681526020016001820160049054906101000a900460ff161515151581525050905080604001516111985782602001602081019061115c9190614128565b6040517fd201c48a00000000000000000000000000000000000000000000000000000000815260040161118f9190615534565b60405180910390fd5b60208380600001906111aa91906152d1565b9050146111fe578280600001906111c191906152d1565b6040517fa3c8cf090000000000000000000000000000000000000000000000000000000081526004016111f5929190615959565b60405180910390fd5b60007f000000000000000000000000000000000000000000000000000000000000000073ffffffffffffffffffffffffffffffffffffffff1663f856ddb68560600135846020015185600001517f000000000000000000000000000000000000000000000000000000000000000087600001516040518663ffffffff1660e01b815260040161129195949392919061598c565b6020604051808303816000875af11580156112b0573d6000803e3d6000fd5b505050506040513d601f19601f820116820180604052508101906112d491906159f4565b90503373ffffffffffffffffffffffffffffffffffffffff167f696de425f79f4a40bc6d2122ca50507f0efbeabbff86a84871b7196ab8ea8df78560600135604051611320919061550a565b60405180910390a2604051806040016040528061134e8660200160208101906113499190614128565b61156e565b815260200160405180604001604052808467ffffffffffffffff1681526020017f000000000000000000000000000000000000000000000000000000000000000063ffffffff168152506040516020016113a89190615a50565b60405160208183030381529060405281525092505050919050565b600081565b60606113d460026129d9565b905090565b6113e1613e71565b61153d600760008467ffffffffffffffff1667ffffffffffffffff1681526020019081526020016000206002016040518060a00160405290816000820160009054906101000a90046fffffffffffffffffffffffffffffffff166fffffffffffffffffffffffffffffffff166fffffffffffffffffffffffffffffffff1681526020016000820160109054906101000a900463ffffffff1663ffffffff1663ffffffff1681526020016000820160149054906101000a900460ff161515151581526020016001820160009054906101000a90046fffffffffffffffffffffffffffffffff166fffffffffffffffffffffffffffffffff166fffffffffffffffffffffffffffffffff1681526020016001820160109054906101000a90046fffffffffffffffffffffffffffffffff166fffffffffffffffffffffffffffffffff166fffffffffffffffffffffffffffffffff16815250506129fa565b9050919050565b6000600460009054906101000a900473ffffffffffffffffffffffffffffffffffffffff16905090565b6060600760008367ffffffffffffffff1667ffffffffffffffff16815260200190815260200160002060050180546115a590615063565b80601f01602080910402602001604051908101604052809291908181526020018280546115d190615063565b801561161e5780601f106115f35761010080835404028352916020019161161e565b820191906000526020600020905b81548152906001019060200180831161160157829003601f168201915b50505050509050919050565b611632612204565b600073ffffffffffffffffffffffffffffffffffffffff168173ffffffffffffffffffffffffffffffffffffffff1603611698576040517f8579befe00000000000000000000000000000000000000000000000000000000815260040160405180910390fd5b6000600460009054906101000a900473ffffffffffffffffffffffffffffffffffffffff16905081600460006101000a81548173ffffffffffffffffffffffffffffffffffffffff021916908373ffffffffffffffffffffffffffffffffffffffff1602179055507f02dc5c233404867c793b749c6d644beb2277536d18a7e7974d3f238e4c6f16848183604051611731929190615a6b565b60405180910390a15050565b6060600061174b6005612ab4565b90506000815167ffffffffffffffff81111561176a57611769614a17565b5b6040519080825280602002602001820160405280156117985781602001602082028036833780820191505090505b50905060005b8251811015611802578281815181106117ba576117b9614cfb565b5b60200260200101518282815181106117d5576117d4614cfb565b5b602002602001019067ffffffffffffffff16908167ffffffffffffffff168152505080600101905061179e565b50809250505090565b611813613e71565b61196f600760008467ffffffffffffffff1667ffffffffffffffff1681526020019081526020016000206000016040518060a00160405290816000820160009054906101000a90046fffffffffffffffffffffffffffffffff166fffffffffffffffffffffffffffffffff166fffffffffffffffffffffffffffffffff1681526020016000820160109054906101000a900463ffffffff1663ffffffff1663ffffffff1681526020016000820160149054906101000a900460ff161515151581526020016001820160009054906101000a90046fffffffffffffffffffffffffffffffff166fffffffffffffffffffffffffffffffff166fffffffffffffffffffffffffffffffff1681526020016001820160109054906101000a90046fffffffffffffffffffffffffffffffff166fffffffffffffffffffffffffffffffff166fffffffffffffffffffffffffffffffff16815250506129fa565b9050919050565b61197e612204565b611989838383612ad5565b505050565b611996612204565b60005b828290508110156120eb5760008383838181106119b9576119b8614cfb565b5b90506020028101906119cb9190615a94565b6119d490615b96565b90506119e98160800151826020015115612bed565b6119fc8160a00151826020015115612bed565b806020015115611eb857611a28816000015167ffffffffffffffff166005612d4b90919063ffffffff16565b611a6d5780600001516040517f1d5ad3c5000000000000000000000000000000000000000000000000000000008152600401611a649190615534565b60405180910390fd5b60008160400151511480611a8657506000816060015151145b15611abd576040517f8579befe00000000000000000000000000000000000000000000000000000000815260040160405180910390fd5b60405180608001604052806040518060a001604052808460800151602001516fffffffffffffffffffffffffffffffff1681526020014263ffffffff168152602001846080015160000151151581526020018460800151602001516fffffffffffffffffffffffffffffffff1681526020018460800151604001516fffffffffffffffffffffffffffffffff1681525081526020016040518060a001604052808460a00151602001516fffffffffffffffffffffffffffffffff1681526020014263ffffffff1681526020018460a0015160000151151581526020018460a00151602001516fffffffffffffffffffffffffffffffff1681526020018460a00151604001516fffffffffffffffffffffffffffffffff16815250815260200182604001518152602001826060015181525060076000836000015167ffffffffffffffff1667ffffffffffffffff16815260200190815260200160002060008201518160000160008201518160000160006101000a8154816fffffffffffffffffffffffffffffffff02191690836fffffffffffffffffffffffffffffffff16021790555060208201518160000160106101000a81548163ffffffff021916908363ffffffff16021790555060408201518160000160146101000a81548160ff02191690831515021790555060608201518160010160006101000a8154816fffffffffffffffffffffffffffffffff02191690836fffffffffffffffffffffffffffffffff16021790555060808201518160010160106101000a8154816fffffffffffffffffffffffffffffffff02191690836fffffffffffffffffffffffffffffffff160217905550505060208201518160020160008201518160000160006101000a8154816fffffffffffffffffffffffffffffffff02191690836fffffffffffffffffffffffffffffffff16021790555060208201518160000160106101000a81548163ffffffff021916908363ffffffff16021790555060408201518160000160146101000a81548160ff02191690831515021790555060608201518160010160006101000a8154816fffffffffffffffffffffffffffffffff02191690836fffffffffffffffffffffffffffffffff16021790555060808201518160010160106101000a8154816fffffffffffffffffffffffffffffffff02191690836fffffffffffffffffffffffffffffffff16021790555050506040820151816004019081611e4c9190615ba9565b506060820151816005019081611e629190615ba9565b509050507f8d340f17e19058004c20453540862a9c62778504476f6756755cb33bcd6c38c28160000151826060015183608001518460a00151604051611eab9493929190615cbd565b60405180910390a16120df565b611eda816000015167ffffffffffffffff166005612d6590919063ffffffff16565b611f1f5780600001516040517f1e670e4b000000000000000000000000000000000000000000000000000000008152600401611f169190615534565b60405180910390fd5b60076000826000015167ffffffffffffffff1667ffffffffffffffff1681526020019081526020016000206000808201600080820160006101000a8154906fffffffffffffffffffffffffffffffff02191690556000820160106101000a81549063ffffffff02191690556000820160146101000a81549060ff02191690556001820160006101000a8154906fffffffffffffffffffffffffffffffff02191690556001820160106101000a8154906fffffffffffffffffffffffffffffffff0219169055505060028201600080820160006101000a8154906fffffffffffffffffffffffffffffffff02191690556000820160106101000a81549063ffffffff02191690556000820160146101000a81549060ff02191690556001820160006101000a8154906fffffffffffffffffffffffffffffffff02191690556001820160106101000a8154906fffffffffffffffffffffffffffffffff021916905550506004820160006120919190613ede565b6005820160006120a19190613ede565b50507f5204aec90a3c794d8e90fded8b46ae9c7c552803e7e832e0c1d358396d85991681600001516040516120d69190615534565b60405180910390a15b50806001019050611999565b505050565b60007f0000000000000000000000000000000000000000000000000000000000000000905090565b612120613f1e565b600860008367ffffffffffffffff1667ffffffffffffffff168152602001908152602001600020604051806060016040529081600082015481526020016001820160009054906101000a900463ffffffff1663ffffffff1663ffffffff1681526020016001820160049054906101000a900460ff1615151515815250509050919050565b60007f0000000000000000000000000000000000000000000000000000000000000000905090565b6121d4612204565b6121dd81612d7f565b50565b7f000000000000000000000000000000000000000000000000000000000000000081565b60008054906101000a900473ffffffffffffffffffffffffffffffffffffffff1673ffffffffffffffffffffffffffffffffffffffff163373ffffffffffffffffffffffffffffffffffffffff1614612292576040517f08c379a000000000000000000000000000000000000000000000000000000000815260040161228990615d56565b60405180910390fd5b565b6122a181608001516109d2565b6122e65780608001516040517f961c9a4f0000000000000000000000000000000000000000000000000000000081526004016122dd9190614653565b60405180910390fd5b7f000000000000000000000000000000000000000000000000000000000000000073ffffffffffffffffffffffffffffffffffffffff16632cbc26bb826020015167ffffffffffffffff1660801b6040518263ffffffff1660e01b81526004016123509190615db1565b602060405180830381865afa15801561236d573d6000803e3d6000fd5b505050506040513d601f19601f8201168201806040525081019061239191906154ce565b156123c8576040517f53ad11d800000000000000000000000000000000000000000000000000000000815260040160405180910390fd5b6123d58160200151612eab565b60006123e482602001516108b5565b9050600081511480612408575080805190602001208260a001518051906020012014155b1561244e578160a001516040517f24eb47e500000000000000000000000000000000000000000000000000000000815260040161244591906141e5565b60405180910390fd5b61246082602001518360600151612fd7565b5050565b600060048301519050600063ffffffff168163ffffffff16146124be57806040517f68d2f8d60000000000000000000000000000000000000000000000000000000081526004016124b59190614573565b60405180910390fd5b600080600060088601519250600c860151915060148601519050846020015163ffffffff168363ffffffff1614612532578460200151836040517fe366a117000000000000000000000000000000000000000000000000000000008152600401612529929190615dcc565b60405180910390fd5b7f000000000000000000000000000000000000000000000000000000000000000063ffffffff168263ffffffff16146125c4577f0000000000000000000000000000000000000000000000000000000000000000826040517f77e480260000000000000000000000000000000000000000000000000000000081526004016125bb929190615dcc565b60405180910390fd5b846000015167ffffffffffffffff168167ffffffffffffffff1614612626578460000151816040517ff917ffea00000000000000000000000000000000000000000000000000000000815260040161261d929190615df5565b60405180910390fd5b505050505050565b6126af8363a9059cbb60e01b848460405160240161264d929190615e1e565b604051602081830303815290604052907bffffffffffffffffffffffffffffffffffffffffffffffffffffffff19166020820180517bffffffffffffffffffffffffffffffffffffffffffffffffffffffff8381831617835250505050613039565b505050565b7f000000000000000000000000000000000000000000000000000000000000000061270b576040517f35f4a7b300000000000000000000000000000000000000000000000000000000815260040160405180910390fd5b60005b825181101561279357600083828151811061272c5761272b614cfb565b5b6020026020010151905061274a81600261310090919063ffffffff16565b15612787577f800671136ab6cfee9fbe5ed1fb7ca417811aca3cf864800d127b927adedf75668160405161277e9190614653565b60405180910390a15b5080600101905061270e565b5060005b81518110156128575760008282815181106127b5576127b4614cfb565b5b60200260200101519050600073ffffffffffffffffffffffffffffffffffffffff168173ffffffffffffffffffffffffffffffffffffffff16036127f9575061284c565b61280d81600261313090919063ffffffff16565b1561284a577f2640d4d76caf8bf478aabfa982fa4e1c4eb71a37f93cd15e80dbc657911546d8816040516128419190614653565b60405180910390a15b505b806001019050612797565b505050565b600061286e836000018360001b613160565b905092915050565b61288381608001516109d2565b6128c85780608001516040517f961c9a4f0000000000000000000000000000000000000000000000000000000081526004016128bf9190614653565b60405180910390fd5b7f000000000000000000000000000000000000000000000000000000000000000073ffffffffffffffffffffffffffffffffffffffff16632cbc26bb826020015167ffffffffffffffff1660801b6040518263ffffffff1660e01b81526004016129329190615db1565b602060405180830381865afa15801561294f573d6000803e3d6000fd5b505050506040513d601f19601f8201168201806040525081019061297391906154ce565b156129aa576040517f53ad11d800000000000000000000000000000000000000000000000000000000815260040160405180910390fd5b6129b78160400151613183565b6129c48160200151613206565b6129d68160200151826060015161335e565b50565b606060006129e9836000016133c0565b905060608190508092505050919050565b612a02613e71565b612a6582606001516fffffffffffffffffffffffffffffffff1683600001516fffffffffffffffffffffffffffffffff16846020015163ffffffff1642612a499190615e76565b85608001516fffffffffffffffffffffffffffffffff1661341c565b82600001906fffffffffffffffffffffffffffffffff1690816fffffffffffffffffffffffffffffffff168152505042826020019063ffffffff16908163ffffffff1681525050819050919050565b60606000612ac4836000016133c0565b905060608190508092505050919050565b612ade83611043565b612b1f57826040517f1e670e4b000000000000000000000000000000000000000000000000000000008152600401612b169190615534565b60405180910390fd5b612b2a826000612bed565b612b6682600760008667ffffffffffffffff1667ffffffffffffffff16815260200190815260200160002060000161344890919063ffffffff16565b612b71816000612bed565b612bad81600760008667ffffffffffffffff1667ffffffffffffffff16815260200190815260200160002060020161344890919063ffffffff16565b7f0350d63aa5f270e01729d00d627eeb8f3429772b1818c016c66a588a864f912b838383604051612be093929190615eaa565b60405180910390a1505050565b816000015115612cc75781602001516fffffffffffffffffffffffffffffffff1682604001516fffffffffffffffffffffffffffffffff16101580612c485750600082604001516fffffffffffffffffffffffffffffffff16145b15612c8a57816040517f8020d124000000000000000000000000000000000000000000000000000000008152600401612c819190615ee1565b60405180910390fd5b8015612cc2576040517f433fc33d00000000000000000000000000000000000000000000000000000000815260040160405180910390fd5b612d47565b600082604001516fffffffffffffffffffffffffffffffff16141580612d045750600082602001516fffffffffffffffffffffffffffffffff1614155b15612d4657816040517fd68af9cc000000000000000000000000000000000000000000000000000000008152600401612d3d9190615ee1565b60405180910390fd5b5b5050565b6000612d5d836000018360001b6136e0565b905092915050565b6000612d77836000018360001b613750565b905092915050565b3373ffffffffffffffffffffffffffffffffffffffff168173ffffffffffffffffffffffffffffffffffffffff1603612ded576040517f08c379a0000000000000000000000000000000000000000000000000000000008152600401612de490615f48565b60405180910390fd5b80600160006101000a81548173ffffffffffffffffffffffffffffffffffffffff021916908373ffffffffffffffffffffffffffffffffffffffff1602179055508073ffffffffffffffffffffffffffffffffffffffff1660008054906101000a900473ffffffffffffffffffffffffffffffffffffffff1673ffffffffffffffffffffffffffffffffffffffff167fed8889f560326eb138920d842192f0eb3dd22b4f139c87a2c57538e05bae127860405160405180910390a350565b612eb481611043565b612ef557806040517fa9902c7e000000000000000000000000000000000000000000000000000000008152600401612eec9190615534565b60405180910390fd5b600460009054906101000a900473ffffffffffffffffffffffffffffffffffffffff1673ffffffffffffffffffffffffffffffffffffffff166383826b2b82336040518363ffffffff1660e01b8152600401612f52929190615f68565b602060405180830381865afa158015612f6f573d6000803e3d6000fd5b505050506040513d601f19601f82011682018060405250810190612f9391906154ce565b612fd457336040517f728fe07b000000000000000000000000000000000000000000000000000000008152600401612fcb9190614653565b60405180910390fd5b50565b613035817f0000000000000000000000000000000000000000000000000000000000000000600760008667ffffffffffffffff1667ffffffffffffffff1681526020019081526020016000206002016138649092919063ffffffff16565b5050565b600061309b826040518060400160405280602081526020017f5361666545524332303a206c6f772d6c6576656c2063616c6c206661696c65648152508573ffffffffffffffffffffffffffffffffffffffff16613c2e9092919063ffffffff16565b90506000815111156130fb57808060200190518101906130bb91906154ce565b6130fa576040517f08c379a00000000000000000000000000000000000000000000000000000000081526004016130f190616003565b60405180910390fd5b5b505050565b6000613128836000018373ffffffffffffffffffffffffffffffffffffffff1660001b613750565b905092915050565b6000613158836000018373ffffffffffffffffffffffffffffffffffffffff1660001b6136e0565b905092915050565b600080836001016000848152602001908152602001600020541415905092915050565b7f000000000000000000000000000000000000000000000000000000000000000080156131c157506131bf816002613c4690919063ffffffff16565b155b1561320357806040517fd0d259760000000000000000000000000000000000000000000000000000000081526004016131fa9190614653565b60405180910390fd5b50565b61320f81611043565b61325057806040517fa9902c7e0000000000000000000000000000000000000000000000000000000081526004016132479190615534565b60405180910390fd5b600460009054906101000a900473ffffffffffffffffffffffffffffffffffffffff1673ffffffffffffffffffffffffffffffffffffffff1663a8d87a3b826040518263ffffffff1660e01b81526004016132ab9190615534565b602060405180830381865afa1580156132c8573d6000803e3d6000fd5b505050506040513d601f19601f820116820180604052508101906132ec9190616038565b73ffffffffffffffffffffffffffffffffffffffff163373ffffffffffffffffffffffffffffffffffffffff161461335b57336040517f728fe07b0000000000000000000000000000000000000000000000000000000081526004016133529190614653565b60405180910390fd5b50565b6133bc817f0000000000000000000000000000000000000000000000000000000000000000600760008667ffffffffffffffff1667ffffffffffffffff1681526020019081526020016000206000016138649092919063ffffffff16565b5050565b60608160000180548060200260200160405190810160405280929190818152602001828054801561341057602002820191906000526020600020905b8154815260200190600101908083116133fc575b50505050509050919050565b600061343e85838561342e9190616065565b8661343991906160a7565b613c76565b9050949350505050565b60008260000160109054906101000a900463ffffffff1663ffffffff16426134709190615e76565b90506000811461357a5761351c8360010160009054906101000a90046fffffffffffffffffffffffffffffffff166fffffffffffffffffffffffffffffffff168460000160009054906101000a90046fffffffffffffffffffffffffffffffff166fffffffffffffffffffffffffffffffff16838660010160109054906101000a90046fffffffffffffffffffffffffffffffff166fffffffffffffffffffffffffffffffff1661341c565b8360000160006101000a8154816fffffffffffffffffffffffffffffffff02191690836fffffffffffffffffffffffffffffffff160217905550428360000160106101000a81548163ffffffff021916908363ffffffff1602179055505b6135cc82602001516fffffffffffffffffffffffffffffffff168460000160009054906101000a90046fffffffffffffffffffffffffffffffff166fffffffffffffffffffffffffffffffff16613c76565b8360000160006101000a8154816fffffffffffffffffffffffffffffffff02191690836fffffffffffffffffffffffffffffffff16021790555081600001518360000160146101000a81548160ff02191690831515021790555081602001518360010160006101000a8154816fffffffffffffffffffffffffffffffff02191690836fffffffffffffffffffffffffffffffff16021790555081604001518360010160106101000a8154816fffffffffffffffffffffffffffffffff02191690836fffffffffffffffffffffffffffffffff1602179055507f9ea3374b67bf275e6bb9c8ae68f9cae023e1c528b4b27e092f0bb209d3531c19826040516136d39190615ee1565b60405180910390a1505050565b60006136ec8383613160565b61374557826000018290806001815401808255809150506001900390600052602060002001600090919091909150558260000180549050836001016000848152602001908152602001600020819055506001905061374a565b600090505b92915050565b600080836001016000848152602001908152602001600020549050600081146138585760006001826137829190615e76565b905060006001866000018054905061379a9190615e76565b90508181146138095760008660000182815481106137bb576137ba614cfb565b5b90600052602060002001549050808760000184815481106137df576137de614cfb565b5b90600052602060002001819055508387600101600083815260200190815260200160002081905550505b8560000180548061381d5761381c6160db565b5b60019003818190600052602060002001600090559055856001016000868152602001908152602001600020600090556001935050505061385e565b60009150505b92915050565b8260000160149054906101000a900460ff1615806138825750600082145b613c295760008360000160009054906101000a90046fffffffffffffffffffffffffffffffff166fffffffffffffffffffffffffffffffff16905060008460010160009054906101000a90046fffffffffffffffffffffffffffffffff166fffffffffffffffffffffffffffffffff16905060008560000160109054906101000a900463ffffffff1663ffffffff164261391c9190615e76565b9050600081146139c45781831115613960576040517f9725942a00000000000000000000000000000000000000000000000000000000815260040160405180910390fd5b61399e8284838960010160109054906101000a90046fffffffffffffffffffffffffffffffff166fffffffffffffffffffffffffffffffff1661341c565b9250428660000160106101000a81548163ffffffff021916908363ffffffff1602179055505b84821015613a8057600073ffffffffffffffffffffffffffffffffffffffff168473ffffffffffffffffffffffffffffffffffffffff1603613a3f5781856040517ff94ebcd1000000000000000000000000000000000000000000000000000000008152600401613a3692919061610a565b60405180910390fd5b8185856040517f1a76572a000000000000000000000000000000000000000000000000000000008152600401613a7793929190616133565b60405180910390fd5b84831015613ba55760008660010160109054906101000a90046fffffffffffffffffffffffffffffffff166fffffffffffffffffffffffffffffffff169050600081600183613acf9190615e76565b8689613adb9190615e76565b613ae591906160a7565b613aef9190616199565b9050600073ffffffffffffffffffffffffffffffffffffffff168673ffffffffffffffffffffffffffffffffffffffff1603613b645780856040517f15279c08000000000000000000000000000000000000000000000000000000008152600401613b5b92919061610a565b60405180910390fd5b8085876040517fd0c8d23a000000000000000000000000000000000000000000000000000000008152600401613b9c93929190616133565b60405180910390fd5b8483613bb19190615e76565b9250828660000160006101000a8154816fffffffffffffffffffffffffffffffff02191690836fffffffffffffffffffffffffffffffff1602179055507f1871cdf8010e63f2eb8384381a68dfa7416dc571a5517e66e88b2d2d0c0a690a85604051613c1d919061550a565b60405180910390a15050505b505050565b6060613c3d8484600085613c8f565b90509392505050565b6000613c6e836000018373ffffffffffffffffffffffffffffffffffffffff1660001b613160565b905092915050565b6000818310613c855781613c87565b825b905092915050565b606082471015613cd4576040517f08c379a0000000000000000000000000000000000000000000000000000000008152600401613ccb9061623c565b60405180910390fd5b6000808673ffffffffffffffffffffffffffffffffffffffff168587604051613cfd9190616298565b60006040518083038185875af1925050503d8060008114613d3a576040519150601f19603f3d011682016040523d82523d6000602084013e613d3f565b606091505b5091509150613d5087838387613d5c565b92505050949350505050565b60608315613dbe576000835103613db657613d7685613dd1565b613db5576040517f08c379a0000000000000000000000000000000000000000000000000000000008152600401613dac906162fb565b60405180910390fd5b5b829050613dc9565b613dc88383613df4565b5b949350505050565b6000808273ffffffffffffffffffffffffffffffffffffffff163b119050919050565b600082511115613e075781518083602001fd5b806040517f08c379a0000000000000000000000000000000000000000000000000000000008152600401613e3b919061425c565b60405180910390fd5b6040518060200160405280600081525090565b604051806040016040528060608152602001606081525090565b6040518060a0016040528060006fffffffffffffffffffffffffffffffff168152602001600063ffffffff16815260200160001515815260200160006fffffffffffffffffffffffffffffffff16815260200160006fffffffffffffffffffffffffffffffff1681525090565b508054613eea90615063565b6000825580601f10613efc5750613f1b565b601f016020900490600052602060002090810190613f1a9190613f4a565b5b50565b604051806060016040528060008019168152602001600063ffffffff1681526020016000151581525090565b5b80821115613f63576000816000905550600101613f4b565b5090565b6000604051905090565b600080fd5b600080fd5b600080fd5b600080fd5b600080fd5b60008083601f840112613fa057613f9f613f7b565b5b8235905067ffffffffffffffff811115613fbd57613fbc613f80565b5b602083019150836080820283011115613fd957613fd8613f85565b5b9250929050565b60008060208385031215613ff757613ff6613f71565b5b600083013567ffffffffffffffff81111561401557614014613f76565b5b61402185828601613f8a565b92509250509250929050565b60007fffffffff0000000000000000000000000000000000000000000000000000000082169050919050565b6140628161402d565b811461406d57600080fd5b50565b60008135905061407f81614059565b92915050565b60006020828403121561409b5761409a613f71565b5b60006140a984828501614070565b91505092915050565b60008115159050919050565b6140c7816140b2565b82525050565b60006020820190506140e260008301846140be565b92915050565b600067ffffffffffffffff82169050919050565b614105816140e8565b811461411057600080fd5b50565b600081359050614122816140fc565b92915050565b60006020828403121561413e5761413d613f71565b5b600061414c84828501614113565b91505092915050565b600081519050919050565b600082825260208201905092915050565b60005b8381101561418f578082015181840152602081019050614174565b60008484015250505050565b6000601f19601f8301169050919050565b60006141b782614155565b6141c18185614160565b93506141d1818560208601614171565b6141da8161419b565b840191505092915050565b600060208201905081810360008301526141ff81846141ac565b905092915050565b600081519050919050565b600082825260208201905092915050565b600061422e82614207565b6142388185614212565b9350614248818560208601614171565b6142518161419b565b840191505092915050565b600060208201905081810360008301526142768184614223565b905092915050565b600073ffffffffffffffffffffffffffffffffffffffff82169050919050565b6000819050919050565b60006142c36142be6142b98461427e565b61429e565b61427e565b9050919050565b60006142d5826142a8565b9050919050565b60006142e7826142ca565b9050919050565b6142f7816142dc565b82525050565b600060208201905061431260008301846142ee565b92915050565b60006143238261427e565b9050919050565b61433381614318565b811461433e57600080fd5b50565b6000813590506143508161432a565b92915050565b60006020828403121561436c5761436b613f71565b5b600061437a84828501614341565b91505092915050565b600080fd5b6000610100828403121561439f5761439e614383565b5b81905092915050565b6000602082840312156143be576143bd613f71565b5b600082013567ffffffffffffffff8111156143dc576143db613f76565b5b6143e884828501614388565b91505092915050565b6000819050919050565b614404816143f1565b82525050565b60208201600082015161442060008501826143fb565b50505050565b600060208201905061443b600083018461440a565b92915050565b60008083601f84011261445757614456613f7b565b5b8235905067ffffffffffffffff81111561447457614473613f80565b5b6020830191508360208202830111156144905761448f613f85565b5b9250929050565b600080600080604085870312156144b1576144b0613f71565b5b600085013567ffffffffffffffff8111156144cf576144ce613f76565b5b6144db87828801614441565b9450945050602085013567ffffffffffffffff8111156144fe576144fd613f76565b5b61450a87828801614441565b925092505092959194509250565b6000614523826142ca565b9050919050565b61453381614518565b82525050565b600060208201905061454e600083018461452a565b92915050565b600063ffffffff82169050919050565b61456d81614554565b82525050565b60006020820190506145886000830184614564565b92915050565b60008083601f8401126145a4576145a3613f7b565b5b8235905067ffffffffffffffff8111156145c1576145c0613f80565b5b6020830191508360018202830111156145dd576145dc613f85565b5b9250929050565b6000806000604084860312156145fd576145fc613f71565b5b600061460b86828701614113565b935050602084013567ffffffffffffffff81111561462c5761462b613f76565b5b6146388682870161458e565b92509250509250925092565b61464d81614318565b82525050565b60006020820190506146686000830184614644565b92915050565b600060a0828403121561468457614683614383565b5b81905092915050565b6000602082840312156146a3576146a2613f71565b5b600082013567ffffffffffffffff8111156146c1576146c0613f76565b5b6146cd8482850161466e565b91505092915050565b600082825260208201905092915050565b60006146f282614155565b6146fc81856146d6565b935061470c818560208601614171565b6147158161419b565b840191505092915050565b6000604083016000830151848203600086015261473d82826146e7565b9150506020830151848203602086015261475782826146e7565b9150508091505092915050565b6000602082019050818103600083015261477e8184614720565b905092915050565b600081519050919050565b600082825260208201905092915050565b6000819050602082019050919050565b6147bb81614318565b82525050565b60006147cd83836147b2565b60208301905092915050565b6000602082019050919050565b60006147f182614786565b6147fb8185614791565b9350614806836147a2565b8060005b8381101561483757815161481e88826147c1565b9750614829836147d9565b92505060018101905061480a565b5085935050505092915050565b6000602082019050818103600083015261485e81846147e6565b905092915050565b60006fffffffffffffffffffffffffffffffff82169050919050565b61488b81614866565b82525050565b61489a81614554565b82525050565b6148a9816140b2565b82525050565b60a0820160008201516148c56000850182614882565b5060208201516148d86020850182614891565b5060408201516148eb60408501826148a0565b5060608201516148fe6060850182614882565b5060808201516149116080850182614882565b50505050565b600060a08201905061492c60008301846148af565b92915050565b600081519050919050565b600082825260208201905092915050565b6000819050602082019050919050565b614967816140e8565b82525050565b6000614979838361495e565b60208301905092915050565b6000602082019050919050565b600061499d82614932565b6149a7818561493d565b93506149b28361494e565b8060005b838110156149e35781516149ca888261496d565b97506149d583614985565b9250506001810190506149b6565b5085935050505092915050565b60006020820190508181036000830152614a0a8184614992565b905092915050565b600080fd5b7f4e487b7100000000000000000000000000000000000000000000000000000000600052604160045260246000fd5b614a4f8261419b565b810181811067ffffffffffffffff82111715614a6e57614a6d614a17565b5b80604052505050565b6000614a81613f67565b9050614a8d8282614a46565b919050565b600080fd5b614aa0816140b2565b8114614aab57600080fd5b50565b600081359050614abd81614a97565b92915050565b614acc81614866565b8114614ad757600080fd5b50565b600081359050614ae981614ac3565b92915050565b600060608284031215614b0557614b04614a12565b5b614b0f6060614a77565b90506000614b1f84828501614aae565b6000830152506020614b3384828501614ada565b6020830152506040614b4784828501614ada565b60408301525092915050565b600080600060e08486031215614b6c57614b6b613f71565b5b6000614b7a86828701614113565b9350506020614b8b86828701614aef565b9250506080614b9c86828701614aef565b9150509250925092565b60008083601f840112614bbc57614bbb613f7b565b5b8235905067ffffffffffffffff811115614bd957614bd8613f80565b5b602083019150836020820283011115614bf557614bf4613f85565b5b9250929050565b60008060208385031215614c1357614c12613f71565b5b600083013567ffffffffffffffff811115614c3157614c30613f76565b5b614c3d85828601614ba6565b92509250509250929050565b6000819050919050565b614c5c81614c49565b82525050565b606082016000820151614c786000850182614c53565b506020820151614c8b6020850182614891565b506040820151614c9e60408501826148a0565b50505050565b6000606082019050614cb96000830184614c62565b92915050565b6000614cca826142ca565b9050919050565b614cda81614cbf565b82525050565b6000602082019050614cf56000830184614cd1565b92915050565b7f4e487b7100000000000000000000000000000000000000000000000000000000600052603260045260246000fd5b614d3381614c49565b8114614d3e57600080fd5b50565b600081359050614d5081614d2a565b92915050565b614d5f81614554565b8114614d6a57600080fd5b50565b600081359050614d7c81614d56565b92915050565b600060808284031215614d9857614d97614a12565b5b614da26080614a77565b90506000614db284828501614d41565b6000830152506020614dc684828501614d6d565b6020830152506040614dda84828501614113565b6040830152506060614dee84828501614aae565b60608301525092915050565b600060808284031215614e1057614e0f613f71565b5b6000614e1e84828501614d82565b91505092915050565b608082016000820151614e3d6000850182614c53565b506020820151614e506020850182614891565b506040820151614e63604085018261495e565b506060820151614e7660608501826148a0565b50505050565b6000608082019050614e916000830184614e27565b92915050565b600082825260208201905092915050565b6000819050919050565b6000614ec16020840184614d41565b905092915050565b6000614ed86020840184614d6d565b905092915050565b6000614eef6020840184614113565b905092915050565b6000614f066020840184614aae565b905092915050565b60808201614f1f6000830183614eb2565b614f2c6000850182614c53565b50614f3a6020830183614ec9565b614f476020850182614891565b50614f556040830183614ee0565b614f62604085018261495e565b50614f706060830183614ef7565b614f7d60608501826148a0565b50505050565b6000614f8f8383614f0e565b60808301905092915050565b600082905092915050565b6000608082019050919050565b6000614fbf8385614e97565b9350614fca82614ea8565b8060005b8581101561500357614fe08284614f9b565b614fea8882614f83565b9750614ff583614fa6565b925050600181019050614fce565b5085925050509392505050565b6000602082019050818103600083015261502b818486614fb3565b90509392505050565b7f4e487b7100000000000000000000000000000000000000000000000000000000600052602260045260246000fd5b6000600282049050600182168061507b57607f821691505b60208210810361508e5761508d615034565b5b50919050565b600080fd5b600067ffffffffffffffff8211156150b4576150b3614a17565b5b6150bd8261419b565b9050602081019050919050565b82818337600083830152505050565b60006150ec6150e784615099565b614a77565b90508281526020810184848401111561510857615107615094565b5b6151138482856150ca565b509392505050565b600082601f8301126151305761512f613f7b565b5b81356151408482602086016150d9565b91505092915050565b615152816143f1565b811461515d57600080fd5b50565b60008135905061516f81615149565b92915050565b6000610100828403121561518c5761518b614a12565b5b615197610100614a77565b9050600082013567ffffffffffffffff8111156151b7576151b6614a92565b5b6151c38482850161511b565b60008301525060206151d784828501614113565b60208301525060406151eb84828501614341565b60408301525060606151ff84828501615160565b606083015250608061521384828501614341565b60808301525060a082013567ffffffffffffffff81111561523757615236614a92565b5b6152438482850161511b565b60a08301525060c082013567ffffffffffffffff81111561526757615266614a92565b5b6152738482850161511b565b60c08301525060e082013567ffffffffffffffff81111561529757615296614a92565b5b6152a38482850161511b565b60e08301525092915050565b60006152bb3683615175565b9050919050565b600080fd5b600080fd5b600080fd5b600080833560016020038436030381126152ee576152ed6152c2565b5b80840192508235915067ffffffffffffffff8211156153105761530f6152c7565b5b60208301925060018202360383131561532c5761532b6152cc565b5b509250929050565b60006040828403121561534a57615349614a12565b5b6153546040614a77565b9050600061536484828501614113565b600083015250602061537884828501614d6d565b60208301525092915050565b60006040828403121561539a57615399613f71565b5b60006153a884828501615334565b91505092915050565b6000604082840312156153c7576153c6614a12565b5b6153d16040614a77565b9050600082013567ffffffffffffffff8111156153f1576153f0614a92565b5b6153fd8482850161511b565b600083015250602082013567ffffffffffffffff81111561542157615420614a92565b5b61542d8482850161511b565b60208301525092915050565b60006020828403121561544f5761544e613f71565b5b600082013567ffffffffffffffff81111561546d5761546c613f76565b5b615479848285016153b1565b91505092915050565b6000604082019050818103600083015261549c81856141ac565b905081810360208301526154b081846141ac565b90509392505050565b6000815190506154c881614a97565b92915050565b6000602082840312156154e4576154e3613f71565b5b60006154f2848285016154b9565b91505092915050565b615504816143f1565b82525050565b600060208201905061551f60008301846154fb565b92915050565b61552e816140e8565b82525050565b60006020820190506155496000830184615525565b92915050565b600082905092915050565b60008190508160005260206000209050919050565b60006020601f8301049050919050565b600082821b905092915050565b6000600883026155bc7fffffffffffffffffffffffffffffffffffffffffffffffffffffffffffffffff8261557f565b6155c6868361557f565b95508019841693508086168417925050509392505050565b60006155f96155f46155ef846143f1565b61429e565b6143f1565b9050919050565b6000819050919050565b615613836155de565b61562761561f82615600565b84845461558c565b825550505050565b600090565b61563c61562f565b61564781848461560a565b505050565b5b8181101561566b57615660600082615634565b60018101905061564d565b5050565b601f8211156156b0576156818161555a565b61568a8461556f565b81016020851015615699578190505b6156ad6156a58561556f565b83018261564c565b50505b505050565b600082821c905092915050565b60006156d3600019846008026156b5565b1980831691505092915050565b60006156ec83836156c2565b9150826002028217905092915050565b615706838361554f565b67ffffffffffffffff81111561571f5761571e614a17565b5b6157298254615063565b61573482828561566f565b6000601f8311600181146157635760008415615751578287013590505b61575b85826156e0565b8655506157c3565b601f1984166157718661555a565b60005b8281101561579957848901358255600182019150602085019450602081019050615774565b868310156157b657848901356157b2601f8916826156c2565b8355505b6001600288020188555050505b50505050505050565b60006157d88385614160565b93506157e58385846150ca565b6157ee8361419b565b840190509392505050565b6000604082019050818103600083015261581381866141ac565b905081810360208301526158288184866157cc565b9050949350505050565b7f4d7573742062652070726f706f736564206f776e657200000000000000000000600082015250565b6000615868601683614212565b915061587382615832565b602082019050919050565b600060208201905081810360008301526158978161585b565b9050919050565b600060a082840312156158b4576158b3614a12565b5b6158be60a0614a77565b9050600082013567ffffffffffffffff8111156158de576158dd614a92565b5b6158ea8482850161511b565b60008301525060206158fe84828501614113565b602083015250604061591284828501614341565b604083015250606061592684828501615160565b606083015250608061593a84828501614341565b60808301525092915050565b6000615952368361589e565b9050919050565b600060208201905081810360008301526159748184866157cc565b90509392505050565b61598681614c49565b82525050565b600060a0820190506159a160008301886154fb565b6159ae6020830187614564565b6159bb604083018661597d565b6159c86060830185614644565b6159d5608083018461597d565b9695505050505050565b6000815190506159ee816140fc565b92915050565b600060208284031215615a0a57615a09613f71565b5b6000615a18848285016159df565b91505092915050565b604082016000820151615a37600085018261495e565b506020820151615a4a6020850182614891565b50505050565b6000604082019050615a656000830184615a21565b92915050565b6000604082019050615a806000830185614644565b615a8d6020830184614644565b9392505050565b60008235600161014003833603038112615ab157615ab06152c2565b5b80830191505092915050565b60006101408284031215615ad457615ad3614a12565b5b615ade60c0614a77565b90506000615aee84828501614113565b6000830152506020615b0284828501614aae565b602083015250604082013567ffffffffffffffff811115615b2657615b25614a92565b5b615b328482850161511b565b604083015250606082013567ffffffffffffffff811115615b5657615b55614a92565b5b615b628482850161511b565b6060830152506080615b7684828501614aef565b60808301525060e0615b8a84828501614aef565b60a08301525092915050565b6000615ba23683615abd565b9050919050565b615bb282614155565b67ffffffffffffffff811115615bcb57615bca614a17565b5b615bd58254615063565b615be082828561566f565b600060209050601f831160018114615c135760008415615c01578287015190505b615c0b85826156e0565b865550615c73565b601f198416615c218661555a565b60005b82811015615c4957848901518255600182019150602085019450602081019050615c24565b86831015615c665784890151615c62601f8916826156c2565b8355505b6001600288020188555050505b505050505050565b606082016000820151615c9160008501826148a0565b506020820151615ca46020850182614882565b506040820151615cb76040850182614882565b50505050565b600061010082019050615cd36000830187615525565b8181036020830152615ce581866141ac565b9050615cf46040830185615c7b565b615d0160a0830184615c7b565b95945050505050565b7f4f6e6c792063616c6c61626c65206279206f776e657200000000000000000000600082015250565b6000615d40601683614212565b9150615d4b82615d0a565b602082019050919050565b60006020820190508181036000830152615d6f81615d33565b9050919050565b60007fffffffffffffffffffffffffffffffff0000000000000000000000000000000082169050919050565b615dab81615d76565b82525050565b6000602082019050615dc66000830184615da2565b92915050565b6000604082019050615de16000830185614564565b615dee6020830184614564565b9392505050565b6000604082019050615e0a6000830185615525565b615e176020830184615525565b9392505050565b6000604082019050615e336000830185614644565b615e4060208301846154fb565b9392505050565b7f4e487b7100000000000000000000000000000000000000000000000000000000600052601160045260246000fd5b6000615e81826143f1565b9150615e8c836143f1565b9250828203905081811115615ea457615ea3615e47565b5b92915050565b600060e082019050615ebf6000830186615525565b615ecc6020830185615c7b565b615ed96080830184615c7b565b949350505050565b6000606082019050615ef66000830184615c7b565b92915050565b7f43616e6e6f74207472616e7366657220746f2073656c66000000000000000000600082015250565b6000615f32601783614212565b9150615f3d82615efc565b602082019050919050565b60006020820190508181036000830152615f6181615f25565b9050919050565b6000604082019050615f7d6000830185615525565b615f8a6020830184614644565b9392505050565b7f5361666545524332303a204552433230206f7065726174696f6e20646964206e60008201527f6f74207375636365656400000000000000000000000000000000000000000000602082015250565b6000615fed602a83614212565b9150615ff882615f91565b604082019050919050565b6000602082019050818103600083015261601c81615fe0565b9050919050565b6000815190506160328161432a565b92915050565b60006020828403121561604e5761604d613f71565b5b600061605c84828501616023565b91505092915050565b6000616070826143f1565b915061607b836143f1565b9250828202616089816143f1565b915082820484148315176160a05761609f615e47565b5b5092915050565b60006160b2826143f1565b91506160bd836143f1565b92508282019050808211156160d5576160d4615e47565b5b92915050565b7f4e487b7100000000000000000000000000000000000000000000000000000000600052603160045260246000fd5b600060408201905061611f60008301856154fb565b61612c60208301846154fb565b9392505050565b600060608201905061614860008301866154fb565b61615560208301856154fb565b6161626040830184614644565b949350505050565b7f4e487b7100000000000000000000000000000000000000000000000000000000600052601260045260246000fd5b60006161a4826143f1565b91506161af836143f1565b9250826161bf576161be61616a565b5b828204905092915050565b7f416464726573733a20696e73756666696369656e742062616c616e636520666f60008201527f722063616c6c0000000000000000000000000000000000000000000000000000602082015250565b6000616226602683614212565b9150616231826161ca565b604082019050919050565b6000602082019050818103600083015261625581616219565b9050919050565b600081905092915050565b600061627282614155565b61627c818561625c565b935061628c818560208601614171565b80840191505092915050565b60006162a48284616267565b915081905092915050565b7f416464726573733a2063616c6c20746f206e6f6e2d636f6e7472616374000000600082015250565b60006162e5601d83614212565b91506162f0826162af565b602082019050919050565b60006020820190508181036000830152616314816162d8565b905091905056fea164736f6c6343000818000a","linkReferences":{}},"methodIdentifiers":{"SUPPORTED_USDC_VERSION()":"9fdf13ff","acceptOwnership()":"79ba5097","applyAllowListUpdates(address[],address[])":"54c8a4f3","applyChainUpdates((uint64,bool,bytes,bytes,(bool,uint128,uint128),(bool,uint128,uint128))[])":"db6327dc","getAllowList()":"a7cd63b7","getAllowListEnabled()":"e0351e13","getCurrentInboundRateLimiterState(uint64)":"af58d59f","getCurrentOutboundRateLimiterState(uint64)":"c75eea9c","getDomain(uint64)":"dfadfa35","getRemotePool(uint64)":"0a2fd493","getRemoteToken(uint64)":"b7946580","getRmnProxy()":"dc0bd971","getRouter()":"b0f479a1","getSupportedChains()":"c4bffe2b","getToken()":"21df0da7","i_localDomainIdentifier()":"6b716b0d","i_messageTransmitter()":"fbf84dd7","i_tokenMessenger()":"6155cda0","isSupportedChain(uint64)":"8926f54f","isSupportedToken(address)":"240028e8","lockOrBurn((bytes,uint64,address,uint256,address))":"9a4575b9","owner()":"8da5cb5b","releaseOrMint((bytes,uint64,address,uint256,address,bytes,bytes,bytes))":"39077537","setChainRateLimiterConfig(uint64,(bool,uint128,uint128),(bool,uint128,uint128))":"cf7401f3","setDomains((bytes32,uint32,uint64,bool)[])":"0041d3c1","setRemotePool(uint64,bytes)":"78a010b2","setRouter(address)":"c0d78655","supportsInterface(bytes4)":"01ffc9a7","transferOwnership(address)":"f2fde38b","typeAndVersion()":"181f5a77"},"id":51}