{"abi":[{"type":"constructor","inputs":[{"name":"tokenAdminRegistry","type":"address","internalType":"address"}],"stateMutability":"nonpayable"},{"type":"function","name":"registerAdminViaGetCCIPAdmin","inputs":[{"name":"token","type":"address","internalType":"address"}],"outputs":[],"stateMutability":"nonpayable"},{"type":"function","name":"registerAdminViaOwner","inputs":[{"name":"token","type":"address","internalType":"address"}],"outputs":[],"stateMutability":"nonpayable"},{"type":"function","name":"typeAndVersion","inputs":[],"outputs":[{"name":"","type":"string","internalType":"string"}],"stateMutability":"view"},{"type":"event","name":"AdministratorRegistered","inputs":[{"name":"token","type":"address","indexed":true,"internalType":"address"},{"name":"administrator","type":"address","indexed":true,"internalType":"address"}],"anonymous":false},{"type":"error","name":"CanOnlySelfRegister","inputs":[{"name":"admin","type":"address","internalType":"address"},{"name":"token","type":"address","internalType":"address"}]}],"bytecode":{"object":"0x60a060405234801561001057600080fd5b5060405161060e38038061060e833981810160405281019061003291906100cf565b8073ffffffffffffffffffffffffffffffffffffffff1660808173ffffffffffffffffffffffffffffffffffffffff1681525050506100fc565b600080fd5b600073ffffffffffffffffffffffffffffffffffffffff82169050919050565b600061009c82610071565b9050919050565b6100ac81610091565b81146100b757600080fd5b50565b6000815190506100c9816100a3565b92915050565b6000602082840312156100e5576100e461006c565b5b60006100f3848285016100ba565b91505092915050565b6080516104f7610117600039600061022201526104f76000f3fe608060405234801561001057600080fd5b50600436106100415760003560e01c8063181f5a771461004657806396ea2f7a14610064578063ff12c35414610080575b600080fd5b61004e61009c565b60405161005b919061039b565b60405180910390f35b61007e60048036038101906100799190610420565b6100b8565b005b61009a60048036038101906100959190610420565b610133565b005b6040518060600160405280602381526020016104c86023913981565b610130818273ffffffffffffffffffffffffffffffffffffffff16638da5cb5b6040518163ffffffff1660e01b8152600401602060405180830381865afa158015610107573d6000803e3d6000fd5b505050506040513d601f19601f8201168201806040525081019061012b9190610462565b6101ae565b50565b6101ab818273ffffffffffffffffffffffffffffffffffffffff16638fd6a6ac6040518163ffffffff1660e01b8152600401602060405180830381865afa158015610182573d6000803e3d6000fd5b505050506040513d601f19601f820116820180604052508101906101a69190610462565b6101ae565b50565b3373ffffffffffffffffffffffffffffffffffffffff168173ffffffffffffffffffffffffffffffffffffffff16146102205780826040517fc454d18200000000000000000000000000000000000000000000000000000000815260040161021792919061049e565b60405180910390fd5b7f000000000000000000000000000000000000000000000000000000000000000073ffffffffffffffffffffffffffffffffffffffff1663e677ae3783836040518363ffffffff1660e01b815260040161027b92919061049e565b600060405180830381600087803b15801561029557600080fd5b505af11580156102a9573d6000803e3d6000fd5b505050508073ffffffffffffffffffffffffffffffffffffffff168273ffffffffffffffffffffffffffffffffffffffff167f09590fb70af4b833346363965e043a9339e8c7d378b8a2b903c75c277faec4f960405160405180910390a35050565b600081519050919050565b600082825260208201905092915050565b60005b8381101561034557808201518184015260208101905061032a565b60008484015250505050565b6000601f19601f8301169050919050565b600061036d8261030b565b6103778185610316565b9350610387818560208601610327565b61039081610351565b840191505092915050565b600060208201905081810360008301526103b58184610362565b905092915050565b600080fd5b600073ffffffffffffffffffffffffffffffffffffffff82169050919050565b60006103ed826103c2565b9050919050565b6103fd816103e2565b811461040857600080fd5b50565b60008135905061041a816103f4565b92915050565b600060208284031215610436576104356103bd565b5b60006104448482850161040b565b91505092915050565b60008151905061045c816103f4565b92915050565b600060208284031215610478576104776103bd565b5b60006104868482850161044d565b91505092915050565b610498816103e2565b82525050565b60006040820190506104b3600083018561048f565b6104c0602083018461048f565b939250505056fe52656769737472794d6f64756c654f776e6572437573746f6d20312e352e302d646576a164736f6c6343000818000a","linkReferences":{}},"methodIdentifiers":{"registerAdminViaGetCCIPAdmin(address)":"ff12c354","registerAdminViaOwner(address)":"96ea2f7a","typeAndVersion()":"181f5a77"},"id":134}