{"abi":[{"type":"constructor","inputs":[{"name":"staticConfig","type":"tuple","internalType":"struct CommitStore.StaticConfig","components":[{"name":"chainSelector","type":"uint64","internalType":"uint64"},{"name":"sourceChainSelector","type":"uint64","internalType":"uint64"},{"name":"onRamp","type":"address","internalType":"address"},{"name":"rmnProxy","type":"address","internalType":"address"}]}],"stateMutability":"nonpayable"},{"type":"function","name":"acceptOwnership","inputs":[],"outputs":[],"stateMutability":"nonpayable"},{"type":"function","name":"getDynamicConfig","inputs":[],"outputs":[{"name":"","type":"tuple","internalType":"struct CommitStore.DynamicConfig","components":[{"name":"priceRegistry","type":"address","internalType":"address"}]}],"stateMutability":"view"},{"type":"function","name":"getExpectedNextSequenceNumber","inputs":[],"outputs":[{"name":"","type":"uint64","internalType":"uint64"}],"stateMutability":"view"},{"type":"function","name":"getLatestPriceEpochAndRound","inputs":[],"outputs":[{"name":"","type":"uint64","internalType":"uint64"}],"stateMutability":"view"},{"type":"function","name":"getMerkleRoot","inputs":[{"name":"root","type":"bytes32","internalType":"bytes32"}],"outputs":[{"name":"","type":"uint256","internalType":"uint256"}],"stateMutability":"view"},{"type":"function","name":"getStaticConfig","inputs":[],"outputs":[{"name":"","type":"tuple","internalType":"struct CommitStore.StaticConfig","components":[{"name":"chainSelector","type":"uint64","internalType":"uint64"},{"name":"sourceChainSelector","type":"uint64","internalType":"uint64"},{"name":"onRamp","type":"address","internalType":"address"},{"name":"rmnProxy","type":"address","internalType":"address"}]}],"stateMutability":"view"},{"type":"function","name":"getTransmitters","inputs":[],"outputs":[{"name":"","type":"address[]","internalType":"address[]"}],"stateMutability":"view"},{"type":"function","name":"isBlessed","inputs":[{"name":"root","type":"bytes32","internalType":"bytes32"}],"outputs":[{"name":"","type":"bool","internalType":"bool"}],"stateMutability":"view"},{"type":"function","name":"isUnpausedAndNotCursed","inputs":[],"outputs":[{"name":"","type":"bool","internalType":"bool"}],"stateMutability":"view"},{"type":"function","name":"latestConfigDetails","inputs":[],"outputs":[{"name":"configCount","type":"uint32","internalType":"uint32"},{"name":"blockNumber","type":"uint32","internalType":"uint32"},{"name":"configDigest","type":"bytes32","internalType":"bytes32"}],"stateMutability":"view"},{"type":"function","name":"latestConfigDigestAndEpoch","inputs":[],"outputs":[{"name":"scanLogs","type":"bool","internalType":"bool"},{"name":"configDigest","type":"bytes32","internalType":"bytes32"},{"name":"epoch","type":"uint32","internalType":"uint32"}],"stateMutability":"view"},{"type":"function","name":"owner","inputs":[],"outputs":[{"name":"","type":"address","internalType":"address"}],"stateMutability":"view"},{"type":"function","name":"pause","inputs":[],"outputs":[],"stateMutability":"nonpayable"},{"type":"function","name":"paused","inputs":[],"outputs":[{"name":"","type":"bool","internalType":"bool"}],"stateMutability":"view"},{"type":"function","name":"resetUnblessedRoots","inputs":[{"name":"rootToReset","type":"bytes32[]","internalType":"bytes32[]"}],"outputs":[],"stateMutability":"nonpayable"},{"type":"function","name":"setLatestPriceEpochAndRound","inputs":[{"name":"latestPriceEpochAndRound","type":"uint40","internalType":"uint40"}],"outputs":[],"stateMutability":"nonpayable"},{"type":"function","name":"setMinSeqNr","inputs":[{"name":"minSeqNr","type":"uint64","internalType":"uint64"}],"outputs":[],"stateMutability":"nonpayable"},{"type":"function","name":"setOCR2Config","inputs":[{"name":"signers","type":"address[]","internalType":"address[]"},{"name":"transmitters","type":"address[]","internalType":"address[]"},{"name":"f","type":"uint8","internalType":"uint8"},{"name":"onchainConfig","type":"bytes","internalType":"bytes"},{"name":"offchainConfigVersion","type":"uint64","internalType":"uint64"},{"name":"offchainConfig","type":"bytes","internalType":"bytes"}],"outputs":[],"stateMutability":"nonpayable"},{"type":"function","name":"transferOwnership","inputs":[{"name":"to","type":"address","internalType":"address"}],"outputs":[],"stateMutability":"nonpayable"},{"type":"function","name":"transmit","inputs":[{"name":"reportContext","type":"bytes32[3]","internalType":"bytes32[3]"},{"name":"report","type":"bytes","internalType":"bytes"},{"name":"rs","type":"bytes32[]","internalType":"bytes32[]"},{"name":"ss","type":"bytes32[]","internalType":"bytes32[]"},{"name":"rawVs","type":"bytes32","internalType":"bytes32"}],"outputs":[],"stateMutability":"nonpayable"},{"type":"function","name":"typeAndVersion","inputs":[],"outputs":[{"name":"","type":"string","internalType":"string"}],"stateMutability":"view"},{"type":"function","name":"unpause","inputs":[],"outputs":[],"stateMutability":"nonpayable"},{"type":"function","name":"verify","inputs":[{"name":"hashedLeaves","type":"bytes32[]","internalType":"bytes32[]"},{"name":"proofs","type":"bytes32[]","internalType":"bytes32[]"},{"name":"proofFlagBits","type":"uint256","internalType":"uint256"}],"outputs":[{"name":"timestamp","type":"uint256","internalType":"uint256"}],"stateMutability":"view"},{"type":"event","name":"ConfigSet","inputs":[{"name":"staticConfig","type":"tuple","indexed":false,"internalType":"struct CommitStore.StaticConfig","components":[{"name":"chainSelector","type":"uint64","internalType":"uint64"},{"name":"sourceChainSelector","type":"uint64","internalType":"uint64"},{"name":"onRamp","type":"address","internalType":"address"},{"name":"rmnProxy","type":"address","internalType":"address"}]},{"name":"dynamicConfig","type":"tuple","indexed":false,"internalType":"struct CommitStore.DynamicConfig","components":[{"name":"priceRegistry","type":"address","internalType":"address"}]}],"anonymous":false},{"type":"event","name":"ConfigSet","inputs":[{"name":"previousConfigBlockNumber","type":"uint32","indexed":false,"internalType":"uint32"},{"name":"configDigest","type":"bytes32","indexed":false,"internalType":"bytes32"},{"name":"configCount","type":"uint64","indexed":false,"internalType":"uint64"},{"name":"signers","type":"address[]","indexed":false,"internalType":"address[]"},{"name":"transmitters","type":"address[]","indexed":false,"internalType":"address[]"},{"name":"f","type":"uint8","indexed":false,"internalType":"uint8"},{"name":"onchainConfig","type":"bytes","indexed":false,"internalType":"bytes"},{"name":"offchainConfigVersion","type":"uint64","indexed":false,"internalType":"uint64"},{"name":"offchainConfig","type":"bytes","indexed":false,"internalType":"bytes"}],"anonymous":false},{"type":"event","name":"LatestPriceEpochAndRoundSet","inputs":[{"name":"oldEpochAndRound","type":"uint40","indexed":false,"internalType":"uint40"},{"name":"newEpochAndRound","type":"uint40","indexed":false,"internalType":"uint40"}],"anonymous":false},{"type":"event","name":"OwnershipTransferRequested","inputs":[{"name":"from","type":"address","indexed":true,"internalType":"address"},{"name":"to","type":"address","indexed":true,"internalType":"address"}],"anonymous":false},{"type":"event","name":"OwnershipTransferred","inputs":[{"name":"from","type":"address","indexed":true,"internalType":"address"},{"name":"to","type":"address","indexed":true,"internalType":"address"}],"anonymous":false},{"type":"event","name":"Paused","inputs":[{"name":"account","type":"address","indexed":false,"internalType":"address"}],"anonymous":false},{"type":"event","name":"ReportAccepted","inputs":[{"name":"report","type":"tuple","indexed":false,"internalType":"struct CommitStore.CommitReport","components":[{"name":"priceUpdates","type":"tuple","internalType":"struct Internal.PriceUpdates","components":[{"name":"tokenPriceUpdates","type":"tuple[]","internalType":"struct Internal.TokenPriceUpdate[]","components":[{"name":"sourceToken","type":"address","internalType":"address"},{"name":"usdPerToken","type":"uint224","internalType":"uint224"}]},{"name":"gasPriceUpdates","type":"tuple[]","internalType":"struct Internal.GasPriceUpdate[]","components":[{"name":"destChainSelector","type":"uint64","internalType":"uint64"},{"name":"usdPerUnitGas","type":"uint224","internalType":"uint224"}]}]},{"name":"interval","type":"tuple","internalType":"struct CommitStore.Interval","components":[{"name":"min","type":"uint64","internalType":"uint64"},{"name":"max","type":"uint64","internalType":"uint64"}]},{"name":"merkleRoot","type":"bytes32","internalType":"bytes32"}]}],"anonymous":false},{"type":"event","name":"RootRemoved","inputs":[{"name":"root","type":"bytes32","indexed":false,"internalType":"bytes32"}],"anonymous":false},{"type":"event","name":"SequenceNumberSet","inputs":[{"name":"oldSeqNum","type":"uint64","indexed":false,"internalType":"uint64"},{"name":"newSeqNum","type":"uint64","indexed":false,"internalType":"uint64"}],"anonymous":false},{"type":"event","name":"Transmitted","inputs":[{"name":"configDigest","type":"bytes32","indexed":false,"internalType":"bytes32"},{"name":"epoch","type":"uint32","indexed":false,"internalType":"uint32"}],"anonymous":false},{"type":"event","name":"Unpaused","inputs":[{"name":"account","type":"address","indexed":false,"internalType":"address"}],"anonymous":false},{"type":"error","name":"ConfigDigestMismatch","inputs":[{"name":"expected","type":"bytes32","internalType":"bytes32"},{"name":"actual","type":"bytes32","internalType":"bytes32"}]},{"type":"error","name":"CursedByRMN","inputs":[]},{"type":"error","name":"ForkedChain","inputs":[{"name":"expected","type":"uint256","internalType":"uint256"},{"name":"actual","type":"uint256","internalType":"uint256"}]},{"type":"error","name":"InvalidCommitStoreConfig","inputs":[]},{"type":"error","name":"InvalidConfig","inputs":[{"name":"errorType","type":"uint8","internalType":"enum OCR2Base.InvalidConfigErrorType"}]},{"type":"error","name":"InvalidInterval","inputs":[{"name":"interval","type":"tuple","internalType":"struct CommitStore.Interval","components":[{"name":"min","type":"uint64","internalType":"uint64"},{"name":"max","type":"uint64","internalType":"uint64"}]}]},{"type":"error","name":"InvalidProof","inputs":[]},{"type":"error","name":"InvalidRoot","inputs":[]},{"type":"error","name":"LeavesCannotBeEmpty","inputs":[]},{"type":"error","name":"NonUniqueSignatures","inputs":[]},{"type":"error","name":"OracleCannotBeZeroAddress","inputs":[]},{"type":"error","name":"PausedError","inputs":[]},{"type":"error","name":"RootAlreadyCommitted","inputs":[]},{"type":"error","name":"SignaturesOutOfRegistration","inputs":[]},{"type":"error","name":"StaleReport","inputs":[]},{"type":"error","name":"UnauthorizedSigner","inputs":[]},{"type":"error","name":"UnauthorizedTransmitter","inputs":[]},{"type":"error","name":"WrongMessageLength","inputs":[{"name":"expected","type":"uint256","internalType":"uint256"},{"name":"actual","type":"uint256","internalType":"uint256"}]},{"type":"error","name":"WrongNumberOfSignatures","inputs":[]}],"bytecode":{"object":"0x6101406040526001600960006101000a81548167ffffffffffffffff021916908367ffffffffffffffff16021790555060006009600d6101000a81548160ff0219169083151502179055503480156200005757600080fd5b5060405162004fd338038062004fd383398181016040528101906200007d91906200062f565b6000338060008073ffffffffffffffffffffffffffffffffffffffff168273ffffffffffffffffffffffffffffffffffffffff1603620000f4576040517f08c379a0000000000000000000000000000000000000000000000000000000008152600401620000eb90620006c2565b60405180910390fd5b816000806101000a81548173ffffffffffffffffffffffffffffffffffffffff021916908373ffffffffffffffffffffffffffffffffffffffff160217905550600073ffffffffffffffffffffffffffffffffffffffff168173ffffffffffffffffffffffffffffffffffffffff16146200017b576200017a816200032860201b60201c565b5b5050508015156080811515815250504660a0818152505050600073ffffffffffffffffffffffffffffffffffffffff16816040015173ffffffffffffffffffffffffffffffffffffffff161480620001e157506000816000015167ffffffffffffffff16145b80620001fb57506000816020015167ffffffffffffffff16145b80620002375750600073ffffffffffffffffffffffffffffffffffffffff16816060015173ffffffffffffffffffffffffffffffffffffffff16145b156200026f576040517f3f8be2be00000000000000000000000000000000000000000000000000000000815260040160405180910390fd5b806000015167ffffffffffffffff1660c08167ffffffffffffffff1681525050806020015167ffffffffffffffff1660e08167ffffffffffffffff1681525050806040015173ffffffffffffffffffffffffffffffffffffffff166101008173ffffffffffffffffffffffffffffffffffffffff1681525050806060015173ffffffffffffffffffffffffffffffffffffffff166101208173ffffffffffffffffffffffffffffffffffffffff16815250505062000756565b3373ffffffffffffffffffffffffffffffffffffffff168173ffffffffffffffffffffffffffffffffffffffff160362000399576040517f08c379a0000000000000000000000000000000000000000000000000000000008152600401620003909062000734565b60405180910390fd5b80600160006101000a81548173ffffffffffffffffffffffffffffffffffffffff021916908373ffffffffffffffffffffffffffffffffffffffff1602179055508073ffffffffffffffffffffffffffffffffffffffff1660008054906101000a900473ffffffffffffffffffffffffffffffffffffffff1673ffffffffffffffffffffffffffffffffffffffff167fed8889f560326eb138920d842192f0eb3dd22b4f139c87a2c57538e05bae127860405160405180910390a350565b6000604051905090565b600080fd5b600080fd5b6000601f19601f8301169050919050565b7f4e487b7100000000000000000000000000000000000000000000000000000000600052604160045260246000fd5b620004b6826200046b565b810181811067ffffffffffffffff82111715620004d857620004d76200047c565b5b80604052505050565b6000620004ed62000457565b9050620004fb8282620004ab565b919050565b600067ffffffffffffffff82169050919050565b6200051f8162000500565b81146200052b57600080fd5b50565b6000815190506200053f8162000514565b92915050565b600073ffffffffffffffffffffffffffffffffffffffff82169050919050565b6000620005728262000545565b9050919050565b620005848162000565565b81146200059057600080fd5b50565b600081519050620005a48162000579565b92915050565b600060808284031215620005c357620005c262000466565b5b620005cf6080620004e1565b90506000620005e1848285016200052e565b6000830152506020620005f7848285016200052e565b60208301525060406200060d8482850162000593565b6040830152506060620006238482850162000593565b60608301525092915050565b60006080828403121562000648576200064762000461565b5b60006200065884828501620005aa565b91505092915050565b600082825260208201905092915050565b7f43616e6e6f7420736574206f776e657220746f207a65726f0000000000000000600082015250565b6000620006aa60188362000661565b9150620006b78262000672565b602082019050919050565b60006020820190508181036000830152620006dd816200069b565b9050919050565b7f43616e6e6f74207472616e7366657220746f2073656c66000000000000000000600082015250565b60006200071c60178362000661565b91506200072982620006e4565b602082019050919050565b600060208201905081810360008301526200074f816200070d565b9050919050565b60805160a05160c05160e05161010051610120516147e7620007ec600039600081816104a701528181611b1a01528181611cb701528181611fcd015261245401526000818161046b0152611f9101526000818161043b01528181611b5601528181611f61015261249001526000818161040b0152611f3101526000818161147b01526114a10152600061155a01526147e76000f3fe608060405234801561001057600080fd5b506004361061014d5760003560e01c806379ba5097116100c3578063afcb95d71161007c578063afcb95d714610334578063b1dc65a414610354578063e89d039f14610370578063f2fde38b1461038e578063f47a8690146103aa578063ff888fb1146103c65761014d565b806379ba50971461029657806381ff7048146102a05780638456cb59146102c05780638da5cb5b146102ca578063a7206cd6146102e8578063ad7a22f8146103185761014d565b8063320488751161011557806332048875146101e45780633f4ba83a146102145780634120fccd1461021e5780635c975abb1461023c578063666cab8d1461025a5780637437ff9f146102785761014d565b806306285c691461015257806310c374ed14610170578063181f5a771461018e5780631ef38174146101ac57806329b980e4146101c8575b600080fd5b61015a6103f6565b6040516101679190612c3a565b60405180910390f35b6101786104e4565b6040516101859190612c64565b60405180910390f35b610196610506565b6040516101a39190612d0f565b60405180910390f35b6101c660048036038101906101c19190612fd3565b61053f565b005b6101e260048036038101906101dd919061310d565b610d67565b005b6101fe60048036038101906101f991906131cb565b610de7565b60405161020b919061326f565b60405180910390f35b61021c610ef1565b005b610226610f4d565b6040516102339190612c64565b60405180910390f35b610244610f6b565b60405161025191906132a5565b60405180910390f35b610262610f82565b60405161026f919061336f565b60405180910390f35b610280611010565b60405161028d91906133ad565b60405180910390f35b61029e611080565b005b6102a8611215565b6040516102b793929190613400565b60405180910390f35b6102c861124f565b005b6102d26112ab565b6040516102df9190613446565b60405180910390f35b61030260048036038101906102fd919061348d565b6112d4565b60405161030f919061326f565b60405180910390f35b610332600480360381019061032d91906134ba565b6112f1565b005b61033c61137a565b60405161034b939291906134e7565b60405180910390f35b61036e60048036038101906103699190613596565b611392565b005b610378611b16565b60405161038591906132a5565b60405180910390f35b6103a860048036038101906103a39190613672565b611bfe565b005b6103c460048036038101906103bf919061369f565b611c12565b005b6103e060048036038101906103db919061348d565b611cb3565b6040516103ed91906132a5565b60405180910390f35b6103fe612a26565b60405180608001604052807f000000000000000000000000000000000000000000000000000000000000000067ffffffffffffffff1681526020017f000000000000000000000000000000000000000000000000000000000000000067ffffffffffffffff1681526020017f000000000000000000000000000000000000000000000000000000000000000073ffffffffffffffffffffffffffffffffffffffff1681526020017f000000000000000000000000000000000000000000000000000000000000000073ffffffffffffffffffffffffffffffffffffffff16815250905090565b6000600960089054906101000a900464ffffffffff1664ffffffffff16905090565b6040518060400160405280601581526020017f436f6d6d697453746f726520312e352e302d646576000000000000000000000081525081565b855185518560ff16601f83111561058e5760016040517f367f56a20000000000000000000000000000000000000000000000000000000081526004016105859190613763565b60405180910390fd5b600081036105d45760006040517f367f56a20000000000000000000000000000000000000000000000000000000081526004016105cb9190613763565b60405180910390fd5b8183146106195760046040517f367f56a20000000000000000000000000000000000000000000000000000000081526004016106109190613763565b60405180910390fd5b80600361062691906137ad565b831161066a5760026040517f367f56a20000000000000000000000000000000000000000000000000000000081526004016106619190613763565b60405180910390fd5b610672611d80565b61067b86611e10565b6000600680549050905060005b818110156107eb5760056000600683815481106106a8576106a76137ef565b5b9060005260206000200160009054906101000a900473ffffffffffffffffffffffffffffffffffffffff1673ffffffffffffffffffffffffffffffffffffffff1673ffffffffffffffffffffffffffffffffffffffff168152602001908152602001600020600080820160006101000a81549060ff02191690556000820160016101000a81549060ff0219169055505060056000600783815481106107505761074f6137ef565b5b9060005260206000200160009054906101000a900473ffffffffffffffffffffffffffffffffffffffff1673ffffffffffffffffffffffffffffffffffffffff1673ffffffffffffffffffffffffffffffffffffffff168152602001908152602001600020600080820160006101000a81549060ff02191690556000820160016101000a81549060ff02191690555050806001019050610688565b5060008a51905060005b81811015610c015760008c8281518110610812576108116137ef565b5b60200260200101519050600060028111156108305761082f6136ec565b5b600560008373ffffffffffffffffffffffffffffffffffffffff1673ffffffffffffffffffffffffffffffffffffffff16815260200190815260200160002060000160019054906101000a900460ff166002811115610892576108916136ec565b5b146108d55760036040517f367f56a20000000000000000000000000000000000000000000000000000000081526004016108cc9190613763565b60405180910390fd5b600073ffffffffffffffffffffffffffffffffffffffff168173ffffffffffffffffffffffffffffffffffffffff160361093b576040517fd6c62c9b00000000000000000000000000000000000000000000000000000000815260040160405180910390fd5b60405180604001604052808360ff16815260200160016002811115610963576109626136ec565b5b815250600560008373ffffffffffffffffffffffffffffffffffffffff1673ffffffffffffffffffffffffffffffffffffffff16815260200190815260200160002060008201518160000160006101000a81548160ff021916908360ff16021790555060208201518160000160016101000a81548160ff021916908360028111156109f1576109f06136ec565b5b021790555090505060008c8381518110610a0e57610a0d6137ef565b5b6020026020010151905060006002811115610a2c57610a2b6136ec565b5b600560008373ffffffffffffffffffffffffffffffffffffffff1673ffffffffffffffffffffffffffffffffffffffff16815260200190815260200160002060000160019054906101000a900460ff166002811115610a8e57610a8d6136ec565b5b14610ad15760036040517f367f56a2000000000000000000000000000000000000000000000000000000008152600401610ac89190613763565b60405180910390fd5b600073ffffffffffffffffffffffffffffffffffffffff168173ffffffffffffffffffffffffffffffffffffffff1603610b37576040517fd6c62c9b00000000000000000000000000000000000000000000000000000000815260040160405180910390fd5b60405180604001604052808460ff168152602001600280811115610b5e57610b5d6136ec565b5b815250600560008373ffffffffffffffffffffffffffffffffffffffff1673ffffffffffffffffffffffffffffffffffffffff16815260200190815260200160002060008201518160000160006101000a81548160ff021916908360ff16021790555060208201518160000160016101000a81548160ff02191690836002811115610bec57610beb6136ec565b5b021790555090505050508060010190506107f5565b508a60069080519060200190610c18929190612a8e565b508960079080519060200190610c2f929190612a8e565b5088600260010160006101000a81548160ff021916908360ff16021790555080600260010160016101000a81548160ff021916908360ff160217905550610cbd46306004600081819054906101000a900463ffffffff16610c8f9061381e565b91906101000a81548163ffffffff021916908363ffffffff160217905563ffffffff168e8e8e8e8e8e612020565b600260000181905550600060048054906101000a900463ffffffff169050436004806101000a81548163ffffffff021916908363ffffffff1602179055507f1591690b8638f5fb2dbec82ac741805ac5da8b45dc5263f4875b0496fdce4e0581600260000154600460009054906101000a900463ffffffff168f8f8f8f8f8f604051610d51999897969594939291906138e9565b60405180910390a1505050505050505050505050565b610d6f611d80565b6000600960089054906101000a900464ffffffffff16905081600960086101000a81548164ffffffffff021916908364ffffffffff1602179055507ff0d557bfce33e354b41885eb9264448726cfe51f486ffa69809d2bf5654564448183604051610ddb9291906139a1565b60405180910390a15050565b6000610df1610f6b565b15610e28576040517feced32bc00000000000000000000000000000000000000000000000000000000815260040160405180910390fd5b6000610eb7878780806020026020016040519081016040528093929190818152602001838360200280828437600081840152601f19601f82011690508083019250505050505050868680806020026020016040519081016040528093929190818152602001838360200280828437600081840152601f19601f82011690508083019250505050505050856120c9565b9050610ec281611cb3565b610ed0576000915050610ee8565b600a6000828152602001908152602001600020549150505b95945050505050565b610ef9611d80565b60006009600d6101000a81548160ff0219169083151502179055507f5db9ee0a495bf2e6ff9c91a7834c1ba4fdd244a5e8aa4e537bd38aeae4b073aa33604051610f439190613446565b60405180910390a1565b6000600960009054906101000a900467ffffffffffffffff16905090565b60006009600d9054906101000a900460ff16905090565b6060600780548060200260200160405190810160405280929190818152602001828054801561100657602002820191906000526020600020905b8160009054906101000a900473ffffffffffffffffffffffffffffffffffffffff1673ffffffffffffffffffffffffffffffffffffffff1681526020019060010190808311610fbc575b5050505050905090565b611018612b18565b60086040518060200160405290816000820160009054906101000a900473ffffffffffffffffffffffffffffffffffffffff1673ffffffffffffffffffffffffffffffffffffffff1673ffffffffffffffffffffffffffffffffffffffff1681525050905090565b600160009054906101000a900473ffffffffffffffffffffffffffffffffffffffff1673ffffffffffffffffffffffffffffffffffffffff163373ffffffffffffffffffffffffffffffffffffffff1614611110576040517f08c379a000000000000000000000000000000000000000000000000000000000815260040161110790613a16565b60405180910390fd5b60008060009054906101000a900473ffffffffffffffffffffffffffffffffffffffff169050336000806101000a81548173ffffffffffffffffffffffffffffffffffffffff021916908373ffffffffffffffffffffffffffffffffffffffff1602179055506000600160006101000a81548173ffffffffffffffffffffffffffffffffffffffff021916908373ffffffffffffffffffffffffffffffffffffffff1602179055503373ffffffffffffffffffffffffffffffffffffffff168173ffffffffffffffffffffffffffffffffffffffff167f8be0079c531659141344cd1fd0a4f28419497f9722a3daafe3b4186f6b6457e060405160405180910390a350565b6000806000600460009054906101000a900463ffffffff1660048054906101000a900463ffffffff16600260000154925092509250909192565b611257611d80565b60016009600d6101000a81548160ff0219169083151502179055507f62e78cea01bee320cd4e420270b5ea74000d11b0c9f74754ebdbfc544b05a258336040516112a19190613446565b60405180910390a1565b60008060009054906101000a900473ffffffffffffffffffffffffffffffffffffffff16905090565b6000600a6000838152602001908152602001600020549050919050565b6112f9611d80565b6000600960009054906101000a900467ffffffffffffffff16905081600960006101000a81548167ffffffffffffffff021916908367ffffffffffffffff1602179055507fea59e8027e41fda1525220008cf2416797405065eb21b0ebd417bfc6d361b8de818360405161136e929190613a36565b60405180910390a15050565b600080600060016000801b6000925092509250909192565b6113b887878a6001600381106113ab576113aa6137ef565b5b602002013560001c612413565b6000886000600381106113ce576113cd6137ef565b5b6020020135905060006002604051806060016040529081600082015481526020016001820160009054906101000a900460ff1660ff1660ff1681526020016001820160019054906101000a900460ff1660ff1660ff1681525050905081816000015114611478578060000151826040517f93df584c00000000000000000000000000000000000000000000000000000000815260040161146f929190613a5f565b60405180910390fd5b467f0000000000000000000000000000000000000000000000000000000000000000146114fe577f0000000000000000000000000000000000000000000000000000000000000000466040517f0f01ce850000000000000000000000000000000000000000000000000000000081526004016114f5929190613a88565b60405180910390fd5b7fb04e63db38c49950639fa09d29872f21f5d49d614f3a969d8adf3d4b52e41a628260088c600160038110611536576115356137ef565b5b602002013560001c901c60405161154e929190613ab1565b60405180910390a160007f0000000000000000000000000000000000000000000000000000000000000000156115b45760016002836020015184604001516115969190613ada565b6115a09190613b3e565b6115aa9190613ada565b60ff1690506115cb565b600182602001516115c59190613ada565b60ff1690505b808888905014611607576040517f71253a2500000000000000000000000000000000000000000000000000000000815260040160405180910390fd5b858590508888905014611646576040517fa75d88af00000000000000000000000000000000000000000000000000000000815260040160405180910390fd5b6000600560003373ffffffffffffffffffffffffffffffffffffffff1673ffffffffffffffffffffffffffffffffffffffff1681526020019081526020016000206040518060400160405290816000820160009054906101000a900460ff1660ff1660ff1681526020016000820160019054906101000a900460ff1660028111156116d4576116d36136ec565b5b60028111156116e6576116e56136ec565b5b8152505090506002808111156116ff576116fe6136ec565b5b81602001516002811115611716576117156136ec565b5b14801561179357506007816000015160ff1681548110611739576117386137ef565b5b9060005260206000200160009054906101000a900473ffffffffffffffffffffffffffffffffffffffff1673ffffffffffffffffffffffffffffffffffffffff163373ffffffffffffffffffffffffffffffffffffffff16145b6117c9576040517fda0f08e800000000000000000000000000000000000000000000000000000000815260040160405180910390fd5b5060006020878790506117dc91906137ad565b60208a8a90506117ec91906137ad565b8c8c905061014461ffff166118019190613b6f565b61180b9190613b6f565b6118159190613b6f565b905080600036905014611865578060003690506040517f8e1192e100000000000000000000000000000000000000000000000000000000815260040161185c929190613a88565b60405180910390fd5b5060008a8a604051611878929190613bd3565b60405180910390208c604051602001611892929190613c26565b6040516020818303038152906040528051906020012090506118b2612b41565b60008a8a9050905060005b81811015611b05576000600185601b8b85602081106118df576118de6137ef565b5b1a60f81b60f81c6118f09190613ada565b8f8f86818110611903576119026137ef565b5b905060200201358e8e8781811061191d5761191c6137ef565b5b90506020020135604051600081526020016040526040516119419493929190613c52565b6020604051602081039080840390855afa158015611963573d6000803e3d6000fd5b5050506020604051035190506000600560008373ffffffffffffffffffffffffffffffffffffffff1673ffffffffffffffffffffffffffffffffffffffff1681526020019081526020016000206040518060400160405290816000820160009054906101000a900460ff1660ff1660ff1681526020016000820160019054906101000a900460ff1660028111156119fd576119fc6136ec565b5b6002811115611a0f57611a0e6136ec565b5b81525050905060016002811115611a2957611a286136ec565b5b81602001516002811115611a4057611a3f6136ec565b5b14611a77576040517fca31867a00000000000000000000000000000000000000000000000000000000815260040160405180910390fd5b84816000015160ff16601f8110611a9157611a906137ef565b5b602002015115611acd576040517ff67bc7c400000000000000000000000000000000000000000000000000000000815260040160405180910390fd5b600185826000015160ff16601f8110611ae957611ae86137ef565b5b60200201901515908115158152505050508060010190506118bd565b505050505050505050505050505050565b60007f000000000000000000000000000000000000000000000000000000000000000073ffffffffffffffffffffffffffffffffffffffff16632cbc26bb7f000000000000000000000000000000000000000000000000000000000000000067ffffffffffffffff1660801b6040518263ffffffff1660e01b8152600401611b9e9190613cd2565b602060405180830381865afa158015611bbb573d6000803e3d6000fd5b505050506040513d601f19601f82011682018060405250810190611bdf9190613d19565b158015611bf957506009600d9054906101000a900460ff16155b905090565b611c06611d80565b611c0f81612896565b50565b611c1a611d80565b60005b82829050811015611cae576000838383818110611c3d57611c3c6137ef565b5b905060200201359050611c4f81611cb3565b611ca257600a6000828152602001908152602001600020600090557f202f1139a3e334b6056064c0e9b19fd07e44a88d8f6e5ded571b24cf8c371f1281604051611c999190613d46565b60405180910390a15b50806001019050611c1d565b505050565b60007f000000000000000000000000000000000000000000000000000000000000000073ffffffffffffffffffffffffffffffffffffffff16634d61677160405180604001604052803073ffffffffffffffffffffffffffffffffffffffff168152602001858152506040518263ffffffff1660e01b8152600401611d389190613d9f565b602060405180830381865afa158015611d55573d6000803e3d6000fd5b505050506040513d601f19601f82011682018060405250810190611d799190613d19565b9050919050565b60008054906101000a900473ffffffffffffffffffffffffffffffffffffffff1673ffffffffffffffffffffffffffffffffffffffff163373ffffffffffffffffffffffffffffffffffffffff1614611e0e576040517f08c379a0000000000000000000000000000000000000000000000000000000008152600401611e0590613e06565b60405180910390fd5b565b600081806020019051810190611e269190613e81565b9050600073ffffffffffffffffffffffffffffffffffffffff16816000015173ffffffffffffffffffffffffffffffffffffffff1603611e92576040517f3f8be2be00000000000000000000000000000000000000000000000000000000815260040160405180910390fd5b80600860008201518160000160006101000a81548173ffffffffffffffffffffffffffffffffffffffff021916908373ffffffffffffffffffffffffffffffffffffffff1602179055509050506000600960086101000a81548164ffffffffff021916908364ffffffffff1602179055507fc9d7123efd4203e60b0f0a4b1dbc4800fc97ce63679f71c3a27279b24a7ddec360405180608001604052807f000000000000000000000000000000000000000000000000000000000000000067ffffffffffffffff1681526020017f000000000000000000000000000000000000000000000000000000000000000067ffffffffffffffff1681526020017f000000000000000000000000000000000000000000000000000000000000000073ffffffffffffffffffffffffffffffffffffffff1681526020017f000000000000000000000000000000000000000000000000000000000000000073ffffffffffffffffffffffffffffffffffffffff1681525082604051612014929190613eae565b60405180910390a15050565b6000808a8a8a8a8a8a8a8a8a60405160200161204499989796959493929190613ed7565b6040516020818303038152906040528051906020012060001c9050600060f07fffffffffffffffffffffffffffffffffffffffffffffffffffffffffffffffff901b905060007e010000000000000000000000000000000000000000000000000000000000009050811983168282161760001b93505050509998505050505050505050565b6000808451905060008451905060008203612110576040517f11a6b26400000000000000000000000000000000000000000000000000000000815260040160405180910390fd5b600161010001821115801561212a57506001610100018111155b612160576040517f09bde33900000000000000000000000000000000000000000000000000000000815260040160405180910390fd5b600060018284010390506101008111156121a6576040517f09bde33900000000000000000000000000000000000000000000000000000000815260040160405180910390fd5b600081036121d457866000815181106121c2576121c16137ef565b5b6020026020010151935050505061240c565b60008167ffffffffffffffff8111156121f0576121ef612d4a565b5b60405190808252806020026020018201604052801561221e5781602001602082028036833780820191505090505b50905060008060008060008092509250925060005b85811015612391576000816001901b826001901b8c16036122a7578885101561227e578c858060010196508151811061226f5761226e6137ef565b5b602002602001015190506122a2565b858480600101955081518110612297576122966137ef565b5b602002602001015190505b6122cb565b8b83806001019450815181106122c0576122bf6137ef565b5b602002602001015190505b6000898610156122fd578d86806001019750815181106122ee576122ed6137ef565b5b60200260200101519050612321565b868580600101965081518110612316576123156137ef565b5b602002602001015190505b8285111561235b576040517f09bde33900000000000000000000000000000000000000000000000000000000815260040160405180910390fd5b61236582826129c2565b878481518110612378576123776137ef565b5b6020026020010181815250505050806001019050612233565b5060018503821480156123a357508683145b80156123ae57508581145b6123e4576040517f09bde33900000000000000000000000000000000000000000000000000000000815260040160405180910390fd5b8360018603815181106123fa576123f96137ef565b5b60200260200101519750505050505050505b9392505050565b61241b610f6b565b15612452576040517feced32bc00000000000000000000000000000000000000000000000000000000815260040160405180910390fd5b7f000000000000000000000000000000000000000000000000000000000000000073ffffffffffffffffffffffffffffffffffffffff16632cbc26bb7f000000000000000000000000000000000000000000000000000000000000000067ffffffffffffffff1660801b6040518263ffffffff1660e01b81526004016124d89190613cd2565b602060405180830381865afa1580156124f5573d6000803e3d6000fd5b505050506040513d601f19601f820116820180604052508101906125199190613d19565b15612550576040517f53ad11d800000000000000000000000000000000000000000000000000000000815260040160405180910390fd5b600083838101906125619190614352565b905060008160000151600001515111806125845750600081600001516020015151115b156126c4578164ffffffffff16600960089054906101000a900464ffffffffff1664ffffffffff1610156126825781600960086101000a81548164ffffffffff021916908364ffffffffff160217905550600860000160009054906101000a900473ffffffffffffffffffffffffffffffffffffffff1673ffffffffffffffffffffffffffffffffffffffff16633937306f82600001516040518263ffffffff1660e01b815260040161263791906145aa565b600060405180830381600087803b15801561265157600080fd5b505af1158015612665573d6000803e3d6000fd5b505050506000801b81604001510361267d5750612891565b6126c3565b6000801b8160400151036126c2576040517ff803a2ca00000000000000000000000000000000000000000000000000000000815260040160405180910390fd5b5b5b80602001516000015167ffffffffffffffff16600960009054906101000a900467ffffffffffffffff1667ffffffffffffffff16141580612728575080602001516020015167ffffffffffffffff1681602001516000015167ffffffffffffffff16115b1561276e5780602001516040517fbb1ae18d00000000000000000000000000000000000000000000000000000000815260040161276591906145fb565b60405180910390fd5b6000801b8160400151036127ae576040517f504570e300000000000000000000000000000000000000000000000000000000815260040160405180910390fd5b6000600a60008360400151815260200190815260200160002054146127ff576040517fa0bce24f00000000000000000000000000000000000000000000000000000000815260040160405180910390fd5b60018160200151602001516128149190614616565b600960006101000a81548167ffffffffffffffff021916908367ffffffffffffffff16021790555042600a600083604001518152602001908152602001600020819055507f291698c01aa71f912280535d88a00d2c59fb63530a3f5d0098560468acb9ebf5816040516128879190614715565b60405180910390a1505b505050565b3373ffffffffffffffffffffffffffffffffffffffff168173ffffffffffffffffffffffffffffffffffffffff1603612904576040517f08c379a00000000000000000000000000000000000000000000000000000000081526004016128fb90614783565b60405180910390fd5b80600160006101000a81548173ffffffffffffffffffffffffffffffffffffffff021916908373ffffffffffffffffffffffffffffffffffffffff1602179055508073ffffffffffffffffffffffffffffffffffffffff1660008054906101000a900473ffffffffffffffffffffffffffffffffffffffff1673ffffffffffffffffffffffffffffffffffffffff167fed8889f560326eb138920d842192f0eb3dd22b4f139c87a2c57538e05bae127860405160405180910390a350565b60008183106129da576129d582846129ed565b6129e5565b6129e483836129ed565b5b905092915050565b6000600160001b8383604051602001612a08939291906147a3565b60405160208183030381529060405280519060200120905092915050565b6040518060800160405280600067ffffffffffffffff168152602001600067ffffffffffffffff168152602001600073ffffffffffffffffffffffffffffffffffffffff168152602001600073ffffffffffffffffffffffffffffffffffffffff1681525090565b828054828255906000526020600020908101928215612b07579160200282015b82811115612b065782518260006101000a81548173ffffffffffffffffffffffffffffffffffffffff021916908373ffffffffffffffffffffffffffffffffffffffff16021790555091602001919060010190612aae565b5b509050612b149190612b64565b5090565b6040518060200160405280600073ffffffffffffffffffffffffffffffffffffffff1681525090565b604051806103e00160405280601f90602082028036833780820191505090505090565b5b80821115612b7d576000816000905550600101612b65565b5090565b600067ffffffffffffffff82169050919050565b612b9e81612b81565b82525050565b600073ffffffffffffffffffffffffffffffffffffffff82169050919050565b6000612bcf82612ba4565b9050919050565b612bdf81612bc4565b82525050565b608082016000820151612bfb6000850182612b95565b506020820151612c0e6020850182612b95565b506040820151612c216040850182612bd6565b506060820151612c346060850182612bd6565b50505050565b6000608082019050612c4f6000830184612be5565b92915050565b612c5e81612b81565b82525050565b6000602082019050612c796000830184612c55565b92915050565b600081519050919050565b600082825260208201905092915050565b60005b83811015612cb9578082015181840152602081019050612c9e565b60008484015250505050565b6000601f19601f8301169050919050565b6000612ce182612c7f565b612ceb8185612c8a565b9350612cfb818560208601612c9b565b612d0481612cc5565b840191505092915050565b60006020820190508181036000830152612d298184612cd6565b905092915050565b6000604051905090565b600080fd5b600080fd5b600080fd5b7f4e487b7100000000000000000000000000000000000000000000000000000000600052604160045260246000fd5b612d8282612cc5565b810181811067ffffffffffffffff82111715612da157612da0612d4a565b5b80604052505050565b6000612db4612d31565b9050612dc08282612d79565b919050565b600067ffffffffffffffff821115612de057612ddf612d4a565b5b602082029050602081019050919050565b600080fd5b612dff81612bc4565b8114612e0a57600080fd5b50565b600081359050612e1c81612df6565b92915050565b6000612e35612e3084612dc5565b612daa565b90508083825260208201905060208402830185811115612e5857612e57612df1565b5b835b81811015612e815780612e6d8882612e0d565b845260208401935050602081019050612e5a565b5050509392505050565b600082601f830112612ea057612e9f612d45565b5b8135612eb0848260208601612e22565b91505092915050565b600060ff82169050919050565b612ecf81612eb9565b8114612eda57600080fd5b50565b600081359050612eec81612ec6565b92915050565b600080fd5b600067ffffffffffffffff821115612f1257612f11612d4a565b5b612f1b82612cc5565b9050602081019050919050565b82818337600083830152505050565b6000612f4a612f4584612ef7565b612daa565b905082815260208101848484011115612f6657612f65612ef2565b5b612f71848285612f28565b509392505050565b600082601f830112612f8e57612f8d612d45565b5b8135612f9e848260208601612f37565b91505092915050565b612fb081612b81565b8114612fbb57600080fd5b50565b600081359050612fcd81612fa7565b92915050565b60008060008060008060c08789031215612ff057612fef612d3b565b5b600087013567ffffffffffffffff81111561300e5761300d612d40565b5b61301a89828a01612e8b565b965050602087013567ffffffffffffffff81111561303b5761303a612d40565b5b61304789828a01612e8b565b955050604061305889828a01612edd565b945050606087013567ffffffffffffffff81111561307957613078612d40565b5b61308589828a01612f79565b935050608061309689828a01612fbe565b92505060a087013567ffffffffffffffff8111156130b7576130b6612d40565b5b6130c389828a01612f79565b9150509295509295509295565b600064ffffffffff82169050919050565b6130ea816130d0565b81146130f557600080fd5b50565b600081359050613107816130e1565b92915050565b60006020828403121561312357613122612d3b565b5b6000613131848285016130f8565b91505092915050565b600080fd5b60008083601f84011261315557613154612d45565b5b8235905067ffffffffffffffff8111156131725761317161313a565b5b60208301915083602082028301111561318e5761318d612df1565b5b9250929050565b6000819050919050565b6131a881613195565b81146131b357600080fd5b50565b6000813590506131c58161319f565b92915050565b6000806000806000606086880312156131e7576131e6612d3b565b5b600086013567ffffffffffffffff81111561320557613204612d40565b5b6132118882890161313f565b9550955050602086013567ffffffffffffffff81111561323457613233612d40565b5b6132408882890161313f565b93509350506040613253888289016131b6565b9150509295509295909350565b61326981613195565b82525050565b60006020820190506132846000830184613260565b92915050565b60008115159050919050565b61329f8161328a565b82525050565b60006020820190506132ba6000830184613296565b92915050565b600081519050919050565b600082825260208201905092915050565b6000819050602082019050919050565b60006132f88383612bd6565b60208301905092915050565b6000602082019050919050565b600061331c826132c0565b61332681856132cb565b9350613331836132dc565b8060005b8381101561336257815161334988826132ec565b975061335483613304565b925050600181019050613335565b5085935050505092915050565b600060208201905081810360008301526133898184613311565b905092915050565b6020820160008201516133a76000850182612bd6565b50505050565b60006020820190506133c26000830184613391565b92915050565b600063ffffffff82169050919050565b6133e1816133c8565b82525050565b6000819050919050565b6133fa816133e7565b82525050565b600060608201905061341560008301866133d8565b61342260208301856133d8565b61342f60408301846133f1565b949350505050565b61344081612bc4565b82525050565b600060208201905061345b6000830184613437565b92915050565b61346a816133e7565b811461347557600080fd5b50565b60008135905061348781613461565b92915050565b6000602082840312156134a3576134a2612d3b565b5b60006134b184828501613478565b91505092915050565b6000602082840312156134d0576134cf612d3b565b5b60006134de84828501612fbe565b91505092915050565b60006060820190506134fc6000830186613296565b61350960208301856133f1565b61351660408301846133d8565b949350505050565b60008190508260206003028201111561353a57613539612df1565b5b92915050565b60008083601f84011261355657613555612d45565b5b8235905067ffffffffffffffff8111156135735761357261313a565b5b60208301915083600182028301111561358f5761358e612df1565b5b9250929050565b60008060008060008060008060e0898b0312156135b6576135b5612d3b565b5b60006135c48b828c0161351e565b985050606089013567ffffffffffffffff8111156135e5576135e4612d40565b5b6135f18b828c01613540565b9750975050608089013567ffffffffffffffff81111561361457613613612d40565b5b6136208b828c0161313f565b955095505060a089013567ffffffffffffffff81111561364357613642612d40565b5b61364f8b828c0161313f565b935093505060c06136628b828c01613478565b9150509295985092959890939650565b60006020828403121561368857613687612d3b565b5b600061369684828501612e0d565b91505092915050565b600080602083850312156136b6576136b5612d3b565b5b600083013567ffffffffffffffff8111156136d4576136d3612d40565b5b6136e08582860161313f565b92509250509250929050565b7f4e487b7100000000000000000000000000000000000000000000000000000000600052602160045260246000fd5b6005811061372c5761372b6136ec565b5b50565b600081905061373d8261371b565b919050565b600061374d8261372f565b9050919050565b61375d81613742565b82525050565b60006020820190506137786000830184613754565b92915050565b7f4e487b7100000000000000000000000000000000000000000000000000000000600052601160045260246000fd5b60006137b882613195565b91506137c383613195565b92508282026137d181613195565b915082820484148315176137e8576137e761377e565b5b5092915050565b7f4e487b7100000000000000000000000000000000000000000000000000000000600052603260045260246000fd5b6000613829826133c8565b915063ffffffff820361383f5761383e61377e565b5b600182019050919050565b6000819050919050565b600061386f61386a613865846133c8565b61384a565b612b81565b9050919050565b61387f81613854565b82525050565b61388e81612eb9565b82525050565b600081519050919050565b600082825260208201905092915050565b60006138bb82613894565b6138c5818561389f565b93506138d5818560208601612c9b565b6138de81612cc5565b840191505092915050565b6000610120820190506138ff600083018c6133d8565b61390c602083018b6133f1565b613919604083018a613876565b818103606083015261392b8189613311565b9050818103608083015261393f8188613311565b905061394e60a0830187613885565b81810360c083015261396081866138b0565b905061396f60e0830185612c55565b81810361010083015261398281846138b0565b90509a9950505050505050505050565b61399b816130d0565b82525050565b60006040820190506139b66000830185613992565b6139c36020830184613992565b9392505050565b7f4d7573742062652070726f706f736564206f776e657200000000000000000000600082015250565b6000613a00601683612c8a565b9150613a0b826139ca565b602082019050919050565b60006020820190508181036000830152613a2f816139f3565b9050919050565b6000604082019050613a4b6000830185612c55565b613a586020830184612c55565b9392505050565b6000604082019050613a7460008301856133f1565b613a8160208301846133f1565b9392505050565b6000604082019050613a9d6000830185613260565b613aaa6020830184613260565b9392505050565b6000604082019050613ac660008301856133f1565b613ad360208301846133d8565b9392505050565b6000613ae582612eb9565b9150613af083612eb9565b9250828201905060ff811115613b0957613b0861377e565b5b92915050565b7f4e487b7100000000000000000000000000000000000000000000000000000000600052601260045260246000fd5b6000613b4982612eb9565b9150613b5483612eb9565b925082613b6457613b63613b0f565b5b828204905092915050565b6000613b7a82613195565b9150613b8583613195565b9250828201905080821115613b9d57613b9c61377e565b5b92915050565b600081905092915050565b6000613bba8385613ba3565b9350613bc7838584612f28565b82840190509392505050565b6000613be0828486613bae565b91508190509392505050565b6000819050919050565b613c07613c02826133e7565b613bec565b82525050565b82818337505050565b613c2260608383613c0d565b5050565b6000613c328285613bf6565b602082019150613c428284613c16565b6060820191508190509392505050565b6000608082019050613c6760008301876133f1565b613c746020830186613885565b613c8160408301856133f1565b613c8e60608301846133f1565b95945050505050565b60007fffffffffffffffffffffffffffffffff0000000000000000000000000000000082169050919050565b613ccc81613c97565b82525050565b6000602082019050613ce76000830184613cc3565b92915050565b613cf68161328a565b8114613d0157600080fd5b50565b600081519050613d1381613ced565b92915050565b600060208284031215613d2f57613d2e612d3b565b5b6000613d3d84828501613d04565b91505092915050565b6000602082019050613d5b60008301846133f1565b92915050565b613d6a816133e7565b82525050565b604082016000820151613d866000850182612bd6565b506020820151613d996020850182613d61565b50505050565b6000604082019050613db46000830184613d70565b92915050565b7f4f6e6c792063616c6c61626c65206279206f776e657200000000000000000000600082015250565b6000613df0601683612c8a565b9150613dfb82613dba565b602082019050919050565b60006020820190508181036000830152613e1f81613de3565b9050919050565b600080fd5b600080fd5b600081519050613e3f81612df6565b92915050565b600060208284031215613e5b57613e5a613e26565b5b613e656020612daa565b90506000613e7584828501613e30565b60008301525092915050565b600060208284031215613e9757613e96612d3b565b5b6000613ea584828501613e45565b91505092915050565b600060a082019050613ec36000830185612be5565b613ed06080830184613391565b9392505050565b600061012082019050613eed600083018c613260565b613efa602083018b613437565b613f07604083018a612c55565b8181036060830152613f198189613311565b90508181036080830152613f2d8188613311565b9050613f3c60a0830187613885565b81810360c0830152613f4e81866138b0565b9050613f5d60e0830185612c55565b818103610100830152613f7081846138b0565b90509a9950505050505050505050565b600067ffffffffffffffff821115613f9b57613f9a612d4a565b5b602082029050602081019050919050565b60007bffffffffffffffffffffffffffffffffffffffffffffffffffffffff82169050919050565b613fdd81613fac565b8114613fe857600080fd5b50565b600081359050613ffa81613fd4565b92915050565b60006040828403121561401657614015613e26565b5b6140206040612daa565b9050600061403084828501612e0d565b600083015250602061404484828501613feb565b60208301525092915050565b600061406361405e84613f80565b612daa565b9050808382526020820190506040840283018581111561408657614085612df1565b5b835b818110156140af578061409b8882614000565b845260208401935050604081019050614088565b5050509392505050565b600082601f8301126140ce576140cd612d45565b5b81356140de848260208601614050565b91505092915050565b600067ffffffffffffffff82111561410257614101612d4a565b5b602082029050602081019050919050565b60006040828403121561412957614128613e26565b5b6141336040612daa565b9050600061414384828501612fbe565b600083015250602061415784828501613feb565b60208301525092915050565b6000614176614171846140e7565b612daa565b9050808382526020820190506040840283018581111561419957614198612df1565b5b835b818110156141c257806141ae8882614113565b84526020840193505060408101905061419b565b5050509392505050565b600082601f8301126141e1576141e0612d45565b5b81356141f1848260208601614163565b91505092915050565b6000604082840312156142105761420f613e26565b5b61421a6040612daa565b9050600082013567ffffffffffffffff81111561423a57614239613e2b565b5b614246848285016140b9565b600083015250602082013567ffffffffffffffff81111561426a57614269613e2b565b5b614276848285016141cc565b60208301525092915050565b60006040828403121561429857614297613e26565b5b6142a26040612daa565b905060006142b284828501612fbe565b60008301525060206142c684828501612fbe565b60208301525092915050565b6000608082840312156142e8576142e7613e26565b5b6142f26060612daa565b9050600082013567ffffffffffffffff81111561431257614311613e2b565b5b61431e848285016141fa565b600083015250602061433284828501614282565b602083015250606061434684828501613478565b60408301525092915050565b60006020828403121561436857614367612d3b565b5b600082013567ffffffffffffffff81111561438657614385612d40565b5b614392848285016142d2565b91505092915050565b600081519050919050565b600082825260208201905092915050565b6000819050602082019050919050565b6143d081613fac565b82525050565b6040820160008201516143ec6000850182612bd6565b5060208201516143ff60208501826143c7565b50505050565b600061441183836143d6565b60408301905092915050565b6000602082019050919050565b60006144358261439b565b61443f81856143a6565b935061444a836143b7565b8060005b8381101561447b5781516144628882614405565b975061446d8361441d565b92505060018101905061444e565b5085935050505092915050565b600081519050919050565b600082825260208201905092915050565b6000819050602082019050919050565b6040820160008201516144ca6000850182612b95565b5060208201516144dd60208501826143c7565b50505050565b60006144ef83836144b4565b60408301905092915050565b6000602082019050919050565b600061451382614488565b61451d8185614493565b9350614528836144a4565b8060005b8381101561455957815161454088826144e3565b975061454b836144fb565b92505060018101905061452c565b5085935050505092915050565b60006040830160008301518482036000860152614583828261442a565b9150506020830151848203602086015261459d8282614508565b9150508091505092915050565b600060208201905081810360008301526145c48184614566565b905092915050565b6040820160008201516145e26000850182612b95565b5060208201516145f56020850182612b95565b50505050565b600060408201905061461060008301846145cc565b92915050565b600061462182612b81565b915061462c83612b81565b9250828201905067ffffffffffffffff81111561464c5761464b61377e565b5b92915050565b6000604083016000830151848203600086015261466f828261442a565b915050602083015184820360208601526146898282614508565b9150508091505092915050565b6040820160008201516146ac6000850182612b95565b5060208201516146bf6020850182612b95565b50505050565b600060808301600083015184820360008601526146e28282614652565b91505060208301516146f76020860182614696565b50604083015161470a6060860182613d61565b508091505092915050565b6000602082019050818103600083015261472f81846146c5565b905092915050565b7f43616e6e6f74207472616e7366657220746f2073656c66000000000000000000600082015250565b600061476d601783612c8a565b915061477882614737565b602082019050919050565b6000602082019050818103600083015261479c81614760565b9050919050565b60006060820190506147b860008301866133f1565b6147c560208301856133f1565b6147d260408301846133f1565b94935050505056fea164736f6c6343000818000a","linkReferences":{}},"methodIdentifiers":{"acceptOwnership()":"79ba5097","getDynamicConfig()":"7437ff9f","getExpectedNextSequenceNumber()":"4120fccd","getLatestPriceEpochAndRound()":"10c374ed","getMerkleRoot(bytes32)":"a7206cd6","getStaticConfig()":"06285c69","getTransmitters()":"666cab8d","isBlessed(bytes32)":"ff888fb1","isUnpausedAndNotCursed()":"e89d039f","latestConfigDetails()":"81ff7048","latestConfigDigestAndEpoch()":"afcb95d7","owner()":"8da5cb5b","pause()":"8456cb59","paused()":"5c975abb","resetUnblessedRoots(bytes32[])":"f47a8690","setLatestPriceEpochAndRound(uint40)":"29b980e4","setMinSeqNr(uint64)":"ad7a22f8","setOCR2Config(address[],address[],uint8,bytes,uint64,bytes)":"1ef38174","transferOwnership(address)":"f2fde38b","transmit(bytes32[3],bytes,bytes32[],bytes32[],bytes32)":"b1dc65a4","typeAndVersion()":"181f5a77","unpause()":"3f4ba83a","verify(bytes32[],bytes32[],uint256)":"32048875"},"id":2}