{"abi":[{"type":"constructor","inputs":[{"name":"token","type":"address","internalType":"contract IBurnMintERC20"},{"name":"allowlist","type":"address[]","internalType":"address[]"},{"name":"armProxy","type":"address","internalType":"address"}],"stateMutability":"nonpayable"},{"type":"function","name":"acceptOwnership","inputs":[],"outputs":[],"stateMutability":"nonpayable"},{"type":"function","name":"applyAllowListUpdates","inputs":[{"name":"removes","type":"address[]","internalType":"address[]"},{"name":"adds","type":"address[]","internalType":"address[]"}],"outputs":[],"stateMutability":"nonpayable"},{"type":"function","name":"applyRampUpdates","inputs":[{"name":"onRamps","type":"tuple[]","internalType":"struct TokenPool1_2.RampUpdate[]","components":[{"name":"ramp","type":"address","internalType":"address"},{"name":"allowed","type":"bool","internalType":"bool"},{"name":"rateLimiterConfig","type":"tuple","internalType":"struct RateLimiter.Config","components":[{"name":"isEnabled","type":"bool","internalType":"bool"},{"name":"capacity","type":"uint128","internalType":"uint128"},{"name":"rate","type":"uint128","internalType":"uint128"}]}]},{"name":"offRamps","type":"tuple[]","internalType":"struct TokenPool1_2.RampUpdate[]","components":[{"name":"ramp","type":"address","internalType":"address"},{"name":"allowed","type":"bool","internalType":"bool"},{"name":"rateLimiterConfig","type":"tuple","internalType":"struct RateLimiter.Config","components":[{"name":"isEnabled","type":"bool","internalType":"bool"},{"name":"capacity","type":"uint128","internalType":"uint128"},{"name":"rate","type":"uint128","internalType":"uint128"}]}]}],"outputs":[],"stateMutability":"nonpayable"},{"type":"function","name":"currentOffRampRateLimiterState","inputs":[{"name":"offRamp","type":"address","internalType":"address"}],"outputs":[{"name":"","type":"tuple","internalType":"struct RateLimiter.TokenBucket","components":[{"name":"tokens","type":"uint128","internalType":"uint128"},{"name":"lastUpdated","type":"uint32","internalType":"uint32"},{"name":"isEnabled","type":"bool","internalType":"bool"},{"name":"capacity","type":"uint128","internalType":"uint128"},{"name":"rate","type":"uint128","internalType":"uint128"}]}],"stateMutability":"view"},{"type":"function","name":"currentOnRampRateLimiterState","inputs":[{"name":"onRamp","type":"address","internalType":"address"}],"outputs":[{"name":"","type":"tuple","internalType":"struct RateLimiter.TokenBucket","components":[{"name":"tokens","type":"uint128","internalType":"uint128"},{"name":"lastUpdated","type":"uint32","internalType":"uint32"},{"name":"isEnabled","type":"bool","internalType":"bool"},{"name":"capacity","type":"uint128","internalType":"uint128"},{"name":"rate","type":"uint128","internalType":"uint128"}]}],"stateMutability":"view"},{"type":"function","name":"getAllowList","inputs":[],"outputs":[{"name":"","type":"address[]","internalType":"address[]"}],"stateMutability":"view"},{"type":"function","name":"getAllowListEnabled","inputs":[],"outputs":[{"name":"","type":"bool","internalType":"bool"}],"stateMutability":"view"},{"type":"function","name":"getArmProxy","inputs":[],"outputs":[{"name":"armProxy","type":"address","internalType":"address"}],"stateMutability":"view"},{"type":"function","name":"getOffRamps","inputs":[],"outputs":[{"name":"","type":"address[]","internalType":"address[]"}],"stateMutability":"view"},{"type":"function","name":"getOnRamps","inputs":[],"outputs":[{"name":"","type":"address[]","internalType":"address[]"}],"stateMutability":"view"},{"type":"function","name":"getToken","inputs":[],"outputs":[{"name":"token","type":"address","internalType":"contract IERC20"}],"stateMutability":"view"},{"type":"function","name":"isOffRamp","inputs":[{"name":"offRamp","type":"address","internalType":"address"}],"outputs":[{"name":"","type":"bool","internalType":"bool"}],"stateMutability":"view"},{"type":"function","name":"isOnRamp","inputs":[{"name":"onRamp","type":"address","internalType":"address"}],"outputs":[{"name":"","type":"bool","internalType":"bool"}],"stateMutability":"view"},{"type":"function","name":"lockOrBurn","inputs":[{"name":"originalSender","type":"address","internalType":"address"},{"name":"","type":"bytes","internalType":"bytes"},{"name":"amount","type":"uint256","internalType":"uint256"},{"name":"","type":"uint64","internalType":"uint64"},{"name":"","type":"bytes","internalType":"bytes"}],"outputs":[{"name":"","type":"bytes","internalType":"bytes"}],"stateMutability":"nonpayable"},{"type":"function","name":"owner","inputs":[],"outputs":[{"name":"","type":"address","internalType":"address"}],"stateMutability":"view"},{"type":"function","name":"releaseOrMint","inputs":[{"name":"","type":"bytes","internalType":"bytes"},{"name":"receiver","type":"address","internalType":"address"},{"name":"amount","type":"uint256","internalType":"uint256"},{"name":"","type":"uint64","internalType":"uint64"},{"name":"","type":"bytes","internalType":"bytes"}],"outputs":[],"stateMutability":"nonpayable"},{"type":"function","name":"setOffRampRateLimiterConfig","inputs":[{"name":"offRamp","type":"address","internalType":"address"},{"name":"config","type":"tuple","internalType":"struct RateLimiter.Config","components":[{"name":"isEnabled","type":"bool","internalType":"bool"},{"name":"capacity","type":"uint128","internalType":"uint128"},{"name":"rate","type":"uint128","internalType":"uint128"}]}],"outputs":[],"stateMutability":"nonpayable"},{"type":"function","name":"setOnRampRateLimiterConfig","inputs":[{"name":"onRamp","type":"address","internalType":"address"},{"name":"config","type":"tuple","internalType":"struct RateLimiter.Config","components":[{"name":"isEnabled","type":"bool","internalType":"bool"},{"name":"capacity","type":"uint128","internalType":"uint128"},{"name":"rate","type":"uint128","internalType":"uint128"}]}],"outputs":[],"stateMutability":"nonpayable"},{"type":"function","name":"supportsInterface","inputs":[{"name":"interfaceId","type":"bytes4","internalType":"bytes4"}],"outputs":[{"name":"","type":"bool","internalType":"bool"}],"stateMutability":"pure"},{"type":"function","name":"transferOwnership","inputs":[{"name":"to","type":"address","internalType":"address"}],"outputs":[],"stateMutability":"nonpayable"},{"type":"function","name":"typeAndVersion","inputs":[],"outputs":[{"name":"","type":"string","internalType":"string"}],"stateMutability":"view"},{"type":"event","name":"AllowListAdd","inputs":[{"name":"sender","type":"address","indexed":false,"internalType":"address"}],"anonymous":false},{"type":"event","name":"AllowListRemove","inputs":[{"name":"sender","type":"address","indexed":false,"internalType":"address"}],"anonymous":false},{"type":"event","name":"Burned","inputs":[{"name":"sender","type":"address","indexed":true,"internalType":"address"},{"name":"amount","type":"uint256","indexed":false,"internalType":"uint256"}],"anonymous":false},{"type":"event","name":"ConfigChanged","inputs":[{"name":"config","type":"tuple","indexed":false,"internalType":"struct RateLimiter.Config","components":[{"name":"isEnabled","type":"bool","internalType":"bool"},{"name":"capacity","type":"uint128","internalType":"uint128"},{"name":"rate","type":"uint128","internalType":"uint128"}]}],"anonymous":false},{"type":"event","name":"Locked","inputs":[{"name":"sender","type":"address","indexed":true,"internalType":"address"},{"name":"amount","type":"uint256","indexed":false,"internalType":"uint256"}],"anonymous":false},{"type":"event","name":"Minted","inputs":[{"name":"sender","type":"address","indexed":true,"internalType":"address"},{"name":"recipient","type":"address","indexed":true,"internalType":"address"},{"name":"amount","type":"uint256","indexed":false,"internalType":"uint256"}],"anonymous":false},{"type":"event","name":"OffRampAdded","inputs":[{"name":"offRamp","type":"address","indexed":false,"internalType":"address"},{"name":"rateLimiterConfig","type":"tuple","indexed":false,"internalType":"struct RateLimiter.Config","components":[{"name":"isEnabled","type":"bool","internalType":"bool"},{"name":"capacity","type":"uint128","internalType":"uint128"},{"name":"rate","type":"uint128","internalType":"uint128"}]}],"anonymous":false},{"type":"event","name":"OffRampConfigured","inputs":[{"name":"offRamp","type":"address","indexed":false,"internalType":"address"},{"name":"rateLimiterConfig","type":"tuple","indexed":false,"internalType":"struct RateLimiter.Config","components":[{"name":"isEnabled","type":"bool","internalType":"bool"},{"name":"capacity","type":"uint128","internalType":"uint128"},{"name":"rate","type":"uint128","internalType":"uint128"}]}],"anonymous":false},{"type":"event","name":"OffRampRemoved","inputs":[{"name":"offRamp","type":"address","indexed":false,"internalType":"address"}],"anonymous":false},{"type":"event","name":"OnRampAdded","inputs":[{"name":"onRamp","type":"address","indexed":false,"internalType":"address"},{"name":"rateLimiterConfig","type":"tuple","indexed":false,"internalType":"struct RateLimiter.Config","components":[{"name":"isEnabled","type":"bool","internalType":"bool"},{"name":"capacity","type":"uint128","internalType":"uint128"},{"name":"rate","type":"uint128","internalType":"uint128"}]}],"anonymous":false},{"type":"event","name":"OnRampConfigured","inputs":[{"name":"onRamp","type":"address","indexed":false,"internalType":"address"},{"name":"rateLimiterConfig","type":"tuple","indexed":false,"internalType":"struct RateLimiter.Config","components":[{"name":"isEnabled","type":"bool","internalType":"bool"},{"name":"capacity","type":"uint128","internalType":"uint128"},{"name":"rate","type":"uint128","internalType":"uint128"}]}],"anonymous":false},{"type":"event","name":"OnRampRemoved","inputs":[{"name":"onRamp","type":"address","indexed":false,"internalType":"address"}],"anonymous":false},{"type":"event","name":"OwnershipTransferRequested","inputs":[{"name":"from","type":"address","indexed":true,"internalType":"address"},{"name":"to","type":"address","indexed":true,"internalType":"address"}],"anonymous":false},{"type":"event","name":"OwnershipTransferred","inputs":[{"name":"from","type":"address","indexed":true,"internalType":"address"},{"name":"to","type":"address","indexed":true,"internalType":"address"}],"anonymous":false},{"type":"event","name":"Released","inputs":[{"name":"sender","type":"address","indexed":true,"internalType":"address"},{"name":"recipient","type":"address","indexed":true,"internalType":"address"},{"name":"amount","type":"uint256","indexed":false,"internalType":"uint256"}],"anonymous":false},{"type":"event","name":"TokensConsumed","inputs":[{"name":"tokens","type":"uint256","indexed":false,"internalType":"uint256"}],"anonymous":false},{"type":"error","name":"AggregateValueMaxCapacityExceeded","inputs":[{"name":"capacity","type":"uint256","internalType":"uint256"},{"name":"requested","type":"uint256","internalType":"uint256"}]},{"type":"error","name":"AggregateValueRateLimitReached","inputs":[{"name":"minWaitInSeconds","type":"uint256","internalType":"uint256"},{"name":"available","type":"uint256","internalType":"uint256"}]},{"type":"error","name":"AllowListNotEnabled","inputs":[]},{"type":"error","name":"BadARMSignal","inputs":[]},{"type":"error","name":"BucketOverfilled","inputs":[]},{"type":"error","name":"NonExistentRamp","inputs":[{"name":"ramp","type":"address","internalType":"address"}]},{"type":"error","name":"PermissionsError","inputs":[]},{"type":"error","name":"RampAlreadyExists","inputs":[{"name":"ramp","type":"address","internalType":"address"}]},{"type":"error","name":"SenderNotAllowed","inputs":[{"name":"sender","type":"address","internalType":"address"}]},{"type":"error","name":"TokenMaxCapacityExceeded","inputs":[{"name":"capacity","type":"uint256","internalType":"uint256"},{"name":"requested","type":"uint256","internalType":"uint256"},{"name":"tokenAddress","type":"address","internalType":"address"}]},{"type":"error","name":"TokenRateLimitReached","inputs":[{"name":"minWaitInSeconds","type":"uint256","internalType":"uint256"},{"name":"available","type":"uint256","internalType":"uint256"},{"name":"tokenAddress","type":"address","internalType":"address"}]},{"type":"error","name":"ZeroAddressNotAllowed","inputs":[]}],"bytecode":{"object":"0x60e06040523480156200001157600080fd5b50604051620045c2380380620045c28339818101604052810190620000379190620009c1565b828282338060008073ffffffffffffffffffffffffffffffffffffffff168273ffffffffffffffffffffffffffffffffffffffff1603620000af576040517f08c379a0000000000000000000000000000000000000000000000000000000008152600401620000a69062000a9d565b60405180910390fd5b816000806101000a81548173ffffffffffffffffffffffffffffffffffffffff021916908373ffffffffffffffffffffffffffffffffffffffff160217905550600073ffffffffffffffffffffffffffffffffffffffff168173ffffffffffffffffffffffffffffffffffffffff1614620001365762000135816200028d60201b60201c565b5b505050600073ffffffffffffffffffffffffffffffffffffffff168373ffffffffffffffffffffffffffffffffffffffff1603620001a0576040517f8579befe00000000000000000000000000000000000000000000000000000000815260040160405180910390fd5b8273ffffffffffffffffffffffffffffffffffffffff1660808173ffffffffffffffffffffffffffffffffffffffff16815250508073ffffffffffffffffffffffffffffffffffffffff1660a08173ffffffffffffffffffffffffffffffffffffffff16815250506000825111151560c08115158152505060c05115620002815762000280600067ffffffffffffffff81111562000243576200024262000831565b5b604051908082528060200260200182016040528015620002725781602001602082028036833780820191505090505b5083620003bc60201b60201c565b5b50505050505062000c31565b3373ffffffffffffffffffffffffffffffffffffffff168173ffffffffffffffffffffffffffffffffffffffff1603620002fe576040517f08c379a0000000000000000000000000000000000000000000000000000000008152600401620002f59062000b0f565b60405180910390fd5b80600160006101000a81548173ffffffffffffffffffffffffffffffffffffffff021916908373ffffffffffffffffffffffffffffffffffffffff1602179055508073ffffffffffffffffffffffffffffffffffffffff1660008054906101000a900473ffffffffffffffffffffffffffffffffffffffff1673ffffffffffffffffffffffffffffffffffffffff167fed8889f560326eb138920d842192f0eb3dd22b4f139c87a2c57538e05bae127860405160405180910390a350565b60c051620003f6576040517f35f4a7b300000000000000000000000000000000000000000000000000000000815260040160405180910390fd5b60005b8251811015620004885760008382815181106200041b576200041a62000b31565b5b602002602001015190506200043b8160026200055d60201b90919060201c565b156200047b577f800671136ab6cfee9fbe5ed1fb7ca417811aca3cf864800d127b927adedf75668160405162000472919062000b71565b60405180910390a15b50806001019050620003f9565b5060005b815181101562000558576000828281518110620004ae57620004ad62000b31565b5b60200260200101519050600073ffffffffffffffffffffffffffffffffffffffff168173ffffffffffffffffffffffffffffffffffffffff1603620004f457506200054c565b6200050a8160026200059560201b90919060201c565b156200054a577f2640d4d76caf8bf478aabfa982fa4e1c4eb71a37f93cd15e80dbc657911546d88160405162000541919062000b71565b60405180910390a15b505b8060010190506200048c565b505050565b60006200058d836000018373ffffffffffffffffffffffffffffffffffffffff1660001b620005cd60201b60201c565b905092915050565b6000620005c5836000018373ffffffffffffffffffffffffffffffffffffffff1660001b620006f160201b60201c565b905092915050565b60008083600101600084815260200190815260200160002054905060008114620006e557600060018262000602919062000bc7565b90506000600186600001805490506200061c919062000bc7565b90508181146200069257600086600001828154811062000641576200064062000b31565b5b906000526020600020015490508087600001848154811062000668576200066762000b31565b5b90600052602060002001819055508387600101600083815260200190815260200160002081905550505b85600001805480620006a957620006a862000c02565b5b600190038181906000526020600020016000905590558560010160008681526020019081526020016000206000905560019350505050620006eb565b60009150505b92915050565b60006200070583836200076b60201b60201c565b6200076057826000018290806001815401808255809150506001900390600052602060002001600090919091909150558260000180549050836001016000848152602001908152602001600020819055506001905062000765565b600090505b92915050565b600080836001016000848152602001908152602001600020541415905092915050565b6000604051905090565b600080fd5b600080fd5b600073ffffffffffffffffffffffffffffffffffffffff82169050919050565b6000620007cf82620007a2565b9050919050565b6000620007e382620007c2565b9050919050565b620007f581620007d6565b81146200080157600080fd5b50565b6000815190506200081581620007ea565b92915050565b600080fd5b6000601f19601f8301169050919050565b7f4e487b7100000000000000000000000000000000000000000000000000000000600052604160045260246000fd5b6200086b8262000820565b810181811067ffffffffffffffff821117156200088d576200088c62000831565b5b80604052505050565b6000620008a26200078e565b9050620008b0828262000860565b919050565b600067ffffffffffffffff821115620008d357620008d262000831565b5b602082029050602081019050919050565b600080fd5b620008f481620007c2565b81146200090057600080fd5b50565b6000815190506200091481620008e9565b92915050565b6000620009316200092b84620008b5565b62000896565b90508083825260208201905060208402830185811115620009575762000956620008e4565b5b835b818110156200098457806200096f888262000903565b84526020840193505060208101905062000959565b5050509392505050565b600082601f830112620009a657620009a56200081b565b5b8151620009b88482602086016200091a565b91505092915050565b600080600060608486031215620009dd57620009dc62000798565b5b6000620009ed8682870162000804565b935050602084015167ffffffffffffffff81111562000a115762000a106200079d565b5b62000a1f868287016200098e565b925050604062000a328682870162000903565b9150509250925092565b600082825260208201905092915050565b7f43616e6e6f7420736574206f776e657220746f207a65726f0000000000000000600082015250565b600062000a8560188362000a3c565b915062000a928262000a4d565b602082019050919050565b6000602082019050818103600083015262000ab88162000a76565b9050919050565b7f43616e6e6f74207472616e7366657220746f2073656c66000000000000000000600082015250565b600062000af760178362000a3c565b915062000b048262000abf565b602082019050919050565b6000602082019050818103600083015262000b2a8162000ae8565b9050919050565b7f4e487b7100000000000000000000000000000000000000000000000000000000600052603260045260246000fd5b62000b6b81620007c2565b82525050565b600060208201905062000b88600083018462000b60565b92915050565b6000819050919050565b7f4e487b7100000000000000000000000000000000000000000000000000000000600052601160045260246000fd5b600062000bd48262000b8e565b915062000be18362000b8e565b925082820390508181111562000bfc5762000bfb62000b98565b5b92915050565b7f4e487b7100000000000000000000000000000000000000000000000000000000600052603160045260246000fd5b60805160a05160c05161392962000c9960003960008181610ca70152818161118b015261128501526000818161055201528181610a240152610d2701526000818161052a01528181610b3201528181610df601528181611783015261181a01526139296000f3fe608060405234801561001057600080fd5b50600436106101375760003560e01c80638627fad6116100b8578063a7cd63b71161007c578063a7cd63b71461033e578063b3a3fb411461035c578063c49907b51461038c578063d612b945146103a8578063e0351e13146103c4578063f2fde38b146103e257610137565b80638627fad61461029857806387381314146102b45780638da5cb5b146102d257806396875445146102f0578063a40e69c71461032057610137565b806354c8a4f3116100ff57806354c8a4f3146101f65780636f32b872146102125780637448b3c7146102425780637787e7ab1461025e57806379ba50971461028e57610137565b806301ffc9a71461013c578063181f5a771461016c5780631d7a74a01461018a57806321df0da7146101ba5780635246492f146101d8575b600080fd5b61015660048036038101906101519190612995565b6103fe565b60405161016391906129dd565b60405180910390f35b6101746104d0565b6040516101819190612a88565b60405180910390f35b6101a4600480360381019061019f9190612b08565b610509565b6040516101b191906129dd565b60405180910390f35b6101c2610526565b6040516101cf9190612b94565b60405180910390f35b6101e061054e565b6040516101ed9190612bbe565b60405180910390f35b610210600480360381019061020b9190612c3e565b610576565b005b61022c60048036038101906102279190612b08565b610610565b60405161023991906129dd565b60405180910390f35b61025c60048036038101906102579190612e17565b61062d565b005b61027860048036038101906102739190612b08565b61070d565b6040516102859190612efc565b60405180910390f35b61029661088d565b005b6102b260048036038101906102ad9190613042565b610a22565b005b6102bc610c29565b6040516102c991906131b3565b60405180910390f35b6102da610c3a565b6040516102e79190612bbe565b60405180910390f35b61030a6004803603810190610305919061322b565b610c63565b604051610317919061333c565b60405180910390f35b610328610eeb565b60405161033591906131b3565b60405180910390f35b610346610efc565b60405161035391906131b3565b60405180910390f35b61037660048036038101906103719190612b08565b610f0d565b6040516103839190612efc565b60405180910390f35b6103a660048036038101906103a191906133b4565b61108d565b005b6103c260048036038101906103bd9190612e17565b6110a7565b005b6103cc611187565b6040516103d991906129dd565b60405180910390f35b6103fc60048036038101906103f79190612b08565b6111af565b005b60007f317fa334000000000000000000000000000000000000000000000000000000007bffffffffffffffffffffffffffffffffffffffffffffffffffffffff1916827bffffffffffffffffffffffffffffffffffffffffffffffffffffffff191614806104c957507f01ffc9a7000000000000000000000000000000000000000000000000000000007bffffffffffffffffffffffffffffffffffffffffffffffffffffffff1916827bffffffffffffffffffffffffffffffffffffffffffffffffffffffff1916145b9050919050565b6040518060400160405280601781526020017f4275726e4d696e74546f6b656e506f6f6c20312e322e3000000000000000000081525081565b600061051f8260076111c390919063ffffffff16565b9050919050565b60007f0000000000000000000000000000000000000000000000000000000000000000905090565b60007f0000000000000000000000000000000000000000000000000000000000000000905090565b61057e6111f3565b61060a848480806020026020016040519081016040528093929190818152602001838360200280828437600081840152601f19601f82011690508083019250505050505050838380806020026020016040519081016040528093929190818152602001838360200280828437600081840152601f19601f82011690508083019250505050505050611283565b50505050565b60006106268260046111c390919063ffffffff16565b9050919050565b6106356111f3565b61063e82610610565b61067f57816040517f498f12f60000000000000000000000000000000000000000000000000000000081526004016106769190612bbe565b60405180910390fd5b6106d081600660008573ffffffffffffffffffffffffffffffffffffffff1673ffffffffffffffffffffffffffffffffffffffff16815260200190815260200160002061142b90919063ffffffff16565b7f578db78e348076074dbff64a94073a83e9a65aa6766b8c75fdc89282b0e30ed68282604051610701929190613477565b60405180910390a15050565b6107156128bc565b610886600660008473ffffffffffffffffffffffffffffffffffffffff1673ffffffffffffffffffffffffffffffffffffffff1681526020019081526020016000206040518060a00160405290816000820160009054906101000a90046fffffffffffffffffffffffffffffffff166fffffffffffffffffffffffffffffffff166fffffffffffffffffffffffffffffffff1681526020016000820160109054906101000a900463ffffffff1663ffffffff1663ffffffff1681526020016000820160149054906101000a900460ff161515151581526020016001820160009054906101000a90046fffffffffffffffffffffffffffffffff166fffffffffffffffffffffffffffffffff166fffffffffffffffffffffffffffffffff1681526020016001820160109054906101000a90046fffffffffffffffffffffffffffffffff166fffffffffffffffffffffffffffffffff166fffffffffffffffffffffffffffffffff16815250506116c3565b9050919050565b600160009054906101000a900473ffffffffffffffffffffffffffffffffffffffff1673ffffffffffffffffffffffffffffffffffffffff163373ffffffffffffffffffffffffffffffffffffffff161461091d576040517f08c379a0000000000000000000000000000000000000000000000000000000008152600401610914906134ec565b60405180910390fd5b60008060009054906101000a900473ffffffffffffffffffffffffffffffffffffffff169050336000806101000a81548173ffffffffffffffffffffffffffffffffffffffff021916908373ffffffffffffffffffffffffffffffffffffffff1602179055506000600160006101000a81548173ffffffffffffffffffffffffffffffffffffffff021916908373ffffffffffffffffffffffffffffffffffffffff1602179055503373ffffffffffffffffffffffffffffffffffffffff168173ffffffffffffffffffffffffffffffffffffffff167f8be0079c531659141344cd1fd0a4f28419497f9722a3daafe3b4186f6b6457e060405160405180910390a350565b7f000000000000000000000000000000000000000000000000000000000000000073ffffffffffffffffffffffffffffffffffffffff1663397796f76040518163ffffffff1660e01b8152600401602060405180830381865afa158015610a8d573d6000803e3d6000fd5b505050506040513d601f19601f82011682018060405250810190610ab19190613521565b15610ae8576040517fc148371500000000000000000000000000000000000000000000000000000000815260040160405180910390fd5b610af133610509565b610b27576040517f5307f5ab00000000000000000000000000000000000000000000000000000000815260040160405180910390fd5b610b308361177d565b7f000000000000000000000000000000000000000000000000000000000000000073ffffffffffffffffffffffffffffffffffffffff166340c10f1985856040518363ffffffff1660e01b8152600401610b8b92919061355d565b600060405180830381600087803b158015610ba557600080fd5b505af1158015610bb9573d6000803e3d6000fd5b505050508373ffffffffffffffffffffffffffffffffffffffff163373ffffffffffffffffffffffffffffffffffffffff167f9d228d69b5fdb8d273a2336f8fb8612d039631024ea9bf09c424a9503aa078f085604051610c1a9190613586565b60405180910390a35050505050565b6060610c3560046117f3565b905090565b60008060009054906101000a900473ffffffffffffffffffffffffffffffffffffffff16905090565b6060610c6e33610610565b610ca4576040517f5307f5ab00000000000000000000000000000000000000000000000000000000815260040160405180910390fd5b877f00000000000000000000000000000000000000000000000000000000000000008015610ce35750610ce18160026111c390919063ffffffff16565b155b15610d2557806040517fd0d25976000000000000000000000000000000000000000000000000000000008152600401610d1c9190612bbe565b60405180910390fd5b7f000000000000000000000000000000000000000000000000000000000000000073ffffffffffffffffffffffffffffffffffffffff1663397796f76040518163ffffffff1660e01b8152600401602060405180830381865afa158015610d90573d6000803e3d6000fd5b505050506040513d601f19601f82011682018060405250810190610db49190613521565b15610deb576040517fc148371500000000000000000000000000000000000000000000000000000000815260040160405180910390fd5b610df486611814565b7f000000000000000000000000000000000000000000000000000000000000000073ffffffffffffffffffffffffffffffffffffffff166342966c68876040518263ffffffff1660e01b8152600401610e4d9190613586565b600060405180830381600087803b158015610e6757600080fd5b505af1158015610e7b573d6000803e3d6000fd5b505050503373ffffffffffffffffffffffffffffffffffffffff167f696de425f79f4a40bc6d2122ca50507f0efbeabbff86a84871b7196ab8ea8df787604051610ec59190613586565b60405180910390a260405180602001604052806000815250915050979650505050505050565b6060610ef760076117f3565b905090565b6060610f0860026117f3565b905090565b610f156128bc565b611086600960008473ffffffffffffffffffffffffffffffffffffffff1673ffffffffffffffffffffffffffffffffffffffff1681526020019081526020016000206040518060a00160405290816000820160009054906101000a90046fffffffffffffffffffffffffffffffff166fffffffffffffffffffffffffffffffff166fffffffffffffffffffffffffffffffff1681526020016000820160109054906101000a900463ffffffff1663ffffffff1663ffffffff1681526020016000820160149054906101000a900460ff161515151581526020016001820160009054906101000a90046fffffffffffffffffffffffffffffffff166fffffffffffffffffffffffffffffffff166fffffffffffffffffffffffffffffffff1681526020016001820160109054906101000a90046fffffffffffffffffffffffffffffffff166fffffffffffffffffffffffffffffffff166fffffffffffffffffffffffffffffffff16815250506116c3565b9050919050565b6110956111f3565b6110a18484848461188a565b50505050565b6110af6111f3565b6110b882610509565b6110f957816040517f498f12f60000000000000000000000000000000000000000000000000000000081526004016110f09190612bbe565b60405180910390fd5b61114a81600960008573ffffffffffffffffffffffffffffffffffffffff1673ffffffffffffffffffffffffffffffffffffffff16815260200190815260200160002061142b90919063ffffffff16565b7fb3ba339cfbb8ef80d7a29ce5493051cb90e64fcfa85d7124efc1adfa4c68399f828260405161117b929190613477565b60405180910390a15050565b60007f0000000000000000000000000000000000000000000000000000000000000000905090565b6111b76111f3565b6111c08161211e565b50565b60006111eb836000018373ffffffffffffffffffffffffffffffffffffffff1660001b61224a565b905092915050565b60008054906101000a900473ffffffffffffffffffffffffffffffffffffffff1673ffffffffffffffffffffffffffffffffffffffff163373ffffffffffffffffffffffffffffffffffffffff1614611281576040517f08c379a0000000000000000000000000000000000000000000000000000000008152600401611278906135ed565b60405180910390fd5b565b7f00000000000000000000000000000000000000000000000000000000000000006112da576040517f35f4a7b300000000000000000000000000000000000000000000000000000000815260040160405180910390fd5b60005b82518110156113625760008382815181106112fb576112fa61360d565b5b6020026020010151905061131981600261226d90919063ffffffff16565b15611356577f800671136ab6cfee9fbe5ed1fb7ca417811aca3cf864800d127b927adedf75668160405161134d9190612bbe565b60405180910390a15b508060010190506112dd565b5060005b81518110156114265760008282815181106113845761138361360d565b5b60200260200101519050600073ffffffffffffffffffffffffffffffffffffffff168173ffffffffffffffffffffffffffffffffffffffff16036113c8575061141b565b6113dc81600261229d90919063ffffffff16565b15611419577f2640d4d76caf8bf478aabfa982fa4e1c4eb71a37f93cd15e80dbc657911546d8816040516114109190612bbe565b60405180910390a15b505b806001019050611366565b505050565b60008260000160109054906101000a900463ffffffff1663ffffffff1642611453919061366b565b90506000811461155d576114ff8360010160009054906101000a90046fffffffffffffffffffffffffffffffff166fffffffffffffffffffffffffffffffff168460000160009054906101000a90046fffffffffffffffffffffffffffffffff166fffffffffffffffffffffffffffffffff16838660010160109054906101000a90046fffffffffffffffffffffffffffffffff166fffffffffffffffffffffffffffffffff166122cd565b8360000160006101000a8154816fffffffffffffffffffffffffffffffff02191690836fffffffffffffffffffffffffffffffff160217905550428360000160106101000a81548163ffffffff021916908363ffffffff1602179055505b6115af82602001516fffffffffffffffffffffffffffffffff168460000160009054906101000a90046fffffffffffffffffffffffffffffffff166fffffffffffffffffffffffffffffffff166122f9565b8360000160006101000a8154816fffffffffffffffffffffffffffffffff02191690836fffffffffffffffffffffffffffffffff16021790555081600001518360000160146101000a81548160ff02191690831515021790555081602001518360010160006101000a8154816fffffffffffffffffffffffffffffffff02191690836fffffffffffffffffffffffffffffffff16021790555081604001518360010160106101000a8154816fffffffffffffffffffffffffffffffff02191690836fffffffffffffffffffffffffffffffff1602179055507f9ea3374b67bf275e6bb9c8ae68f9cae023e1c528b4b27e092f0bb209d3531c19826040516116b6919061369f565b60405180910390a1505050565b6116cb6128bc565b61172e82606001516fffffffffffffffffffffffffffffffff1683600001516fffffffffffffffffffffffffffffffff16846020015163ffffffff1642611712919061366b565b85608001516fffffffffffffffffffffffffffffffff166122cd565b82600001906fffffffffffffffffffffffffffffffff1690816fffffffffffffffffffffffffffffffff168152505042826020019063ffffffff16908163ffffffff1681525050819050919050565b6117f0817f0000000000000000000000000000000000000000000000000000000000000000600960003373ffffffffffffffffffffffffffffffffffffffff1673ffffffffffffffffffffffffffffffffffffffff1681526020019081526020016000206123129092919063ffffffff16565b50565b60606000611803836000016126dc565b905060608190508092505050919050565b611887817f0000000000000000000000000000000000000000000000000000000000000000600660003373ffffffffffffffffffffffffffffffffffffffff1673ffffffffffffffffffffffffffffffffffffffff1681526020019081526020016000206123129092919063ffffffff16565b50565b6118926111f3565b60005b84849050811015611cd45760008585838181106118b5576118b461360d565b5b905060a002018036038101906118cb919061371e565b9050806020015115611b4f576118ef8160000151600461229d90919063ffffffff16565b15611b09576040518060a001604052808260400151602001516fffffffffffffffffffffffffffffffff1681526020014263ffffffff168152602001826040015160000151151581526020018260400151602001516fffffffffffffffffffffffffffffffff1681526020018260400151604001516fffffffffffffffffffffffffffffffff1681525060066000836000015173ffffffffffffffffffffffffffffffffffffffff1673ffffffffffffffffffffffffffffffffffffffff16815260200190815260200160002060008201518160000160006101000a8154816fffffffffffffffffffffffffffffffff02191690836fffffffffffffffffffffffffffffffff16021790555060208201518160000160106101000a81548163ffffffff021916908363ffffffff16021790555060408201518160000160146101000a81548160ff02191690831515021790555060608201518160010160006101000a8154816fffffffffffffffffffffffffffffffff02191690836fffffffffffffffffffffffffffffffff16021790555060808201518160010160106101000a8154816fffffffffffffffffffffffffffffffff02191690836fffffffffffffffffffffffffffffffff1602179055509050507f0b594bb0555ff7b252e0c789ccc9d8903fec294172064308727d570505cee1ac81600001518260400151604051611afc929190613477565b60405180910390a1611b4a565b80600001516040517fd3eb6bc5000000000000000000000000000000000000000000000000000000008152600401611b419190612bbe565b60405180910390fd5b611cc8565b611b678160000151600461226d90919063ffffffff16565b15611c865760066000826000015173ffffffffffffffffffffffffffffffffffffffff1673ffffffffffffffffffffffffffffffffffffffff168152602001908152602001600020600080820160006101000a8154906fffffffffffffffffffffffffffffffff02191690556000820160106101000a81549063ffffffff02191690556000820160146101000a81549060ff02191690556001820160006101000a8154906fffffffffffffffffffffffffffffffff02191690556001820160106101000a8154906fffffffffffffffffffffffffffffffff021916905550507f7fd064821314ad863a0714a3f1229375ace6b6427ed5544b7b2ba1c47b1b52948160000151604051611c799190612bbe565b60405180910390a1611cc7565b80600001516040517f498f12f6000000000000000000000000000000000000000000000000000000008152600401611cbe9190612bbe565b60405180910390fd5b5b50806001019050611895565b5060005b82829050811015612117576000838383818110611cf857611cf761360d565b5b905060a00201803603810190611d0e919061371e565b9050806020015115611f9257611d328160000151600761229d90919063ffffffff16565b15611f4c576040518060a001604052808260400151602001516fffffffffffffffffffffffffffffffff1681526020014263ffffffff168152602001826040015160000151151581526020018260400151602001516fffffffffffffffffffffffffffffffff1681526020018260400151604001516fffffffffffffffffffffffffffffffff1681525060096000836000015173ffffffffffffffffffffffffffffffffffffffff1673ffffffffffffffffffffffffffffffffffffffff16815260200190815260200160002060008201518160000160006101000a8154816fffffffffffffffffffffffffffffffff02191690836fffffffffffffffffffffffffffffffff16021790555060208201518160000160106101000a81548163ffffffff021916908363ffffffff16021790555060408201518160000160146101000a81548160ff02191690831515021790555060608201518160010160006101000a8154816fffffffffffffffffffffffffffffffff02191690836fffffffffffffffffffffffffffffffff16021790555060808201518160010160106101000a8154816fffffffffffffffffffffffffffffffff02191690836fffffffffffffffffffffffffffffffff1602179055509050507f395b7374909d2b54e5796f53c898ebf41d767c86c78ea86519acf2b805852d8881600001518260400151604051611f3f929190613477565b60405180910390a1611f8d565b80600001516040517fd3eb6bc5000000000000000000000000000000000000000000000000000000008152600401611f849190612bbe565b60405180910390fd5b61210b565b611faa8160000151600761226d90919063ffffffff16565b156120c95760096000826000015173ffffffffffffffffffffffffffffffffffffffff1673ffffffffffffffffffffffffffffffffffffffff168152602001908152602001600020600080820160006101000a8154906fffffffffffffffffffffffffffffffff02191690556000820160106101000a81549063ffffffff02191690556000820160146101000a81549060ff02191690556001820160006101000a8154906fffffffffffffffffffffffffffffffff02191690556001820160106101000a8154906fffffffffffffffffffffffffffffffff021916905550507fcf91daec21e3510e2f2aea4b09d08c235d5c6844980be709f282ef591dbf420c81600001516040516120bc9190612bbe565b60405180910390a161210a565b80600001516040517f498f12f60000000000000000000000000000000000000000000000000000000081526004016121019190612bbe565b60405180910390fd5b5b50806001019050611cd8565b5050505050565b3373ffffffffffffffffffffffffffffffffffffffff168173ffffffffffffffffffffffffffffffffffffffff160361218c576040517f08c379a000000000000000000000000000000000000000000000000000000000815260040161218390613797565b60405180910390fd5b80600160006101000a81548173ffffffffffffffffffffffffffffffffffffffff021916908373ffffffffffffffffffffffffffffffffffffffff1602179055508073ffffffffffffffffffffffffffffffffffffffff1660008054906101000a900473ffffffffffffffffffffffffffffffffffffffff1673ffffffffffffffffffffffffffffffffffffffff167fed8889f560326eb138920d842192f0eb3dd22b4f139c87a2c57538e05bae127860405160405180910390a350565b600080836001016000848152602001908152602001600020541415905092915050565b6000612295836000018373ffffffffffffffffffffffffffffffffffffffff1660001b612738565b905092915050565b60006122c5836000018373ffffffffffffffffffffffffffffffffffffffff1660001b61284c565b905092915050565b60006122ef8583856122df91906137b7565b866122ea91906137f9565b6122f9565b9050949350505050565b6000818310612308578161230a565b825b905092915050565b8260000160149054906101000a900460ff1615806123305750600082145b6126d75760008360000160009054906101000a90046fffffffffffffffffffffffffffffffff166fffffffffffffffffffffffffffffffff16905060008460010160009054906101000a90046fffffffffffffffffffffffffffffffff166fffffffffffffffffffffffffffffffff16905060008560000160109054906101000a900463ffffffff1663ffffffff16426123ca919061366b565b905060008114612472578183111561240e576040517f9725942a00000000000000000000000000000000000000000000000000000000815260040160405180910390fd5b61244c8284838960010160109054906101000a90046fffffffffffffffffffffffffffffffff166fffffffffffffffffffffffffffffffff166122cd565b9250428660000160106101000a81548163ffffffff021916908363ffffffff1602179055505b8482101561252e57600073ffffffffffffffffffffffffffffffffffffffff168473ffffffffffffffffffffffffffffffffffffffff16036124ed5781856040517ff94ebcd10000000000000000000000000000000000000000000000000000000081526004016124e492919061382d565b60405180910390fd5b8185856040517f1a76572a00000000000000000000000000000000000000000000000000000000815260040161252593929190613856565b60405180910390fd5b848310156126535760008660010160109054906101000a90046fffffffffffffffffffffffffffffffff166fffffffffffffffffffffffffffffffff16905060008160018361257d919061366b565b8689612589919061366b565b61259391906137f9565b61259d91906138bc565b9050600073ffffffffffffffffffffffffffffffffffffffff168673ffffffffffffffffffffffffffffffffffffffff16036126125780856040517f15279c0800000000000000000000000000000000000000000000000000000000815260040161260992919061382d565b60405180910390fd5b8085876040517fd0c8d23a00000000000000000000000000000000000000000000000000000000815260040161264a93929190613856565b60405180910390fd5b848361265f919061366b565b9250828660000160006101000a8154816fffffffffffffffffffffffffffffffff02191690836fffffffffffffffffffffffffffffffff1602179055507f1871cdf8010e63f2eb8384381a68dfa7416dc571a5517e66e88b2d2d0c0a690a856040516126cb9190613586565b60405180910390a15050505b505050565b60608160000180548060200260200160405190810160405280929190818152602001828054801561272c57602002820191906000526020600020905b815481526020019060010190808311612718575b50505050509050919050565b6000808360010160008481526020019081526020016000205490506000811461284057600060018261276a919061366b565b9050600060018660000180549050612782919061366b565b90508181146127f15760008660000182815481106127a3576127a261360d565b5b90600052602060002001549050808760000184815481106127c7576127c661360d565b5b90600052602060002001819055508387600101600083815260200190815260200160002081905550505b85600001805480612805576128046138ed565b5b600190038181906000526020600020016000905590558560010160008681526020019081526020016000206000905560019350505050612846565b60009150505b92915050565b6000612858838361224a565b6128b15782600001829080600181540180825580915050600190039060005260206000200160009091909190915055826000018054905083600101600084815260200190815260200160002081905550600190506128b6565b600090505b92915050565b6040518060a0016040528060006fffffffffffffffffffffffffffffffff168152602001600063ffffffff16815260200160001515815260200160006fffffffffffffffffffffffffffffffff16815260200160006fffffffffffffffffffffffffffffffff1681525090565b6000604051905090565b600080fd5b600080fd5b60007fffffffff0000000000000000000000000000000000000000000000000000000082169050919050565b6129728161293d565b811461297d57600080fd5b50565b60008135905061298f81612969565b92915050565b6000602082840312156129ab576129aa612933565b5b60006129b984828501612980565b91505092915050565b60008115159050919050565b6129d7816129c2565b82525050565b60006020820190506129f260008301846129ce565b92915050565b600081519050919050565b600082825260208201905092915050565b60005b83811015612a32578082015181840152602081019050612a17565b60008484015250505050565b6000601f19601f8301169050919050565b6000612a5a826129f8565b612a648185612a03565b9350612a74818560208601612a14565b612a7d81612a3e565b840191505092915050565b60006020820190508181036000830152612aa28184612a4f565b905092915050565b600073ffffffffffffffffffffffffffffffffffffffff82169050919050565b6000612ad582612aaa565b9050919050565b612ae581612aca565b8114612af057600080fd5b50565b600081359050612b0281612adc565b92915050565b600060208284031215612b1e57612b1d612933565b5b6000612b2c84828501612af3565b91505092915050565b6000819050919050565b6000612b5a612b55612b5084612aaa565b612b35565b612aaa565b9050919050565b6000612b6c82612b3f565b9050919050565b6000612b7e82612b61565b9050919050565b612b8e81612b73565b82525050565b6000602082019050612ba96000830184612b85565b92915050565b612bb881612aca565b82525050565b6000602082019050612bd36000830184612baf565b92915050565b600080fd5b600080fd5b600080fd5b60008083601f840112612bfe57612bfd612bd9565b5b8235905067ffffffffffffffff811115612c1b57612c1a612bde565b5b602083019150836020820283011115612c3757612c36612be3565b5b9250929050565b60008060008060408587031215612c5857612c57612933565b5b600085013567ffffffffffffffff811115612c7657612c75612938565b5b612c8287828801612be8565b9450945050602085013567ffffffffffffffff811115612ca557612ca4612938565b5b612cb187828801612be8565b925092505092959194509250565b600080fd5b7f4e487b7100000000000000000000000000000000000000000000000000000000600052604160045260246000fd5b612cfc82612a3e565b810181811067ffffffffffffffff82111715612d1b57612d1a612cc4565b5b80604052505050565b6000612d2e612929565b9050612d3a8282612cf3565b919050565b612d48816129c2565b8114612d5357600080fd5b50565b600081359050612d6581612d3f565b92915050565b60006fffffffffffffffffffffffffffffffff82169050919050565b612d9081612d6b565b8114612d9b57600080fd5b50565b600081359050612dad81612d87565b92915050565b600060608284031215612dc957612dc8612cbf565b5b612dd36060612d24565b90506000612de384828501612d56565b6000830152506020612df784828501612d9e565b6020830152506040612e0b84828501612d9e565b60408301525092915050565b60008060808385031215612e2e57612e2d612933565b5b6000612e3c85828601612af3565b9250506020612e4d85828601612db3565b9150509250929050565b612e6081612d6b565b82525050565b600063ffffffff82169050919050565b612e7f81612e66565b82525050565b612e8e816129c2565b82525050565b60a082016000820151612eaa6000850182612e57565b506020820151612ebd6020850182612e76565b506040820151612ed06040850182612e85565b506060820151612ee36060850182612e57565b506080820151612ef66080850182612e57565b50505050565b600060a082019050612f116000830184612e94565b92915050565b600080fd5b600067ffffffffffffffff821115612f3757612f36612cc4565b5b612f4082612a3e565b9050602081019050919050565b82818337600083830152505050565b6000612f6f612f6a84612f1c565b612d24565b905082815260208101848484011115612f8b57612f8a612f17565b5b612f96848285612f4d565b509392505050565b600082601f830112612fb357612fb2612bd9565b5b8135612fc3848260208601612f5c565b91505092915050565b6000819050919050565b612fdf81612fcc565b8114612fea57600080fd5b50565b600081359050612ffc81612fd6565b92915050565b600067ffffffffffffffff82169050919050565b61301f81613002565b811461302a57600080fd5b50565b60008135905061303c81613016565b92915050565b600080600080600060a0868803121561305e5761305d612933565b5b600086013567ffffffffffffffff81111561307c5761307b612938565b5b61308888828901612f9e565b955050602061309988828901612af3565b94505060406130aa88828901612fed565b93505060606130bb8882890161302d565b925050608086013567ffffffffffffffff8111156130dc576130db612938565b5b6130e888828901612f9e565b9150509295509295909350565b600081519050919050565b600082825260208201905092915050565b6000819050602082019050919050565b61312a81612aca565b82525050565b600061313c8383613121565b60208301905092915050565b6000602082019050919050565b6000613160826130f5565b61316a8185613100565b935061317583613111565b8060005b838110156131a657815161318d8882613130565b975061319883613148565b925050600181019050613179565b5085935050505092915050565b600060208201905081810360008301526131cd8184613155565b905092915050565b60008083601f8401126131eb576131ea612bd9565b5b8235905067ffffffffffffffff81111561320857613207612bde565b5b60208301915083600182028301111561322457613223612be3565b5b9250929050565b600080600080600080600060a0888a03121561324a57613249612933565b5b60006132588a828b01612af3565b975050602088013567ffffffffffffffff81111561327957613278612938565b5b6132858a828b016131d5565b965096505060406132988a828b01612fed565b94505060606132a98a828b0161302d565b935050608088013567ffffffffffffffff8111156132ca576132c9612938565b5b6132d68a828b016131d5565b925092505092959891949750929550565b600081519050919050565b600082825260208201905092915050565b600061330e826132e7565b61331881856132f2565b9350613328818560208601612a14565b61333181612a3e565b840191505092915050565b600060208201905081810360008301526133568184613303565b905092915050565b60008083601f84011261337457613373612bd9565b5b8235905067ffffffffffffffff81111561339157613390612bde565b5b6020830191508360a08202830111156133ad576133ac612be3565b5b9250929050565b600080600080604085870312156133ce576133cd612933565b5b600085013567ffffffffffffffff8111156133ec576133eb612938565b5b6133f88782880161335e565b9450945050602085013567ffffffffffffffff81111561341b5761341a612938565b5b6134278782880161335e565b925092505092959194509250565b60608201600082015161344b6000850182612e85565b50602082015161345e6020850182612e57565b5060408201516134716040850182612e57565b50505050565b600060808201905061348c6000830185612baf565b6134996020830184613435565b9392505050565b7f4d7573742062652070726f706f736564206f776e657200000000000000000000600082015250565b60006134d6601683612a03565b91506134e1826134a0565b602082019050919050565b60006020820190508181036000830152613505816134c9565b9050919050565b60008151905061351b81612d3f565b92915050565b60006020828403121561353757613536612933565b5b60006135458482850161350c565b91505092915050565b61355781612fcc565b82525050565b60006040820190506135726000830185612baf565b61357f602083018461354e565b9392505050565b600060208201905061359b600083018461354e565b92915050565b7f4f6e6c792063616c6c61626c65206279206f776e657200000000000000000000600082015250565b60006135d7601683612a03565b91506135e2826135a1565b602082019050919050565b60006020820190508181036000830152613606816135ca565b9050919050565b7f4e487b7100000000000000000000000000000000000000000000000000000000600052603260045260246000fd5b7f4e487b7100000000000000000000000000000000000000000000000000000000600052601160045260246000fd5b600061367682612fcc565b915061368183612fcc565b92508282039050818111156136995761369861363c565b5b92915050565b60006060820190506136b46000830184613435565b92915050565b600060a082840312156136d0576136cf612cbf565b5b6136da6060612d24565b905060006136ea84828501612af3565b60008301525060206136fe84828501612d56565b602083015250604061371284828501612db3565b60408301525092915050565b600060a0828403121561373457613733612933565b5b6000613742848285016136ba565b91505092915050565b7f43616e6e6f74207472616e7366657220746f2073656c66000000000000000000600082015250565b6000613781601783612a03565b915061378c8261374b565b602082019050919050565b600060208201905081810360008301526137b081613774565b9050919050565b60006137c282612fcc565b91506137cd83612fcc565b92508282026137db81612fcc565b915082820484148315176137f2576137f161363c565b5b5092915050565b600061380482612fcc565b915061380f83612fcc565b92508282019050808211156138275761382661363c565b5b92915050565b6000604082019050613842600083018561354e565b61384f602083018461354e565b9392505050565b600060608201905061386b600083018661354e565b613878602083018561354e565b6138856040830184612baf565b949350505050565b7f4e487b7100000000000000000000000000000000000000000000000000000000600052601260045260246000fd5b60006138c782612fcc565b91506138d283612fcc565b9250826138e2576138e161388d565b5b828204905092915050565b7f4e487b7100000000000000000000000000000000000000000000000000000000600052603160045260246000fdfea164736f6c6343000818000a","linkReferences":{}},"methodIdentifiers":{"acceptOwnership()":"79ba5097","applyAllowListUpdates(address[],address[])":"54c8a4f3","applyRampUpdates((address,bool,(bool,uint128,uint128))[],(address,bool,(bool,uint128,uint128))[])":"c49907b5","currentOffRampRateLimiterState(address)":"b3a3fb41","currentOnRampRateLimiterState(address)":"7787e7ab","getAllowList()":"a7cd63b7","getAllowListEnabled()":"e0351e13","getArmProxy()":"5246492f","getOffRamps()":"a40e69c7","getOnRamps()":"87381314","getToken()":"21df0da7","isOffRamp(address)":"1d7a74a0","isOnRamp(address)":"6f32b872","lockOrBurn(address,bytes,uint256,uint64,bytes)":"96875445","owner()":"8da5cb5b","releaseOrMint(bytes,address,uint256,uint64,bytes)":"8627fad6","setOffRampRateLimiterConfig(address,(bool,uint128,uint128))":"d612b945","setOnRampRateLimiterConfig(address,(bool,uint128,uint128))":"7448b3c7","supportsInterface(bytes4)":"01ffc9a7","transferOwnership(address)":"f2fde38b","typeAndVersion()":"181f5a77"},"id":101}