{"abi":[{"type":"constructor","inputs":[{"name":"staticConfig","type":"tuple","internalType":"struct EVM2EVMOnRamp.StaticConfig","components":[{"name":"linkToken","type":"address","internalType":"address"},{"name":"chainSelector","type":"uint64","internalType":"uint64"},{"name":"destChainSelector","type":"uint64","internalType":"uint64"},{"name":"defaultTxGasLimit","type":"uint64","internalType":"uint64"},{"name":"maxNopFeesJuels","type":"uint96","internalType":"uint96"},{"name":"prevOnRamp","type":"address","internalType":"address"},{"name":"rmnProxy","type":"address","internalType":"address"},{"name":"tokenAdminRegistry","type":"address","internalType":"address"}]},{"name":"dynamicConfig","type":"tuple","internalType":"struct EVM2EVMOnRamp.DynamicConfig","components":[{"name":"router","type":"address","internalType":"address"},{"name":"maxNumberOfTokensPerMsg","type":"uint16","internalType":"uint16"},{"name":"destGasOverhead","type":"uint32","internalType":"uint32"},{"name":"destGasPerPayloadByte","type":"uint16","internalType":"uint16"},{"name":"destDataAvailabilityOverheadGas","type":"uint32","internalType":"uint32"},{"name":"destGasPerDataAvailabilityByte","type":"uint16","internalType":"uint16"},{"name":"destDataAvailabilityMultiplierBps","type":"uint16","internalType":"uint16"},{"name":"priceRegistry","type":"address","internalType":"address"},{"name":"maxDataBytes","type":"uint32","internalType":"uint32"},{"name":"maxPerMsgGasLimit","type":"uint32","internalType":"uint32"},{"name":"defaultTokenFeeUSDCents","type":"uint16","internalType":"uint16"},{"name":"defaultTokenDestGasOverhead","type":"uint32","internalType":"uint32"},{"name":"defaultTokenDestBytesOverhead","type":"uint32","internalType":"uint32"},{"name":"enforceOutOfOrder","type":"bool","internalType":"bool"}]},{"name":"rateLimiterConfig","type":"tuple","internalType":"struct RateLimiter.Config","components":[{"name":"isEnabled","type":"bool","internalType":"bool"},{"name":"capacity","type":"uint128","internalType":"uint128"},{"name":"rate","type":"uint128","internalType":"uint128"}]},{"name":"feeTokenConfigs","type":"tuple[]","internalType":"struct EVM2EVMOnRamp.FeeTokenConfigArgs[]","components":[{"name":"token","type":"address","internalType":"address"},{"name":"networkFeeUSDCents","type":"uint32","internalType":"uint32"},{"name":"gasMultiplierWeiPerEth","type":"uint64","internalType":"uint64"},{"name":"premiumMultiplierWeiPerEth","type":"uint64","internalType":"uint64"},{"name":"enabled","type":"bool","internalType":"bool"}]},{"name":"tokenTransferFeeConfigArgs","type":"tuple[]","internalType":"struct EVM2EVMOnRamp.TokenTransferFeeConfigArgs[]","components":[{"name":"token","type":"address","internalType":"address"},{"name":"minFeeUSDCents","type":"uint32","internalType":"uint32"},{"name":"maxFeeUSDCents","type":"uint32","internalType":"uint32"},{"name":"deciBps","type":"uint16","internalType":"uint16"},{"name":"destGasOverhead","type":"uint32","internalType":"uint32"},{"name":"destBytesOverhead","type":"uint32","internalType":"uint32"},{"name":"aggregateRateLimitEnabled","type":"bool","internalType":"bool"}]},{"name":"nopsAndWeights","type":"tuple[]","internalType":"struct EVM2EVMOnRamp.NopAndWeight[]","components":[{"name":"nop","type":"address","internalType":"address"},{"name":"weight","type":"uint16","internalType":"uint16"}]}],"stateMutability":"nonpayable"},{"type":"function","name":"acceptOwnership","inputs":[],"outputs":[],"stateMutability":"nonpayable"},{"type":"function","name":"currentRateLimiterState","inputs":[],"outputs":[{"name":"","type":"tuple","internalType":"struct RateLimiter.TokenBucket","components":[{"name":"tokens","type":"uint128","internalType":"uint128"},{"name":"lastUpdated","type":"uint32","internalType":"uint32"},{"name":"isEnabled","type":"bool","internalType":"bool"},{"name":"capacity","type":"uint128","internalType":"uint128"},{"name":"rate","type":"uint128","internalType":"uint128"}]}],"stateMutability":"view"},{"type":"function","name":"forwardFromRouter","inputs":[{"name":"destChainSelector","type":"uint64","internalType":"uint64"},{"name":"message","type":"tuple","internalType":"struct Client.EVM2AnyMessage","components":[{"name":"receiver","type":"bytes","internalType":"bytes"},{"name":"data","type":"bytes","internalType":"bytes"},{"name":"tokenAmounts","type":"tuple[]","internalType":"struct Client.EVMTokenAmount[]","components":[{"name":"token","type":"address","internalType":"address"},{"name":"amount","type":"uint256","internalType":"uint256"}]},{"name":"feeToken","type":"address","internalType":"address"},{"name":"extraArgs","type":"bytes","internalType":"bytes"}]},{"name":"feeTokenAmount","type":"uint256","internalType":"uint256"},{"name":"originalSender","type":"address","internalType":"address"}],"outputs":[{"name":"","type":"bytes32","internalType":"bytes32"}],"stateMutability":"nonpayable"},{"type":"function","name":"getDynamicConfig","inputs":[],"outputs":[{"name":"dynamicConfig","type":"tuple","internalType":"struct EVM2EVMOnRamp.DynamicConfig","components":[{"name":"router","type":"address","internalType":"address"},{"name":"maxNumberOfTokensPerMsg","type":"uint16","internalType":"uint16"},{"name":"destGasOverhead","type":"uint32","internalType":"uint32"},{"name":"destGasPerPayloadByte","type":"uint16","internalType":"uint16"},{"name":"destDataAvailabilityOverheadGas","type":"uint32","internalType":"uint32"},{"name":"destGasPerDataAvailabilityByte","type":"uint16","internalType":"uint16"},{"name":"destDataAvailabilityMultiplierBps","type":"uint16","internalType":"uint16"},{"name":"priceRegistry","type":"address","internalType":"address"},{"name":"maxDataBytes","type":"uint32","internalType":"uint32"},{"name":"maxPerMsgGasLimit","type":"uint32","internalType":"uint32"},{"name":"defaultTokenFeeUSDCents","type":"uint16","internalType":"uint16"},{"name":"defaultTokenDestGasOverhead","type":"uint32","internalType":"uint32"},{"name":"defaultTokenDestBytesOverhead","type":"uint32","internalType":"uint32"},{"name":"enforceOutOfOrder","type":"bool","internalType":"bool"}]}],"stateMutability":"view"},{"type":"function","name":"getExpectedNextSequenceNumber","inputs":[],"outputs":[{"name":"","type":"uint64","internalType":"uint64"}],"stateMutability":"view"},{"type":"function","name":"getFee","inputs":[{"name":"destChainSelector","type":"uint64","internalType":"uint64"},{"name":"message","type":"tuple","internalType":"struct Client.EVM2AnyMessage","components":[{"name":"receiver","type":"bytes","internalType":"bytes"},{"name":"data","type":"bytes","internalType":"bytes"},{"name":"tokenAmounts","type":"tuple[]","internalType":"struct Client.EVMTokenAmount[]","components":[{"name":"token","type":"address","internalType":"address"},{"name":"amount","type":"uint256","internalType":"uint256"}]},{"name":"feeToken","type":"address","internalType":"address"},{"name":"extraArgs","type":"bytes","internalType":"bytes"}]}],"outputs":[{"name":"feeTokenAmount","type":"uint256","internalType":"uint256"}],"stateMutability":"view"},{"type":"function","name":"getFeeTokenConfig","inputs":[{"name":"token","type":"address","internalType":"address"}],"outputs":[{"name":"feeTokenConfig","type":"tuple","internalType":"struct EVM2EVMOnRamp.FeeTokenConfig","components":[{"name":"networkFeeUSDCents","type":"uint32","internalType":"uint32"},{"name":"gasMultiplierWeiPerEth","type":"uint64","internalType":"uint64"},{"name":"premiumMultiplierWeiPerEth","type":"uint64","internalType":"uint64"},{"name":"enabled","type":"bool","internalType":"bool"}]}],"stateMutability":"view"},{"type":"function","name":"getNopFeesJuels","inputs":[],"outputs":[{"name":"totalNopFees","type":"uint96","internalType":"uint96"}],"stateMutability":"view"},{"type":"function","name":"getNops","inputs":[],"outputs":[{"name":"nopsAndWeights","type":"tuple[]","internalType":"struct EVM2EVMOnRamp.NopAndWeight[]","components":[{"name":"nop","type":"address","internalType":"address"},{"name":"weight","type":"uint16","internalType":"uint16"}]},{"name":"weightsTotal","type":"uint256","internalType":"uint256"}],"stateMutability":"view"},{"type":"function","name":"getPoolBySourceToken","inputs":[{"name":"","type":"uint64","internalType":"uint64"},{"name":"sourceToken","type":"address","internalType":"contract IERC20"}],"outputs":[{"name":"","type":"address","internalType":"contract IPoolV1"}],"stateMutability":"view"},{"type":"function","name":"getSenderNonce","inputs":[{"name":"sender","type":"address","internalType":"address"}],"outputs":[{"name":"","type":"uint64","internalType":"uint64"}],"stateMutability":"view"},{"type":"function","name":"getStaticConfig","inputs":[],"outputs":[{"name":"","type":"tuple","internalType":"struct EVM2EVMOnRamp.StaticConfig","components":[{"name":"linkToken","type":"address","internalType":"address"},{"name":"chainSelector","type":"uint64","internalType":"uint64"},{"name":"destChainSelector","type":"uint64","internalType":"uint64"},{"name":"defaultTxGasLimit","type":"uint64","internalType":"uint64"},{"name":"maxNopFeesJuels","type":"uint96","internalType":"uint96"},{"name":"prevOnRamp","type":"address","internalType":"address"},{"name":"rmnProxy","type":"address","internalType":"address"},{"name":"tokenAdminRegistry","type":"address","internalType":"address"}]}],"stateMutability":"view"},{"type":"function","name":"getSupportedTokens","inputs":[{"name":"","type":"uint64","internalType":"uint64"}],"outputs":[{"name":"","type":"address[]","internalType":"address[]"}],"stateMutability":"pure"},{"type":"function","name":"getTokenLimitAdmin","inputs":[],"outputs":[{"name":"","type":"address","internalType":"address"}],"stateMutability":"view"},{"type":"function","name":"getTokenTransferFeeConfig","inputs":[{"name":"token","type":"address","internalType":"address"}],"outputs":[{"name":"tokenTransferFeeConfig","type":"tuple","internalType":"struct EVM2EVMOnRamp.TokenTransferFeeConfig","components":[{"name":"minFeeUSDCents","type":"uint32","internalType":"uint32"},{"name":"maxFeeUSDCents","type":"uint32","internalType":"uint32"},{"name":"deciBps","type":"uint16","internalType":"uint16"},{"name":"destGasOverhead","type":"uint32","internalType":"uint32"},{"name":"destBytesOverhead","type":"uint32","internalType":"uint32"},{"name":"aggregateRateLimitEnabled","type":"bool","internalType":"bool"},{"name":"isEnabled","type":"bool","internalType":"bool"}]}],"stateMutability":"view"},{"type":"function","name":"linkAvailableForPayment","inputs":[],"outputs":[{"name":"","type":"int256","internalType":"int256"}],"stateMutability":"view"},{"type":"function","name":"owner","inputs":[],"outputs":[{"name":"","type":"address","internalType":"address"}],"stateMutability":"view"},{"type":"function","name":"payNops","inputs":[],"outputs":[],"stateMutability":"nonpayable"},{"type":"function","name":"setAdmin","inputs":[{"name":"newAdmin","type":"address","internalType":"address"}],"outputs":[],"stateMutability":"nonpayable"},{"type":"function","name":"setDynamicConfig","inputs":[{"name":"dynamicConfig","type":"tuple","internalType":"struct EVM2EVMOnRamp.DynamicConfig","components":[{"name":"router","type":"address","internalType":"address"},{"name":"maxNumberOfTokensPerMsg","type":"uint16","internalType":"uint16"},{"name":"destGasOverhead","type":"uint32","internalType":"uint32"},{"name":"destGasPerPayloadByte","type":"uint16","internalType":"uint16"},{"name":"destDataAvailabilityOverheadGas","type":"uint32","internalType":"uint32"},{"name":"destGasPerDataAvailabilityByte","type":"uint16","internalType":"uint16"},{"name":"destDataAvailabilityMultiplierBps","type":"uint16","internalType":"uint16"},{"name":"priceRegistry","type":"address","internalType":"address"},{"name":"maxDataBytes","type":"uint32","internalType":"uint32"},{"name":"maxPerMsgGasLimit","type":"uint32","internalType":"uint32"},{"name":"defaultTokenFeeUSDCents","type":"uint16","internalType":"uint16"},{"name":"defaultTokenDestGasOverhead","type":"uint32","internalType":"uint32"},{"name":"defaultTokenDestBytesOverhead","type":"uint32","internalType":"uint32"},{"name":"enforceOutOfOrder","type":"bool","internalType":"bool"}]}],"outputs":[],"stateMutability":"nonpayable"},{"type":"function","name":"setFeeTokenConfig","inputs":[{"name":"feeTokenConfigArgs","type":"tuple[]","internalType":"struct EVM2EVMOnRamp.FeeTokenConfigArgs[]","components":[{"name":"token","type":"address","internalType":"address"},{"name":"networkFeeUSDCents","type":"uint32","internalType":"uint32"},{"name":"gasMultiplierWeiPerEth","type":"uint64","internalType":"uint64"},{"name":"premiumMultiplierWeiPerEth","type":"uint64","internalType":"uint64"},{"name":"enabled","type":"bool","internalType":"bool"}]}],"outputs":[],"stateMutability":"nonpayable"},{"type":"function","name":"setNops","inputs":[{"name":"nopsAndWeights","type":"tuple[]","internalType":"struct EVM2EVMOnRamp.NopAndWeight[]","components":[{"name":"nop","type":"address","internalType":"address"},{"name":"weight","type":"uint16","internalType":"uint16"}]}],"outputs":[],"stateMutability":"nonpayable"},{"type":"function","name":"setRateLimiterConfig","inputs":[{"name":"config","type":"tuple","internalType":"struct RateLimiter.Config","components":[{"name":"isEnabled","type":"bool","internalType":"bool"},{"name":"capacity","type":"uint128","internalType":"uint128"},{"name":"rate","type":"uint128","internalType":"uint128"}]}],"outputs":[],"stateMutability":"nonpayable"},{"type":"function","name":"setTokenTransferFeeConfig","inputs":[{"name":"tokenTransferFeeConfigArgs","type":"tuple[]","internalType":"struct EVM2EVMOnRamp.TokenTransferFeeConfigArgs[]","components":[{"name":"token","type":"address","internalType":"address"},{"name":"minFeeUSDCents","type":"uint32","internalType":"uint32"},{"name":"maxFeeUSDCents","type":"uint32","internalType":"uint32"},{"name":"deciBps","type":"uint16","internalType":"uint16"},{"name":"destGasOverhead","type":"uint32","internalType":"uint32"},{"name":"destBytesOverhead","type":"uint32","internalType":"uint32"},{"name":"aggregateRateLimitEnabled","type":"bool","internalType":"bool"}]},{"name":"tokensToUseDefaultFeeConfigs","type":"address[]","internalType":"address[]"}],"outputs":[],"stateMutability":"nonpayable"},{"type":"function","name":"transferOwnership","inputs":[{"name":"to","type":"address","internalType":"address"}],"outputs":[],"stateMutability":"nonpayable"},{"type":"function","name":"typeAndVersion","inputs":[],"outputs":[{"name":"","type":"string","internalType":"string"}],"stateMutability":"view"},{"type":"function","name":"withdrawNonLinkFees","inputs":[{"name":"feeToken","type":"address","internalType":"address"},{"name":"to","type":"address","internalType":"address"}],"outputs":[],"stateMutability":"nonpayable"},{"type":"event","name":"AdminSet","inputs":[{"name":"newAdmin","type":"address","indexed":false,"internalType":"address"}],"anonymous":false},{"type":"event","name":"CCIPSendRequested","inputs":[{"name":"message","type":"tuple","indexed":false,"internalType":"struct Internal.EVM2EVMMessage","components":[{"name":"sourceChainSelector","type":"uint64","internalType":"uint64"},{"name":"sender","type":"address","internalType":"address"},{"name":"receiver","type":"address","internalType":"address"},{"name":"sequenceNumber","type":"uint64","internalType":"uint64"},{"name":"gasLimit","type":"uint256","internalType":"uint256"},{"name":"strict","type":"bool","internalType":"bool"},{"name":"nonce","type":"uint64","internalType":"uint64"},{"name":"feeToken","type":"address","internalType":"address"},{"name":"feeTokenAmount","type":"uint256","internalType":"uint256"},{"name":"data","type":"bytes","internalType":"bytes"},{"name":"tokenAmounts","type":"tuple[]","internalType":"struct Client.EVMTokenAmount[]","components":[{"name":"token","type":"address","internalType":"address"},{"name":"amount","type":"uint256","internalType":"uint256"}]},{"name":"sourceTokenData","type":"bytes[]","internalType":"bytes[]"},{"name":"messageId","type":"bytes32","internalType":"bytes32"}]}],"anonymous":false},{"type":"event","name":"ConfigChanged","inputs":[{"name":"config","type":"tuple","indexed":false,"internalType":"struct RateLimiter.Config","components":[{"name":"isEnabled","type":"bool","internalType":"bool"},{"name":"capacity","type":"uint128","internalType":"uint128"},{"name":"rate","type":"uint128","internalType":"uint128"}]}],"anonymous":false},{"type":"event","name":"ConfigSet","inputs":[{"name":"staticConfig","type":"tuple","indexed":false,"internalType":"struct EVM2EVMOnRamp.StaticConfig","components":[{"name":"linkToken","type":"address","internalType":"address"},{"name":"chainSelector","type":"uint64","internalType":"uint64"},{"name":"destChainSelector","type":"uint64","internalType":"uint64"},{"name":"defaultTxGasLimit","type":"uint64","internalType":"uint64"},{"name":"maxNopFeesJuels","type":"uint96","internalType":"uint96"},{"name":"prevOnRamp","type":"address","internalType":"address"},{"name":"rmnProxy","type":"address","internalType":"address"},{"name":"tokenAdminRegistry","type":"address","internalType":"address"}]},{"name":"dynamicConfig","type":"tuple","indexed":false,"internalType":"struct EVM2EVMOnRamp.DynamicConfig","components":[{"name":"router","type":"address","internalType":"address"},{"name":"maxNumberOfTokensPerMsg","type":"uint16","internalType":"uint16"},{"name":"destGasOverhead","type":"uint32","internalType":"uint32"},{"name":"destGasPerPayloadByte","type":"uint16","internalType":"uint16"},{"name":"destDataAvailabilityOverheadGas","type":"uint32","internalType":"uint32"},{"name":"destGasPerDataAvailabilityByte","type":"uint16","internalType":"uint16"},{"name":"destDataAvailabilityMultiplierBps","type":"uint16","internalType":"uint16"},{"name":"priceRegistry","type":"address","internalType":"address"},{"name":"maxDataBytes","type":"uint32","internalType":"uint32"},{"name":"maxPerMsgGasLimit","type":"uint32","internalType":"uint32"},{"name":"defaultTokenFeeUSDCents","type":"uint16","internalType":"uint16"},{"name":"defaultTokenDestGasOverhead","type":"uint32","internalType":"uint32"},{"name":"defaultTokenDestBytesOverhead","type":"uint32","internalType":"uint32"},{"name":"enforceOutOfOrder","type":"bool","internalType":"bool"}]}],"anonymous":false},{"type":"event","name":"FeeConfigSet","inputs":[{"name":"feeConfig","type":"tuple[]","indexed":false,"internalType":"struct EVM2EVMOnRamp.FeeTokenConfigArgs[]","components":[{"name":"token","type":"address","internalType":"address"},{"name":"networkFeeUSDCents","type":"uint32","internalType":"uint32"},{"name":"gasMultiplierWeiPerEth","type":"uint64","internalType":"uint64"},{"name":"premiumMultiplierWeiPerEth","type":"uint64","internalType":"uint64"},{"name":"enabled","type":"bool","internalType":"bool"}]}],"anonymous":false},{"type":"event","name":"NopPaid","inputs":[{"name":"nop","type":"address","indexed":true,"internalType":"address"},{"name":"amount","type":"uint256","indexed":false,"internalType":"uint256"}],"anonymous":false},{"type":"event","name":"NopsSet","inputs":[{"name":"nopWeightsTotal","type":"uint256","indexed":false,"internalType":"uint256"},{"name":"nopsAndWeights","type":"tuple[]","indexed":false,"internalType":"struct EVM2EVMOnRamp.NopAndWeight[]","components":[{"name":"nop","type":"address","internalType":"address"},{"name":"weight","type":"uint16","internalType":"uint16"}]}],"anonymous":false},{"type":"event","name":"OwnershipTransferRequested","inputs":[{"name":"from","type":"address","indexed":true,"internalType":"address"},{"name":"to","type":"address","indexed":true,"internalType":"address"}],"anonymous":false},{"type":"event","name":"OwnershipTransferred","inputs":[{"name":"from","type":"address","indexed":true,"internalType":"address"},{"name":"to","type":"address","indexed":true,"internalType":"address"}],"anonymous":false},{"type":"event","name":"TokenTransferFeeConfigDeleted","inputs":[{"name":"tokens","type":"address[]","indexed":false,"internalType":"address[]"}],"anonymous":false},{"type":"event","name":"TokenTransferFeeConfigSet","inputs":[{"name":"transferFeeConfig","type":"tuple[]","indexed":false,"internalType":"struct EVM2EVMOnRamp.TokenTransferFeeConfigArgs[]","components":[{"name":"token","type":"address","internalType":"address"},{"name":"minFeeUSDCents","type":"uint32","internalType":"uint32"},{"name":"maxFeeUSDCents","type":"uint32","internalType":"uint32"},{"name":"deciBps","type":"uint16","internalType":"uint16"},{"name":"destGasOverhead","type":"uint32","internalType":"uint32"},{"name":"destBytesOverhead","type":"uint32","internalType":"uint32"},{"name":"aggregateRateLimitEnabled","type":"bool","internalType":"bool"}]}],"anonymous":false},{"type":"event","name":"TokensConsumed","inputs":[{"name":"tokens","type":"uint256","indexed":false,"internalType":"uint256"}],"anonymous":false},{"type":"error","name":"AggregateValueMaxCapacityExceeded","inputs":[{"name":"capacity","type":"uint256","internalType":"uint256"},{"name":"requested","type":"uint256","internalType":"uint256"}]},{"type":"error","name":"AggregateValueRateLimitReached","inputs":[{"name":"minWaitInSeconds","type":"uint256","internalType":"uint256"},{"name":"available","type":"uint256","internalType":"uint256"}]},{"type":"error","name":"BucketOverfilled","inputs":[]},{"type":"error","name":"CannotSendZeroTokens","inputs":[]},{"type":"error","name":"CursedByRMN","inputs":[]},{"type":"error","name":"ExtraArgOutOfOrderExecutionMustBeTrue","inputs":[]},{"type":"error","name":"GetSupportedTokensFunctionalityRemovedCheckAdminRegistry","inputs":[]},{"type":"error","name":"InsufficientBalance","inputs":[]},{"type":"error","name":"InvalidChainSelector","inputs":[{"name":"chainSelector","type":"uint64","internalType":"uint64"}]},{"type":"error","name":"InvalidConfig","inputs":[]},{"type":"error","name":"InvalidDestBytesOverhead","inputs":[{"name":"token","type":"address","internalType":"address"},{"name":"destBytesOverhead","type":"uint32","internalType":"uint32"}]},{"type":"error","name":"InvalidEVMAddress","inputs":[{"name":"encodedAddress","type":"bytes","internalType":"bytes"}]},{"type":"error","name":"InvalidExtraArgsTag","inputs":[]},{"type":"error","name":"InvalidNopAddress","inputs":[{"name":"nop","type":"address","internalType":"address"}]},{"type":"error","name":"InvalidWithdrawParams","inputs":[]},{"type":"error","name":"LinkBalanceNotSettled","inputs":[]},{"type":"error","name":"MaxFeeBalanceReached","inputs":[]},{"type":"error","name":"MessageGasLimitTooHigh","inputs":[]},{"type":"error","name":"MessageTooLarge","inputs":[{"name":"maxSize","type":"uint256","internalType":"uint256"},{"name":"actualSize","type":"uint256","internalType":"uint256"}]},{"type":"error","name":"MustBeCalledByRouter","inputs":[]},{"type":"error","name":"NoFeesToPay","inputs":[]},{"type":"error","name":"NoNopsToPay","inputs":[]},{"type":"error","name":"NotAFeeToken","inputs":[{"name":"token","type":"address","internalType":"address"}]},{"type":"error","name":"OnlyCallableByAdminOrOwner","inputs":[]},{"type":"error","name":"OnlyCallableByOwnerOrAdmin","inputs":[]},{"type":"error","name":"OnlyCallableByOwnerOrAdminOrNop","inputs":[]},{"type":"error","name":"PriceNotFoundForToken","inputs":[{"name":"token","type":"address","internalType":"address"}]},{"type":"error","name":"RouterMustSetOriginalSender","inputs":[]},{"type":"error","name":"SourceTokenDataTooLarge","inputs":[{"name":"token","type":"address","internalType":"address"}]},{"type":"error","name":"TokenMaxCapacityExceeded","inputs":[{"name":"capacity","type":"uint256","internalType":"uint256"},{"name":"requested","type":"uint256","internalType":"uint256"},{"name":"tokenAddress","type":"address","internalType":"address"}]},{"type":"error","name":"TokenRateLimitReached","inputs":[{"name":"minWaitInSeconds","type":"uint256","internalType":"uint256"},{"name":"available","type":"uint256","internalType":"uint256"},{"name":"tokenAddress","type":"address","internalType":"address"}]},{"type":"error","name":"TooManyNops","inputs":[]},{"type":"error","name":"UnsupportedNumberOfTokens","inputs":[]},{"type":"error","name":"UnsupportedToken","inputs":[{"name":"token","type":"address","internalType":"address"}]}],"bytecode":{"object":"0x6101a0604052348015630000001357600080fd5b50604051630000cae3380380630000cae38339818101604052810190630000003d91906300002ba3565b83338060008073ffffffffffffffffffffffffffffffffffffffff168273ffffffffffffffffffffffffffffffffffffffff160363000000b6576040517f08c379a000000000000000000000000000000000000000000000000000000000815260040163000000ad906300002d1f565b60405180910390fd5b816000806101000a81548173ffffffffffffffffffffffffffffffffffffffff021916908373ffffffffffffffffffffffffffffffffffffffff160217905550600073ffffffffffffffffffffffffffffffffffffffff168173ffffffffffffffffffffffffffffffffffffffff1614630000014057630000013f81630000067260201b60201c565b5b5050506040518060a0016040528082602001516fffffffffffffffffffffffffffffffff1681526020014263ffffffff16815260200182600001511515815260200182602001516fffffffffffffffffffffffffffffffff16815260200182604001516fffffffffffffffffffffffffffffffff16815250600360008201518160000160006101000a8154816fffffffffffffffffffffffffffffffff02191690836fffffffffffffffffffffffffffffffff16021790555060208201518160000160106101000a81548163ffffffff021916908363ffffffff16021790555060408201518160000160146101000a81548160ff02191690831515021790555060608201518160010160006101000a8154816fffffffffffffffffffffffffffffffff02191690836fffffffffffffffffffffffffffffffff16021790555060808201518160010160106101000a8154816fffffffffffffffffffffffffffffffff02191690836fffffffffffffffffffffffffffffffff16021790555090505050600073ffffffffffffffffffffffffffffffffffffffff16866000015173ffffffffffffffffffffffffffffffffffffffff161480630000031157506000866020015167ffffffffffffffff16145b80630000032c57506000866040015167ffffffffffffffff16145b80630000034757506000866060015167ffffffffffffffff16145b8063000003845750600073ffffffffffffffffffffffffffffffffffffffff168660c0015173ffffffffffffffffffffffffffffffffffffffff16145b8063000003c15750600073ffffffffffffffffffffffffffffffffffffffff168660e0015173ffffffffffffffffffffffffffffffffffffffff16145b1563000003fa576040517f35be3ac800000000000000000000000000000000000000000000000000000000815260040160405180910390fd5b7f8acd72527118c8324937b1a42e02cd246697c3b633f1742f3cae11de233722b38660200151876040015130604051602001630000043d94939291906300002d86565b6040516020818303038152906040528051906020012060808181525050856000015173ffffffffffffffffffffffffffffffffffffffff1660e08173ffffffffffffffffffffffffffffffffffffffff1681525050856020015167ffffffffffffffff166101008167ffffffffffffffff1681525050856040015167ffffffffffffffff166101208167ffffffffffffffff1681525050856060015167ffffffffffffffff1660a08167ffffffffffffffff168152505085608001516bffffffffffffffffffffffff1660c0816bffffffffffffffffffffffff16815250508560a0015173ffffffffffffffffffffffffffffffffffffffff166101408173ffffffffffffffffffffffffffffffffffffffff16815250508560c0015173ffffffffffffffffffffffffffffffffffffffff166101608173ffffffffffffffffffffffffffffffffffffffff16815250508560e0015173ffffffffffffffffffffffffffffffffffffffff166101808173ffffffffffffffffffffffffffffffffffffffff168152505063000005da8563000007a460201b60201c565b63000005ed836300000bd460201b60201c565b630000065282600067ffffffffffffffff8111156300000614576300000613630000214b565b5b60405190808252806020026020018201604052801563000006445781602001602082028036833780820191505090505b506300000d8c60201b60201c565b630000066581630000117d60201b60201c565b5050505050506300003dc2565b3373ffffffffffffffffffffffffffffffffffffffff168173ffffffffffffffffffffffffffffffffffffffff160363000006e6576040517f08c379a000000000000000000000000000000000000000000000000000000000815260040163000006dd906300002e2f565b60405180910390fd5b80600160006101000a81548173ffffffffffffffffffffffffffffffffffffffff021916908373ffffffffffffffffffffffffffffffffffffffff1602179055508073ffffffffffffffffffffffffffffffffffffffff1660008054906101000a900473ffffffffffffffffffffffffffffffffffffffff1673ffffffffffffffffffffffffffffffffffffffff167fed8889f560326eb138920d842192f0eb3dd22b4f139c87a2c57538e05bae127860405160405180910390a350565b600073ffffffffffffffffffffffffffffffffffffffff168160e0015173ffffffffffffffffffffffffffffffffffffffff16036300000810576040517f35be3ac800000000000000000000000000000000000000000000000000000000815260040160405180910390fd5b602081610180015163ffffffff161015630000086f5760008161018001516040517f24ecdc0200000000000000000000000000000000000000000000000000000000815260040163000008669291906300002e66565b60405180910390fd5b80600560008201518160000160006101000a81548173ffffffffffffffffffffffffffffffffffffffff021916908373ffffffffffffffffffffffffffffffffffffffff16021790555060208201518160000160146101000a81548161ffff021916908361ffff16021790555060408201518160000160166101000a81548163ffffffff021916908363ffffffff160217905550606082015181600001601a6101000a81548161ffff021916908361ffff160217905550608082015181600001601c6101000a81548163ffffffff021916908363ffffffff16021790555060a08201518160010160006101000a81548161ffff021916908361ffff16021790555060c08201518160010160026101000a81548161ffff021916908361ffff16021790555060e08201518160010160046101000a81548173ffffffffffffffffffffffffffffffffffffffff021916908373ffffffffffffffffffffffffffffffffffffffff1602179055506101008201518160010160186101000a81548163ffffffff021916908363ffffffff16021790555061012082015181600101601c6101000a81548163ffffffff021916908363ffffffff1602179055506101408201518160020160006101000a81548161ffff021916908361ffff1602179055506101608201518160020160026101000a81548163ffffffff021916908363ffffffff1602179055506101808201518160020160066101000a81548163ffffffff021916908363ffffffff1602179055506101a082015181600201600a6101000a81548160ff0219169083151502179055509050507fe375c8cb6ea9807cd0371503b632b93da5ee0f1f64205db8b5b28b95d6b588b060405180610100016040528060e05173ffffffffffffffffffffffffffffffffffffffff1681526020016101005167ffffffffffffffff1681526020016101205167ffffffffffffffff16815260200160a05167ffffffffffffffff16815260200160c0516bffffffffffffffffffffffff1681526020016101405173ffffffffffffffffffffffffffffffffffffffff1681526020016101605173ffffffffffffffffffffffffffffffffffffffff1681526020016101805173ffffffffffffffffffffffffffffffffffffffff16815250826040516300000bc99291906300003123565b60405180910390a150565b60005b81518110156300000d4d5760008282815181106300000bfd576300000bfc6300003156565b5b602002602001015190506040518060800160405280826020015163ffffffff168152602001826040015167ffffffffffffffff168152602001826060015167ffffffffffffffff16815260200182608001511515815250600b6000836000015173ffffffffffffffffffffffffffffffffffffffff1673ffffffffffffffffffffffffffffffffffffffff16815260200190815260200160002060008201518160000160006101000a81548163ffffffff021916908363ffffffff16021790555060208201518160000160046101000a81548167ffffffffffffffff021916908367ffffffffffffffff160217905550604082015181600001600c6101000a81548167ffffffffffffffff021916908367ffffffffffffffff16021790555060608201518160000160146101000a81548160ff021916908315150217905550905050508060010190506300000bd7565b507f067924bf9277d905a9a4631a06d959bc032ace86b3caa835ae7e403d4f39010e816040516300000d81919063000032cc565b60405180910390a150565b60005b82518110156300000fde5760008382815181106300000db5576300000db46300003156565b5b6020026020010151905060208160a0015163ffffffff1610156300000e1f5780600001518160a001516040517f24ecdc020000000000000000000000000000000000000000000000000000000081526004016300000e169291906300002e66565b60405180910390fd5b6040518060e00160405280826020015163ffffffff168152602001826040015163ffffffff168152602001826060015161ffff168152602001826080015163ffffffff1681526020018260a0015163ffffffff1681526020018260c001511515815260200160011515815250600c6000836000015173ffffffffffffffffffffffffffffffffffffffff1673ffffffffffffffffffffffffffffffffffffffff16815260200190815260200160002060008201518160000160006101000a81548163ffffffff021916908363ffffffff16021790555060208201518160000160046101000a81548163ffffffff021916908363ffffffff16021790555060408201518160000160086101000a81548161ffff021916908361ffff160217905550606082015181600001600a6101000a81548163ffffffff021916908363ffffffff160217905550608082015181600001600e6101000a81548163ffffffff021916908363ffffffff16021790555060a08201518160000160126101000a81548160ff02191690831515021790555060c08201518160000160136101000a81548160ff021916908315150217905550905050508060010190506300000d8f565b507ff5791bc457b3bb990493cf5f655db46c25ccf5764c9b99b8969b4c72ea7df9d082604051630000101291906300003467565b60405180910390a160005b8151811015630000113057600c600083838151811063000010455763000010446300003156565b5b602002602001015173ffffffffffffffffffffffffffffffffffffffff1673ffffffffffffffffffffffffffffffffffffffff168152602001908152602001600020600080820160006101000a81549063ffffffff02191690556000820160046101000a81549063ffffffff02191690556000820160086101000a81549061ffff021916905560008201600a6101000a81549063ffffffff021916905560008201600e6101000a81549063ffffffff02191690556000820160126101000a81549060ff02191690556000820160136101000a81549060ff02191690555050806001019050630000101d565b506000815111156300001179577ffb95a0042158e60a33e7b5bec100f3d95407b1a71bee6633bd54b8887449750b81604051630000117091906300003558565b60405180910390a15b5050565b600081519050604081111563000011c0576040517fb5a10cfa00000000000000000000000000000000000000000000000000000000815260040160405180910390fd5b6000600e600c9054906101000a900463ffffffff1663ffffffff16118015630000122a5750600e600c9054906101000a900463ffffffff1663ffffffff16600e60009054906101000a90046bffffffffffffffffffffffff166bffffffffffffffffffffffff1610155b156300001244576300001243630000148160201b60201c565b5b6000630000125a600863000017ef60201b60201c565b90505b600081111563000012c657600063000012926001836300001280919063000035b7565b6008630000180e60201b90919060201c565b50905063000012ad816008630000184460201b90919060201c565b50508063000012bd9063000035f9565b9050630000125d565b506000805b82811015630000141d57600084828151811063000012f05763000012ef6300003156565b5b6020026020010151600001519050600085838151811063000013195763000013186300003156565b5b602002602001015160200151905060e05173ffffffffffffffffffffffffffffffffffffffff168273ffffffffffffffffffffffffffffffffffffffff16148063000013915750600073ffffffffffffffffffffffffffffffffffffffff168273ffffffffffffffffffffffffffffffffffffffff16145b1563000013d957816040517f4de938d100000000000000000000000000000000000000000000000000000000815260040163000013d09190630000362c565b60405180910390fd5b63000013f7828261ffff166008630000187e60201b9092919060201c565b508061ffff1684630000140c9190630000364b565b9350505080600101905063000012cb565b5080600e600c6101000a81548163ffffffff021916908363ffffffff1602179055507f8c337bff38141c507abd25c547606bdde78fe8c12e941ab613f3a565fea6cd248184604051630000147492919063000037de565b60405180910390a1505050565b630000149363000018bd60201b60201c565b73ffffffffffffffffffffffffffffffffffffffff163373ffffffffffffffffffffffffffffffffffffffff1614158015630000151e5750600260009054906101000a900473ffffffffffffffffffffffffffffffffffffffff1673ffffffffffffffffffffffffffffffffffffffff163373ffffffffffffffffffffffffffffffffffffffff1614155b801563000015415750630000153f33600863000018e660201b90919060201c565b155b15630000157a576040517f195db95800000000000000000000000000000000000000000000000000000000815260040160405180910390fd5b6000600e600c9054906101000a900463ffffffff1663ffffffff1690506000810363000015d3576040517f990e30bf00000000000000000000000000000000000000000000000000000000815260040160405180910390fd5b6000600e60009054906101000a90046bffffffffffffffffffffffff16905081816bffffffffffffffffffffffff161015630000163c576040517f8d0f71d800000000000000000000000000000000000000000000000000000000815260040160405180910390fd5b60006300001650630000192060201b60201c565b1215630000168a576040517ff4d678b800000000000000000000000000000000000000000000000000000000815260040160405180910390fd5b6000819050600063000016a5600863000017ef60201b60201c565b905060005b8181101563000017b75760008063000016cf836008630000180e60201b90919060201c565b9150915060008782886bffffffffffffffffffffffff1663000016f491906300003816565b630000170291906300003899565b905080866300001714919063000038d8565b9550630000175583826bffffffffffffffffffffffff1660e05173ffffffffffffffffffffffffffffffffffffffff1663000019e460201b9092919060201c565b8273ffffffffffffffffffffffffffffffffffffffff167f55fdec2aab60a41fa5abb106670eb1006f5aeaee1ba7afea2bc89b5b3ec7678f82604051630000179f91906300003967565b60405180910390a250505080600101905063000016aa565b5081600e60006101000a8154816bffffffffffffffffffffffff02191690836bffffffffffffffffffffffff16021790555050505050565b60006300001807826000016300001a7860201b60201c565b9050919050565b600080600080630000182b86600001866300001a9760201b60201c565b915091508160001c8160001c9350935050509250929050565b60006300001876836000018373ffffffffffffffffffffffffffffffffffffffff1660001b6300001adb60201b60201c565b905092915050565b600063000018b4846000018473ffffffffffffffffffffffffffffffffffffffff1660001b8460001b6300001b1860201b60201c565b90509392505050565b60008060009054906101000a900473ffffffffffffffffffffffffffffffffffffffff16905090565b60006300001918836000018373ffffffffffffffffffffffffffffffffffffffff1660001b6300001b5760201b60201c565b905092915050565b6000600e60009054906101000a90046bffffffffffffffffffffffff166bffffffffffffffffffffffff1660e05173ffffffffffffffffffffffffffffffffffffffff166370a08231306040518263ffffffff1660e01b8152600401630000198a9190630000362c565b602060405180830381865afa15801563000019a9573d6000803e3d6000fd5b505050506040513d601f19601f8201168201806040525081019063000019d1919063000039bc565b63000019df919063000039fd565b905090565b6300001a738363a9059cbb60e01b84846040516024016300001a099291906300003a61565b604051602081830303815290604052907bffffffffffffffffffffffffffffffffffffffffffffffffffffffff19166020820180517bffffffffffffffffffffffffffffffffffffffffffffffffffffffff83818316178352505050506300001b7b60201b60201c565b505050565b60006300001a90826000016300001c5260201b60201c565b9050919050565b60008060006300001ab684866000016300001c7160201b90919060201c565b9050808560020160008381526020019081526020016000205492509250509250929050565b6000826002016000838152602001908152602001600020600090556300001b1082846000016300001c9260201b90919060201c565b905092915050565b600081846002016000858152602001908152602001600020819055506300001b4e83856000016300001cb360201b90919060201c565b90509392505050565b60006300001b7382846000016300001cd460201b90919060201c565b905092915050565b60006300001be1826040518060400160405280602081526020017f5361666545524332303a206c6f772d6c6576656c2063616c6c206661696c65648152508573ffffffffffffffffffffffffffffffffffffffff166300001cf560201b9092919060201c565b90506000815111156300001c4d57808060200190518101906300001c0791906300003a92565b6300001c4c576040517f08c379a00000000000000000000000000000000000000000000000000000000081526004016300001c43906300003b43565b60405180910390fd5b5b505050565b60006300001c6a826000016300001d1760201b60201c565b9050919050565b60006300001c8a83600001836300001d2860201b60201c565b905092915050565b60006300001cab83600001836300001d5960201b60201c565b905092915050565b60006300001ccc83600001836300001e8d60201b60201c565b905092915050565b60006300001ced83600001836300001f0b60201b60201c565b905092915050565b60606300001d0e84846000856300001f2e60201b60201c565b90509392505050565b600081600001805490509050919050565b60008260000182815481106300001d46576300001d456300003156565b5b9060005260206000200154905092915050565b600080836001016000848152602001908152602001600020549050600081146300001e815760006001826300001d91919063000035b7565b90506000600186600001805490506300001dad919063000035b7565b90508181146300001e2a5760008660000182815481106300001dd6576300001dd56300003156565b5b90600052602060002001549050808760000184815481106300001e00576300001dff6300003156565b5b90600052602060002001819055508387600101600083815260200190815260200160002081905550505b856000018054806300001e44576300001e436300003b67565b5b6001900381819060005260206000200160009055905585600101600086815260200190815260200160002060009055600193505050506300001e87565b60009150505b92915050565b60006300001ea383836300001f0b60201b60201c565b6300001f005782600001829080600181540180825580915050600190039060005260206000200160009091909190915055826000018054905083600101600084815260200190815260200160002081905550600190506300001f05565b600090505b92915050565b600080836001016000848152602001908152602001600020541415905092915050565b6060824710156300001f79576040517f08c379a00000000000000000000000000000000000000000000000000000000081526004016300001f70906300003c10565b60405180910390fd5b6000808673ffffffffffffffffffffffffffffffffffffffff1685876040516300001fa691906300003cb5565b60006040518083038185875af1925050503d80600081146300001fe7576040519150601f19603f3d011682016040523d82523d6000602084013e6300001fec565b606091505b5091509150630000200787838387630000201360201b60201c565b92505050949350505050565b60608315630000208b576000835103630000208157630000203b8563000020a860201b60201c565b6300002080576040517f08c379a00000000000000000000000000000000000000000000000000000000081526004016300002077906300003d24565b60405180910390fd5b5b82905063000020a0565b630000209f838363000020cb60201b60201c565b5b949350505050565b6000808273ffffffffffffffffffffffffffffffffffffffff163b119050919050565b60008251111563000020e05781518083602001fd5b806040517f08c379a0000000000000000000000000000000000000000000000000000000008152600401630000211891906300003d9c565b60405180910390fd5b6000604051905090565b600080fd5b600080fd5b600080fd5b6000601f19601f8301169050919050565b7f4e487b7100000000000000000000000000000000000000000000000000000000600052604160045260246000fd5b630000218782630000213a565b810181811067ffffffffffffffff8211171563000021ac5763000021ab630000214b565b5b80604052505050565b600063000021c36300002121565b905063000021d38282630000217a565b919050565b600073ffffffffffffffffffffffffffffffffffffffff82169050919050565b600063000022078263000021d8565b9050919050565b630000221b8163000021f8565b8114630000222857600080fd5b50565b600081519050630000223e81630000220e565b92915050565b600067ffffffffffffffff82169050919050565b6300002265816300002244565b8114630000227257600080fd5b50565b6000815190506300002288816300002258565b92915050565b60006bffffffffffffffffffffffff82169050919050565b63000022b381630000228e565b811463000022c057600080fd5b50565b60008151905063000022d68163000022a6565b92915050565b6000610100828403121563000022f95763000022f86300002135565b5b630000230861010063000021b5565b90506000630000231c84828501630000222b565b60008301525060206300002334848285016300002275565b6020830152506040630000234c848285016300002275565b60408301525060606300002364848285016300002275565b6060830152506080630000237c8482850163000022c3565b60808301525060a0630000239484828501630000222b565b60a08301525060c063000023ac84828501630000222b565b60c08301525060e063000023c484828501630000222b565b60e08301525092915050565b600061ffff82169050919050565b63000023eb8163000023d0565b811463000023f857600080fd5b50565b600081519050630000240e8163000023de565b92915050565b600063ffffffff82169050919050565b6300002431816300002414565b8114630000243e57600080fd5b50565b6000815190506300002454816300002424565b92915050565b60008115159050919050565b630000247381630000245a565b8114630000248057600080fd5b50565b6000815190506300002496816300002466565b92915050565b60006101c0828403121563000024b95763000024b86300002135565b5b63000024c86101c063000021b5565b9050600063000024dc84828501630000222b565b600083015250602063000024f48482850163000023fb565b6020830152506040630000250c848285016300002441565b604083015250606063000025248482850163000023fb565b6060830152506080630000253c848285016300002441565b60808301525060a063000025548482850163000023fb565b60a08301525060c0630000256c8482850163000023fb565b60c08301525060e0630000258484828501630000222b565b60e083015250610100630000259d848285016300002441565b6101008301525061012063000025b7848285016300002441565b6101208301525061014063000025d18482850163000023fb565b6101408301525061016063000025eb848285016300002441565b610160830152506101806300002605848285016300002441565b610180830152506101a0630000261f848285016300002483565b6101a08301525092915050565b60006fffffffffffffffffffffffffffffffff82169050919050565b630000265581630000262c565b8114630000266257600080fd5b50565b6000815190506300002678816300002648565b92915050565b600060608284031215630000269a5763000026996300002135565b5b63000026a8606063000021b5565b9050600063000026bc848285016300002483565b600083015250602063000026d4848285016300002665565b602083015250604063000026ec848285016300002665565b60408301525092915050565b600080fd5b600067ffffffffffffffff821115630000271e57630000271d630000214b565b5b602082029050602081019050919050565b600080fd5b600060a08284031215630000275057630000274f6300002135565b5b630000275e60a063000021b5565b90506000630000277284828501630000222b565b6000830152506020630000278a848285016300002441565b602083015250604063000027a2848285016300002275565b604083015250606063000027ba848285016300002275565b606083015250608063000027d2848285016300002483565b60808301525092915050565b600063000027f963000027f28463000026fd565b63000021b5565b90508083825260208201905060a084028301858111156300002822576300002821630000272f565b5b835b8181101563000028535780630000283d88826300002734565b84526020840193505060a0810190506300002824565b5050509392505050565b600082601f830112630000287857630000287763000026f8565b5b8151630000288c84826020860163000027de565b91505092915050565b600067ffffffffffffffff82111563000028b65763000028b5630000214b565b5b602082029050602081019050919050565b600060e0828403121563000028e35763000028e26300002135565b5b63000028f160e063000021b5565b90506000630000290584828501630000222b565b6000830152506020630000291d848285016300002441565b60208301525060406300002935848285016300002441565b6040830152506060630000294d8482850163000023fb565b60608301525060806300002965848285016300002441565b60808301525060a0630000297d848285016300002441565b60a08301525060c06300002995848285016300002483565b60c08301525092915050565b600063000029bc63000029b5846300002895565b63000021b5565b90508083825260208201905060e0840283018581111563000029e55763000029e4630000272f565b5b835b818110156300002a1657806300002a00888263000028c7565b84526020840193505060e08101905063000029e7565b5050509392505050565b600082601f8301126300002a3b576300002a3a63000026f8565b5b81516300002a4f84826020860163000029a1565b91505092915050565b600067ffffffffffffffff8211156300002a79576300002a78630000214b565b5b602082029050602081019050919050565b6000604082840312156300002aa6576300002aa56300002135565b5b6300002ab4604063000021b5565b905060006300002ac884828501630000222b565b60008301525060206300002ae08482850163000023fb565b60208301525092915050565b60006300002b076300002b00846300002a58565b63000021b5565b905080838252602082019050604084028301858111156300002b30576300002b2f630000272f565b5b835b818110156300002b6157806300002b4b88826300002a8a565b8452602084019350506040810190506300002b32565b5050509392505050565b600082601f8301126300002b86576300002b8563000026f8565b5b81516300002b9a8482602086016300002aec565b91505092915050565b60008060008060008061038087890312156300002bc7576300002bc6630000212b565b5b60006300002bd989828a0163000022dc565b9650506101006300002bef89828a01630000249c565b9550506102c06300002c0589828a01630000267e565b94505061032087015167ffffffffffffffff8111156300002c2d576300002c2c6300002130565b5b6300002c3d89828a01630000285d565b93505061034087015167ffffffffffffffff8111156300002c65576300002c646300002130565b5b6300002c7589828a016300002a20565b92505061036087015167ffffffffffffffff8111156300002c9d576300002c9c6300002130565b5b6300002cad89828a016300002b6b565b9150509295509295509295565b600082825260208201905092915050565b7f43616e6e6f7420736574206f776e657220746f207a65726f0000000000000000600082015250565b60006300002d056018836300002cba565b91506300002d14826300002ccb565b602082019050919050565b600060208201905081810360008301526300002d3c816300002cf4565b9050919050565b6000819050919050565b6300002d5a816300002d43565b82525050565b6300002d6d816300002244565b82525050565b6300002d808163000021f8565b82525050565b60006080820190506300002d9f60008301876300002d4d565b6300002db060208301866300002d60565b6300002dc160408301856300002d60565b6300002dd260608301846300002d73565b95945050505050565b7f43616e6e6f74207472616e7366657220746f2073656c66000000000000000000600082015250565b60006300002e156017836300002cba565b91506300002e24826300002ddb565b602082019050919050565b600060208201905081810360008301526300002e4c816300002e04565b9050919050565b6300002e60816300002414565b82525050565b60006040820190506300002e7f60008301856300002d73565b6300002e9060208301846300002e53565b9392505050565b6300002ea48163000021f8565b82525050565b6300002eb7816300002244565b82525050565b6300002eca81630000228e565b82525050565b610100820160008201516300002eeb60008501826300002e97565b5060208201516300002f0260208501826300002eaa565b5060408201516300002f1960408501826300002eaa565b5060608201516300002f3060608501826300002eaa565b5060808201516300002f4760808501826300002ebd565b5060a08201516300002f5e60a08501826300002e97565b5060c08201516300002f7560c08501826300002e97565b5060e08201516300002f8c60e08501826300002e97565b50505050565b6300002f9f8163000023d0565b82525050565b6300002fb2816300002414565b82525050565b6300002fc581630000245a565b82525050565b6101c0820160008201516300002fe660008501826300002e97565b5060208201516300002ffd60208501826300002f92565b506040820151630000301460408501826300002fa5565b506060820151630000302b60608501826300002f92565b506080820151630000304260808501826300002fa5565b5060a0820151630000305960a08501826300002f92565b5060c0820151630000307060c08501826300002f92565b5060e0820151630000308760e08501826300002e97565b5061010082015163000030a06101008501826300002fa5565b5061012082015163000030b96101208501826300002fa5565b5061014082015163000030d26101408501826300002f92565b5061016082015163000030eb6101608501826300002fa5565b5061018082015163000031046101808501826300002fa5565b506101a0820151630000311d6101a08501826300002fb8565b50505050565b60006102c082019050630000313d60008301856300002ed0565b630000314f6101008301846300002fcb565b9392505050565b7f4e487b7100000000000000000000000000000000000000000000000000000000600052603260045260246000fd5b600081519050919050565b600082825260208201905092915050565b6000819050602082019050919050565b60a08201600082015163000031cb60008501826300002e97565b50602082015163000031e260208501826300002fa5565b50604082015163000031f960408501826300002eaa565b506060820151630000321060608501826300002eaa565b506080820151630000322760808501826300002fb8565b50505050565b6000630000323d838363000031b1565b60a08301905092915050565b6000602082019050919050565b60006300003265826300003185565b630000327381856300003190565b935063000032828363000031a1565b8060005b8381101563000032bf57815163000032a08882630000322d565b975063000032af836300003249565b9250506001810190506300003286565b5085935050505092915050565b6000602082019050818103600083015263000032ea81846300003256565b905092915050565b600081519050919050565b600082825260208201905092915050565b6000819050602082019050919050565b60e082016000820151630000333860008501826300002e97565b506020820151630000334f60208501826300002fa5565b506040820151630000336660408501826300002fa5565b506060820151630000337d60608501826300002f92565b506080820151630000339460808501826300002fa5565b5060a082015163000033ab60a08501826300002fa5565b5060c082015163000033c260c08501826300002fb8565b50505050565b600063000033d88383630000331e565b60e08301905092915050565b6000602082019050919050565b600063000034008263000032f2565b630000340e818563000032fd565b9350630000341d83630000330e565b8060005b83811015630000345a578151630000343b888263000033c8565b9750630000344a8363000033e4565b9250506001810190506300003421565b5085935050505092915050565b600060208201905081810360008301526300003485818463000033f1565b905092915050565b600081519050919050565b600082825260208201905092915050565b6000819050602082019050919050565b600063000034c983836300002e97565b60208301905092915050565b6000602082019050919050565b600063000034f182630000348d565b63000034ff81856300003498565b9350630000350e8363000034a9565b8060005b83811015630000354b578151630000352c888263000034b9565b9750630000353b8363000034d5565b9250506001810190506300003512565b5085935050505092915050565b600060208201905081810360008301526300003576818463000034e2565b905092915050565b6000819050919050565b7f4e487b7100000000000000000000000000000000000000000000000000000000600052601160045260246000fd5b600063000035c682630000357e565b915063000035d583630000357e565b925082820390508181111563000035f35763000035f26300003588565b5b92915050565b6000630000360882630000357e565b91506000820363000036215763000036206300003588565b5b600182039050919050565b6000602082019050630000364560008301846300002d73565b92915050565b6000630000365a826300002414565b91506300003669836300002414565b9250828201905063ffffffff811115630000368b57630000368a6300003588565b5b92915050565b6000819050919050565b600063000036c263000036bb63000036b4846300002414565b6300003691565b630000357e565b9050919050565b63000036d681630000369b565b82525050565b600081519050919050565b600082825260208201905092915050565b6000819050602082019050919050565b604082016000820151630000372260008501826300002e97565b506020820151630000373960208501826300002f92565b50505050565b6000630000374f83836300003708565b60408301905092915050565b6000602082019050919050565b600063000037778263000036dc565b6300003785818563000036e7565b935063000037948363000036f8565b8060005b8381101563000037d157815163000037b28882630000373f565b975063000037c183630000375b565b9250506001810190506300003798565b5085935050505092915050565b600060408201905063000037f7600083018563000036c9565b8181036020830152630000380d81846300003768565b90509392505050565b6000630000382582630000357e565b9150630000383483630000357e565b9250828202630000384681630000357e565b9150828204841483151763000038635763000038626300003588565b5b5092915050565b7f4e487b7100000000000000000000000000000000000000000000000000000000600052601260045260246000fd5b600063000038a882630000357e565b915063000038b783630000357e565b92508263000038cd5763000038cc630000386a565b5b828204905092915050565b600063000038e782630000228e565b915063000038f683630000228e565b925082820390506bffffffffffffffffffffffff811115630000392057630000391f6300003588565b5b92915050565b6000630000394d6300003946630000393f84630000228e565b6300003691565b630000357e565b9050919050565b6300003961816300003926565b82525050565b6000602082019050630000398060008301846300003954565b92915050565b630000399381630000357e565b811463000039a057600080fd5b50565b60008151905063000039b6816300003986565b92915050565b60006020828403121563000039d85763000039d7630000212b565b5b600063000039ea8482850163000039a3565b91505092915050565b6000819050919050565b60006300003a0c8263000039f3565b91506300003a1b8363000039f3565b92508282039050818112600084121682821360008512151617156300003a48576300003a476300003588565b5b92915050565b6300003a5b81630000357e565b82525050565b60006040820190506300003a7a60008301856300002d73565b6300003a8b60208301846300003a4e565b9392505050565b6000602082840312156300003aae576300003aad630000212b565b5b60006300003ac0848285016300002483565b91505092915050565b7f5361666545524332303a204552433230206f7065726174696f6e20646964206e60008201527f6f74207375636365656400000000000000000000000000000000000000000000602082015250565b60006300003b29602a836300002cba565b91506300003b38826300003ac9565b604082019050919050565b600060208201905081810360008301526300003b60816300003b18565b9050919050565b7f4e487b7100000000000000000000000000000000000000000000000000000000600052603160045260246000fd5b7f416464726573733a20696e73756666696369656e742062616c616e636520666f60008201527f722063616c6c0000000000000000000000000000000000000000000000000000602082015250565b60006300003bf66026836300002cba565b91506300003c05826300003b96565b604082019050919050565b600060208201905081810360008301526300003c2d816300003be5565b9050919050565b600081519050919050565b600081905092915050565b60005b838110156300003c6c5780820151818401526020810190506300003c4d565b60008484015250505050565b60006300003c87826300003c34565b6300003c9581856300003c3f565b93506300003ca98185602086016300003c4a565b80840191505092915050565b60006300003cc582846300003c78565b915081905092915050565b7f416464726573733a2063616c6c20746f206e6f6e2d636f6e7472616374000000600082015250565b60006300003d0a601d836300002cba565b91506300003d19826300003cd0565b602082019050919050565b600060208201905081810360008301526300003d41816300003cf9565b9050919050565b600081519050919050565b60006300003d62826300003d48565b6300003d7081856300002cba565b93506300003d848185602086016300003c4a565b6300003d9181630000213a565b840191505092915050565b600060208201905081810360008301526300003dba81846300003d53565b905092915050565b60805160a05160c05160e0516101005161012051610140516101605161018051618bf26300003ef1600039600081816106ad01528181610d9e015261433801526000818161067101528181611cc101526142fc015260008181610635015281816117f201528181611831015281816123f80152818161243701526142c00152600081816105a10152818161086e01528181611e8f01528181612a3f015281816133fc015261422c0152600081816105710152818161254501526141fc0152600081816105350152818161104a01528181611c16015281816120fc0152818161221101528181612f5b015281816141c0015261463a015260008181610601015281816122e8015261428c0152600081816105d1015281816130af015261425c01526000612c790152618bf26000f3fe608060405234801561001057600080fd5b50600436106101a95760003560e01c80637437ff9f116100f9578063c92b283211610097578063eff7cc4811610071578063eff7cc48146104ad578063f25561fd146104b7578063f2fde38b146104d3578063fbca3b74146104ef576101a9565b8063c92b283214610443578063d09dc3391461045f578063df0aa9e91461047d576101a9565b8063856c8247116100d3578063856c8247146103a65780638da5cb5b146103d65780639a113c36146103f4578063b06d41bc14610424576101a9565b80637437ff9f1461036257806376f6ae761461038057806379ba50971461039c576101a9565b806348a98aa411610166578063549e946f11610140578063549e946f146102ee57806354b714681461030a578063599f643114610328578063704b6c0214610346576101a9565b806348a98aa414610284578063528d4a92146102b4578063546719cd146102d0576101a9565b806306285c69146101ae5780631772047e146101cc578063181f5a77146101fc57806320487ded1461021a5780634120fccd1461024a5780634816f4f714610268575b600080fd5b6101b661051f565b6040516101c39190615f63565b60405180910390f35b6101e660048036038101906101e19190615fbf565b6106ea565b6040516101f391906160d1565b60405180910390f35b610204610831565b604051610211919061617c565b60405180910390f35b610234600480360381019061022f91906161ee565b61086a565b6040516102419190616263565b60405180910390f35b610252610d5a565b60405161025f919061628d565b60405180910390f35b610282600480360381019061027d91906165f5565b610d84565b005b61029e600480360381019061029991906166ab565b610d9a565b6040516102ab919061674a565b60405180910390f35b6102ce60048036038101906102c991906168b3565b610e3e565b005b6102d8610e52565b6040516102e59190616974565b60405180910390f35b6103086004803603810190610303919061698f565b610f93565b005b610312611175565b60405161031f91906169de565b60405180910390f35b610330611197565b60405161033d9190616a08565b60405180910390f35b610360600480360381019061035b9190615fbf565b6111c1565b005b61036a611304565b6040516103779190616b43565b60405180910390f35b61039a60048036038101906103959190616bba565b61156a565b005b6103a46115d5565b005b6103c060048036038101906103bb9190615fbf565b61176a565b6040516103cd919061628d565b60405180910390f35b6103de6118db565b6040516103eb9190616a08565b60405180910390f35b61040e60048036038101906104099190615fbf565b611904565b60405161041b9190616c5c565b60405180910390f35b61042c611a02565b60405161043a929190616d55565b60405180910390f35b61045d60048036038101906104589190616e15565b611b0a565b005b610467611be9565b6040516104749190616e5b565b60405180910390f35b61049760048036038101906104929190616ea2565b611cbd565b6040516104a49190616f3e565b60405180910390f35b6104b5612cf1565b005b6104d160048036038101906104cc91906170a8565b613033565b005b6104ed60048036038101906104e89190615fbf565b613047565b005b610509600480360381019061050491906170f1565b61305b565b60405161051691906171cd565b60405180910390f35b610527615b3a565b6040518061010001604052807f000000000000000000000000000000000000000000000000000000000000000073ffffffffffffffffffffffffffffffffffffffff1681526020017f000000000000000000000000000000000000000000000000000000000000000067ffffffffffffffff1681526020017f000000000000000000000000000000000000000000000000000000000000000067ffffffffffffffff1681526020017f000000000000000000000000000000000000000000000000000000000000000067ffffffffffffffff1681526020017f00000000000000000000000000000000000000000000000000000000000000006bffffffffffffffffffffffff1681526020017f000000000000000000000000000000000000000000000000000000000000000073ffffffffffffffffffffffffffffffffffffffff1681526020017f000000000000000000000000000000000000000000000000000000000000000073ffffffffffffffffffffffffffffffffffffffff1681526020017f000000000000000000000000000000000000000000000000000000000000000073ffffffffffffffffffffffffffffffffffffffff16815250905090565b6106f2615c03565b600c60008373ffffffffffffffffffffffffffffffffffffffff1673ffffffffffffffffffffffffffffffffffffffff1681526020019081526020016000206040518060e00160405290816000820160009054906101000a900463ffffffff1663ffffffff1663ffffffff1681526020016000820160049054906101000a900463ffffffff1663ffffffff1663ffffffff1681526020016000820160089054906101000a900461ffff1661ffff1661ffff16815260200160008201600a9054906101000a900463ffffffff1663ffffffff1663ffffffff16815260200160008201600e9054906101000a900463ffffffff1663ffffffff1663ffffffff1681526020016000820160129054906101000a900460ff161515151581526020016000820160139054906101000a900460ff1615151515815250509050919050565b6040518060400160405280601781526020017f45564d3245564d4f6e52616d7020312e352e302d64657600000000000000000081525081565b60007f000000000000000000000000000000000000000000000000000000000000000067ffffffffffffffff168367ffffffffffffffff16146108e457826040517fd9a9cd680000000000000000000000000000000000000000000000000000000081526004016108db919061628d565b60405180910390fd5b60006108fe8380608001906108f991906171fe565b61308f565b905061093683806020019061091391906171fe565b9050826000015185806040019061092a9190617261565b90508460200151613233565b6000600b600085606001602081019061094f9190615fbf565b73ffffffffffffffffffffffffffffffffffffffff1673ffffffffffffffffffffffffffffffffffffffff1681526020019081526020016000206040518060800160405290816000820160009054906101000a900463ffffffff1663ffffffff1663ffffffff1681526020016000820160049054906101000a900467ffffffffffffffff1667ffffffffffffffff1667ffffffffffffffff16815260200160008201600c9054906101000a900467ffffffffffffffff1667ffffffffffffffff1667ffffffffffffffff1681526020016000820160149054906101000a900460ff16151515158152505090508060600151610a9357836060016020810190610a579190615fbf565b6040517fa7499d20000000000000000000000000000000000000000000000000000000008152600401610a8a9190616a08565b60405180910390fd5b600080600560010160049054906101000a900473ffffffffffffffffffffffffffffffffffffffff1673ffffffffffffffffffffffffffffffffffffffff1663ffdb4b37876060016020810190610aea9190615fbf565b896040518363ffffffff1660e01b8152600401610b089291906172c4565b6040805180830381865afa158015610b24573d6000803e3d6000fd5b505050506040513d601f19601f82011682018060405250810190610b489190617341565b91509150600080600080898060400190610b629190617261565b90501115610ba757610b96896060016020810190610b809190615fbf565b868b8060400190610b919190617261565b61339b565b809350819450829550505050610bc7565b662386f26fc10000866000015163ffffffff16610bc491906173b0565b92505b600080600560010160029054906101000a900461ffff1661ffff161115610c3e57610c3b607060ff16867bffffffffffffffffffffffffffffffffffffffffffffffffffffffff16901c8b8060200190610c2191906171fe565b90508c8060400190610c339190617261565b905085613871565b90505b6000876020015167ffffffffffffffff168463ffffffff166005600001601a9054906101000a900461ffff1661ffff168d8060200190610c7e91906171fe565b9050610c8a91906173b0565b600560000160169054906101000a900463ffffffff1663ffffffff168c60000151610cb591906173f2565b610cbf91906173f2565b610cc991906173f2565b876dffffffffffffffffffffffffffff16610ce491906173b0565b610cee91906173b0565b9050867bffffffffffffffffffffffffffffffffffffffffffffffffffffffff1682828a6040015167ffffffffffffffff1688610d2b91906173b0565b610d3591906173f2565b610d3f91906173f2565b610d499190617455565b995050505050505050505092915050565b60006001600e60109054906101000a900467ffffffffffffffff16610d7f9190617486565b905090565b610d8c613954565b610d968282613a1e565b5050565b60007f000000000000000000000000000000000000000000000000000000000000000073ffffffffffffffffffffffffffffffffffffffff1663bbe4f6db836040518263ffffffff1660e01b8152600401610df59190616a08565b602060405180830381865afa158015610e12573d6000803e3d6000fd5b505050506040513d601f19601f82011682018060405250810190610e3691906174d7565b905092915050565b610e46613deb565b610e4f81613e7b565b50565b610e5a615c60565b610f8e60036040518060a00160405290816000820160009054906101000a90046fffffffffffffffffffffffffffffffff166fffffffffffffffffffffffffffffffff166fffffffffffffffffffffffffffffffff1681526020016000820160109054906101000a900463ffffffff1663ffffffff1663ffffffff1681526020016000820160149054906101000a900460ff161515151581526020016001820160009054906101000a90046fffffffffffffffffffffffffffffffff166fffffffffffffffffffffffffffffffff166fffffffffffffffffffffffffffffffff1681526020016001820160109054906101000a90046fffffffffffffffffffffffffffffffff166fffffffffffffffffffffffffffffffff166fffffffffffffffffffffffffffffffff168152505061438a565b905090565b610f9b613954565b600073ffffffffffffffffffffffffffffffffffffffff168173ffffffffffffffffffffffffffffffffffffffff1603611001576040517f232cb97f00000000000000000000000000000000000000000000000000000000815260040160405180910390fd5b600061100b611be9565b90506000811215611048576040517f02075e0000000000000000000000000000000000000000000000000000000000815260040160405180910390fd5b7f000000000000000000000000000000000000000000000000000000000000000073ffffffffffffffffffffffffffffffffffffffff168373ffffffffffffffffffffffffffffffffffffffff16036110cb576110c682828573ffffffffffffffffffffffffffffffffffffffff166144449092919063ffffffff16565b611170565b61116f828473ffffffffffffffffffffffffffffffffffffffff166370a08231306040518263ffffffff1660e01b81526004016111089190616a08565b602060405180830381865afa158015611125573d6000803e3d6000fd5b505050506040513d601f19601f820116820180604052508101906111499190617519565b8573ffffffffffffffffffffffffffffffffffffffff166144449092919063ffffffff16565b5b505050565b6000600e60009054906101000a90046bffffffffffffffffffffffff16905090565b6000600260009054906101000a900473ffffffffffffffffffffffffffffffffffffffff16905090565b6111c96118db565b73ffffffffffffffffffffffffffffffffffffffff163373ffffffffffffffffffffffffffffffffffffffff16141580156112525750600260009054906101000a900473ffffffffffffffffffffffffffffffffffffffff1673ffffffffffffffffffffffffffffffffffffffff163373ffffffffffffffffffffffffffffffffffffffff1614155b15611289576040517ff6cd562000000000000000000000000000000000000000000000000000000000815260040160405180910390fd5b80600260006101000a81548173ffffffffffffffffffffffffffffffffffffffff021916908373ffffffffffffffffffffffffffffffffffffffff1602179055507f8fe72c3e0020beb3234e76ae6676fa576fbfcae600af1c4fea44784cf0db329c816040516112f99190616a08565b60405180910390a150565b61130c615ccd565b6005604051806101c00160405290816000820160009054906101000a900473ffffffffffffffffffffffffffffffffffffffff1673ffffffffffffffffffffffffffffffffffffffff1673ffffffffffffffffffffffffffffffffffffffff1681526020016000820160149054906101000a900461ffff1661ffff1661ffff1681526020016000820160169054906101000a900463ffffffff1663ffffffff1663ffffffff16815260200160008201601a9054906101000a900461ffff1661ffff1661ffff16815260200160008201601c9054906101000a900463ffffffff1663ffffffff1663ffffffff1681526020016001820160009054906101000a900461ffff1661ffff1661ffff1681526020016001820160029054906101000a900461ffff1661ffff1661ffff1681526020016001820160049054906101000a900473ffffffffffffffffffffffffffffffffffffffff1673ffffffffffffffffffffffffffffffffffffffff1673ffffffffffffffffffffffffffffffffffffffff1681526020016001820160189054906101000a900463ffffffff1663ffffffff1663ffffffff16815260200160018201601c9054906101000a900463ffffffff1663ffffffff1663ffffffff1681526020016002820160009054906101000a900461ffff1661ffff1661ffff1681526020016002820160029054906101000a900463ffffffff1663ffffffff1663ffffffff1681526020016002820160069054906101000a900463ffffffff1663ffffffff1663ffffffff16815260200160028201600a9054906101000a900460ff161515151581525050905090565b611572613954565b6115d18282808060200260200160405190810160405280939291908181526020016000905b828210156115c7578484839050604002018036038101906115b89190617596565b81526020019060010190611597565b50505050506144ca565b5050565b600160009054906101000a900473ffffffffffffffffffffffffffffffffffffffff1673ffffffffffffffffffffffffffffffffffffffff163373ffffffffffffffffffffffffffffffffffffffff1614611665576040517f08c379a000000000000000000000000000000000000000000000000000000000815260040161165c9061760f565b60405180910390fd5b60008060009054906101000a900473ffffffffffffffffffffffffffffffffffffffff169050336000806101000a81548173ffffffffffffffffffffffffffffffffffffffff021916908373ffffffffffffffffffffffffffffffffffffffff1602179055506000600160006101000a81548173ffffffffffffffffffffffffffffffffffffffff021916908373ffffffffffffffffffffffffffffffffffffffff1602179055503373ffffffffffffffffffffffffffffffffffffffff168173ffffffffffffffffffffffffffffffffffffffff167f8be0079c531659141344cd1fd0a4f28419497f9722a3daafe3b4186f6b6457e060405160405180910390a350565b600080600d60008473ffffffffffffffffffffffffffffffffffffffff1673ffffffffffffffffffffffffffffffffffffffff16815260200190815260200160002060009054906101000a900467ffffffffffffffff1667ffffffffffffffff16905060008114801561182a5750600073ffffffffffffffffffffffffffffffffffffffff167f000000000000000000000000000000000000000000000000000000000000000073ffffffffffffffffffffffffffffffffffffffff1614155b156118d1577f000000000000000000000000000000000000000000000000000000000000000073ffffffffffffffffffffffffffffffffffffffff1663856c8247846040518263ffffffff1660e01b81526004016118889190616a08565b602060405180830381865afa1580156118a5573d6000803e3d6000fd5b505050506040513d601f19601f820116820180604052508101906118c99190617644565b9150506118d6565b809150505b919050565b60008060009054906101000a900473ffffffffffffffffffffffffffffffffffffffff16905090565b61190c615da2565b600b60008373ffffffffffffffffffffffffffffffffffffffff1673ffffffffffffffffffffffffffffffffffffffff1681526020019081526020016000206040518060800160405290816000820160009054906101000a900463ffffffff1663ffffffff1663ffffffff1681526020016000820160049054906101000a900467ffffffffffffffff1667ffffffffffffffff1667ffffffffffffffff16815260200160008201600c9054906101000a900467ffffffffffffffff1667ffffffffffffffff1667ffffffffffffffff1681526020016000820160149054906101000a900460ff1615151515815250509050919050565b6060600080611a11600861479a565b90508067ffffffffffffffff811115611a2d57611a2c6162ad565b5b604051908082528060200260200182016040528015611a6657816020015b611a53615de6565b815260200190600190039081611a4b5790505b50925060005b81811015611ae957600080611a8b8360086147af90919063ffffffff16565b9150915060405180604001604052808373ffffffffffffffffffffffffffffffffffffffff1681526020018261ffff16815250868481518110611ad157611ad0617671565b5b60200260200101819052505050806001019050611a6c565b50600e600c9054906101000a900463ffffffff1663ffffffff169150509091565b611b126118db565b73ffffffffffffffffffffffffffffffffffffffff163373ffffffffffffffffffffffffffffffffffffffff1614158015611b9b5750600260009054906101000a900473ffffffffffffffffffffffffffffffffffffffff1673ffffffffffffffffffffffffffffffffffffffff163373ffffffffffffffffffffffffffffffffffffffff1614155b15611bd2576040517ff6cd562000000000000000000000000000000000000000000000000000000000815260040160405180910390fd5b611be68160036147db90919063ffffffff16565b50565b6000600e60009054906101000a90046bffffffffffffffffffffffff166bffffffffffffffffffffffff167f000000000000000000000000000000000000000000000000000000000000000073ffffffffffffffffffffffffffffffffffffffff166370a08231306040518263ffffffff1660e01b8152600401611c6d9190616a08565b602060405180830381865afa158015611c8a573d6000803e3d6000fd5b505050506040513d601f19601f82011682018060405250810190611cae9190617519565b611cb891906176a0565b905090565b60007f000000000000000000000000000000000000000000000000000000000000000073ffffffffffffffffffffffffffffffffffffffff16632cbc26bb8667ffffffffffffffff1660801b6040518263ffffffff1660e01b8152600401611d25919061771e565b602060405180830381865afa158015611d42573d6000803e3d6000fd5b505050506040513d601f19601f82011682018060405250810190611d66919061774e565b15611d9d576040517f53ad11d800000000000000000000000000000000000000000000000000000000815260040160405180910390fd5b600073ffffffffffffffffffffffffffffffffffffffff168273ffffffffffffffffffffffffffffffffffffffff1603611e03576040517fa4ec747900000000000000000000000000000000000000000000000000000000815260040160405180910390fd5b600560000160009054906101000a900473ffffffffffffffffffffffffffffffffffffffff1673ffffffffffffffffffffffffffffffffffffffff163373ffffffffffffffffffffffffffffffffffffffff1614611e8d576040517f1c0a352900000000000000000000000000000000000000000000000000000000815260040160405180910390fd5b7f000000000000000000000000000000000000000000000000000000000000000067ffffffffffffffff168567ffffffffffffffff1614611f0557846040517fd9a9cd68000000000000000000000000000000000000000000000000000000008152600401611efc919061628d565b60405180910390fd5b6000611f1f858060800190611f1a91906171fe565b61308f565b90506000858060400190611f339190617261565b90509050611f5c868060200190611f4a91906171fe565b90508360000151838560200151613233565b60008111156120fa57600080600090505b828110156120e4576000888060400190611f879190617261565b83818110611f9857611f97617671565b5b9050604002016020013503611fd9576040517f5cf0444900000000000000000000000000000000000000000000000000000000815260040160405180910390fd5b600c6000898060400190611fed9190617261565b84818110611ffe57611ffd617671565b5b90506040020160000160208101906120169190615fbf565b73ffffffffffffffffffffffffffffffffffffffff1673ffffffffffffffffffffffffffffffffffffffff16815260200190815260200160002060000160129054906101000a900460ff16156120d9576120cb8880604001906120799190617261565b8381811061208a57612089617671565b5b9050604002018036038101906120a091906177cb565b600560010160049054906101000a900473ffffffffffffffffffffffffffffffffffffffff16614a73565b826120d691906173f2565b91505b806001019050611f6d565b5060008111156120f8576120f781614b9e565b5b505b7f000000000000000000000000000000000000000000000000000000000000000073ffffffffffffffffffffffffffffffffffffffff168660600160208101906121449190615fbf565b73ffffffffffffffffffffffffffffffffffffffff16036121bb5784600e60008282829054906101000a90046bffffffffffffffffffffffff1661218891906177f8565b92506101000a8154816bffffffffffffffffffffffff02191690836bffffffffffffffffffffffff1602179055506122e6565b600560010160049054906101000a900473ffffffffffffffffffffffffffffffffffffffff1673ffffffffffffffffffffffffffffffffffffffff166241e5be87606001602081019061220e9190615fbf565b877f00000000000000000000000000000000000000000000000000000000000000006040518463ffffffff1660e01b815260040161224e93929190617838565b602060405180830381865afa15801561226b573d6000803e3d6000fd5b505050506040513d601f19601f8201168201806040525081019061228f9190617519565b600e60008282829054906101000a90046bffffffffffffffffffffffff166122b791906177f8565b92506101000a8154816bffffffffffffffffffffffff02191690836bffffffffffffffffffffffff1602179055505b7f00000000000000000000000000000000000000000000000000000000000000006bffffffffffffffffffffffff16600e60009054906101000a90046bffffffffffffffffffffffff166bffffffffffffffffffffffff161115612376576040517fe5c7a49100000000000000000000000000000000000000000000000000000000815260040160405180910390fd5b6000600d60008673ffffffffffffffffffffffffffffffffffffffff1673ffffffffffffffffffffffffffffffffffffffff16815260200190815260200160002060009054906101000a900467ffffffffffffffff1667ffffffffffffffff161480156124305750600073ffffffffffffffffffffffffffffffffffffffff167f000000000000000000000000000000000000000000000000000000000000000073ffffffffffffffffffffffffffffffffffffffff1614155b15612535577f000000000000000000000000000000000000000000000000000000000000000073ffffffffffffffffffffffffffffffffffffffff1663856c8247856040518263ffffffff1660e01b815260040161248e9190616a08565b602060405180830381865afa1580156124ab573d6000803e3d6000fd5b505050506040513d601f19601f820116820180604052508101906124cf9190617644565b600d60008673ffffffffffffffffffffffffffffffffffffffff1673ffffffffffffffffffffffffffffffffffffffff16815260200190815260200160002060006101000a81548167ffffffffffffffff021916908367ffffffffffffffff1602179055505b6000604051806101a001604052807f000000000000000000000000000000000000000000000000000000000000000067ffffffffffffffff1681526020018673ffffffffffffffffffffffffffffffffffffffff1681526020016125ea8980600001906125a291906171fe565b8080601f016020809104026020016040519081016040528093929190818152602001838380828437600081840152601f19601f82011690508083019250505050505050614bb8565b73ffffffffffffffffffffffffffffffffffffffff168152602001600e601081819054906101000a900467ffffffffffffffff166126279061786f565b91906101000a81548167ffffffffffffffff021916908367ffffffffffffffff160217905567ffffffffffffffff16815260200184600001518152602001600015158152602001846020015161270057600d60008873ffffffffffffffffffffffffffffffffffffffff1673ffffffffffffffffffffffffffffffffffffffff168152602001908152602001600020600081819054906101000a900467ffffffffffffffff166126d69061786f565b91906101000a81548167ffffffffffffffff021916908367ffffffffffffffff1602179055612703565b60005b67ffffffffffffffff1681526020018860600160208101906127259190615fbf565b73ffffffffffffffffffffffffffffffffffffffff16815260200187815260200188806020019061275691906171fe565b8080601f016020809104026020016040519081016040528093929190818152602001838380828437600081840152601f19601f8201169050808301925050505050505081526020018880604001906127ae9190617261565b808060200260200160405190810160405280939291908181526020016000905b828210156127fe578484839050604002018036038101906127ef91906177cb565b815260200190600101906127ce565b505050505081526020018367ffffffffffffffff811115612822576128216162ad565b5b60405190808252806020026020018201604052801561285557816020015b60608152602001906001900390816128405790505b5081526020016000801916815250905060005b82811015612c725760008880604001906128829190617261565b8381811061289357612892617671565b5b9050604002018036038101906128a991906177cb565b905060006128bb8b8360000151610d9a565b9050600073ffffffffffffffffffffffffffffffffffffffff168173ffffffffffffffffffffffffffffffffffffffff16148061297657508073ffffffffffffffffffffffffffffffffffffffff166301ffc9a763aff2afbf60e01b6040518263ffffffff1660e01b815260040161293391906178da565b602060405180830381865afa158015612950573d6000803e3d6000fd5b505050506040513d601f19601f82011682018060405250810190612974919061774e565b155b156129bc5781600001516040517fbf16aab60000000000000000000000000000000000000000000000000000000081526004016129b39190616a08565b60405180910390fd5b60008173ffffffffffffffffffffffffffffffffffffffff16639a4575b96040518060a001604052808e80600001906129f591906171fe565b8080601f016020809104026020016040519081016040528093929190818152602001838380828437600081840152601f19601f8201169050808301925050505050505081526020017f000000000000000000000000000000000000000000000000000000000000000067ffffffffffffffff1681526020018c73ffffffffffffffffffffffffffffffffffffffff16815260200186602001518152602001866000015173ffffffffffffffffffffffffffffffffffffffff168152506040518263ffffffff1660e01b8152600401612acd91906179cf565b6000604051808303816000875af1158015612aec573d6000803e3d6000fd5b505050506040513d6000823e3d601f19601f82011682018060405250810190612b159190617b1f565b90506020816020015151118015612b8c5750600c6000846000015173ffffffffffffffffffffffffffffffffffffffff1673ffffffffffffffffffffffffffffffffffffffff168152602001908152602001600020600001600e9054906101000a900463ffffffff1663ffffffff16816020015151115b15612bd25782600001516040517f36f536ca000000000000000000000000000000000000000000000000000000008152600401612bc99190616a08565b60405180910390fd5b612bdf8160000151614bb8565b50604051806060016040528083604051602001612bfc919061674a565b6040516020818303038152906040528152602001826000015181526020018260200151815250604051602001612c329190617bc6565b6040516020818303038152906040528561016001518581518110612c5957612c58617671565b5b6020026020010181905250505050806001019050612868565b50612c9d817f0000000000000000000000000000000000000000000000000000000000000000614c23565b816101800181815250507fd0c3c799bf9e2639de44391e7f524d229b2b55f5b1ea94b2bf7da42f7243dddd81604051612cd69190617ebe565b60405180910390a18061018001519350505050949350505050565b612cf96118db565b73ffffffffffffffffffffffffffffffffffffffff163373ffffffffffffffffffffffffffffffffffffffff1614158015612d825750600260009054906101000a900473ffffffffffffffffffffffffffffffffffffffff1673ffffffffffffffffffffffffffffffffffffffff163373ffffffffffffffffffffffffffffffffffffffff1614155b8015612d9f5750612d9d336008614d1890919063ffffffff16565b155b15612dd6576040517f195db95800000000000000000000000000000000000000000000000000000000815260040160405180910390fd5b6000600e600c9054906101000a900463ffffffff1663ffffffff16905060008103612e2d576040517f990e30bf00000000000000000000000000000000000000000000000000000000815260040160405180910390fd5b6000600e60009054906101000a90046bffffffffffffffffffffffff16905081816bffffffffffffffffffffffff161015612e94576040517f8d0f71d800000000000000000000000000000000000000000000000000000000815260040160405180910390fd5b6000612e9e611be9565b1215612ed6576040517ff4d678b800000000000000000000000000000000000000000000000000000000815260040160405180910390fd5b60008190506000612ee7600861479a565b905060005b81811015612ffb57600080612f0b8360086147af90919063ffffffff16565b9150915060008782886bffffffffffffffffffffffff16612f2c91906173b0565b612f369190617455565b90508086612f449190617ee0565b9550612f9f83826bffffffffffffffffffffffff167f000000000000000000000000000000000000000000000000000000000000000073ffffffffffffffffffffffffffffffffffffffff166144449092919063ffffffff16565b8273ffffffffffffffffffffffffffffffffffffffff167f55fdec2aab60a41fa5abb106670eb1006f5aeaee1ba7afea2bc89b5b3ec7678f82604051612fe59190617f51565b60405180910390a2505050806001019050612eec565b5081600e60006101000a8154816bffffffffffffffffffffffff02191690836bffffffffffffffffffffffff16021790555050505050565b61303b613954565b61304481614d48565b50565b61304f613deb565b61305881614ef2565b50565b60606040517f9e7177c800000000000000000000000000000000000000000000000000000000815260040160405180910390fd5b613097615e1a565b600083839050036130eb5760405180604001604052807f000000000000000000000000000000000000000000000000000000000000000067ffffffffffffffff16815260200160001515815250905061322d565b60008383906130fa9190617f84565b905063181dcf1060e01b7bffffffffffffffffffffffffffffffffffffffffffffffffffffffff1916817bffffffffffffffffffffffffffffffffffffffffffffffffffffffff191603613170578383600490809261315b93929190617fed565b8101906131689190618078565b91505061322d565b6397a657c960e01b7bffffffffffffffffffffffffffffffffffffffffffffffffffffffff1916817bffffffffffffffffffffffffffffffffffffffffffffffffffffffff1916036131fb576040518060400160405280858560049080926131da93929190617fed565b8101906131e791906180a5565b81526020016000151581525091505061322d565b6040517f5247fdce00000000000000000000000000000000000000000000000000000000815260040160405180910390fd5b92915050565b6000600560010160189054906101000a900463ffffffff1663ffffffff1690508085111561329a5780856040517f869337890000000000000000000000000000000000000000000000000000000081526004016132919291906180d2565b60405180910390fd5b6005600101601c9054906101000a900463ffffffff1663ffffffff168411156132ef576040517f4c4fc93a00000000000000000000000000000000000000000000000000000000815260040160405180910390fd5b600560000160149054906101000a900461ffff1661ffff16831115613340576040517f4c056b6a00000000000000000000000000000000000000000000000000000000815260040160405180910390fd5b6005600201600a9054906101000a900460ff16801561335d575081155b15613394576040517fee433e9900000000000000000000000000000000000000000000000000000000815260040160405180910390fd5b5050505050565b60008060008085859050905060005b818110156138655760008787838181106133c7576133c6617671565b5b9050604002018036038101906133dd91906177cb565b9050600073ffffffffffffffffffffffffffffffffffffffff166134257f00000000000000000000000000000000000000000000000000000000000000008360000151610d9a565b73ffffffffffffffffffffffffffffffffffffffff16036134815780600001516040517fbf16aab60000000000000000000000000000000000000000000000000000000081526004016134789190616a08565b60405180910390fd5b6000600c6000836000015173ffffffffffffffffffffffffffffffffffffffff1673ffffffffffffffffffffffffffffffffffffffff1681526020019081526020016000206040518060e00160405290816000820160009054906101000a900463ffffffff1663ffffffff1663ffffffff1681526020016000820160049054906101000a900463ffffffff1663ffffffff1663ffffffff1681526020016000820160089054906101000a900461ffff1661ffff1661ffff16815260200160008201600a9054906101000a900463ffffffff1663ffffffff1663ffffffff16815260200160008201600e9054906101000a900463ffffffff1663ffffffff1663ffffffff1681526020016000820160129054906101000a900460ff161515151581526020016000820160139054906101000a900460ff16151515158152505090508060c0015161364e57662386f26fc10000600560020160009054906101000a900461ffff1661ffff166135f491906173b0565b876135ff91906173f2565b9650600560020160029054906101000a900463ffffffff168661362291906180fb565b9550600560020160069054906101000a900463ffffffff168561364591906180fb565b9450505061385a565b600080826040015161ffff1611156137a15760008c73ffffffffffffffffffffffffffffffffffffffff16846000015173ffffffffffffffffffffffffffffffffffffffff161461374357600560010160049054906101000a900473ffffffffffffffffffffffffffffffffffffffff1673ffffffffffffffffffffffffffffffffffffffff16634ab35b0b85600001516040518263ffffffff1660e01b81526004016136fb9190616a08565b602060405180830381865afa158015613718573d6000803e3d6000fd5b505050506040513d601f19601f8201168201806040525081019061373c9190618133565b9050613747565b8b90505b620186a0836040015161ffff166137898660200151847bffffffffffffffffffffffffffffffffffffffffffffffffffffffff1661501e90919063ffffffff16565b61379391906173b0565b61379d9190617455565b9150505b8160600151876137b191906180fb565b96508160800151866137c391906180fb565b95506000662386f26fc10000836000015163ffffffff166137e491906173b0565b9050808210156138055780896137fa91906173f2565b98505050505061385a565b6000662386f26fc10000846020015163ffffffff1661382491906173b0565b90508083111561384657808a61383a91906173f2565b9950505050505061385a565b828a61385291906173f2565b995050505050505b8060010190506133aa565b50509450945094915050565b6000808263ffffffff1660808561388891906173b0565b8661022061389691906173f2565b6138a091906173f2565b6138aa91906173f2565b905060006005600001601c9054906101000a900463ffffffff1663ffffffff16600560010160009054906101000a900461ffff1661ffff16836138ed91906173b0565b6138f791906173f2565b9050655af3107a4000600560010160029054906101000a900461ffff1661ffff16886dffffffffffffffffffffffffffff168361393491906173b0565b61393e91906173b0565b61394891906173b0565b92505050949350505050565b61395c6118db565b73ffffffffffffffffffffffffffffffffffffffff163373ffffffffffffffffffffffffffffffffffffffff16141580156139e55750600260009054906101000a900473ffffffffffffffffffffffffffffffffffffffff1673ffffffffffffffffffffffffffffffffffffffff163373ffffffffffffffffffffffffffffffffffffffff1614155b15613a1c576040517ffbdb8e5600000000000000000000000000000000000000000000000000000000815260040160405180910390fd5b565b60005b8251811015613c60576000838281518110613a3f57613a3e617671565b5b6020026020010151905060208160a0015163ffffffff161015613aa35780600001518160a001516040517f24ecdc02000000000000000000000000000000000000000000000000000000008152600401613a9a92919061816f565b60405180910390fd5b6040518060e00160405280826020015163ffffffff168152602001826040015163ffffffff168152602001826060015161ffff168152602001826080015163ffffffff1681526020018260a0015163ffffffff1681526020018260c001511515815260200160011515815250600c6000836000015173ffffffffffffffffffffffffffffffffffffffff1673ffffffffffffffffffffffffffffffffffffffff16815260200190815260200160002060008201518160000160006101000a81548163ffffffff021916908363ffffffff16021790555060208201518160000160046101000a81548163ffffffff021916908363ffffffff16021790555060408201518160000160086101000a81548161ffff021916908361ffff160217905550606082015181600001600a6101000a81548163ffffffff021916908363ffffffff160217905550608082015181600001600e6101000a81548163ffffffff021916908363ffffffff16021790555060a08201518160000160126101000a81548160ff02191690831515021790555060c08201518160000160136101000a81548160ff02191690831515021790555090505050806001019050613a21565b507ff5791bc457b3bb990493cf5f655db46c25ccf5764c9b99b8969b4c72ea7df9d082604051613c9091906182d5565b60405180910390a160005b8151811015613da457600c6000838381518110613cbb57613cba617671565b5b602002602001015173ffffffffffffffffffffffffffffffffffffffff1673ffffffffffffffffffffffffffffffffffffffff168152602001908152602001600020600080820160006101000a81549063ffffffff02191690556000820160046101000a81549063ffffffff02191690556000820160086101000a81549061ffff021916905560008201600a6101000a81549063ffffffff021916905560008201600e6101000a81549063ffffffff02191690556000820160126101000a81549060ff02191690556000820160136101000a81549060ff02191690555050806001019050613c9b565b50600081511115613de7577ffb95a0042158e60a33e7b5bec100f3d95407b1a71bee6633bd54b8887449750b81604051613dde91906171cd565b60405180910390a15b5050565b60008054906101000a900473ffffffffffffffffffffffffffffffffffffffff1673ffffffffffffffffffffffffffffffffffffffff163373ffffffffffffffffffffffffffffffffffffffff1614613e79576040517f08c379a0000000000000000000000000000000000000000000000000000000008152600401613e7090618343565b60405180910390fd5b565b600073ffffffffffffffffffffffffffffffffffffffff168160e0015173ffffffffffffffffffffffffffffffffffffffff1603613ee5576040517f35be3ac800000000000000000000000000000000000000000000000000000000815260040160405180910390fd5b602081610180015163ffffffff161015613f3e5760008161018001516040517f24ecdc02000000000000000000000000000000000000000000000000000000008152600401613f3592919061816f565b60405180910390fd5b80600560008201518160000160006101000a81548173ffffffffffffffffffffffffffffffffffffffff021916908373ffffffffffffffffffffffffffffffffffffffff16021790555060208201518160000160146101000a81548161ffff021916908361ffff16021790555060408201518160000160166101000a81548163ffffffff021916908363ffffffff160217905550606082015181600001601a6101000a81548161ffff021916908361ffff160217905550608082015181600001601c6101000a81548163ffffffff021916908363ffffffff16021790555060a08201518160010160006101000a81548161ffff021916908361ffff16021790555060c08201518160010160026101000a81548161ffff021916908361ffff16021790555060e08201518160010160046101000a81548173ffffffffffffffffffffffffffffffffffffffff021916908373ffffffffffffffffffffffffffffffffffffffff1602179055506101008201518160010160186101000a81548163ffffffff021916908363ffffffff16021790555061012082015181600101601c6101000a81548163ffffffff021916908363ffffffff1602179055506101408201518160020160006101000a81548161ffff021916908361ffff1602179055506101608201518160020160026101000a81548163ffffffff021916908363ffffffff1602179055506101808201518160020160066101000a81548163ffffffff021916908363ffffffff1602179055506101a082015181600201600a6101000a81548160ff0219169083151502179055509050507fe375c8cb6ea9807cd0371503b632b93da5ee0f1f64205db8b5b28b95d6b588b06040518061010001604052807f000000000000000000000000000000000000000000000000000000000000000073ffffffffffffffffffffffffffffffffffffffff1681526020017f000000000000000000000000000000000000000000000000000000000000000067ffffffffffffffff1681526020017f000000000000000000000000000000000000000000000000000000000000000067ffffffffffffffff1681526020017f000000000000000000000000000000000000000000000000000000000000000067ffffffffffffffff1681526020017f00000000000000000000000000000000000000000000000000000000000000006bffffffffffffffffffffffff1681526020017f000000000000000000000000000000000000000000000000000000000000000073ffffffffffffffffffffffffffffffffffffffff1681526020017f000000000000000000000000000000000000000000000000000000000000000073ffffffffffffffffffffffffffffffffffffffff1681526020017f000000000000000000000000000000000000000000000000000000000000000073ffffffffffffffffffffffffffffffffffffffff168152508260405161437f929190618363565b60405180910390a150565b614392615c60565b6143f582606001516fffffffffffffffffffffffffffffffff1683600001516fffffffffffffffffffffffffffffffff16846020015163ffffffff16426143d9919061838e565b85608001516fffffffffffffffffffffffffffffffff16615065565b82600001906fffffffffffffffffffffffffffffffff1690816fffffffffffffffffffffffffffffffff168152505042826020019063ffffffff16908163ffffffff1681525050819050919050565b6144c58363a9059cbb60e01b84846040516024016144639291906183c2565b604051602081830303815290604052907bffffffffffffffffffffffffffffffffffffffffffffffffffffffff19166020820180517bffffffffffffffffffffffffffffffffffffffffffffffffffffffff8381831617835250505050615091565b505050565b600081519050604081111561450b576040517fb5a10cfa00000000000000000000000000000000000000000000000000000000815260040160405180910390fd5b6000600e600c9054906101000a900463ffffffff1663ffffffff161180156145735750600e600c9054906101000a900463ffffffff1663ffffffff16600e60009054906101000a90046bffffffffffffffffffffffff166bffffffffffffffffffffffff1610155b1561458157614580612cf1565b5b600061458d600861479a565b90505b60008111156145e55760006145bb6001836145ab919061838e565b60086147af90919063ffffffff16565b5090506145d281600861515890919063ffffffff16565b5050806145de906183eb565b9050614590565b506000805b8281101561473a57600084828151811061460757614606617671565b5b6020026020010151600001519050600085838151811061462a57614629617671565b5b60200260200101516020015190507f000000000000000000000000000000000000000000000000000000000000000073ffffffffffffffffffffffffffffffffffffffff168273ffffffffffffffffffffffffffffffffffffffff1614806146be5750600073ffffffffffffffffffffffffffffffffffffffff168273ffffffffffffffffffffffffffffffffffffffff16145b1561470057816040517f4de938d10000000000000000000000000000000000000000000000000000000081526004016146f79190616a08565b60405180910390fd5b61471a828261ffff1660086151889092919063ffffffff16565b508061ffff168461472b91906180fb565b935050508060010190506145ea565b5080600e600c6101000a81548163ffffffff021916908363ffffffff1602179055507f8c337bff38141c507abd25c547606bdde78fe8c12e941ab613f3a565fea6cd24818460405161478d929190618445565b60405180910390a1505050565b60006147a8826000016151bd565b9050919050565b6000806000806147c286600001866151d2565b915091508160001c8160001c9350935050509250929050565b60008260000160109054906101000a900463ffffffff1663ffffffff1642614803919061838e565b90506000811461490d576148af8360010160009054906101000a90046fffffffffffffffffffffffffffffffff166fffffffffffffffffffffffffffffffff168460000160009054906101000a90046fffffffffffffffffffffffffffffffff166fffffffffffffffffffffffffffffffff16838660010160109054906101000a90046fffffffffffffffffffffffffffffffff166fffffffffffffffffffffffffffffffff16615065565b8360000160006101000a8154816fffffffffffffffffffffffffffffffff02191690836fffffffffffffffffffffffffffffffff160217905550428360000160106101000a81548163ffffffff021916908363ffffffff1602179055505b61495f82602001516fffffffffffffffffffffffffffffffff168460000160009054906101000a90046fffffffffffffffffffffffffffffffff166fffffffffffffffffffffffffffffffff16615212565b8360000160006101000a8154816fffffffffffffffffffffffffffffffff02191690836fffffffffffffffffffffffffffffffff16021790555081600001518360000160146101000a81548160ff02191690831515021790555081602001518360010160006101000a8154816fffffffffffffffffffffffffffffffff02191690836fffffffffffffffffffffffffffffffff16021790555081604001518360010160106101000a8154816fffffffffffffffffffffffffffffffff02191690836fffffffffffffffffffffffffffffffff1602179055507f9ea3374b67bf275e6bb9c8ae68f9cae023e1c528b4b27e092f0bb209d3531c1982604051614a6691906184b7565b60405180910390a1505050565b6000808273ffffffffffffffffffffffffffffffffffffffff1663d02641a085600001516040518263ffffffff1660e01b8152600401614ab39190616a08565b6040805180830381865afa158015614acf573d6000803e3d6000fd5b505050506040513d601f19601f82011682018060405250810190614af39190618537565b6000015190506000817bffffffffffffffffffffffffffffffffffffffffffffffffffffffff1603614b605783600001516040517f9a655f7b000000000000000000000000000000000000000000000000000000008152600401614b579190616a08565b60405180910390fd5b614b958460200151827bffffffffffffffffffffffffffffffffffffffffffffffffffffffff1661501e90919063ffffffff16565b91505092915050565b614bb5816000600361522b9092919063ffffffff16565b50565b60006020825114614c0057816040517f8d666f60000000000000000000000000000000000000000000000000000000008152600401614bf791906185ae565b60405180910390fd5b614c1c82806020019051810190614c179190617519565b6155f5565b9050919050565b60008060001b8284602001518560400151866060015187608001518860a001518960c001518a60e001518b6101000151604051602001614c6a9897969594939291906185df565b6040516020818303038152906040528051906020012085610120015180519060200120866101400151604051602001614ca391906186cc565b60405160208183030381529060405280519060200120876101600151604051602001614ccf9190618774565b60405160208183030381529060405280519060200120604051602001614cfa96959493929190618796565b60405160208183030381529060405280519060200120905092915050565b6000614d40836000018373ffffffffffffffffffffffffffffffffffffffff1660001b615685565b905092915050565b60005b8151811015614eb7576000828281518110614d6957614d68617671565b5b602002602001015190506040518060800160405280826020015163ffffffff168152602001826040015167ffffffffffffffff168152602001826060015167ffffffffffffffff16815260200182608001511515815250600b6000836000015173ffffffffffffffffffffffffffffffffffffffff1673ffffffffffffffffffffffffffffffffffffffff16815260200190815260200160002060008201518160000160006101000a81548163ffffffff021916908363ffffffff16021790555060208201518160000160046101000a81548167ffffffffffffffff021916908367ffffffffffffffff160217905550604082015181600001600c6101000a81548167ffffffffffffffff021916908367ffffffffffffffff16021790555060608201518160000160146101000a81548160ff02191690831515021790555090505050806001019050614d4b565b507f067924bf9277d905a9a4631a06d959bc032ace86b3caa835ae7e403d4f39010e81604051614ee7919061890e565b60405180910390a150565b3373ffffffffffffffffffffffffffffffffffffffff168173ffffffffffffffffffffffffffffffffffffffff1603614f60576040517f08c379a0000000000000000000000000000000000000000000000000000000008152600401614f579061897c565b60405180910390fd5b80600160006101000a81548173ffffffffffffffffffffffffffffffffffffffff021916908373ffffffffffffffffffffffffffffffffffffffff1602179055508073ffffffffffffffffffffffffffffffffffffffff1660008054906101000a900473ffffffffffffffffffffffffffffffffffffffff1673ffffffffffffffffffffffffffffffffffffffff167fed8889f560326eb138920d842192f0eb3dd22b4f139c87a2c57538e05bae127860405160405180910390a350565b6000670de0b6b3a764000082847bffffffffffffffffffffffffffffffffffffffffffffffffffffffff1661505391906173b0565b61505d9190617455565b905092915050565b600061508785838561507791906173b0565b8661508291906173f2565b615212565b9050949350505050565b60006150f3826040518060400160405280602081526020017f5361666545524332303a206c6f772d6c6576656c2063616c6c206661696c65648152508573ffffffffffffffffffffffffffffffffffffffff166156a59092919063ffffffff16565b90506000815111156151535780806020019051810190615113919061774e565b615152576040517f08c379a000000000000000000000000000000000000000000000000000000000815260040161514990618a0e565b60405180910390fd5b5b505050565b6000615180836000018373ffffffffffffffffffffffffffffffffffffffff1660001b6156bd565b905092915050565b60006151b4846000018473ffffffffffffffffffffffffffffffffffffffff1660001b8460001b6156f6565b90509392505050565b60006151cb82600001615731565b9050919050565b60008060006151ed848660000161574690919063ffffffff16565b9050808560020160008381526020019081526020016000205492509250509250929050565b60008183106152215781615223565b825b905092915050565b8260000160149054906101000a900460ff1615806152495750600082145b6155f05760008360000160009054906101000a90046fffffffffffffffffffffffffffffffff166fffffffffffffffffffffffffffffffff16905060008460010160009054906101000a90046fffffffffffffffffffffffffffffffff166fffffffffffffffffffffffffffffffff16905060008560000160109054906101000a900463ffffffff1663ffffffff16426152e3919061838e565b90506000811461538b5781831115615327576040517f9725942a00000000000000000000000000000000000000000000000000000000815260040160405180910390fd5b6153658284838960010160109054906101000a90046fffffffffffffffffffffffffffffffff166fffffffffffffffffffffffffffffffff16615065565b9250428660000160106101000a81548163ffffffff021916908363ffffffff1602179055505b8482101561544757600073ffffffffffffffffffffffffffffffffffffffff168473ffffffffffffffffffffffffffffffffffffffff16036154065781856040517ff94ebcd10000000000000000000000000000000000000000000000000000000081526004016153fd9291906180d2565b60405180910390fd5b8185856040517f1a76572a00000000000000000000000000000000000000000000000000000000815260040161543e93929190618a2e565b60405180910390fd5b8483101561556c5760008660010160109054906101000a90046fffffffffffffffffffffffffffffffff166fffffffffffffffffffffffffffffffff169050600081600183615496919061838e565b86896154a2919061838e565b6154ac91906173f2565b6154b69190617455565b9050600073ffffffffffffffffffffffffffffffffffffffff168673ffffffffffffffffffffffffffffffffffffffff160361552b5780856040517f15279c080000000000000000000000000000000000000000000000000000000081526004016155229291906180d2565b60405180910390fd5b8085876040517fd0c8d23a00000000000000000000000000000000000000000000000000000000815260040161556393929190618a2e565b60405180910390fd5b8483615578919061838e565b9250828660000160006101000a8154816fffffffffffffffffffffffffffffffff02191690836fffffffffffffffffffffffffffffffff1602179055507f1871cdf8010e63f2eb8384381a68dfa7416dc571a5517e66e88b2d2d0c0a690a856040516155e49190616263565b60405180910390a15050505b505050565b600073ffffffffffffffffffffffffffffffffffffffff801682118061561c575061040082105b1561567d57816040516020016156329190616263565b6040516020818303038152906040526040517f8d666f6000000000000000000000000000000000000000000000000000000000815260040161567491906185ae565b60405180910390fd5b819050919050565b600061569d828460000161575d90919063ffffffff16565b905092915050565b60606156b48484600085615774565b90509392505050565b6000826002016000838152602001908152602001600020600090556156ee828460000161584190919063ffffffff16565b905092915050565b60008184600201600085815260200190815260200160002081905550615728838560000161585890919063ffffffff16565b90509392505050565b600061573f8260000161586f565b9050919050565b60006157558360000183615880565b905092915050565b600061576c83600001836158ab565b905092915050565b6060824710156157b9576040517f08c379a00000000000000000000000000000000000000000000000000000000081526004016157b090618ad7565b60405180910390fd5b6000808673ffffffffffffffffffffffffffffffffffffffff1685876040516157e29190618b33565b60006040518083038185875af1925050503d806000811461581f576040519150601f19603f3d011682016040523d82523d6000602084013e615824565b606091505b5091509150615835878383876158ce565b92505050949350505050565b60006158508360000183615943565b905092915050565b60006158678360000183615a57565b905092915050565b600081600001805490509050919050565b600082600001828154811061589857615897617671565b5b9060005260206000200154905092915050565b600080836001016000848152602001908152602001600020541415905092915050565b60608315615930576000835103615928576158e885615ac7565b615927576040517f08c379a000000000000000000000000000000000000000000000000000000000815260040161591e90618b96565b60405180910390fd5b5b82905061593b565b61593a8383615aea565b5b949350505050565b60008083600101600084815260200190815260200160002054905060008114615a4b576000600182615975919061838e565b905060006001866000018054905061598d919061838e565b90508181146159fc5760008660000182815481106159ae576159ad617671565b5b90600052602060002001549050808760000184815481106159d2576159d1617671565b5b90600052602060002001819055508387600101600083815260200190815260200160002081905550505b85600001805480615a1057615a0f618bb6565b5b600190038181906000526020600020016000905590558560010160008681526020019081526020016000206000905560019350505050615a51565b60009150505b92915050565b6000615a6383836158ab565b615abc578260000182908060018154018082558091505060019003906000526020600020016000909190919091505582600001805490508360010160008481526020019081526020016000208190555060019050615ac1565b600090505b92915050565b6000808273ffffffffffffffffffffffffffffffffffffffff163b119050919050565b600082511115615afd5781518083602001fd5b806040517f08c379a0000000000000000000000000000000000000000000000000000000008152600401615b31919061617c565b60405180910390fd5b604051806101000160405280600073ffffffffffffffffffffffffffffffffffffffff168152602001600067ffffffffffffffff168152602001600067ffffffffffffffff168152602001600067ffffffffffffffff16815260200160006bffffffffffffffffffffffff168152602001600073ffffffffffffffffffffffffffffffffffffffff168152602001600073ffffffffffffffffffffffffffffffffffffffff168152602001600073ffffffffffffffffffffffffffffffffffffffff1681525090565b6040518060e00160405280600063ffffffff168152602001600063ffffffff168152602001600061ffff168152602001600063ffffffff168152602001600063ffffffff1681526020016000151581526020016000151581525090565b6040518060a0016040528060006fffffffffffffffffffffffffffffffff168152602001600063ffffffff16815260200160001515815260200160006fffffffffffffffffffffffffffffffff16815260200160006fffffffffffffffffffffffffffffffff1681525090565b604051806101c00160405280600073ffffffffffffffffffffffffffffffffffffffff168152602001600061ffff168152602001600063ffffffff168152602001600061ffff168152602001600063ffffffff168152602001600061ffff168152602001600061ffff168152602001600073ffffffffffffffffffffffffffffffffffffffff168152602001600063ffffffff168152602001600063ffffffff168152602001600061ffff168152602001600063ffffffff168152602001600063ffffffff1681526020016000151581525090565b6040518060800160405280600063ffffffff168152602001600067ffffffffffffffff168152602001600067ffffffffffffffff1681526020016000151581525090565b6040518060400160405280600073ffffffffffffffffffffffffffffffffffffffff168152602001600061ffff1681525090565b6040518060400160405280600081526020016000151581525090565b600073ffffffffffffffffffffffffffffffffffffffff82169050919050565b6000615e6182615e36565b9050919050565b615e7181615e56565b82525050565b600067ffffffffffffffff82169050919050565b615e9481615e77565b82525050565b60006bffffffffffffffffffffffff82169050919050565b615ebb81615e9a565b82525050565b61010082016000820151615ed86000850182615e68565b506020820151615eeb6020850182615e8b565b506040820151615efe6040850182615e8b565b506060820151615f116060850182615e8b565b506080820151615f246080850182615eb2565b5060a0820151615f3760a0850182615e68565b5060c0820151615f4a60c0850182615e68565b5060e0820151615f5d60e0850182615e68565b50505050565b600061010082019050615f796000830184615ec1565b92915050565b6000604051905090565b600080fd5b600080fd5b615f9c81615e56565b8114615fa757600080fd5b50565b600081359050615fb981615f93565b92915050565b600060208284031215615fd557615fd4615f89565b5b6000615fe384828501615faa565b91505092915050565b600063ffffffff82169050919050565b61600581615fec565b82525050565b600061ffff82169050919050565b6160228161600b565b82525050565b60008115159050919050565b61603d81616028565b82525050565b60e0820160008201516160596000850182615ffc565b50602082015161606c6020850182615ffc565b50604082015161607f6040850182616019565b5060608201516160926060850182615ffc565b5060808201516160a56080850182615ffc565b5060a08201516160b860a0850182616034565b5060c08201516160cb60c0850182616034565b50505050565b600060e0820190506160e66000830184616043565b92915050565b600081519050919050565b600082825260208201905092915050565b60005b8381101561612657808201518184015260208101905061610b565b60008484015250505050565b6000601f19601f8301169050919050565b600061614e826160ec565b61615881856160f7565b9350616168818560208601616108565b61617181616132565b840191505092915050565b600060208201905081810360008301526161968184616143565b905092915050565b6161a781615e77565b81146161b257600080fd5b50565b6000813590506161c48161619e565b92915050565b600080fd5b600060a082840312156161e5576161e46161ca565b5b81905092915050565b6000806040838503121561620557616204615f89565b5b6000616213858286016161b5565b925050602083013567ffffffffffffffff81111561623457616233615f8e565b5b616240858286016161cf565b9150509250929050565b6000819050919050565b61625d8161624a565b82525050565b60006020820190506162786000830184616254565b92915050565b61628781615e77565b82525050565b60006020820190506162a2600083018461627e565b92915050565b600080fd5b7f4e487b7100000000000000000000000000000000000000000000000000000000600052604160045260246000fd5b6162e582616132565b810181811067ffffffffffffffff82111715616304576163036162ad565b5b80604052505050565b6000616317615f7f565b905061632382826162dc565b919050565b600067ffffffffffffffff821115616343576163426162ad565b5b602082029050602081019050919050565b600080fd5b600080fd5b600080fd5b61636c81615fec565b811461637757600080fd5b50565b60008135905061638981616363565b92915050565b6163988161600b565b81146163a357600080fd5b50565b6000813590506163b58161638f565b92915050565b6163c481616028565b81146163cf57600080fd5b50565b6000813590506163e1816163bb565b92915050565b600060e082840312156163fd576163fc616359565b5b61640760e061630d565b9050600061641784828501615faa565b600083015250602061642b8482850161637a565b602083015250604061643f8482850161637a565b6040830152506060616453848285016163a6565b60608301525060806164678482850161637a565b60808301525060a061647b8482850161637a565b60a08301525060c061648f848285016163d2565b60c08301525092915050565b60006164ae6164a984616328565b61630d565b90508083825260208201905060e084028301858111156164d1576164d0616354565b5b835b818110156164fa57806164e688826163e7565b84526020840193505060e0810190506164d3565b5050509392505050565b600082601f830112616519576165186162a8565b5b813561652984826020860161649b565b91505092915050565b600067ffffffffffffffff82111561654d5761654c6162ad565b5b602082029050602081019050919050565b600061657161656c84616532565b61630d565b9050808382526020820190506020840283018581111561659457616593616354565b5b835b818110156165bd57806165a98882615faa565b845260208401935050602081019050616596565b5050509392505050565b600082601f8301126165dc576165db6162a8565b5b81356165ec84826020860161655e565b91505092915050565b6000806040838503121561660c5761660b615f89565b5b600083013567ffffffffffffffff81111561662a57616629615f8e565b5b61663685828601616504565b925050602083013567ffffffffffffffff81111561665757616656615f8e565b5b616663858286016165c7565b9150509250929050565b600061667882615e56565b9050919050565b6166888161666d565b811461669357600080fd5b50565b6000813590506166a58161667f565b92915050565b600080604083850312156166c2576166c1615f89565b5b60006166d0858286016161b5565b92505060206166e185828601616696565b9150509250929050565b6000819050919050565b600061671061670b61670684615e36565b6166eb565b615e36565b9050919050565b6000616722826166f5565b9050919050565b600061673482616717565b9050919050565b61674481616729565b82525050565b600060208201905061675f600083018461673b565b92915050565b60006101c0828403121561677c5761677b616359565b5b6167876101c061630d565b9050600061679784828501615faa565b60008301525060206167ab848285016163a6565b60208301525060406167bf8482850161637a565b60408301525060606167d3848285016163a6565b60608301525060806167e78482850161637a565b60808301525060a06167fb848285016163a6565b60a08301525060c061680f848285016163a6565b60c08301525060e061682384828501615faa565b60e0830152506101006168388482850161637a565b6101008301525061012061684e8482850161637a565b61012083015250610140616864848285016163a6565b6101408301525061016061687a8482850161637a565b610160830152506101806168908482850161637a565b610180830152506101a06168a6848285016163d2565b6101a08301525092915050565b60006101c082840312156168ca576168c9615f89565b5b60006168d884828501616765565b91505092915050565b60006fffffffffffffffffffffffffffffffff82169050919050565b616906816168e1565b82525050565b60a08201600082015161692260008501826168fd565b5060208201516169356020850182615ffc565b5060408201516169486040850182616034565b50606082015161695b60608501826168fd565b50608082015161696e60808501826168fd565b50505050565b600060a082019050616989600083018461690c565b92915050565b600080604083850312156169a6576169a5615f89565b5b60006169b485828601615faa565b92505060206169c585828601615faa565b9150509250929050565b6169d881615e9a565b82525050565b60006020820190506169f360008301846169cf565b92915050565b616a0281615e56565b82525050565b6000602082019050616a1d60008301846169f9565b92915050565b6101c082016000820151616a3a6000850182615e68565b506020820151616a4d6020850182616019565b506040820151616a606040850182615ffc565b506060820151616a736060850182616019565b506080820151616a866080850182615ffc565b5060a0820151616a9960a0850182616019565b5060c0820151616aac60c0850182616019565b5060e0820151616abf60e0850182615e68565b50610100820151616ad4610100850182615ffc565b50610120820151616ae9610120850182615ffc565b50610140820151616afe610140850182616019565b50610160820151616b13610160850182615ffc565b50610180820151616b28610180850182615ffc565b506101a0820151616b3d6101a0850182616034565b50505050565b60006101c082019050616b596000830184616a23565b92915050565b600080fd5b60008083601f840112616b7a57616b796162a8565b5b8235905067ffffffffffffffff811115616b9757616b96616b5f565b5b602083019150836040820283011115616bb357616bb2616354565b5b9250929050565b60008060208385031215616bd157616bd0615f89565b5b600083013567ffffffffffffffff811115616bef57616bee615f8e565b5b616bfb85828601616b64565b92509250509250929050565b608082016000820151616c1d6000850182615ffc565b506020820151616c306020850182615e8b565b506040820151616c436040850182615e8b565b506060820151616c566060850182616034565b50505050565b6000608082019050616c716000830184616c07565b92915050565b600081519050919050565b600082825260208201905092915050565b6000819050602082019050919050565b604082016000820151616cb96000850182615e68565b506020820151616ccc6020850182616019565b50505050565b6000616cde8383616ca3565b60408301905092915050565b6000602082019050919050565b6000616d0282616c77565b616d0c8185616c82565b9350616d1783616c93565b8060005b83811015616d48578151616d2f8882616cd2565b9750616d3a83616cea565b925050600181019050616d1b565b5085935050505092915050565b60006040820190508181036000830152616d6f8185616cf7565b9050616d7e6020830184616254565b9392505050565b616d8e816168e1565b8114616d9957600080fd5b50565b600081359050616dab81616d85565b92915050565b600060608284031215616dc757616dc6616359565b5b616dd1606061630d565b90506000616de1848285016163d2565b6000830152506020616df584828501616d9c565b6020830152506040616e0984828501616d9c565b60408301525092915050565b600060608284031215616e2b57616e2a615f89565b5b6000616e3984828501616db1565b91505092915050565b6000819050919050565b616e5581616e42565b82525050565b6000602082019050616e706000830184616e4c565b92915050565b616e7f8161624a565b8114616e8a57600080fd5b50565b600081359050616e9c81616e76565b92915050565b60008060008060808587031215616ebc57616ebb615f89565b5b6000616eca878288016161b5565b945050602085013567ffffffffffffffff811115616eeb57616eea615f8e565b5b616ef7878288016161cf565b9350506040616f0887828801616e8d565b9250506060616f1987828801615faa565b91505092959194509250565b6000819050919050565b616f3881616f25565b82525050565b6000602082019050616f536000830184616f2f565b92915050565b600067ffffffffffffffff821115616f7457616f736162ad565b5b602082029050602081019050919050565b600060a08284031215616f9b57616f9a616359565b5b616fa560a061630d565b90506000616fb584828501615faa565b6000830152506020616fc98482850161637a565b6020830152506040616fdd848285016161b5565b6040830152506060616ff1848285016161b5565b6060830152506080617005848285016163d2565b60808301525092915050565b600061702461701f84616f59565b61630d565b90508083825260208201905060a0840283018581111561704757617046616354565b5b835b81811015617070578061705c8882616f85565b84526020840193505060a081019050617049565b5050509392505050565b600082601f83011261708f5761708e6162a8565b5b813561709f848260208601617011565b91505092915050565b6000602082840312156170be576170bd615f89565b5b600082013567ffffffffffffffff8111156170dc576170db615f8e565b5b6170e88482850161707a565b91505092915050565b60006020828403121561710757617106615f89565b5b6000617115848285016161b5565b91505092915050565b600081519050919050565b600082825260208201905092915050565b6000819050602082019050919050565b60006171568383615e68565b60208301905092915050565b6000602082019050919050565b600061717a8261711e565b6171848185617129565b935061718f8361713a565b8060005b838110156171c05781516171a7888261714a565b97506171b283617162565b925050600181019050617193565b5085935050505092915050565b600060208201905081810360008301526171e7818461716f565b905092915050565b600080fd5b600080fd5b600080fd5b6000808335600160200384360303811261721b5761721a6171ef565b5b80840192508235915067ffffffffffffffff82111561723d5761723c6171f4565b5b602083019250600182023603831315617259576172586171f9565b5b509250929050565b6000808335600160200384360303811261727e5761727d6171ef565b5b80840192508235915067ffffffffffffffff8211156172a05761729f6171f4565b5b6020830192506040820236038313156172bc576172bb6171f9565b5b509250929050565b60006040820190506172d960008301856169f9565b6172e6602083018461627e565b9392505050565b60007bffffffffffffffffffffffffffffffffffffffffffffffffffffffff82169050919050565b61731e816172ed565b811461732957600080fd5b50565b60008151905061733b81617315565b92915050565b6000806040838503121561735857617357615f89565b5b60006173668582860161732c565b92505060206173778582860161732c565b9150509250929050565b7f4e487b7100000000000000000000000000000000000000000000000000000000600052601160045260246000fd5b60006173bb8261624a565b91506173c68361624a565b92508282026173d48161624a565b915082820484148315176173eb576173ea617381565b5b5092915050565b60006173fd8261624a565b91506174088361624a565b92508282019050808211156174205761741f617381565b5b92915050565b7f4e487b7100000000000000000000000000000000000000000000000000000000600052601260045260246000fd5b60006174608261624a565b915061746b8361624a565b92508261747b5761747a617426565b5b828204905092915050565b600061749182615e77565b915061749c83615e77565b9250828201905067ffffffffffffffff8111156174bc576174bb617381565b5b92915050565b6000815190506174d181615f93565b92915050565b6000602082840312156174ed576174ec615f89565b5b60006174fb848285016174c2565b91505092915050565b60008151905061751381616e76565b92915050565b60006020828403121561752f5761752e615f89565b5b600061753d84828501617504565b91505092915050565b60006040828403121561755c5761755b616359565b5b617566604061630d565b9050600061757684828501615faa565b600083015250602061758a848285016163a6565b60208301525092915050565b6000604082840312156175ac576175ab615f89565b5b60006175ba84828501617546565b91505092915050565b7f4d7573742062652070726f706f736564206f776e657200000000000000000000600082015250565b60006175f96016836160f7565b9150617604826175c3565b602082019050919050565b60006020820190508181036000830152617628816175ec565b9050919050565b60008151905061763e8161619e565b92915050565b60006020828403121561765a57617659615f89565b5b60006176688482850161762f565b91505092915050565b7f4e487b7100000000000000000000000000000000000000000000000000000000600052603260045260246000fd5b60006176ab82616e42565b91506176b683616e42565b92508282039050818112600084121682821360008512151617156176dd576176dc617381565b5b92915050565b60007fffffffffffffffffffffffffffffffff0000000000000000000000000000000082169050919050565b617718816176e3565b82525050565b6000602082019050617733600083018461770f565b92915050565b600081519050617748816163bb565b92915050565b60006020828403121561776457617763615f89565b5b600061777284828501617739565b91505092915050565b60006040828403121561779157617790616359565b5b61779b604061630d565b905060006177ab84828501615faa565b60008301525060206177bf84828501616e8d565b60208301525092915050565b6000604082840312156177e1576177e0615f89565b5b60006177ef8482850161777b565b91505092915050565b600061780382615e9a565b915061780e83615e9a565b925082820190506bffffffffffffffffffffffff81111561783257617831617381565b5b92915050565b600060608201905061784d60008301866169f9565b61785a6020830185616254565b61786760408301846169f9565b949350505050565b600061787a82615e77565b915067ffffffffffffffff820361789457617893617381565b5b600182019050919050565b60007fffffffff0000000000000000000000000000000000000000000000000000000082169050919050565b6178d48161789f565b82525050565b60006020820190506178ef60008301846178cb565b92915050565b600081519050919050565b600082825260208201905092915050565b600061791c826178f5565b6179268185617900565b9350617936818560208601616108565b61793f81616132565b840191505092915050565b6179538161624a565b82525050565b600060a08301600083015184820360008601526179768282617911565b915050602083015161798b6020860182615e8b565b50604083015161799e6040860182615e68565b5060608301516179b1606086018261794a565b5060808301516179c46080860182615e68565b508091505092915050565b600060208201905081810360008301526179e98184617959565b905092915050565b600080fd5b600067ffffffffffffffff821115617a1157617a106162ad565b5b617a1a82616132565b9050602081019050919050565b6000617a3a617a35846179f6565b61630d565b905082815260208101848484011115617a5657617a556179f1565b5b617a61848285616108565b509392505050565b600082601f830112617a7e57617a7d6162a8565b5b8151617a8e848260208601617a27565b91505092915050565b600060408284031215617aad57617aac616359565b5b617ab7604061630d565b9050600082015167ffffffffffffffff811115617ad757617ad661635e565b5b617ae384828501617a69565b600083015250602082015167ffffffffffffffff811115617b0757617b0661635e565b5b617b1384828501617a69565b60208301525092915050565b600060208284031215617b3557617b34615f89565b5b600082015167ffffffffffffffff811115617b5357617b52615f8e565b5b617b5f84828501617a97565b91505092915050565b60006060830160008301518482036000860152617b858282617911565b91505060208301518482036020860152617b9f8282617911565b91505060408301518482036040860152617bb98282617911565b9150508091505092915050565b60006020820190508181036000830152617be08184617b68565b905092915050565b600081519050919050565b600082825260208201905092915050565b6000819050602082019050919050565b604082016000820151617c2a6000850182615e68565b506020820151617c3d602085018261794a565b50505050565b6000617c4f8383617c14565b60408301905092915050565b6000602082019050919050565b6000617c7382617be8565b617c7d8185617bf3565b9350617c8883617c04565b8060005b83811015617cb9578151617ca08882617c43565b9750617cab83617c5b565b925050600181019050617c8c565b5085935050505092915050565b600081519050919050565b600082825260208201905092915050565b6000819050602082019050919050565b6000617cfe8383617911565b905092915050565b6000602082019050919050565b6000617d1e82617cc6565b617d288185617cd1565b935083602082028501617d3a85617ce2565b8060005b85811015617d765784840389528151617d578582617cf2565b9450617d6283617d06565b925060208a01995050600181019050617d3e565b50829750879550505050505092915050565b617d9181616f25565b82525050565b60006101a083016000830151617db06000860182615e8b565b506020830151617dc36020860182615e68565b506040830151617dd66040860182615e68565b506060830151617de96060860182615e8b565b506080830151617dfc608086018261794a565b5060a0830151617e0f60a0860182616034565b5060c0830151617e2260c0860182615e8b565b5060e0830151617e3560e0860182615e68565b50610100830151617e4a61010086018261794a565b50610120830151848203610120860152617e648282617911565b915050610140830151848203610140860152617e808282617c68565b915050610160830151848203610160860152617e9c8282617d13565b915050610180830151617eb3610180860182617d88565b508091505092915050565b60006020820190508181036000830152617ed88184617d97565b905092915050565b6000617eeb82615e9a565b9150617ef683615e9a565b925082820390506bffffffffffffffffffffffff811115617f1a57617f19617381565b5b92915050565b6000617f3b617f36617f3184615e9a565b6166eb565b61624a565b9050919050565b617f4b81617f20565b82525050565b6000602082019050617f666000830184617f42565b92915050565b600082905092915050565b600082821b905092915050565b6000617f908383617f6c565b82617f9b813561789f565b92506004821015617fdb57617fd67fffffffff0000000000000000000000000000000000000000000000000000000083600403600802617f77565b831692505b505092915050565b600080fd5b600080fd5b6000808585111561800157618000617fe3565b5b8386111561801257618011617fe8565b5b6001850283019150848603905094509492505050565b60006040828403121561803e5761803d616359565b5b618048604061630d565b9050600061805884828501616e8d565b600083015250602061806c848285016163d2565b60208301525092915050565b60006040828403121561808e5761808d615f89565b5b600061809c84828501618028565b91505092915050565b6000602082840312156180bb576180ba615f89565b5b60006180c984828501616e8d565b91505092915050565b60006040820190506180e76000830185616254565b6180f46020830184616254565b9392505050565b600061810682615fec565b915061811183615fec565b9250828201905063ffffffff81111561812d5761812c617381565b5b92915050565b60006020828403121561814957618148615f89565b5b60006181578482850161732c565b91505092915050565b61816981615fec565b82525050565b600060408201905061818460008301856169f9565b6181916020830184618160565b9392505050565b600081519050919050565b600082825260208201905092915050565b6000819050602082019050919050565b60e0820160008201516181da6000850182615e68565b5060208201516181ed6020850182615ffc565b5060408201516182006040850182615ffc565b5060608201516182136060850182616019565b5060808201516182266080850182615ffc565b5060a082015161823960a0850182615ffc565b5060c082015161824c60c0850182616034565b50505050565b600061825e83836181c4565b60e08301905092915050565b6000602082019050919050565b600061828282618198565b61828c81856181a3565b9350618297836181b4565b8060005b838110156182c85781516182af8882618252565b97506182ba8361826a565b92505060018101905061829b565b5085935050505092915050565b600060208201905081810360008301526182ef8184618277565b905092915050565b7f4f6e6c792063616c6c61626c65206279206f776e657200000000000000000000600082015250565b600061832d6016836160f7565b9150618338826182f7565b602082019050919050565b6000602082019050818103600083015261835c81618320565b9050919050565b60006102c0820190506183796000830185615ec1565b618387610100830184616a23565b9392505050565b60006183998261624a565b91506183a48361624a565b92508282039050818111156183bc576183bb617381565b5b92915050565b60006040820190506183d760008301856169f9565b6183e46020830184616254565b9392505050565b60006183f68261624a565b91506000820361840957618408617381565b5b600182039050919050565b600061842f61842a61842584615fec565b6166eb565b61624a565b9050919050565b61843f81618414565b82525050565b600060408201905061845a6000830185618436565b818103602083015261846c8184616cf7565b90509392505050565b60608201600082015161848b6000850182616034565b50602082015161849e60208501826168fd565b5060408201516184b160408501826168fd565b50505050565b60006060820190506184cc6000830184618475565b92915050565b6000815190506184e181616363565b92915050565b6000604082840312156184fd576184fc616359565b5b618507604061630d565b905060006185178482850161732c565b600083015250602061852b848285016184d2565b60208301525092915050565b60006040828403121561854d5761854c615f89565b5b600061855b848285016184e7565b91505092915050565b600082825260208201905092915050565b6000618580826178f5565b61858a8185618564565b935061859a818560208601616108565b6185a381616132565b840191505092915050565b600060208201905081810360008301526185c88184618575565b905092915050565b6185d981616028565b82525050565b6000610100820190506185f5600083018b6169f9565b618602602083018a6169f9565b61860f604083018961627e565b61861c6060830188616254565b61862960808301876185d0565b61863660a083018661627e565b61864360c08301856169f9565b61865060e0830184616254565b9998505050505050505050565b600082825260208201905092915050565b600061867982617be8565b618683818561865d565b935061868e83617c04565b8060005b838110156186bf5781516186a68882617c43565b97506186b183617c5b565b925050600181019050618692565b5085935050505092915050565b600060208201905081810360008301526186e6818461866e565b905092915050565b600082825260208201905092915050565b600061870a82617cc6565b61871481856186ee565b93508360208202850161872685617ce2565b8060005b8581101561876257848403895281516187438582617cf2565b945061874e83617d06565b925060208a0199505060018101905061872a565b50829750879550505050505092915050565b6000602082019050818103600083015261878e81846186ff565b905092915050565b600060c0820190506187ab6000830189616f2f565b6187b86020830188616f2f565b6187c56040830187616f2f565b6187d26060830186616f2f565b6187df6080830185616f2f565b6187ec60a0830184616f2f565b979650505050505050565b600081519050919050565b600082825260208201905092915050565b6000819050602082019050919050565b60a0820160008201516188396000850182615e68565b50602082015161884c6020850182615ffc565b50604082015161885f6040850182615e8b565b5060608201516188726060850182615e8b565b5060808201516188856080850182616034565b50505050565b60006188978383618823565b60a08301905092915050565b6000602082019050919050565b60006188bb826187f7565b6188c58185618802565b93506188d083618813565b8060005b838110156189015781516188e8888261888b565b97506188f3836188a3565b9250506001810190506188d4565b5085935050505092915050565b6000602082019050818103600083015261892881846188b0565b905092915050565b7f43616e6e6f74207472616e7366657220746f2073656c66000000000000000000600082015250565b60006189666017836160f7565b915061897182618930565b602082019050919050565b6000602082019050818103600083015261899581618959565b9050919050565b7f5361666545524332303a204552433230206f7065726174696f6e20646964206e60008201527f6f74207375636365656400000000000000000000000000000000000000000000602082015250565b60006189f8602a836160f7565b9150618a038261899c565b604082019050919050565b60006020820190508181036000830152618a27816189eb565b9050919050565b6000606082019050618a436000830186616254565b618a506020830185616254565b618a5d60408301846169f9565b949350505050565b7f416464726573733a20696e73756666696369656e742062616c616e636520666f60008201527f722063616c6c0000000000000000000000000000000000000000000000000000602082015250565b6000618ac16026836160f7565b9150618acc82618a65565b604082019050919050565b60006020820190508181036000830152618af081618ab4565b9050919050565b600081905092915050565b6000618b0d826178f5565b618b178185618af7565b9350618b27818560208601616108565b80840191505092915050565b6000618b3f8284618b02565b915081905092915050565b7f416464726573733a2063616c6c20746f206e6f6e2d636f6e7472616374000000600082015250565b6000618b80601d836160f7565b9150618b8b82618b4a565b602082019050919050565b60006020820190508181036000830152618baf81618b73565b9050919050565b7f4e487b7100000000000000000000000000000000000000000000000000000000600052603160045260246000fdfea164736f6c6343000818000a","linkReferences":{}},"methodIdentifiers":{"acceptOwnership()":"79ba5097","currentRateLimiterState()":"546719cd","forwardFromRouter(uint64,(bytes,bytes,(address,uint256)[],address,bytes),uint256,address)":"df0aa9e9","getDynamicConfig()":"7437ff9f","getExpectedNextSequenceNumber()":"4120fccd","getFee(uint64,(bytes,bytes,(address,uint256)[],address,bytes))":"20487ded","getFeeTokenConfig(address)":"9a113c36","getNopFeesJuels()":"54b71468","getNops()":"b06d41bc","getPoolBySourceToken(uint64,address)":"48a98aa4","getSenderNonce(address)":"856c8247","getStaticConfig()":"06285c69","getSupportedTokens(uint64)":"fbca3b74","getTokenLimitAdmin()":"599f6431","getTokenTransferFeeConfig(address)":"1772047e","linkAvailableForPayment()":"d09dc339","owner()":"8da5cb5b","payNops()":"eff7cc48","setAdmin(address)":"704b6c02","setDynamicConfig((address,uint16,uint32,uint16,uint32,uint16,uint16,address,uint32,uint32,uint16,uint32,uint32,bool))":"528d4a92","setFeeTokenConfig((address,uint32,uint64,uint64,bool)[])":"f25561fd","setNops((address,uint16)[])":"76f6ae76","setRateLimiterConfig((bool,uint128,uint128))":"c92b2832","setTokenTransferFeeConfig((address,uint32,uint32,uint16,uint32,uint32,bool)[],address[])":"4816f4f7","transferOwnership(address)":"f2fde38b","typeAndVersion()":"181f5a77","withdrawNonLinkFees(address,address)":"549e946f"},"id":39}