{"abi":[{"type":"constructor","inputs":[{"name":"token","type":"address","internalType":"contract IERC20"},{"name":"allowlist","type":"address[]","internalType":"address[]"},{"name":"rmnProxy","type":"address","internalType":"address"},{"name":"acceptLiquidity","type":"bool","internalType":"bool"},{"name":"router","type":"address","internalType":"address"}],"stateMutability":"nonpayable"},{"type":"function","name":"acceptOwnership","inputs":[],"outputs":[],"stateMutability":"nonpayable"},{"type":"function","name":"applyAllowListUpdates","inputs":[{"name":"removes","type":"address[]","internalType":"address[]"},{"name":"adds","type":"address[]","internalType":"address[]"}],"outputs":[],"stateMutability":"nonpayable"},{"type":"function","name":"applyChainUpdates","inputs":[{"name":"chains","type":"tuple[]","internalType":"struct TokenPool.ChainUpdate[]","components":[{"name":"remoteChainSelector","type":"uint64","internalType":"uint64"},{"name":"allowed","type":"bool","internalType":"bool"},{"name":"remotePoolAddress","type":"bytes","internalType":"bytes"},{"name":"remoteTokenAddress","type":"bytes","internalType":"bytes"},{"name":"outboundRateLimiterConfig","type":"tuple","internalType":"struct RateLimiter.Config","components":[{"name":"isEnabled","type":"bool","internalType":"bool"},{"name":"capacity","type":"uint128","internalType":"uint128"},{"name":"rate","type":"uint128","internalType":"uint128"}]},{"name":"inboundRateLimiterConfig","type":"tuple","internalType":"struct RateLimiter.Config","components":[{"name":"isEnabled","type":"bool","internalType":"bool"},{"name":"capacity","type":"uint128","internalType":"uint128"},{"name":"rate","type":"uint128","internalType":"uint128"}]}]}],"outputs":[],"stateMutability":"nonpayable"},{"type":"function","name":"canAcceptLiquidity","inputs":[],"outputs":[{"name":"","type":"bool","internalType":"bool"}],"stateMutability":"view"},{"type":"function","name":"getAllowList","inputs":[],"outputs":[{"name":"","type":"address[]","internalType":"address[]"}],"stateMutability":"view"},{"type":"function","name":"getAllowListEnabled","inputs":[],"outputs":[{"name":"","type":"bool","internalType":"bool"}],"stateMutability":"view"},{"type":"function","name":"getCurrentInboundRateLimiterState","inputs":[{"name":"remoteChainSelector","type":"uint64","internalType":"uint64"}],"outputs":[{"name":"","type":"tuple","internalType":"struct RateLimiter.TokenBucket","components":[{"name":"tokens","type":"uint128","internalType":"uint128"},{"name":"lastUpdated","type":"uint32","internalType":"uint32"},{"name":"isEnabled","type":"bool","internalType":"bool"},{"name":"capacity","type":"uint128","internalType":"uint128"},{"name":"rate","type":"uint128","internalType":"uint128"}]}],"stateMutability":"view"},{"type":"function","name":"getCurrentOutboundRateLimiterState","inputs":[{"name":"remoteChainSelector","type":"uint64","internalType":"uint64"}],"outputs":[{"name":"","type":"tuple","internalType":"struct RateLimiter.TokenBucket","components":[{"name":"tokens","type":"uint128","internalType":"uint128"},{"name":"lastUpdated","type":"uint32","internalType":"uint32"},{"name":"isEnabled","type":"bool","internalType":"bool"},{"name":"capacity","type":"uint128","internalType":"uint128"},{"name":"rate","type":"uint128","internalType":"uint128"}]}],"stateMutability":"view"},{"type":"function","name":"getRateLimitAdmin","inputs":[],"outputs":[{"name":"","type":"address","internalType":"address"}],"stateMutability":"view"},{"type":"function","name":"getRebalancer","inputs":[],"outputs":[{"name":"","type":"address","internalType":"address"}],"stateMutability":"view"},{"type":"function","name":"getRemotePool","inputs":[{"name":"remoteChainSelector","type":"uint64","internalType":"uint64"}],"outputs":[{"name":"","type":"bytes","internalType":"bytes"}],"stateMutability":"view"},{"type":"function","name":"getRemoteToken","inputs":[{"name":"remoteChainSelector","type":"uint64","internalType":"uint64"}],"outputs":[{"name":"","type":"bytes","internalType":"bytes"}],"stateMutability":"view"},{"type":"function","name":"getRmnProxy","inputs":[],"outputs":[{"name":"rmnProxy","type":"address","internalType":"address"}],"stateMutability":"view"},{"type":"function","name":"getRouter","inputs":[],"outputs":[{"name":"router","type":"address","internalType":"address"}],"stateMutability":"view"},{"type":"function","name":"getSupportedChains","inputs":[],"outputs":[{"name":"","type":"uint64[]","internalType":"uint64[]"}],"stateMutability":"view"},{"type":"function","name":"getToken","inputs":[],"outputs":[{"name":"token","type":"address","internalType":"contract IERC20"}],"stateMutability":"view"},{"type":"function","name":"isSupportedChain","inputs":[{"name":"remoteChainSelector","type":"uint64","internalType":"uint64"}],"outputs":[{"name":"","type":"bool","internalType":"bool"}],"stateMutability":"view"},{"type":"function","name":"isSupportedToken","inputs":[{"name":"token","type":"address","internalType":"address"}],"outputs":[{"name":"","type":"bool","internalType":"bool"}],"stateMutability":"view"},{"type":"function","name":"lockOrBurn","inputs":[{"name":"lockOrBurnIn","type":"tuple","internalType":"struct Pool.LockOrBurnInV1","components":[{"name":"receiver","type":"bytes","internalType":"bytes"},{"name":"remoteChainSelector","type":"uint64","internalType":"uint64"},{"name":"originalSender","type":"address","internalType":"address"},{"name":"amount","type":"uint256","internalType":"uint256"},{"name":"localToken","type":"address","internalType":"address"}]}],"outputs":[{"name":"","type":"tuple","internalType":"struct Pool.LockOrBurnOutV1","components":[{"name":"destTokenAddress","type":"bytes","internalType":"bytes"},{"name":"destPoolData","type":"bytes","internalType":"bytes"}]}],"stateMutability":"nonpayable"},{"type":"function","name":"owner","inputs":[],"outputs":[{"name":"","type":"address","internalType":"address"}],"stateMutability":"view"},{"type":"function","name":"provideLiquidity","inputs":[{"name":"amount","type":"uint256","internalType":"uint256"}],"outputs":[],"stateMutability":"nonpayable"},{"type":"function","name":"releaseOrMint","inputs":[{"name":"releaseOrMintIn","type":"tuple","internalType":"struct Pool.ReleaseOrMintInV1","components":[{"name":"originalSender","type":"bytes","internalType":"bytes"},{"name":"remoteChainSelector","type":"uint64","internalType":"uint64"},{"name":"receiver","type":"address","internalType":"address"},{"name":"amount","type":"uint256","internalType":"uint256"},{"name":"localToken","type":"address","internalType":"address"},{"name":"sourcePoolAddress","type":"bytes","internalType":"bytes"},{"name":"sourcePoolData","type":"bytes","internalType":"bytes"},{"name":"offchainTokenData","type":"bytes","internalType":"bytes"}]}],"outputs":[{"name":"","type":"tuple","internalType":"struct Pool.ReleaseOrMintOutV1","components":[{"name":"destinationAmount","type":"uint256","internalType":"uint256"}]}],"stateMutability":"nonpayable"},{"type":"function","name":"setChainRateLimiterConfig","inputs":[{"name":"remoteChainSelector","type":"uint64","internalType":"uint64"},{"name":"outboundConfig","type":"tuple","internalType":"struct RateLimiter.Config","components":[{"name":"isEnabled","type":"bool","internalType":"bool"},{"name":"capacity","type":"uint128","internalType":"uint128"},{"name":"rate","type":"uint128","internalType":"uint128"}]},{"name":"inboundConfig","type":"tuple","internalType":"struct RateLimiter.Config","components":[{"name":"isEnabled","type":"bool","internalType":"bool"},{"name":"capacity","type":"uint128","internalType":"uint128"},{"name":"rate","type":"uint128","internalType":"uint128"}]}],"outputs":[],"stateMutability":"nonpayable"},{"type":"function","name":"setRateLimitAdmin","inputs":[{"name":"rateLimitAdmin","type":"address","internalType":"address"}],"outputs":[],"stateMutability":"nonpayable"},{"type":"function","name":"setRebalancer","inputs":[{"name":"rebalancer","type":"address","internalType":"address"}],"outputs":[],"stateMutability":"nonpayable"},{"type":"function","name":"setRemotePool","inputs":[{"name":"remoteChainSelector","type":"uint64","internalType":"uint64"},{"name":"remotePoolAddress","type":"bytes","internalType":"bytes"}],"outputs":[],"stateMutability":"nonpayable"},{"type":"function","name":"setRouter","inputs":[{"name":"newRouter","type":"address","internalType":"address"}],"outputs":[],"stateMutability":"nonpayable"},{"type":"function","name":"supportsInterface","inputs":[{"name":"interfaceId","type":"bytes4","internalType":"bytes4"}],"outputs":[{"name":"","type":"bool","internalType":"bool"}],"stateMutability":"pure"},{"type":"function","name":"transferOwnership","inputs":[{"name":"to","type":"address","internalType":"address"}],"outputs":[],"stateMutability":"nonpayable"},{"type":"function","name":"typeAndVersion","inputs":[],"outputs":[{"name":"","type":"string","internalType":"string"}],"stateMutability":"view"},{"type":"function","name":"withdrawLiquidity","inputs":[{"name":"amount","type":"uint256","internalType":"uint256"}],"outputs":[],"stateMutability":"nonpayable"},{"type":"event","name":"AllowListAdd","inputs":[{"name":"sender","type":"address","indexed":false,"internalType":"address"}],"anonymous":false},{"type":"event","name":"AllowListRemove","inputs":[{"name":"sender","type":"address","indexed":false,"internalType":"address"}],"anonymous":false},{"type":"event","name":"Burned","inputs":[{"name":"sender","type":"address","indexed":true,"internalType":"address"},{"name":"amount","type":"uint256","indexed":false,"internalType":"uint256"}],"anonymous":false},{"type":"event","name":"ChainAdded","inputs":[{"name":"remoteChainSelector","type":"uint64","indexed":false,"internalType":"uint64"},{"name":"remoteToken","type":"bytes","indexed":false,"internalType":"bytes"},{"name":"outboundRateLimiterConfig","type":"tuple","indexed":false,"internalType":"struct RateLimiter.Config","components":[{"name":"isEnabled","type":"bool","internalType":"bool"},{"name":"capacity","type":"uint128","internalType":"uint128"},{"name":"rate","type":"uint128","internalType":"uint128"}]},{"name":"inboundRateLimiterConfig","type":"tuple","indexed":false,"internalType":"struct RateLimiter.Config","components":[{"name":"isEnabled","type":"bool","internalType":"bool"},{"name":"capacity","type":"uint128","internalType":"uint128"},{"name":"rate","type":"uint128","internalType":"uint128"}]}],"anonymous":false},{"type":"event","name":"ChainConfigured","inputs":[{"name":"remoteChainSelector","type":"uint64","indexed":false,"internalType":"uint64"},{"name":"outboundRateLimiterConfig","type":"tuple","indexed":false,"internalType":"struct RateLimiter.Config","components":[{"name":"isEnabled","type":"bool","internalType":"bool"},{"name":"capacity","type":"uint128","internalType":"uint128"},{"name":"rate","type":"uint128","internalType":"uint128"}]},{"name":"inboundRateLimiterConfig","type":"tuple","indexed":false,"internalType":"struct RateLimiter.Config","components":[{"name":"isEnabled","type":"bool","internalType":"bool"},{"name":"capacity","type":"uint128","internalType":"uint128"},{"name":"rate","type":"uint128","internalType":"uint128"}]}],"anonymous":false},{"type":"event","name":"ChainRemoved","inputs":[{"name":"remoteChainSelector","type":"uint64","indexed":false,"internalType":"uint64"}],"anonymous":false},{"type":"event","name":"ConfigChanged","inputs":[{"name":"config","type":"tuple","indexed":false,"internalType":"struct RateLimiter.Config","components":[{"name":"isEnabled","type":"bool","internalType":"bool"},{"name":"capacity","type":"uint128","internalType":"uint128"},{"name":"rate","type":"uint128","internalType":"uint128"}]}],"anonymous":false},{"type":"event","name":"LiquidityAdded","inputs":[{"name":"provider","type":"address","indexed":true,"internalType":"address"},{"name":"amount","type":"uint256","indexed":true,"internalType":"uint256"}],"anonymous":false},{"type":"event","name":"LiquidityRemoved","inputs":[{"name":"provider","type":"address","indexed":true,"internalType":"address"},{"name":"amount","type":"uint256","indexed":true,"internalType":"uint256"}],"anonymous":false},{"type":"event","name":"Locked","inputs":[{"name":"sender","type":"address","indexed":true,"internalType":"address"},{"name":"amount","type":"uint256","indexed":false,"internalType":"uint256"}],"anonymous":false},{"type":"event","name":"Minted","inputs":[{"name":"sender","type":"address","indexed":true,"internalType":"address"},{"name":"recipient","type":"address","indexed":true,"internalType":"address"},{"name":"amount","type":"uint256","indexed":false,"internalType":"uint256"}],"anonymous":false},{"type":"event","name":"OwnershipTransferRequested","inputs":[{"name":"from","type":"address","indexed":true,"internalType":"address"},{"name":"to","type":"address","indexed":true,"internalType":"address"}],"anonymous":false},{"type":"event","name":"OwnershipTransferred","inputs":[{"name":"from","type":"address","indexed":true,"internalType":"address"},{"name":"to","type":"address","indexed":true,"internalType":"address"}],"anonymous":false},{"type":"event","name":"Released","inputs":[{"name":"sender","type":"address","indexed":true,"internalType":"address"},{"name":"recipient","type":"address","indexed":true,"internalType":"address"},{"name":"amount","type":"uint256","indexed":false,"internalType":"uint256"}],"anonymous":false},{"type":"event","name":"RemotePoolSet","inputs":[{"name":"remoteChainSelector","type":"uint64","indexed":true,"internalType":"uint64"},{"name":"previousPoolAddress","type":"bytes","indexed":false,"internalType":"bytes"},{"name":"remotePoolAddress","type":"bytes","indexed":false,"internalType":"bytes"}],"anonymous":false},{"type":"event","name":"RouterUpdated","inputs":[{"name":"oldRouter","type":"address","indexed":false,"internalType":"address"},{"name":"newRouter","type":"address","indexed":false,"internalType":"address"}],"anonymous":false},{"type":"event","name":"TokensConsumed","inputs":[{"name":"tokens","type":"uint256","indexed":false,"internalType":"uint256"}],"anonymous":false},{"type":"error","name":"AggregateValueMaxCapacityExceeded","inputs":[{"name":"capacity","type":"uint256","internalType":"uint256"},{"name":"requested","type":"uint256","internalType":"uint256"}]},{"type":"error","name":"AggregateValueRateLimitReached","inputs":[{"name":"minWaitInSeconds","type":"uint256","internalType":"uint256"},{"name":"available","type":"uint256","internalType":"uint256"}]},{"type":"error","name":"AllowListNotEnabled","inputs":[]},{"type":"error","name":"BucketOverfilled","inputs":[]},{"type":"error","name":"CallerIsNotARampOnRouter","inputs":[{"name":"caller","type":"address","internalType":"address"}]},{"type":"error","name":"ChainAlreadyExists","inputs":[{"name":"chainSelector","type":"uint64","internalType":"uint64"}]},{"type":"error","name":"ChainNotAllowed","inputs":[{"name":"remoteChainSelector","type":"uint64","internalType":"uint64"}]},{"type":"error","name":"CursedByRMN","inputs":[]},{"type":"error","name":"DisabledNonZeroRateLimit","inputs":[{"name":"config","type":"tuple","internalType":"struct RateLimiter.Config","components":[{"name":"isEnabled","type":"bool","internalType":"bool"},{"name":"capacity","type":"uint128","internalType":"uint128"},{"name":"rate","type":"uint128","internalType":"uint128"}]}]},{"type":"error","name":"InsufficientLiquidity","inputs":[]},{"type":"error","name":"InvalidRateLimitRate","inputs":[{"name":"rateLimiterConfig","type":"tuple","internalType":"struct RateLimiter.Config","components":[{"name":"isEnabled","type":"bool","internalType":"bool"},{"name":"capacity","type":"uint128","internalType":"uint128"},{"name":"rate","type":"uint128","internalType":"uint128"}]}]},{"type":"error","name":"InvalidSourcePoolAddress","inputs":[{"name":"sourcePoolAddress","type":"bytes","internalType":"bytes"}]},{"type":"error","name":"InvalidToken","inputs":[{"name":"token","type":"address","internalType":"address"}]},{"type":"error","name":"LiquidityNotAccepted","inputs":[]},{"type":"error","name":"NonExistentChain","inputs":[{"name":"remoteChainSelector","type":"uint64","internalType":"uint64"}]},{"type":"error","name":"RateLimitMustBeDisabled","inputs":[]},{"type":"error","name":"SenderNotAllowed","inputs":[{"name":"sender","type":"address","internalType":"address"}]},{"type":"error","name":"TokenMaxCapacityExceeded","inputs":[{"name":"capacity","type":"uint256","internalType":"uint256"},{"name":"requested","type":"uint256","internalType":"uint256"},{"name":"tokenAddress","type":"address","internalType":"address"}]},{"type":"error","name":"TokenRateLimitReached","inputs":[{"name":"minWaitInSeconds","type":"uint256","internalType":"uint256"},{"name":"available","type":"uint256","internalType":"uint256"},{"name":"tokenAddress","type":"address","internalType":"address"}]},{"type":"error","name":"Unauthorized","inputs":[{"name":"caller","type":"address","internalType":"address"}]},{"type":"error","name":"ZeroAddressNotAllowed","inputs":[]}],"bytecode":{"object":"0x6101006040523480156200001257600080fd5b50604051620067bf380380620067bf833981810160405281019062000038919062000ac1565b84848483338060008073ffffffffffffffffffffffffffffffffffffffff168273ffffffffffffffffffffffffffffffffffffffff1603620000b1576040517f08c379a0000000000000000000000000000000000000000000000000000000008152600401620000a89062000bc9565b60405180910390fd5b816000806101000a81548173ffffffffffffffffffffffffffffffffffffffff021916908373ffffffffffffffffffffffffffffffffffffffff160217905550600073ffffffffffffffffffffffffffffffffffffffff168173ffffffffffffffffffffffffffffffffffffffff1614620001385762000137816200035060201b60201c565b5b505050600073ffffffffffffffffffffffffffffffffffffffff168473ffffffffffffffffffffffffffffffffffffffff161480620001a35750600073ffffffffffffffffffffffffffffffffffffffff168173ffffffffffffffffffffffffffffffffffffffff16145b80620001db5750600073ffffffffffffffffffffffffffffffffffffffff168273ffffffffffffffffffffffffffffffffffffffff16145b1562000213576040517f8579befe00000000000000000000000000000000000000000000000000000000815260040160405180910390fd5b8373ffffffffffffffffffffffffffffffffffffffff1660808173ffffffffffffffffffffffffffffffffffffffff16815250508173ffffffffffffffffffffffffffffffffffffffff1660a08173ffffffffffffffffffffffffffffffffffffffff168152505080600460006101000a81548173ffffffffffffffffffffffffffffffffffffffff021916908373ffffffffffffffffffffffffffffffffffffffff1602179055506000835111151560c08115158152505060c05115620003355762000334600067ffffffffffffffff811115620002f757620002f6620008f4565b5b604051908082528060200260200182016040528015620003265781602001602082028036833780820191505090505b50846200047f60201b60201c565b5b5050505081151560e081151581525050505050505062000d5d565b3373ffffffffffffffffffffffffffffffffffffffff168173ffffffffffffffffffffffffffffffffffffffff1603620003c1576040517f08c379a0000000000000000000000000000000000000000000000000000000008152600401620003b89062000c3b565b60405180910390fd5b80600160006101000a81548173ffffffffffffffffffffffffffffffffffffffff021916908373ffffffffffffffffffffffffffffffffffffffff1602179055508073ffffffffffffffffffffffffffffffffffffffff1660008054906101000a900473ffffffffffffffffffffffffffffffffffffffff1673ffffffffffffffffffffffffffffffffffffffff167fed8889f560326eb138920d842192f0eb3dd22b4f139c87a2c57538e05bae127860405160405180910390a350565b60c051620004b9576040517f35f4a7b300000000000000000000000000000000000000000000000000000000815260040160405180910390fd5b60005b82518110156200054b576000838281518110620004de57620004dd62000c5d565b5b60200260200101519050620004fe8160026200062060201b90919060201c565b156200053e577f800671136ab6cfee9fbe5ed1fb7ca417811aca3cf864800d127b927adedf75668160405162000535919062000c9d565b60405180910390a15b50806001019050620004bc565b5060005b81518110156200061b57600082828151811062000571576200057062000c5d565b5b60200260200101519050600073ffffffffffffffffffffffffffffffffffffffff168173ffffffffffffffffffffffffffffffffffffffff1603620005b757506200060f565b620005cd8160026200065860201b90919060201c565b156200060d577f2640d4d76caf8bf478aabfa982fa4e1c4eb71a37f93cd15e80dbc657911546d88160405162000604919062000c9d565b60405180910390a15b505b8060010190506200054f565b505050565b600062000650836000018373ffffffffffffffffffffffffffffffffffffffff1660001b6200069060201b60201c565b905092915050565b600062000688836000018373ffffffffffffffffffffffffffffffffffffffff1660001b620007b460201b60201c565b905092915050565b60008083600101600084815260200190815260200160002054905060008114620007a8576000600182620006c5919062000cf3565b9050600060018660000180549050620006df919062000cf3565b90508181146200075557600086600001828154811062000704576200070362000c5d565b5b90600052602060002001549050808760000184815481106200072b576200072a62000c5d565b5b90600052602060002001819055508387600101600083815260200190815260200160002081905550505b856000018054806200076c576200076b62000d2e565b5b600190038181906000526020600020016000905590558560010160008681526020019081526020016000206000905560019350505050620007ae565b60009150505b92915050565b6000620007c883836200082e60201b60201c565b6200082357826000018290806001815401808255809150506001900390600052602060002001600090919091909150558260000180549050836001016000848152602001908152602001600020819055506001905062000828565b600090505b92915050565b600080836001016000848152602001908152602001600020541415905092915050565b6000604051905090565b600080fd5b600080fd5b600073ffffffffffffffffffffffffffffffffffffffff82169050919050565b6000620008928262000865565b9050919050565b6000620008a68262000885565b9050919050565b620008b88162000899565b8114620008c457600080fd5b50565b600081519050620008d881620008ad565b92915050565b600080fd5b6000601f19601f8301169050919050565b7f4e487b7100000000000000000000000000000000000000000000000000000000600052604160045260246000fd5b6200092e82620008e3565b810181811067ffffffffffffffff8211171562000950576200094f620008f4565b5b80604052505050565b60006200096562000851565b905062000973828262000923565b919050565b600067ffffffffffffffff821115620009965762000995620008f4565b5b602082029050602081019050919050565b600080fd5b620009b78162000885565b8114620009c357600080fd5b50565b600081519050620009d781620009ac565b92915050565b6000620009f4620009ee8462000978565b62000959565b9050808382526020820190506020840283018581111562000a1a5762000a19620009a7565b5b835b8181101562000a47578062000a328882620009c6565b84526020840193505060208101905062000a1c565b5050509392505050565b600082601f83011262000a695762000a68620008de565b5b815162000a7b848260208601620009dd565b91505092915050565b60008115159050919050565b62000a9b8162000a84565b811462000aa757600080fd5b50565b60008151905062000abb8162000a90565b92915050565b600080600080600060a0868803121562000ae05762000adf6200085b565b5b600062000af088828901620008c7565b955050602086015167ffffffffffffffff81111562000b145762000b1362000860565b5b62000b228882890162000a51565b945050604062000b3588828901620009c6565b935050606062000b488882890162000aaa565b925050608062000b5b88828901620009c6565b9150509295509295909350565b600082825260208201905092915050565b7f43616e6e6f7420736574206f776e657220746f207a65726f0000000000000000600082015250565b600062000bb160188362000b68565b915062000bbe8262000b79565b602082019050919050565b6000602082019050818103600083015262000be48162000ba2565b9050919050565b7f43616e6e6f74207472616e7366657220746f2073656c66000000000000000000600082015250565b600062000c2360178362000b68565b915062000c308262000beb565b602082019050919050565b6000602082019050818103600083015262000c568162000c14565b9050919050565b7f4e487b7100000000000000000000000000000000000000000000000000000000600052603260045260246000fd5b62000c978162000885565b82525050565b600060208201905062000cb4600083018462000c8c565b92915050565b6000819050919050565b7f4e487b7100000000000000000000000000000000000000000000000000000000600052601160045260246000fd5b600062000d008262000cba565b915062000d0d8362000cba565b925082820390508181111562000d285762000d2762000cc4565b5b92915050565b7f4e487b7100000000000000000000000000000000000000000000000000000000600052603160045260246000fd5b60805160a05160c05160e0516159db62000de4600039600081816112e20152611ee9015260008181611ec3015281816124810152612fd9015260008181611e9b0152818161227301526126950152600081816107d1015281816108a8015281816109700152818161099801528181611fd801528181612ef801526131b801526159db6000f3fe608060405234801561001057600080fd5b50600436106101e55760003560e01c80638da5cb5b1161010f578063c4bffe2b116100a2578063dc0bd97111610071578063dc0bd97114610592578063e0351e13146105b0578063eb521a4c146105ce578063f2fde38b146105ea576101e5565b8063c4bffe2b1461050c578063c75eea9c1461052a578063cf7401f31461055a578063db6327dc14610576576101e5565b8063b0f479a1116100de578063b0f479a114610484578063b7946580146104a2578063bb98546b146104d2578063c0d78655146104f0576101e5565b80638da5cb5b146103e85780639a4575b914610406578063a7cd63b714610436578063af58d59f14610454576101e5565b8063432a6ba31161018757806378a010b21161015657806378a010b21461037657806379ba5097146103925780637d54534e1461039c5780638926f54f146103b8576101e5565b8063432a6ba31461030257806354c8a4f3146103205780636cfd15531461033c5780636d3d1a5814610358576101e5565b8063181f5a77116101c3578063181f5a771461026657806321df0da714610284578063240028e8146102a257806339077537146102d2576101e5565b806301ffc9a7146101ea5780630a2fd4931461021a5780630a861f2a1461024a575b600080fd5b61020460048036038101906101ff9190613dfb565b610606565b6040516102119190613e43565b60405180910390f35b610234600480360381019061022f9190613e9e565b610680565b6040516102419190613f5b565b60405180910390f35b610264600480360381019061025f9190613fb3565b61073c565b005b61026e610933565b60405161027b9190614035565b60405180910390f35b61028c61096c565b60405161029991906140d6565b60405180910390f35b6102bc60048036038101906102b7919061412f565b610994565b6040516102c99190613e43565b60405180910390f35b6102ec60048036038101906102e79190614181565b6109ec565b6040516102f991906141f5565b60405180910390f35b61030a610ad1565b604051610317919061421f565b60405180910390f35b61033a6004803603810190610335919061429f565b610afb565b005b6103566004803603810190610351919061412f565b610b95565b005b610360610be1565b60405161036d919061421f565b60405180910390f35b610390600480360381019061038b9190614376565b610c0b565b005b61039a610d9a565b005b6103b660048036038101906103b1919061412f565b610f2f565b005b6103d260048036038101906103cd9190613e9e565b610f7b565b6040516103df9190613e43565b60405180910390f35b6103f0610fa2565b6040516103fd919061421f565b60405180910390f35b610420600480360381019061041b91906143f5565b610fcb565b60405161042d91906144cc565b60405180910390f35b61043e61107c565b60405161044b91906145ac565b60405180910390f35b61046e60048036038101906104699190613e9e565b61108d565b60405161047b919061468f565b60405180910390f35b61048c6111f8565b604051610499919061421f565b60405180910390f35b6104bc60048036038101906104b79190613e9e565b611222565b6040516104c99190613f5b565b60405180910390f35b6104da6112de565b6040516104e79190613e43565b60405180910390f35b61050a6004803603810190610505919061412f565b611306565b005b610514611419565b6040516105219190614768565b60405180910390f35b610544600480360381019061053f9190613e9e565b6114e7565b604051610551919061468f565b60405180910390f35b610574600480360381019061056f91906148cb565b611652565b005b610590600480360381019061058b9190614974565b611735565b005b61059a611e97565b6040516105a7919061421f565b60405180910390f35b6105b8611ebf565b6040516105c59190613e43565b60405180910390f35b6105e860048036038101906105e39190613fb3565b611ee7565b005b61060460048036038101906105ff919061412f565b612064565b005b60007fe1d40566000000000000000000000000000000000000000000000000000000007bffffffffffffffffffffffffffffffffffffffffffffffffffffffff1916827bffffffffffffffffffffffffffffffffffffffffffffffffffffffff19161480610679575061067882612078565b5b9050919050565b6060600760008367ffffffffffffffff1667ffffffffffffffff16815260200190815260200160002060040180546106b7906149f0565b80601f01602080910402602001604051908101604052809291908181526020018280546106e3906149f0565b80156107305780601f1061070557610100808354040283529160200191610730565b820191906000526020600020905b81548152906001019060200180831161071357829003601f168201915b50505050509050919050565b3373ffffffffffffffffffffffffffffffffffffffff16600860009054906101000a900473ffffffffffffffffffffffffffffffffffffffff1673ffffffffffffffffffffffffffffffffffffffff16146107ce57336040517f8e4a23d60000000000000000000000000000000000000000000000000000000081526004016107c5919061421f565b60405180910390fd5b807f000000000000000000000000000000000000000000000000000000000000000073ffffffffffffffffffffffffffffffffffffffff166370a08231306040518263ffffffff1660e01b8152600401610828919061421f565b602060405180830381865afa158015610845573d6000803e3d6000fd5b505050506040513d601f19601f820116820180604052508101906108699190614a36565b10156108a1576040517fbb55fd2700000000000000000000000000000000000000000000000000000000815260040160405180910390fd5b6108ec33827f000000000000000000000000000000000000000000000000000000000000000073ffffffffffffffffffffffffffffffffffffffff166121999092919063ffffffff16565b803373ffffffffffffffffffffffffffffffffffffffff167fc2c3f06e49b9f15e7b4af9055e183b0d73362e033ad82a07dec9bf984017171960405160405180910390a350565b6040518060400160405280601e81526020017f4c6f636b52656c65617365546f6b656e506f6f6c20312e352e302d646576000081525081565b60007f0000000000000000000000000000000000000000000000000000000000000000905090565b60007f000000000000000000000000000000000000000000000000000000000000000073ffffffffffffffffffffffffffffffffffffffff168273ffffffffffffffffffffffffffffffffffffffff16149050919050565b6109f4613c98565b610a0682610a0190614c52565b61221f565b610a3c338360600135610a1761096c565b73ffffffffffffffffffffffffffffffffffffffff166121999092919063ffffffff16565b816040016020810190610a4f919061412f565b73ffffffffffffffffffffffffffffffffffffffff163373ffffffffffffffffffffffffffffffffffffffff167f2d87480f50083e2b2759522a8fdda59802650a8055e609a7772cf70c07748f528460600135604051610aaf9190614c74565b60405180910390a3604051806020016040528083606001358152509050919050565b6000600860009054906101000a900473ffffffffffffffffffffffffffffffffffffffff16905090565b610b036123ef565b610b8f848480806020026020016040519081016040528093929190818152602001838360200280828437600081840152601f19601f82011690508083019250505050505050838380806020026020016040519081016040528093929190818152602001838360200280828437600081840152601f19601f8201169050808301925050505050505061247f565b50505050565b610b9d6123ef565b80600860006101000a81548173ffffffffffffffffffffffffffffffffffffffff021916908373ffffffffffffffffffffffffffffffffffffffff16021790555050565b6000600960009054906101000a900473ffffffffffffffffffffffffffffffffffffffff16905090565b610c136123ef565b610c1c83610f7b565b610c5d57826040517f1e670e4b000000000000000000000000000000000000000000000000000000008152600401610c549190614c9e565b60405180910390fd5b6000600760008567ffffffffffffffff1667ffffffffffffffff1681526020019081526020016000206004018054610c94906149f0565b80601f0160208091040260200160405190810160405280929190818152602001828054610cc0906149f0565b8015610d0d5780601f10610ce257610100808354040283529160200191610d0d565b820191906000526020600020905b815481529060010190602001808311610cf057829003601f168201915b505050505090508282600760008767ffffffffffffffff1667ffffffffffffffff1681526020019081526020016000206004019182610d4d929190614e66565b508367ffffffffffffffff167fdb4d6220746a38cbc5335f7e108f7de80f482f4d23350253dfd0917df75a14bf828585604051610d8c93929190614f63565b60405180910390a250505050565b600160009054906101000a900473ffffffffffffffffffffffffffffffffffffffff1673ffffffffffffffffffffffffffffffffffffffff163373ffffffffffffffffffffffffffffffffffffffff1614610e2a576040517f08c379a0000000000000000000000000000000000000000000000000000000008152600401610e2190614fe8565b60405180910390fd5b60008060009054906101000a900473ffffffffffffffffffffffffffffffffffffffff169050336000806101000a81548173ffffffffffffffffffffffffffffffffffffffff021916908373ffffffffffffffffffffffffffffffffffffffff1602179055506000600160006101000a81548173ffffffffffffffffffffffffffffffffffffffff021916908373ffffffffffffffffffffffffffffffffffffffff1602179055503373ffffffffffffffffffffffffffffffffffffffff168173ffffffffffffffffffffffffffffffffffffffff167f8be0079c531659141344cd1fd0a4f28419497f9722a3daafe3b4186f6b6457e060405160405180910390a350565b610f376123ef565b80600960006101000a81548173ffffffffffffffffffffffffffffffffffffffff021916908373ffffffffffffffffffffffffffffffffffffffff16021790555050565b6000610f9b8267ffffffffffffffff16600561262790919063ffffffff16565b9050919050565b60008060009054906101000a900473ffffffffffffffffffffffffffffffffffffffff16905090565b610fd3613cab565b610fe582610fe0906150b0565b612641565b3373ffffffffffffffffffffffffffffffffffffffff167f9f1ec8c880f76798e7b793325d625e9b60e4082a553c98f42b6cda368dd60008836060013560405161102f9190614c74565b60405180910390a2604051806040016040528061105d8460200160208101906110589190613e9e565b611222565b8152602001604051806020016040528060008152508152509050919050565b606061108860026127a4565b905090565b611095613cc5565b6111f1600760008467ffffffffffffffff1667ffffffffffffffff1681526020019081526020016000206002016040518060a00160405290816000820160009054906101000a90046fffffffffffffffffffffffffffffffff166fffffffffffffffffffffffffffffffff166fffffffffffffffffffffffffffffffff1681526020016000820160109054906101000a900463ffffffff1663ffffffff1663ffffffff1681526020016000820160149054906101000a900460ff161515151581526020016001820160009054906101000a90046fffffffffffffffffffffffffffffffff166fffffffffffffffffffffffffffffffff166fffffffffffffffffffffffffffffffff1681526020016001820160109054906101000a90046fffffffffffffffffffffffffffffffff166fffffffffffffffffffffffffffffffff166fffffffffffffffffffffffffffffffff16815250506127c5565b9050919050565b6000600460009054906101000a900473ffffffffffffffffffffffffffffffffffffffff16905090565b6060600760008367ffffffffffffffff1667ffffffffffffffff1681526020019081526020016000206005018054611259906149f0565b80601f0160208091040260200160405190810160405280929190818152602001828054611285906149f0565b80156112d25780601f106112a7576101008083540402835291602001916112d2565b820191906000526020600020905b8154815290600101906020018083116112b557829003601f168201915b50505050509050919050565b60007f0000000000000000000000000000000000000000000000000000000000000000905090565b61130e6123ef565b600073ffffffffffffffffffffffffffffffffffffffff168173ffffffffffffffffffffffffffffffffffffffff1603611374576040517f8579befe00000000000000000000000000000000000000000000000000000000815260040160405180910390fd5b6000600460009054906101000a900473ffffffffffffffffffffffffffffffffffffffff16905081600460006101000a81548173ffffffffffffffffffffffffffffffffffffffff021916908373ffffffffffffffffffffffffffffffffffffffff1602179055507f02dc5c233404867c793b749c6d644beb2277536d18a7e7974d3f238e4c6f1684818360405161140d9291906150c3565b60405180910390a15050565b60606000611427600561287f565b90506000815167ffffffffffffffff8111156114465761144561478f565b5b6040519080825280602002602001820160405280156114745781602001602082028036833780820191505090505b50905060005b82518110156114de57828181518110611496576114956150ec565b5b60200260200101518282815181106114b1576114b06150ec565b5b602002602001019067ffffffffffffffff16908167ffffffffffffffff168152505080600101905061147a565b50809250505090565b6114ef613cc5565b61164b600760008467ffffffffffffffff1667ffffffffffffffff1681526020019081526020016000206000016040518060a00160405290816000820160009054906101000a90046fffffffffffffffffffffffffffffffff166fffffffffffffffffffffffffffffffff166fffffffffffffffffffffffffffffffff1681526020016000820160109054906101000a900463ffffffff1663ffffffff1663ffffffff1681526020016000820160149054906101000a900460ff161515151581526020016001820160009054906101000a90046fffffffffffffffffffffffffffffffff166fffffffffffffffffffffffffffffffff166fffffffffffffffffffffffffffffffff1681526020016001820160109054906101000a90046fffffffffffffffffffffffffffffffff166fffffffffffffffffffffffffffffffff166fffffffffffffffffffffffffffffffff16815250506127c5565b9050919050565b600960009054906101000a900473ffffffffffffffffffffffffffffffffffffffff1673ffffffffffffffffffffffffffffffffffffffff163373ffffffffffffffffffffffffffffffffffffffff16141580156116e357506116b3610fa2565b73ffffffffffffffffffffffffffffffffffffffff163373ffffffffffffffffffffffffffffffffffffffff1614155b1561172557336040517f8e4a23d600000000000000000000000000000000000000000000000000000000815260040161171c919061421f565b60405180910390fd5b6117308383836128a0565b505050565b61173d6123ef565b60005b82829050811015611e925760008383838181106117605761175f6150ec565b5b90506020028101906117729190615120565b61177b90615222565b905061179081608001518260200151156129b8565b6117a38160a001518260200151156129b8565b806020015115611c5f576117cf816000015167ffffffffffffffff166005612b1690919063ffffffff16565b6118145780600001516040517f1d5ad3c500000000000000000000000000000000000000000000000000000000815260040161180b9190614c9e565b60405180910390fd5b6000816040015151148061182d57506000816060015151145b15611864576040517f8579befe00000000000000000000000000000000000000000000000000000000815260040160405180910390fd5b60405180608001604052806040518060a001604052808460800151602001516fffffffffffffffffffffffffffffffff1681526020014263ffffffff168152602001846080015160000151151581526020018460800151602001516fffffffffffffffffffffffffffffffff1681526020018460800151604001516fffffffffffffffffffffffffffffffff1681525081526020016040518060a001604052808460a00151602001516fffffffffffffffffffffffffffffffff1681526020014263ffffffff1681526020018460a0015160000151151581526020018460a00151602001516fffffffffffffffffffffffffffffffff1681526020018460a00151604001516fffffffffffffffffffffffffffffffff16815250815260200182604001518152602001826060015181525060076000836000015167ffffffffffffffff1667ffffffffffffffff16815260200190815260200160002060008201518160000160008201518160000160006101000a8154816fffffffffffffffffffffffffffffffff02191690836fffffffffffffffffffffffffffffffff16021790555060208201518160000160106101000a81548163ffffffff021916908363ffffffff16021790555060408201518160000160146101000a81548160ff02191690831515021790555060608201518160010160006101000a8154816fffffffffffffffffffffffffffffffff02191690836fffffffffffffffffffffffffffffffff16021790555060808201518160010160106101000a8154816fffffffffffffffffffffffffffffffff02191690836fffffffffffffffffffffffffffffffff160217905550505060208201518160020160008201518160000160006101000a8154816fffffffffffffffffffffffffffffffff02191690836fffffffffffffffffffffffffffffffff16021790555060208201518160000160106101000a81548163ffffffff021916908363ffffffff16021790555060408201518160000160146101000a81548160ff02191690831515021790555060608201518160010160006101000a8154816fffffffffffffffffffffffffffffffff02191690836fffffffffffffffffffffffffffffffff16021790555060808201518160010160106101000a8154816fffffffffffffffffffffffffffffffff02191690836fffffffffffffffffffffffffffffffff16021790555050506040820151816004019081611bf39190615235565b506060820151816005019081611c099190615235565b509050507f8d340f17e19058004c20453540862a9c62778504476f6756755cb33bcd6c38c28160000151826060015183608001518460a00151604051611c529493929190615349565b60405180910390a1611e86565b611c81816000015167ffffffffffffffff166005612b3090919063ffffffff16565b611cc65780600001516040517f1e670e4b000000000000000000000000000000000000000000000000000000008152600401611cbd9190614c9e565b60405180910390fd5b60076000826000015167ffffffffffffffff1667ffffffffffffffff1681526020019081526020016000206000808201600080820160006101000a8154906fffffffffffffffffffffffffffffffff02191690556000820160106101000a81549063ffffffff02191690556000820160146101000a81549060ff02191690556001820160006101000a8154906fffffffffffffffffffffffffffffffff02191690556001820160106101000a8154906fffffffffffffffffffffffffffffffff0219169055505060028201600080820160006101000a8154906fffffffffffffffffffffffffffffffff02191690556000820160106101000a81549063ffffffff02191690556000820160146101000a81549060ff02191690556001820160006101000a8154906fffffffffffffffffffffffffffffffff02191690556001820160106101000a8154906fffffffffffffffffffffffffffffffff02191690555050600482016000611e389190613d32565b600582016000611e489190613d32565b50507f5204aec90a3c794d8e90fded8b46ae9c7c552803e7e832e0c1d358396d8599168160000151604051611e7d9190614c9e565b60405180910390a15b50806001019050611740565b505050565b60007f0000000000000000000000000000000000000000000000000000000000000000905090565b60007f0000000000000000000000000000000000000000000000000000000000000000905090565b7f0000000000000000000000000000000000000000000000000000000000000000611f3e576040517fe93f8fa400000000000000000000000000000000000000000000000000000000815260040160405180910390fd5b3373ffffffffffffffffffffffffffffffffffffffff16600860009054906101000a900473ffffffffffffffffffffffffffffffffffffffff1673ffffffffffffffffffffffffffffffffffffffff1614611fd057336040517f8e4a23d6000000000000000000000000000000000000000000000000000000008152600401611fc7919061421f565b60405180910390fd5b61201d3330837f000000000000000000000000000000000000000000000000000000000000000073ffffffffffffffffffffffffffffffffffffffff16612b4a909392919063ffffffff16565b803373ffffffffffffffffffffffffffffffffffffffff167fc17cea59c2955cb181b03393209566960365771dbba9dc3d510180e7cb31208860405160405180910390a350565b61206c6123ef565b61207581612bd3565b50565b600063aff2afbf60e01b7bffffffffffffffffffffffffffffffffffffffffffffffffffffffff1916827bffffffffffffffffffffffffffffffffffffffffffffffffffffffff1916148061212a57507f0e64dd29000000000000000000000000000000000000000000000000000000007bffffffffffffffffffffffffffffffffffffffffffffffffffffffff1916827bffffffffffffffffffffffffffffffffffffffffffffffffffffffff1916145b8061219257507f01ffc9a7000000000000000000000000000000000000000000000000000000007bffffffffffffffffffffffffffffffffffffffffffffffffffffffff1916827bffffffffffffffffffffffffffffffffffffffffffffffffffffffff1916145b9050919050565b61221a8363a9059cbb60e01b84846040516024016121b8929190615396565b604051602081830303815290604052907bffffffffffffffffffffffffffffffffffffffffffffffffffffffff19166020820180517bffffffffffffffffffffffffffffffffffffffffffffffffffffffff8381831617835250505050612cff565b505050565b61222c8160800151610994565b6122715780608001516040517f961c9a4f000000000000000000000000000000000000000000000000000000008152600401612268919061421f565b60405180910390fd5b7f000000000000000000000000000000000000000000000000000000000000000073ffffffffffffffffffffffffffffffffffffffff16632cbc26bb826020015167ffffffffffffffff1660801b6040518263ffffffff1660e01b81526004016122db91906153fa565b602060405180830381865afa1580156122f8573d6000803e3d6000fd5b505050506040513d601f19601f8201168201806040525081019061231c919061542a565b15612353576040517f53ad11d800000000000000000000000000000000000000000000000000000000815260040160405180910390fd5b6123608160200151612dc6565b600061236f8260200151610680565b9050600081511480612393575080805190602001208260a001518051906020012014155b156123d9578160a001516040517f24eb47e50000000000000000000000000000000000000000000000000000000081526004016123d09190613f5b565b60405180910390fd5b6123eb82602001518360600151612ef2565b5050565b60008054906101000a900473ffffffffffffffffffffffffffffffffffffffff1673ffffffffffffffffffffffffffffffffffffffff163373ffffffffffffffffffffffffffffffffffffffff161461247d576040517f08c379a0000000000000000000000000000000000000000000000000000000008152600401612474906154a3565b60405180910390fd5b565b7f00000000000000000000000000000000000000000000000000000000000000006124d6576040517f35f4a7b300000000000000000000000000000000000000000000000000000000815260040160405180910390fd5b60005b825181101561255e5760008382815181106124f7576124f66150ec565b5b60200260200101519050612515816002612f5490919063ffffffff16565b15612552577f800671136ab6cfee9fbe5ed1fb7ca417811aca3cf864800d127b927adedf756681604051612549919061421f565b60405180910390a15b508060010190506124d9565b5060005b81518110156126225760008282815181106125805761257f6150ec565b5b60200260200101519050600073ffffffffffffffffffffffffffffffffffffffff168173ffffffffffffffffffffffffffffffffffffffff16036125c45750612617565b6125d8816002612f8490919063ffffffff16565b15612615577f2640d4d76caf8bf478aabfa982fa4e1c4eb71a37f93cd15e80dbc657911546d88160405161260c919061421f565b60405180910390a15b505b806001019050612562565b505050565b6000612639836000018360001b612fb4565b905092915050565b61264e8160800151610994565b6126935780608001516040517f961c9a4f00000000000000000000000000000000000000000000000000000000815260040161268a919061421f565b60405180910390fd5b7f000000000000000000000000000000000000000000000000000000000000000073ffffffffffffffffffffffffffffffffffffffff16632cbc26bb826020015167ffffffffffffffff1660801b6040518263ffffffff1660e01b81526004016126fd91906153fa565b602060405180830381865afa15801561271a573d6000803e3d6000fd5b505050506040513d601f19601f8201168201806040525081019061273e919061542a565b15612775576040517f53ad11d800000000000000000000000000000000000000000000000000000000815260040160405180910390fd5b6127828160400151612fd7565b61278f816020015161305a565b6127a1816020015182606001516131b2565b50565b606060006127b483600001613214565b905060608190508092505050919050565b6127cd613cc5565b61283082606001516fffffffffffffffffffffffffffffffff1683600001516fffffffffffffffffffffffffffffffff16846020015163ffffffff164261281491906154f2565b85608001516fffffffffffffffffffffffffffffffff16613270565b82600001906fffffffffffffffffffffffffffffffff1690816fffffffffffffffffffffffffffffffff168152505042826020019063ffffffff16908163ffffffff1681525050819050919050565b6060600061288f83600001613214565b905060608190508092505050919050565b6128a983610f7b565b6128ea57826040517f1e670e4b0000000000000000000000000000000000000000000000000000000081526004016128e19190614c9e565b60405180910390fd5b6128f58260006129b8565b61293182600760008667ffffffffffffffff1667ffffffffffffffff16815260200190815260200160002060000161329c90919063ffffffff16565b61293c8160006129b8565b61297881600760008667ffffffffffffffff1667ffffffffffffffff16815260200190815260200160002060020161329c90919063ffffffff16565b7f0350d63aa5f270e01729d00d627eeb8f3429772b1818c016c66a588a864f912b8383836040516129ab93929190615526565b60405180910390a1505050565b816000015115612a925781602001516fffffffffffffffffffffffffffffffff1682604001516fffffffffffffffffffffffffffffffff16101580612a135750600082604001516fffffffffffffffffffffffffffffffff16145b15612a5557816040517f8020d124000000000000000000000000000000000000000000000000000000008152600401612a4c919061555d565b60405180910390fd5b8015612a8d576040517f433fc33d00000000000000000000000000000000000000000000000000000000815260040160405180910390fd5b612b12565b600082604001516fffffffffffffffffffffffffffffffff16141580612acf5750600082602001516fffffffffffffffffffffffffffffffff1614155b15612b1157816040517fd68af9cc000000000000000000000000000000000000000000000000000000008152600401612b08919061555d565b60405180910390fd5b5b5050565b6000612b28836000018360001b613534565b905092915050565b6000612b42836000018360001b6135a4565b905092915050565b612bcd846323b872dd60e01b858585604051602401612b6b93929190615578565b604051602081830303815290604052907bffffffffffffffffffffffffffffffffffffffffffffffffffffffff19166020820180517bffffffffffffffffffffffffffffffffffffffffffffffffffffffff8381831617835250505050612cff565b50505050565b3373ffffffffffffffffffffffffffffffffffffffff168173ffffffffffffffffffffffffffffffffffffffff1603612c41576040517f08c379a0000000000000000000000000000000000000000000000000000000008152600401612c38906155fb565b60405180910390fd5b80600160006101000a81548173ffffffffffffffffffffffffffffffffffffffff021916908373ffffffffffffffffffffffffffffffffffffffff1602179055508073ffffffffffffffffffffffffffffffffffffffff1660008054906101000a900473ffffffffffffffffffffffffffffffffffffffff1673ffffffffffffffffffffffffffffffffffffffff167fed8889f560326eb138920d842192f0eb3dd22b4f139c87a2c57538e05bae127860405160405180910390a350565b6000612d61826040518060400160405280602081526020017f5361666545524332303a206c6f772d6c6576656c2063616c6c206661696c65648152508573ffffffffffffffffffffffffffffffffffffffff166136b89092919063ffffffff16565b9050600081511115612dc15780806020019051810190612d81919061542a565b612dc0576040517f08c379a0000000000000000000000000000000000000000000000000000000008152600401612db79061568d565b60405180910390fd5b5b505050565b612dcf81610f7b565b612e1057806040517fa9902c7e000000000000000000000000000000000000000000000000000000008152600401612e079190614c9e565b60405180910390fd5b600460009054906101000a900473ffffffffffffffffffffffffffffffffffffffff1673ffffffffffffffffffffffffffffffffffffffff166383826b2b82336040518363ffffffff1660e01b8152600401612e6d9291906156ad565b602060405180830381865afa158015612e8a573d6000803e3d6000fd5b505050506040513d601f19601f82011682018060405250810190612eae919061542a565b612eef57336040517f728fe07b000000000000000000000000000000000000000000000000000000008152600401612ee6919061421f565b60405180910390fd5b50565b612f50817f0000000000000000000000000000000000000000000000000000000000000000600760008667ffffffffffffffff1667ffffffffffffffff1681526020019081526020016000206002016136d09092919063ffffffff16565b5050565b6000612f7c836000018373ffffffffffffffffffffffffffffffffffffffff1660001b6135a4565b905092915050565b6000612fac836000018373ffffffffffffffffffffffffffffffffffffffff1660001b613534565b905092915050565b600080836001016000848152602001908152602001600020541415905092915050565b7f000000000000000000000000000000000000000000000000000000000000000080156130155750613013816002613a9a90919063ffffffff16565b155b1561305757806040517fd0d2597600000000000000000000000000000000000000000000000000000000815260040161304e919061421f565b60405180910390fd5b50565b61306381610f7b565b6130a457806040517fa9902c7e00000000000000000000000000000000000000000000000000000000815260040161309b9190614c9e565b60405180910390fd5b600460009054906101000a900473ffffffffffffffffffffffffffffffffffffffff1673ffffffffffffffffffffffffffffffffffffffff1663a8d87a3b826040518263ffffffff1660e01b81526004016130ff9190614c9e565b602060405180830381865afa15801561311c573d6000803e3d6000fd5b505050506040513d601f19601f8201168201806040525081019061314091906156eb565b73ffffffffffffffffffffffffffffffffffffffff163373ffffffffffffffffffffffffffffffffffffffff16146131af57336040517f728fe07b0000000000000000000000000000000000000000000000000000000081526004016131a6919061421f565b60405180910390fd5b50565b613210817f0000000000000000000000000000000000000000000000000000000000000000600760008667ffffffffffffffff1667ffffffffffffffff1681526020019081526020016000206000016136d09092919063ffffffff16565b5050565b60608160000180548060200260200160405190810160405280929190818152602001828054801561326457602002820191906000526020600020905b815481526020019060010190808311613250575b50505050509050919050565b60006132928583856132829190615718565b8661328d919061575a565b613aca565b9050949350505050565b60008260000160109054906101000a900463ffffffff1663ffffffff16426132c491906154f2565b9050600081146133ce576133708360010160009054906101000a90046fffffffffffffffffffffffffffffffff166fffffffffffffffffffffffffffffffff168460000160009054906101000a90046fffffffffffffffffffffffffffffffff166fffffffffffffffffffffffffffffffff16838660010160109054906101000a90046fffffffffffffffffffffffffffffffff166fffffffffffffffffffffffffffffffff16613270565b8360000160006101000a8154816fffffffffffffffffffffffffffffffff02191690836fffffffffffffffffffffffffffffffff160217905550428360000160106101000a81548163ffffffff021916908363ffffffff1602179055505b61342082602001516fffffffffffffffffffffffffffffffff168460000160009054906101000a90046fffffffffffffffffffffffffffffffff166fffffffffffffffffffffffffffffffff16613aca565b8360000160006101000a8154816fffffffffffffffffffffffffffffffff02191690836fffffffffffffffffffffffffffffffff16021790555081600001518360000160146101000a81548160ff02191690831515021790555081602001518360010160006101000a8154816fffffffffffffffffffffffffffffffff02191690836fffffffffffffffffffffffffffffffff16021790555081604001518360010160106101000a8154816fffffffffffffffffffffffffffffffff02191690836fffffffffffffffffffffffffffffffff1602179055507f9ea3374b67bf275e6bb9c8ae68f9cae023e1c528b4b27e092f0bb209d3531c1982604051613527919061555d565b60405180910390a1505050565b60006135408383612fb4565b61359957826000018290806001815401808255809150506001900390600052602060002001600090919091909150558260000180549050836001016000848152602001908152602001600020819055506001905061359e565b600090505b92915050565b600080836001016000848152602001908152602001600020549050600081146136ac5760006001826135d691906154f2565b90506000600186600001805490506135ee91906154f2565b905081811461365d57600086600001828154811061360f5761360e6150ec565b5b9060005260206000200154905080876000018481548110613633576136326150ec565b5b90600052602060002001819055508387600101600083815260200190815260200160002081905550505b856000018054806136715761367061578e565b5b6001900381819060005260206000200160009055905585600101600086815260200190815260200160002060009055600193505050506136b2565b60009150505b92915050565b60606136c78484600085613ae3565b90509392505050565b8260000160149054906101000a900460ff1615806136ee5750600082145b613a955760008360000160009054906101000a90046fffffffffffffffffffffffffffffffff166fffffffffffffffffffffffffffffffff16905060008460010160009054906101000a90046fffffffffffffffffffffffffffffffff166fffffffffffffffffffffffffffffffff16905060008560000160109054906101000a900463ffffffff1663ffffffff164261378891906154f2565b90506000811461383057818311156137cc576040517f9725942a00000000000000000000000000000000000000000000000000000000815260040160405180910390fd5b61380a8284838960010160109054906101000a90046fffffffffffffffffffffffffffffffff166fffffffffffffffffffffffffffffffff16613270565b9250428660000160106101000a81548163ffffffff021916908363ffffffff1602179055505b848210156138ec57600073ffffffffffffffffffffffffffffffffffffffff168473ffffffffffffffffffffffffffffffffffffffff16036138ab5781856040517ff94ebcd10000000000000000000000000000000000000000000000000000000081526004016138a29291906157bd565b60405180910390fd5b8185856040517f1a76572a0000000000000000000000000000000000000000000000000000000081526004016138e3939291906157e6565b60405180910390fd5b84831015613a115760008660010160109054906101000a90046fffffffffffffffffffffffffffffffff166fffffffffffffffffffffffffffffffff16905060008160018361393b91906154f2565b868961394791906154f2565b613951919061575a565b61395b919061584c565b9050600073ffffffffffffffffffffffffffffffffffffffff168673ffffffffffffffffffffffffffffffffffffffff16036139d05780856040517f15279c080000000000000000000000000000000000000000000000000000000081526004016139c79291906157bd565b60405180910390fd5b8085876040517fd0c8d23a000000000000000000000000000000000000000000000000000000008152600401613a08939291906157e6565b60405180910390fd5b8483613a1d91906154f2565b9250828660000160006101000a8154816fffffffffffffffffffffffffffffffff02191690836fffffffffffffffffffffffffffffffff1602179055507f1871cdf8010e63f2eb8384381a68dfa7416dc571a5517e66e88b2d2d0c0a690a85604051613a899190614c74565b60405180910390a15050505b505050565b6000613ac2836000018373ffffffffffffffffffffffffffffffffffffffff1660001b612fb4565b905092915050565b6000818310613ad95781613adb565b825b905092915050565b606082471015613b28576040517f08c379a0000000000000000000000000000000000000000000000000000000008152600401613b1f906158ef565b60405180910390fd5b6000808673ffffffffffffffffffffffffffffffffffffffff168587604051613b51919061594b565b60006040518083038185875af1925050503d8060008114613b8e576040519150601f19603f3d011682016040523d82523d6000602084013e613b93565b606091505b5091509150613ba487838387613bb0565b92505050949350505050565b60608315613c12576000835103613c0a57613bca85613c25565b613c09576040517f08c379a0000000000000000000000000000000000000000000000000000000008152600401613c00906159ae565b60405180910390fd5b5b829050613c1d565b613c1c8383613c48565b5b949350505050565b6000808273ffffffffffffffffffffffffffffffffffffffff163b119050919050565b600082511115613c5b5781518083602001fd5b806040517f08c379a0000000000000000000000000000000000000000000000000000000008152600401613c8f9190614035565b60405180910390fd5b6040518060200160405280600081525090565b604051806040016040528060608152602001606081525090565b6040518060a0016040528060006fffffffffffffffffffffffffffffffff168152602001600063ffffffff16815260200160001515815260200160006fffffffffffffffffffffffffffffffff16815260200160006fffffffffffffffffffffffffffffffff1681525090565b508054613d3e906149f0565b6000825580601f10613d505750613d6f565b601f016020900490600052602060002090810190613d6e9190613d72565b5b50565b5b80821115613d8b576000816000905550600101613d73565b5090565b6000604051905090565b600080fd5b600080fd5b60007fffffffff0000000000000000000000000000000000000000000000000000000082169050919050565b613dd881613da3565b8114613de357600080fd5b50565b600081359050613df581613dcf565b92915050565b600060208284031215613e1157613e10613d99565b5b6000613e1f84828501613de6565b91505092915050565b60008115159050919050565b613e3d81613e28565b82525050565b6000602082019050613e586000830184613e34565b92915050565b600067ffffffffffffffff82169050919050565b613e7b81613e5e565b8114613e8657600080fd5b50565b600081359050613e9881613e72565b92915050565b600060208284031215613eb457613eb3613d99565b5b6000613ec284828501613e89565b91505092915050565b600081519050919050565b600082825260208201905092915050565b60005b83811015613f05578082015181840152602081019050613eea565b60008484015250505050565b6000601f19601f8301169050919050565b6000613f2d82613ecb565b613f378185613ed6565b9350613f47818560208601613ee7565b613f5081613f11565b840191505092915050565b60006020820190508181036000830152613f758184613f22565b905092915050565b6000819050919050565b613f9081613f7d565b8114613f9b57600080fd5b50565b600081359050613fad81613f87565b92915050565b600060208284031215613fc957613fc8613d99565b5b6000613fd784828501613f9e565b91505092915050565b600081519050919050565b600082825260208201905092915050565b600061400782613fe0565b6140118185613feb565b9350614021818560208601613ee7565b61402a81613f11565b840191505092915050565b6000602082019050818103600083015261404f8184613ffc565b905092915050565b600073ffffffffffffffffffffffffffffffffffffffff82169050919050565b6000819050919050565b600061409c61409761409284614057565b614077565b614057565b9050919050565b60006140ae82614081565b9050919050565b60006140c0826140a3565b9050919050565b6140d0816140b5565b82525050565b60006020820190506140eb60008301846140c7565b92915050565b60006140fc82614057565b9050919050565b61410c816140f1565b811461411757600080fd5b50565b60008135905061412981614103565b92915050565b60006020828403121561414557614144613d99565b5b60006141538482850161411a565b91505092915050565b600080fd5b600061010082840312156141785761417761415c565b5b81905092915050565b60006020828403121561419757614196613d99565b5b600082013567ffffffffffffffff8111156141b5576141b4613d9e565b5b6141c184828501614161565b91505092915050565b6141d381613f7d565b82525050565b6020820160008201516141ef60008501826141ca565b50505050565b600060208201905061420a60008301846141d9565b92915050565b614219816140f1565b82525050565b60006020820190506142346000830184614210565b92915050565b600080fd5b600080fd5b600080fd5b60008083601f84011261425f5761425e61423a565b5b8235905067ffffffffffffffff81111561427c5761427b61423f565b5b60208301915083602082028301111561429857614297614244565b5b9250929050565b600080600080604085870312156142b9576142b8613d99565b5b600085013567ffffffffffffffff8111156142d7576142d6613d9e565b5b6142e387828801614249565b9450945050602085013567ffffffffffffffff81111561430657614305613d9e565b5b61431287828801614249565b925092505092959194509250565b60008083601f8401126143365761433561423a565b5b8235905067ffffffffffffffff8111156143535761435261423f565b5b60208301915083600182028301111561436f5761436e614244565b5b9250929050565b60008060006040848603121561438f5761438e613d99565b5b600061439d86828701613e89565b935050602084013567ffffffffffffffff8111156143be576143bd613d9e565b5b6143ca86828701614320565b92509250509250925092565b600060a082840312156143ec576143eb61415c565b5b81905092915050565b60006020828403121561440b5761440a613d99565b5b600082013567ffffffffffffffff81111561442957614428613d9e565b5b614435848285016143d6565b91505092915050565b600082825260208201905092915050565b600061445a82613ecb565b614464818561443e565b9350614474818560208601613ee7565b61447d81613f11565b840191505092915050565b600060408301600083015184820360008601526144a5828261444f565b915050602083015184820360208601526144bf828261444f565b9150508091505092915050565b600060208201905081810360008301526144e68184614488565b905092915050565b600081519050919050565b600082825260208201905092915050565b6000819050602082019050919050565b614523816140f1565b82525050565b6000614535838361451a565b60208301905092915050565b6000602082019050919050565b6000614559826144ee565b61456381856144f9565b935061456e8361450a565b8060005b8381101561459f5781516145868882614529565b975061459183614541565b925050600181019050614572565b5085935050505092915050565b600060208201905081810360008301526145c6818461454e565b905092915050565b60006fffffffffffffffffffffffffffffffff82169050919050565b6145f3816145ce565b82525050565b600063ffffffff82169050919050565b614612816145f9565b82525050565b61462181613e28565b82525050565b60a08201600082015161463d60008501826145ea565b5060208201516146506020850182614609565b5060408201516146636040850182614618565b50606082015161467660608501826145ea565b50608082015161468960808501826145ea565b50505050565b600060a0820190506146a46000830184614627565b92915050565b600081519050919050565b600082825260208201905092915050565b6000819050602082019050919050565b6146df81613e5e565b82525050565b60006146f183836146d6565b60208301905092915050565b6000602082019050919050565b6000614715826146aa565b61471f81856146b5565b935061472a836146c6565b8060005b8381101561475b57815161474288826146e5565b975061474d836146fd565b92505060018101905061472e565b5085935050505092915050565b60006020820190508181036000830152614782818461470a565b905092915050565b600080fd5b7f4e487b7100000000000000000000000000000000000000000000000000000000600052604160045260246000fd5b6147c782613f11565b810181811067ffffffffffffffff821117156147e6576147e561478f565b5b80604052505050565b60006147f9613d8f565b905061480582826147be565b919050565b600080fd5b61481881613e28565b811461482357600080fd5b50565b6000813590506148358161480f565b92915050565b614844816145ce565b811461484f57600080fd5b50565b6000813590506148618161483b565b92915050565b60006060828403121561487d5761487c61478a565b5b61488760606147ef565b9050600061489784828501614826565b60008301525060206148ab84828501614852565b60208301525060406148bf84828501614852565b60408301525092915050565b600080600060e084860312156148e4576148e3613d99565b5b60006148f286828701613e89565b935050602061490386828701614867565b925050608061491486828701614867565b9150509250925092565b60008083601f8401126149345761493361423a565b5b8235905067ffffffffffffffff8111156149515761495061423f565b5b60208301915083602082028301111561496d5761496c614244565b5b9250929050565b6000806020838503121561498b5761498a613d99565b5b600083013567ffffffffffffffff8111156149a9576149a8613d9e565b5b6149b58582860161491e565b92509250509250929050565b7f4e487b7100000000000000000000000000000000000000000000000000000000600052602260045260246000fd5b60006002820490506001821680614a0857607f821691505b602082108103614a1b57614a1a6149c1565b5b50919050565b600081519050614a3081613f87565b92915050565b600060208284031215614a4c57614a4b613d99565b5b6000614a5a84828501614a21565b91505092915050565b600080fd5b600067ffffffffffffffff821115614a8357614a8261478f565b5b614a8c82613f11565b9050602081019050919050565b82818337600083830152505050565b6000614abb614ab684614a68565b6147ef565b905082815260208101848484011115614ad757614ad6614a63565b5b614ae2848285614a99565b509392505050565b600082601f830112614aff57614afe61423a565b5b8135614b0f848260208601614aa8565b91505092915050565b60006101008284031215614b2f57614b2e61478a565b5b614b3a6101006147ef565b9050600082013567ffffffffffffffff811115614b5a57614b5961480a565b5b614b6684828501614aea565b6000830152506020614b7a84828501613e89565b6020830152506040614b8e8482850161411a565b6040830152506060614ba284828501613f9e565b6060830152506080614bb68482850161411a565b60808301525060a082013567ffffffffffffffff811115614bda57614bd961480a565b5b614be684828501614aea565b60a08301525060c082013567ffffffffffffffff811115614c0a57614c0961480a565b5b614c1684828501614aea565b60c08301525060e082013567ffffffffffffffff811115614c3a57614c3961480a565b5b614c4684828501614aea565b60e08301525092915050565b6000614c5e3683614b18565b9050919050565b614c6e81613f7d565b82525050565b6000602082019050614c896000830184614c65565b92915050565b614c9881613e5e565b82525050565b6000602082019050614cb36000830184614c8f565b92915050565b600082905092915050565b60008190508160005260206000209050919050565b60006020601f8301049050919050565b600082821b905092915050565b600060088302614d267fffffffffffffffffffffffffffffffffffffffffffffffffffffffffffffffff82614ce9565b614d308683614ce9565b95508019841693508086168417925050509392505050565b6000614d63614d5e614d5984613f7d565b614077565b613f7d565b9050919050565b6000819050919050565b614d7d83614d48565b614d91614d8982614d6a565b848454614cf6565b825550505050565b600090565b614da6614d99565b614db1818484614d74565b505050565b5b81811015614dd557614dca600082614d9e565b600181019050614db7565b5050565b601f821115614e1a57614deb81614cc4565b614df484614cd9565b81016020851015614e03578190505b614e17614e0f85614cd9565b830182614db6565b50505b505050565b600082821c905092915050565b6000614e3d60001984600802614e1f565b1980831691505092915050565b6000614e568383614e2c565b9150826002028217905092915050565b614e708383614cb9565b67ffffffffffffffff811115614e8957614e8861478f565b5b614e9382546149f0565b614e9e828285614dd9565b6000601f831160018114614ecd5760008415614ebb578287013590505b614ec58582614e4a565b865550614f2d565b601f198416614edb86614cc4565b60005b82811015614f0357848901358255600182019150602085019450602081019050614ede565b86831015614f205784890135614f1c601f891682614e2c565b8355505b6001600288020188555050505b50505050505050565b6000614f428385613ed6565b9350614f4f838584614a99565b614f5883613f11565b840190509392505050565b60006040820190508181036000830152614f7d8186613f22565b90508181036020830152614f92818486614f36565b9050949350505050565b7f4d7573742062652070726f706f736564206f776e657200000000000000000000600082015250565b6000614fd2601683613feb565b9150614fdd82614f9c565b602082019050919050565b6000602082019050818103600083015261500181614fc5565b9050919050565b600060a0828403121561501e5761501d61478a565b5b61502860a06147ef565b9050600082013567ffffffffffffffff8111156150485761504761480a565b5b61505484828501614aea565b600083015250602061506884828501613e89565b602083015250604061507c8482850161411a565b604083015250606061509084828501613f9e565b60608301525060806150a48482850161411a565b60808301525092915050565b60006150bc3683615008565b9050919050565b60006040820190506150d86000830185614210565b6150e56020830184614210565b9392505050565b7f4e487b7100000000000000000000000000000000000000000000000000000000600052603260045260246000fd5b600080fd5b6000823560016101400383360303811261513d5761513c61511b565b5b80830191505092915050565b600061014082840312156151605761515f61478a565b5b61516a60c06147ef565b9050600061517a84828501613e89565b600083015250602061518e84828501614826565b602083015250604082013567ffffffffffffffff8111156151b2576151b161480a565b5b6151be84828501614aea565b604083015250606082013567ffffffffffffffff8111156151e2576151e161480a565b5b6151ee84828501614aea565b606083015250608061520284828501614867565b60808301525060e061521684828501614867565b60a08301525092915050565b600061522e3683615149565b9050919050565b61523e82613ecb565b67ffffffffffffffff8111156152575761525661478f565b5b61526182546149f0565b61526c828285614dd9565b600060209050601f83116001811461529f576000841561528d578287015190505b6152978582614e4a565b8655506152ff565b601f1984166152ad86614cc4565b60005b828110156152d5578489015182556001820191506020850194506020810190506152b0565b868310156152f257848901516152ee601f891682614e2c565b8355505b6001600288020188555050505b505050505050565b60608201600082015161531d6000850182614618565b50602082015161533060208501826145ea565b50604082015161534360408501826145ea565b50505050565b60006101008201905061535f6000830187614c8f565b81810360208301526153718186613f22565b90506153806040830185615307565b61538d60a0830184615307565b95945050505050565b60006040820190506153ab6000830185614210565b6153b86020830184614c65565b9392505050565b60007fffffffffffffffffffffffffffffffff0000000000000000000000000000000082169050919050565b6153f4816153bf565b82525050565b600060208201905061540f60008301846153eb565b92915050565b6000815190506154248161480f565b92915050565b6000602082840312156154405761543f613d99565b5b600061544e84828501615415565b91505092915050565b7f4f6e6c792063616c6c61626c65206279206f776e657200000000000000000000600082015250565b600061548d601683613feb565b915061549882615457565b602082019050919050565b600060208201905081810360008301526154bc81615480565b9050919050565b7f4e487b7100000000000000000000000000000000000000000000000000000000600052601160045260246000fd5b60006154fd82613f7d565b915061550883613f7d565b92508282039050818111156155205761551f6154c3565b5b92915050565b600060e08201905061553b6000830186614c8f565b6155486020830185615307565b6155556080830184615307565b949350505050565b60006060820190506155726000830184615307565b92915050565b600060608201905061558d6000830186614210565b61559a6020830185614210565b6155a76040830184614c65565b949350505050565b7f43616e6e6f74207472616e7366657220746f2073656c66000000000000000000600082015250565b60006155e5601783613feb565b91506155f0826155af565b602082019050919050565b60006020820190508181036000830152615614816155d8565b9050919050565b7f5361666545524332303a204552433230206f7065726174696f6e20646964206e60008201527f6f74207375636365656400000000000000000000000000000000000000000000602082015250565b6000615677602a83613feb565b91506156828261561b565b604082019050919050565b600060208201905081810360008301526156a68161566a565b9050919050565b60006040820190506156c26000830185614c8f565b6156cf6020830184614210565b9392505050565b6000815190506156e581614103565b92915050565b60006020828403121561570157615700613d99565b5b600061570f848285016156d6565b91505092915050565b600061572382613f7d565b915061572e83613f7d565b925082820261573c81613f7d565b91508282048414831517615753576157526154c3565b5b5092915050565b600061576582613f7d565b915061577083613f7d565b9250828201905080821115615788576157876154c3565b5b92915050565b7f4e487b7100000000000000000000000000000000000000000000000000000000600052603160045260246000fd5b60006040820190506157d26000830185614c65565b6157df6020830184614c65565b9392505050565b60006060820190506157fb6000830186614c65565b6158086020830185614c65565b6158156040830184614210565b949350505050565b7f4e487b7100000000000000000000000000000000000000000000000000000000600052601260045260246000fd5b600061585782613f7d565b915061586283613f7d565b9250826158725761587161581d565b5b828204905092915050565b7f416464726573733a20696e73756666696369656e742062616c616e636520666f60008201527f722063616c6c0000000000000000000000000000000000000000000000000000602082015250565b60006158d9602683613feb565b91506158e48261587d565b604082019050919050565b60006020820190508181036000830152615908816158cc565b9050919050565b600081905092915050565b600061592582613ecb565b61592f818561590f565b935061593f818560208601613ee7565b80840191505092915050565b6000615957828461591a565b915081905092915050565b7f416464726573733a2063616c6c20746f206e6f6e2d636f6e7472616374000000600082015250565b6000615998601d83613feb565b91506159a382615962565b602082019050919050565b600060208201905081810360008301526159c78161598b565b905091905056fea164736f6c6343000818000a","linkReferences":{}},"methodIdentifiers":{"acceptOwnership()":"79ba5097","applyAllowListUpdates(address[],address[])":"54c8a4f3","applyChainUpdates((uint64,bool,bytes,bytes,(bool,uint128,uint128),(bool,uint128,uint128))[])":"db6327dc","canAcceptLiquidity()":"bb98546b","getAllowList()":"a7cd63b7","getAllowListEnabled()":"e0351e13","getCurrentInboundRateLimiterState(uint64)":"af58d59f","getCurrentOutboundRateLimiterState(uint64)":"c75eea9c","getRateLimitAdmin()":"6d3d1a58","getRebalancer()":"432a6ba3","getRemotePool(uint64)":"0a2fd493","getRemoteToken(uint64)":"b7946580","getRmnProxy()":"dc0bd971","getRouter()":"b0f479a1","getSupportedChains()":"c4bffe2b","getToken()":"21df0da7","isSupportedChain(uint64)":"8926f54f","isSupportedToken(address)":"240028e8","lockOrBurn((bytes,uint64,address,uint256,address))":"9a4575b9","owner()":"8da5cb5b","provideLiquidity(uint256)":"eb521a4c","releaseOrMint((bytes,uint64,address,uint256,address,bytes,bytes,bytes))":"39077537","setChainRateLimiterConfig(uint64,(bool,uint128,uint128),(bool,uint128,uint128))":"cf7401f3","setRateLimitAdmin(address)":"7d54534e","setRebalancer(address)":"6cfd1553","setRemotePool(uint64,bytes)":"78a010b2","setRouter(address)":"c0d78655","supportsInterface(bytes4)":"01ffc9a7","transferOwnership(address)":"f2fde38b","typeAndVersion()":"181f5a77","withdrawLiquidity(uint256)":"0a861f2a"},"id":46}