{"abi":[{"type":"constructor","inputs":[{"name":"router","type":"address","internalType":"contract IRouterClient"},{"name":"feeToken","type":"address","internalType":"contract IERC20"}],"stateMutability":"nonpayable"},{"type":"function","name":"acceptOwnership","inputs":[],"outputs":[],"stateMutability":"nonpayable"},{"type":"function","name":"ccipReceive","inputs":[{"name":"message","type":"tuple","internalType":"struct Client.Any2EVMMessage","components":[{"name":"messageId","type":"bytes32","internalType":"bytes32"},{"name":"sourceChainSelector","type":"uint64","internalType":"uint64"},{"name":"sender","type":"bytes","internalType":"bytes"},{"name":"data","type":"bytes","internalType":"bytes"},{"name":"destTokenAmounts","type":"tuple[]","internalType":"struct Client.EVMTokenAmount[]","components":[{"name":"token","type":"address","internalType":"address"},{"name":"amount","type":"uint256","internalType":"uint256"}]}]}],"outputs":[],"stateMutability":"nonpayable"},{"type":"function","name":"disableChain","inputs":[{"name":"chainSelector","type":"uint64","internalType":"uint64"}],"outputs":[],"stateMutability":"nonpayable"},{"type":"function","name":"enableChain","inputs":[{"name":"chainSelector","type":"uint64","internalType":"uint64"},{"name":"extraArgs","type":"bytes","internalType":"bytes"}],"outputs":[],"stateMutability":"nonpayable"},{"type":"function","name":"getRouter","inputs":[],"outputs":[{"name":"","type":"address","internalType":"address"}],"stateMutability":"view"},{"type":"function","name":"owner","inputs":[],"outputs":[{"name":"","type":"address","internalType":"address"}],"stateMutability":"view"},{"type":"function","name":"processMessage","inputs":[{"name":"message","type":"tuple","internalType":"struct Client.Any2EVMMessage","components":[{"name":"messageId","type":"bytes32","internalType":"bytes32"},{"name":"sourceChainSelector","type":"uint64","internalType":"uint64"},{"name":"sender","type":"bytes","internalType":"bytes"},{"name":"data","type":"bytes","internalType":"bytes"},{"name":"destTokenAmounts","type":"tuple[]","internalType":"struct Client.EVMTokenAmount[]","components":[{"name":"token","type":"address","internalType":"address"},{"name":"amount","type":"uint256","internalType":"uint256"}]}]}],"outputs":[],"stateMutability":"nonpayable"},{"type":"function","name":"retryFailedMessage","inputs":[{"name":"messageId","type":"bytes32","internalType":"bytes32"},{"name":"tokenReceiver","type":"address","internalType":"address"}],"outputs":[],"stateMutability":"nonpayable"},{"type":"function","name":"s_chains","inputs":[{"name":"destChainSelector","type":"uint64","internalType":"uint64"}],"outputs":[{"name":"extraArgsBytes","type":"bytes","internalType":"bytes"}],"stateMutability":"view"},{"type":"function","name":"s_feeToken","inputs":[],"outputs":[{"name":"","type":"address","internalType":"contract IERC20"}],"stateMutability":"view"},{"type":"function","name":"s_messageContents","inputs":[{"name":"messageId","type":"bytes32","internalType":"bytes32"}],"outputs":[{"name":"messageId","type":"bytes32","internalType":"bytes32"},{"name":"sourceChainSelector","type":"uint64","internalType":"uint64"},{"name":"sender","type":"bytes","internalType":"bytes"},{"name":"data","type":"bytes","internalType":"bytes"}],"stateMutability":"view"},{"type":"function","name":"sendDataAndTokens","inputs":[{"name":"destChainSelector","type":"uint64","internalType":"uint64"},{"name":"receiver","type":"bytes","internalType":"bytes"},{"name":"data","type":"bytes","internalType":"bytes"},{"name":"tokenAmounts","type":"tuple[]","internalType":"struct Client.EVMTokenAmount[]","components":[{"name":"token","type":"address","internalType":"address"},{"name":"amount","type":"uint256","internalType":"uint256"}]}],"outputs":[],"stateMutability":"nonpayable"},{"type":"function","name":"sendDataPayFeeToken","inputs":[{"name":"destChainSelector","type":"uint64","internalType":"uint64"},{"name":"receiver","type":"bytes","internalType":"bytes"},{"name":"data","type":"bytes","internalType":"bytes"}],"outputs":[],"stateMutability":"nonpayable"},{"type":"function","name":"sendDataPayNative","inputs":[{"name":"destChainSelector","type":"uint64","internalType":"uint64"},{"name":"receiver","type":"bytes","internalType":"bytes"},{"name":"data","type":"bytes","internalType":"bytes"}],"outputs":[],"stateMutability":"nonpayable"},{"type":"function","name":"sendTokens","inputs":[{"name":"destChainSelector","type":"uint64","internalType":"uint64"},{"name":"receiver","type":"bytes","internalType":"bytes"},{"name":"tokenAmounts","type":"tuple[]","internalType":"struct Client.EVMTokenAmount[]","components":[{"name":"token","type":"address","internalType":"address"},{"name":"amount","type":"uint256","internalType":"uint256"}]}],"outputs":[],"stateMutability":"nonpayable"},{"type":"function","name":"setSimRevert","inputs":[{"name":"simRevert","type":"bool","internalType":"bool"}],"outputs":[],"stateMutability":"nonpayable"},{"type":"function","name":"supportsInterface","inputs":[{"name":"interfaceId","type":"bytes4","internalType":"bytes4"}],"outputs":[{"name":"","type":"bool","internalType":"bool"}],"stateMutability":"view"},{"type":"function","name":"transferOwnership","inputs":[{"name":"to","type":"address","internalType":"address"}],"outputs":[],"stateMutability":"nonpayable"},{"type":"event","name":"MessageFailed","inputs":[{"name":"messageId","type":"bytes32","indexed":true,"internalType":"bytes32"},{"name":"reason","type":"bytes","indexed":false,"internalType":"bytes"}],"anonymous":false},{"type":"event","name":"MessageReceived","inputs":[{"name":"messageId","type":"bytes32","indexed":false,"internalType":"bytes32"}],"anonymous":false},{"type":"event","name":"MessageRecovered","inputs":[{"name":"messageId","type":"bytes32","indexed":true,"internalType":"bytes32"}],"anonymous":false},{"type":"event","name":"MessageSent","inputs":[{"name":"messageId","type":"bytes32","indexed":false,"internalType":"bytes32"}],"anonymous":false},{"type":"event","name":"MessageSucceeded","inputs":[{"name":"messageId","type":"bytes32","indexed":true,"internalType":"bytes32"}],"anonymous":false},{"type":"event","name":"OwnershipTransferRequested","inputs":[{"name":"from","type":"address","indexed":true,"internalType":"address"},{"name":"to","type":"address","indexed":true,"internalType":"address"}],"anonymous":false},{"type":"event","name":"OwnershipTransferred","inputs":[{"name":"from","type":"address","indexed":true,"internalType":"address"},{"name":"to","type":"address","indexed":true,"internalType":"address"}],"anonymous":false},{"type":"error","name":"ErrorCase","inputs":[]},{"type":"error","name":"InvalidChain","inputs":[{"name":"chainSelector","type":"uint64","internalType":"uint64"}]},{"type":"error","name":"InvalidRouter","inputs":[{"name":"router","type":"address","internalType":"address"}]},{"type":"error","name":"MessageNotFailed","inputs":[{"name":"messageId","type":"bytes32","internalType":"bytes32"}]},{"type":"error","name":"OnlySelf","inputs":[]}],"bytecode":{"object":"0x60a06040526000600860006101000a81548160ff0219169083151502179055503480156200002c57600080fd5b5060405162004c2338038062004c23833981810160405281019062000052919062000502565b81813380600084600073ffffffffffffffffffffffffffffffffffffffff168173ffffffffffffffffffffffffffffffffffffffff1603620000ce5760006040517fd7f73334000000000000000000000000000000000000000000000000000000008152600401620000c591906200055a565b60405180910390fd5b8073ffffffffffffffffffffffffffffffffffffffff1660808173ffffffffffffffffffffffffffffffffffffffff168152505050600073ffffffffffffffffffffffffffffffffffffffff168273ffffffffffffffffffffffffffffffffffffffff160362000175576040517f08c379a00000000000000000000000000000000000000000000000000000000081526004016200016c90620005d8565b60405180910390fd5b816000806101000a81548173ffffffffffffffffffffffffffffffffffffffff021916908373ffffffffffffffffffffffffffffffffffffffff160217905550600073ffffffffffffffffffffffffffffffffffffffff168173ffffffffffffffffffffffffffffffffffffffff1614620001fc57620001fb816200031060201b60201c565b5b50505080600260006101000a81548173ffffffffffffffffffffffffffffffffffffffff021916908373ffffffffffffffffffffffffffffffffffffffff160217905550600260009054906101000a900473ffffffffffffffffffffffffffffffffffffffff1673ffffffffffffffffffffffffffffffffffffffff1663095ea7b3837fffffffffffffffffffffffffffffffffffffffffffffffffffffffffffffffff6040518363ffffffff1660e01b8152600401620002bf92919062000615565b6020604051808303816000875af1158015620002df573d6000803e3d6000fd5b505050506040513d601f19601f820116820180604052508101906200030591906200067f565b505050505062000723565b3373ffffffffffffffffffffffffffffffffffffffff168173ffffffffffffffffffffffffffffffffffffffff160362000381576040517f08c379a0000000000000000000000000000000000000000000000000000000008152600401620003789062000701565b60405180910390fd5b80600160006101000a81548173ffffffffffffffffffffffffffffffffffffffff021916908373ffffffffffffffffffffffffffffffffffffffff1602179055508073ffffffffffffffffffffffffffffffffffffffff1660008054906101000a900473ffffffffffffffffffffffffffffffffffffffff1673ffffffffffffffffffffffffffffffffffffffff167fed8889f560326eb138920d842192f0eb3dd22b4f139c87a2c57538e05bae127860405160405180910390a350565b600080fd5b600073ffffffffffffffffffffffffffffffffffffffff82169050919050565b6000620004718262000444565b9050919050565b6000620004858262000464565b9050919050565b620004978162000478565b8114620004a357600080fd5b50565b600081519050620004b7816200048c565b92915050565b6000620004ca8262000464565b9050919050565b620004dc81620004bd565b8114620004e857600080fd5b50565b600081519050620004fc81620004d1565b92915050565b600080604083850312156200051c576200051b6200043f565b5b60006200052c85828601620004a6565b92505060206200053f85828601620004eb565b9150509250929050565b620005548162000464565b82525050565b600060208201905062000571600083018462000549565b92915050565b600082825260208201905092915050565b7f43616e6e6f7420736574206f776e657220746f207a65726f0000000000000000600082015250565b6000620005c060188362000577565b9150620005cd8262000588565b602082019050919050565b60006020820190508181036000830152620005f381620005b1565b9050919050565b6000819050919050565b6200060f81620005fa565b82525050565b60006040820190506200062c600083018562000549565b6200063b602083018462000604565b9392505050565b60008115159050919050565b620006598162000642565b81146200066557600080fd5b50565b60008151905062000679816200064e565b92915050565b6000602082840312156200069857620006976200043f565b5b6000620006a88482850162000668565b91505092915050565b7f43616e6e6f74207472616e7366657220746f2073656c66000000000000000000600082015250565b6000620006e960178362000577565b9150620006f682620006b1565b602082019050919050565b600060208201905081810360008301526200071c81620006da565b9050919050565b6080516144b362000770600039600081816109fb01528181610d3801528181610efb01528181611157015281816113180152818161182001528181611a0a0152611a4601526144b36000f3fe608060405234801561001057600080fd5b50600436106101165760003560e01c806379ba5097116100a2578063c0cb2d0811610071578063c0cb2d08146102a1578063cf6730f8146102bd578063d0d1fc3d146102d9578063f2fde38b1461030c578063ff2deec31461032857610116565b806379ba50971461023f57806385572ffb146102495780638da5cb5b14610265578063b0f479a11461028357610116565b80635d8e7f18116100e95780635d8e7f181461019f5780635dc02a2c146101bb5780635dc5ebdb146101d7578063686fab79146102075780637383c8fb1461022357610116565b806301ffc9a71461011b578063369f7f661461014b57806341eade461461016757806352f813c314610183575b600080fd5b610135600480360381019061013091906126a6565b610346565b60405161014291906126ee565b60405180910390f35b6101656004803603810190610160919061279d565b610418565b005b610181600480360381019061017c919061281d565b6107b1565b005b61019d60048036038101906101989190612876565b6107ef565b005b6101b960048036038101906101b491906129e9565b610814565b005b6101d560048036038101906101d09190612a74565b610ad9565b005b6101f160048036038101906101ec919061281d565b610b1a565b6040516101fe9190612b4f565b60405180910390f35b610221600480360381019061021c9190612cc4565b610bba565b005b61023d60048036038101906102389190612d4f565b610fd9565b005b6102476113f6565b005b610263600480360381019061025e9190612e2e565b61158b565b005b61026d6117f3565b60405161027a9190612e86565b60405180910390f35b61028b61181c565b6040516102989190612e86565b60405180910390f35b6102bb60048036038101906102b691906129e9565b611844565b005b6102d760048036038101906102d29190612e2e565b611b84565b005b6102f360048036038101906102ee9190612ea1565b611d7b565b6040516103039493929190612eec565b60405180910390f35b61032660048036038101906103219190612f3f565b611ecf565b005b610330611ee3565b60405161033d9190612fcb565b60405180910390f35b60007f85572ffb000000000000000000000000000000000000000000000000000000007bffffffffffffffffffffffffffffffffffffffffffffffffffffffff1916827bffffffffffffffffffffffffffffffffffffffffffffffffffffffff1916148061041157507f01ffc9a7000000000000000000000000000000000000000000000000000000007bffffffffffffffffffffffffffffffffffffffffffffffffffffffff1916827bffffffffffffffffffffffffffffffffffffffffffffffffffffffff1916145b9050919050565b610420611f09565b60018081111561043357610432612fe6565b5b610447836005611f9990919063ffffffff16565b1461048957816040517fb6e782600000000000000000000000000000000000000000000000000000000081526004016104809190613015565b60405180910390fd5b6104b282600060018111156104a1576104a0612fe6565b5b6005611fb39092919063ffffffff16565b506000600460008481526020019081526020016000206040518060a0016040529081600082015481526020016001820160009054906101000a900467ffffffffffffffff1667ffffffffffffffff1667ffffffffffffffff16815260200160028201805461051f9061305f565b80601f016020809104026020016040519081016040528092919081815260200182805461054b9061305f565b80156105985780601f1061056d57610100808354040283529160200191610598565b820191906000526020600020905b81548152906001019060200180831161057b57829003601f168201915b505050505081526020016003820180546105b19061305f565b80601f01602080910402602001604051908101604052809291908181526020018280546105dd9061305f565b801561062a5780601f106105ff5761010080835404028352916020019161062a565b820191906000526020600020905b81548152906001019060200180831161060d57829003601f168201915b5050505050815260200160048201805480602002602001604051908101604052809291908181526020016000905b828210156106ea57838290600052602060002090600202016040518060400160405290816000820160009054906101000a900473ffffffffffffffffffffffffffffffffffffffff1673ffffffffffffffffffffffffffffffffffffffff1673ffffffffffffffffffffffffffffffffffffffff16815260200160018201548152505081526020019060010190610658565b5050505081525050905060005b81608001515181101561077e57610773838360800151838151811061071f5761071e613090565b5b6020026020010151602001518460800151848151811061074257610741613090565b5b60200260200101516000015173ffffffffffffffffffffffffffffffffffffffff16611fcf9092919063ffffffff16565b8060010190506106f7565b50827fef3bf8c64bc480286c4f3503b870ceb23e648d2d902e31fb7bb46680da6de8ad60405160405180910390a2505050565b6107b9611f09565b600360008267ffffffffffffffff1667ffffffffffffffff16815260200190815260200160002060006107ec91906125ad565b50565b6107f7611f09565b80600860006101000a81548160ff02191690831515021790555050565b826000600360008367ffffffffffffffff1667ffffffffffffffff16815260200190815260200160002080546108499061305f565b90500361088d57806040517fd79f2ea400000000000000000000000000000000000000000000000000000000815260040161088491906130bf565b60405180910390fd5b60008067ffffffffffffffff8111156108a9576108a86128be565b5b6040519080825280602002602001820160405280156108e257816020015b6108cf6125ed565b8152602001906001900390816108c75790505b50905060006040518060a00160405280868152602001858152602001838152602001600260009054906101000a900473ffffffffffffffffffffffffffffffffffffffff1673ffffffffffffffffffffffffffffffffffffffff168152602001600360008967ffffffffffffffff1667ffffffffffffffff16815260200190815260200160002080546109749061305f565b80601f01602080910402602001604051908101604052809291908181526020018280546109a09061305f565b80156109ed5780601f106109c2576101008083540402835291602001916109ed565b820191906000526020600020905b8154815290600101906020018083116109d057829003601f168201915b5050505050815250905060007f000000000000000000000000000000000000000000000000000000000000000073ffffffffffffffffffffffffffffffffffffffff166396f4e9f988846040518363ffffffff1660e01b8152600401610a549291906132ab565b6020604051808303816000875af1158015610a73573d6000803e3d6000fd5b505050506040513d601f19601f82011682018060405250810190610a9791906132f0565b90507f54791b38f3859327992a1ca0590ad3c0f08feba98d1a4f56ab0dca74d203392a81604051610ac89190613015565b60405180910390a150505050505050565b610ae1611f09565b80600360008467ffffffffffffffff1667ffffffffffffffff1681526020019081526020016000209081610b1591906134bf565b505050565b60036020528060005260406000206000915090508054610b399061305f565b80601f0160208091040260200160405190810160405280929190818152602001828054610b659061305f565b8015610bb25780601f10610b8757610100808354040283529160200191610bb2565b820191906000526020600020905b815481529060010190602001808311610b9557829003601f168201915b505050505081565b826000600360008367ffffffffffffffff1667ffffffffffffffff1681526020019081526020016000208054610bef9061305f565b905003610c3357806040517fd79f2ea4000000000000000000000000000000000000000000000000000000008152600401610c2a91906130bf565b60405180910390fd5b60005b8251811015610de257828181518110610c5257610c51613090565b5b60200260200101516000015173ffffffffffffffffffffffffffffffffffffffff166323b872dd3330868581518110610c8e57610c8d613090565b5b6020026020010151602001516040518463ffffffff1660e01b8152600401610cb8939291906135a0565b6020604051808303816000875af1158015610cd7573d6000803e3d6000fd5b505050506040513d601f19601f82011682018060405250810190610cfb91906135ec565b50828181518110610d0f57610d0e613090565b5b60200260200101516000015173ffffffffffffffffffffffffffffffffffffffff1663095ea7b37f0000000000000000000000000000000000000000000000000000000000000000858481518110610d6a57610d69613090565b5b6020026020010151602001516040518363ffffffff1660e01b8152600401610d93929190613619565b6020604051808303816000875af1158015610db2573d6000803e3d6000fd5b505050506040513d601f19601f82011682018060405250810190610dd691906135ec565b50806001019050610c36565b50606060006040518060a00160405280868152602001838152602001858152602001600260009054906101000a900473ffffffffffffffffffffffffffffffffffffffff1673ffffffffffffffffffffffffffffffffffffffff168152602001600360008967ffffffffffffffff1667ffffffffffffffff1681526020019081526020016000208054610e749061305f565b80601f0160208091040260200160405190810160405280929190818152602001828054610ea09061305f565b8015610eed5780601f10610ec257610100808354040283529160200191610eed565b820191906000526020600020905b815481529060010190602001808311610ed057829003601f168201915b5050505050815250905060007f000000000000000000000000000000000000000000000000000000000000000073ffffffffffffffffffffffffffffffffffffffff166396f4e9f988846040518363ffffffff1660e01b8152600401610f549291906132ab565b6020604051808303816000875af1158015610f73573d6000803e3d6000fd5b505050506040513d601f19601f82011682018060405250810190610f9791906132f0565b90507f54791b38f3859327992a1ca0590ad3c0f08feba98d1a4f56ab0dca74d203392a81604051610fc89190613015565b60405180910390a150505050505050565b836000600360008367ffffffffffffffff1667ffffffffffffffff168152602001908152602001600020805461100e9061305f565b90500361105257806040517fd79f2ea400000000000000000000000000000000000000000000000000000000815260040161104991906130bf565b60405180910390fd5b60005b82518110156112015782818151811061107157611070613090565b5b60200260200101516000015173ffffffffffffffffffffffffffffffffffffffff166323b872dd33308685815181106110ad576110ac613090565b5b6020026020010151602001516040518463ffffffff1660e01b81526004016110d7939291906135a0565b6020604051808303816000875af11580156110f6573d6000803e3d6000fd5b505050506040513d601f19601f8201168201806040525081019061111a91906135ec565b5082818151811061112e5761112d613090565b5b60200260200101516000015173ffffffffffffffffffffffffffffffffffffffff1663095ea7b37f000000000000000000000000000000000000000000000000000000000000000085848151811061118957611188613090565b5b6020026020010151602001516040518363ffffffff1660e01b81526004016111b2929190613619565b6020604051808303816000875af11580156111d1573d6000803e3d6000fd5b505050506040513d601f19601f820116820180604052508101906111f591906135ec565b50806001019050611055565b5060006040518060a00160405280868152602001858152602001848152602001600260009054906101000a900473ffffffffffffffffffffffffffffffffffffffff1673ffffffffffffffffffffffffffffffffffffffff168152602001600360008967ffffffffffffffff1667ffffffffffffffff16815260200190815260200160002080546112919061305f565b80601f01602080910402602001604051908101604052809291908181526020018280546112bd9061305f565b801561130a5780601f106112df5761010080835404028352916020019161130a565b820191906000526020600020905b8154815290600101906020018083116112ed57829003601f168201915b5050505050815250905060007f000000000000000000000000000000000000000000000000000000000000000073ffffffffffffffffffffffffffffffffffffffff166396f4e9f988846040518363ffffffff1660e01b81526004016113719291906132ab565b6020604051808303816000875af1158015611390573d6000803e3d6000fd5b505050506040513d601f19601f820116820180604052508101906113b491906132f0565b90507f54791b38f3859327992a1ca0590ad3c0f08feba98d1a4f56ab0dca74d203392a816040516113e59190613015565b60405180910390a150505050505050565b600160009054906101000a900473ffffffffffffffffffffffffffffffffffffffff1673ffffffffffffffffffffffffffffffffffffffff163373ffffffffffffffffffffffffffffffffffffffff1614611486576040517f08c379a000000000000000000000000000000000000000000000000000000000815260040161147d9061369f565b60405180910390fd5b60008060009054906101000a900473ffffffffffffffffffffffffffffffffffffffff169050336000806101000a81548173ffffffffffffffffffffffffffffffffffffffff021916908373ffffffffffffffffffffffffffffffffffffffff1602179055506000600160006101000a81548173ffffffffffffffffffffffffffffffffffffffff021916908373ffffffffffffffffffffffffffffffffffffffff1602179055503373ffffffffffffffffffffffffffffffffffffffff168173ffffffffffffffffffffffffffffffffffffffff167f8be0079c531659141344cd1fd0a4f28419497f9722a3daafe3b4186f6b6457e060405160405180910390a350565b61159361181c565b73ffffffffffffffffffffffffffffffffffffffff163373ffffffffffffffffffffffffffffffffffffffff161461160257336040517fd7f733340000000000000000000000000000000000000000000000000000000081526004016115f99190612e86565b60405180910390fd5b806020016020810190611615919061281d565b6000600360008367ffffffffffffffff1667ffffffffffffffff16815260200190815260200160002080546116499061305f565b90500361168d57806040517fd79f2ea400000000000000000000000000000000000000000000000000000000815260040161168491906130bf565b60405180910390fd5b3073ffffffffffffffffffffffffffffffffffffffff1663cf6730f8836040518263ffffffff1660e01b81526004016116c691906139c3565b600060405180830381600087803b1580156116e057600080fd5b505af19250505080156116f1575060015b6117bd573d8060008114611721576040519150601f19603f3d011682016040523d82523d6000602084013e611726565b606091505b50611753836000013560018081111561174257611741612fe6565b5b6005611fb39092919063ffffffff16565b50826004600085600001358152602001908152602001600020818161177891906140c9565b90505082600001357f55bc02a9ef6f146737edeeb425738006f67f077e7138de3bf84a15bde1a5b56f826040516117af9190612b4f565b60405180910390a2506117ef565b81600001357fdf6958669026659bac75ba986685e11a7d271284989f565f2802522663e9a70f60405160405180910390a25b5050565b60008060009054906101000a900473ffffffffffffffffffffffffffffffffffffffff16905090565b60007f0000000000000000000000000000000000000000000000000000000000000000905090565b826000600360008367ffffffffffffffff1667ffffffffffffffff16815260200190815260200160002080546118799061305f565b9050036118bd57806040517fd79f2ea40000000000000000000000000000000000000000000000000000000081526004016118b491906130bf565b60405180910390fd5b60008067ffffffffffffffff8111156118d9576118d86128be565b5b60405190808252806020026020018201604052801561191257816020015b6118ff6125ed565b8152602001906001900390816118f75790505b50905060006040518060a00160405280868152602001858152602001838152602001600073ffffffffffffffffffffffffffffffffffffffff168152602001600360008967ffffffffffffffff1667ffffffffffffffff16815260200190815260200160002080546119839061305f565b80601f01602080910402602001604051908101604052809291908181526020018280546119af9061305f565b80156119fc5780601f106119d1576101008083540402835291602001916119fc565b820191906000526020600020905b8154815290600101906020018083116119df57829003601f168201915b5050505050815250905060007f000000000000000000000000000000000000000000000000000000000000000073ffffffffffffffffffffffffffffffffffffffff166396f4e9f97f000000000000000000000000000000000000000000000000000000000000000073ffffffffffffffffffffffffffffffffffffffff166320487ded8a866040518363ffffffff1660e01b8152600401611a9f9291906132ab565b602060405180830381865afa158015611abc573d6000803e3d6000fd5b505050506040513d601f19601f82011682018060405250810190611ae091906140ec565b89856040518463ffffffff1660e01b8152600401611aff9291906132ab565b60206040518083038185885af1158015611b1d573d6000803e3d6000fd5b50505050506040513d601f19601f82011682018060405250810190611b4291906132f0565b90507f54791b38f3859327992a1ca0590ad3c0f08feba98d1a4f56ab0dca74d203392a81604051611b739190613015565b60405180910390a150505050505050565b3073ffffffffffffffffffffffffffffffffffffffff163373ffffffffffffffffffffffffffffffffffffffff1614611be9576040517f14d4a4e800000000000000000000000000000000000000000000000000000000815260040160405180910390fd5b806020016020810190611bfc919061281d565b6000600360008367ffffffffffffffff1667ffffffffffffffff1681526020019081526020016000208054611c309061305f565b905003611c7457806040517fd79f2ea4000000000000000000000000000000000000000000000000000000008152600401611c6b91906130bf565b60405180910390fd5b600860009054906101000a900460ff1615611cbb576040517f79f79e0b00000000000000000000000000000000000000000000000000000000815260040160405180910390fd5b60005b828060800190611cce9190613cb9565b9050811015611d7657611d6b611ce26117f3565b848060800190611cf29190613cb9565b84818110611d0357611d02613090565b5b90506040020160200135858060800190611d1d9190613cb9565b85818110611d2e57611d2d613090565b5b9050604002016000016020810190611d469190612f3f565b73ffffffffffffffffffffffffffffffffffffffff16611fcf9092919063ffffffff16565b806001019050611cbe565b505050565b60046020528060005260406000206000915090508060000154908060010160009054906101000a900467ffffffffffffffff1690806002018054611dbe9061305f565b80601f0160208091040260200160405190810160405280929190818152602001828054611dea9061305f565b8015611e375780601f10611e0c57610100808354040283529160200191611e37565b820191906000526020600020905b815481529060010190602001808311611e1a57829003601f168201915b505050505090806003018054611e4c9061305f565b80601f0160208091040260200160405190810160405280929190818152602001828054611e789061305f565b8015611ec55780601f10611e9a57610100808354040283529160200191611ec5565b820191906000526020600020905b815481529060010190602001808311611ea857829003601f168201915b5050505050905084565b611ed7611f09565b611ee081612055565b50565b600260009054906101000a900473ffffffffffffffffffffffffffffffffffffffff1681565b60008054906101000a900473ffffffffffffffffffffffffffffffffffffffff1673ffffffffffffffffffffffffffffffffffffffff163373ffffffffffffffffffffffffffffffffffffffff1614611f97576040517f08c379a0000000000000000000000000000000000000000000000000000000008152600401611f8e90614165565b60405180910390fd5b565b6000611fa88360000183612181565b60001c905092915050565b6000611fc684600001848460001b6121fd565b90509392505050565b6120508363a9059cbb60e01b8484604051602401611fee929190613619565b604051602081830303815290604052907bffffffffffffffffffffffffffffffffffffffffffffffffffffffff19166020820180517bffffffffffffffffffffffffffffffffffffffffffffffffffffffff8381831617835250505050612238565b505050565b3373ffffffffffffffffffffffffffffffffffffffff168173ffffffffffffffffffffffffffffffffffffffff16036120c3576040517f08c379a00000000000000000000000000000000000000000000000000000000081526004016120ba906141d1565b60405180910390fd5b80600160006101000a81548173ffffffffffffffffffffffffffffffffffffffff021916908373ffffffffffffffffffffffffffffffffffffffff1602179055508073ffffffffffffffffffffffffffffffffffffffff1660008054906101000a900473ffffffffffffffffffffffffffffffffffffffff1673ffffffffffffffffffffffffffffffffffffffff167fed8889f560326eb138920d842192f0eb3dd22b4f139c87a2c57538e05bae127860405160405180910390a350565b6000808360020160008481526020019081526020016000205490506000801b811415806121b457506121b384846122ff565b5b6121f3576040517f08c379a00000000000000000000000000000000000000000000000000000000081526004016121ea9061423d565b60405180910390fd5b8091505092915050565b6000818460020160008581526020019081526020016000208190555061222f838560000161231f90919063ffffffff16565b90509392505050565b600061229a826040518060400160405280602081526020017f5361666545524332303a206c6f772d6c6576656c2063616c6c206661696c65648152508573ffffffffffffffffffffffffffffffffffffffff166123369092919063ffffffff16565b90506000815111156122fa57808060200190518101906122ba91906135ec565b6122f9576040517f08c379a00000000000000000000000000000000000000000000000000000000081526004016122f0906142cf565b60405180910390fd5b5b505050565b6000612317828460000161234e90919063ffffffff16565b905092915050565b600061232e8360000183612365565b905092915050565b606061234584846000856123d5565b90509392505050565b600061235d83600001836124a2565b905092915050565b600061237183836124a2565b6123ca5782600001829080600181540180825580915050600190039060005260206000200160009091909190915055826000018054905083600101600084815260200190815260200160002081905550600190506123cf565b600090505b92915050565b60608247101561241a576040517f08c379a000000000000000000000000000000000000000000000000000000000815260040161241190614361565b60405180910390fd5b6000808673ffffffffffffffffffffffffffffffffffffffff16858760405161244391906143bd565b60006040518083038185875af1925050503d8060008114612480576040519150601f19603f3d011682016040523d82523d6000602084013e612485565b606091505b5091509150612496878383876124c5565b92505050949350505050565b600080836001016000848152602001908152602001600020541415905092915050565b6060831561252757600083510361251f576124df8561253a565b61251e576040517f08c379a000000000000000000000000000000000000000000000000000000000815260040161251590614420565b60405180910390fd5b5b829050612532565b612531838361255d565b5b949350505050565b6000808273ffffffffffffffffffffffffffffffffffffffff163b119050919050565b6000825111156125705781518083602001fd5b806040517f08c379a00000000000000000000000000000000000000000000000000000000081526004016125a49190614484565b60405180910390fd5b5080546125b99061305f565b6000825580601f106125cb57506125ea565b601f0160209004906000526020600020908101906125e9919061261d565b5b50565b6040518060400160405280600073ffffffffffffffffffffffffffffffffffffffff168152602001600081525090565b5b8082111561263657600081600090555060010161261e565b5090565b6000604051905090565b600080fd5b600080fd5b60007fffffffff0000000000000000000000000000000000000000000000000000000082169050919050565b6126838161264e565b811461268e57600080fd5b50565b6000813590506126a08161267a565b92915050565b6000602082840312156126bc576126bb612644565b5b60006126ca84828501612691565b91505092915050565b60008115159050919050565b6126e8816126d3565b82525050565b600060208201905061270360008301846126df565b92915050565b6000819050919050565b61271c81612709565b811461272757600080fd5b50565b60008135905061273981612713565b92915050565b600073ffffffffffffffffffffffffffffffffffffffff82169050919050565b600061276a8261273f565b9050919050565b61277a8161275f565b811461278557600080fd5b50565b60008135905061279781612771565b92915050565b600080604083850312156127b4576127b3612644565b5b60006127c28582860161272a565b92505060206127d385828601612788565b9150509250929050565b600067ffffffffffffffff82169050919050565b6127fa816127dd565b811461280557600080fd5b50565b600081359050612817816127f1565b92915050565b60006020828403121561283357612832612644565b5b600061284184828501612808565b91505092915050565b612853816126d3565b811461285e57600080fd5b50565b6000813590506128708161284a565b92915050565b60006020828403121561288c5761288b612644565b5b600061289a84828501612861565b91505092915050565b600080fd5b600080fd5b6000601f19601f8301169050919050565b7f4e487b7100000000000000000000000000000000000000000000000000000000600052604160045260246000fd5b6128f6826128ad565b810181811067ffffffffffffffff82111715612915576129146128be565b5b80604052505050565b600061292861263a565b905061293482826128ed565b919050565b600067ffffffffffffffff821115612954576129536128be565b5b61295d826128ad565b9050602081019050919050565b82818337600083830152505050565b600061298c61298784612939565b61291e565b9050828152602081018484840111156129a8576129a76128a8565b5b6129b384828561296a565b509392505050565b600082601f8301126129d0576129cf6128a3565b5b81356129e0848260208601612979565b91505092915050565b600080600060608486031215612a0257612a01612644565b5b6000612a1086828701612808565b935050602084013567ffffffffffffffff811115612a3157612a30612649565b5b612a3d868287016129bb565b925050604084013567ffffffffffffffff811115612a5e57612a5d612649565b5b612a6a868287016129bb565b9150509250925092565b60008060408385031215612a8b57612a8a612644565b5b6000612a9985828601612808565b925050602083013567ffffffffffffffff811115612aba57612ab9612649565b5b612ac6858286016129bb565b9150509250929050565b600081519050919050565b600082825260208201905092915050565b60005b83811015612b0a578082015181840152602081019050612aef565b60008484015250505050565b6000612b2182612ad0565b612b2b8185612adb565b9350612b3b818560208601612aec565b612b44816128ad565b840191505092915050565b60006020820190508181036000830152612b698184612b16565b905092915050565b600067ffffffffffffffff821115612b8c57612b8b6128be565b5b602082029050602081019050919050565b600080fd5b600080fd5b6000819050919050565b612bba81612ba7565b8114612bc557600080fd5b50565b600081359050612bd781612bb1565b92915050565b600060408284031215612bf357612bf2612ba2565b5b612bfd604061291e565b90506000612c0d84828501612788565b6000830152506020612c2184828501612bc8565b60208301525092915050565b6000612c40612c3b84612b71565b61291e565b90508083825260208201905060408402830185811115612c6357612c62612b9d565b5b835b81811015612c8c5780612c788882612bdd565b845260208401935050604081019050612c65565b5050509392505050565b600082601f830112612cab57612caa6128a3565b5b8135612cbb848260208601612c2d565b91505092915050565b600080600060608486031215612cdd57612cdc612644565b5b6000612ceb86828701612808565b935050602084013567ffffffffffffffff811115612d0c57612d0b612649565b5b612d18868287016129bb565b925050604084013567ffffffffffffffff811115612d3957612d38612649565b5b612d4586828701612c96565b9150509250925092565b60008060008060808587031215612d6957612d68612644565b5b6000612d7787828801612808565b945050602085013567ffffffffffffffff811115612d9857612d97612649565b5b612da4878288016129bb565b935050604085013567ffffffffffffffff811115612dc557612dc4612649565b5b612dd1878288016129bb565b925050606085013567ffffffffffffffff811115612df257612df1612649565b5b612dfe87828801612c96565b91505092959194509250565b600080fd5b600060a08284031215612e2557612e24612e0a565b5b81905092915050565b600060208284031215612e4457612e43612644565b5b600082013567ffffffffffffffff811115612e6257612e61612649565b5b612e6e84828501612e0f565b91505092915050565b612e808161275f565b82525050565b6000602082019050612e9b6000830184612e77565b92915050565b600060208284031215612eb757612eb6612644565b5b6000612ec58482850161272a565b91505092915050565b612ed781612709565b82525050565b612ee6816127dd565b82525050565b6000608082019050612f016000830187612ece565b612f0e6020830186612edd565b8181036040830152612f208185612b16565b90508181036060830152612f348184612b16565b905095945050505050565b600060208284031215612f5557612f54612644565b5b6000612f6384828501612788565b91505092915050565b6000819050919050565b6000612f91612f8c612f878461273f565b612f6c565b61273f565b9050919050565b6000612fa382612f76565b9050919050565b6000612fb582612f98565b9050919050565b612fc581612faa565b82525050565b6000602082019050612fe06000830184612fbc565b92915050565b7f4e487b7100000000000000000000000000000000000000000000000000000000600052602160045260246000fd5b600060208201905061302a6000830184612ece565b92915050565b7f4e487b7100000000000000000000000000000000000000000000000000000000600052602260045260246000fd5b6000600282049050600182168061307757607f821691505b60208210810361308a57613089613030565b5b50919050565b7f4e487b7100000000000000000000000000000000000000000000000000000000600052603260045260246000fd5b60006020820190506130d46000830184612edd565b92915050565b600082825260208201905092915050565b60006130f682612ad0565b61310081856130da565b9350613110818560208601612aec565b613119816128ad565b840191505092915050565b600081519050919050565b600082825260208201905092915050565b6000819050602082019050919050565b6131598161275f565b82525050565b61316881612ba7565b82525050565b6040820160008201516131846000850182613150565b506020820151613197602085018261315f565b50505050565b60006131a9838361316e565b60408301905092915050565b6000602082019050919050565b60006131cd82613124565b6131d7818561312f565b93506131e283613140565b8060005b838110156132135781516131fa888261319d565b9750613205836131b5565b9250506001810190506131e6565b5085935050505092915050565b600060a083016000830151848203600086015261323d82826130eb565b9150506020830151848203602086015261325782826130eb565b9150506040830151848203604086015261327182826131c2565b91505060608301516132866060860182613150565b506080830151848203608086015261329e82826130eb565b9150508091505092915050565b60006040820190506132c06000830185612edd565b81810360208301526132d28184613220565b90509392505050565b6000815190506132ea81612713565b92915050565b60006020828403121561330657613305612644565b5b6000613314848285016132db565b91505092915050565b60008190508160005260206000209050919050565b60006020601f8301049050919050565b600082821b905092915050565b60006008830261337f7fffffffffffffffffffffffffffffffffffffffffffffffffffffffffffffffff82613342565b6133898683613342565b95508019841693508086168417925050509392505050565b60006133bc6133b76133b284612ba7565b612f6c565b612ba7565b9050919050565b6000819050919050565b6133d6836133a1565b6133ea6133e2826133c3565b84845461334f565b825550505050565b600090565b6133ff6133f2565b61340a8184846133cd565b505050565b5b8181101561342e576134236000826133f7565b600181019050613410565b5050565b601f821115613473576134448161331d565b61344d84613332565b8101602085101561345c578190505b61347061346885613332565b83018261340f565b50505b505050565b600082821c905092915050565b600061349660001984600802613478565b1980831691505092915050565b60006134af8383613485565b9150826002028217905092915050565b6134c882612ad0565b67ffffffffffffffff8111156134e1576134e06128be565b5b6134eb825461305f565b6134f6828285613432565b600060209050601f8311600181146135295760008415613517578287015190505b61352185826134a3565b865550613589565b601f1984166135378661331d565b60005b8281101561355f5784890151825560018201915060208501945060208101905061353a565b8683101561357c5784890151613578601f891682613485565b8355505b6001600288020188555050505b505050505050565b61359a81612ba7565b82525050565b60006060820190506135b56000830186612e77565b6135c26020830185612e77565b6135cf6040830184613591565b949350505050565b6000815190506135e68161284a565b92915050565b60006020828403121561360257613601612644565b5b6000613610848285016135d7565b91505092915050565b600060408201905061362e6000830185612e77565b61363b6020830184613591565b9392505050565b600082825260208201905092915050565b7f4d7573742062652070726f706f736564206f776e657200000000000000000000600082015250565b6000613689601683613642565b915061369482613653565b602082019050919050565b600060208201905081810360008301526136b88161367c565b9050919050565b60006136ce602084018461272a565b905092915050565b6136df81612709565b82525050565b60006136f46020840184612808565b905092915050565b613705816127dd565b82525050565b600080fd5b600080fd5b600080fd5b6000808335600160200384360303811261373757613736613715565b5b83810192508235915060208301925067ffffffffffffffff82111561375f5761375e61370b565b5b60018202360383131561377557613774613710565b5b509250929050565b600061378983856130da565b935061379683858461296a565b61379f836128ad565b840190509392505050565b600080833560016020038436030381126137c7576137c6613715565b5b83810192508235915060208301925067ffffffffffffffff8211156137ef576137ee61370b565b5b60408202360383131561380557613804613710565b5b509250929050565b6000819050919050565b60006138266020840184612788565b905092915050565b600061383d6020840184612bc8565b905092915050565b604082016138566000830183613817565b6138636000850182613150565b50613871602083018361382e565b61387e602085018261315f565b50505050565b60006138908383613845565b60408301905092915050565b600082905092915050565b6000604082019050919050565b60006138c0838561312f565b93506138cb8261380d565b8060005b85811015613904576138e1828461389c565b6138eb8882613884565b97506138f6836138a7565b9250506001810190506138cf565b5085925050509392505050565b600060a0830161392460008401846136bf565b61393160008601826136d6565b5061393f60208401846136e5565b61394c60208601826136fc565b5061395a604084018461371a565b858303604087015261396d83828461377d565b9250505061397e606084018461371a565b858303606087015261399183828461377d565b925050506139a260808401846137aa565b85830360808701526139b58382846138b4565b925050508091505092915050565b600060208201905081810360008301526139dd8184613911565b905092915050565b7f4e487b7100000000000000000000000000000000000000000000000000000000600052600060045260246000fd5b60008135613a2181612713565b80915050919050565b60008160001b9050919050565b60007fffffffffffffffffffffffffffffffffffffffffffffffffffffffffffffffff613a6384613a2a565b9350801983169250808416831791505092915050565b6000613a8482612709565b9050919050565b60008160001c9050919050565b6000613aa382613a8b565b9050919050565b613ab382613a79565b613ac6613abf82613a98565b8354613a37565b8255505050565b60008135613ada816127f1565b80915050919050565b600067ffffffffffffffff613af784613a2a565b9350801983169250808416831791505092915050565b6000613b28613b23613b1e846127dd565b612f6c565b6127dd565b9050919050565b6000819050919050565b613b4282613b0d565b613b55613b4e82613b2f565b8354613ae3565b8255505050565b600080fd5b600080fd5b600080fd5b60008083356001602003843603038112613b8857613b87613b5c565b5b80840192508235915067ffffffffffffffff821115613baa57613ba9613b61565b5b602083019250600182023603831315613bc657613bc5613b66565b5b509250929050565b600082905092915050565b613be38383613bce565b67ffffffffffffffff811115613bfc57613bfb6128be565b5b613c06825461305f565b613c11828285613432565b6000601f831160018114613c405760008415613c2e578287013590505b613c3885826134a3565b865550613ca0565b601f198416613c4e8661331d565b60005b82811015613c7657848901358255600182019150602085019450602081019050613c51565b86831015613c935784890135613c8f601f891682613485565b8355505b6001600288020188555050505b50505050505050565b613cb4838383613bd9565b505050565b60008083356001602003843603038112613cd657613cd5613b5c565b5b80840192508235915067ffffffffffffffff821115613cf857613cf7613b61565b5b602083019250604082023603831315613d1457613d13613b66565b5b509250929050565b600081549050919050565b7f4e487b7100000000000000000000000000000000000000000000000000000000600052601160045260246000fd5b6000613d6182612ba7565b9150613d6c83612ba7565b9250828202613d7a81612ba7565b91508282048414831517613d9157613d90613d27565b5b5092915050565b6000819050613da8826002613d56565b9050919050565b60008190508160005260206000209050919050565b600080820155613dd86000600183016133f7565b50565b60008214613dec57613deb6139e5565b5b613df581613dc4565b5050565b5b81811015613e1857613e0d600082613ddb565b600281019050613dfa565b5050565b81831015613e5557613e2d82613d98565b613e3684613d98565b613e3f83613daf565b818101838201613e4f8183613df9565b50505050505b505050565b68010000000000000000821115613e7457613e736128be565b5b613e7d81613d1c565b828255613e8b838284613e1c565b505050565b600082905092915050565b60008135613ea881612771565b80915050919050565b600073ffffffffffffffffffffffffffffffffffffffff613ed184613a2a565b9350801983169250808416831791505092915050565b6000613ef282612f98565b9050919050565b6000819050919050565b613f0c82613ee7565b613f1f613f1882613ef9565b8354613eb1565b8255505050565b60008135613f3381612bb1565b80915050919050565b613f45826133a1565b613f58613f51826133c3565b8354613a37565b8255505050565b600081016000830180613f7181613e9b565b9050613f7d8184613f03565b505050600181016020830180613f9281613f26565b9050613f9e8184613f3c565b5050505050565b613faf8282613f5f565b5050565b613fbd8383613e90565b613fc78183613e5a565b613fd08361380d565b613fd983613daf565b60005b838110156140075782613fef8184613fa5565b60408401935060028301925050600181019050613fdc565b50505050505050565b61401b838383613fb3565b505050565b60008101600083018061403281613a14565b905061403e8184613aaa565b50505060018101602083018061405381613acd565b905061405f8184613b39565b50505060028101604083016140748185613b6b565b61407f818386613ca9565b5050505060038101606083016140958185613b6b565b6140a0818386613ca9565b5050505060048101608083016140b68185613cb9565b6140c1818386614010565b505050505050565b6140d38282614020565b5050565b6000815190506140e681612bb1565b92915050565b60006020828403121561410257614101612644565b5b6000614110848285016140d7565b91505092915050565b7f4f6e6c792063616c6c61626c65206279206f776e657200000000000000000000600082015250565b600061414f601683613642565b915061415a82614119565b602082019050919050565b6000602082019050818103600083015261417e81614142565b9050919050565b7f43616e6e6f74207472616e7366657220746f2073656c66000000000000000000600082015250565b60006141bb601783613642565b91506141c682614185565b602082019050919050565b600060208201905081810360008301526141ea816141ae565b9050919050565b7f456e756d657261626c654d61703a206e6f6e6578697374656e74206b65790000600082015250565b6000614227601e83613642565b9150614232826141f1565b602082019050919050565b600060208201905081810360008301526142568161421a565b9050919050565b7f5361666545524332303a204552433230206f7065726174696f6e20646964206e60008201527f6f74207375636365656400000000000000000000000000000000000000000000602082015250565b60006142b9602a83613642565b91506142c48261425d565b604082019050919050565b600060208201905081810360008301526142e8816142ac565b9050919050565b7f416464726573733a20696e73756666696369656e742062616c616e636520666f60008201527f722063616c6c0000000000000000000000000000000000000000000000000000602082015250565b600061434b602683613642565b9150614356826142ef565b604082019050919050565b6000602082019050818103600083015261437a8161433e565b9050919050565b600081905092915050565b600061439782612ad0565b6143a18185614381565b93506143b1818560208601612aec565b80840191505092915050565b60006143c9828461438c565b915081905092915050565b7f416464726573733a2063616c6c20746f206e6f6e2d636f6e7472616374000000600082015250565b600061440a601d83613642565b9150614415826143d4565b602082019050919050565b60006020820190508181036000830152614439816143fd565b9050919050565b600081519050919050565b600061445682614440565b6144608185613642565b9350614470818560208601612aec565b614479816128ad565b840191505092915050565b6000602082019050818103600083015261449e818461444b565b90509291505056fea164736f6c6343000818000a","linkReferences":{}},"methodIdentifiers":{"acceptOwnership()":"79ba5097","ccipReceive((bytes32,uint64,bytes,bytes,(address,uint256)[]))":"85572ffb","disableChain(uint64)":"41eade46","enableChain(uint64,bytes)":"5dc02a2c","getRouter()":"b0f479a1","owner()":"8da5cb5b","processMessage((bytes32,uint64,bytes,bytes,(address,uint256)[]))":"cf6730f8","retryFailedMessage(bytes32,address)":"369f7f66","s_chains(uint64)":"5dc5ebdb","s_feeToken()":"ff2deec3","s_messageContents(bytes32)":"d0d1fc3d","sendDataAndTokens(uint64,bytes,bytes,(address,uint256)[])":"7383c8fb","sendDataPayFeeToken(uint64,bytes,bytes)":"5d8e7f18","sendDataPayNative(uint64,bytes,bytes)":"c0cb2d08","sendTokens(uint64,bytes,(address,uint256)[])":"686fab79","setSimRevert(bool)":"52f813c3","supportsInterface(bytes4)":"01ffc9a7","transferOwnership(address)":"f2fde38b"},"id":8}