{"abi":[{"type":"constructor","inputs":[{"name":"staticConfig","type":"tuple","internalType":"struct EVM2EVMOffRamp.StaticConfig","components":[{"name":"commitStore","type":"address","internalType":"address"},{"name":"chainSelector","type":"uint64","internalType":"uint64"},{"name":"sourceChainSelector","type":"uint64","internalType":"uint64"},{"name":"onRamp","type":"address","internalType":"address"},{"name":"prevOffRamp","type":"address","internalType":"address"},{"name":"rmnProxy","type":"address","internalType":"address"},{"name":"tokenAdminRegistry","type":"address","internalType":"address"}]},{"name":"rateLimiterConfig","type":"tuple","internalType":"struct RateLimiter.Config","components":[{"name":"isEnabled","type":"bool","internalType":"bool"},{"name":"capacity","type":"uint128","internalType":"uint128"},{"name":"rate","type":"uint128","internalType":"uint128"}]}],"stateMutability":"nonpayable"},{"type":"function","name":"acceptOwnership","inputs":[],"outputs":[],"stateMutability":"nonpayable"},{"type":"function","name":"ccipReceive","inputs":[{"name":"","type":"tuple","internalType":"struct Client.Any2EVMMessage","components":[{"name":"messageId","type":"bytes32","internalType":"bytes32"},{"name":"sourceChainSelector","type":"uint64","internalType":"uint64"},{"name":"sender","type":"bytes","internalType":"bytes"},{"name":"data","type":"bytes","internalType":"bytes"},{"name":"destTokenAmounts","type":"tuple[]","internalType":"struct Client.EVMTokenAmount[]","components":[{"name":"token","type":"address","internalType":"address"},{"name":"amount","type":"uint256","internalType":"uint256"}]}]}],"outputs":[],"stateMutability":"pure"},{"type":"function","name":"currentRateLimiterState","inputs":[],"outputs":[{"name":"","type":"tuple","internalType":"struct RateLimiter.TokenBucket","components":[{"name":"tokens","type":"uint128","internalType":"uint128"},{"name":"lastUpdated","type":"uint32","internalType":"uint32"},{"name":"isEnabled","type":"bool","internalType":"bool"},{"name":"capacity","type":"uint128","internalType":"uint128"},{"name":"rate","type":"uint128","internalType":"uint128"}]}],"stateMutability":"view"},{"type":"function","name":"executeSingleMessage","inputs":[{"name":"message","type":"tuple","internalType":"struct Internal.EVM2EVMMessage","components":[{"name":"sourceChainSelector","type":"uint64","internalType":"uint64"},{"name":"sender","type":"address","internalType":"address"},{"name":"receiver","type":"address","internalType":"address"},{"name":"sequenceNumber","type":"uint64","internalType":"uint64"},{"name":"gasLimit","type":"uint256","internalType":"uint256"},{"name":"strict","type":"bool","internalType":"bool"},{"name":"nonce","type":"uint64","internalType":"uint64"},{"name":"feeToken","type":"address","internalType":"address"},{"name":"feeTokenAmount","type":"uint256","internalType":"uint256"},{"name":"data","type":"bytes","internalType":"bytes"},{"name":"tokenAmounts","type":"tuple[]","internalType":"struct Client.EVMTokenAmount[]","components":[{"name":"token","type":"address","internalType":"address"},{"name":"amount","type":"uint256","internalType":"uint256"}]},{"name":"sourceTokenData","type":"bytes[]","internalType":"bytes[]"},{"name":"messageId","type":"bytes32","internalType":"bytes32"}]},{"name":"offchainTokenData","type":"bytes[]","internalType":"bytes[]"}],"outputs":[],"stateMutability":"nonpayable"},{"type":"function","name":"getAllRateLimitTokens","inputs":[],"outputs":[{"name":"sourceTokens","type":"address[]","internalType":"address[]"},{"name":"destTokens","type":"address[]","internalType":"address[]"}],"stateMutability":"view"},{"type":"function","name":"getDynamicConfig","inputs":[],"outputs":[{"name":"","type":"tuple","internalType":"struct EVM2EVMOffRamp.DynamicConfig","components":[{"name":"permissionLessExecutionThresholdSeconds","type":"uint32","internalType":"uint32"},{"name":"maxDataBytes","type":"uint32","internalType":"uint32"},{"name":"maxNumberOfTokensPerMsg","type":"uint16","internalType":"uint16"},{"name":"router","type":"address","internalType":"address"},{"name":"priceRegistry","type":"address","internalType":"address"},{"name":"maxPoolReleaseOrMintGas","type":"uint32","internalType":"uint32"},{"name":"maxTokenTransferGas","type":"uint32","internalType":"uint32"}]}],"stateMutability":"view"},{"type":"function","name":"getExecutionState","inputs":[{"name":"sequenceNumber","type":"uint64","internalType":"uint64"}],"outputs":[{"name":"","type":"uint8","internalType":"enum Internal.MessageExecutionState"}],"stateMutability":"view"},{"type":"function","name":"getSenderNonce","inputs":[{"name":"sender","type":"address","internalType":"address"}],"outputs":[{"name":"nonce","type":"uint64","internalType":"uint64"}],"stateMutability":"view"},{"type":"function","name":"getStaticConfig","inputs":[],"outputs":[{"name":"","type":"tuple","internalType":"struct EVM2EVMOffRamp.StaticConfig","components":[{"name":"commitStore","type":"address","internalType":"address"},{"name":"chainSelector","type":"uint64","internalType":"uint64"},{"name":"sourceChainSelector","type":"uint64","internalType":"uint64"},{"name":"onRamp","type":"address","internalType":"address"},{"name":"prevOffRamp","type":"address","internalType":"address"},{"name":"rmnProxy","type":"address","internalType":"address"},{"name":"tokenAdminRegistry","type":"address","internalType":"address"}]}],"stateMutability":"view"},{"type":"function","name":"getTokenLimitAdmin","inputs":[],"outputs":[{"name":"","type":"address","internalType":"address"}],"stateMutability":"view"},{"type":"function","name":"getTransmitters","inputs":[],"outputs":[{"name":"","type":"address[]","internalType":"address[]"}],"stateMutability":"view"},{"type":"function","name":"latestConfigDetails","inputs":[],"outputs":[{"name":"configCount","type":"uint32","internalType":"uint32"},{"name":"blockNumber","type":"uint32","internalType":"uint32"},{"name":"configDigest","type":"bytes32","internalType":"bytes32"}],"stateMutability":"view"},{"type":"function","name":"latestConfigDigestAndEpoch","inputs":[],"outputs":[{"name":"scanLogs","type":"bool","internalType":"bool"},{"name":"configDigest","type":"bytes32","internalType":"bytes32"},{"name":"epoch","type":"uint32","internalType":"uint32"}],"stateMutability":"view"},{"type":"function","name":"manuallyExecute","inputs":[{"name":"report","type":"tuple","internalType":"struct Internal.ExecutionReport","components":[{"name":"messages","type":"tuple[]","internalType":"struct Internal.EVM2EVMMessage[]","components":[{"name":"sourceChainSelector","type":"uint64","internalType":"uint64"},{"name":"sender","type":"address","internalType":"address"},{"name":"receiver","type":"address","internalType":"address"},{"name":"sequenceNumber","type":"uint64","internalType":"uint64"},{"name":"gasLimit","type":"uint256","internalType":"uint256"},{"name":"strict","type":"bool","internalType":"bool"},{"name":"nonce","type":"uint64","internalType":"uint64"},{"name":"feeToken","type":"address","internalType":"address"},{"name":"feeTokenAmount","type":"uint256","internalType":"uint256"},{"name":"data","type":"bytes","internalType":"bytes"},{"name":"tokenAmounts","type":"tuple[]","internalType":"struct Client.EVMTokenAmount[]","components":[{"name":"token","type":"address","internalType":"address"},{"name":"amount","type":"uint256","internalType":"uint256"}]},{"name":"sourceTokenData","type":"bytes[]","internalType":"bytes[]"},{"name":"messageId","type":"bytes32","internalType":"bytes32"}]},{"name":"offchainTokenData","type":"bytes[][]","internalType":"bytes[][]"},{"name":"proofs","type":"bytes32[]","internalType":"bytes32[]"},{"name":"proofFlagBits","type":"uint256","internalType":"uint256"}]},{"name":"gasLimitOverrides","type":"uint256[]","internalType":"uint256[]"}],"outputs":[],"stateMutability":"nonpayable"},{"type":"function","name":"owner","inputs":[],"outputs":[{"name":"","type":"address","internalType":"address"}],"stateMutability":"view"},{"type":"function","name":"setAdmin","inputs":[{"name":"newAdmin","type":"address","internalType":"address"}],"outputs":[],"stateMutability":"nonpayable"},{"type":"function","name":"setOCR2Config","inputs":[{"name":"signers","type":"address[]","internalType":"address[]"},{"name":"transmitters","type":"address[]","internalType":"address[]"},{"name":"f","type":"uint8","internalType":"uint8"},{"name":"onchainConfig","type":"bytes","internalType":"bytes"},{"name":"offchainConfigVersion","type":"uint64","internalType":"uint64"},{"name":"offchainConfig","type":"bytes","internalType":"bytes"}],"outputs":[],"stateMutability":"nonpayable"},{"type":"function","name":"setRateLimiterConfig","inputs":[{"name":"config","type":"tuple","internalType":"struct RateLimiter.Config","components":[{"name":"isEnabled","type":"bool","internalType":"bool"},{"name":"capacity","type":"uint128","internalType":"uint128"},{"name":"rate","type":"uint128","internalType":"uint128"}]}],"outputs":[],"stateMutability":"nonpayable"},{"type":"function","name":"transferOwnership","inputs":[{"name":"to","type":"address","internalType":"address"}],"outputs":[],"stateMutability":"nonpayable"},{"type":"function","name":"transmit","inputs":[{"name":"reportContext","type":"bytes32[3]","internalType":"bytes32[3]"},{"name":"report","type":"bytes","internalType":"bytes"},{"name":"rs","type":"bytes32[]","internalType":"bytes32[]"},{"name":"ss","type":"bytes32[]","internalType":"bytes32[]"},{"name":"","type":"bytes32","internalType":"bytes32"}],"outputs":[],"stateMutability":"nonpayable"},{"type":"function","name":"typeAndVersion","inputs":[],"outputs":[{"name":"","type":"string","internalType":"string"}],"stateMutability":"view"},{"type":"function","name":"updateRateLimitTokens","inputs":[{"name":"removes","type":"tuple[]","internalType":"struct EVM2EVMOffRamp.RateLimitToken[]","components":[{"name":"sourceToken","type":"address","internalType":"address"},{"name":"destToken","type":"address","internalType":"address"}]},{"name":"adds","type":"tuple[]","internalType":"struct EVM2EVMOffRamp.RateLimitToken[]","components":[{"name":"sourceToken","type":"address","internalType":"address"},{"name":"destToken","type":"address","internalType":"address"}]}],"outputs":[],"stateMutability":"nonpayable"},{"type":"event","name":"AdminSet","inputs":[{"name":"newAdmin","type":"address","indexed":false,"internalType":"address"}],"anonymous":false},{"type":"event","name":"ConfigChanged","inputs":[{"name":"config","type":"tuple","indexed":false,"internalType":"struct RateLimiter.Config","components":[{"name":"isEnabled","type":"bool","internalType":"bool"},{"name":"capacity","type":"uint128","internalType":"uint128"},{"name":"rate","type":"uint128","internalType":"uint128"}]}],"anonymous":false},{"type":"event","name":"ConfigSet","inputs":[{"name":"previousConfigBlockNumber","type":"uint32","indexed":false,"internalType":"uint32"},{"name":"configDigest","type":"bytes32","indexed":false,"internalType":"bytes32"},{"name":"configCount","type":"uint64","indexed":false,"internalType":"uint64"},{"name":"signers","type":"address[]","indexed":false,"internalType":"address[]"},{"name":"transmitters","type":"address[]","indexed":false,"internalType":"address[]"},{"name":"f","type":"uint8","indexed":false,"internalType":"uint8"},{"name":"onchainConfig","type":"bytes","indexed":false,"internalType":"bytes"},{"name":"offchainConfigVersion","type":"uint64","indexed":false,"internalType":"uint64"},{"name":"offchainConfig","type":"bytes","indexed":false,"internalType":"bytes"}],"anonymous":false},{"type":"event","name":"ConfigSet","inputs":[{"name":"staticConfig","type":"tuple","indexed":false,"internalType":"struct EVM2EVMOffRamp.StaticConfig","components":[{"name":"commitStore","type":"address","internalType":"address"},{"name":"chainSelector","type":"uint64","internalType":"uint64"},{"name":"sourceChainSelector","type":"uint64","internalType":"uint64"},{"name":"onRamp","type":"address","internalType":"address"},{"name":"prevOffRamp","type":"address","internalType":"address"},{"name":"rmnProxy","type":"address","internalType":"address"},{"name":"tokenAdminRegistry","type":"address","internalType":"address"}]},{"name":"dynamicConfig","type":"tuple","indexed":false,"internalType":"struct EVM2EVMOffRamp.DynamicConfig","components":[{"name":"permissionLessExecutionThresholdSeconds","type":"uint32","internalType":"uint32"},{"name":"maxDataBytes","type":"uint32","internalType":"uint32"},{"name":"maxNumberOfTokensPerMsg","type":"uint16","internalType":"uint16"},{"name":"router","type":"address","internalType":"address"},{"name":"priceRegistry","type":"address","internalType":"address"},{"name":"maxPoolReleaseOrMintGas","type":"uint32","internalType":"uint32"},{"name":"maxTokenTransferGas","type":"uint32","internalType":"uint32"}]}],"anonymous":false},{"type":"event","name":"ExecutionStateChanged","inputs":[{"name":"sequenceNumber","type":"uint64","indexed":true,"internalType":"uint64"},{"name":"messageId","type":"bytes32","indexed":true,"internalType":"bytes32"},{"name":"state","type":"uint8","indexed":false,"internalType":"enum Internal.MessageExecutionState"},{"name":"returnData","type":"bytes","indexed":false,"internalType":"bytes"}],"anonymous":false},{"type":"event","name":"OwnershipTransferRequested","inputs":[{"name":"from","type":"address","indexed":true,"internalType":"address"},{"name":"to","type":"address","indexed":true,"internalType":"address"}],"anonymous":false},{"type":"event","name":"OwnershipTransferred","inputs":[{"name":"from","type":"address","indexed":true,"internalType":"address"},{"name":"to","type":"address","indexed":true,"internalType":"address"}],"anonymous":false},{"type":"event","name":"SkippedAlreadyExecutedMessage","inputs":[{"name":"sequenceNumber","type":"uint64","indexed":true,"internalType":"uint64"}],"anonymous":false},{"type":"event","name":"SkippedIncorrectNonce","inputs":[{"name":"nonce","type":"uint64","indexed":true,"internalType":"uint64"},{"name":"sender","type":"address","indexed":true,"internalType":"address"}],"anonymous":false},{"type":"event","name":"SkippedSenderWithPreviousRampMessageInflight","inputs":[{"name":"nonce","type":"uint64","indexed":true,"internalType":"uint64"},{"name":"sender","type":"address","indexed":true,"internalType":"address"}],"anonymous":false},{"type":"event","name":"TokenAggregateRateLimitAdded","inputs":[{"name":"sourceToken","type":"address","indexed":false,"internalType":"address"},{"name":"destToken","type":"address","indexed":false,"internalType":"address"}],"anonymous":false},{"type":"event","name":"TokenAggregateRateLimitRemoved","inputs":[{"name":"sourceToken","type":"address","indexed":false,"internalType":"address"},{"name":"destToken","type":"address","indexed":false,"internalType":"address"}],"anonymous":false},{"type":"event","name":"TokensConsumed","inputs":[{"name":"tokens","type":"uint256","indexed":false,"internalType":"uint256"}],"anonymous":false},{"type":"event","name":"Transmitted","inputs":[{"name":"configDigest","type":"bytes32","indexed":false,"internalType":"bytes32"},{"name":"epoch","type":"uint32","indexed":false,"internalType":"uint32"}],"anonymous":false},{"type":"error","name":"AggregateValueMaxCapacityExceeded","inputs":[{"name":"capacity","type":"uint256","internalType":"uint256"},{"name":"requested","type":"uint256","internalType":"uint256"}]},{"type":"error","name":"AggregateValueRateLimitReached","inputs":[{"name":"minWaitInSeconds","type":"uint256","internalType":"uint256"},{"name":"available","type":"uint256","internalType":"uint256"}]},{"type":"error","name":"AlreadyAttempted","inputs":[{"name":"sequenceNumber","type":"uint64","internalType":"uint64"}]},{"type":"error","name":"AlreadyExecuted","inputs":[{"name":"sequenceNumber","type":"uint64","internalType":"uint64"}]},{"type":"error","name":"BucketOverfilled","inputs":[]},{"type":"error","name":"CanOnlySelfCall","inputs":[]},{"type":"error","name":"CommitStoreAlreadyInUse","inputs":[]},{"type":"error","name":"ConfigDigestMismatch","inputs":[{"name":"expected","type":"bytes32","internalType":"bytes32"},{"name":"actual","type":"bytes32","internalType":"bytes32"}]},{"type":"error","name":"CursedByRMN","inputs":[]},{"type":"error","name":"EmptyReport","inputs":[]},{"type":"error","name":"ExecutionError","inputs":[{"name":"error","type":"bytes","internalType":"bytes"}]},{"type":"error","name":"ForkedChain","inputs":[{"name":"expected","type":"uint256","internalType":"uint256"},{"name":"actual","type":"uint256","internalType":"uint256"}]},{"type":"error","name":"InvalidConfig","inputs":[{"name":"errorType","type":"uint8","internalType":"enum OCR2BaseNoChecks.InvalidConfigErrorType"}]},{"type":"error","name":"InvalidDataLength","inputs":[{"name":"expected","type":"uint256","internalType":"uint256"},{"name":"got","type":"uint256","internalType":"uint256"}]},{"type":"error","name":"InvalidEVMAddress","inputs":[{"name":"encodedAddress","type":"bytes","internalType":"bytes"}]},{"type":"error","name":"InvalidManualExecutionGasLimit","inputs":[{"name":"index","type":"uint256","internalType":"uint256"},{"name":"newLimit","type":"uint256","internalType":"uint256"}]},{"type":"error","name":"InvalidMessageId","inputs":[]},{"type":"error","name":"InvalidNewState","inputs":[{"name":"sequenceNumber","type":"uint64","internalType":"uint64"},{"name":"newState","type":"uint8","internalType":"enum Internal.MessageExecutionState"}]},{"type":"error","name":"InvalidSourceChain","inputs":[{"name":"sourceChainSelector","type":"uint64","internalType":"uint64"}]},{"type":"error","name":"ManualExecutionGasLimitMismatch","inputs":[]},{"type":"error","name":"ManualExecutionNotYetEnabled","inputs":[]},{"type":"error","name":"MessageTooLarge","inputs":[{"name":"maxSize","type":"uint256","internalType":"uint256"},{"name":"actualSize","type":"uint256","internalType":"uint256"}]},{"type":"error","name":"NotACompatiblePool","inputs":[{"name":"notPool","type":"address","internalType":"address"}]},{"type":"error","name":"OnlyCallableByAdminOrOwner","inputs":[]},{"type":"error","name":"OracleCannotBeZeroAddress","inputs":[]},{"type":"error","name":"PriceNotFoundForToken","inputs":[{"name":"token","type":"address","internalType":"address"}]},{"type":"error","name":"ReceiverError","inputs":[{"name":"error","type":"bytes","internalType":"bytes"}]},{"type":"error","name":"RootNotCommitted","inputs":[]},{"type":"error","name":"TokenDataMismatch","inputs":[{"name":"sequenceNumber","type":"uint64","internalType":"uint64"}]},{"type":"error","name":"TokenHandlingError","inputs":[{"name":"error","type":"bytes","internalType":"bytes"}]},{"type":"error","name":"TokenMaxCapacityExceeded","inputs":[{"name":"capacity","type":"uint256","internalType":"uint256"},{"name":"requested","type":"uint256","internalType":"uint256"},{"name":"tokenAddress","type":"address","internalType":"address"}]},{"type":"error","name":"TokenRateLimitReached","inputs":[{"name":"minWaitInSeconds","type":"uint256","internalType":"uint256"},{"name":"available","type":"uint256","internalType":"uint256"},{"name":"tokenAddress","type":"address","internalType":"address"}]},{"type":"error","name":"UnauthorizedTransmitter","inputs":[]},{"type":"error","name":"UnexpectedTokenData","inputs":[]},{"type":"error","name":"UnsupportedNumberOfTokens","inputs":[{"name":"sequenceNumber","type":"uint64","internalType":"uint64"}]},{"type":"error","name":"WrongMessageLength","inputs":[{"name":"expected","type":"uint256","internalType":"uint256"},{"name":"actual","type":"uint256","internalType":"uint256"}]},{"type":"error","name":"ZeroAddressNotAllowed","inputs":[]}],"bytecode":{"object":"0x6101a06040523480156200001257600080fd5b5060405162008e7538038062008e75833981810160405281019062000038919062000a7b565b80338060008073ffffffffffffffffffffffffffffffffffffffff168273ffffffffffffffffffffffffffffffffffffffff1603620000ae576040517f08c379a0000000000000000000000000000000000000000000000000000000008152600401620000a59062000b24565b60405180910390fd5b816000806101000a81548173ffffffffffffffffffffffffffffffffffffffff021916908373ffffffffffffffffffffffffffffffffffffffff160217905550600073ffffffffffffffffffffffffffffffffffffffff168173ffffffffffffffffffffffffffffffffffffffff161462000135576200013481620005fa60201b60201c565b5b5050506040518060a0016040528082602001516fffffffffffffffffffffffffffffffff1681526020014263ffffffff16815260200182600001511515815260200182602001516fffffffffffffffffffffffffffffffff16815260200182604001516fffffffffffffffffffffffffffffffff16815250600360008201518160000160006101000a8154816fffffffffffffffffffffffffffffffff02191690836fffffffffffffffffffffffffffffffff16021790555060208201518160000160106101000a81548163ffffffff021916908363ffffffff16021790555060408201518160000160146101000a81548160ff02191690831515021790555060608201518160010160006101000a8154816fffffffffffffffffffffffffffffffff02191690836fffffffffffffffffffffffffffffffff16021790555060808201518160010160106101000a8154816fffffffffffffffffffffffffffffffff02191690836fffffffffffffffffffffffffffffffff160217905550905050504660808181525050600073ffffffffffffffffffffffffffffffffffffffff16826060015173ffffffffffffffffffffffffffffffffffffffff1614806200032f5750600073ffffffffffffffffffffffffffffffffffffffff16826000015173ffffffffffffffffffffffffffffffffffffffff16145b806200036b5750600073ffffffffffffffffffffffffffffffffffffffff168260c0015173ffffffffffffffffffffffffffffffffffffffff16145b15620003a3576040517f8579befe00000000000000000000000000000000000000000000000000000000815260040160405180910390fd5b6001826000015173ffffffffffffffffffffffffffffffffffffffff16634120fccd6040518163ffffffff1660e01b8152600401602060405180830381865afa158015620003f5573d6000803e3d6000fd5b505050506040513d601f19601f820116820180604052508101906200041b919062000b46565b67ffffffffffffffff16146200045d576040517fdf85440e00000000000000000000000000000000000000000000000000000000815260040160405180910390fd5b816000015173ffffffffffffffffffffffffffffffffffffffff1660a08173ffffffffffffffffffffffffffffffffffffffff1681525050816040015167ffffffffffffffff1660c08167ffffffffffffffff1681525050816020015167ffffffffffffffff1660e08167ffffffffffffffff1681525050816060015173ffffffffffffffffffffffffffffffffffffffff166101008173ffffffffffffffffffffffffffffffffffffffff1681525050816080015173ffffffffffffffffffffffffffffffffffffffff166101408173ffffffffffffffffffffffffffffffffffffffff16815250508160a0015173ffffffffffffffffffffffffffffffffffffffff166101608173ffffffffffffffffffffffffffffffffffffffff16815250508160c0015173ffffffffffffffffffffffffffffffffffffffff166101808173ffffffffffffffffffffffffffffffffffffffff1681525050620005ea7f8acd72527118c8324937b1a42e02cd246697c3b633f1742f3cae11de233722b36200072960201b60201c565b6101208181525050505062000c74565b3373ffffffffffffffffffffffffffffffffffffffff168173ffffffffffffffffffffffffffffffffffffffff16036200066b576040517f08c379a0000000000000000000000000000000000000000000000000000000008152600401620006629062000bc8565b60405180910390fd5b80600160006101000a81548173ffffffffffffffffffffffffffffffffffffffff021916908373ffffffffffffffffffffffffffffffffffffffff1602179055508073ffffffffffffffffffffffffffffffffffffffff1660008054906101000a900473ffffffffffffffffffffffffffffffffffffffff1673ffffffffffffffffffffffffffffffffffffffff167fed8889f560326eb138920d842192f0eb3dd22b4f139c87a2c57538e05bae127860405160405180910390a350565b60008160c05160e051610100516040516020016200074b949392919062000c27565b604051602081830303815290604052805190602001209050919050565b6000604051905090565b600080fd5b600080fd5b6000601f19601f8301169050919050565b7f4e487b7100000000000000000000000000000000000000000000000000000000600052604160045260246000fd5b620007c7826200077c565b810181811067ffffffffffffffff82111715620007e957620007e86200078d565b5b80604052505050565b6000620007fe62000768565b90506200080c8282620007bc565b919050565b600073ffffffffffffffffffffffffffffffffffffffff82169050919050565b60006200083e8262000811565b9050919050565b620008508162000831565b81146200085c57600080fd5b50565b600081519050620008708162000845565b92915050565b600067ffffffffffffffff82169050919050565b620008958162000876565b8114620008a157600080fd5b50565b600081519050620008b5816200088a565b92915050565b600060e08284031215620008d457620008d362000777565b5b620008e060e0620007f2565b90506000620008f2848285016200085f565b60008301525060206200090884828501620008a4565b60208301525060406200091e84828501620008a4565b604083015250606062000934848285016200085f565b60608301525060806200094a848285016200085f565b60808301525060a062000960848285016200085f565b60a08301525060c062000976848285016200085f565b60c08301525092915050565b60008115159050919050565b620009998162000982565b8114620009a557600080fd5b50565b600081519050620009b9816200098e565b92915050565b60006fffffffffffffffffffffffffffffffff82169050919050565b620009e681620009bf565b8114620009f257600080fd5b50565b60008151905062000a0681620009db565b92915050565b60006060828403121562000a255762000a2462000777565b5b62000a316060620007f2565b9050600062000a4384828501620009a8565b600083015250602062000a5984828501620009f5565b602083015250604062000a6f84828501620009f5565b60408301525092915050565b600080610140838503121562000a965762000a9562000772565b5b600062000aa685828601620008bb565b92505060e062000ab98582860162000a0c565b9150509250929050565b600082825260208201905092915050565b7f43616e6e6f7420736574206f776e657220746f207a65726f0000000000000000600082015250565b600062000b0c60188362000ac3565b915062000b198262000ad4565b602082019050919050565b6000602082019050818103600083015262000b3f8162000afd565b9050919050565b60006020828403121562000b5f5762000b5e62000772565b5b600062000b6f84828501620008a4565b91505092915050565b7f43616e6e6f74207472616e7366657220746f2073656c66000000000000000000600082015250565b600062000bb060178362000ac3565b915062000bbd8262000b78565b602082019050919050565b6000602082019050818103600083015262000be38162000ba1565b9050919050565b6000819050919050565b62000bff8162000bea565b82525050565b62000c108162000876565b82525050565b62000c218162000831565b82525050565b600060808201905062000c3e600083018762000bf4565b62000c4d602083018662000c05565b62000c5c604083018562000c05565b62000c6b606083018462000c16565b95945050505050565b60805160a05160c05160e051610100516101205161014051610160516101805161811262000d6360003960008181610543015281816122290152613eed015260008181610507015281816121ed01526124690152600081816104cb0152818161133601528181611375015281816121b101528181612b390152612b780152600061266701526000818161048f015261217501526000818161042f015261211501526000818161045f01528181612145015281816124a5015281816138a601526140530152600081816103f3015281816120d901526127130152600081816123e2015261240801526181126000f3fe608060405234801561001057600080fd5b50600436106101425760003560e01c806381ff7048116100b8578063afcb95d71161007c578063afcb95d71461032f578063b1dc65a41461034f578063c92b28321461036b578063f077b59214610387578063f2fde38b146103a6578063f52121a5146103c257610142565b806381ff70481461028957806385572ffb146102a9578063856c8247146102c5578063873504d7146102f55780638da5cb5b1461031157610142565b8063599f64311161010a578063599f6431146101ed578063666cab8d1461020b578063704b6c0214610229578063740f4150146102455780637437ff9f1461026157806379ba50971461027f57610142565b806306285c6914610147578063142a98fc14610165578063181f5a77146101955780631ef38174146101b3578063546719cd146101cf575b600080fd5b61014f6103de565b60405161015c9190615313565b60405180910390f35b61017f600480360381019061017a919061536e565b610580565b60405161018c9190615412565b60405180910390f35b61019d610607565b6040516101aa91906154bd565b60405180910390f35b6101cd60048036038101906101c89190615741565b610640565b005b6101d7610b16565b6040516101e4919061590b565b60405180910390f35b6101f5610c57565b6040516102029190615935565b60405180910390f35b610213610c81565b60405161022091906159ff565b60405180910390f35b610243600480360381019061023e9190615a21565b610d0f565b005b61025f600480360381019061025a9190616284565b610e52565b005b610269610f5a565b60405161027691906163a7565b60405180910390f35b6102876110d8565b005b61029161126d565b6040516102a0939291906163e0565b60405180910390f35b6102c360048036038101906102be919061643b565b6112a9565b005b6102df60048036038101906102da9190615a21565b6112ae565b6040516102ec9190616493565b60405180910390f35b61030f600480360381019061030a91906165c1565b61141f565b005b6103196115d5565b6040516103269190615935565b60405180910390f35b6103376115fe565b60405161034693929190616648565b60405180910390f35b61036960048036038101906103649190616752565b611616565b005b610385600480360381019061038091906168be565b611919565b005b61038f6119f8565b60405161039d9291906168eb565b60405180910390f35b6103c060048036038101906103bb9190615a21565b611b74565b005b6103dc60048036038101906103d79190616922565b611b88565b005b6103e6614f5d565b6040518060e001604052807f000000000000000000000000000000000000000000000000000000000000000073ffffffffffffffffffffffffffffffffffffffff1681526020017f000000000000000000000000000000000000000000000000000000000000000067ffffffffffffffff1681526020017f000000000000000000000000000000000000000000000000000000000000000067ffffffffffffffff1681526020017f000000000000000000000000000000000000000000000000000000000000000073ffffffffffffffffffffffffffffffffffffffff1681526020017f000000000000000000000000000000000000000000000000000000000000000073ffffffffffffffffffffffffffffffffffffffff1681526020017f000000000000000000000000000000000000000000000000000000000000000073ffffffffffffffffffffffffffffffffffffffff1681526020017f000000000000000000000000000000000000000000000000000000000000000073ffffffffffffffffffffffffffffffffffffffff16815250905090565b6000600160026001901b61059491906169c9565b60026080846105a39190616a2c565b67ffffffffffffffff166105b79190616a5d565b601060006080866105c89190616a9f565b67ffffffffffffffff1667ffffffffffffffff16815260200190815260200160002054901c166003811115610600576105ff61539b565b5b9050919050565b6040518060400160405280601881526020017f45564d3245564d4f666652616d7020312e352e302d646576000000000000000081525081565b84518460ff16601f82111561068d5760016040517f367f56a20000000000000000000000000000000000000000000000000000000081526004016106849190616b18565b60405180910390fd5b600081036106d35760006040517f367f56a20000000000000000000000000000000000000000000000000000000081526004016106ca9190616b18565b60405180910390fd5b6106db611e46565b6106e485611ed6565b6000600980549050905060005b818110156107ac57600860006009838154811061071157610710616b33565b5b9060005260206000200160009054906101000a900473ffffffffffffffffffffffffffffffffffffffff1673ffffffffffffffffffffffffffffffffffffffff1673ffffffffffffffffffffffffffffffffffffffff168152602001908152602001600020600080820160006101000a81549060ff02191690556000820160016101000a81549060ff021916905550508060010190506106f1565b505060008751905060005b818110156109c65760008982815181106107d4576107d3616b33565b5b60200260200101519050600060028111156107f2576107f161539b565b5b600860008373ffffffffffffffffffffffffffffffffffffffff1673ffffffffffffffffffffffffffffffffffffffff16815260200190815260200160002060000160019054906101000a900460ff1660028111156108545761085361539b565b5b146108975760026040517f367f56a200000000000000000000000000000000000000000000000000000000815260040161088e9190616b18565b60405180910390fd5b600073ffffffffffffffffffffffffffffffffffffffff168173ffffffffffffffffffffffffffffffffffffffff16036108fd576040517fd6c62c9b00000000000000000000000000000000000000000000000000000000815260040160405180910390fd5b60405180604001604052808360ff1681526020016002808111156109245761092361539b565b5b815250600860008373ffffffffffffffffffffffffffffffffffffffff1673ffffffffffffffffffffffffffffffffffffffff16815260200190815260200160002060008201518160000160006101000a81548160ff021916908360ff16021790555060208201518160000160016101000a81548160ff021916908360028111156109b2576109b161539b565b5b0217905550905050508060010190506107b7565b5087600990805190602001906109dd92919061501c565b5086600560010160006101000a81548160ff021916908360ff16021790555080600560010160016101000a81548160ff021916908360ff160217905550610a6b46306007600081819054906101000a900463ffffffff16610a3d90616b62565b91906101000a81548163ffffffff021916908363ffffffff160217905563ffffffff168c8c8c8c8c8c61227c565b6005600001819055506000600760049054906101000a900463ffffffff16905043600760046101000a81548163ffffffff021916908363ffffffff1602179055507f1591690b8638f5fb2dbec82ac741805ac5da8b45dc5263f4875b0496fdce4e0581600560000154600760009054906101000a900463ffffffff168d8d8d8d8d8d604051610b0299989796959493929190616c2d565b60405180910390a150505050505050505050565b610b1e6150a6565b610c5260036040518060a00160405290816000820160009054906101000a90046fffffffffffffffffffffffffffffffff166fffffffffffffffffffffffffffffffff166fffffffffffffffffffffffffffffffff1681526020016000820160109054906101000a900463ffffffff1663ffffffff1663ffffffff1681526020016000820160149054906101000a900460ff161515151581526020016001820160009054906101000a90046fffffffffffffffffffffffffffffffff166fffffffffffffffffffffffffffffffff166fffffffffffffffffffffffffffffffff1681526020016001820160109054906101000a90046fffffffffffffffffffffffffffffffff166fffffffffffffffffffffffffffffffff166fffffffffffffffffffffffffffffffff1681525050612325565b905090565b6000600260009054906101000a900473ffffffffffffffffffffffffffffffffffffffff16905090565b60606009805480602002602001604051908101604052809291908181526020018280548015610d0557602002820191906000526020600020905b8160009054906101000a900473ffffffffffffffffffffffffffffffffffffffff1673ffffffffffffffffffffffffffffffffffffffff1681526020019060010190808311610cbb575b5050505050905090565b610d176115d5565b73ffffffffffffffffffffffffffffffffffffffff163373ffffffffffffffffffffffffffffffffffffffff1614158015610da05750600260009054906101000a900473ffffffffffffffffffffffffffffffffffffffff1673ffffffffffffffffffffffffffffffffffffffff163373ffffffffffffffffffffffffffffffffffffffff1614155b15610dd7576040517ff6cd562000000000000000000000000000000000000000000000000000000000815260040160405180910390fd5b80600260006101000a81548173ffffffffffffffffffffffffffffffffffffffff021916908373ffffffffffffffffffffffffffffffffffffffff1602179055507f8fe72c3e0020beb3234e76ae6676fa576fbfcae600af1c4fea44784cf0db329c81604051610e479190615935565b60405180910390a150565b610e5a6123df565b6000826000015151905081518114610e9e576040517f83e3f56400000000000000000000000000000000000000000000000000000000815260040160405180910390fd5b60005b81811015610f4a576000838281518110610ebe57610ebd616b33565b5b6020026020010151905060008114158015610efa575084600001518281518110610eeb57610eea616b33565b5b60200260200101516080015181105b15610f3e5781816040517f085e39cf000000000000000000000000000000000000000000000000000000008152600401610f35929190616ce5565b60405180910390fd5b50806001019050610ea1565b50610f558383612467565b505050565b610f62615113565b600a6040518060e00160405290816000820160009054906101000a900463ffffffff1663ffffffff1663ffffffff1681526020016000820160049054906101000a900463ffffffff1663ffffffff1663ffffffff1681526020016000820160089054906101000a900461ffff1661ffff1661ffff16815260200160008201600a9054906101000a900473ffffffffffffffffffffffffffffffffffffffff1673ffffffffffffffffffffffffffffffffffffffff1673ffffffffffffffffffffffffffffffffffffffff1681526020016001820160009054906101000a900473ffffffffffffffffffffffffffffffffffffffff1673ffffffffffffffffffffffffffffffffffffffff1673ffffffffffffffffffffffffffffffffffffffff1681526020016001820160149054906101000a900463ffffffff1663ffffffff1663ffffffff1681526020016001820160189054906101000a900463ffffffff1663ffffffff1663ffffffff1681525050905090565b600160009054906101000a900473ffffffffffffffffffffffffffffffffffffffff1673ffffffffffffffffffffffffffffffffffffffff163373ffffffffffffffffffffffffffffffffffffffff1614611168576040517f08c379a000000000000000000000000000000000000000000000000000000000815260040161115f90616d5a565b60405180910390fd5b60008060009054906101000a900473ffffffffffffffffffffffffffffffffffffffff169050336000806101000a81548173ffffffffffffffffffffffffffffffffffffffff021916908373ffffffffffffffffffffffffffffffffffffffff1602179055506000600160006101000a81548173ffffffffffffffffffffffffffffffffffffffff021916908373ffffffffffffffffffffffffffffffffffffffff1602179055503373ffffffffffffffffffffffffffffffffffffffff168173ffffffffffffffffffffffffffffffffffffffff167f8be0079c531659141344cd1fd0a4f28419497f9722a3daafe3b4186f6b6457e060405160405180910390a350565b6000806000600760009054906101000a900463ffffffff16600760049054906101000a900463ffffffff16600560000154925092509250909192565b600080fd5b600080600f60008473ffffffffffffffffffffffffffffffffffffffff1673ffffffffffffffffffffffffffffffffffffffff16815260200190815260200160002060009054906101000a900467ffffffffffffffff1667ffffffffffffffff16905060008114801561136e5750600073ffffffffffffffffffffffffffffffffffffffff167f000000000000000000000000000000000000000000000000000000000000000073ffffffffffffffffffffffffffffffffffffffff1614155b15611415577f000000000000000000000000000000000000000000000000000000000000000073ffffffffffffffffffffffffffffffffffffffff1663856c8247846040518263ffffffff1660e01b81526004016113cc9190615935565b602060405180830381865afa1580156113e9573d6000803e3d6000fd5b505050506040513d601f19601f8201168201806040525081019061140d9190616d8f565b91505061141a565b809150505b919050565b611427611e46565b60005b82518110156114eb5761146583828151811061144957611448616b33565b5b602002602001015160200151600c6130b790919063ffffffff16565b156114e0577fcbf3cbeaed4ac1d605ed30f4af06c35acaeff2379db7f6146c9cceee83d5878283828151811061149e5761149d616b33565b5b6020026020010151600001518483815181106114bd576114bc616b33565b5b6020026020010151602001516040516114d7929190616dbc565b60405180910390a15b80600101905061142a565b5060005b81518110156115d05761154a82828151811061150e5761150d616b33565b5b60200260200101516020015183838151811061152d5761152c616b33565b5b602002602001015160000151600c6130ed9092919063ffffffff16565b156115c5577ffc23abf7ddbd3c02b1420dafa2355c56c1a06fbb8723862ac14d6bd74177361a82828151811061158357611582616b33565b5b6020026020010151600001518383815181106115a2576115a1616b33565b5b6020026020010151602001516040516115bc929190616dbc565b60405180910390a15b8060010190506114ef565b505050565b60008060009054906101000a900473ffffffffffffffffffffffffffffffffffffffff16905090565b600080600060016000801b6000925092509250909192565b6116208787613126565b60008860006003811061163657611635616b33565b5b602002013590506000600560000154905081811461168d5780826040517f93df584c000000000000000000000000000000000000000000000000000000008152600401611684929190616de5565b60405180910390fd5b6116956123df565b7fb04e63db38c49950639fa09d29872f21f5d49d614f3a969d8adf3d4b52e41a628260088c6001600381106116cd576116cc616b33565b5b602002013560001c901c6040516116e5929190616e0e565b60405180910390a16000600860003373ffffffffffffffffffffffffffffffffffffffff1673ffffffffffffffffffffffffffffffffffffffff1681526020019081526020016000206040518060400160405290816000820160009054906101000a900460ff1660ff1660ff1681526020016000820160019054906101000a900460ff16600281111561177b5761177a61539b565b5b600281111561178d5761178c61539b565b5b8152505090506002808111156117a6576117a561539b565b5b816020015160028111156117bd576117bc61539b565b5b14801561183a57506009816000015160ff16815481106117e0576117df616b33565b5b9060005260206000200160009054906101000a900473ffffffffffffffffffffffffffffffffffffffff1673ffffffffffffffffffffffffffffffffffffffff163373ffffffffffffffffffffffffffffffffffffffff16145b611870576040517fda0f08e800000000000000000000000000000000000000000000000000000000815260040160405180910390fd5b5060006020868690506118839190616a5d565b6020898990506118939190616a5d565b8b8b905061014461ffff166118a89190616e37565b6118b29190616e37565b6118bc9190616e37565b90508060003690501461190c578060003690506040517f8e1192e1000000000000000000000000000000000000000000000000000000008152600401611903929190616ce5565b60405180910390fd5b5050505050505050505050565b6119216115d5565b73ffffffffffffffffffffffffffffffffffffffff163373ffffffffffffffffffffffffffffffffffffffff16141580156119aa5750600260009054906101000a900473ffffffffffffffffffffffffffffffffffffffff1673ffffffffffffffffffffffffffffffffffffffff163373ffffffffffffffffffffffffffffffffffffffff1614155b156119e1576040517ff6cd562000000000000000000000000000000000000000000000000000000000815260040160405180910390fd5b6119f581600361318b90919063ffffffff16565b50565b6060806000611a07600c613423565b90508067ffffffffffffffff811115611a2357611a226154e4565b5b604051908082528060200260200182016040528015611a515781602001602082028036833780820191505090505b5092508067ffffffffffffffff811115611a6e57611a6d6154e4565b5b604051908082528060200260200182016040528015611a9c5781602001602082028036833780820191505090505b50915060005b81811015611b6e57600080611ac183600c61343890919063ffffffff16565b9150915080868481518110611ad957611ad8616b33565b5b602002602001019073ffffffffffffffffffffffffffffffffffffffff16908173ffffffffffffffffffffffffffffffffffffffff168152505081858481518110611b2757611b26616b33565b5b602002602001019073ffffffffffffffffffffffffffffffffffffffff16908173ffffffffffffffffffffffffffffffffffffffff16815250505050806001019050611aa2565b50509091565b611b7c611e46565b611b8581613467565b50565b3073ffffffffffffffffffffffffffffffffffffffff163373ffffffffffffffffffffffffffffffffffffffff1614611bed576040517f371a732800000000000000000000000000000000000000000000000000000000815260040160405180910390fd5b60008067ffffffffffffffff811115611c0957611c086154e4565b5b604051908082528060200260200182016040528015611c4257816020015b611c2f615198565b815260200190600190039081611c275790505b5090506000836101400151511115611c9557611c928361014001518460200151604051602001611c729190615935565b604051602081830303815290604052856040015186610160015186613593565b90505b600083610120015151148015611caf575060008360800151145b80611cd557506000836040015173ffffffffffffffffffffffffffffffffffffffff163b145b80611d2a5750611d287f85572ffb00000000000000000000000000000000000000000000000000000000846040015173ffffffffffffffffffffffffffffffffffffffff166136ec90919063ffffffff16565b155b15611d355750611e42565b600080600a600001600a9054906101000a900473ffffffffffffffffffffffffffffffffffffffff1673ffffffffffffffffffffffffffffffffffffffff16633cf97983611d838786613711565b611388886080015189604001516040518563ffffffff1660e01b8152600401611daf9493929190617044565b6000604051808303816000875af1158015611dce573d6000803e3d6000fd5b505050506040513d6000823e3d601f19601f82011682018060405250810190611df7919061712a565b509150915081611e3e57806040517f0a8d6e8c000000000000000000000000000000000000000000000000000000008152600401611e359190617199565b60405180910390fd5b5050505b5050565b60008054906101000a900473ffffffffffffffffffffffffffffffffffffffff1673ffffffffffffffffffffffffffffffffffffffff163373ffffffffffffffffffffffffffffffffffffffff1614611ed4576040517f08c379a0000000000000000000000000000000000000000000000000000000008152600401611ecb90617207565b60405180910390fd5b565b600081806020019051810190611eec9190617348565b9050600073ffffffffffffffffffffffffffffffffffffffff16816060015173ffffffffffffffffffffffffffffffffffffffff1603611f58576040517f8579befe00000000000000000000000000000000000000000000000000000000815260040160405180910390fd5b80600a60008201518160000160006101000a81548163ffffffff021916908363ffffffff16021790555060208201518160000160046101000a81548163ffffffff021916908363ffffffff16021790555060408201518160000160086101000a81548161ffff021916908361ffff160217905550606082015181600001600a6101000a81548173ffffffffffffffffffffffffffffffffffffffff021916908373ffffffffffffffffffffffffffffffffffffffff16021790555060808201518160010160006101000a81548173ffffffffffffffffffffffffffffffffffffffff021916908373ffffffffffffffffffffffffffffffffffffffff16021790555060a08201518160010160146101000a81548163ffffffff021916908363ffffffff16021790555060c08201518160010160186101000a81548163ffffffff021916908363ffffffff1602179055509050507ff02fcc22535d64d92d17b995475893d63edd51da163fed74a6ee9b4bc4895cc46040518060e001604052807f000000000000000000000000000000000000000000000000000000000000000073ffffffffffffffffffffffffffffffffffffffff1681526020017f000000000000000000000000000000000000000000000000000000000000000067ffffffffffffffff1681526020017f000000000000000000000000000000000000000000000000000000000000000067ffffffffffffffff1681526020017f000000000000000000000000000000000000000000000000000000000000000073ffffffffffffffffffffffffffffffffffffffff1681526020017f000000000000000000000000000000000000000000000000000000000000000073ffffffffffffffffffffffffffffffffffffffff1681526020017f000000000000000000000000000000000000000000000000000000000000000073ffffffffffffffffffffffffffffffffffffffff1681526020017f000000000000000000000000000000000000000000000000000000000000000073ffffffffffffffffffffffffffffffffffffffff1681525082604051612270929190617375565b60405180910390a15050565b6000808a8a8a8a8a8a8a8a8a6040516020016122a09998979695949392919061739f565b6040516020818303038152906040528051906020012060001c9050600060f07fffffffffffffffffffffffffffffffffffffffffffffffffffffffffffffffff901b905060007e010000000000000000000000000000000000000000000000000000000000009050811983168282161760001b93505050509998505050505050505050565b61232d6150a6565b61239082606001516fffffffffffffffffffffffffffffffff1683600001516fffffffffffffffffffffffffffffffff16846020015163ffffffff164261237491906169c9565b85608001516fffffffffffffffffffffffffffffffff16613783565b82600001906fffffffffffffffffffffffffffffffff1690816fffffffffffffffffffffffffffffffff168152505042826020019063ffffffff16908163ffffffff1681525050819050919050565b467f000000000000000000000000000000000000000000000000000000000000000014612465577f0000000000000000000000000000000000000000000000000000000000000000466040517f0f01ce8500000000000000000000000000000000000000000000000000000000815260040161245c929190616ce5565b60405180910390fd5b565b7f000000000000000000000000000000000000000000000000000000000000000073ffffffffffffffffffffffffffffffffffffffff16632cbc26bb7f000000000000000000000000000000000000000000000000000000000000000067ffffffffffffffff1660801b6040518263ffffffff1660e01b81526004016124ed9190617483565b602060405180830381865afa15801561250a573d6000803e3d6000fd5b505050506040513d601f19601f8201168201806040525081019061252e919061749e565b15612565576040517f53ad11d800000000000000000000000000000000000000000000000000000000815260040160405180910390fd5b60008260000151519050600081036125a8576040517ebf199700000000000000000000000000000000000000000000000000000000815260040160405180910390fd5b82602001515181146125e6576040517f57e0e08300000000000000000000000000000000000000000000000000000000815260040160405180910390fd5b60008167ffffffffffffffff811115612602576126016154e4565b5b6040519080825280602002602001820160405280156126305781602001602082028036833780820191505090505b50905060005b8281101561270e5760008560000151828151811061265757612656616b33565b5b6020026020010151905061268b817f00000000000000000000000000000000000000000000000000000000000000006137af565b83838151811061269e5761269d616b33565b5b6020026020010181815250508061018001518383815181106126c3576126c2616b33565b5b602002602001015114612702576040517f7185cf6b00000000000000000000000000000000000000000000000000000000815260040160405180910390fd5b50806001019050612636565b5060007f000000000000000000000000000000000000000000000000000000000000000073ffffffffffffffffffffffffffffffffffffffff16633204887583876040015188606001516040518463ffffffff1660e01b81526004016127769392919061757a565b602060405180830381865afa158015612793573d6000803e3d6000fd5b505050506040513d601f19601f820116820180604052508101906127b791906175bf565b9050600081036127f3576040517fea75680100000000000000000000000000000000000000000000000000000000815260040160405180910390fd5b60008085511415905060005b848110156130ae576000876000015182815181106128205761281f616b33565b5b6020026020010151905060006128398260600151610580565b90506002600381111561284f5761284e61539b565b5b8160038111156128625761286161539b565b5b036128a957816060015167ffffffffffffffff167fe3dd0bec917c965a133ddb2c84874725ee1e2fd8d763c19efa36d6a11cd82b1f60405160405180910390a250506130a3565b600060038111156128bd576128bc61539b565b5b8160038111156128d0576128cf61539b565b5b14806128ff57506003808111156128ea576128e961539b565b5b8160038111156128fd576128fc61539b565b5b145b6129445781606001516040517f50a6e05200000000000000000000000000000000000000000000000000000000815260040161293b9190616493565b60405180910390fd5b8315612a29576000600a60000160009054906101000a900463ffffffff1663ffffffff16864261297491906169c9565b11905080806129a657506003808111156129915761299061539b565b5b8260038111156129a4576129a361539b565b5b145b6129dc576040517f6358b0d000000000000000000000000000000000000000000000000000000000815260040160405180910390fd5b60008985815181106129f1576129f0616b33565b5b602002602001015114612a2357888481518110612a1157612a10616b33565b5b60200260200101518360800181815250505b50612a97565b60006003811115612a3d57612a3c61539b565b5b816003811115612a5057612a4f61539b565b5b14612a965781606001516040517f67d9ba0f000000000000000000000000000000000000000000000000000000008152600401612a8d9190616493565b60405180910390fd5b5b60008260c0015167ffffffffffffffff161115612dc2576000600f6000846020015173ffffffffffffffffffffffffffffffffffffffff1673ffffffffffffffffffffffffffffffffffffffff16815260200190815260200160002060009054906101000a900467ffffffffffffffff16905060008167ffffffffffffffff16148015612b715750600073ffffffffffffffffffffffffffffffffffffffff167f000000000000000000000000000000000000000000000000000000000000000073ffffffffffffffffffffffffffffffffffffffff1614155b15612d0a577f000000000000000000000000000000000000000000000000000000000000000073ffffffffffffffffffffffffffffffffffffffff1663856c824784602001516040518263ffffffff1660e01b8152600401612bd39190615935565b602060405180830381865afa158015612bf0573d6000803e3d6000fd5b505050506040513d601f19601f82011682018060405250810190612c149190616d8f565b90508260c0015167ffffffffffffffff16600182612c3291906175ec565b67ffffffffffffffff1614612c9f57826020015173ffffffffffffffffffffffffffffffffffffffff168360c0015167ffffffffffffffff167fe44a20935573a783dd0d5991c92d7b6a0eb3173566530364db3ec10e9a990b5d60405160405180910390a35050506130a3565b80600f6000856020015173ffffffffffffffffffffffffffffffffffffffff1673ffffffffffffffffffffffffffffffffffffffff16815260200190815260200160002060006101000a81548167ffffffffffffffff021916908367ffffffffffffffff1602179055505b60006003811115612d1e57612d1d61539b565b5b826003811115612d3157612d3061539b565b5b03612dc0578260c0015167ffffffffffffffff16600182612d5291906175ec565b67ffffffffffffffff1614612dbf57826020015173ffffffffffffffffffffffffffffffffffffffff168360c0015167ffffffffffffffff167fd32ddb11d71e3d63411d37b09f9a8b28664f1cb1338bfd1413c173b0ebf4123760405160405180910390a35050506130a3565b5b505b600089602001518481518110612ddb57612dda616b33565b5b60200260200101519050612e0783606001518460000151856101400151518661012001515185516138a4565b612e1683606001516001613a40565b600080612e238584613b11565b91509150612e35856060015183613a40565b868015612e655750600380811115612e5057612e4f61539b565b5b826003811115612e6357612e6261539b565b5b145b8015612e96575060006003811115612e8057612e7f61539b565b5b846003811115612e9357612e9261539b565b5b14155b15612ed857806040517fcf19edfd000000000000000000000000000000000000000000000000000000008152600401612ecf9190617199565b60405180910390fd5b600380811115612eeb57612eea61539b565b5b826003811115612efe57612efd61539b565b5b14158015612f31575060026003811115612f1b57612f1a61539b565b5b826003811115612f2e57612f2d61539b565b5b14155b15612f79578460600151826040517f9e261603000000000000000000000000000000000000000000000000000000008152600401612f70929190617628565b60405180910390fd5b60008560c0015167ffffffffffffffff16118015612fbb575060006003811115612fa657612fa561539b565b5b846003811115612fb957612fb861539b565b5b145b1561304f57600f6000866020015173ffffffffffffffffffffffffffffffffffffffff1673ffffffffffffffffffffffffffffffffffffffff168152602001908152602001600020600081819054906101000a900467ffffffffffffffff168092919061302790617651565b91906101000a81548167ffffffffffffffff021916908367ffffffffffffffff160217905550505b846101800151856060015167ffffffffffffffff167fd4f851956a5d67c3997d1c9205045fef79bae2947fdee7e9e2641abc7391ef658484604051613095929190617681565b60405180910390a350505050505b8060010190506127ff565b50505050505050565b60006130e58273ffffffffffffffffffffffffffffffffffffffff1684600001613e2790919063ffffffff16565b905092915050565b600061311d8373ffffffffffffffffffffffffffffffffffffffff168386600001613e419092919063ffffffff16565b90509392505050565b613187828281019061313891906176b1565b600067ffffffffffffffff811115613153576131526154e4565b5b6040519080825280602002602001820160405280156131815781602001602082028036833780820191505090505b50612467565b5050565b60008260000160109054906101000a900463ffffffff1663ffffffff16426131b391906169c9565b9050600081146132bd5761325f8360010160009054906101000a90046fffffffffffffffffffffffffffffffff166fffffffffffffffffffffffffffffffff168460000160009054906101000a90046fffffffffffffffffffffffffffffffff166fffffffffffffffffffffffffffffffff16838660010160109054906101000a90046fffffffffffffffffffffffffffffffff166fffffffffffffffffffffffffffffffff16613783565b8360000160006101000a8154816fffffffffffffffffffffffffffffffff02191690836fffffffffffffffffffffffffffffffff160217905550428360000160106101000a81548163ffffffff021916908363ffffffff1602179055505b61330f82602001516fffffffffffffffffffffffffffffffff168460000160009054906101000a90046fffffffffffffffffffffffffffffffff166fffffffffffffffffffffffffffffffff16613e76565b8360000160006101000a8154816fffffffffffffffffffffffffffffffff02191690836fffffffffffffffffffffffffffffffff16021790555081600001518360000160146101000a81548160ff02191690831515021790555081602001518360010160006101000a8154816fffffffffffffffffffffffffffffffff02191690836fffffffffffffffffffffffffffffffff16021790555081604001518360010160106101000a8154816fffffffffffffffffffffffffffffffff02191690836fffffffffffffffffffffffffffffffff1602179055507f9ea3374b67bf275e6bb9c8ae68f9cae023e1c528b4b27e092f0bb209d3531c1982604051613416919061773c565b60405180910390a1505050565b600061343182600001613e8f565b9050919050565b6000806000806134548587600001613ea490919063ffffffff16565b9150915081819350935050509250929050565b3373ffffffffffffffffffffffffffffffffffffffff168173ffffffffffffffffffffffffffffffffffffffff16036134d5576040517f08c379a00000000000000000000000000000000000000000000000000000000081526004016134cc906177a3565b60405180910390fd5b80600160006101000a81548173ffffffffffffffffffffffffffffffffffffffff021916908373ffffffffffffffffffffffffffffffffffffffff1602179055508073ffffffffffffffffffffffffffffffffffffffff1660008054906101000a900473ffffffffffffffffffffffffffffffffffffffff1673ffffffffffffffffffffffffffffffffffffffff167fed8889f560326eb138920d842192f0eb3dd22b4f139c87a2c57538e05bae127860405160405180910390a350565b60608590506000805b87518110156136ce576136178882815181106135bb576135ba616b33565b5b60200260200101516020015188888885815181106135dc576135db616b33565b5b60200260200101518060200190518101906135f7919061787b565b88868151811061360a57613609616b33565b5b6020026020010151613ed0565b83828151811061362a57613629616b33565b5b602002602001018190525061366783828151811061364b5761364a616b33565b5b602002602001015160000151600c61434090919063ffffffff16565b156136c3576136b583828151811061368257613681616b33565b5b6020026020010151600a60010160009054906101000a900473ffffffffffffffffffffffffffffffffffffffff16614376565b826136c09190616e37565b91505b80600101905061359c565b5060008111156136e2576136e1816144a1565b5b5095945050505050565b60006136f7836144bb565b801561370957506137088383614508565b5b905092915050565b6137196151c8565b6040518060a001604052808461018001518152602001846000015167ffffffffffffffff16815260200184602001516040516020016137589190615935565b6040516020818303038152906040528152602001846101200151815260200183815250905092915050565b60006137a58583856137959190616a5d565b866137a09190616e37565b613e76565b9050949350505050565b60008060001b8284602001518560400151866060015187608001518860a001518960c001518a60e001518b61010001516040516020016137f69897969594939291906178c4565b604051602081830303815290604052805190602001208561012001518051906020012086610140015160405160200161382f91906179b1565b6040516020818303038152906040528051906020012087610160015160405160200161385b9190617a95565b6040516020818303038152906040528051906020012060405160200161388696959493929190617ab7565b60405160208183030381529060405280519060200120905092915050565b7f000000000000000000000000000000000000000000000000000000000000000067ffffffffffffffff168467ffffffffffffffff161461391c57836040517f1279ec8a0000000000000000000000000000000000000000000000000000000081526004016139139190616493565b60405180910390fd5b600a60000160089054906101000a900461ffff1661ffff1683111561397857846040517f099d3f7200000000000000000000000000000000000000000000000000000000815260040161396f9190616493565b60405180910390fd5b8083146139bc57846040517f8808f8e70000000000000000000000000000000000000000000000000000000081526004016139b39190616493565b60405180910390fd5b600a60000160049054906101000a900463ffffffff1663ffffffff16821115613a3957600a60000160049054906101000a900463ffffffff1663ffffffff16826040517f86933789000000000000000000000000000000000000000000000000000000008152600401613a30929190616ce5565b60405180910390fd5b5050505050565b60006002608084613a519190616a2c565b67ffffffffffffffff16613a659190616a5d565b9050600060106000608086613a7a9190616a9f565b67ffffffffffffffff1667ffffffffffffffff16815260200190815260200160002054905081600160026001901b613ab291906169c9565b901b198116905081836003811115613acd57613acc61539b565b5b901b811790508060106000608087613ae59190616a9f565b67ffffffffffffffff1667ffffffffffffffff1681526020019081526020016000208190555050505050565b600060603073ffffffffffffffffffffffffffffffffffffffff1663f52121a585856040518363ffffffff1660e01b8152600401613b50929190617cc5565b600060405180830381600087803b158015613b6a57600080fd5b505af1925050508015613b7b575060015b613e09573d8060008114613bab576040519150601f19603f3d011682016040523d82523d6000602084013e613bb0565b606091505b5080613bbb90617d5a565b7bffffffffffffffffffffffffffffffffffffffffffffffffffffffff1916630a8d6e8c60e01b7bffffffffffffffffffffffffffffffffffffffffffffffffffffffff19161480613c5a575080613c1290617d5a565b7bffffffffffffffffffffffffffffffffffffffffffffffffffffffff191663e1cd550960e01b7bffffffffffffffffffffffffffffffffffffffffffffffffffffffff1916145b80613cb2575080613c6a90617d5a565b7bffffffffffffffffffffffffffffffffffffffffffffffffffffffff1916638d666f6060e01b7bffffffffffffffffffffffffffffffffffffffffffffffffffffffff1916145b80613d0a575080613cc290617d5a565b7bffffffffffffffffffffffffffffffffffffffffffffffffffffffff19166378ef802460e01b7bffffffffffffffffffffffffffffffffffffffffffffffffffffffff1916145b80613d62575080613d1a90617d5a565b7bffffffffffffffffffffffffffffffffffffffffffffffffffffffff1916630c3b563c60e01b7bffffffffffffffffffffffffffffffffffffffffffffffffffffffff1916145b80613dba575080613d7290617d5a565b7bffffffffffffffffffffffffffffffffffffffffffffffffffffffff191663ae9b4ce960e01b7bffffffffffffffffffffffffffffffffffffffffffffffffffffffff1916145b15613dcc576003819250925050613e20565b806040517fcf19edfd000000000000000000000000000000000000000000000000000000008152600401613e009190617199565b60405180910390fd5b600260405180602001604052806000815250915091505b9250929050565b6000613e39836000018360001b6145c7565b905092915050565b6000613e6d846000018460001b8473ffffffffffffffffffffffffffffffffffffffff1660001b614600565b90509392505050565b6000818310613e855781613e87565b825b905092915050565b6000613e9d8260000161463b565b9050919050565b600080600080613eb78660000186614650565b915091508160001c8160001c9350935050509250929050565b613ed8615198565b6000613ee78460200151614690565b905060007f000000000000000000000000000000000000000000000000000000000000000073ffffffffffffffffffffffffffffffffffffffff1663bbe4f6db836040518263ffffffff1660e01b8152600401613f449190615935565b602060405180830381865afa158015613f61573d6000803e3d6000fd5b505050506040513d601f19601f82011682018060405250810190613f859190617dc1565b9050600073ffffffffffffffffffffffffffffffffffffffff168173ffffffffffffffffffffffffffffffffffffffff161480613fef5750613fed63aff2afbf60e01b8273ffffffffffffffffffffffffffffffffffffffff166136ec90919063ffffffff16565b155b1561403157806040517fae9b4ce90000000000000000000000000000000000000000000000000000000081526004016140289190615935565b60405180910390fd5b60008061416b633907753760e01b6040518061010001604052808c81526020017f000000000000000000000000000000000000000000000000000000000000000067ffffffffffffffff1681526020018b73ffffffffffffffffffffffffffffffffffffffff1681526020018d81526020018773ffffffffffffffffffffffffffffffffffffffff1681526020018a6000015181526020018a604001518152602001898152506040516024016140e79190617eb3565b604051602081830303815290604052907bffffffffffffffffffffffffffffffffffffffffffffffffffffffff19166020820180517bffffffffffffffffffffffffffffffffffffffffffffffffffffffff838183161783525050505084600a60010160149054906101000a900463ffffffff1663ffffffff1661138860846146fb565b5091509150816141b257806040517fe1cd55090000000000000000000000000000000000000000000000000000000081526004016141a99190617199565b60405180910390fd5b602061ffff1681511461420057602081516040517f78ef80240000000000000000000000000000000000000000000000000000000081526004016141f7929190617f06565b60405180910390fd5b60008180602001905181019061421691906175bf565b90506142ba63a9059cbb60e01b8a83604051602401614236929190617f2f565b604051602081830303815290604052907bffffffffffffffffffffffffffffffffffffffffffffffffffffffff19166020820180517bffffffffffffffffffffffffffffffffffffffffffffffffffffffff838183161783525050505086600a60010160189054906101000a900463ffffffff1663ffffffff1661138860846146fb565b5080935081945050508261430557816040517fe1cd55090000000000000000000000000000000000000000000000000000000081526004016142fc9190617199565b60405180910390fd5b60405180604001604052808673ffffffffffffffffffffffffffffffffffffffff168152602001828152509550505050505095945050505050565b600061436e8273ffffffffffffffffffffffffffffffffffffffff168460000161482e90919063ffffffff16565b905092915050565b6000808273ffffffffffffffffffffffffffffffffffffffff1663d02641a085600001516040518263ffffffff1660e01b81526004016143b69190615935565b6040805180830381865afa1580156143d2573d6000803e3d6000fd5b505050506040513d601f19601f820116820180604052508101906143f69190617ffc565b6000015190506000817bffffffffffffffffffffffffffffffffffffffffffffffffffffffff16036144635783600001516040517f9a655f7b00000000000000000000000000000000000000000000000000000000815260040161445a9190615935565b60405180910390fd5b6144988460200151827bffffffffffffffffffffffffffffffffffffffffffffffffffffffff1661484890919063ffffffff16565b91505092915050565b6144b8816000600361488f9092919063ffffffff16565b50565b60006144e7827f01ffc9a700000000000000000000000000000000000000000000000000000000614508565b801561450157506144ff8263ffffffff60e01b614508565b155b9050919050565b6000806301ffc9a760e01b836040516024016145249190618038565b604051602081830303815290604052907bffffffffffffffffffffffffffffffffffffffffffffffffffffffff19166020820180517bffffffffffffffffffffffffffffffffffffffffffffffffffffffff838183161783525050505090506000806000602060008551602087018a617530fa92503d915060005190508280156145af575060208210155b80156145bb5750600081115b94505050505092915050565b6000826002016000838152602001908152602001600020600090556145f88284600001614c5990919063ffffffff16565b905092915050565b600081846002016000858152602001908152602001600020819055506146328385600001614c7090919063ffffffff16565b90509392505050565b600061464982600001614c87565b9050919050565b600080600061466b8486600001614c9c90919063ffffffff16565b9050808560020160008381526020019081526020016000205492509250509250929050565b600060208251146146d857816040517f8d666f600000000000000000000000000000000000000000000000000000000081526004016146cf9190617199565b60405180910390fd5b6146f4828060200190518101906146ef91906175bf565b614cb3565b9050919050565b6000606060008361ffff1667ffffffffffffffff81111561471f5761471e6154e4565b5b6040519080825280601f01601f1916602001820160405280156147515781602001600182028036833780820191505090505b509150863b614784577f0c3b563c0000000000000000000000000000000000000000000000000000000060005260046000fd5b5a858110156147b7577fafa32a2c0000000000000000000000000000000000000000000000000000000060005260046000fd5b858103905086604082048203116147f2577f37c3be290000000000000000000000000000000000000000000000000000000060005260046000fd5b5a6000808b5160208d0160008d8df194505a810392503d86811115614815578690505b808552806000602087013e505050955095509592505050565b6000614840836000018360001b614d43565b905092915050565b6000670de0b6b3a764000082847bffffffffffffffffffffffffffffffffffffffffffffffffffffffff1661487d9190616a5d565b6148879190618053565b905092915050565b8260000160149054906101000a900460ff1615806148ad5750600082145b614c545760008360000160009054906101000a90046fffffffffffffffffffffffffffffffff166fffffffffffffffffffffffffffffffff16905060008460010160009054906101000a90046fffffffffffffffffffffffffffffffff166fffffffffffffffffffffffffffffffff16905060008560000160109054906101000a900463ffffffff1663ffffffff164261494791906169c9565b9050600081146149ef578183111561498b576040517f9725942a00000000000000000000000000000000000000000000000000000000815260040160405180910390fd5b6149c98284838960010160109054906101000a90046fffffffffffffffffffffffffffffffff166fffffffffffffffffffffffffffffffff16613783565b9250428660000160106101000a81548163ffffffff021916908363ffffffff1602179055505b84821015614aab57600073ffffffffffffffffffffffffffffffffffffffff168473ffffffffffffffffffffffffffffffffffffffff1603614a6a5781856040517ff94ebcd1000000000000000000000000000000000000000000000000000000008152600401614a61929190616ce5565b60405180910390fd5b8185856040517f1a76572a000000000000000000000000000000000000000000000000000000008152600401614aa293929190618084565b60405180910390fd5b84831015614bd05760008660010160109054906101000a90046fffffffffffffffffffffffffffffffff166fffffffffffffffffffffffffffffffff169050600081600183614afa91906169c9565b8689614b0691906169c9565b614b109190616e37565b614b1a9190618053565b9050600073ffffffffffffffffffffffffffffffffffffffff168673ffffffffffffffffffffffffffffffffffffffff1603614b8f5780856040517f15279c08000000000000000000000000000000000000000000000000000000008152600401614b86929190616ce5565b60405180910390fd5b8085876040517fd0c8d23a000000000000000000000000000000000000000000000000000000008152600401614bc793929190618084565b60405180910390fd5b8483614bdc91906169c9565b9250828660000160006101000a8154816fffffffffffffffffffffffffffffffff02191690836fffffffffffffffffffffffffffffffff1602179055507f1871cdf8010e63f2eb8384381a68dfa7416dc571a5517e66e88b2d2d0c0a690a85604051614c4891906180bb565b60405180910390a15050505b505050565b6000614c688360000183614d63565b905092915050565b6000614c7f8360000183614e77565b905092915050565b6000614c9582600001614ee7565b9050919050565b6000614cab8360000183614ef8565b905092915050565b600073ffffffffffffffffffffffffffffffffffffffff8016821180614cda575061040082105b15614d3b5781604051602001614cf091906180bb565b6040516020818303038152906040526040517f8d666f60000000000000000000000000000000000000000000000000000000008152600401614d329190617199565b60405180910390fd5b819050919050565b6000614d5b8284600001614f2390919063ffffffff16565b905092915050565b60008083600101600084815260200190815260200160002054905060008114614e6b576000600182614d9591906169c9565b9050600060018660000180549050614dad91906169c9565b9050818114614e1c576000866000018281548110614dce57614dcd616b33565b5b9060005260206000200154905080876000018481548110614df257614df1616b33565b5b90600052602060002001819055508387600101600083815260200190815260200160002081905550505b85600001805480614e3057614e2f6180d6565b5b600190038181906000526020600020016000905590558560010160008681526020019081526020016000206000905560019350505050614e71565b60009150505b92915050565b6000614e838383614f3a565b614edc578260000182908060018154018082558091505060019003906000526020600020016000909190919091505582600001805490508360010160008481526020019081526020016000208190555060019050614ee1565b600090505b92915050565b600081600001805490509050919050565b6000826000018281548110614f1057614f0f616b33565b5b9060005260206000200154905092915050565b6000614f328360000183614f3a565b905092915050565b600080836001016000848152602001908152602001600020541415905092915050565b6040518060e00160405280600073ffffffffffffffffffffffffffffffffffffffff168152602001600067ffffffffffffffff168152602001600067ffffffffffffffff168152602001600073ffffffffffffffffffffffffffffffffffffffff168152602001600073ffffffffffffffffffffffffffffffffffffffff168152602001600073ffffffffffffffffffffffffffffffffffffffff168152602001600073ffffffffffffffffffffffffffffffffffffffff1681525090565b828054828255906000526020600020908101928215615095579160200282015b828111156150945782518260006101000a81548173ffffffffffffffffffffffffffffffffffffffff021916908373ffffffffffffffffffffffffffffffffffffffff1602179055509160200191906001019061503c565b5b5090506150a29190615204565b5090565b6040518060a0016040528060006fffffffffffffffffffffffffffffffff168152602001600063ffffffff16815260200160001515815260200160006fffffffffffffffffffffffffffffffff16815260200160006fffffffffffffffffffffffffffffffff1681525090565b6040518060e00160405280600063ffffffff168152602001600063ffffffff168152602001600061ffff168152602001600073ffffffffffffffffffffffffffffffffffffffff168152602001600073ffffffffffffffffffffffffffffffffffffffff168152602001600063ffffffff168152602001600063ffffffff1681525090565b6040518060400160405280600073ffffffffffffffffffffffffffffffffffffffff168152602001600081525090565b6040518060a0016040528060008019168152602001600067ffffffffffffffff1681526020016060815260200160608152602001606081525090565b5b8082111561521d576000816000905550600101615205565b5090565b600073ffffffffffffffffffffffffffffffffffffffff82169050919050565b600061524c82615221565b9050919050565b61525c81615241565b82525050565b600067ffffffffffffffff82169050919050565b61527f81615262565b82525050565b60e08201600082015161529b6000850182615253565b5060208201516152ae6020850182615276565b5060408201516152c16040850182615276565b5060608201516152d46060850182615253565b5060808201516152e76080850182615253565b5060a08201516152fa60a0850182615253565b5060c082015161530d60c0850182615253565b50505050565b600060e0820190506153286000830184615285565b92915050565b6000604051905090565b600080fd5b600080fd5b61534b81615262565b811461535657600080fd5b50565b60008135905061536881615342565b92915050565b60006020828403121561538457615383615338565b5b600061539284828501615359565b91505092915050565b7f4e487b7100000000000000000000000000000000000000000000000000000000600052602160045260246000fd5b600481106153db576153da61539b565b5b50565b60008190506153ec826153ca565b919050565b60006153fc826153de565b9050919050565b61540c816153f1565b82525050565b60006020820190506154276000830184615403565b92915050565b600081519050919050565b600082825260208201905092915050565b60005b8381101561546757808201518184015260208101905061544c565b60008484015250505050565b6000601f19601f8301169050919050565b600061548f8261542d565b6154998185615438565b93506154a9818560208601615449565b6154b281615473565b840191505092915050565b600060208201905081810360008301526154d78184615484565b905092915050565b600080fd5b7f4e487b7100000000000000000000000000000000000000000000000000000000600052604160045260246000fd5b61551c82615473565b810181811067ffffffffffffffff8211171561553b5761553a6154e4565b5b80604052505050565b600061554e61532e565b905061555a8282615513565b919050565b600067ffffffffffffffff82111561557a576155796154e4565b5b602082029050602081019050919050565b600080fd5b61559981615241565b81146155a457600080fd5b50565b6000813590506155b681615590565b92915050565b60006155cf6155ca8461555f565b615544565b905080838252602082019050602084028301858111156155f2576155f161558b565b5b835b8181101561561b578061560788826155a7565b8452602084019350506020810190506155f4565b5050509392505050565b600082601f83011261563a576156396154df565b5b813561564a8482602086016155bc565b91505092915050565b600060ff82169050919050565b61566981615653565b811461567457600080fd5b50565b60008135905061568681615660565b92915050565b600080fd5b600067ffffffffffffffff8211156156ac576156ab6154e4565b5b6156b582615473565b9050602081019050919050565b82818337600083830152505050565b60006156e46156df84615691565b615544565b905082815260208101848484011115615700576156ff61568c565b5b61570b8482856156c2565b509392505050565b600082601f830112615728576157276154df565b5b81356157388482602086016156d1565b91505092915050565b60008060008060008060c0878903121561575e5761575d615338565b5b600087013567ffffffffffffffff81111561577c5761577b61533d565b5b61578889828a01615625565b965050602087013567ffffffffffffffff8111156157a9576157a861533d565b5b6157b589828a01615625565b95505060406157c689828a01615677565b945050606087013567ffffffffffffffff8111156157e7576157e661533d565b5b6157f389828a01615713565b935050608061580489828a01615359565b92505060a087013567ffffffffffffffff8111156158255761582461533d565b5b61583189828a01615713565b9150509295509295509295565b60006fffffffffffffffffffffffffffffffff82169050919050565b6158638161583e565b82525050565b600063ffffffff82169050919050565b61588281615869565b82525050565b60008115159050919050565b61589d81615888565b82525050565b60a0820160008201516158b9600085018261585a565b5060208201516158cc6020850182615879565b5060408201516158df6040850182615894565b5060608201516158f2606085018261585a565b506080820151615905608085018261585a565b50505050565b600060a08201905061592060008301846158a3565b92915050565b61592f81615241565b82525050565b600060208201905061594a6000830184615926565b92915050565b600081519050919050565b600082825260208201905092915050565b6000819050602082019050919050565b60006159888383615253565b60208301905092915050565b6000602082019050919050565b60006159ac82615950565b6159b6818561595b565b93506159c18361596c565b8060005b838110156159f25781516159d9888261597c565b97506159e483615994565b9250506001810190506159c5565b5085935050505092915050565b60006020820190508181036000830152615a1981846159a1565b905092915050565b600060208284031215615a3757615a36615338565b5b6000615a45848285016155a7565b91505092915050565b600080fd5b600080fd5b600067ffffffffffffffff821115615a7357615a726154e4565b5b602082029050602081019050919050565b6000819050919050565b615a9781615a84565b8114615aa257600080fd5b50565b600081359050615ab481615a8e565b92915050565b615ac381615888565b8114615ace57600080fd5b50565b600081359050615ae081615aba565b92915050565b600067ffffffffffffffff821115615b0157615b006154e4565b5b602082029050602081019050919050565b600060408284031215615b2857615b27615a4e565b5b615b326040615544565b90506000615b42848285016155a7565b6000830152506020615b5684828501615aa5565b60208301525092915050565b6000615b75615b7084615ae6565b615544565b90508083825260208201905060408402830185811115615b9857615b9761558b565b5b835b81811015615bc15780615bad8882615b12565b845260208401935050604081019050615b9a565b5050509392505050565b600082601f830112615be057615bdf6154df565b5b8135615bf0848260208601615b62565b91505092915050565b600067ffffffffffffffff821115615c1457615c136154e4565b5b602082029050602081019050919050565b6000615c38615c3384615bf9565b615544565b90508083825260208201905060208402830185811115615c5b57615c5a61558b565b5b835b81811015615ca257803567ffffffffffffffff811115615c8057615c7f6154df565b5b808601615c8d8982615713565b85526020850194505050602081019050615c5d565b5050509392505050565b600082601f830112615cc157615cc06154df565b5b8135615cd1848260208601615c25565b91505092915050565b6000819050919050565b615ced81615cda565b8114615cf857600080fd5b50565b600081359050615d0a81615ce4565b92915050565b60006101a08284031215615d2757615d26615a4e565b5b615d326101a0615544565b90506000615d4284828501615359565b6000830152506020615d56848285016155a7565b6020830152506040615d6a848285016155a7565b6040830152506060615d7e84828501615359565b6060830152506080615d9284828501615aa5565b60808301525060a0615da684828501615ad1565b60a08301525060c0615dba84828501615359565b60c08301525060e0615dce848285016155a7565b60e083015250610100615de384828501615aa5565b6101008301525061012082013567ffffffffffffffff811115615e0957615e08615a53565b5b615e1584828501615713565b6101208301525061014082013567ffffffffffffffff811115615e3b57615e3a615a53565b5b615e4784828501615bcb565b6101408301525061016082013567ffffffffffffffff811115615e6d57615e6c615a53565b5b615e7984828501615cac565b61016083015250610180615e8f84828501615cfb565b6101808301525092915050565b6000615eaf615eaa84615a58565b615544565b90508083825260208201905060208402830185811115615ed257615ed161558b565b5b835b81811015615f1957803567ffffffffffffffff811115615ef757615ef66154df565b5b808601615f048982615d10565b85526020850194505050602081019050615ed4565b5050509392505050565b600082601f830112615f3857615f376154df565b5b8135615f48848260208601615e9c565b91505092915050565b600067ffffffffffffffff821115615f6c57615f6b6154e4565b5b602082029050602081019050919050565b6000615f90615f8b84615f51565b615544565b90508083825260208201905060208402830185811115615fb357615fb261558b565b5b835b81811015615ffa57803567ffffffffffffffff811115615fd857615fd76154df565b5b808601615fe58982615cac565b85526020850194505050602081019050615fb5565b5050509392505050565b600082601f830112616019576160186154df565b5b8135616029848260208601615f7d565b91505092915050565b600067ffffffffffffffff82111561604d5761604c6154e4565b5b602082029050602081019050919050565b600061607161606c84616032565b615544565b905080838252602082019050602084028301858111156160945761609361558b565b5b835b818110156160bd57806160a98882615cfb565b845260208401935050602081019050616096565b5050509392505050565b600082601f8301126160dc576160db6154df565b5b81356160ec84826020860161605e565b91505092915050565b60006080828403121561610b5761610a615a4e565b5b6161156080615544565b9050600082013567ffffffffffffffff81111561613557616134615a53565b5b61614184828501615f23565b600083015250602082013567ffffffffffffffff81111561616557616164615a53565b5b61617184828501616004565b602083015250604082013567ffffffffffffffff81111561619557616194615a53565b5b6161a1848285016160c7565b60408301525060606161b584828501615aa5565b60608301525092915050565b600067ffffffffffffffff8211156161dc576161db6154e4565b5b602082029050602081019050919050565b60006162006161fb846161c1565b615544565b905080838252602082019050602084028301858111156162235761622261558b565b5b835b8181101561624c57806162388882615aa5565b845260208401935050602081019050616225565b5050509392505050565b600082601f83011261626b5761626a6154df565b5b813561627b8482602086016161ed565b91505092915050565b6000806040838503121561629b5761629a615338565b5b600083013567ffffffffffffffff8111156162b9576162b861533d565b5b6162c5858286016160f5565b925050602083013567ffffffffffffffff8111156162e6576162e561533d565b5b6162f285828601616256565b9150509250929050565b600061ffff82169050919050565b616313816162fc565b82525050565b60e08201600082015161632f6000850182615879565b5060208201516163426020850182615879565b506040820151616355604085018261630a565b5060608201516163686060850182615253565b50608082015161637b6080850182615253565b5060a082015161638e60a0850182615879565b5060c08201516163a160c0850182615879565b50505050565b600060e0820190506163bc6000830184616319565b92915050565b6163cb81615869565b82525050565b6163da81615cda565b82525050565b60006060820190506163f560008301866163c2565b61640260208301856163c2565b61640f60408301846163d1565b949350505050565b600080fd5b600060a0828403121561643257616431616417565b5b81905092915050565b60006020828403121561645157616450615338565b5b600082013567ffffffffffffffff81111561646f5761646e61533d565b5b61647b8482850161641c565b91505092915050565b61648d81615262565b82525050565b60006020820190506164a86000830184616484565b92915050565b600067ffffffffffffffff8211156164c9576164c86154e4565b5b602082029050602081019050919050565b6000604082840312156164f0576164ef615a4e565b5b6164fa6040615544565b9050600061650a848285016155a7565b600083015250602061651e848285016155a7565b60208301525092915050565b600061653d616538846164ae565b615544565b905080838252602082019050604084028301858111156165605761655f61558b565b5b835b81811015616589578061657588826164da565b845260208401935050604081019050616562565b5050509392505050565b600082601f8301126165a8576165a76154df565b5b81356165b884826020860161652a565b91505092915050565b600080604083850312156165d8576165d7615338565b5b600083013567ffffffffffffffff8111156165f6576165f561533d565b5b61660285828601616593565b925050602083013567ffffffffffffffff8111156166235761662261533d565b5b61662f85828601616593565b9150509250929050565b61664281615888565b82525050565b600060608201905061665d6000830186616639565b61666a60208301856163d1565b61667760408301846163c2565b949350505050565b60008190508260206003028201111561669b5761669a61558b565b5b92915050565b600080fd5b60008083601f8401126166bc576166bb6154df565b5b8235905067ffffffffffffffff8111156166d9576166d86166a1565b5b6020830191508360018202830111156166f5576166f461558b565b5b9250929050565b60008083601f840112616712576167116154df565b5b8235905067ffffffffffffffff81111561672f5761672e6166a1565b5b60208301915083602082028301111561674b5761674a61558b565b5b9250929050565b60008060008060008060008060e0898b03121561677257616771615338565b5b60006167808b828c0161667f565b985050606089013567ffffffffffffffff8111156167a1576167a061533d565b5b6167ad8b828c016166a6565b9750975050608089013567ffffffffffffffff8111156167d0576167cf61533d565b5b6167dc8b828c016166fc565b955095505060a089013567ffffffffffffffff8111156167ff576167fe61533d565b5b61680b8b828c016166fc565b935093505060c061681e8b828c01615cfb565b9150509295985092959890939650565b6168378161583e565b811461684257600080fd5b50565b6000813590506168548161682e565b92915050565b6000606082840312156168705761686f615a4e565b5b61687a6060615544565b9050600061688a84828501615ad1565b600083015250602061689e84828501616845565b60208301525060406168b284828501616845565b60408301525092915050565b6000606082840312156168d4576168d3615338565b5b60006168e28482850161685a565b91505092915050565b6000604082019050818103600083015261690581856159a1565b9050818103602083015261691981846159a1565b90509392505050565b6000806040838503121561693957616938615338565b5b600083013567ffffffffffffffff8111156169575761695661533d565b5b61696385828601615d10565b925050602083013567ffffffffffffffff8111156169845761698361533d565b5b61699085828601615cac565b9150509250929050565b7f4e487b7100000000000000000000000000000000000000000000000000000000600052601160045260246000fd5b60006169d482615a84565b91506169df83615a84565b92508282039050818111156169f7576169f661699a565b5b92915050565b7f4e487b7100000000000000000000000000000000000000000000000000000000600052601260045260246000fd5b6000616a3782615262565b9150616a4283615262565b925082616a5257616a516169fd565b5b828206905092915050565b6000616a6882615a84565b9150616a7383615a84565b9250828202616a8181615a84565b91508282048414831517616a9857616a9761699a565b5b5092915050565b6000616aaa82615262565b9150616ab583615262565b925082616ac557616ac46169fd565b5b828204905092915050565b60038110616ae157616ae061539b565b5b50565b6000819050616af282616ad0565b919050565b6000616b0282616ae4565b9050919050565b616b1281616af7565b82525050565b6000602082019050616b2d6000830184616b09565b92915050565b7f4e487b7100000000000000000000000000000000000000000000000000000000600052603260045260246000fd5b6000616b6d82615869565b915063ffffffff8203616b8357616b8261699a565b5b600182019050919050565b6000819050919050565b6000616bb3616bae616ba984615869565b616b8e565b615262565b9050919050565b616bc381616b98565b82525050565b616bd281615653565b82525050565b600081519050919050565b600082825260208201905092915050565b6000616bff82616bd8565b616c098185616be3565b9350616c19818560208601615449565b616c2281615473565b840191505092915050565b600061012082019050616c43600083018c6163c2565b616c50602083018b6163d1565b616c5d604083018a616bba565b8181036060830152616c6f81896159a1565b90508181036080830152616c8381886159a1565b9050616c9260a0830187616bc9565b81810360c0830152616ca48186616bf4565b9050616cb360e0830185616484565b818103610100830152616cc68184616bf4565b90509a9950505050505050505050565b616cdf81615a84565b82525050565b6000604082019050616cfa6000830185616cd6565b616d076020830184616cd6565b9392505050565b7f4d7573742062652070726f706f736564206f776e657200000000000000000000600082015250565b6000616d44601683615438565b9150616d4f82616d0e565b602082019050919050565b60006020820190508181036000830152616d7381616d37565b9050919050565b600081519050616d8981615342565b92915050565b600060208284031215616da557616da4615338565b5b6000616db384828501616d7a565b91505092915050565b6000604082019050616dd16000830185615926565b616dde6020830184615926565b9392505050565b6000604082019050616dfa60008301856163d1565b616e0760208301846163d1565b9392505050565b6000604082019050616e2360008301856163d1565b616e3060208301846163c2565b9392505050565b6000616e4282615a84565b9150616e4d83615a84565b9250828201905080821115616e6557616e6461699a565b5b92915050565b616e7481615cda565b82525050565b600082825260208201905092915050565b6000616e9682616bd8565b616ea08185616e7a565b9350616eb0818560208601615449565b616eb981615473565b840191505092915050565b600081519050919050565b600082825260208201905092915050565b6000819050602082019050919050565b616ef981615a84565b82525050565b604082016000820151616f156000850182615253565b506020820151616f286020850182616ef0565b50505050565b6000616f3a8383616eff565b60408301905092915050565b6000602082019050919050565b6000616f5e82616ec4565b616f688185616ecf565b9350616f7383616ee0565b8060005b83811015616fa4578151616f8b8882616f2e565b9750616f9683616f46565b925050600181019050616f77565b5085935050505092915050565b600060a083016000830151616fc96000860182616e6b565b506020830151616fdc6020860182615276565b5060408301518482036040860152616ff48282616e8b565b9150506060830151848203606086015261700e8282616e8b565b915050608083015184820360808601526170288282616f53565b9150508091505092915050565b61703e816162fc565b82525050565b6000608082019050818103600083015261705e8187616fb1565b905061706d6020830186617035565b61707a6040830185616cd6565b6170876060830184615926565b95945050505050565b60008151905061709f81615aba565b92915050565b60006170b86170b384615691565b615544565b9050828152602081018484840111156170d4576170d361568c565b5b6170df848285615449565b509392505050565b600082601f8301126170fc576170fb6154df565b5b815161710c8482602086016170a5565b91505092915050565b60008151905061712481615a8e565b92915050565b60008060006060848603121561714357617142615338565b5b600061715186828701617090565b935050602084015167ffffffffffffffff8111156171725761717161533d565b5b61717e868287016170e7565b925050604061718f86828701617115565b9150509250925092565b600060208201905081810360008301526171b38184616bf4565b905092915050565b7f4f6e6c792063616c6c61626c65206279206f776e657200000000000000000000600082015250565b60006171f1601683615438565b91506171fc826171bb565b602082019050919050565b60006020820190508181036000830152617220816171e4565b9050919050565b61723081615869565b811461723b57600080fd5b50565b60008151905061724d81617227565b92915050565b61725c816162fc565b811461726757600080fd5b50565b60008151905061727981617253565b92915050565b60008151905061728e81615590565b92915050565b600060e082840312156172aa576172a9615a4e565b5b6172b460e0615544565b905060006172c48482850161723e565b60008301525060206172d88482850161723e565b60208301525060406172ec8482850161726a565b60408301525060606173008482850161727f565b60608301525060806173148482850161727f565b60808301525060a06173288482850161723e565b60a08301525060c061733c8482850161723e565b60c08301525092915050565b600060e0828403121561735e5761735d615338565b5b600061736c84828501617294565b91505092915050565b60006101c08201905061738b6000830185615285565b61739860e0830184616319565b9392505050565b6000610120820190506173b5600083018c616cd6565b6173c2602083018b615926565b6173cf604083018a616484565b81810360608301526173e181896159a1565b905081810360808301526173f581886159a1565b905061740460a0830187616bc9565b81810360c08301526174168186616bf4565b905061742560e0830185616484565b8181036101008301526174388184616bf4565b90509a9950505050505050505050565b60007fffffffffffffffffffffffffffffffff0000000000000000000000000000000082169050919050565b61747d81617448565b82525050565b60006020820190506174986000830184617474565b92915050565b6000602082840312156174b4576174b3615338565b5b60006174c284828501617090565b91505092915050565b600081519050919050565b600082825260208201905092915050565b6000819050602082019050919050565b60006175038383616e6b565b60208301905092915050565b6000602082019050919050565b6000617527826174cb565b61753181856174d6565b935061753c836174e7565b8060005b8381101561756d57815161755488826174f7565b975061755f8361750f565b925050600181019050617540565b5085935050505092915050565b60006060820190508181036000830152617594818661751c565b905081810360208301526175a8818561751c565b90506175b76040830184616cd6565b949350505050565b6000602082840312156175d5576175d4615338565b5b60006175e384828501617115565b91505092915050565b60006175f782615262565b915061760283615262565b9250828201905067ffffffffffffffff8111156176225761762161699a565b5b92915050565b600060408201905061763d6000830185616484565b61764a6020830184615403565b9392505050565b600061765c82615262565b915067ffffffffffffffff82036176765761767561699a565b5b600182019050919050565b60006040820190506176966000830185615403565b81810360208301526176a88184616bf4565b90509392505050565b6000602082840312156176c7576176c6615338565b5b600082013567ffffffffffffffff8111156176e5576176e461533d565b5b6176f1848285016160f5565b91505092915050565b6060820160008201516177106000850182615894565b506020820151617723602085018261585a565b506040820151617736604085018261585a565b50505050565b600060608201905061775160008301846176fa565b92915050565b7f43616e6e6f74207472616e7366657220746f2073656c66000000000000000000600082015250565b600061778d601783615438565b915061779882617757565b602082019050919050565b600060208201905081810360008301526177bc81617780565b9050919050565b6000606082840312156177d9576177d8615a4e565b5b6177e36060615544565b9050600082015167ffffffffffffffff81111561780357617802615a53565b5b61780f848285016170e7565b600083015250602082015167ffffffffffffffff81111561783357617832615a53565b5b61783f848285016170e7565b602083015250604082015167ffffffffffffffff81111561786357617862615a53565b5b61786f848285016170e7565b60408301525092915050565b60006020828403121561789157617890615338565b5b600082015167ffffffffffffffff8111156178af576178ae61533d565b5b6178bb848285016177c3565b91505092915050565b6000610100820190506178da600083018b615926565b6178e7602083018a615926565b6178f46040830189616484565b6179016060830188616cd6565b61790e6080830187616639565b61791b60a0830186616484565b61792860c0830185615926565b61793560e0830184616cd6565b9998505050505050505050565b600082825260208201905092915050565b600061795e82616ec4565b6179688185617942565b935061797383616ee0565b8060005b838110156179a457815161798b8882616f2e565b975061799683616f46565b925050600181019050617977565b5085935050505092915050565b600060208201905081810360008301526179cb8184617953565b905092915050565b600081519050919050565b600082825260208201905092915050565b6000819050602082019050919050565b6000617a0b8383616e8b565b905092915050565b6000602082019050919050565b6000617a2b826179d3565b617a3581856179de565b935083602082028501617a47856179ef565b8060005b85811015617a835784840389528151617a6485826179ff565b9450617a6f83617a13565b925060208a01995050600181019050617a4b565b50829750879550505050505092915050565b60006020820190508181036000830152617aaf8184617a20565b905092915050565b600060c082019050617acc60008301896163d1565b617ad960208301886163d1565b617ae660408301876163d1565b617af360608301866163d1565b617b0060808301856163d1565b617b0d60a08301846163d1565b979650505050505050565b600082825260208201905092915050565b6000617b34826179d3565b617b3e8185617b18565b935083602082028501617b50856179ef565b8060005b85811015617b8c5784840389528151617b6d85826179ff565b9450617b7883617a13565b925060208a01995050600181019050617b54565b50829750879550505050505092915050565b60006101a083016000830151617bb76000860182615276565b506020830151617bca6020860182615253565b506040830151617bdd6040860182615253565b506060830151617bf06060860182615276565b506080830151617c036080860182616ef0565b5060a0830151617c1660a0860182615894565b5060c0830151617c2960c0860182615276565b5060e0830151617c3c60e0860182615253565b50610100830151617c51610100860182616ef0565b50610120830151848203610120860152617c6b8282616e8b565b915050610140830151848203610140860152617c878282616f53565b915050610160830151848203610160860152617ca38282617b29565b915050610180830151617cba610180860182616e6b565b508091505092915050565b60006040820190508181036000830152617cdf8185617b9e565b90508181036020830152617cf38184617a20565b90509392505050565b6000819050602082019050919050565b60007fffffffff0000000000000000000000000000000000000000000000000000000082169050919050565b6000617d448251617d0c565b80915050919050565b600082821b905092915050565b6000617d6582616bd8565b82617d6f84617cfc565b9050617d7a81617d38565b92506004821015617dba57617db57fffffffff0000000000000000000000000000000000000000000000000000000083600403600802617d4d565b831692505b5050919050565b600060208284031215617dd757617dd6615338565b5b6000617de58482850161727f565b91505092915050565b6000610100830160008301518482036000860152617e0c8282616e8b565b9150506020830151617e216020860182615276565b506040830151617e346040860182615253565b506060830151617e476060860182616ef0565b506080830151617e5a6080860182615253565b5060a083015184820360a0860152617e728282616e8b565b91505060c083015184820360c0860152617e8c8282616e8b565b91505060e083015184820360e0860152617ea68282616e8b565b9150508091505092915050565b60006020820190508181036000830152617ecd8184617dee565b905092915050565b6000617ef0617eeb617ee6846162fc565b616b8e565b615a84565b9050919050565b617f0081617ed5565b82525050565b6000604082019050617f1b6000830185617ef7565b617f286020830184616cd6565b9392505050565b6000604082019050617f446000830185615926565b617f516020830184616cd6565b9392505050565b60007bffffffffffffffffffffffffffffffffffffffffffffffffffffffff82169050919050565b617f8981617f58565b8114617f9457600080fd5b50565b600081519050617fa681617f80565b92915050565b600060408284031215617fc257617fc1615a4e565b5b617fcc6040615544565b90506000617fdc84828501617f97565b6000830152506020617ff08482850161723e565b60208301525092915050565b60006040828403121561801257618011615338565b5b600061802084828501617fac565b91505092915050565b61803281617d0c565b82525050565b600060208201905061804d6000830184618029565b92915050565b600061805e82615a84565b915061806983615a84565b925082618079576180786169fd565b5b828204905092915050565b60006060820190506180996000830186616cd6565b6180a66020830185616cd6565b6180b36040830184615926565b949350505050565b60006020820190506180d06000830184616cd6565b92915050565b7f4e487b7100000000000000000000000000000000000000000000000000000000600052603160045260246000fdfea164736f6c6343000818000a","linkReferences":{}},"methodIdentifiers":{"acceptOwnership()":"79ba5097","ccipReceive((bytes32,uint64,bytes,bytes,(address,uint256)[]))":"85572ffb","currentRateLimiterState()":"546719cd","executeSingleMessage((uint64,address,address,uint64,uint256,bool,uint64,address,uint256,bytes,(address,uint256)[],bytes[],bytes32),bytes[])":"f52121a5","getAllRateLimitTokens()":"f077b592","getDynamicConfig()":"7437ff9f","getExecutionState(uint64)":"142a98fc","getSenderNonce(address)":"856c8247","getStaticConfig()":"06285c69","getTokenLimitAdmin()":"599f6431","getTransmitters()":"666cab8d","latestConfigDetails()":"81ff7048","latestConfigDigestAndEpoch()":"afcb95d7","manuallyExecute(((uint64,address,address,uint64,uint256,bool,uint64,address,uint256,bytes,(address,uint256)[],bytes[],bytes32)[],bytes[][],bytes32[],uint256),uint256[])":"740f4150","owner()":"8da5cb5b","setAdmin(address)":"704b6c02","setOCR2Config(address[],address[],uint8,bytes,uint64,bytes)":"1ef38174","setRateLimiterConfig((bool,uint128,uint128))":"c92b2832","transferOwnership(address)":"f2fde38b","transmit(bytes32[3],bytes,bytes32[],bytes32[],bytes32)":"b1dc65a4","typeAndVersion()":"181f5a77","updateRateLimitTokens((address,address)[],(address,address)[])":"873504d7"},"id":38}