{"abi":[{"type":"function","name":"EVM_EXTRA_ARGS_V1_TAG","inputs":[],"outputs":[{"name":"","type":"bytes4","internalType":"bytes4"}],"stateMutability":"view"},{"type":"function","name":"EVM_EXTRA_ARGS_V2_TAG","inputs":[],"outputs":[{"name":"","type":"bytes4","internalType":"bytes4"}],"stateMutability":"view"}],"bytecode":{"object":"0x60eb610052600b82828239805160001a607314610045577f4e487b7100000000000000000000000000000000000000000000000000000000600052600060045260246000fd5b30600052607381538281f3fe7300000000000000000000000000000000000000003014608060405260043610603d5760003560e01c80633ab8c0d01460425780638113c57814605c575b600080fd5b60486076565b6040516053919060c5565b60405180910390f35b60626081565b604051606d919060c5565b60405180910390f35b6397a657c960e01b81565b63181dcf1060e01b81565b60007fffffffff0000000000000000000000000000000000000000000000000000000082169050919050565b60bf81608c565b82525050565b600060208201905060d8600083018460b8565b9291505056fea164736f6c6343000818000a","linkReferences":{}},"methodIdentifiers":{"EVM_EXTRA_ARGS_V1_TAG()":"3ab8c0d0","EVM_EXTRA_ARGS_V2_TAG()":"8113c578"},"id":29}