{"abi":[{"type":"constructor","inputs":[{"name":"router","type":"address","internalType":"address"},{"name":"offRamp","type":"address","internalType":"contract EVM2EVMOffRamp"}],"stateMutability":"nonpayable"},{"type":"function","name":"ccipReceive","inputs":[{"name":"message","type":"tuple","internalType":"struct Client.Any2EVMMessage","components":[{"name":"messageId","type":"bytes32","internalType":"bytes32"},{"name":"sourceChainSelector","type":"uint64","internalType":"uint64"},{"name":"sender","type":"bytes","internalType":"bytes"},{"name":"data","type":"bytes","internalType":"bytes"},{"name":"destTokenAmounts","type":"tuple[]","internalType":"struct Client.EVMTokenAmount[]","components":[{"name":"token","type":"address","internalType":"address"},{"name":"amount","type":"uint256","internalType":"uint256"}]}]}],"outputs":[],"stateMutability":"nonpayable"},{"type":"function","name":"getRouter","inputs":[],"outputs":[{"name":"","type":"address","internalType":"address"}],"stateMutability":"view"},{"type":"function","name":"setPayload","inputs":[{"name":"payload","type":"tuple","internalType":"struct Internal.ExecutionReport","components":[{"name":"messages","type":"tuple[]","internalType":"struct Internal.EVM2EVMMessage[]","components":[{"name":"sourceChainSelector","type":"uint64","internalType":"uint64"},{"name":"sender","type":"address","internalType":"address"},{"name":"receiver","type":"address","internalType":"address"},{"name":"sequenceNumber","type":"uint64","internalType":"uint64"},{"name":"gasLimit","type":"uint256","internalType":"uint256"},{"name":"strict","type":"bool","internalType":"bool"},{"name":"nonce","type":"uint64","internalType":"uint64"},{"name":"feeToken","type":"address","internalType":"address"},{"name":"feeTokenAmount","type":"uint256","internalType":"uint256"},{"name":"data","type":"bytes","internalType":"bytes"},{"name":"tokenAmounts","type":"tuple[]","internalType":"struct Client.EVMTokenAmount[]","components":[{"name":"token","type":"address","internalType":"address"},{"name":"amount","type":"uint256","internalType":"uint256"}]},{"name":"sourceTokenData","type":"bytes[]","internalType":"bytes[]"},{"name":"messageId","type":"bytes32","internalType":"bytes32"}]},{"name":"offchainTokenData","type":"bytes[][]","internalType":"bytes[][]"},{"name":"proofs","type":"bytes32[]","internalType":"bytes32[]"},{"name":"proofFlagBits","type":"uint256","internalType":"uint256"}]}],"outputs":[],"stateMutability":"nonpayable"},{"type":"function","name":"supportsInterface","inputs":[{"name":"interfaceId","type":"bytes4","internalType":"bytes4"}],"outputs":[{"name":"","type":"bool","internalType":"bool"}],"stateMutability":"view"},{"type":"event","name":"ReentrancySucceeded","inputs":[],"anonymous":false},{"type":"error","name":"InvalidRouter","inputs":[{"name":"router","type":"address","internalType":"address"}]}],"bytecode":{"object":"0x60a060405260008060006101000a81548160ff0219169083151502179055503480156200002b57600080fd5b5060405162002d0638038062002d068339818101604052810190620000519190620001f4565b81600073ffffffffffffffffffffffffffffffffffffffff168173ffffffffffffffffffffffffffffffffffffffff1603620000c75760006040517fd7f73334000000000000000000000000000000000000000000000000000000008152600401620000be91906200024c565b60405180910390fd5b8073ffffffffffffffffffffffffffffffffffffffff1660808173ffffffffffffffffffffffffffffffffffffffff16815250505080600560006101000a81548173ffffffffffffffffffffffffffffffffffffffff021916908373ffffffffffffffffffffffffffffffffffffffff160217905550505062000269565b600080fd5b600073ffffffffffffffffffffffffffffffffffffffff82169050919050565b600062000177826200014a565b9050919050565b62000189816200016a565b81146200019557600080fd5b50565b600081519050620001a9816200017e565b92915050565b6000620001bc826200016a565b9050919050565b620001ce81620001af565b8114620001da57600080fd5b50565b600081519050620001ee81620001c3565b92915050565b600080604083850312156200020e576200020d62000145565b5b60006200021e8582860162000198565b92505060206200023185828601620001dd565b9150509250929050565b62000246816200016a565b82525050565b60006020820190506200026360008301846200023b565b92915050565b608051612a8162000285600039600061024e0152612a816000f3fe608060405234801561001057600080fd5b506004361061004c5760003560e01c806301ffc9a71461005157806370a0b01c1461008157806385572ffb1461009d578063b0f479a1146100b9575b600080fd5b61006b60048036038101906100669190610463565b6100d7565b60405161007891906104ab565b60405180910390f35b61009b600480360381019061009691906104ea565b6101a9565b005b6100b760048036038101906100b29190610552565b6101be565b005b6100c161024a565b6040516100ce91906105dc565b60405180910390f35b60007f85572ffb000000000000000000000000000000000000000000000000000000007bffffffffffffffffffffffffffffffffffffffffffffffffffffffff1916827bffffffffffffffffffffffffffffffffffffffffffffffffffffffff191614806101a257507f01ffc9a7000000000000000000000000000000000000000000000000000000007bffffffffffffffffffffffffffffffffffffffffffffffffffffffff1916827bffffffffffffffffffffffffffffffffffffffffffffffffffffffff1916145b9050919050565b80600181816101b89190611e20565b90505050565b6101c661024a565b73ffffffffffffffffffffffffffffffffffffffff163373ffffffffffffffffffffffffffffffffffffffff161461023557336040517fd7f7333400000000000000000000000000000000000000000000000000000000815260040161022c91906105dc565b60405180910390fd5b610247816102429061219b565b610272565b50565b60007f0000000000000000000000000000000000000000000000000000000000000000905090565b6000600160000180549050905060008167ffffffffffffffff81111561029b5761029a6106cb565b5b6040519080825280602002602001820160405280156102c95781602001602082028036833780820191505090505b50905060005b828110156103035760008282815181106102ec576102eb6121ae565b5b6020026020010181815250508060010190506102cf565b5060008054906101000a900460ff166103c55760016000806101000a81548160ff021916908315150217905550600560009054906101000a900473ffffffffffffffffffffffffffffffffffffffff1673ffffffffffffffffffffffffffffffffffffffff1663740f41506001836040518363ffffffff1660e01b815260040161038e929190612a3d565b600060405180830381600087803b1580156103a857600080fd5b505af11580156103bc573d6000803e3d6000fd5b505050506103f2565b7fd643455553d290e624d137e9f6d6e825c27e70131984dd2d479bc30d082b9be360405160405180910390a15b505050565b6000604051905090565b600080fd5b600080fd5b60007fffffffff0000000000000000000000000000000000000000000000000000000082169050919050565b6104408161040b565b811461044b57600080fd5b50565b60008135905061045d81610437565b92915050565b60006020828403121561047957610478610401565b5b60006104878482850161044e565b91505092915050565b60008115159050919050565b6104a581610490565b82525050565b60006020820190506104c0600083018461049c565b92915050565b600080fd5b6000608082840312156104e1576104e06104c6565b5b81905092915050565b600060208284031215610500576104ff610401565b5b600082013567ffffffffffffffff81111561051e5761051d610406565b5b61052a848285016104cb565b91505092915050565b600060a08284031215610549576105486104c6565b5b81905092915050565b60006020828403121561056857610567610401565b5b600082013567ffffffffffffffff81111561058657610585610406565b5b61059284828501610533565b91505092915050565b600073ffffffffffffffffffffffffffffffffffffffff82169050919050565b60006105c68261059b565b9050919050565b6105d6816105bb565b82525050565b60006020820190506105f160008301846105cd565b92915050565b7f4e487b7100000000000000000000000000000000000000000000000000000000600052600060045260246000fd5b600080fd5b600080fd5b600080fd5b6000808335600160200384360303811261065257610651610626565b5b80840192508235915067ffffffffffffffff8211156106745761067361062b565b5b6020830192506020820236038313156106905761068f610630565b5b509250929050565b6000819050919050565b6000823560016101a0038336030381126106bf576106be610626565b5b80830191505092915050565b7f4e487b7100000000000000000000000000000000000000000000000000000000600052604160045260246000fd5b600081549050919050565b6000819050919050565b7f4e487b7100000000000000000000000000000000000000000000000000000000600052601160045260246000fd5b600061074982610705565b915061075483610705565b925082820261076281610705565b915082820484148315176107795761077861070f565b5b5092915050565b600081905061079082600961073e565b9050919050565b60008190508160005260206000209050919050565b600082821b905092915050565b6000600883026107e97fffffffffffffffffffffffffffffffffffffffffffffffffffffffffffffffff826107ac565b6107f386836107ac565b95508019841693508086168417925050509392505050565b6000819050919050565b600061083061082b61082684610705565b61080b565b610705565b9050919050565b6000819050919050565b61084a83610815565b61085e61085682610837565b8484546107b9565b825550505050565b600090565b610873610866565b61087e818484610841565b505050565b7f4e487b7100000000000000000000000000000000000000000000000000000000600052602260045260246000fd5b600060028204905060018216806108ca57607f821691505b6020821081036108dd576108dc610883565b5b50919050565b60008190508160005260206000209050919050565b600082821c905092915050565b6109357fffffffffffffffffffffffffffffffffffffffffffffffffffffffffffffffff836020036008026108f8565b815481168255505050565b5b8181101561095f5761095460008261086b565b600181019050610941565b5050565b6000610974600019846008026108f8565b1980831691505092915050565b600061098d8383610963565b9150826002028217905092915050565b6109a6816108e3565b6109b1838254610981565b8083556000825550505050565b60006020601f8301049050919050565b6020841060008114610a2957601f8411600181146109f7576109f08685610981565b8355610a23565b610a00836108e3565b610a17610a0c876109be565b820160018301610940565b610a21878561099d565b505b50610a76565b610a32826108e3565b610a3b866109be565b8101601f87168015610a5557610a548160018403610905565b5b610a69610a61886109be565b840183610940565b6001886002021785555050505b5050505050565b68010000000000000000841115610a9757610a966106cb565b5b6020831060008114610ae2576020851060008114610ac057610ab98685610981565b8355610adc565b8360ff1916935083610ad1846108e3565b556001866002020183555b50610aec565b6001856002020182555b5050505050565b8054610afe816108b2565b80841115610b1357610b1284828486610a7d565b5b80841015610b2857610b27848284866109ce565b5b50505050565b81811015610b4c57610b4160008261086b565b600181019050610b2e565b5050565b610b5b600082610af3565b50565b60008214610b6f57610b6e6105f7565b5b610b7881610b50565b5050565b600081549050919050565b6000819050610b9782600261073e565b9050919050565b60008190508160005260206000209050919050565b600080820155610bc760006001830161086b565b50565b60008214610bdb57610bda6105f7565b5b610be481610bb3565b5050565b5b81811015610c0757610bfc600082610bca565b600281019050610be9565b5050565b81831015610c4457610c1c82610b87565b610c2584610b87565b610c2e83610b9e565b818101838201610c3e8183610be8565b50505050505b505050565b68010000000000000000821115610c6357610c626106cb565b5b610c6c81610b7c565b828255610c7a838284610c0b565b505050565b610c8a600082610c49565b50565b60008214610c9e57610c9d6105f7565b5b610ca781610c7f565b5050565b600081549050919050565b60008190506001806001038301049050919050565b60008190508160005260206000209050919050565b5b81811015610cff57610cf4600082610b5e565b600181019050610ce1565b5050565b81831015610d3c57610d1482610cb6565b610d1d84610cb6565b610d2683610ccb565b818101838201610d368183610ce0565b50505050505b505050565b68010000000000000000821115610d5b57610d5a6106cb565b5b610d6481610cab565b828255610d72838284610d03565b505050565b610d82600082610d41565b50565b60008214610d9657610d956105f7565b5b610d9f81610d77565b5050565b6000819050919050565b6000610db882610da3565b9050919050565b60008160001c9050919050565b6000610dd782610dbf565b9050919050565b610de783610dad565b610dfb610df382610dcc565b8484546107b9565b825550505050565b600090565b610e10610e03565b610e1b818484610dde565b505050565b60008082015560006001820155610e3b60006002830161086b565b60006003820155610e5060006004830161086b565b610e5e600060058301610b5e565b610e6c600060068301610c8d565b610e7a600060078301610d85565b610e88600060088301610e08565b50565b60008214610e9c57610e9b6105f7565b5b610ea581610e20565b5050565b5b81811015610ec857610ebd600082610e8b565b600981019050610eaa565b5050565b81831015610f0557610edd82610780565b610ee684610780565b610eef83610797565b818101838201610eff8183610ea9565b50505050505b505050565b68010000000000000000821115610f2457610f236106cb565b5b610f2d816106fa565b828255610f3b838284610ecc565b505050565b600082905092915050565b600067ffffffffffffffff82169050919050565b610f6881610f4b565b8114610f7357600080fd5b50565b60008135610f8381610f5f565b80915050919050565b60008160001b9050919050565b600067ffffffffffffffff610fad84610f8c565b9350801983169250808416831791505092915050565b6000610fde610fd9610fd484610f4b565b61080b565b610f4b565b9050919050565b6000819050919050565b610ff882610fc3565b61100b61100482610fe5565b8354610f99565b8255505050565b61101b816105bb565b811461102657600080fd5b50565b6000813561103681611012565b80915050919050565b60008160401b9050919050565b60007bffffffffffffffffffffffffffffffffffffffff00000000000000006110748461103f565b9350801983169250808416831791505092915050565b60006110a56110a061109b8461059b565b61080b565b61059b565b9050919050565b60006110b78261108a565b9050919050565b60006110c9826110ac565b9050919050565b6000819050919050565b6110e3826110be565b6110f66110ef826110d0565b835461104c565b8255505050565b600073ffffffffffffffffffffffffffffffffffffffff61111d84610f8c565b9350801983169250808416831791505092915050565b61113c826110be565b61114f611148826110d0565b83546110fd565b8255505050565b60008160a01b9050919050565b60007bffffffffffffffff000000000000000000000000000000000000000061118b84611156565b9350801983169250808416831791505092915050565b6111aa82610fc3565b6111bd6111b682610fe5565b8354611163565b8255505050565b6111cd81610705565b81146111d857600080fd5b50565b600081356111e8816111c4565b80915050919050565b60007fffffffffffffffffffffffffffffffffffffffffffffffffffffffffffffffff61121d84610f8c565b9350801983169250808416831791505092915050565b61123c82610815565b61124f61124882610837565b83546111f1565b8255505050565b61125f81610490565b811461126a57600080fd5b50565b6000813561127a81611256565b80915050919050565b600060ff61129084610f8c565b9350801983169250808416831791505092915050565b60006112b182610490565b9050919050565b6000819050919050565b6112cb826112a6565b6112de6112d7826112b8565b8354611283565b8255505050565b60008160081b9050919050565b600068ffffffffffffffff00611307846112e5565b9350801983169250808416831791505092915050565b61132682610fc3565b61133961133282610fe5565b83546112f2565b8255505050565b60008160481b9050919050565b60007cffffffffffffffffffffffffffffffffffffffff00000000000000000061137684611340565b9350801983169250808416831791505092915050565b611395826110be565b6113a86113a1826110d0565b835461134d565b8255505050565b600080833560016020038436030381126113cc576113cb610626565b5b80840192508235915067ffffffffffffffff8211156113ee576113ed61062b565b5b60208301925060018202360383131561140a57611409610630565b5b509250929050565b600082905092915050565b601f82111561145e5761142f816108e3565b611438846109be565b81016020851015611447578190505b61145b611453856109be565b830182610940565b50505b505050565b61146d8383611412565b67ffffffffffffffff811115611486576114856106cb565b5b61149082546108b2565b61149b82828561141d565b6000601f8311600181146114ca57600084156114b8578287013590505b6114c28582610981565b86555061152a565b601f1984166114d8866108e3565b60005b82811015611500578489013582556001820191506020850194506020810190506114db565b8683101561151d5784890135611519601f891682610963565b8355505b6001600288020188555050505b50505050505050565b61153e838383611463565b505050565b600080833560016020038436030381126115605761155f610626565b5b80840192508235915067ffffffffffffffff8211156115825761158161062b565b5b60208301925060408202360383131561159e5761159d610630565b5b509250929050565b6000819050919050565b600082905092915050565b6000810160008301806115cd81611029565b90506115d98184611133565b5050506001810160208301806115ee816111db565b90506115fa8184611233565b5050505050565b61160b82826115bb565b5050565b61161983836115b0565b6116238183610c49565b61162c836115a6565b61163583610b9e565b60005b83811015611663578261164b8184611601565b60408401935060028301925050600181019050611638565b50505050505050565b61167783838361160f565b505050565b6000808335600160200384360303811261169957611698610626565b5b80840192508235915067ffffffffffffffff8211156116bb576116ba61062b565b5b6020830192506020820236038313156116d7576116d6610630565b5b509250929050565b6000819050919050565b600082905092915050565b6116fe83836116e9565b6117088183610d41565b611711836116df565b61171a83610ccb565b60005b838110156117535761172f83876113af565b61173a818386611533565b602085019450600184019350505060018101905061171d565b50505050505050565b6117678383836116f4565b505050565b61177581610da3565b811461178057600080fd5b50565b600081356117908161176c565b80915050919050565b6117a282610dad565b6117b56117ae82610dcc565b83546111f1565b8255505050565b6000810160008301806117ce81610f76565b90506117da8184610fef565b5050506000810160208301806117ef81611029565b90506117fb81846110da565b50505060018101604083018061181081611029565b905061181c8184611133565b50505060018101606083018061183181610f76565b905061183d81846111a1565b505050600281016080830180611852816111db565b905061185e8184611233565b5050506003810160a08301806118738161126d565b905061187f81846112c2565b5050506003810160c083018061189481610f76565b90506118a0818461131d565b5050506003810160e08301806118b581611029565b90506118c1818461138c565b505050600481016101008301806118d7816111db565b90506118e38184611233565b5050506005810161012083016118f981856113af565b611904818386611533565b5050505060068101610140830161191b8185611543565b61192681838661166c565b5050505060078101610160830161193d818561167c565b61194881838661175c565b505050506008810161018083018061195f81611783565b905061196b8184611799565b5050505050565b61197c82826117bc565b5050565b61198a8383610f40565b6119948183610f0a565b61199d83610698565b6119a683610797565b60005b838110156119dd576119bb83876106a2565b6119c58184611972565b602084019350600983019250506001810190506119a9565b50505050505050565b6119f1838383611980565b505050565b60008083356001602003843603038112611a1357611a12610626565b5b80840192508235915067ffffffffffffffff821115611a3557611a3461062b565b5b602083019250602082023603831315611a5157611a50610630565b5b509250929050565b6000819050919050565b600081549050919050565b60008190506001806001038301049050919050565b60008190508160005260206000209050919050565b5b81811015611ab757611aac600082610d85565b600181019050611a99565b5050565b81831015611af457611acc82611a6e565b611ad584611a6e565b611ade83611a83565b818101838201611aee8183611a98565b50505050505b505050565b68010000000000000000821115611b1357611b126106cb565b5b611b1c81611a63565b828255611b2a838284611abb565b505050565b600082905092915050565b611b448383611b2f565b611b4e8183611af9565b611b5783611a59565b611b6083611a83565b60005b83811015611b9957611b75838761167c565b611b8081838661175c565b6020850194506001840193505050600181019050611b63565b50505050505050565b611bad838383611b3a565b505050565b60008083356001602003843603038112611bcf57611bce610626565b5b80840192508235915067ffffffffffffffff821115611bf157611bf061062b565b5b602083019250602082023603831315611c0d57611c0c610630565b5b509250929050565b600081549050919050565b60008190506001806001038301049050919050565b60008190508160005260206000209050919050565b5b81811015611c6957611c5e600082610e08565b600181019050611c4b565b5050565b81831015611ca657611c7e82611c20565b611c8784611c20565b611c9083611c35565b818101838201611ca08183611c4a565b50505050505b505050565b68010000000000000000821115611cc557611cc46106cb565b5b611cce81611c15565b828255611cdc838284611c6d565b505050565b600082905092915050565b6000819050919050565b6000819050919050565b611d0a8383611ce1565b67ffffffffffffffff811115611d2357611d226106cb565b5b611d2d8183611cab565b611d3683611cec565b611d3f83611c35565b6001830460005b81811015611d7e576000611d5985611783565b611d6281610dcc565b8092506020870196505050808285015550600181019050611d46565b5050505050505050565b611d93838383611d00565b505050565b6000810160008301611daa8185610635565b611db58183866119e6565b505050506001810160208301611dcb81856119f6565b611dd6818386611ba2565b505050506002810160408301611dec8185611bb2565b611df7818386611d88565b50505050600381016060830180611e0d816111db565b9050611e198184611233565b5050505050565b611e2a8282611d98565b5050565b600080fd5b6000601f19601f8301169050919050565b611e4d82611e33565b810181811067ffffffffffffffff82111715611e6c57611e6b6106cb565b5b80604052505050565b6000611e7f6103f7565b9050611e8b8282611e44565b919050565b600080fd5b600081359050611ea48161176c565b92915050565b600081359050611eb981610f5f565b92915050565b600080fd5b600080fd5b600067ffffffffffffffff821115611ee457611ee36106cb565b5b611eed82611e33565b9050602081019050919050565b82818337600083830152505050565b6000611f1c611f1784611ec9565b611e75565b905082815260208101848484011115611f3857611f37611ec4565b5b611f43848285611efa565b509392505050565b600082601f830112611f6057611f5f611ebf565b5b8135611f70848260208601611f09565b91505092915050565b600067ffffffffffffffff821115611f9457611f936106cb565b5b602082029050602081019050919050565b600080fd5b600081359050611fb981611012565b92915050565b600081359050611fce816111c4565b92915050565b600060408284031215611fea57611fe9611e2e565b5b611ff46040611e75565b9050600061200484828501611faa565b600083015250602061201884828501611fbf565b60208301525092915050565b600061203761203284611f79565b611e75565b9050808382526020820190506040840283018581111561205a57612059611fa5565b5b835b81811015612083578061206f8882611fd4565b84526020840193505060408101905061205c565b5050509392505050565b600082601f8301126120a2576120a1611ebf565b5b81356120b2848260208601612024565b91505092915050565b600060a082840312156120d1576120d0611e2e565b5b6120db60a0611e75565b905060006120eb84828501611e95565b60008301525060206120ff84828501611eaa565b602083015250604082013567ffffffffffffffff81111561212357612122611e90565b5b61212f84828501611f4b565b604083015250606082013567ffffffffffffffff81111561215357612152611e90565b5b61215f84828501611f4b565b606083015250608082013567ffffffffffffffff81111561218357612182611e90565b5b61218f8482850161208d565b60808301525092915050565b60006121a736836120bb565b9050919050565b7f4e487b7100000000000000000000000000000000000000000000000000000000600052603260045260246000fd5b600082825260208201905092915050565b600067ffffffffffffffff82169050919050565b600061221561221083610dbf565b6121ee565b9050919050565b61222581610f4b565b82525050565b60008160401c9050919050565b600073ffffffffffffffffffffffffffffffffffffffff82169050919050565b600061226b6122668361222b565b612238565b9050919050565b61227b816105bb565b82525050565b600061229461228f83610dbf565b612238565b9050919050565b60008160a01c9050919050565b60006122bb6122b68361229b565b6121ee565b9050919050565b6000819050919050565b60006122df6122da83610dbf565b6122c2565b9050919050565b6122ef81610705565b82525050565b600060ff82169050919050565b600061231561231083610dbf565b6122f5565b9050919050565b61232581610490565b82525050565b60008160081c9050919050565b600061234b6123468361232b565b6121ee565b9050919050565b60008160481c9050919050565b600061237261236d83612352565b612238565b9050919050565b600082825260208201905092915050565b60008154612397816108b2565b6123a18186612379565b945060018216600081146123bc57600181146123d257612405565b60ff198316865281151560200286019350612405565b6123db856108e3565b60005b838110156123fd578154818901526001820191506020810190506123de565b808801955050505b50505092915050565b600082825260208201905092915050565b60408201600080830154905061243481612281565b6124416000860182612272565b5060018301549050612452816122cc565b61245f60208601826122e6565b5050505050565b6000612472838361241f565b60408301905092915050565b6000600282019050919050565b600061249682610b7c565b6124a0818561240e565b93506124ab83610b9e565b8060005b838110156124db57816124c28882612466565b97506124cd8361247e565b9250506001810190506124af565b5085935050505092915050565b600082825260208201905092915050565b6000612505838361238a565b905092915050565b6000600182019050919050565b600061252582610cab565b61252f81856124e8565b93508360208202850161254185610ccb565b8060005b8581101561257c5784840389528161255d85826124f9565b94506125688361250d565b925060208a01995050600181019050612545565b50829750879550505050505092915050565b60006125a161259c83610dbf565b611cf6565b9050919050565b6125b181610da3565b82525050565b60006101a0830160008084015490506125cf81612202565b6125dc600087018261221c565b506125e681612258565b6125f36020870182612272565b506001840154905061260481612281565b6126116040870182612272565b5061261b816122a8565b612628606087018261221c565b5060028401549050612639816122cc565b61264660808701826122e6565b506003840154905061265781612302565b61266460a087018261231c565b5061266e81612338565b61267b60c087018261221c565b506126858161235f565b61269260e0870182612272565b50600484015490506126a3816122cc565b6126b16101008701826122e6565b50600584018583036101208701526126c9838261238a565b925050600684018583036101408701526126e3838261248b565b925050600784018583036101608701526126fd838261251a565b925050600884015490506127108161258e565b61271e6101808701826125a8565b50819250505092915050565b600061273683836125b7565b905092915050565b6000600982019050919050565b6000612756826106fa565b61276081856121dd565b93508360208202850161277285610797565b8060005b858110156127ad5784840389528161278e858261272a565b94506127998361273e565b925060208a01995050600181019050612776565b50829750879550505050505092915050565b600082825260208201905092915050565b60006127dc838361251a565b905092915050565b6000600182019050919050565b60006127fc82611a63565b61280681856127bf565b93508360208202850161281885611a83565b8060005b858110156128535784840389528161283485826127d0565b945061283f836127e4565b925060208a0199505060018101905061281c565b50829750879550505050505092915050565b600082825260208201905092915050565b600061288283836125a8565b60208301905092915050565b600061289a825461258e565b9050919050565b6000600182019050919050565b60006128b982611c15565b6128c38185612865565b93506128ce83611c35565b8060005b83811015612906576128e38261288e565b6128ed8882612876565b97506128f8836128a1565b9250506001810190506128d2565b5085935050505092915050565b60006080830160008084018583036000870152612930838261274b565b92505060018401858303602087015261294983826127f1565b92505060028401858303604087015261296283826128ae565b92505060038401549050612975816122cc565b61298260608701826122e6565b50819250505092915050565b600081519050919050565b600082825260208201905092915050565b6000819050602082019050919050565b60006129c683836122e6565b60208301905092915050565b6000602082019050919050565b60006129ea8261298e565b6129f48185612999565b93506129ff836129aa565b8060005b83811015612a30578151612a1788826129ba565b9750612a22836129d2565b925050600181019050612a03565b5085935050505092915050565b60006040820190508181036000830152612a578185612913565b90508181036020830152612a6b81846129df565b9050939250505056fea164736f6c6343000818000a","linkReferences":{}},"methodIdentifiers":{"ccipReceive((bytes32,uint64,bytes,bytes,(address,uint256)[]))":"85572ffb","getRouter()":"b0f479a1","setPayload(((uint64,address,address,uint64,uint256,bool,uint64,address,uint256,bytes,(address,uint256)[],bytes[],bytes32)[],bytes[][],bytes32[],uint256))":"70a0b01c","supportsInterface(bytes4)":"01ffc9a7"},"id":100}