{"abi":[{"type":"function","name":"GAS_PRICE_BITS","inputs":[],"outputs":[{"name":"","type":"uint8","internalType":"uint8"}],"stateMutability":"view"},{"type":"function","name":"MESSAGE_FIXED_BYTES","inputs":[],"outputs":[{"name":"","type":"uint256","internalType":"uint256"}],"stateMutability":"view"},{"type":"function","name":"MESSAGE_FIXED_BYTES_PER_TOKEN","inputs":[],"outputs":[{"name":"","type":"uint256","internalType":"uint256"}],"stateMutability":"view"},{"type":"function","name":"PRECOMPILE_SPACE","inputs":[],"outputs":[{"name":"","type":"uint256","internalType":"uint256"}],"stateMutability":"view"},{"type":"error","name":"InvalidEVMAddress","inputs":[{"name":"encodedAddress","type":"bytes","internalType":"bytes"}]}],"bytecode":{"object":"0x610161610053600b82828239805160001a607314610046577f4e487b7100000000000000000000000000000000000000000000000000000000600052600060045260246000fd5b30600052607381538281f3fe73000000000000000000000000000000000000000030146080604052600436106100565760003560e01c806318994e7a1461005b5780637a4bb23214610079578063dc47c58b14610097578063e5fb5652146100b5575b600080fd5b6100636100d3565b6040516100709190610102565b60405180910390f35b6100816100d9565b60405161008e9190610139565b60405180910390f35b61009f6100de565b6040516100ac9190610102565b60405180910390f35b6100bd6100e3565b6040516100ca9190610102565b60405180910390f35b61022081565b607081565b608081565b61040081565b6000819050919050565b6100fc816100e9565b82525050565b600060208201905061011760008301846100f3565b92915050565b600060ff82169050919050565b6101338161011d565b82525050565b600060208201905061014e600083018461012a565b9291505056fea164736f6c6343000818000a","linkReferences":{}},"methodIdentifiers":{"GAS_PRICE_BITS()":"7a4bb232","MESSAGE_FIXED_BYTES()":"18994e7a","MESSAGE_FIXED_BYTES_PER_TOKEN()":"dc47c58b","PRECOMPILE_SPACE()":"e5fb5652"},"id":30}