{"abi":[{"type":"constructor","inputs":[{"name":"token","type":"address","internalType":"contract IBurnMintERC20"},{"name":"allowlist","type":"address[]","internalType":"address[]"},{"name":"rmnProxy","type":"address","internalType":"address"},{"name":"router","type":"address","internalType":"address"}],"stateMutability":"nonpayable"},{"type":"function","name":"acceptOwnership","inputs":[],"outputs":[],"stateMutability":"nonpayable"},{"type":"function","name":"applyAllowListUpdates","inputs":[{"name":"removes","type":"address[]","internalType":"address[]"},{"name":"adds","type":"address[]","internalType":"address[]"}],"outputs":[],"stateMutability":"nonpayable"},{"type":"function","name":"applyChainUpdates","inputs":[{"name":"chains","type":"tuple[]","internalType":"struct TokenPool.ChainUpdate[]","components":[{"name":"remoteChainSelector","type":"uint64","internalType":"uint64"},{"name":"allowed","type":"bool","internalType":"bool"},{"name":"remotePoolAddress","type":"bytes","internalType":"bytes"},{"name":"remoteTokenAddress","type":"bytes","internalType":"bytes"},{"name":"outboundRateLimiterConfig","type":"tuple","internalType":"struct RateLimiter.Config","components":[{"name":"isEnabled","type":"bool","internalType":"bool"},{"name":"capacity","type":"uint128","internalType":"uint128"},{"name":"rate","type":"uint128","internalType":"uint128"}]},{"name":"inboundRateLimiterConfig","type":"tuple","internalType":"struct RateLimiter.Config","components":[{"name":"isEnabled","type":"bool","internalType":"bool"},{"name":"capacity","type":"uint128","internalType":"uint128"},{"name":"rate","type":"uint128","internalType":"uint128"}]}]}],"outputs":[],"stateMutability":"nonpayable"},{"type":"function","name":"getAllowList","inputs":[],"outputs":[{"name":"","type":"address[]","internalType":"address[]"}],"stateMutability":"view"},{"type":"function","name":"getAllowListEnabled","inputs":[],"outputs":[{"name":"","type":"bool","internalType":"bool"}],"stateMutability":"view"},{"type":"function","name":"getCurrentInboundRateLimiterState","inputs":[{"name":"remoteChainSelector","type":"uint64","internalType":"uint64"}],"outputs":[{"name":"","type":"tuple","internalType":"struct RateLimiter.TokenBucket","components":[{"name":"tokens","type":"uint128","internalType":"uint128"},{"name":"lastUpdated","type":"uint32","internalType":"uint32"},{"name":"isEnabled","type":"bool","internalType":"bool"},{"name":"capacity","type":"uint128","internalType":"uint128"},{"name":"rate","type":"uint128","internalType":"uint128"}]}],"stateMutability":"view"},{"type":"function","name":"getCurrentOutboundRateLimiterState","inputs":[{"name":"remoteChainSelector","type":"uint64","internalType":"uint64"}],"outputs":[{"name":"","type":"tuple","internalType":"struct RateLimiter.TokenBucket","components":[{"name":"tokens","type":"uint128","internalType":"uint128"},{"name":"lastUpdated","type":"uint32","internalType":"uint32"},{"name":"isEnabled","type":"bool","internalType":"bool"},{"name":"capacity","type":"uint128","internalType":"uint128"},{"name":"rate","type":"uint128","internalType":"uint128"}]}],"stateMutability":"view"},{"type":"function","name":"getRemotePool","inputs":[{"name":"remoteChainSelector","type":"uint64","internalType":"uint64"}],"outputs":[{"name":"","type":"bytes","internalType":"bytes"}],"stateMutability":"view"},{"type":"function","name":"getRemoteToken","inputs":[{"name":"remoteChainSelector","type":"uint64","internalType":"uint64"}],"outputs":[{"name":"","type":"bytes","internalType":"bytes"}],"stateMutability":"view"},{"type":"function","name":"getRmnProxy","inputs":[],"outputs":[{"name":"rmnProxy","type":"address","internalType":"address"}],"stateMutability":"view"},{"type":"function","name":"getRouter","inputs":[],"outputs":[{"name":"router","type":"address","internalType":"address"}],"stateMutability":"view"},{"type":"function","name":"getSupportedChains","inputs":[],"outputs":[{"name":"","type":"uint64[]","internalType":"uint64[]"}],"stateMutability":"view"},{"type":"function","name":"getToken","inputs":[],"outputs":[{"name":"token","type":"address","internalType":"contract IERC20"}],"stateMutability":"view"},{"type":"function","name":"isSupportedChain","inputs":[{"name":"remoteChainSelector","type":"uint64","internalType":"uint64"}],"outputs":[{"name":"","type":"bool","internalType":"bool"}],"stateMutability":"view"},{"type":"function","name":"isSupportedToken","inputs":[{"name":"token","type":"address","internalType":"address"}],"outputs":[{"name":"","type":"bool","internalType":"bool"}],"stateMutability":"view"},{"type":"function","name":"lockOrBurn","inputs":[{"name":"lockOrBurnIn","type":"tuple","internalType":"struct Pool.LockOrBurnInV1","components":[{"name":"receiver","type":"bytes","internalType":"bytes"},{"name":"remoteChainSelector","type":"uint64","internalType":"uint64"},{"name":"originalSender","type":"address","internalType":"address"},{"name":"amount","type":"uint256","internalType":"uint256"},{"name":"localToken","type":"address","internalType":"address"}]}],"outputs":[{"name":"","type":"tuple","internalType":"struct Pool.LockOrBurnOutV1","components":[{"name":"destTokenAddress","type":"bytes","internalType":"bytes"},{"name":"destPoolData","type":"bytes","internalType":"bytes"}]}],"stateMutability":"nonpayable"},{"type":"function","name":"owner","inputs":[],"outputs":[{"name":"","type":"address","internalType":"address"}],"stateMutability":"view"},{"type":"function","name":"releaseOrMint","inputs":[{"name":"releaseOrMintIn","type":"tuple","internalType":"struct Pool.ReleaseOrMintInV1","components":[{"name":"originalSender","type":"bytes","internalType":"bytes"},{"name":"remoteChainSelector","type":"uint64","internalType":"uint64"},{"name":"receiver","type":"address","internalType":"address"},{"name":"amount","type":"uint256","internalType":"uint256"},{"name":"localToken","type":"address","internalType":"address"},{"name":"sourcePoolAddress","type":"bytes","internalType":"bytes"},{"name":"sourcePoolData","type":"bytes","internalType":"bytes"},{"name":"offchainTokenData","type":"bytes","internalType":"bytes"}]}],"outputs":[{"name":"","type":"tuple","internalType":"struct Pool.ReleaseOrMintOutV1","components":[{"name":"destinationAmount","type":"uint256","internalType":"uint256"}]}],"stateMutability":"nonpayable"},{"type":"function","name":"setChainRateLimiterConfig","inputs":[{"name":"remoteChainSelector","type":"uint64","internalType":"uint64"},{"name":"outboundConfig","type":"tuple","internalType":"struct RateLimiter.Config","components":[{"name":"isEnabled","type":"bool","internalType":"bool"},{"name":"capacity","type":"uint128","internalType":"uint128"},{"name":"rate","type":"uint128","internalType":"uint128"}]},{"name":"inboundConfig","type":"tuple","internalType":"struct RateLimiter.Config","components":[{"name":"isEnabled","type":"bool","internalType":"bool"},{"name":"capacity","type":"uint128","internalType":"uint128"},{"name":"rate","type":"uint128","internalType":"uint128"}]}],"outputs":[],"stateMutability":"nonpayable"},{"type":"function","name":"setRemotePool","inputs":[{"name":"remoteChainSelector","type":"uint64","internalType":"uint64"},{"name":"remotePoolAddress","type":"bytes","internalType":"bytes"}],"outputs":[],"stateMutability":"nonpayable"},{"type":"function","name":"setRouter","inputs":[{"name":"newRouter","type":"address","internalType":"address"}],"outputs":[],"stateMutability":"nonpayable"},{"type":"function","name":"supportsInterface","inputs":[{"name":"interfaceId","type":"bytes4","internalType":"bytes4"}],"outputs":[{"name":"","type":"bool","internalType":"bool"}],"stateMutability":"pure"},{"type":"function","name":"transferOwnership","inputs":[{"name":"to","type":"address","internalType":"address"}],"outputs":[],"stateMutability":"nonpayable"},{"type":"function","name":"typeAndVersion","inputs":[],"outputs":[{"name":"","type":"string","internalType":"string"}],"stateMutability":"view"},{"type":"event","name":"AllowListAdd","inputs":[{"name":"sender","type":"address","indexed":false,"internalType":"address"}],"anonymous":false},{"type":"event","name":"AllowListRemove","inputs":[{"name":"sender","type":"address","indexed":false,"internalType":"address"}],"anonymous":false},{"type":"event","name":"Burned","inputs":[{"name":"sender","type":"address","indexed":true,"internalType":"address"},{"name":"amount","type":"uint256","indexed":false,"internalType":"uint256"}],"anonymous":false},{"type":"event","name":"ChainAdded","inputs":[{"name":"remoteChainSelector","type":"uint64","indexed":false,"internalType":"uint64"},{"name":"remoteToken","type":"bytes","indexed":false,"internalType":"bytes"},{"name":"outboundRateLimiterConfig","type":"tuple","indexed":false,"internalType":"struct RateLimiter.Config","components":[{"name":"isEnabled","type":"bool","internalType":"bool"},{"name":"capacity","type":"uint128","internalType":"uint128"},{"name":"rate","type":"uint128","internalType":"uint128"}]},{"name":"inboundRateLimiterConfig","type":"tuple","indexed":false,"internalType":"struct RateLimiter.Config","components":[{"name":"isEnabled","type":"bool","internalType":"bool"},{"name":"capacity","type":"uint128","internalType":"uint128"},{"name":"rate","type":"uint128","internalType":"uint128"}]}],"anonymous":false},{"type":"event","name":"ChainConfigured","inputs":[{"name":"remoteChainSelector","type":"uint64","indexed":false,"internalType":"uint64"},{"name":"outboundRateLimiterConfig","type":"tuple","indexed":false,"internalType":"struct RateLimiter.Config","components":[{"name":"isEnabled","type":"bool","internalType":"bool"},{"name":"capacity","type":"uint128","internalType":"uint128"},{"name":"rate","type":"uint128","internalType":"uint128"}]},{"name":"inboundRateLimiterConfig","type":"tuple","indexed":false,"internalType":"struct RateLimiter.Config","components":[{"name":"isEnabled","type":"bool","internalType":"bool"},{"name":"capacity","type":"uint128","internalType":"uint128"},{"name":"rate","type":"uint128","internalType":"uint128"}]}],"anonymous":false},{"type":"event","name":"ChainRemoved","inputs":[{"name":"remoteChainSelector","type":"uint64","indexed":false,"internalType":"uint64"}],"anonymous":false},{"type":"event","name":"ConfigChanged","inputs":[{"name":"config","type":"tuple","indexed":false,"internalType":"struct RateLimiter.Config","components":[{"name":"isEnabled","type":"bool","internalType":"bool"},{"name":"capacity","type":"uint128","internalType":"uint128"},{"name":"rate","type":"uint128","internalType":"uint128"}]}],"anonymous":false},{"type":"event","name":"Locked","inputs":[{"name":"sender","type":"address","indexed":true,"internalType":"address"},{"name":"amount","type":"uint256","indexed":false,"internalType":"uint256"}],"anonymous":false},{"type":"event","name":"Minted","inputs":[{"name":"sender","type":"address","indexed":true,"internalType":"address"},{"name":"recipient","type":"address","indexed":true,"internalType":"address"},{"name":"amount","type":"uint256","indexed":false,"internalType":"uint256"}],"anonymous":false},{"type":"event","name":"OwnershipTransferRequested","inputs":[{"name":"from","type":"address","indexed":true,"internalType":"address"},{"name":"to","type":"address","indexed":true,"internalType":"address"}],"anonymous":false},{"type":"event","name":"OwnershipTransferred","inputs":[{"name":"from","type":"address","indexed":true,"internalType":"address"},{"name":"to","type":"address","indexed":true,"internalType":"address"}],"anonymous":false},{"type":"event","name":"Released","inputs":[{"name":"sender","type":"address","indexed":true,"internalType":"address"},{"name":"recipient","type":"address","indexed":true,"internalType":"address"},{"name":"amount","type":"uint256","indexed":false,"internalType":"uint256"}],"anonymous":false},{"type":"event","name":"RemotePoolSet","inputs":[{"name":"remoteChainSelector","type":"uint64","indexed":true,"internalType":"uint64"},{"name":"previousPoolAddress","type":"bytes","indexed":false,"internalType":"bytes"},{"name":"remotePoolAddress","type":"bytes","indexed":false,"internalType":"bytes"}],"anonymous":false},{"type":"event","name":"RouterUpdated","inputs":[{"name":"oldRouter","type":"address","indexed":false,"internalType":"address"},{"name":"newRouter","type":"address","indexed":false,"internalType":"address"}],"anonymous":false},{"type":"event","name":"TokensConsumed","inputs":[{"name":"tokens","type":"uint256","indexed":false,"internalType":"uint256"}],"anonymous":false},{"type":"error","name":"AggregateValueMaxCapacityExceeded","inputs":[{"name":"capacity","type":"uint256","internalType":"uint256"},{"name":"requested","type":"uint256","internalType":"uint256"}]},{"type":"error","name":"AggregateValueRateLimitReached","inputs":[{"name":"minWaitInSeconds","type":"uint256","internalType":"uint256"},{"name":"available","type":"uint256","internalType":"uint256"}]},{"type":"error","name":"AllowListNotEnabled","inputs":[]},{"type":"error","name":"BucketOverfilled","inputs":[]},{"type":"error","name":"CallerIsNotARampOnRouter","inputs":[{"name":"caller","type":"address","internalType":"address"}]},{"type":"error","name":"ChainAlreadyExists","inputs":[{"name":"chainSelector","type":"uint64","internalType":"uint64"}]},{"type":"error","name":"ChainNotAllowed","inputs":[{"name":"remoteChainSelector","type":"uint64","internalType":"uint64"}]},{"type":"error","name":"CursedByRMN","inputs":[]},{"type":"error","name":"DisabledNonZeroRateLimit","inputs":[{"name":"config","type":"tuple","internalType":"struct RateLimiter.Config","components":[{"name":"isEnabled","type":"bool","internalType":"bool"},{"name":"capacity","type":"uint128","internalType":"uint128"},{"name":"rate","type":"uint128","internalType":"uint128"}]}]},{"type":"error","name":"InvalidRateLimitRate","inputs":[{"name":"rateLimiterConfig","type":"tuple","internalType":"struct RateLimiter.Config","components":[{"name":"isEnabled","type":"bool","internalType":"bool"},{"name":"capacity","type":"uint128","internalType":"uint128"},{"name":"rate","type":"uint128","internalType":"uint128"}]}]},{"type":"error","name":"InvalidSourcePoolAddress","inputs":[{"name":"sourcePoolAddress","type":"bytes","internalType":"bytes"}]},{"type":"error","name":"InvalidToken","inputs":[{"name":"token","type":"address","internalType":"address"}]},{"type":"error","name":"NonExistentChain","inputs":[{"name":"remoteChainSelector","type":"uint64","internalType":"uint64"}]},{"type":"error","name":"RateLimitMustBeDisabled","inputs":[]},{"type":"error","name":"SenderNotAllowed","inputs":[{"name":"sender","type":"address","internalType":"address"}]},{"type":"error","name":"TokenMaxCapacityExceeded","inputs":[{"name":"capacity","type":"uint256","internalType":"uint256"},{"name":"requested","type":"uint256","internalType":"uint256"},{"name":"tokenAddress","type":"address","internalType":"address"}]},{"type":"error","name":"TokenRateLimitReached","inputs":[{"name":"minWaitInSeconds","type":"uint256","internalType":"uint256"},{"name":"available","type":"uint256","internalType":"uint256"},{"name":"tokenAddress","type":"address","internalType":"address"}]},{"type":"error","name":"ZeroAddressNotAllowed","inputs":[]}],"bytecode":{"object":"0x60e06040523480156200001157600080fd5b5060405162005aec38038062005aec833981810160405281019062000037919062000a76565b83838383338060008073ffffffffffffffffffffffffffffffffffffffff168273ffffffffffffffffffffffffffffffffffffffff1603620000b0576040517f08c379a0000000000000000000000000000000000000000000000000000000008152600401620000a79062000b68565b60405180910390fd5b816000806101000a81548173ffffffffffffffffffffffffffffffffffffffff021916908373ffffffffffffffffffffffffffffffffffffffff160217905550600073ffffffffffffffffffffffffffffffffffffffff168173ffffffffffffffffffffffffffffffffffffffff1614620001375762000136816200034260201b60201c565b5b505050600073ffffffffffffffffffffffffffffffffffffffff168473ffffffffffffffffffffffffffffffffffffffff161480620001a25750600073ffffffffffffffffffffffffffffffffffffffff168173ffffffffffffffffffffffffffffffffffffffff16145b80620001da5750600073ffffffffffffffffffffffffffffffffffffffff168273ffffffffffffffffffffffffffffffffffffffff16145b1562000212576040517f8579befe00000000000000000000000000000000000000000000000000000000815260040160405180910390fd5b8373ffffffffffffffffffffffffffffffffffffffff1660808173ffffffffffffffffffffffffffffffffffffffff16815250508173ffffffffffffffffffffffffffffffffffffffff1660a08173ffffffffffffffffffffffffffffffffffffffff168152505080600460006101000a81548173ffffffffffffffffffffffffffffffffffffffff021916908373ffffffffffffffffffffffffffffffffffffffff1602179055506000835111151560c08115158152505060c05115620003345762000333600067ffffffffffffffff811115620002f657620002f5620008e6565b5b604051908082528060200260200182016040528015620003255781602001602082028036833780820191505090505b50846200047160201b60201c565b5b505050505050505062000cfc565b3373ffffffffffffffffffffffffffffffffffffffff168173ffffffffffffffffffffffffffffffffffffffff1603620003b3576040517f08c379a0000000000000000000000000000000000000000000000000000000008152600401620003aa9062000bda565b60405180910390fd5b80600160006101000a81548173ffffffffffffffffffffffffffffffffffffffff021916908373ffffffffffffffffffffffffffffffffffffffff1602179055508073ffffffffffffffffffffffffffffffffffffffff1660008054906101000a900473ffffffffffffffffffffffffffffffffffffffff1673ffffffffffffffffffffffffffffffffffffffff167fed8889f560326eb138920d842192f0eb3dd22b4f139c87a2c57538e05bae127860405160405180910390a350565b60c051620004ab576040517f35f4a7b300000000000000000000000000000000000000000000000000000000815260040160405180910390fd5b60005b82518110156200053d576000838281518110620004d057620004cf62000bfc565b5b60200260200101519050620004f08160026200061260201b90919060201c565b1562000530577f800671136ab6cfee9fbe5ed1fb7ca417811aca3cf864800d127b927adedf75668160405162000527919062000c3c565b60405180910390a15b50806001019050620004ae565b5060005b81518110156200060d57600082828151811062000563576200056262000bfc565b5b60200260200101519050600073ffffffffffffffffffffffffffffffffffffffff168173ffffffffffffffffffffffffffffffffffffffff1603620005a9575062000601565b620005bf8160026200064a60201b90919060201c565b15620005ff577f2640d4d76caf8bf478aabfa982fa4e1c4eb71a37f93cd15e80dbc657911546d881604051620005f6919062000c3c565b60405180910390a15b505b80600101905062000541565b505050565b600062000642836000018373ffffffffffffffffffffffffffffffffffffffff1660001b6200068260201b60201c565b905092915050565b60006200067a836000018373ffffffffffffffffffffffffffffffffffffffff1660001b620007a660201b60201c565b905092915050565b600080836001016000848152602001908152602001600020549050600081146200079a576000600182620006b7919062000c92565b9050600060018660000180549050620006d1919062000c92565b905081811462000747576000866000018281548110620006f657620006f562000bfc565b5b90600052602060002001549050808760000184815481106200071d576200071c62000bfc565b5b90600052602060002001819055508387600101600083815260200190815260200160002081905550505b856000018054806200075e576200075d62000ccd565b5b600190038181906000526020600020016000905590558560010160008681526020019081526020016000206000905560019350505050620007a0565b60009150505b92915050565b6000620007ba83836200082060201b60201c565b620008155782600001829080600181540180825580915050600190039060005260206000200160009091909190915055826000018054905083600101600084815260200190815260200160002081905550600190506200081a565b600090505b92915050565b600080836001016000848152602001908152602001600020541415905092915050565b6000604051905090565b600080fd5b600080fd5b600073ffffffffffffffffffffffffffffffffffffffff82169050919050565b6000620008848262000857565b9050919050565b6000620008988262000877565b9050919050565b620008aa816200088b565b8114620008b657600080fd5b50565b600081519050620008ca816200089f565b92915050565b600080fd5b6000601f19601f8301169050919050565b7f4e487b7100000000000000000000000000000000000000000000000000000000600052604160045260246000fd5b6200092082620008d5565b810181811067ffffffffffffffff82111715620009425762000941620008e6565b5b80604052505050565b60006200095762000843565b905062000965828262000915565b919050565b600067ffffffffffffffff821115620009885762000987620008e6565b5b602082029050602081019050919050565b600080fd5b620009a98162000877565b8114620009b557600080fd5b50565b600081519050620009c9816200099e565b92915050565b6000620009e6620009e0846200096a565b6200094b565b9050808382526020820190506020840283018581111562000a0c5762000a0b62000999565b5b835b8181101562000a39578062000a248882620009b8565b84526020840193505060208101905062000a0e565b5050509392505050565b600082601f83011262000a5b5762000a5a620008d0565b5b815162000a6d848260208601620009cf565b91505092915050565b6000806000806080858703121562000a935762000a926200084d565b5b600062000aa387828801620008b9565b945050602085015167ffffffffffffffff81111562000ac75762000ac662000852565b5b62000ad58782880162000a43565b935050604062000ae887828801620009b8565b925050606062000afb87828801620009b8565b91505092959194509250565b600082825260208201905092915050565b7f43616e6e6f7420736574206f776e657220746f207a65726f0000000000000000600082015250565b600062000b5060188362000b07565b915062000b5d8262000b18565b602082019050919050565b6000602082019050818103600083015262000b838162000b41565b9050919050565b7f43616e6e6f74207472616e7366657220746f2073656c66000000000000000000600082015250565b600062000bc260178362000b07565b915062000bcf8262000b8a565b602082019050919050565b6000602082019050818103600083015262000bf58162000bb3565b9050919050565b7f4e487b7100000000000000000000000000000000000000000000000000000000600052603260045260246000fd5b62000c368162000877565b82525050565b600060208201905062000c53600083018462000c2b565b92915050565b6000819050919050565b7f4e487b7100000000000000000000000000000000000000000000000000000000600052601160045260246000fd5b600062000c9f8262000c59565b915062000cac8362000c59565b925082820390508181111562000cc75762000cc662000c63565b5b92915050565b7f4e487b7100000000000000000000000000000000000000000000000000000000600052603160045260246000fd5b60805160a05160c051614d8162000d6b60003960008181611aa501528181611d3f01526127d5015260008181611a7d01528181611b310152611f530152600081816106c9015281816106f10152818161076101528181612064015281816126f401526129b40152614d816000f3fe608060405234801561001057600080fd5b50600436106101585760003560e01c8063a7cd63b7116100c3578063c75eea9c1161007c578063c75eea9c146103ef578063cf7401f31461041f578063db6327dc1461043b578063dc0bd97114610457578063e0351e1314610475578063f2fde38b1461049357610158565b8063a7cd63b714610319578063af58d59f14610337578063b0f479a114610367578063b794658014610385578063c0d78655146103b5578063c4bffe2b146103d157610158565b806354c8a4f31161011557806354c8a4f31461025957806378a010b21461027557806379ba5097146102915780638926f54f1461029b5780638da5cb5b146102cb5780639a4575b9146102e957610158565b806301ffc9a71461015d5780630a2fd4931461018d578063181f5a77146101bd57806321df0da7146101db578063240028e8146101f95780633907753714610229575b600080fd5b6101776004803603810190610172919061342a565b6104af565b6040516101849190613472565b60405180910390f35b6101a760048036038101906101a291906134cd565b6105d0565b6040516101b4919061358a565b60405180910390f35b6101c561068c565b6040516101d29190613601565b60405180910390f35b6101e36106c5565b6040516101f091906136a2565b60405180910390f35b610213600480360381019061020e91906136fb565b6106ed565b6040516102209190613472565b60405180910390f35b610243600480360381019061023e919061374d565b610745565b60405161025091906137cb565b60405180910390f35b610273600480360381019061026e919061384b565b610885565b005b61028f600480360381019061028a9190613922565b61091f565b005b610299610aae565b005b6102b560048036038101906102b091906134cd565b610c43565b6040516102c29190613472565b60405180910390f35b6102d3610c6a565b6040516102e09190613991565b60405180910390f35b61030360048036038101906102fe91906139cb565b610c93565b6040516103109190613aa2565b60405180910390f35b610321610d51565b60405161032e9190613b82565b60405180910390f35b610351600480360381019061034c91906134cd565b610d62565b60405161035e9190613c65565b60405180910390f35b61036f610ecd565b60405161037c9190613991565b60405180910390f35b61039f600480360381019061039a91906134cd565b610ef7565b6040516103ac919061358a565b60405180910390f35b6103cf60048036038101906103ca91906136fb565b610fb3565b005b6103d96110c6565b6040516103e69190613d3e565b60405180910390f35b610409600480360381019061040491906134cd565b611194565b6040516104169190613c65565b60405180910390f35b61043960048036038101906104349190613ea1565b6112ff565b005b61045560048036038101906104509190613f4a565b611317565b005b61045f611a79565b60405161046c9190613991565b60405180910390f35b61047d611aa1565b60405161048a9190613472565b60405180910390f35b6104ad60048036038101906104a891906136fb565b611ac9565b005b600063aff2afbf60e01b7bffffffffffffffffffffffffffffffffffffffffffffffffffffffff1916827bffffffffffffffffffffffffffffffffffffffffffffffffffffffff1916148061056157507f0e64dd29000000000000000000000000000000000000000000000000000000007bffffffffffffffffffffffffffffffffffffffffffffffffffffffff1916827bffffffffffffffffffffffffffffffffffffffffffffffffffffffff1916145b806105c957507f01ffc9a7000000000000000000000000000000000000000000000000000000007bffffffffffffffffffffffffffffffffffffffffffffffffffffffff1916827bffffffffffffffffffffffffffffffffffffffffffffffffffffffff1916145b9050919050565b6060600760008367ffffffffffffffff1667ffffffffffffffff168152602001908152602001600020600401805461060790613fc6565b80601f016020809104026020016040519081016040528092919081815260200182805461063390613fc6565b80156106805780601f1061065557610100808354040283529160200191610680565b820191906000526020600020905b81548152906001019060200180831161066357829003601f168201915b50505050509050919050565b6040518060400160405280601b81526020017f4275726e4d696e74546f6b656e506f6f6c20312e352e302d646576000000000081525081565b60007f0000000000000000000000000000000000000000000000000000000000000000905090565b60007f000000000000000000000000000000000000000000000000000000000000000073ffffffffffffffffffffffffffffffffffffffff168273ffffffffffffffffffffffffffffffffffffffff16149050919050565b61074d6132c7565b61075f8261075a90614212565b611add565b7f000000000000000000000000000000000000000000000000000000000000000073ffffffffffffffffffffffffffffffffffffffff166340c10f193384606001356040518363ffffffff1660e01b81526004016107be929190614234565b600060405180830381600087803b1580156107d857600080fd5b505af11580156107ec573d6000803e3d6000fd5b5050505081604001602081019061080391906136fb565b73ffffffffffffffffffffffffffffffffffffffff163373ffffffffffffffffffffffffffffffffffffffff167f9d228d69b5fdb8d273a2336f8fb8612d039631024ea9bf09c424a9503aa078f08460600135604051610863919061425d565b60405180910390a3604051806020016040528083606001358152509050919050565b61088d611cad565b610919848480806020026020016040519081016040528093929190818152602001838360200280828437600081840152601f19601f82011690508083019250505050505050838380806020026020016040519081016040528093929190818152602001838360200280828437600081840152601f19601f82011690508083019250505050505050611d3d565b50505050565b610927611cad565b61093083610c43565b61097157826040517f1e670e4b0000000000000000000000000000000000000000000000000000000081526004016109689190614287565b60405180910390fd5b6000600760008567ffffffffffffffff1667ffffffffffffffff16815260200190815260200160002060040180546109a890613fc6565b80601f01602080910402602001604051908101604052809291908181526020018280546109d490613fc6565b8015610a215780601f106109f657610100808354040283529160200191610a21565b820191906000526020600020905b815481529060010190602001808311610a0457829003601f168201915b505050505090508282600760008767ffffffffffffffff1667ffffffffffffffff1681526020019081526020016000206004019182610a6192919061444f565b508367ffffffffffffffff167fdb4d6220746a38cbc5335f7e108f7de80f482f4d23350253dfd0917df75a14bf828585604051610aa09392919061454c565b60405180910390a250505050565b600160009054906101000a900473ffffffffffffffffffffffffffffffffffffffff1673ffffffffffffffffffffffffffffffffffffffff163373ffffffffffffffffffffffffffffffffffffffff1614610b3e576040517f08c379a0000000000000000000000000000000000000000000000000000000008152600401610b35906145d1565b60405180910390fd5b60008060009054906101000a900473ffffffffffffffffffffffffffffffffffffffff169050336000806101000a81548173ffffffffffffffffffffffffffffffffffffffff021916908373ffffffffffffffffffffffffffffffffffffffff1602179055506000600160006101000a81548173ffffffffffffffffffffffffffffffffffffffff021916908373ffffffffffffffffffffffffffffffffffffffff1602179055503373ffffffffffffffffffffffffffffffffffffffff168173ffffffffffffffffffffffffffffffffffffffff167f8be0079c531659141344cd1fd0a4f28419497f9722a3daafe3b4186f6b6457e060405160405180910390a350565b6000610c638267ffffffffffffffff166005611ee590919063ffffffff16565b9050919050565b60008060009054906101000a900473ffffffffffffffffffffffffffffffffffffffff16905090565b610c9b6132da565b610cad82610ca890614699565b611eff565b610cba8260600135612062565b3373ffffffffffffffffffffffffffffffffffffffff167f696de425f79f4a40bc6d2122ca50507f0efbeabbff86a84871b7196ab8ea8df78360600135604051610d04919061425d565b60405180910390a26040518060400160405280610d32846020016020810190610d2d91906134cd565b610ef7565b8152602001604051806020016040528060008152508152509050919050565b6060610d5d60026120f0565b905090565b610d6a6132f4565b610ec6600760008467ffffffffffffffff1667ffffffffffffffff1681526020019081526020016000206002016040518060a00160405290816000820160009054906101000a90046fffffffffffffffffffffffffffffffff166fffffffffffffffffffffffffffffffff166fffffffffffffffffffffffffffffffff1681526020016000820160109054906101000a900463ffffffff1663ffffffff1663ffffffff1681526020016000820160149054906101000a900460ff161515151581526020016001820160009054906101000a90046fffffffffffffffffffffffffffffffff166fffffffffffffffffffffffffffffffff166fffffffffffffffffffffffffffffffff1681526020016001820160109054906101000a90046fffffffffffffffffffffffffffffffff166fffffffffffffffffffffffffffffffff166fffffffffffffffffffffffffffffffff1681525050612111565b9050919050565b6000600460009054906101000a900473ffffffffffffffffffffffffffffffffffffffff16905090565b6060600760008367ffffffffffffffff1667ffffffffffffffff1681526020019081526020016000206005018054610f2e90613fc6565b80601f0160208091040260200160405190810160405280929190818152602001828054610f5a90613fc6565b8015610fa75780601f10610f7c57610100808354040283529160200191610fa7565b820191906000526020600020905b815481529060010190602001808311610f8a57829003601f168201915b50505050509050919050565b610fbb611cad565b600073ffffffffffffffffffffffffffffffffffffffff168173ffffffffffffffffffffffffffffffffffffffff1603611021576040517f8579befe00000000000000000000000000000000000000000000000000000000815260040160405180910390fd5b6000600460009054906101000a900473ffffffffffffffffffffffffffffffffffffffff16905081600460006101000a81548173ffffffffffffffffffffffffffffffffffffffff021916908373ffffffffffffffffffffffffffffffffffffffff1602179055507f02dc5c233404867c793b749c6d644beb2277536d18a7e7974d3f238e4c6f168481836040516110ba9291906146ac565b60405180910390a15050565b606060006110d460056121cb565b90506000815167ffffffffffffffff8111156110f3576110f2613d65565b5b6040519080825280602002602001820160405280156111215781602001602082028036833780820191505090505b50905060005b825181101561118b57828181518110611143576111426146d5565b5b602002602001015182828151811061115e5761115d6146d5565b5b602002602001019067ffffffffffffffff16908167ffffffffffffffff1681525050806001019050611127565b50809250505090565b61119c6132f4565b6112f8600760008467ffffffffffffffff1667ffffffffffffffff1681526020019081526020016000206000016040518060a00160405290816000820160009054906101000a90046fffffffffffffffffffffffffffffffff166fffffffffffffffffffffffffffffffff166fffffffffffffffffffffffffffffffff1681526020016000820160109054906101000a900463ffffffff1663ffffffff1663ffffffff1681526020016000820160149054906101000a900460ff161515151581526020016001820160009054906101000a90046fffffffffffffffffffffffffffffffff166fffffffffffffffffffffffffffffffff166fffffffffffffffffffffffffffffffff1681526020016001820160109054906101000a90046fffffffffffffffffffffffffffffffff166fffffffffffffffffffffffffffffffff166fffffffffffffffffffffffffffffffff1681525050612111565b9050919050565b611307611cad565b6113128383836121ec565b505050565b61131f611cad565b60005b82829050811015611a74576000838383818110611342576113416146d5565b5b90506020028101906113549190614709565b61135d9061480b565b90506113728160800151826020015115612304565b6113858160a00151826020015115612304565b806020015115611841576113b1816000015167ffffffffffffffff16600561246290919063ffffffff16565b6113f65780600001516040517f1d5ad3c50000000000000000000000000000000000000000000000000000000081526004016113ed9190614287565b60405180910390fd5b6000816040015151148061140f57506000816060015151145b15611446576040517f8579befe00000000000000000000000000000000000000000000000000000000815260040160405180910390fd5b60405180608001604052806040518060a001604052808460800151602001516fffffffffffffffffffffffffffffffff1681526020014263ffffffff168152602001846080015160000151151581526020018460800151602001516fffffffffffffffffffffffffffffffff1681526020018460800151604001516fffffffffffffffffffffffffffffffff1681525081526020016040518060a001604052808460a00151602001516fffffffffffffffffffffffffffffffff1681526020014263ffffffff1681526020018460a0015160000151151581526020018460a00151602001516fffffffffffffffffffffffffffffffff1681526020018460a00151604001516fffffffffffffffffffffffffffffffff16815250815260200182604001518152602001826060015181525060076000836000015167ffffffffffffffff1667ffffffffffffffff16815260200190815260200160002060008201518160000160008201518160000160006101000a8154816fffffffffffffffffffffffffffffffff02191690836fffffffffffffffffffffffffffffffff16021790555060208201518160000160106101000a81548163ffffffff021916908363ffffffff16021790555060408201518160000160146101000a81548160ff02191690831515021790555060608201518160010160006101000a8154816fffffffffffffffffffffffffffffffff02191690836fffffffffffffffffffffffffffffffff16021790555060808201518160010160106101000a8154816fffffffffffffffffffffffffffffffff02191690836fffffffffffffffffffffffffffffffff160217905550505060208201518160020160008201518160000160006101000a8154816fffffffffffffffffffffffffffffffff02191690836fffffffffffffffffffffffffffffffff16021790555060208201518160000160106101000a81548163ffffffff021916908363ffffffff16021790555060408201518160000160146101000a81548160ff02191690831515021790555060608201518160010160006101000a8154816fffffffffffffffffffffffffffffffff02191690836fffffffffffffffffffffffffffffffff16021790555060808201518160010160106101000a8154816fffffffffffffffffffffffffffffffff02191690836fffffffffffffffffffffffffffffffff160217905550505060408201518160040190816117d5919061481e565b5060608201518160050190816117eb919061481e565b509050507f8d340f17e19058004c20453540862a9c62778504476f6756755cb33bcd6c38c28160000151826060015183608001518460a001516040516118349493929190614932565b60405180910390a1611a68565b611863816000015167ffffffffffffffff16600561247c90919063ffffffff16565b6118a85780600001516040517f1e670e4b00000000000000000000000000000000000000000000000000000000815260040161189f9190614287565b60405180910390fd5b60076000826000015167ffffffffffffffff1667ffffffffffffffff1681526020019081526020016000206000808201600080820160006101000a8154906fffffffffffffffffffffffffffffffff02191690556000820160106101000a81549063ffffffff02191690556000820160146101000a81549060ff02191690556001820160006101000a8154906fffffffffffffffffffffffffffffffff02191690556001820160106101000a8154906fffffffffffffffffffffffffffffffff0219169055505060028201600080820160006101000a8154906fffffffffffffffffffffffffffffffff02191690556000820160106101000a81549063ffffffff02191690556000820160146101000a81549060ff02191690556001820160006101000a8154906fffffffffffffffffffffffffffffffff02191690556001820160106101000a8154906fffffffffffffffffffffffffffffffff02191690555050600482016000611a1a9190613361565b600582016000611a2a9190613361565b50507f5204aec90a3c794d8e90fded8b46ae9c7c552803e7e832e0c1d358396d8599168160000151604051611a5f9190614287565b60405180910390a15b50806001019050611322565b505050565b60007f0000000000000000000000000000000000000000000000000000000000000000905090565b60007f0000000000000000000000000000000000000000000000000000000000000000905090565b611ad1611cad565b611ada81612496565b50565b611aea81608001516106ed565b611b2f5780608001516040517f961c9a4f000000000000000000000000000000000000000000000000000000008152600401611b269190613991565b60405180910390fd5b7f000000000000000000000000000000000000000000000000000000000000000073ffffffffffffffffffffffffffffffffffffffff16632cbc26bb826020015167ffffffffffffffff1660801b6040518263ffffffff1660e01b8152600401611b9991906149ba565b602060405180830381865afa158015611bb6573d6000803e3d6000fd5b505050506040513d601f19601f82011682018060405250810190611bda91906149ea565b15611c11576040517f53ad11d800000000000000000000000000000000000000000000000000000000815260040160405180910390fd5b611c1e81602001516125c2565b6000611c2d82602001516105d0565b9050600081511480611c51575080805190602001208260a001518051906020012014155b15611c97578160a001516040517f24eb47e5000000000000000000000000000000000000000000000000000000008152600401611c8e919061358a565b60405180910390fd5b611ca9826020015183606001516126ee565b5050565b60008054906101000a900473ffffffffffffffffffffffffffffffffffffffff1673ffffffffffffffffffffffffffffffffffffffff163373ffffffffffffffffffffffffffffffffffffffff1614611d3b576040517f08c379a0000000000000000000000000000000000000000000000000000000008152600401611d3290614a63565b60405180910390fd5b565b7f0000000000000000000000000000000000000000000000000000000000000000611d94576040517f35f4a7b300000000000000000000000000000000000000000000000000000000815260040160405180910390fd5b60005b8251811015611e1c576000838281518110611db557611db46146d5565b5b60200260200101519050611dd381600261275090919063ffffffff16565b15611e10577f800671136ab6cfee9fbe5ed1fb7ca417811aca3cf864800d127b927adedf756681604051611e079190613991565b60405180910390a15b50806001019050611d97565b5060005b8151811015611ee0576000828281518110611e3e57611e3d6146d5565b5b60200260200101519050600073ffffffffffffffffffffffffffffffffffffffff168173ffffffffffffffffffffffffffffffffffffffff1603611e825750611ed5565b611e9681600261278090919063ffffffff16565b15611ed3577f2640d4d76caf8bf478aabfa982fa4e1c4eb71a37f93cd15e80dbc657911546d881604051611eca9190613991565b60405180910390a15b505b806001019050611e20565b505050565b6000611ef7836000018360001b6127b0565b905092915050565b611f0c81608001516106ed565b611f515780608001516040517f961c9a4f000000000000000000000000000000000000000000000000000000008152600401611f489190613991565b60405180910390fd5b7f000000000000000000000000000000000000000000000000000000000000000073ffffffffffffffffffffffffffffffffffffffff16632cbc26bb826020015167ffffffffffffffff1660801b6040518263ffffffff1660e01b8152600401611fbb91906149ba565b602060405180830381865afa158015611fd8573d6000803e3d6000fd5b505050506040513d601f19601f82011682018060405250810190611ffc91906149ea565b15612033576040517f53ad11d800000000000000000000000000000000000000000000000000000000815260040160405180910390fd5b61204081604001516127d3565b61204d8160200151612856565b61205f816020015182606001516129ae565b50565b7f000000000000000000000000000000000000000000000000000000000000000073ffffffffffffffffffffffffffffffffffffffff166342966c68826040518263ffffffff1660e01b81526004016120bb919061425d565b600060405180830381600087803b1580156120d557600080fd5b505af11580156120e9573d6000803e3d6000fd5b5050505050565b6060600061210083600001612a10565b905060608190508092505050919050565b6121196132f4565b61217c82606001516fffffffffffffffffffffffffffffffff1683600001516fffffffffffffffffffffffffffffffff16846020015163ffffffff16426121609190614ab2565b85608001516fffffffffffffffffffffffffffffffff16612a6c565b82600001906fffffffffffffffffffffffffffffffff1690816fffffffffffffffffffffffffffffffff168152505042826020019063ffffffff16908163ffffffff1681525050819050919050565b606060006121db83600001612a10565b905060608190508092505050919050565b6121f583610c43565b61223657826040517f1e670e4b00000000000000000000000000000000000000000000000000000000815260040161222d9190614287565b60405180910390fd5b612241826000612304565b61227d82600760008667ffffffffffffffff1667ffffffffffffffff168152602001908152602001600020600001612a9890919063ffffffff16565b612288816000612304565b6122c481600760008667ffffffffffffffff1667ffffffffffffffff168152602001908152602001600020600201612a9890919063ffffffff16565b7f0350d63aa5f270e01729d00d627eeb8f3429772b1818c016c66a588a864f912b8383836040516122f793929190614ae6565b60405180910390a1505050565b8160000151156123de5781602001516fffffffffffffffffffffffffffffffff1682604001516fffffffffffffffffffffffffffffffff1610158061235f5750600082604001516fffffffffffffffffffffffffffffffff16145b156123a157816040517f8020d1240000000000000000000000000000000000000000000000000000000081526004016123989190614b1d565b60405180910390fd5b80156123d9576040517f433fc33d00000000000000000000000000000000000000000000000000000000815260040160405180910390fd5b61245e565b600082604001516fffffffffffffffffffffffffffffffff1614158061241b5750600082602001516fffffffffffffffffffffffffffffffff1614155b1561245d57816040517fd68af9cc0000000000000000000000000000000000000000000000000000000081526004016124549190614b1d565b60405180910390fd5b5b5050565b6000612474836000018360001b612d30565b905092915050565b600061248e836000018360001b612da0565b905092915050565b3373ffffffffffffffffffffffffffffffffffffffff168173ffffffffffffffffffffffffffffffffffffffff1603612504576040517f08c379a00000000000000000000000000000000000000000000000000000000081526004016124fb90614b84565b60405180910390fd5b80600160006101000a81548173ffffffffffffffffffffffffffffffffffffffff021916908373ffffffffffffffffffffffffffffffffffffffff1602179055508073ffffffffffffffffffffffffffffffffffffffff1660008054906101000a900473ffffffffffffffffffffffffffffffffffffffff1673ffffffffffffffffffffffffffffffffffffffff167fed8889f560326eb138920d842192f0eb3dd22b4f139c87a2c57538e05bae127860405160405180910390a350565b6125cb81610c43565b61260c57806040517fa9902c7e0000000000000000000000000000000000000000000000000000000081526004016126039190614287565b60405180910390fd5b600460009054906101000a900473ffffffffffffffffffffffffffffffffffffffff1673ffffffffffffffffffffffffffffffffffffffff166383826b2b82336040518363ffffffff1660e01b8152600401612669929190614ba4565b602060405180830381865afa158015612686573d6000803e3d6000fd5b505050506040513d601f19601f820116820180604052508101906126aa91906149ea565b6126eb57336040517f728fe07b0000000000000000000000000000000000000000000000000000000081526004016126e29190613991565b60405180910390fd5b50565b61274c817f0000000000000000000000000000000000000000000000000000000000000000600760008667ffffffffffffffff1667ffffffffffffffff168152602001908152602001600020600201612eb49092919063ffffffff16565b5050565b6000612778836000018373ffffffffffffffffffffffffffffffffffffffff1660001b612da0565b905092915050565b60006127a8836000018373ffffffffffffffffffffffffffffffffffffffff1660001b612d30565b905092915050565b600080836001016000848152602001908152602001600020541415905092915050565b7f00000000000000000000000000000000000000000000000000000000000000008015612811575061280f81600261327e90919063ffffffff16565b155b1561285357806040517fd0d2597600000000000000000000000000000000000000000000000000000000815260040161284a9190613991565b60405180910390fd5b50565b61285f81610c43565b6128a057806040517fa9902c7e0000000000000000000000000000000000000000000000000000000081526004016128979190614287565b60405180910390fd5b600460009054906101000a900473ffffffffffffffffffffffffffffffffffffffff1673ffffffffffffffffffffffffffffffffffffffff1663a8d87a3b826040518263ffffffff1660e01b81526004016128fb9190614287565b602060405180830381865afa158015612918573d6000803e3d6000fd5b505050506040513d601f19601f8201168201806040525081019061293c9190614be2565b73ffffffffffffffffffffffffffffffffffffffff163373ffffffffffffffffffffffffffffffffffffffff16146129ab57336040517f728fe07b0000000000000000000000000000000000000000000000000000000081526004016129a29190613991565b60405180910390fd5b50565b612a0c817f0000000000000000000000000000000000000000000000000000000000000000600760008667ffffffffffffffff1667ffffffffffffffff168152602001908152602001600020600001612eb49092919063ffffffff16565b5050565b606081600001805480602002602001604051908101604052809291908181526020018280548015612a6057602002820191906000526020600020905b815481526020019060010190808311612a4c575b50505050509050919050565b6000612a8e858385612a7e9190614c0f565b86612a899190614c51565b6132ae565b9050949350505050565b60008260000160109054906101000a900463ffffffff1663ffffffff1642612ac09190614ab2565b905060008114612bca57612b6c8360010160009054906101000a90046fffffffffffffffffffffffffffffffff166fffffffffffffffffffffffffffffffff168460000160009054906101000a90046fffffffffffffffffffffffffffffffff166fffffffffffffffffffffffffffffffff16838660010160109054906101000a90046fffffffffffffffffffffffffffffffff166fffffffffffffffffffffffffffffffff16612a6c565b8360000160006101000a8154816fffffffffffffffffffffffffffffffff02191690836fffffffffffffffffffffffffffffffff160217905550428360000160106101000a81548163ffffffff021916908363ffffffff1602179055505b612c1c82602001516fffffffffffffffffffffffffffffffff168460000160009054906101000a90046fffffffffffffffffffffffffffffffff166fffffffffffffffffffffffffffffffff166132ae565b8360000160006101000a8154816fffffffffffffffffffffffffffffffff02191690836fffffffffffffffffffffffffffffffff16021790555081600001518360000160146101000a81548160ff02191690831515021790555081602001518360010160006101000a8154816fffffffffffffffffffffffffffffffff02191690836fffffffffffffffffffffffffffffffff16021790555081604001518360010160106101000a8154816fffffffffffffffffffffffffffffffff02191690836fffffffffffffffffffffffffffffffff1602179055507f9ea3374b67bf275e6bb9c8ae68f9cae023e1c528b4b27e092f0bb209d3531c1982604051612d239190614b1d565b60405180910390a1505050565b6000612d3c83836127b0565b612d95578260000182908060018154018082558091505060019003906000526020600020016000909190919091505582600001805490508360010160008481526020019081526020016000208190555060019050612d9a565b600090505b92915050565b60008083600101600084815260200190815260200160002054905060008114612ea8576000600182612dd29190614ab2565b9050600060018660000180549050612dea9190614ab2565b9050818114612e59576000866000018281548110612e0b57612e0a6146d5565b5b9060005260206000200154905080876000018481548110612e2f57612e2e6146d5565b5b90600052602060002001819055508387600101600083815260200190815260200160002081905550505b85600001805480612e6d57612e6c614c85565b5b600190038181906000526020600020016000905590558560010160008681526020019081526020016000206000905560019350505050612eae565b60009150505b92915050565b8260000160149054906101000a900460ff161580612ed25750600082145b6132795760008360000160009054906101000a90046fffffffffffffffffffffffffffffffff166fffffffffffffffffffffffffffffffff16905060008460010160009054906101000a90046fffffffffffffffffffffffffffffffff166fffffffffffffffffffffffffffffffff16905060008560000160109054906101000a900463ffffffff1663ffffffff1642612f6c9190614ab2565b9050600081146130145781831115612fb0576040517f9725942a00000000000000000000000000000000000000000000000000000000815260040160405180910390fd5b612fee8284838960010160109054906101000a90046fffffffffffffffffffffffffffffffff166fffffffffffffffffffffffffffffffff16612a6c565b9250428660000160106101000a81548163ffffffff021916908363ffffffff1602179055505b848210156130d057600073ffffffffffffffffffffffffffffffffffffffff168473ffffffffffffffffffffffffffffffffffffffff160361308f5781856040517ff94ebcd1000000000000000000000000000000000000000000000000000000008152600401613086929190614cb4565b60405180910390fd5b8185856040517f1a76572a0000000000000000000000000000000000000000000000000000000081526004016130c793929190614cdd565b60405180910390fd5b848310156131f55760008660010160109054906101000a90046fffffffffffffffffffffffffffffffff166fffffffffffffffffffffffffffffffff16905060008160018361311f9190614ab2565b868961312b9190614ab2565b6131359190614c51565b61313f9190614d43565b9050600073ffffffffffffffffffffffffffffffffffffffff168673ffffffffffffffffffffffffffffffffffffffff16036131b45780856040517f15279c080000000000000000000000000000000000000000000000000000000081526004016131ab929190614cb4565b60405180910390fd5b8085876040517fd0c8d23a0000000000000000000000000000000000000000000000000000000081526004016131ec93929190614cdd565b60405180910390fd5b84836132019190614ab2565b9250828660000160006101000a8154816fffffffffffffffffffffffffffffffff02191690836fffffffffffffffffffffffffffffffff1602179055507f1871cdf8010e63f2eb8384381a68dfa7416dc571a5517e66e88b2d2d0c0a690a8560405161326d919061425d565b60405180910390a15050505b505050565b60006132a6836000018373ffffffffffffffffffffffffffffffffffffffff1660001b6127b0565b905092915050565b60008183106132bd57816132bf565b825b905092915050565b6040518060200160405280600081525090565b604051806040016040528060608152602001606081525090565b6040518060a0016040528060006fffffffffffffffffffffffffffffffff168152602001600063ffffffff16815260200160001515815260200160006fffffffffffffffffffffffffffffffff16815260200160006fffffffffffffffffffffffffffffffff1681525090565b50805461336d90613fc6565b6000825580601f1061337f575061339e565b601f01602090049060005260206000209081019061339d91906133a1565b5b50565b5b808211156133ba5760008160009055506001016133a2565b5090565b6000604051905090565b600080fd5b600080fd5b60007fffffffff0000000000000000000000000000000000000000000000000000000082169050919050565b613407816133d2565b811461341257600080fd5b50565b600081359050613424816133fe565b92915050565b6000602082840312156134405761343f6133c8565b5b600061344e84828501613415565b91505092915050565b60008115159050919050565b61346c81613457565b82525050565b60006020820190506134876000830184613463565b92915050565b600067ffffffffffffffff82169050919050565b6134aa8161348d565b81146134b557600080fd5b50565b6000813590506134c7816134a1565b92915050565b6000602082840312156134e3576134e26133c8565b5b60006134f1848285016134b8565b91505092915050565b600081519050919050565b600082825260208201905092915050565b60005b83811015613534578082015181840152602081019050613519565b60008484015250505050565b6000601f19601f8301169050919050565b600061355c826134fa565b6135668185613505565b9350613576818560208601613516565b61357f81613540565b840191505092915050565b600060208201905081810360008301526135a48184613551565b905092915050565b600081519050919050565b600082825260208201905092915050565b60006135d3826135ac565b6135dd81856135b7565b93506135ed818560208601613516565b6135f681613540565b840191505092915050565b6000602082019050818103600083015261361b81846135c8565b905092915050565b600073ffffffffffffffffffffffffffffffffffffffff82169050919050565b6000819050919050565b600061366861366361365e84613623565b613643565b613623565b9050919050565b600061367a8261364d565b9050919050565b600061368c8261366f565b9050919050565b61369c81613681565b82525050565b60006020820190506136b76000830184613693565b92915050565b60006136c882613623565b9050919050565b6136d8816136bd565b81146136e357600080fd5b50565b6000813590506136f5816136cf565b92915050565b600060208284031215613711576137106133c8565b5b600061371f848285016136e6565b91505092915050565b600080fd5b6000610100828403121561374457613743613728565b5b81905092915050565b600060208284031215613763576137626133c8565b5b600082013567ffffffffffffffff811115613781576137806133cd565b5b61378d8482850161372d565b91505092915050565b6000819050919050565b6137a981613796565b82525050565b6020820160008201516137c560008501826137a0565b50505050565b60006020820190506137e060008301846137af565b92915050565b600080fd5b600080fd5b600080fd5b60008083601f84011261380b5761380a6137e6565b5b8235905067ffffffffffffffff811115613828576138276137eb565b5b602083019150836020820283011115613844576138436137f0565b5b9250929050565b60008060008060408587031215613865576138646133c8565b5b600085013567ffffffffffffffff811115613883576138826133cd565b5b61388f878288016137f5565b9450945050602085013567ffffffffffffffff8111156138b2576138b16133cd565b5b6138be878288016137f5565b925092505092959194509250565b60008083601f8401126138e2576138e16137e6565b5b8235905067ffffffffffffffff8111156138ff576138fe6137eb565b5b60208301915083600182028301111561391b5761391a6137f0565b5b9250929050565b60008060006040848603121561393b5761393a6133c8565b5b6000613949868287016134b8565b935050602084013567ffffffffffffffff81111561396a576139696133cd565b5b613976868287016138cc565b92509250509250925092565b61398b816136bd565b82525050565b60006020820190506139a66000830184613982565b92915050565b600060a082840312156139c2576139c1613728565b5b81905092915050565b6000602082840312156139e1576139e06133c8565b5b600082013567ffffffffffffffff8111156139ff576139fe6133cd565b5b613a0b848285016139ac565b91505092915050565b600082825260208201905092915050565b6000613a30826134fa565b613a3a8185613a14565b9350613a4a818560208601613516565b613a5381613540565b840191505092915050565b60006040830160008301518482036000860152613a7b8282613a25565b91505060208301518482036020860152613a958282613a25565b9150508091505092915050565b60006020820190508181036000830152613abc8184613a5e565b905092915050565b600081519050919050565b600082825260208201905092915050565b6000819050602082019050919050565b613af9816136bd565b82525050565b6000613b0b8383613af0565b60208301905092915050565b6000602082019050919050565b6000613b2f82613ac4565b613b398185613acf565b9350613b4483613ae0565b8060005b83811015613b75578151613b5c8882613aff565b9750613b6783613b17565b925050600181019050613b48565b5085935050505092915050565b60006020820190508181036000830152613b9c8184613b24565b905092915050565b60006fffffffffffffffffffffffffffffffff82169050919050565b613bc981613ba4565b82525050565b600063ffffffff82169050919050565b613be881613bcf565b82525050565b613bf781613457565b82525050565b60a082016000820151613c136000850182613bc0565b506020820151613c266020850182613bdf565b506040820151613c396040850182613bee565b506060820151613c4c6060850182613bc0565b506080820151613c5f6080850182613bc0565b50505050565b600060a082019050613c7a6000830184613bfd565b92915050565b600081519050919050565b600082825260208201905092915050565b6000819050602082019050919050565b613cb58161348d565b82525050565b6000613cc78383613cac565b60208301905092915050565b6000602082019050919050565b6000613ceb82613c80565b613cf58185613c8b565b9350613d0083613c9c565b8060005b83811015613d31578151613d188882613cbb565b9750613d2383613cd3565b925050600181019050613d04565b5085935050505092915050565b60006020820190508181036000830152613d588184613ce0565b905092915050565b600080fd5b7f4e487b7100000000000000000000000000000000000000000000000000000000600052604160045260246000fd5b613d9d82613540565b810181811067ffffffffffffffff82111715613dbc57613dbb613d65565b5b80604052505050565b6000613dcf6133be565b9050613ddb8282613d94565b919050565b600080fd5b613dee81613457565b8114613df957600080fd5b50565b600081359050613e0b81613de5565b92915050565b613e1a81613ba4565b8114613e2557600080fd5b50565b600081359050613e3781613e11565b92915050565b600060608284031215613e5357613e52613d60565b5b613e5d6060613dc5565b90506000613e6d84828501613dfc565b6000830152506020613e8184828501613e28565b6020830152506040613e9584828501613e28565b60408301525092915050565b600080600060e08486031215613eba57613eb96133c8565b5b6000613ec8868287016134b8565b9350506020613ed986828701613e3d565b9250506080613eea86828701613e3d565b9150509250925092565b60008083601f840112613f0a57613f096137e6565b5b8235905067ffffffffffffffff811115613f2757613f266137eb565b5b602083019150836020820283011115613f4357613f426137f0565b5b9250929050565b60008060208385031215613f6157613f606133c8565b5b600083013567ffffffffffffffff811115613f7f57613f7e6133cd565b5b613f8b85828601613ef4565b92509250509250929050565b7f4e487b7100000000000000000000000000000000000000000000000000000000600052602260045260246000fd5b60006002820490506001821680613fde57607f821691505b602082108103613ff157613ff0613f97565b5b50919050565b600080fd5b600067ffffffffffffffff82111561401757614016613d65565b5b61402082613540565b9050602081019050919050565b82818337600083830152505050565b600061404f61404a84613ffc565b613dc5565b90508281526020810184848401111561406b5761406a613ff7565b5b61407684828561402d565b509392505050565b600082601f830112614093576140926137e6565b5b81356140a384826020860161403c565b91505092915050565b6140b581613796565b81146140c057600080fd5b50565b6000813590506140d2816140ac565b92915050565b600061010082840312156140ef576140ee613d60565b5b6140fa610100613dc5565b9050600082013567ffffffffffffffff81111561411a57614119613de0565b5b6141268482850161407e565b600083015250602061413a848285016134b8565b602083015250604061414e848285016136e6565b6040830152506060614162848285016140c3565b6060830152506080614176848285016136e6565b60808301525060a082013567ffffffffffffffff81111561419a57614199613de0565b5b6141a68482850161407e565b60a08301525060c082013567ffffffffffffffff8111156141ca576141c9613de0565b5b6141d68482850161407e565b60c08301525060e082013567ffffffffffffffff8111156141fa576141f9613de0565b5b6142068482850161407e565b60e08301525092915050565b600061421e36836140d8565b9050919050565b61422e81613796565b82525050565b60006040820190506142496000830185613982565b6142566020830184614225565b9392505050565b60006020820190506142726000830184614225565b92915050565b6142818161348d565b82525050565b600060208201905061429c6000830184614278565b92915050565b600082905092915050565b60008190508160005260206000209050919050565b60006020601f8301049050919050565b600082821b905092915050565b60006008830261430f7fffffffffffffffffffffffffffffffffffffffffffffffffffffffffffffffff826142d2565b61431986836142d2565b95508019841693508086168417925050509392505050565b600061434c61434761434284613796565b613643565b613796565b9050919050565b6000819050919050565b61436683614331565b61437a61437282614353565b8484546142df565b825550505050565b600090565b61438f614382565b61439a81848461435d565b505050565b5b818110156143be576143b3600082614387565b6001810190506143a0565b5050565b601f821115614403576143d4816142ad565b6143dd846142c2565b810160208510156143ec578190505b6144006143f8856142c2565b83018261439f565b50505b505050565b600082821c905092915050565b600061442660001984600802614408565b1980831691505092915050565b600061443f8383614415565b9150826002028217905092915050565b61445983836142a2565b67ffffffffffffffff81111561447257614471613d65565b5b61447c8254613fc6565b6144878282856143c2565b6000601f8311600181146144b657600084156144a4578287013590505b6144ae8582614433565b865550614516565b601f1984166144c4866142ad565b60005b828110156144ec578489013582556001820191506020850194506020810190506144c7565b868310156145095784890135614505601f891682614415565b8355505b6001600288020188555050505b50505050505050565b600061452b8385613505565b935061453883858461402d565b61454183613540565b840190509392505050565b600060408201905081810360008301526145668186613551565b9050818103602083015261457b81848661451f565b9050949350505050565b7f4d7573742062652070726f706f736564206f776e657200000000000000000000600082015250565b60006145bb6016836135b7565b91506145c682614585565b602082019050919050565b600060208201905081810360008301526145ea816145ae565b9050919050565b600060a0828403121561460757614606613d60565b5b61461160a0613dc5565b9050600082013567ffffffffffffffff81111561463157614630613de0565b5b61463d8482850161407e565b6000830152506020614651848285016134b8565b6020830152506040614665848285016136e6565b6040830152506060614679848285016140c3565b606083015250608061468d848285016136e6565b60808301525092915050565b60006146a536836145f1565b9050919050565b60006040820190506146c16000830185613982565b6146ce6020830184613982565b9392505050565b7f4e487b7100000000000000000000000000000000000000000000000000000000600052603260045260246000fd5b600080fd5b6000823560016101400383360303811261472657614725614704565b5b80830191505092915050565b6000610140828403121561474957614748613d60565b5b61475360c0613dc5565b90506000614763848285016134b8565b600083015250602061477784828501613dfc565b602083015250604082013567ffffffffffffffff81111561479b5761479a613de0565b5b6147a78482850161407e565b604083015250606082013567ffffffffffffffff8111156147cb576147ca613de0565b5b6147d78482850161407e565b60608301525060806147eb84828501613e3d565b60808301525060e06147ff84828501613e3d565b60a08301525092915050565b60006148173683614732565b9050919050565b614827826134fa565b67ffffffffffffffff8111156148405761483f613d65565b5b61484a8254613fc6565b6148558282856143c2565b600060209050601f8311600181146148885760008415614876578287015190505b6148808582614433565b8655506148e8565b601f198416614896866142ad565b60005b828110156148be57848901518255600182019150602085019450602081019050614899565b868310156148db57848901516148d7601f891682614415565b8355505b6001600288020188555050505b505050505050565b6060820160008201516149066000850182613bee565b5060208201516149196020850182613bc0565b50604082015161492c6040850182613bc0565b50505050565b6000610100820190506149486000830187614278565b818103602083015261495a8186613551565b905061496960408301856148f0565b61497660a08301846148f0565b95945050505050565b60007fffffffffffffffffffffffffffffffff0000000000000000000000000000000082169050919050565b6149b48161497f565b82525050565b60006020820190506149cf60008301846149ab565b92915050565b6000815190506149e481613de5565b92915050565b600060208284031215614a00576149ff6133c8565b5b6000614a0e848285016149d5565b91505092915050565b7f4f6e6c792063616c6c61626c65206279206f776e657200000000000000000000600082015250565b6000614a4d6016836135b7565b9150614a5882614a17565b602082019050919050565b60006020820190508181036000830152614a7c81614a40565b9050919050565b7f4e487b7100000000000000000000000000000000000000000000000000000000600052601160045260246000fd5b6000614abd82613796565b9150614ac883613796565b9250828203905081811115614ae057614adf614a83565b5b92915050565b600060e082019050614afb6000830186614278565b614b0860208301856148f0565b614b1560808301846148f0565b949350505050565b6000606082019050614b3260008301846148f0565b92915050565b7f43616e6e6f74207472616e7366657220746f2073656c66000000000000000000600082015250565b6000614b6e6017836135b7565b9150614b7982614b38565b602082019050919050565b60006020820190508181036000830152614b9d81614b61565b9050919050565b6000604082019050614bb96000830185614278565b614bc66020830184613982565b9392505050565b600081519050614bdc816136cf565b92915050565b600060208284031215614bf857614bf76133c8565b5b6000614c0684828501614bcd565b91505092915050565b6000614c1a82613796565b9150614c2583613796565b9250828202614c3381613796565b91508282048414831517614c4a57614c49614a83565b5b5092915050565b6000614c5c82613796565b9150614c6783613796565b9250828201905080821115614c7f57614c7e614a83565b5b92915050565b7f4e487b7100000000000000000000000000000000000000000000000000000000600052603160045260246000fd5b6000604082019050614cc96000830185614225565b614cd66020830184614225565b9392505050565b6000606082019050614cf26000830186614225565b614cff6020830185614225565b614d0c6040830184613982565b949350505050565b7f4e487b7100000000000000000000000000000000000000000000000000000000600052601260045260246000fd5b6000614d4e82613796565b9150614d5983613796565b925082614d6957614d68614d14565b5b82820490509291505056fea164736f6c6343000818000a","linkReferences":{}},"methodIdentifiers":{"acceptOwnership()":"79ba5097","applyAllowListUpdates(address[],address[])":"54c8a4f3","applyChainUpdates((uint64,bool,bytes,bytes,(bool,uint128,uint128),(bool,uint128,uint128))[])":"db6327dc","getAllowList()":"a7cd63b7","getAllowListEnabled()":"e0351e13","getCurrentInboundRateLimiterState(uint64)":"af58d59f","getCurrentOutboundRateLimiterState(uint64)":"c75eea9c","getRemotePool(uint64)":"0a2fd493","getRemoteToken(uint64)":"b7946580","getRmnProxy()":"dc0bd971","getRouter()":"b0f479a1","getSupportedChains()":"c4bffe2b","getToken()":"21df0da7","isSupportedChain(uint64)":"8926f54f","isSupportedToken(address)":"240028e8","lockOrBurn((bytes,uint64,address,uint256,address))":"9a4575b9","owner()":"8da5cb5b","releaseOrMint((bytes,uint64,address,uint256,address,bytes,bytes,bytes))":"39077537","setChainRateLimiterConfig(uint64,(bool,uint128,uint128),(bool,uint128,uint128))":"cf7401f3","setRemotePool(uint64,bytes)":"78a010b2","setRouter(address)":"c0d78655","supportsInterface(bytes4)":"01ffc9a7","transferOwnership(address)":"f2fde38b","typeAndVersion()":"181f5a77"},"id":41}