{"abi":[{"type":"constructor","inputs":[{"name":"token","type":"address","internalType":"contract IBurnMintERC20"},{"name":"allowlist","type":"address[]","internalType":"address[]"},{"name":"armProxy","type":"address","internalType":"address"},{"name":"router","type":"address","internalType":"address"}],"stateMutability":"nonpayable"},{"type":"function","name":"acceptOwnership","inputs":[],"outputs":[],"stateMutability":"nonpayable"},{"type":"function","name":"applyAllowListUpdates","inputs":[{"name":"removes","type":"address[]","internalType":"address[]"},{"name":"adds","type":"address[]","internalType":"address[]"}],"outputs":[],"stateMutability":"nonpayable"},{"type":"function","name":"applyChainUpdates","inputs":[{"name":"chains","type":"tuple[]","internalType":"struct TokenPool1_4.ChainUpdate[]","components":[{"name":"remoteChainSelector","type":"uint64","internalType":"uint64"},{"name":"allowed","type":"bool","internalType":"bool"},{"name":"outboundRateLimiterConfig","type":"tuple","internalType":"struct RateLimiter.Config","components":[{"name":"isEnabled","type":"bool","internalType":"bool"},{"name":"capacity","type":"uint128","internalType":"uint128"},{"name":"rate","type":"uint128","internalType":"uint128"}]},{"name":"inboundRateLimiterConfig","type":"tuple","internalType":"struct RateLimiter.Config","components":[{"name":"isEnabled","type":"bool","internalType":"bool"},{"name":"capacity","type":"uint128","internalType":"uint128"},{"name":"rate","type":"uint128","internalType":"uint128"}]}]}],"outputs":[],"stateMutability":"nonpayable"},{"type":"function","name":"getAllowList","inputs":[],"outputs":[{"name":"","type":"address[]","internalType":"address[]"}],"stateMutability":"view"},{"type":"function","name":"getAllowListEnabled","inputs":[],"outputs":[{"name":"","type":"bool","internalType":"bool"}],"stateMutability":"view"},{"type":"function","name":"getArmProxy","inputs":[],"outputs":[{"name":"armProxy","type":"address","internalType":"address"}],"stateMutability":"view"},{"type":"function","name":"getCurrentInboundRateLimiterState","inputs":[{"name":"remoteChainSelector","type":"uint64","internalType":"uint64"}],"outputs":[{"name":"","type":"tuple","internalType":"struct RateLimiter.TokenBucket","components":[{"name":"tokens","type":"uint128","internalType":"uint128"},{"name":"lastUpdated","type":"uint32","internalType":"uint32"},{"name":"isEnabled","type":"bool","internalType":"bool"},{"name":"capacity","type":"uint128","internalType":"uint128"},{"name":"rate","type":"uint128","internalType":"uint128"}]}],"stateMutability":"view"},{"type":"function","name":"getCurrentOutboundRateLimiterState","inputs":[{"name":"remoteChainSelector","type":"uint64","internalType":"uint64"}],"outputs":[{"name":"","type":"tuple","internalType":"struct RateLimiter.TokenBucket","components":[{"name":"tokens","type":"uint128","internalType":"uint128"},{"name":"lastUpdated","type":"uint32","internalType":"uint32"},{"name":"isEnabled","type":"bool","internalType":"bool"},{"name":"capacity","type":"uint128","internalType":"uint128"},{"name":"rate","type":"uint128","internalType":"uint128"}]}],"stateMutability":"view"},{"type":"function","name":"getRouter","inputs":[],"outputs":[{"name":"router","type":"address","internalType":"address"}],"stateMutability":"view"},{"type":"function","name":"getSupportedChains","inputs":[],"outputs":[{"name":"","type":"uint64[]","internalType":"uint64[]"}],"stateMutability":"view"},{"type":"function","name":"getToken","inputs":[],"outputs":[{"name":"token","type":"address","internalType":"contract IERC20"}],"stateMutability":"view"},{"type":"function","name":"isSupportedChain","inputs":[{"name":"remoteChainSelector","type":"uint64","internalType":"uint64"}],"outputs":[{"name":"","type":"bool","internalType":"bool"}],"stateMutability":"view"},{"type":"function","name":"lockOrBurn","inputs":[{"name":"originalSender","type":"address","internalType":"address"},{"name":"","type":"bytes","internalType":"bytes"},{"name":"amount","type":"uint256","internalType":"uint256"},{"name":"remoteChainSelector","type":"uint64","internalType":"uint64"},{"name":"","type":"bytes","internalType":"bytes"}],"outputs":[{"name":"","type":"bytes","internalType":"bytes"}],"stateMutability":"nonpayable"},{"type":"function","name":"owner","inputs":[],"outputs":[{"name":"","type":"address","internalType":"address"}],"stateMutability":"view"},{"type":"function","name":"releaseOrMint","inputs":[{"name":"","type":"bytes","internalType":"bytes"},{"name":"receiver","type":"address","internalType":"address"},{"name":"amount","type":"uint256","internalType":"uint256"},{"name":"remoteChainSelector","type":"uint64","internalType":"uint64"},{"name":"","type":"bytes","internalType":"bytes"}],"outputs":[],"stateMutability":"nonpayable"},{"type":"function","name":"setChainRateLimiterConfig","inputs":[{"name":"remoteChainSelector","type":"uint64","internalType":"uint64"},{"name":"outboundConfig","type":"tuple","internalType":"struct RateLimiter.Config","components":[{"name":"isEnabled","type":"bool","internalType":"bool"},{"name":"capacity","type":"uint128","internalType":"uint128"},{"name":"rate","type":"uint128","internalType":"uint128"}]},{"name":"inboundConfig","type":"tuple","internalType":"struct RateLimiter.Config","components":[{"name":"isEnabled","type":"bool","internalType":"bool"},{"name":"capacity","type":"uint128","internalType":"uint128"},{"name":"rate","type":"uint128","internalType":"uint128"}]}],"outputs":[],"stateMutability":"nonpayable"},{"type":"function","name":"setRouter","inputs":[{"name":"newRouter","type":"address","internalType":"address"}],"outputs":[],"stateMutability":"nonpayable"},{"type":"function","name":"supportsInterface","inputs":[{"name":"interfaceId","type":"bytes4","internalType":"bytes4"}],"outputs":[{"name":"","type":"bool","internalType":"bool"}],"stateMutability":"pure"},{"type":"function","name":"transferOwnership","inputs":[{"name":"to","type":"address","internalType":"address"}],"outputs":[],"stateMutability":"nonpayable"},{"type":"function","name":"typeAndVersion","inputs":[],"outputs":[{"name":"","type":"string","internalType":"string"}],"stateMutability":"view"},{"type":"event","name":"AllowListAdd","inputs":[{"name":"sender","type":"address","indexed":false,"internalType":"address"}],"anonymous":false},{"type":"event","name":"AllowListRemove","inputs":[{"name":"sender","type":"address","indexed":false,"internalType":"address"}],"anonymous":false},{"type":"event","name":"Burned","inputs":[{"name":"sender","type":"address","indexed":true,"internalType":"address"},{"name":"amount","type":"uint256","indexed":false,"internalType":"uint256"}],"anonymous":false},{"type":"event","name":"ChainAdded","inputs":[{"name":"remoteChainSelector","type":"uint64","indexed":false,"internalType":"uint64"},{"name":"outboundRateLimiterConfig","type":"tuple","indexed":false,"internalType":"struct RateLimiter.Config","components":[{"name":"isEnabled","type":"bool","internalType":"bool"},{"name":"capacity","type":"uint128","internalType":"uint128"},{"name":"rate","type":"uint128","internalType":"uint128"}]},{"name":"inboundRateLimiterConfig","type":"tuple","indexed":false,"internalType":"struct RateLimiter.Config","components":[{"name":"isEnabled","type":"bool","internalType":"bool"},{"name":"capacity","type":"uint128","internalType":"uint128"},{"name":"rate","type":"uint128","internalType":"uint128"}]}],"anonymous":false},{"type":"event","name":"ChainConfigured","inputs":[{"name":"remoteChainSelector","type":"uint64","indexed":false,"internalType":"uint64"},{"name":"outboundRateLimiterConfig","type":"tuple","indexed":false,"internalType":"struct RateLimiter.Config","components":[{"name":"isEnabled","type":"bool","internalType":"bool"},{"name":"capacity","type":"uint128","internalType":"uint128"},{"name":"rate","type":"uint128","internalType":"uint128"}]},{"name":"inboundRateLimiterConfig","type":"tuple","indexed":false,"internalType":"struct RateLimiter.Config","components":[{"name":"isEnabled","type":"bool","internalType":"bool"},{"name":"capacity","type":"uint128","internalType":"uint128"},{"name":"rate","type":"uint128","internalType":"uint128"}]}],"anonymous":false},{"type":"event","name":"ChainRemoved","inputs":[{"name":"remoteChainSelector","type":"uint64","indexed":false,"internalType":"uint64"}],"anonymous":false},{"type":"event","name":"ConfigChanged","inputs":[{"name":"config","type":"tuple","indexed":false,"internalType":"struct RateLimiter.Config","components":[{"name":"isEnabled","type":"bool","internalType":"bool"},{"name":"capacity","type":"uint128","internalType":"uint128"},{"name":"rate","type":"uint128","internalType":"uint128"}]}],"anonymous":false},{"type":"event","name":"Locked","inputs":[{"name":"sender","type":"address","indexed":true,"internalType":"address"},{"name":"amount","type":"uint256","indexed":false,"internalType":"uint256"}],"anonymous":false},{"type":"event","name":"Minted","inputs":[{"name":"sender","type":"address","indexed":true,"internalType":"address"},{"name":"recipient","type":"address","indexed":true,"internalType":"address"},{"name":"amount","type":"uint256","indexed":false,"internalType":"uint256"}],"anonymous":false},{"type":"event","name":"OwnershipTransferRequested","inputs":[{"name":"from","type":"address","indexed":true,"internalType":"address"},{"name":"to","type":"address","indexed":true,"internalType":"address"}],"anonymous":false},{"type":"event","name":"OwnershipTransferred","inputs":[{"name":"from","type":"address","indexed":true,"internalType":"address"},{"name":"to","type":"address","indexed":true,"internalType":"address"}],"anonymous":false},{"type":"event","name":"Released","inputs":[{"name":"sender","type":"address","indexed":true,"internalType":"address"},{"name":"recipient","type":"address","indexed":true,"internalType":"address"},{"name":"amount","type":"uint256","indexed":false,"internalType":"uint256"}],"anonymous":false},{"type":"event","name":"RouterUpdated","inputs":[{"name":"oldRouter","type":"address","indexed":false,"internalType":"address"},{"name":"newRouter","type":"address","indexed":false,"internalType":"address"}],"anonymous":false},{"type":"event","name":"TokensConsumed","inputs":[{"name":"tokens","type":"uint256","indexed":false,"internalType":"uint256"}],"anonymous":false},{"type":"error","name":"AggregateValueMaxCapacityExceeded","inputs":[{"name":"capacity","type":"uint256","internalType":"uint256"},{"name":"requested","type":"uint256","internalType":"uint256"}]},{"type":"error","name":"AggregateValueRateLimitReached","inputs":[{"name":"minWaitInSeconds","type":"uint256","internalType":"uint256"},{"name":"available","type":"uint256","internalType":"uint256"}]},{"type":"error","name":"AllowListNotEnabled","inputs":[]},{"type":"error","name":"BadARMSignal","inputs":[]},{"type":"error","name":"BucketOverfilled","inputs":[]},{"type":"error","name":"CallerIsNotARampOnRouter","inputs":[{"name":"caller","type":"address","internalType":"address"}]},{"type":"error","name":"ChainAlreadyExists","inputs":[{"name":"chainSelector","type":"uint64","internalType":"uint64"}]},{"type":"error","name":"ChainNotAllowed","inputs":[{"name":"remoteChainSelector","type":"uint64","internalType":"uint64"}]},{"type":"error","name":"DisabledNonZeroRateLimit","inputs":[{"name":"config","type":"tuple","internalType":"struct RateLimiter.Config","components":[{"name":"isEnabled","type":"bool","internalType":"bool"},{"name":"capacity","type":"uint128","internalType":"uint128"},{"name":"rate","type":"uint128","internalType":"uint128"}]}]},{"type":"error","name":"InvalidRateLimitRate","inputs":[{"name":"rateLimiterConfig","type":"tuple","internalType":"struct RateLimiter.Config","components":[{"name":"isEnabled","type":"bool","internalType":"bool"},{"name":"capacity","type":"uint128","internalType":"uint128"},{"name":"rate","type":"uint128","internalType":"uint128"}]}]},{"type":"error","name":"NonExistentChain","inputs":[{"name":"remoteChainSelector","type":"uint64","internalType":"uint64"}]},{"type":"error","name":"RateLimitMustBeDisabled","inputs":[]},{"type":"error","name":"SenderNotAllowed","inputs":[{"name":"sender","type":"address","internalType":"address"}]},{"type":"error","name":"TokenMaxCapacityExceeded","inputs":[{"name":"capacity","type":"uint256","internalType":"uint256"},{"name":"requested","type":"uint256","internalType":"uint256"},{"name":"tokenAddress","type":"address","internalType":"address"}]},{"type":"error","name":"TokenRateLimitReached","inputs":[{"name":"minWaitInSeconds","type":"uint256","internalType":"uint256"},{"name":"available","type":"uint256","internalType":"uint256"},{"name":"tokenAddress","type":"address","internalType":"address"}]},{"type":"error","name":"ZeroAddressNotAllowed","inputs":[]}],"bytecode":{"object":"0x60e06040523480156200001157600080fd5b5060405162004ac938038062004ac9833981810160405281019062000037919062000a3e565b83838383338060008073ffffffffffffffffffffffffffffffffffffffff168273ffffffffffffffffffffffffffffffffffffffff1603620000b0576040517f08c379a0000000000000000000000000000000000000000000000000000000008152600401620000a79062000b30565b60405180910390fd5b816000806101000a81548173ffffffffffffffffffffffffffffffffffffffff021916908373ffffffffffffffffffffffffffffffffffffffff160217905550600073ffffffffffffffffffffffffffffffffffffffff168173ffffffffffffffffffffffffffffffffffffffff1614620001375762000136816200030a60201b60201c565b5b505050600073ffffffffffffffffffffffffffffffffffffffff168473ffffffffffffffffffffffffffffffffffffffff161480620001a25750600073ffffffffffffffffffffffffffffffffffffffff168173ffffffffffffffffffffffffffffffffffffffff16145b15620001da576040517f8579befe00000000000000000000000000000000000000000000000000000000815260040160405180910390fd5b8373ffffffffffffffffffffffffffffffffffffffff1660808173ffffffffffffffffffffffffffffffffffffffff16815250508173ffffffffffffffffffffffffffffffffffffffff1660a08173ffffffffffffffffffffffffffffffffffffffff168152505080600460006101000a81548173ffffffffffffffffffffffffffffffffffffffff021916908373ffffffffffffffffffffffffffffffffffffffff1602179055506000835111151560c08115158152505060c05115620002fc57620002fb600067ffffffffffffffff811115620002be57620002bd620008ae565b5b604051908082528060200260200182016040528015620002ed5781602001602082028036833780820191505090505b50846200043960201b60201c565b5b505050505050505062000cc4565b3373ffffffffffffffffffffffffffffffffffffffff168173ffffffffffffffffffffffffffffffffffffffff16036200037b576040517f08c379a0000000000000000000000000000000000000000000000000000000008152600401620003729062000ba2565b60405180910390fd5b80600160006101000a81548173ffffffffffffffffffffffffffffffffffffffff021916908373ffffffffffffffffffffffffffffffffffffffff1602179055508073ffffffffffffffffffffffffffffffffffffffff1660008054906101000a900473ffffffffffffffffffffffffffffffffffffffff1673ffffffffffffffffffffffffffffffffffffffff167fed8889f560326eb138920d842192f0eb3dd22b4f139c87a2c57538e05bae127860405160405180910390a350565b60c05162000473576040517f35f4a7b300000000000000000000000000000000000000000000000000000000815260040160405180910390fd5b60005b82518110156200050557600083828151811062000498576200049762000bc4565b5b60200260200101519050620004b8816002620005da60201b90919060201c565b15620004f8577f800671136ab6cfee9fbe5ed1fb7ca417811aca3cf864800d127b927adedf756681604051620004ef919062000c04565b60405180910390a15b5080600101905062000476565b5060005b8151811015620005d55760008282815181106200052b576200052a62000bc4565b5b60200260200101519050600073ffffffffffffffffffffffffffffffffffffffff168173ffffffffffffffffffffffffffffffffffffffff1603620005715750620005c9565b620005878160026200061260201b90919060201c565b15620005c7577f2640d4d76caf8bf478aabfa982fa4e1c4eb71a37f93cd15e80dbc657911546d881604051620005be919062000c04565b60405180910390a15b505b80600101905062000509565b505050565b60006200060a836000018373ffffffffffffffffffffffffffffffffffffffff1660001b6200064a60201b60201c565b905092915050565b600062000642836000018373ffffffffffffffffffffffffffffffffffffffff1660001b6200076e60201b60201c565b905092915050565b60008083600101600084815260200190815260200160002054905060008114620007625760006001826200067f919062000c5a565b905060006001866000018054905062000699919062000c5a565b90508181146200070f576000866000018281548110620006be57620006bd62000bc4565b5b9060005260206000200154905080876000018481548110620006e557620006e462000bc4565b5b90600052602060002001819055508387600101600083815260200190815260200160002081905550505b8560000180548062000726576200072562000c95565b5b60019003818190600052602060002001600090559055856001016000868152602001908152602001600020600090556001935050505062000768565b60009150505b92915050565b6000620007828383620007e860201b60201c565b620007dd578260000182908060018154018082558091505060019003906000526020600020016000909190919091505582600001805490508360010160008481526020019081526020016000208190555060019050620007e2565b600090505b92915050565b600080836001016000848152602001908152602001600020541415905092915050565b6000604051905090565b600080fd5b600080fd5b600073ffffffffffffffffffffffffffffffffffffffff82169050919050565b60006200084c826200081f565b9050919050565b600062000860826200083f565b9050919050565b620008728162000853565b81146200087e57600080fd5b50565b600081519050620008928162000867565b92915050565b600080fd5b6000601f19601f8301169050919050565b7f4e487b7100000000000000000000000000000000000000000000000000000000600052604160045260246000fd5b620008e8826200089d565b810181811067ffffffffffffffff821117156200090a5762000909620008ae565b5b80604052505050565b60006200091f6200080b565b90506200092d8282620008dd565b919050565b600067ffffffffffffffff82111562000950576200094f620008ae565b5b602082029050602081019050919050565b600080fd5b62000971816200083f565b81146200097d57600080fd5b50565b600081519050620009918162000966565b92915050565b6000620009ae620009a88462000932565b62000913565b90508083825260208201905060208402830185811115620009d457620009d362000961565b5b835b8181101562000a015780620009ec888262000980565b845260208401935050602081019050620009d6565b5050509392505050565b600082601f83011262000a235762000a2262000898565b5b815162000a3584826020860162000997565b91505092915050565b6000806000806080858703121562000a5b5762000a5a62000815565b5b600062000a6b8782880162000881565b945050602085015167ffffffffffffffff81111562000a8f5762000a8e6200081a565b5b62000a9d8782880162000a0b565b935050604062000ab08782880162000980565b925050606062000ac38782880162000980565b91505092959194509250565b600082825260208201905092915050565b7f43616e6e6f7420736574206f776e657220746f207a65726f0000000000000000600082015250565b600062000b1860188362000acf565b915062000b258262000ae0565b602082019050919050565b6000602082019050818103600083015262000b4b8162000b09565b9050919050565b7f43616e6e6f74207472616e7366657220746f2073656c66000000000000000000600082015250565b600062000b8a60178362000acf565b915062000b978262000b52565b602082019050919050565b6000602082019050818103600083015262000bbd8162000b7b565b9050919050565b7f4e487b7100000000000000000000000000000000000000000000000000000000600052603260045260246000fd5b62000bfe816200083f565b82525050565b600060208201905062000c1b600083018462000bf3565b92915050565b6000819050919050565b7f4e487b7100000000000000000000000000000000000000000000000000000000600052601160045260246000fd5b600062000c678262000c21565b915062000c748362000c21565b925082820390508181111562000c8f5762000c8e62000c2b565b5b92915050565b7f4e487b7100000000000000000000000000000000000000000000000000000000600052603160045260246000fd5b60805160a05160c051613d9d62000d2c600039600081816112b9015281816119850152611a4f0152600081816104fa01528181610e1c01526113390152600081816104d20152818161101601528181611d8d01528181611e360152611e910152613d9d6000f3fe608060405234801561001057600080fd5b506004361061012c5760003560e01c806396875445116100ad578063c4bffe2b11610071578063c4bffe2b1461031f578063c75eea9c1461033d578063cf7401f31461036d578063e0351e1314610389578063f2fde38b146103a75761012c565b80639687544514610267578063a7cd63b714610297578063af58d59f146102b5578063b0f479a1146102e5578063c0d78655146103035761012c565b80635995f063116100f45780635995f063146101d757806379ba5097146101f35780638627fad6146101fd5780638926f54f146102195780638da5cb5b146102495761012c565b806301ffc9a714610131578063181f5a771461016157806321df0da71461017f5780635246492f1461019d57806354c8a4f3146101bb575b600080fd5b61014b60048036038101906101469190612c3a565b6103c3565b6040516101589190612c82565b60405180910390f35b610169610495565b6040516101769190612d2d565b60405180910390f35b6101876104ce565b6040516101949190612dce565b60405180910390f35b6101a56104f6565b6040516101b29190612e0a565b60405180910390f35b6101d560048036038101906101d09190612e8a565b61051e565b005b6101f160048036038101906101ec9190612f62565b6105b8565b005b6101fb610c85565b005b61021760048036038101906102129190613181565b610e1a565b005b610233600480360381019061022e9190613234565b61110e565b6040516102409190612c82565b60405180910390f35b610251611135565b60405161025e9190612e0a565b60405180910390f35b610281600480360381019061027c91906132b7565b61115e565b60405161028e91906133c8565b60405180910390f35b61029f61147d565b6040516102ac91906134a8565b60405180910390f35b6102cf60048036038101906102ca9190613234565b61148e565b6040516102dc919061358b565b60405180910390f35b6102ed6115f6565b6040516102fa9190612e0a565b60405180910390f35b61031d600480360381019061031891906135a6565b611620565b005b610327611733565b6040516103349190613691565b60405180910390f35b61035760048036038101906103529190613234565b611801565b604051610364919061358b565b60405180910390f35b61038760048036038101906103829190613774565b611969565b005b610391611981565b60405161039e9190612c82565b60405180910390f35b6103c160048036038101906103bc91906135a6565b6119a9565b005b60007f317fa334000000000000000000000000000000000000000000000000000000007bffffffffffffffffffffffffffffffffffffffffffffffffffffffff1916827bffffffffffffffffffffffffffffffffffffffffffffffffffffffff1916148061048e57507f01ffc9a7000000000000000000000000000000000000000000000000000000007bffffffffffffffffffffffffffffffffffffffffffffffffffffffff1916827bffffffffffffffffffffffffffffffffffffffffffffffffffffffff1916145b9050919050565b6040518060400160405280601781526020017f4275726e4d696e74546f6b656e506f6f6c20312e342e3000000000000000000081525081565b60007f0000000000000000000000000000000000000000000000000000000000000000905090565b60007f0000000000000000000000000000000000000000000000000000000000000000905090565b6105266119bd565b6105b2848480806020026020016040519081016040528093929190818152602001838360200280828437600081840152601f19601f82011690508083019250505050505050838380806020026020016040519081016040528093929190818152602001838360200280828437600081840152601f19601f82011690508083019250505050505050611a4d565b50505050565b6105c06119bd565b60005b82829050811015610c805760008383838181106105e3576105e26137c7565b5b905061010002018036038101906105fa919061386f565b905061060f8160400151826020015115611bf5565b6106228160600151826020015115611bf5565b806020015115610a4d5761064e816000015167ffffffffffffffff166005611d5390919063ffffffff16565b6106935780600001516040517f1d5ad3c500000000000000000000000000000000000000000000000000000000815260040161068a91906138ac565b60405180910390fd5b6040518060a001604052808260400151602001516fffffffffffffffffffffffffffffffff1681526020014263ffffffff168152602001826040015160000151151581526020018260400151602001516fffffffffffffffffffffffffffffffff1681526020018260400151604001516fffffffffffffffffffffffffffffffff1681525060076000836000015167ffffffffffffffff1667ffffffffffffffff16815260200190815260200160002060008201518160000160006101000a8154816fffffffffffffffffffffffffffffffff02191690836fffffffffffffffffffffffffffffffff16021790555060208201518160000160106101000a81548163ffffffff021916908363ffffffff16021790555060408201518160000160146101000a81548160ff02191690831515021790555060608201518160010160006101000a8154816fffffffffffffffffffffffffffffffff02191690836fffffffffffffffffffffffffffffffff16021790555060808201518160010160106101000a8154816fffffffffffffffffffffffffffffffff02191690836fffffffffffffffffffffffffffffffff1602179055509050506040518060a001604052808260600151602001516fffffffffffffffffffffffffffffffff1681526020014263ffffffff168152602001826060015160000151151581526020018260600151602001516fffffffffffffffffffffffffffffffff1681526020018260600151604001516fffffffffffffffffffffffffffffffff1681525060086000836000015167ffffffffffffffff1667ffffffffffffffff16815260200190815260200160002060008201518160000160006101000a8154816fffffffffffffffffffffffffffffffff02191690836fffffffffffffffffffffffffffffffff16021790555060208201518160000160106101000a81548163ffffffff021916908363ffffffff16021790555060408201518160000160146101000a81548160ff02191690831515021790555060608201518160010160006101000a8154816fffffffffffffffffffffffffffffffff02191690836fffffffffffffffffffffffffffffffff16021790555060808201518160010160106101000a8154816fffffffffffffffffffffffffffffffff02191690836fffffffffffffffffffffffffffffffff1602179055509050507f0f135cbb9afa12a8bf3bbd071c117bcca4ddeca6160ef7f33d012a81b9c0c471816000015182604001518360600151604051610a4093929190613909565b60405180910390a1610c74565b610a6f816000015167ffffffffffffffff166005611d6d90919063ffffffff16565b610ab45780600001516040517f1e670e4b000000000000000000000000000000000000000000000000000000008152600401610aab91906138ac565b60405180910390fd5b60086000826000015167ffffffffffffffff1667ffffffffffffffff168152602001908152602001600020600080820160006101000a8154906fffffffffffffffffffffffffffffffff02191690556000820160106101000a81549063ffffffff02191690556000820160146101000a81549060ff02191690556001820160006101000a8154906fffffffffffffffffffffffffffffffff02191690556001820160106101000a8154906fffffffffffffffffffffffffffffffff0219169055505060076000826000015167ffffffffffffffff1667ffffffffffffffff168152602001908152602001600020600080820160006101000a8154906fffffffffffffffffffffffffffffffff02191690556000820160106101000a81549063ffffffff02191690556000820160146101000a81549060ff02191690556001820160006101000a8154906fffffffffffffffffffffffffffffffff02191690556001820160106101000a8154906fffffffffffffffffffffffffffffffff021916905550507f5204aec90a3c794d8e90fded8b46ae9c7c552803e7e832e0c1d358396d8599168160000151604051610c6b91906138ac565b60405180910390a15b508060010190506105c3565b505050565b600160009054906101000a900473ffffffffffffffffffffffffffffffffffffffff1673ffffffffffffffffffffffffffffffffffffffff163373ffffffffffffffffffffffffffffffffffffffff1614610d15576040517f08c379a0000000000000000000000000000000000000000000000000000000008152600401610d0c9061398c565b60405180910390fd5b60008060009054906101000a900473ffffffffffffffffffffffffffffffffffffffff169050336000806101000a81548173ffffffffffffffffffffffffffffffffffffffff021916908373ffffffffffffffffffffffffffffffffffffffff1602179055506000600160006101000a81548173ffffffffffffffffffffffffffffffffffffffff021916908373ffffffffffffffffffffffffffffffffffffffff1602179055503373ffffffffffffffffffffffffffffffffffffffff168173ffffffffffffffffffffffffffffffffffffffff167f8be0079c531659141344cd1fd0a4f28419497f9722a3daafe3b4186f6b6457e060405160405180910390a350565b7f000000000000000000000000000000000000000000000000000000000000000073ffffffffffffffffffffffffffffffffffffffff1663397796f76040518163ffffffff1660e01b8152600401602060405180830381865afa158015610e85573d6000803e3d6000fd5b505050506040513d601f19601f82011682018060405250810190610ea991906139c1565b15610ee0576040517fc148371500000000000000000000000000000000000000000000000000000000815260040160405180910390fd5b81610eea8161110e565b610f2b57806040517fa9902c7e000000000000000000000000000000000000000000000000000000008152600401610f2291906138ac565b60405180910390fd5b600460009054906101000a900473ffffffffffffffffffffffffffffffffffffffff1673ffffffffffffffffffffffffffffffffffffffff166383826b2b82336040518363ffffffff1660e01b8152600401610f889291906139ee565b602060405180830381865afa158015610fa5573d6000803e3d6000fd5b505050506040513d601f19601f82011682018060405250810190610fc991906139c1565b61100a57336040517f728fe07b0000000000000000000000000000000000000000000000000000000081526004016110019190612e0a565b60405180910390fd5b6110148385611d87565b7f000000000000000000000000000000000000000000000000000000000000000073ffffffffffffffffffffffffffffffffffffffff166340c10f1986866040518363ffffffff1660e01b815260040161106f929190613a26565b600060405180830381600087803b15801561108957600080fd5b505af115801561109d573d6000803e3d6000fd5b505050508473ffffffffffffffffffffffffffffffffffffffff163373ffffffffffffffffffffffffffffffffffffffff167f9d228d69b5fdb8d273a2336f8fb8612d039631024ea9bf09c424a9503aa078f0866040516110fe9190613a4f565b60405180910390a3505050505050565b600061112e8267ffffffffffffffff166005611de690919063ffffffff16565b9050919050565b60008060009054906101000a900473ffffffffffffffffffffffffffffffffffffffff16905090565b60608361116a8161110e565b6111ab57806040517fa9902c7e0000000000000000000000000000000000000000000000000000000081526004016111a291906138ac565b60405180910390fd5b600460009054906101000a900473ffffffffffffffffffffffffffffffffffffffff1673ffffffffffffffffffffffffffffffffffffffff1663a8d87a3b826040518263ffffffff1660e01b815260040161120691906138ac565b602060405180830381865afa158015611223573d6000803e3d6000fd5b505050506040513d601f19601f820116820180604052508101906112479190613a7f565b73ffffffffffffffffffffffffffffffffffffffff163373ffffffffffffffffffffffffffffffffffffffff16146112b657336040517f728fe07b0000000000000000000000000000000000000000000000000000000081526004016112ad9190612e0a565b60405180910390fd5b887f000000000000000000000000000000000000000000000000000000000000000080156112f557506112f3816002611e0090919063ffffffff16565b155b1561133757806040517fd0d2597600000000000000000000000000000000000000000000000000000000815260040161132e9190612e0a565b60405180910390fd5b7f000000000000000000000000000000000000000000000000000000000000000073ffffffffffffffffffffffffffffffffffffffff1663397796f76040518163ffffffff1660e01b8152600401602060405180830381865afa1580156113a2573d6000803e3d6000fd5b505050506040513d601f19601f820116820180604052508101906113c691906139c1565b156113fd576040517fc148371500000000000000000000000000000000000000000000000000000000815260040160405180910390fd5b6114078688611e30565b61141087611e8f565b3373ffffffffffffffffffffffffffffffffffffffff167f696de425f79f4a40bc6d2122ca50507f0efbeabbff86a84871b7196ab8ea8df7886040516114569190613a4f565b60405180910390a26040518060200160405280600081525092505050979650505050505050565b60606114896002611f1d565b905090565b611496612b61565b6115ef600860008467ffffffffffffffff1667ffffffffffffffff1681526020019081526020016000206040518060a00160405290816000820160009054906101000a90046fffffffffffffffffffffffffffffffff166fffffffffffffffffffffffffffffffff166fffffffffffffffffffffffffffffffff1681526020016000820160109054906101000a900463ffffffff1663ffffffff1663ffffffff1681526020016000820160149054906101000a900460ff161515151581526020016001820160009054906101000a90046fffffffffffffffffffffffffffffffff166fffffffffffffffffffffffffffffffff166fffffffffffffffffffffffffffffffff1681526020016001820160109054906101000a90046fffffffffffffffffffffffffffffffff166fffffffffffffffffffffffffffffffff166fffffffffffffffffffffffffffffffff1681525050611f3e565b9050919050565b6000600460009054906101000a900473ffffffffffffffffffffffffffffffffffffffff16905090565b6116286119bd565b600073ffffffffffffffffffffffffffffffffffffffff168173ffffffffffffffffffffffffffffffffffffffff160361168e576040517f8579befe00000000000000000000000000000000000000000000000000000000815260040160405180910390fd5b6000600460009054906101000a900473ffffffffffffffffffffffffffffffffffffffff16905081600460006101000a81548173ffffffffffffffffffffffffffffffffffffffff021916908373ffffffffffffffffffffffffffffffffffffffff1602179055507f02dc5c233404867c793b749c6d644beb2277536d18a7e7974d3f238e4c6f16848183604051611727929190613aac565b60405180910390a15050565b606060006117416005611ff8565b90506000815167ffffffffffffffff8111156117605761175f612fb4565b5b60405190808252806020026020018201604052801561178e5781602001602082028036833780820191505090505b50905060005b82518110156117f8578281815181106117b0576117af6137c7565b5b60200260200101518282815181106117cb576117ca6137c7565b5b602002602001019067ffffffffffffffff16908167ffffffffffffffff1681525050806001019050611794565b50809250505090565b611809612b61565b611962600760008467ffffffffffffffff1667ffffffffffffffff1681526020019081526020016000206040518060a00160405290816000820160009054906101000a90046fffffffffffffffffffffffffffffffff166fffffffffffffffffffffffffffffffff166fffffffffffffffffffffffffffffffff1681526020016000820160109054906101000a900463ffffffff1663ffffffff1663ffffffff1681526020016000820160149054906101000a900460ff161515151581526020016001820160009054906101000a90046fffffffffffffffffffffffffffffffff166fffffffffffffffffffffffffffffffff166fffffffffffffffffffffffffffffffff1681526020016001820160109054906101000a90046fffffffffffffffffffffffffffffffff166fffffffffffffffffffffffffffffffff166fffffffffffffffffffffffffffffffff1681525050611f3e565b9050919050565b6119716119bd565b61197c838383612019565b505050565b60007f0000000000000000000000000000000000000000000000000000000000000000905090565b6119b16119bd565b6119ba8161212b565b50565b60008054906101000a900473ffffffffffffffffffffffffffffffffffffffff1673ffffffffffffffffffffffffffffffffffffffff163373ffffffffffffffffffffffffffffffffffffffff1614611a4b576040517f08c379a0000000000000000000000000000000000000000000000000000000008152600401611a4290613b21565b60405180910390fd5b565b7f0000000000000000000000000000000000000000000000000000000000000000611aa4576040517f35f4a7b300000000000000000000000000000000000000000000000000000000815260040160405180910390fd5b60005b8251811015611b2c576000838281518110611ac557611ac46137c7565b5b60200260200101519050611ae381600261225790919063ffffffff16565b15611b20577f800671136ab6cfee9fbe5ed1fb7ca417811aca3cf864800d127b927adedf756681604051611b179190612e0a565b60405180910390a15b50806001019050611aa7565b5060005b8151811015611bf0576000828281518110611b4e57611b4d6137c7565b5b60200260200101519050600073ffffffffffffffffffffffffffffffffffffffff168173ffffffffffffffffffffffffffffffffffffffff1603611b925750611be5565b611ba681600261228790919063ffffffff16565b15611be3577f2640d4d76caf8bf478aabfa982fa4e1c4eb71a37f93cd15e80dbc657911546d881604051611bda9190612e0a565b60405180910390a15b505b806001019050611b30565b505050565b816000015115611ccf5781602001516fffffffffffffffffffffffffffffffff1682604001516fffffffffffffffffffffffffffffffff16101580611c505750600082604001516fffffffffffffffffffffffffffffffff16145b15611c9257816040517f8020d124000000000000000000000000000000000000000000000000000000008152600401611c899190613b41565b60405180910390fd5b8015611cca576040517f433fc33d00000000000000000000000000000000000000000000000000000000815260040160405180910390fd5b611d4f565b600082604001516fffffffffffffffffffffffffffffffff16141580611d0c5750600082602001516fffffffffffffffffffffffffffffffff1614155b15611d4e57816040517fd68af9cc000000000000000000000000000000000000000000000000000000008152600401611d459190613b41565b60405180910390fd5b5b5050565b6000611d65836000018360001b6122b7565b905092915050565b6000611d7f836000018360001b612327565b905092915050565b611de2817f0000000000000000000000000000000000000000000000000000000000000000600860008667ffffffffffffffff1667ffffffffffffffff16815260200190815260200160002061243b9092919063ffffffff16565b5050565b6000611df8836000018360001b612805565b905092915050565b6000611e28836000018373ffffffffffffffffffffffffffffffffffffffff1660001b612805565b905092915050565b611e8b817f0000000000000000000000000000000000000000000000000000000000000000600760008667ffffffffffffffff1667ffffffffffffffff16815260200190815260200160002061243b9092919063ffffffff16565b5050565b7f000000000000000000000000000000000000000000000000000000000000000073ffffffffffffffffffffffffffffffffffffffff166342966c68826040518263ffffffff1660e01b8152600401611ee89190613a4f565b600060405180830381600087803b158015611f0257600080fd5b505af1158015611f16573d6000803e3d6000fd5b5050505050565b60606000611f2d83600001612828565b905060608190508092505050919050565b611f46612b61565b611fa982606001516fffffffffffffffffffffffffffffffff1683600001516fffffffffffffffffffffffffffffffff16846020015163ffffffff1642611f8d9190613b8b565b85608001516fffffffffffffffffffffffffffffffff16612884565b82600001906fffffffffffffffffffffffffffffffff1690816fffffffffffffffffffffffffffffffff168152505042826020019063ffffffff16908163ffffffff1681525050819050919050565b6060600061200883600001612828565b905060608190508092505050919050565b6120228361110e565b61206357826040517f1e670e4b00000000000000000000000000000000000000000000000000000000815260040161205a91906138ac565b60405180910390fd5b61206e826000611bf5565b6120a782600760008667ffffffffffffffff1667ffffffffffffffff1681526020019081526020016000206128b090919063ffffffff16565b6120b2816000611bf5565b6120eb81600860008667ffffffffffffffff1667ffffffffffffffff1681526020019081526020016000206128b090919063ffffffff16565b7f0350d63aa5f270e01729d00d627eeb8f3429772b1818c016c66a588a864f912b83838360405161211e93929190613909565b60405180910390a1505050565b3373ffffffffffffffffffffffffffffffffffffffff168173ffffffffffffffffffffffffffffffffffffffff1603612199576040517f08c379a000000000000000000000000000000000000000000000000000000000815260040161219090613c0b565b60405180910390fd5b80600160006101000a81548173ffffffffffffffffffffffffffffffffffffffff021916908373ffffffffffffffffffffffffffffffffffffffff1602179055508073ffffffffffffffffffffffffffffffffffffffff1660008054906101000a900473ffffffffffffffffffffffffffffffffffffffff1673ffffffffffffffffffffffffffffffffffffffff167fed8889f560326eb138920d842192f0eb3dd22b4f139c87a2c57538e05bae127860405160405180910390a350565b600061227f836000018373ffffffffffffffffffffffffffffffffffffffff1660001b612327565b905092915050565b60006122af836000018373ffffffffffffffffffffffffffffffffffffffff1660001b6122b7565b905092915050565b60006122c38383612805565b61231c578260000182908060018154018082558091505060019003906000526020600020016000909190919091505582600001805490508360010160008481526020019081526020016000208190555060019050612321565b600090505b92915050565b6000808360010160008481526020019081526020016000205490506000811461242f5760006001826123599190613b8b565b90506000600186600001805490506123719190613b8b565b90508181146123e0576000866000018281548110612392576123916137c7565b5b90600052602060002001549050808760000184815481106123b6576123b56137c7565b5b90600052602060002001819055508387600101600083815260200190815260200160002081905550505b856000018054806123f4576123f3613c2b565b5b600190038181906000526020600020016000905590558560010160008681526020019081526020016000206000905560019350505050612435565b60009150505b92915050565b8260000160149054906101000a900460ff1615806124595750600082145b6128005760008360000160009054906101000a90046fffffffffffffffffffffffffffffffff166fffffffffffffffffffffffffffffffff16905060008460010160009054906101000a90046fffffffffffffffffffffffffffffffff166fffffffffffffffffffffffffffffffff16905060008560000160109054906101000a900463ffffffff1663ffffffff16426124f39190613b8b565b90506000811461259b5781831115612537576040517f9725942a00000000000000000000000000000000000000000000000000000000815260040160405180910390fd5b6125758284838960010160109054906101000a90046fffffffffffffffffffffffffffffffff166fffffffffffffffffffffffffffffffff16612884565b9250428660000160106101000a81548163ffffffff021916908363ffffffff1602179055505b8482101561265757600073ffffffffffffffffffffffffffffffffffffffff168473ffffffffffffffffffffffffffffffffffffffff16036126165781856040517ff94ebcd100000000000000000000000000000000000000000000000000000000815260040161260d929190613c5a565b60405180910390fd5b8185856040517f1a76572a00000000000000000000000000000000000000000000000000000000815260040161264e93929190613c83565b60405180910390fd5b8483101561277c5760008660010160109054906101000a90046fffffffffffffffffffffffffffffffff166fffffffffffffffffffffffffffffffff1690506000816001836126a69190613b8b565b86896126b29190613b8b565b6126bc9190613cba565b6126c69190613d1d565b9050600073ffffffffffffffffffffffffffffffffffffffff168673ffffffffffffffffffffffffffffffffffffffff160361273b5780856040517f15279c08000000000000000000000000000000000000000000000000000000008152600401612732929190613c5a565b60405180910390fd5b8085876040517fd0c8d23a00000000000000000000000000000000000000000000000000000000815260040161277393929190613c83565b60405180910390fd5b84836127889190613b8b565b9250828660000160006101000a8154816fffffffffffffffffffffffffffffffff02191690836fffffffffffffffffffffffffffffffff1602179055507f1871cdf8010e63f2eb8384381a68dfa7416dc571a5517e66e88b2d2d0c0a690a856040516127f49190613a4f565b60405180910390a15050505b505050565b600080836001016000848152602001908152602001600020541415905092915050565b60608160000180548060200260200160405190810160405280929190818152602001828054801561287857602002820191906000526020600020905b815481526020019060010190808311612864575b50505050509050919050565b60006128a68583856128969190613d4e565b866128a19190613cba565b612b48565b9050949350505050565b60008260000160109054906101000a900463ffffffff1663ffffffff16426128d89190613b8b565b9050600081146129e2576129848360010160009054906101000a90046fffffffffffffffffffffffffffffffff166fffffffffffffffffffffffffffffffff168460000160009054906101000a90046fffffffffffffffffffffffffffffffff166fffffffffffffffffffffffffffffffff16838660010160109054906101000a90046fffffffffffffffffffffffffffffffff166fffffffffffffffffffffffffffffffff16612884565b8360000160006101000a8154816fffffffffffffffffffffffffffffffff02191690836fffffffffffffffffffffffffffffffff160217905550428360000160106101000a81548163ffffffff021916908363ffffffff1602179055505b612a3482602001516fffffffffffffffffffffffffffffffff168460000160009054906101000a90046fffffffffffffffffffffffffffffffff166fffffffffffffffffffffffffffffffff16612b48565b8360000160006101000a8154816fffffffffffffffffffffffffffffffff02191690836fffffffffffffffffffffffffffffffff16021790555081600001518360000160146101000a81548160ff02191690831515021790555081602001518360010160006101000a8154816fffffffffffffffffffffffffffffffff02191690836fffffffffffffffffffffffffffffffff16021790555081604001518360010160106101000a8154816fffffffffffffffffffffffffffffffff02191690836fffffffffffffffffffffffffffffffff1602179055507f9ea3374b67bf275e6bb9c8ae68f9cae023e1c528b4b27e092f0bb209d3531c1982604051612b3b9190613b41565b60405180910390a1505050565b6000818310612b575781612b59565b825b905092915050565b6040518060a0016040528060006fffffffffffffffffffffffffffffffff168152602001600063ffffffff16815260200160001515815260200160006fffffffffffffffffffffffffffffffff16815260200160006fffffffffffffffffffffffffffffffff1681525090565b6000604051905090565b600080fd5b600080fd5b60007fffffffff0000000000000000000000000000000000000000000000000000000082169050919050565b612c1781612be2565b8114612c2257600080fd5b50565b600081359050612c3481612c0e565b92915050565b600060208284031215612c5057612c4f612bd8565b5b6000612c5e84828501612c25565b91505092915050565b60008115159050919050565b612c7c81612c67565b82525050565b6000602082019050612c976000830184612c73565b92915050565b600081519050919050565b600082825260208201905092915050565b60005b83811015612cd7578082015181840152602081019050612cbc565b60008484015250505050565b6000601f19601f8301169050919050565b6000612cff82612c9d565b612d098185612ca8565b9350612d19818560208601612cb9565b612d2281612ce3565b840191505092915050565b60006020820190508181036000830152612d478184612cf4565b905092915050565b600073ffffffffffffffffffffffffffffffffffffffff82169050919050565b6000819050919050565b6000612d94612d8f612d8a84612d4f565b612d6f565b612d4f565b9050919050565b6000612da682612d79565b9050919050565b6000612db882612d9b565b9050919050565b612dc881612dad565b82525050565b6000602082019050612de36000830184612dbf565b92915050565b6000612df482612d4f565b9050919050565b612e0481612de9565b82525050565b6000602082019050612e1f6000830184612dfb565b92915050565b600080fd5b600080fd5b600080fd5b60008083601f840112612e4a57612e49612e25565b5b8235905067ffffffffffffffff811115612e6757612e66612e2a565b5b602083019150836020820283011115612e8357612e82612e2f565b5b9250929050565b60008060008060408587031215612ea457612ea3612bd8565b5b600085013567ffffffffffffffff811115612ec257612ec1612bdd565b5b612ece87828801612e34565b9450945050602085013567ffffffffffffffff811115612ef157612ef0612bdd565b5b612efd87828801612e34565b925092505092959194509250565b60008083601f840112612f2157612f20612e25565b5b8235905067ffffffffffffffff811115612f3e57612f3d612e2a565b5b60208301915083610100820283011115612f5b57612f5a612e2f565b5b9250929050565b60008060208385031215612f7957612f78612bd8565b5b600083013567ffffffffffffffff811115612f9757612f96612bdd565b5b612fa385828601612f0b565b92509250509250929050565b600080fd5b7f4e487b7100000000000000000000000000000000000000000000000000000000600052604160045260246000fd5b612fec82612ce3565b810181811067ffffffffffffffff8211171561300b5761300a612fb4565b5b80604052505050565b600061301e612bce565b905061302a8282612fe3565b919050565b600067ffffffffffffffff82111561304a57613049612fb4565b5b61305382612ce3565b9050602081019050919050565b82818337600083830152505050565b600061308261307d8461302f565b613014565b90508281526020810184848401111561309e5761309d612faf565b5b6130a9848285613060565b509392505050565b600082601f8301126130c6576130c5612e25565b5b81356130d684826020860161306f565b91505092915050565b6130e881612de9565b81146130f357600080fd5b50565b600081359050613105816130df565b92915050565b6000819050919050565b61311e8161310b565b811461312957600080fd5b50565b60008135905061313b81613115565b92915050565b600067ffffffffffffffff82169050919050565b61315e81613141565b811461316957600080fd5b50565b60008135905061317b81613155565b92915050565b600080600080600060a0868803121561319d5761319c612bd8565b5b600086013567ffffffffffffffff8111156131bb576131ba612bdd565b5b6131c7888289016130b1565b95505060206131d8888289016130f6565b94505060406131e98882890161312c565b93505060606131fa8882890161316c565b925050608086013567ffffffffffffffff81111561321b5761321a612bdd565b5b613227888289016130b1565b9150509295509295909350565b60006020828403121561324a57613249612bd8565b5b60006132588482850161316c565b91505092915050565b60008083601f84011261327757613276612e25565b5b8235905067ffffffffffffffff81111561329457613293612e2a565b5b6020830191508360018202830111156132b0576132af612e2f565b5b9250929050565b600080600080600080600060a0888a0312156132d6576132d5612bd8565b5b60006132e48a828b016130f6565b975050602088013567ffffffffffffffff81111561330557613304612bdd565b5b6133118a828b01613261565b965096505060406133248a828b0161312c565b94505060606133358a828b0161316c565b935050608088013567ffffffffffffffff81111561335657613355612bdd565b5b6133628a828b01613261565b925092505092959891949750929550565b600081519050919050565b600082825260208201905092915050565b600061339a82613373565b6133a4818561337e565b93506133b4818560208601612cb9565b6133bd81612ce3565b840191505092915050565b600060208201905081810360008301526133e2818461338f565b905092915050565b600081519050919050565b600082825260208201905092915050565b6000819050602082019050919050565b61341f81612de9565b82525050565b60006134318383613416565b60208301905092915050565b6000602082019050919050565b6000613455826133ea565b61345f81856133f5565b935061346a83613406565b8060005b8381101561349b5781516134828882613425565b975061348d8361343d565b92505060018101905061346e565b5085935050505092915050565b600060208201905081810360008301526134c2818461344a565b905092915050565b60006fffffffffffffffffffffffffffffffff82169050919050565b6134ef816134ca565b82525050565b600063ffffffff82169050919050565b61350e816134f5565b82525050565b61351d81612c67565b82525050565b60a08201600082015161353960008501826134e6565b50602082015161354c6020850182613505565b50604082015161355f6040850182613514565b50606082015161357260608501826134e6565b50608082015161358560808501826134e6565b50505050565b600060a0820190506135a06000830184613523565b92915050565b6000602082840312156135bc576135bb612bd8565b5b60006135ca848285016130f6565b91505092915050565b600081519050919050565b600082825260208201905092915050565b6000819050602082019050919050565b61360881613141565b82525050565b600061361a83836135ff565b60208301905092915050565b6000602082019050919050565b600061363e826135d3565b61364881856135de565b9350613653836135ef565b8060005b8381101561368457815161366b888261360e565b975061367683613626565b925050600181019050613657565b5085935050505092915050565b600060208201905081810360008301526136ab8184613633565b905092915050565b600080fd5b6136c181612c67565b81146136cc57600080fd5b50565b6000813590506136de816136b8565b92915050565b6136ed816134ca565b81146136f857600080fd5b50565b60008135905061370a816136e4565b92915050565b600060608284031215613726576137256136b3565b5b6137306060613014565b90506000613740848285016136cf565b6000830152506020613754848285016136fb565b6020830152506040613768848285016136fb565b60408301525092915050565b600080600060e0848603121561378d5761378c612bd8565b5b600061379b8682870161316c565b93505060206137ac86828701613710565b92505060806137bd86828701613710565b9150509250925092565b7f4e487b7100000000000000000000000000000000000000000000000000000000600052603260045260246000fd5b6000610100828403121561380d5761380c6136b3565b5b6138176080613014565b905060006138278482850161316c565b600083015250602061383b848285016136cf565b602083015250604061384f84828501613710565b60408301525060a061386384828501613710565b60608301525092915050565b6000610100828403121561388657613885612bd8565b5b6000613894848285016137f6565b91505092915050565b6138a681613141565b82525050565b60006020820190506138c1600083018461389d565b92915050565b6060820160008201516138dd6000850182613514565b5060208201516138f060208501826134e6565b50604082015161390360408501826134e6565b50505050565b600060e08201905061391e600083018661389d565b61392b60208301856138c7565b61393860808301846138c7565b949350505050565b7f4d7573742062652070726f706f736564206f776e657200000000000000000000600082015250565b6000613976601683612ca8565b915061398182613940565b602082019050919050565b600060208201905081810360008301526139a581613969565b9050919050565b6000815190506139bb816136b8565b92915050565b6000602082840312156139d7576139d6612bd8565b5b60006139e5848285016139ac565b91505092915050565b6000604082019050613a03600083018561389d565b613a106020830184612dfb565b9392505050565b613a208161310b565b82525050565b6000604082019050613a3b6000830185612dfb565b613a486020830184613a17565b9392505050565b6000602082019050613a646000830184613a17565b92915050565b600081519050613a79816130df565b92915050565b600060208284031215613a9557613a94612bd8565b5b6000613aa384828501613a6a565b91505092915050565b6000604082019050613ac16000830185612dfb565b613ace6020830184612dfb565b9392505050565b7f4f6e6c792063616c6c61626c65206279206f776e657200000000000000000000600082015250565b6000613b0b601683612ca8565b9150613b1682613ad5565b602082019050919050565b60006020820190508181036000830152613b3a81613afe565b9050919050565b6000606082019050613b5660008301846138c7565b92915050565b7f4e487b7100000000000000000000000000000000000000000000000000000000600052601160045260246000fd5b6000613b968261310b565b9150613ba18361310b565b9250828203905081811115613bb957613bb8613b5c565b5b92915050565b7f43616e6e6f74207472616e7366657220746f2073656c66000000000000000000600082015250565b6000613bf5601783612ca8565b9150613c0082613bbf565b602082019050919050565b60006020820190508181036000830152613c2481613be8565b9050919050565b7f4e487b7100000000000000000000000000000000000000000000000000000000600052603160045260246000fd5b6000604082019050613c6f6000830185613a17565b613c7c6020830184613a17565b9392505050565b6000606082019050613c986000830186613a17565b613ca56020830185613a17565b613cb26040830184612dfb565b949350505050565b6000613cc58261310b565b9150613cd08361310b565b9250828201905080821115613ce857613ce7613b5c565b5b92915050565b7f4e487b7100000000000000000000000000000000000000000000000000000000600052601260045260246000fd5b6000613d288261310b565b9150613d338361310b565b925082613d4357613d42613cee565b5b828204905092915050565b6000613d598261310b565b9150613d648361310b565b9250828202613d728161310b565b91508282048414831517613d8957613d88613b5c565b5b509291505056fea164736f6c6343000818000a","linkReferences":{}},"methodIdentifiers":{"acceptOwnership()":"79ba5097","applyAllowListUpdates(address[],address[])":"54c8a4f3","applyChainUpdates((uint64,bool,(bool,uint128,uint128),(bool,uint128,uint128))[])":"5995f063","getAllowList()":"a7cd63b7","getAllowListEnabled()":"e0351e13","getArmProxy()":"5246492f","getCurrentInboundRateLimiterState(uint64)":"af58d59f","getCurrentOutboundRateLimiterState(uint64)":"c75eea9c","getRouter()":"b0f479a1","getSupportedChains()":"c4bffe2b","getToken()":"21df0da7","isSupportedChain(uint64)":"8926f54f","lockOrBurn(address,bytes,uint256,uint64,bytes)":"96875445","owner()":"8da5cb5b","releaseOrMint(bytes,address,uint256,uint64,bytes)":"8627fad6","setChainRateLimiterConfig(uint64,(bool,uint128,uint128),(bool,uint128,uint128))":"cf7401f3","setRouter(address)":"c0d78655","supportsInterface(bytes4)":"01ffc9a7","transferOwnership(address)":"f2fde38b","typeAndVersion()":"181f5a77"},"id":102}