{"abi":[{"type":"function","name":"CCIP_LOCK_OR_BURN_V1_RET_BYTES","inputs":[],"outputs":[{"name":"","type":"uint256","internalType":"uint256"}],"stateMutability":"view"},{"type":"function","name":"CCIP_POOL_V1","inputs":[],"outputs":[{"name":"","type":"bytes4","internalType":"bytes4"}],"stateMutability":"view"},{"type":"function","name":"CCIP_POOL_V1_RET_BYTES","inputs":[],"outputs":[{"name":"","type":"uint16","internalType":"uint16"}],"stateMutability":"view"}],"bytecode":{"object":"0x61018e610053600b82828239805160001a607314610046577f4e487b7100000000000000000000000000000000000000000000000000000000600052600060045260246000fd5b30600052607381538281f3fe730000000000000000000000000000000000000000301460806040526004361061004b5760003560e01c80630ccb1dfe14610050578063b7f419201461006e578063cd30939a1461008c575b600080fd5b6100586100aa565b60405161006591906100d8565b60405180910390f35b6100766100af565b6040516100839190610110565b60405180910390f35b6100946100b4565b6040516100a19190610166565b60405180910390f35b602081565b602081565b63aff2afbf60e01b81565b6000819050919050565b6100d2816100bf565b82525050565b60006020820190506100ed60008301846100c9565b92915050565b600061ffff82169050919050565b61010a816100f3565b82525050565b60006020820190506101256000830184610101565b92915050565b60007fffffffff0000000000000000000000000000000000000000000000000000000082169050919050565b6101608161012b565b82525050565b600060208201905061017b6000830184610157565b9291505056fea164736f6c6343000818000a","linkReferences":{}},"methodIdentifiers":{"CCIP_LOCK_OR_BURN_V1_RET_BYTES()":"0ccb1dfe","CCIP_POOL_V1()":"cd30939a","CCIP_POOL_V1_RET_BYTES()":"b7f41920"},"id":32}