{"abi":[{"type":"constructor","inputs":[{"name":"router","type":"address","internalType":"address"},{"name":"feeToken","type":"address","internalType":"address"}],"stateMutability":"nonpayable"},{"type":"function","name":"ccipReceive","inputs":[{"name":"message","type":"tuple","internalType":"struct Client.Any2EVMMessage","components":[{"name":"messageId","type":"bytes32","internalType":"bytes32"},{"name":"sourceChainSelector","type":"uint64","internalType":"uint64"},{"name":"sender","type":"bytes","internalType":"bytes"},{"name":"data","type":"bytes","internalType":"bytes"},{"name":"destTokenAmounts","type":"tuple[]","internalType":"struct Client.EVMTokenAmount[]","components":[{"name":"token","type":"address","internalType":"address"},{"name":"amount","type":"uint256","internalType":"uint256"}]}]}],"outputs":[],"stateMutability":"nonpayable"},{"type":"function","name":"getRouter","inputs":[],"outputs":[{"name":"","type":"address","internalType":"address"}],"stateMutability":"view"},{"type":"function","name":"supportsInterface","inputs":[{"name":"interfaceId","type":"bytes4","internalType":"bytes4"}],"outputs":[{"name":"","type":"bool","internalType":"bool"}],"stateMutability":"view"},{"type":"event","name":"MessageReceived","inputs":[],"anonymous":false},{"type":"error","name":"InvalidRouter","inputs":[{"name":"router","type":"address","internalType":"address"}]}],"bytecode":{"object":"0x60a060405234801561001057600080fd5b50604051610a06380380610a0683398181016040528101906100329190610144565b81600073ffffffffffffffffffffffffffffffffffffffff168173ffffffffffffffffffffffffffffffffffffffff16036100a55760006040517fd7f7333400000000000000000000000000000000000000000000000000000000815260040161009c9190610193565b60405180910390fd5b8073ffffffffffffffffffffffffffffffffffffffff1660808173ffffffffffffffffffffffffffffffffffffffff16815250505050506101ae565b600080fd5b600073ffffffffffffffffffffffffffffffffffffffff82169050919050565b6000610111826100e6565b9050919050565b61012181610106565b811461012c57600080fd5b50565b60008151905061013e81610118565b92915050565b6000806040838503121561015b5761015a6100e1565b5b60006101698582860161012f565b925050602061017a8582860161012f565b9150509250929050565b61018d81610106565b82525050565b60006020820190506101a86000830184610184565b92915050565b60805161083d6101c96000396000610212015261083d6000f3fe608060405234801561001057600080fd5b50600436106100415760003560e01c806301ffc9a71461004657806385572ffb14610076578063b0f479a114610092575b600080fd5b610060600480360381019061005b91906102d1565b6100b0565b60405161006d9190610319565b60405180910390f35b610090600480360381019061008b9190610358565b610182565b005b61009a61020e565b6040516100a791906103e2565b60405180910390f35b60007f85572ffb000000000000000000000000000000000000000000000000000000007bffffffffffffffffffffffffffffffffffffffffffffffffffffffff1916827bffffffffffffffffffffffffffffffffffffffffffffffffffffffff1916148061017b57507f01ffc9a7000000000000000000000000000000000000000000000000000000007bffffffffffffffffffffffffffffffffffffffffffffffffffffffff1916827bffffffffffffffffffffffffffffffffffffffffffffffffffffffff1916145b9050919050565b61018a61020e565b73ffffffffffffffffffffffffffffffffffffffff163373ffffffffffffffffffffffffffffffffffffffff16146101f957336040517fd7f733340000000000000000000000000000000000000000000000000000000081526004016101f091906103e2565b60405180910390fd5b61020b816102069061081d565b610236565b50565b60007f0000000000000000000000000000000000000000000000000000000000000000905090565b7fd82ce31e3523f6eeb2d24317b2b4133001e8472729657f663b68624c45f8f3e860405160405180910390a150565b6000604051905090565b600080fd5b600080fd5b60007fffffffff0000000000000000000000000000000000000000000000000000000082169050919050565b6102ae81610279565b81146102b957600080fd5b50565b6000813590506102cb816102a5565b92915050565b6000602082840312156102e7576102e661026f565b5b60006102f5848285016102bc565b91505092915050565b60008115159050919050565b610313816102fe565b82525050565b600060208201905061032e600083018461030a565b92915050565b600080fd5b600060a0828403121561034f5761034e610334565b5b81905092915050565b60006020828403121561036e5761036d61026f565b5b600082013567ffffffffffffffff81111561038c5761038b610274565b5b61039884828501610339565b91505092915050565b600073ffffffffffffffffffffffffffffffffffffffff82169050919050565b60006103cc826103a1565b9050919050565b6103dc816103c1565b82525050565b60006020820190506103f760008301846103d3565b92915050565b600080fd5b6000601f19601f8301169050919050565b7f4e487b7100000000000000000000000000000000000000000000000000000000600052604160045260246000fd5b61044b82610402565b810181811067ffffffffffffffff8211171561046a57610469610413565b5b80604052505050565b600061047d610265565b90506104898282610442565b919050565b600080fd5b6000819050919050565b6104a681610493565b81146104b157600080fd5b50565b6000813590506104c38161049d565b92915050565b600067ffffffffffffffff82169050919050565b6104e6816104c9565b81146104f157600080fd5b50565b600081359050610503816104dd565b92915050565b600080fd5b600080fd5b600067ffffffffffffffff82111561052e5761052d610413565b5b61053782610402565b9050602081019050919050565b82818337600083830152505050565b600061056661056184610513565b610473565b9050828152602081018484840111156105825761058161050e565b5b61058d848285610544565b509392505050565b600082601f8301126105aa576105a9610509565b5b81356105ba848260208601610553565b91505092915050565b600067ffffffffffffffff8211156105de576105dd610413565b5b602082029050602081019050919050565b600080fd5b6105fd816103c1565b811461060857600080fd5b50565b60008135905061061a816105f4565b92915050565b6000819050919050565b61063381610620565b811461063e57600080fd5b50565b6000813590506106508161062a565b92915050565b60006040828403121561066c5761066b6103fd565b5b6106766040610473565b905060006106868482850161060b565b600083015250602061069a84828501610641565b60208301525092915050565b60006106b96106b4846105c3565b610473565b905080838252602082019050604084028301858111156106dc576106db6105ef565b5b835b8181101561070557806106f18882610656565b8452602084019350506040810190506106de565b5050509392505050565b600082601f83011261072457610723610509565b5b81356107348482602086016106a6565b91505092915050565b600060a08284031215610753576107526103fd565b5b61075d60a0610473565b9050600061076d848285016104b4565b6000830152506020610781848285016104f4565b602083015250604082013567ffffffffffffffff8111156107a5576107a461048e565b5b6107b184828501610595565b604083015250606082013567ffffffffffffffff8111156107d5576107d461048e565b5b6107e184828501610595565b606083015250608082013567ffffffffffffffff8111156108055761080461048e565b5b6108118482850161070f565b60808301525092915050565b6000610829368361073d565b905091905056fea164736f6c6343000818000a","linkReferences":{}},"methodIdentifiers":{"ccipReceive((bytes32,uint64,bytes,bytes,(address,uint256)[]))":"85572ffb","getRouter()":"b0f479a1","supportsInterface(bytes4)":"01ffc9a7"},"id":97}