{"abi":[{"type":"function","name":"acceptOwnership","inputs":[],"outputs":[],"stateMutability":"nonpayable"},{"type":"function","name":"configDigestFromConfigData","inputs":[{"name":"chainSelector","type":"uint256","internalType":"uint256"},{"name":"contractAddress","type":"address","internalType":"address"},{"name":"configCount","type":"uint64","internalType":"uint64"},{"name":"signers","type":"address[]","internalType":"address[]"},{"name":"transmitters","type":"address[]","internalType":"address[]"},{"name":"f","type":"uint8","internalType":"uint8"},{"name":"onchainConfig","type":"bytes","internalType":"bytes"},{"name":"offchainConfigVersion","type":"uint64","internalType":"uint64"},{"name":"offchainConfig","type":"bytes","internalType":"bytes"}],"outputs":[{"name":"","type":"bytes32","internalType":"bytes32"}],"stateMutability":"pure"},{"type":"function","name":"getTransmitters","inputs":[],"outputs":[{"name":"","type":"address[]","internalType":"address[]"}],"stateMutability":"view"},{"type":"function","name":"latestConfigDetails","inputs":[],"outputs":[{"name":"configCount","type":"uint32","internalType":"uint32"},{"name":"blockNumber","type":"uint32","internalType":"uint32"},{"name":"configDigest","type":"bytes32","internalType":"bytes32"}],"stateMutability":"view"},{"type":"function","name":"latestConfigDigestAndEpoch","inputs":[],"outputs":[{"name":"scanLogs","type":"bool","internalType":"bool"},{"name":"configDigest","type":"bytes32","internalType":"bytes32"},{"name":"epoch","type":"uint32","internalType":"uint32"}],"stateMutability":"view"},{"type":"function","name":"owner","inputs":[],"outputs":[{"name":"","type":"address","internalType":"address"}],"stateMutability":"view"},{"type":"function","name":"setOCR2Config","inputs":[{"name":"signers","type":"address[]","internalType":"address[]"},{"name":"transmitters","type":"address[]","internalType":"address[]"},{"name":"f","type":"uint8","internalType":"uint8"},{"name":"onchainConfig","type":"bytes","internalType":"bytes"},{"name":"offchainConfigVersion","type":"uint64","internalType":"uint64"},{"name":"offchainConfig","type":"bytes","internalType":"bytes"}],"outputs":[],"stateMutability":"nonpayable"},{"type":"function","name":"transferOwnership","inputs":[{"name":"to","type":"address","internalType":"address"}],"outputs":[],"stateMutability":"nonpayable"},{"type":"function","name":"transmit","inputs":[{"name":"reportContext","type":"bytes32[3]","internalType":"bytes32[3]"},{"name":"report","type":"bytes","internalType":"bytes"},{"name":"rs","type":"bytes32[]","internalType":"bytes32[]"},{"name":"ss","type":"bytes32[]","internalType":"bytes32[]"},{"name":"","type":"bytes32","internalType":"bytes32"}],"outputs":[],"stateMutability":"nonpayable"},{"type":"function","name":"typeAndVersion","inputs":[],"outputs":[{"name":"","type":"string","internalType":"string"}],"stateMutability":"pure"},{"type":"event","name":"ConfigSet","inputs":[{"name":"previousConfigBlockNumber","type":"uint32","indexed":false,"internalType":"uint32"},{"name":"configDigest","type":"bytes32","indexed":false,"internalType":"bytes32"},{"name":"configCount","type":"uint64","indexed":false,"internalType":"uint64"},{"name":"signers","type":"address[]","indexed":false,"internalType":"address[]"},{"name":"transmitters","type":"address[]","indexed":false,"internalType":"address[]"},{"name":"f","type":"uint8","indexed":false,"internalType":"uint8"},{"name":"onchainConfig","type":"bytes","indexed":false,"internalType":"bytes"},{"name":"offchainConfigVersion","type":"uint64","indexed":false,"internalType":"uint64"},{"name":"offchainConfig","type":"bytes","indexed":false,"internalType":"bytes"}],"anonymous":false},{"type":"event","name":"OwnershipTransferRequested","inputs":[{"name":"from","type":"address","indexed":true,"internalType":"address"},{"name":"to","type":"address","indexed":true,"internalType":"address"}],"anonymous":false},{"type":"event","name":"OwnershipTransferred","inputs":[{"name":"from","type":"address","indexed":true,"internalType":"address"},{"name":"to","type":"address","indexed":true,"internalType":"address"}],"anonymous":false},{"type":"event","name":"Transmitted","inputs":[{"name":"configDigest","type":"bytes32","indexed":false,"internalType":"bytes32"},{"name":"epoch","type":"uint32","indexed":false,"internalType":"uint32"}],"anonymous":false},{"type":"error","name":"ConfigDigestMismatch","inputs":[{"name":"expected","type":"bytes32","internalType":"bytes32"},{"name":"actual","type":"bytes32","internalType":"bytes32"}]},{"type":"error","name":"ForkedChain","inputs":[{"name":"expected","type":"uint256","internalType":"uint256"},{"name":"actual","type":"uint256","internalType":"uint256"}]},{"type":"error","name":"InvalidConfig","inputs":[{"name":"errorType","type":"uint8","internalType":"enum OCR2BaseNoChecks.InvalidConfigErrorType"}]},{"type":"error","name":"OracleCannotBeZeroAddress","inputs":[]},{"type":"error","name":"UnauthorizedTransmitter","inputs":[]},{"type":"error","name":"WrongMessageLength","inputs":[{"name":"expected","type":"uint256","internalType":"uint256"},{"name":"actual","type":"uint256","internalType":"uint256"}]}],"bytecode":{"object":"0x60a06040523480156200001157600080fd5b50338060008073ffffffffffffffffffffffffffffffffffffffff168273ffffffffffffffffffffffffffffffffffffffff160362000087576040517f08c379a00000000000000000000000000000000000000000000000000000000081526004016200007e90620002af565b60405180910390fd5b816000806101000a81548173ffffffffffffffffffffffffffffffffffffffff021916908373ffffffffffffffffffffffffffffffffffffffff160217905550600073ffffffffffffffffffffffffffffffffffffffff168173ffffffffffffffffffffffffffffffffffffffff16146200010e576200010d816200011f60201b60201c565b5b505050466080818152505062000343565b3373ffffffffffffffffffffffffffffffffffffffff168173ffffffffffffffffffffffffffffffffffffffff160362000190576040517f08c379a0000000000000000000000000000000000000000000000000000000008152600401620001879062000321565b60405180910390fd5b80600160006101000a81548173ffffffffffffffffffffffffffffffffffffffff021916908373ffffffffffffffffffffffffffffffffffffffff1602179055508073ffffffffffffffffffffffffffffffffffffffff1660008054906101000a900473ffffffffffffffffffffffffffffffffffffffff1673ffffffffffffffffffffffffffffffffffffffff167fed8889f560326eb138920d842192f0eb3dd22b4f139c87a2c57538e05bae127860405160405180910390a350565b600082825260208201905092915050565b7f43616e6e6f7420736574206f776e657220746f207a65726f0000000000000000600082015250565b6000620002976018836200024e565b9150620002a4826200025f565b602082019050919050565b60006020820190508181036000830152620002ca8162000288565b9050919050565b7f43616e6e6f74207472616e7366657220746f2073656c66000000000000000000600082015250565b6000620003096017836200024e565b91506200031682620002d1565b602082019050919050565b600060208201905081810360008301526200033c81620002fa565b9050919050565b608051611faf6200036660003960008181610df50152610e1b0152611faf6000f3fe608060405234801561001057600080fd5b506004361061009e5760003560e01c806381ff70481161006657806381ff7048146101355780638da5cb5b14610155578063afcb95d714610173578063b1dc65a414610193578063f2fde38b146101af5761009e565b8063181f5a77146100a35780631ef38174146100c157806350f70782146100dd578063666cab8d1461010d57806379ba50971461012b575b600080fd5b6100ab6101cb565b6040516100b891906110dd565b60405180910390f35b6100db60048036038101906100d691906113e7565b610208565b005b6100f760048036038101906100f2919061151a565b6106db565b604051610104919061166d565b60405180910390f35b6101156106fd565b6040516101229190611746565b60405180910390f35b61013361078b565b005b61013d610920565b60405161014c93929190611787565b60405180910390f35b61015d61095a565b60405161016a91906117cd565b60405180910390f35b61017b610983565b60405161018a93929190611803565b60405180910390f35b6101ad60048036038101906101a89190611939565b61099b565b005b6101c960048036038101906101c49190611a15565b610c9e565b005b60606040518060400160405280601481526020017f4f4352324261736548656c70657220312e302e30000000000000000000000000815250905090565b84518460ff16601f8211156102555760016040517f367f56a200000000000000000000000000000000000000000000000000000000815260040161024c9190611ab9565b60405180910390fd5b6000810361029b5760006040517f367f56a20000000000000000000000000000000000000000000000000000000081526004016102929190611ab9565b60405180910390fd5b6102a3610cb2565b6102ac85610d42565b6000600680549050905060005b818110156103745760056000600683815481106102d9576102d8611ad4565b5b9060005260206000200160009054906101000a900473ffffffffffffffffffffffffffffffffffffffff1673ffffffffffffffffffffffffffffffffffffffff1673ffffffffffffffffffffffffffffffffffffffff168152602001908152602001600020600080820160006101000a81549060ff02191690556000820160016101000a81549060ff021916905550508060010190506102b9565b505060008751905060005b8181101561058e57600089828151811061039c5761039b611ad4565b5b60200260200101519050600060028111156103ba576103b9611a42565b5b600560008373ffffffffffffffffffffffffffffffffffffffff1673ffffffffffffffffffffffffffffffffffffffff16815260200190815260200160002060000160019054906101000a900460ff16600281111561041c5761041b611a42565b5b1461045f5760026040517f367f56a20000000000000000000000000000000000000000000000000000000081526004016104569190611ab9565b60405180910390fd5b600073ffffffffffffffffffffffffffffffffffffffff168173ffffffffffffffffffffffffffffffffffffffff16036104c5576040517fd6c62c9b00000000000000000000000000000000000000000000000000000000815260040160405180910390fd5b60405180604001604052808360ff1681526020016002808111156104ec576104eb611a42565b5b815250600560008373ffffffffffffffffffffffffffffffffffffffff1673ffffffffffffffffffffffffffffffffffffffff16815260200190815260200160002060008201518160000160006101000a81548160ff021916908360ff16021790555060208201518160000160016101000a81548160ff0219169083600281111561057a57610579611a42565b5b02179055509050505080600101905061037f565b5087600690805190602001906105a5929190610fa6565b5086600260010160006101000a81548160ff021916908360ff16021790555080600260010160016101000a81548160ff021916908360ff16021790555061063346306004600081819054906101000a900463ffffffff1661060590611b32565b91906101000a81548163ffffffff021916908363ffffffff160217905563ffffffff168c8c8c8c8c8c610d45565b600260000181905550600060048054906101000a900463ffffffff169050436004806101000a81548163ffffffff021916908363ffffffff1602179055507f1591690b8638f5fb2dbec82ac741805ac5da8b45dc5263f4875b0496fdce4e0581600260000154600460009054906101000a900463ffffffff168d8d8d8d8d8d6040516106c799989796959493929190611c0c565b60405180910390a150505050505050505050565b60006106ee8a8a8a8a8a8a8a8a8a610d45565b90509998505050505050505050565b6060600680548060200260200160405190810160405280929190818152602001828054801561078157602002820191906000526020600020905b8160009054906101000a900473ffffffffffffffffffffffffffffffffffffffff1673ffffffffffffffffffffffffffffffffffffffff1681526020019060010190808311610737575b5050505050905090565b600160009054906101000a900473ffffffffffffffffffffffffffffffffffffffff1673ffffffffffffffffffffffffffffffffffffffff163373ffffffffffffffffffffffffffffffffffffffff161461081b576040517f08c379a000000000000000000000000000000000000000000000000000000000815260040161081290611d01565b60405180910390fd5b60008060009054906101000a900473ffffffffffffffffffffffffffffffffffffffff169050336000806101000a81548173ffffffffffffffffffffffffffffffffffffffff021916908373ffffffffffffffffffffffffffffffffffffffff1602179055506000600160006101000a81548173ffffffffffffffffffffffffffffffffffffffff021916908373ffffffffffffffffffffffffffffffffffffffff1602179055503373ffffffffffffffffffffffffffffffffffffffff168173ffffffffffffffffffffffffffffffffffffffff167f8be0079c531659141344cd1fd0a4f28419497f9722a3daafe3b4186f6b6457e060405160405180910390a350565b6000806000600460009054906101000a900463ffffffff1660048054906101000a900463ffffffff16600260000154925092509250909192565b60008060009054906101000a900473ffffffffffffffffffffffffffffffffffffffff16905090565b600080600060016000801b6000925092509250909192565b6109a58787610dee565b6000886000600381106109bb576109ba611ad4565b5b6020020135905060006002600001549050818114610a125780826040517f93df584c000000000000000000000000000000000000000000000000000000008152600401610a09929190611d21565b60405180910390fd5b610a1a610df2565b7fb04e63db38c49950639fa09d29872f21f5d49d614f3a969d8adf3d4b52e41a628260088c600160038110610a5257610a51611ad4565b5b602002013560001c901c604051610a6a929190611d4a565b60405180910390a16000600560003373ffffffffffffffffffffffffffffffffffffffff1673ffffffffffffffffffffffffffffffffffffffff1681526020019081526020016000206040518060400160405290816000820160009054906101000a900460ff1660ff1660ff1681526020016000820160019054906101000a900460ff166002811115610b0057610aff611a42565b5b6002811115610b1257610b11611a42565b5b815250509050600280811115610b2b57610b2a611a42565b5b81602001516002811115610b4257610b41611a42565b5b148015610bbf57506006816000015160ff1681548110610b6557610b64611ad4565b5b9060005260206000200160009054906101000a900473ffffffffffffffffffffffffffffffffffffffff1673ffffffffffffffffffffffffffffffffffffffff163373ffffffffffffffffffffffffffffffffffffffff16145b610bf5576040517fda0f08e800000000000000000000000000000000000000000000000000000000815260040160405180910390fd5b506000602086869050610c089190611d73565b602089899050610c189190611d73565b8b8b905061014461ffff16610c2d9190611db5565b610c379190611db5565b610c419190611db5565b905080600036905014610c91578060003690506040517f8e1192e1000000000000000000000000000000000000000000000000000000008152600401610c88929190611df8565b60405180910390fd5b5050505050505050505050565b610ca6610cb2565b610caf81610e7a565b50565b60008054906101000a900473ffffffffffffffffffffffffffffffffffffffff1673ffffffffffffffffffffffffffffffffffffffff163373ffffffffffffffffffffffffffffffffffffffff1614610d40576040517f08c379a0000000000000000000000000000000000000000000000000000000008152600401610d3790611e6d565b60405180910390fd5b565b50565b6000808a8a8a8a8a8a8a8a8a604051602001610d6999989796959493929190611e8d565b6040516020818303038152906040528051906020012060001c9050600060f07fffffffffffffffffffffffffffffffffffffffffffffffffffffffffffffffff901b905060007e010000000000000000000000000000000000000000000000000000000000009050811983168282161760001b93505050509998505050505050505050565b5050565b467f000000000000000000000000000000000000000000000000000000000000000014610e78577f0000000000000000000000000000000000000000000000000000000000000000466040517f0f01ce85000000000000000000000000000000000000000000000000000000008152600401610e6f929190611df8565b60405180910390fd5b565b3373ffffffffffffffffffffffffffffffffffffffff168173ffffffffffffffffffffffffffffffffffffffff1603610ee8576040517f08c379a0000000000000000000000000000000000000000000000000000000008152600401610edf90611f82565b60405180910390fd5b80600160006101000a81548173ffffffffffffffffffffffffffffffffffffffff021916908373ffffffffffffffffffffffffffffffffffffffff1602179055508073ffffffffffffffffffffffffffffffffffffffff1660008054906101000a900473ffffffffffffffffffffffffffffffffffffffff1673ffffffffffffffffffffffffffffffffffffffff167fed8889f560326eb138920d842192f0eb3dd22b4f139c87a2c57538e05bae127860405160405180910390a350565b82805482825590600052602060002090810192821561101f579160200282015b8281111561101e5782518260006101000a81548173ffffffffffffffffffffffffffffffffffffffff021916908373ffffffffffffffffffffffffffffffffffffffff16021790555091602001919060010190610fc6565b5b50905061102c9190611030565b5090565b5b80821115611049576000816000905550600101611031565b5090565b600081519050919050565b600082825260208201905092915050565b60005b8381101561108757808201518184015260208101905061106c565b60008484015250505050565b6000601f19601f8301169050919050565b60006110af8261104d565b6110b98185611058565b93506110c9818560208601611069565b6110d281611093565b840191505092915050565b600060208201905081810360008301526110f781846110a4565b905092915050565b6000604051905090565b600080fd5b600080fd5b600080fd5b7f4e487b7100000000000000000000000000000000000000000000000000000000600052604160045260246000fd5b61115082611093565b810181811067ffffffffffffffff8211171561116f5761116e611118565b5b80604052505050565b60006111826110ff565b905061118e8282611147565b919050565b600067ffffffffffffffff8211156111ae576111ad611118565b5b602082029050602081019050919050565b600080fd5b600073ffffffffffffffffffffffffffffffffffffffff82169050919050565b60006111ef826111c4565b9050919050565b6111ff816111e4565b811461120a57600080fd5b50565b60008135905061121c816111f6565b92915050565b600061123561123084611193565b611178565b90508083825260208201905060208402830185811115611258576112576111bf565b5b835b81811015611281578061126d888261120d565b84526020840193505060208101905061125a565b5050509392505050565b600082601f8301126112a05761129f611113565b5b81356112b0848260208601611222565b91505092915050565b600060ff82169050919050565b6112cf816112b9565b81146112da57600080fd5b50565b6000813590506112ec816112c6565b92915050565b600080fd5b600067ffffffffffffffff82111561131257611311611118565b5b61131b82611093565b9050602081019050919050565b82818337600083830152505050565b600061134a611345846112f7565b611178565b905082815260208101848484011115611366576113656112f2565b5b611371848285611328565b509392505050565b600082601f83011261138e5761138d611113565b5b813561139e848260208601611337565b91505092915050565b600067ffffffffffffffff82169050919050565b6113c4816113a7565b81146113cf57600080fd5b50565b6000813590506113e1816113bb565b92915050565b60008060008060008060c0878903121561140457611403611109565b5b600087013567ffffffffffffffff8111156114225761142161110e565b5b61142e89828a0161128b565b965050602087013567ffffffffffffffff81111561144f5761144e61110e565b5b61145b89828a0161128b565b955050604061146c89828a016112dd565b945050606087013567ffffffffffffffff81111561148d5761148c61110e565b5b61149989828a01611379565b93505060806114aa89828a016113d2565b92505060a087013567ffffffffffffffff8111156114cb576114ca61110e565b5b6114d789828a01611379565b9150509295509295509295565b6000819050919050565b6114f7816114e4565b811461150257600080fd5b50565b600081359050611514816114ee565b92915050565b60008060008060008060008060006101208a8c03121561153d5761153c611109565b5b600061154b8c828d01611505565b995050602061155c8c828d0161120d565b985050604061156d8c828d016113d2565b97505060608a013567ffffffffffffffff81111561158e5761158d61110e565b5b61159a8c828d0161128b565b96505060808a013567ffffffffffffffff8111156115bb576115ba61110e565b5b6115c78c828d0161128b565b95505060a06115d88c828d016112dd565b94505060c08a013567ffffffffffffffff8111156115f9576115f861110e565b5b6116058c828d01611379565b93505060e06116168c828d016113d2565b9250506101008a013567ffffffffffffffff8111156116385761163761110e565b5b6116448c828d01611379565b9150509295985092959850929598565b6000819050919050565b61166781611654565b82525050565b6000602082019050611682600083018461165e565b92915050565b600081519050919050565b600082825260208201905092915050565b6000819050602082019050919050565b6116bd816111e4565b82525050565b60006116cf83836116b4565b60208301905092915050565b6000602082019050919050565b60006116f382611688565b6116fd8185611693565b9350611708836116a4565b8060005b8381101561173957815161172088826116c3565b975061172b836116db565b92505060018101905061170c565b5085935050505092915050565b6000602082019050818103600083015261176081846116e8565b905092915050565b600063ffffffff82169050919050565b61178181611768565b82525050565b600060608201905061179c6000830186611778565b6117a96020830185611778565b6117b6604083018461165e565b949350505050565b6117c7816111e4565b82525050565b60006020820190506117e260008301846117be565b92915050565b60008115159050919050565b6117fd816117e8565b82525050565b600060608201905061181860008301866117f4565b611825602083018561165e565b6118326040830184611778565b949350505050565b600081905082602060030282011115611856576118556111bf565b5b92915050565b600080fd5b60008083601f84011261187757611876611113565b5b8235905067ffffffffffffffff8111156118945761189361185c565b5b6020830191508360018202830111156118b0576118af6111bf565b5b9250929050565b60008083601f8401126118cd576118cc611113565b5b8235905067ffffffffffffffff8111156118ea576118e961185c565b5b602083019150836020820283011115611906576119056111bf565b5b9250929050565b61191681611654565b811461192157600080fd5b50565b6000813590506119338161190d565b92915050565b60008060008060008060008060e0898b03121561195957611958611109565b5b60006119678b828c0161183a565b985050606089013567ffffffffffffffff8111156119885761198761110e565b5b6119948b828c01611861565b9750975050608089013567ffffffffffffffff8111156119b7576119b661110e565b5b6119c38b828c016118b7565b955095505060a089013567ffffffffffffffff8111156119e6576119e561110e565b5b6119f28b828c016118b7565b935093505060c0611a058b828c01611924565b9150509295985092959890939650565b600060208284031215611a2b57611a2a611109565b5b6000611a398482850161120d565b91505092915050565b7f4e487b7100000000000000000000000000000000000000000000000000000000600052602160045260246000fd5b60038110611a8257611a81611a42565b5b50565b6000819050611a9382611a71565b919050565b6000611aa382611a85565b9050919050565b611ab381611a98565b82525050565b6000602082019050611ace6000830184611aaa565b92915050565b7f4e487b7100000000000000000000000000000000000000000000000000000000600052603260045260246000fd5b7f4e487b7100000000000000000000000000000000000000000000000000000000600052601160045260246000fd5b6000611b3d82611768565b915063ffffffff8203611b5357611b52611b03565b5b600182019050919050565b6000819050919050565b6000611b83611b7e611b7984611768565b611b5e565b6113a7565b9050919050565b611b9381611b68565b82525050565b611ba2816112b9565b82525050565b600081519050919050565b600082825260208201905092915050565b6000611bcf82611ba8565b611bd98185611bb3565b9350611be9818560208601611069565b611bf281611093565b840191505092915050565b611c06816113a7565b82525050565b600061012082019050611c22600083018c611778565b611c2f602083018b61165e565b611c3c604083018a611b8a565b8181036060830152611c4e81896116e8565b90508181036080830152611c6281886116e8565b9050611c7160a0830187611b99565b81810360c0830152611c838186611bc4565b9050611c9260e0830185611bfd565b818103610100830152611ca58184611bc4565b90509a9950505050505050505050565b7f4d7573742062652070726f706f736564206f776e657200000000000000000000600082015250565b6000611ceb601683611058565b9150611cf682611cb5565b602082019050919050565b60006020820190508181036000830152611d1a81611cde565b9050919050565b6000604082019050611d36600083018561165e565b611d43602083018461165e565b9392505050565b6000604082019050611d5f600083018561165e565b611d6c6020830184611778565b9392505050565b6000611d7e826114e4565b9150611d89836114e4565b9250828202611d97816114e4565b91508282048414831517611dae57611dad611b03565b5b5092915050565b6000611dc0826114e4565b9150611dcb836114e4565b9250828201905080821115611de357611de2611b03565b5b92915050565b611df2816114e4565b82525050565b6000604082019050611e0d6000830185611de9565b611e1a6020830184611de9565b9392505050565b7f4f6e6c792063616c6c61626c65206279206f776e657200000000000000000000600082015250565b6000611e57601683611058565b9150611e6282611e21565b602082019050919050565b60006020820190508181036000830152611e8681611e4a565b9050919050565b600061012082019050611ea3600083018c611de9565b611eb0602083018b6117be565b611ebd604083018a611bfd565b8181036060830152611ecf81896116e8565b90508181036080830152611ee381886116e8565b9050611ef260a0830187611b99565b81810360c0830152611f048186611bc4565b9050611f1360e0830185611bfd565b818103610100830152611f268184611bc4565b90509a9950505050505050505050565b7f43616e6e6f74207472616e7366657220746f2073656c66000000000000000000600082015250565b6000611f6c601783611058565b9150611f7782611f36565b602082019050919050565b60006020820190508181036000830152611f9b81611f5f565b905091905056fea164736f6c6343000818000a","linkReferences":{}},"methodIdentifiers":{"acceptOwnership()":"79ba5097","configDigestFromConfigData(uint256,address,uint64,address[],address[],uint8,bytes,uint64,bytes)":"50f70782","getTransmitters()":"666cab8d","latestConfigDetails()":"81ff7048","latestConfigDigestAndEpoch()":"afcb95d7","owner()":"8da5cb5b","setOCR2Config(address[],address[],uint8,bytes,uint64,bytes)":"1ef38174","transferOwnership(address)":"f2fde38b","transmit(bytes32[3],bytes,bytes32[],bytes32[],bytes32)":"b1dc65a4","typeAndVersion()":"181f5a77"},"id":93}