{"abi":[{"type":"constructor","inputs":[{"name":"router","type":"address","internalType":"address"},{"name":"token","type":"address","internalType":"address"}],"stateMutability":"nonpayable"},{"type":"function","name":"acceptOwnership","inputs":[],"outputs":[],"stateMutability":"nonpayable"},{"type":"function","name":"ccipSend","inputs":[{"name":"destinationChainSelector","type":"uint64","internalType":"uint64"},{"name":"message","type":"tuple","internalType":"struct Client.EVM2AnyMessage","components":[{"name":"receiver","type":"bytes","internalType":"bytes"},{"name":"data","type":"bytes","internalType":"bytes"},{"name":"tokenAmounts","type":"tuple[]","internalType":"struct Client.EVMTokenAmount[]","components":[{"name":"token","type":"address","internalType":"address"},{"name":"amount","type":"uint256","internalType":"uint256"}]},{"name":"feeToken","type":"address","internalType":"address"},{"name":"extraArgs","type":"bytes","internalType":"bytes"}]}],"outputs":[{"name":"messageId","type":"bytes32","internalType":"bytes32"}],"stateMutability":"payable"},{"type":"function","name":"getFee","inputs":[{"name":"destinationChainSelector","type":"uint64","internalType":"uint64"},{"name":"message","type":"tuple","internalType":"struct Client.EVM2AnyMessage","components":[{"name":"receiver","type":"bytes","internalType":"bytes"},{"name":"data","type":"bytes","internalType":"bytes"},{"name":"tokenAmounts","type":"tuple[]","internalType":"struct Client.EVMTokenAmount[]","components":[{"name":"token","type":"address","internalType":"address"},{"name":"amount","type":"uint256","internalType":"uint256"}]},{"name":"feeToken","type":"address","internalType":"address"},{"name":"extraArgs","type":"bytes","internalType":"bytes"}]}],"outputs":[{"name":"fee","type":"uint256","internalType":"uint256"}],"stateMutability":"view"},{"type":"function","name":"getRouter","inputs":[],"outputs":[{"name":"","type":"address","internalType":"contract IRouterClient"}],"stateMutability":"view"},{"type":"function","name":"getToken","inputs":[],"outputs":[{"name":"","type":"address","internalType":"address"}],"stateMutability":"view"},{"type":"function","name":"owner","inputs":[],"outputs":[{"name":"","type":"address","internalType":"address"}],"stateMutability":"view"},{"type":"function","name":"transferOwnership","inputs":[{"name":"to","type":"address","internalType":"address"}],"outputs":[],"stateMutability":"nonpayable"},{"type":"event","name":"OwnershipTransferRequested","inputs":[{"name":"from","type":"address","indexed":true,"internalType":"address"},{"name":"to","type":"address","indexed":true,"internalType":"address"}],"anonymous":false},{"type":"event","name":"OwnershipTransferred","inputs":[{"name":"from","type":"address","indexed":true,"internalType":"address"},{"name":"to","type":"address","indexed":true,"internalType":"address"}],"anonymous":false},{"type":"error","name":"GasShouldBeZero","inputs":[]},{"type":"error","name":"InvalidToken","inputs":[]},{"type":"error","name":"NoDataAllowed","inputs":[]}],"bytecode":{"object":"0x60c06040523480156200001157600080fd5b5060405162002345380380620023458339818101604052810190620000379190620003e3565b338060008073ffffffffffffffffffffffffffffffffffffffff168273ffffffffffffffffffffffffffffffffffffffff1603620000ac576040517f08c379a0000000000000000000000000000000000000000000000000000000008152600401620000a3906200048b565b60405180910390fd5b816000806101000a81548173ffffffffffffffffffffffffffffffffffffffff021916908373ffffffffffffffffffffffffffffffffffffffff160217905550600073ffffffffffffffffffffffffffffffffffffffff168173ffffffffffffffffffffffffffffffffffffffff1614620001335762000132816200024a60201b60201c565b5b5050508173ffffffffffffffffffffffffffffffffffffffff1660808173ffffffffffffffffffffffffffffffffffffffff16815250508073ffffffffffffffffffffffffffffffffffffffff1660a08173ffffffffffffffffffffffffffffffffffffffff16815250508073ffffffffffffffffffffffffffffffffffffffff1663095ea7b3837fffffffffffffffffffffffffffffffffffffffffffffffffffffffffffffffff6040518363ffffffff1660e01b8152600401620001fb929190620004d9565b6020604051808303816000875af11580156200021b573d6000803e3d6000fd5b505050506040513d601f19601f8201168201806040525081019062000241919062000543565b505050620005e7565b3373ffffffffffffffffffffffffffffffffffffffff168173ffffffffffffffffffffffffffffffffffffffff1603620002bb576040517f08c379a0000000000000000000000000000000000000000000000000000000008152600401620002b290620005c5565b60405180910390fd5b80600160006101000a81548173ffffffffffffffffffffffffffffffffffffffff021916908373ffffffffffffffffffffffffffffffffffffffff1602179055508073ffffffffffffffffffffffffffffffffffffffff1660008054906101000a900473ffffffffffffffffffffffffffffffffffffffff1673ffffffffffffffffffffffffffffffffffffffff167fed8889f560326eb138920d842192f0eb3dd22b4f139c87a2c57538e05bae127860405160405180910390a350565b600080fd5b600073ffffffffffffffffffffffffffffffffffffffff82169050919050565b6000620003ab826200037e565b9050919050565b620003bd816200039e565b8114620003c957600080fd5b50565b600081519050620003dd81620003b2565b92915050565b60008060408385031215620003fd57620003fc62000379565b5b60006200040d85828601620003cc565b92505060206200042085828601620003cc565b9150509250929050565b600082825260208201905092915050565b7f43616e6e6f7420736574206f776e657220746f207a65726f0000000000000000600082015250565b6000620004736018836200042a565b915062000480826200043b565b602082019050919050565b60006020820190508181036000830152620004a68162000464565b9050919050565b620004b8816200039e565b82525050565b6000819050919050565b620004d381620004be565b82525050565b6000604082019050620004f06000830185620004ad565b620004ff6020830184620004c8565b9392505050565b60008115159050919050565b6200051d8162000506565b81146200052957600080fd5b50565b6000815190506200053d8162000512565b92915050565b6000602082840312156200055c576200055b62000379565b5b60006200056c848285016200052c565b91505092915050565b7f43616e6e6f74207472616e7366657220746f2073656c66000000000000000000600082015250565b6000620005ad6017836200042a565b9150620005ba8262000575565b602082019050919050565b60006020820190508181036000830152620005e0816200059e565b9050919050565b60805160a051611d15620006306000396000818161025601526108010152600081816101b00152818161048d015281816105980152818161070201526107ab0152611d156000f3fe6080604052600436106100705760003560e01c80638da5cb5b1161004e5780638da5cb5b146100f457806396f4e9f91461011f578063b0f479a11461014f578063f2fde38b1461017a57610070565b806320487ded1461007557806321df0da7146100b257806379ba5097146100dd575b600080fd5b34801561008157600080fd5b5061009c60048036038101906100979190610f81565b6101a3565b6040516100a99190610ff6565b60405180910390f35b3480156100be57600080fd5b506100c7610252565b6040516100d49190611052565b60405180910390f35b3480156100e957600080fd5b506100f261027a565b005b34801561010057600080fd5b5061010961040f565b6040516101169190611052565b60405180910390f35b61013960048036038101906101349190610f81565b610438565b6040516101469190611086565b60405180910390f35b34801561015b57600080fd5b506101646107a7565b6040516101719190611100565b60405180910390f35b34801561018657600080fd5b506101a1600480360381019061019c9190611147565b6107cf565b005b60006101ae826107e3565b7f000000000000000000000000000000000000000000000000000000000000000073ffffffffffffffffffffffffffffffffffffffff166320487ded84846040518363ffffffff1660e01b81526004016102099291906114d0565b602060405180830381865afa158015610226573d6000803e3d6000fd5b505050506040513d601f19601f8201168201806040525081019061024a9190611515565b905092915050565b60007f0000000000000000000000000000000000000000000000000000000000000000905090565b600160009054906101000a900473ffffffffffffffffffffffffffffffffffffffff1673ffffffffffffffffffffffffffffffffffffffff163373ffffffffffffffffffffffffffffffffffffffff161461030a576040517f08c379a00000000000000000000000000000000000000000000000000000000081526004016103019061159f565b60405180910390fd5b60008060009054906101000a900473ffffffffffffffffffffffffffffffffffffffff169050336000806101000a81548173ffffffffffffffffffffffffffffffffffffffff021916908373ffffffffffffffffffffffffffffffffffffffff1602179055506000600160006101000a81548173ffffffffffffffffffffffffffffffffffffffff021916908373ffffffffffffffffffffffffffffffffffffffff1602179055503373ffffffffffffffffffffffffffffffffffffffff168173ffffffffffffffffffffffffffffffffffffffff167f8be0079c531659141344cd1fd0a4f28419497f9722a3daafe3b4186f6b6457e060405160405180910390a350565b60008060009054906101000a900473ffffffffffffffffffffffffffffffffffffffff16905090565b6000610443826107e3565b600073ffffffffffffffffffffffffffffffffffffffff1682606001602081019061046e9190611147565b73ffffffffffffffffffffffffffffffffffffffff161461061b5760007f000000000000000000000000000000000000000000000000000000000000000073ffffffffffffffffffffffffffffffffffffffff166320487ded85856040518363ffffffff1660e01b81526004016104e69291906114d0565b602060405180830381865afa158015610503573d6000803e3d6000fd5b505050506040513d601f19601f820116820180604052508101906105279190611515565b90506105683330838660600160208101906105429190611147565b73ffffffffffffffffffffffffffffffffffffffff16610a30909392919063ffffffff16565b82606001602081019061057b9190611147565b73ffffffffffffffffffffffffffffffffffffffff1663095ea7b37f0000000000000000000000000000000000000000000000000000000000000000836040518363ffffffff1660e01b81526004016105d59291906115bf565b6020604051808303816000875af11580156105f4573d6000803e3d6000fd5b505050506040513d601f19601f820116820180604052508101906106189190611620565b50505b81806040019061062b919061165c565b600081811061063d5761063c6116bf565b5b90506040020160000160208101906106559190611147565b73ffffffffffffffffffffffffffffffffffffffff166323b872dd3330858060400190610682919061165c565b6000818110610694576106936116bf565b5b905060400201602001356040518463ffffffff1660e01b81526004016106bc939291906116ee565b6020604051808303816000875af11580156106db573d6000803e3d6000fd5b505050506040513d601f19601f820116820180604052508101906106ff9190611620565b507f000000000000000000000000000000000000000000000000000000000000000073ffffffffffffffffffffffffffffffffffffffff166396f4e9f93485856040518463ffffffff1660e01b815260040161075c9291906114d0565b60206040518083038185885af115801561077a573d6000803e3d6000fd5b50505050506040513d601f19601f8201168201806040525081019061079f9190611751565b905092915050565b60007f0000000000000000000000000000000000000000000000000000000000000000905090565b6107d7610ab9565b6107e081610b49565b50565b60018180604001906107f5919061165c565b905014158061088957507f000000000000000000000000000000000000000000000000000000000000000073ffffffffffffffffffffffffffffffffffffffff16818060400190610846919061165c565b6000818110610858576108576116bf565b5b90506040020160000160208101906108709190611147565b73ffffffffffffffffffffffffffffffffffffffff1614155b156108c0576040517fc1ab6dc100000000000000000000000000000000000000000000000000000000815260040160405180910390fd5b60008180602001906108d2919061177e565b9050111561090c576040517f27eb6f2d00000000000000000000000000000000000000000000000000000000815260040160405180910390fd5b600081806080019061091e919061177e565b9050148061098b57506397a657c960e01b7bffffffffffffffffffffffffffffffffffffffffffffffffffffffff191681806080019061095e919061177e565b906109699190611825565b7bffffffffffffffffffffffffffffffffffffffffffffffffffffffff191614155b156109c2576040517f6633e5f600000000000000000000000000000000000000000000000000000000815260040160405180910390fd5b60008180608001906109d4919061177e565b60049080926109e59392919061188e565b8101906109f29190611985565b6000015114610a2d576040517f6633e5f600000000000000000000000000000000000000000000000000000000815260040160405180910390fd5b50565b610ab3846323b872dd60e01b858585604051602401610a51939291906116ee565b604051602081830303815290604052907bffffffffffffffffffffffffffffffffffffffffffffffffffffffff19166020820180517bffffffffffffffffffffffffffffffffffffffffffffffffffffffff8381831617835250505050610c75565b50505050565b60008054906101000a900473ffffffffffffffffffffffffffffffffffffffff1673ffffffffffffffffffffffffffffffffffffffff163373ffffffffffffffffffffffffffffffffffffffff1614610b47576040517f08c379a0000000000000000000000000000000000000000000000000000000008152600401610b3e906119fe565b60405180910390fd5b565b3373ffffffffffffffffffffffffffffffffffffffff168173ffffffffffffffffffffffffffffffffffffffff1603610bb7576040517f08c379a0000000000000000000000000000000000000000000000000000000008152600401610bae90611a6a565b60405180910390fd5b80600160006101000a81548173ffffffffffffffffffffffffffffffffffffffff021916908373ffffffffffffffffffffffffffffffffffffffff1602179055508073ffffffffffffffffffffffffffffffffffffffff1660008054906101000a900473ffffffffffffffffffffffffffffffffffffffff1673ffffffffffffffffffffffffffffffffffffffff167fed8889f560326eb138920d842192f0eb3dd22b4f139c87a2c57538e05bae127860405160405180910390a350565b6000610cd7826040518060400160405280602081526020017f5361666545524332303a206c6f772d6c6576656c2063616c6c206661696c65648152508573ffffffffffffffffffffffffffffffffffffffff16610d3c9092919063ffffffff16565b9050600081511115610d375780806020019051810190610cf79190611620565b610d36576040517f08c379a0000000000000000000000000000000000000000000000000000000008152600401610d2d90611afc565b60405180910390fd5b5b505050565b6060610d4b8484600085610d54565b90509392505050565b606082471015610d99576040517f08c379a0000000000000000000000000000000000000000000000000000000008152600401610d9090611b8e565b60405180910390fd5b6000808673ffffffffffffffffffffffffffffffffffffffff168587604051610dc29190611c1f565b60006040518083038185875af1925050503d8060008114610dff576040519150601f19603f3d011682016040523d82523d6000602084013e610e04565b606091505b5091509150610e1587838387610e21565b92505050949350505050565b60608315610e83576000835103610e7b57610e3b85610e96565b610e7a576040517f08c379a0000000000000000000000000000000000000000000000000000000008152600401610e7190611c82565b60405180910390fd5b5b829050610e8e565b610e8d8383610eb9565b5b949350505050565b6000808273ffffffffffffffffffffffffffffffffffffffff163b119050919050565b600082511115610ecc5781518083602001fd5b806040517f08c379a0000000000000000000000000000000000000000000000000000000008152600401610f009190611ce6565b60405180910390fd5b6000604051905090565b600080fd5b600080fd5b600067ffffffffffffffff82169050919050565b610f3a81610f1d565b8114610f4557600080fd5b50565b600081359050610f5781610f31565b92915050565b600080fd5b600060a08284031215610f7857610f77610f5d565b5b81905092915050565b60008060408385031215610f9857610f97610f13565b5b6000610fa685828601610f48565b925050602083013567ffffffffffffffff811115610fc757610fc6610f18565b5b610fd385828601610f62565b9150509250929050565b6000819050919050565b610ff081610fdd565b82525050565b600060208201905061100b6000830184610fe7565b92915050565b600073ffffffffffffffffffffffffffffffffffffffff82169050919050565b600061103c82611011565b9050919050565b61104c81611031565b82525050565b60006020820190506110676000830184611043565b92915050565b6000819050919050565b6110808161106d565b82525050565b600060208201905061109b6000830184611077565b92915050565b6000819050919050565b60006110c66110c16110bc84611011565b6110a1565b611011565b9050919050565b60006110d8826110ab565b9050919050565b60006110ea826110cd565b9050919050565b6110fa816110df565b82525050565b600060208201905061111560008301846110f1565b92915050565b61112481611031565b811461112f57600080fd5b50565b6000813590506111418161111b565b92915050565b60006020828403121561115d5761115c610f13565b5b600061116b84828501611132565b91505092915050565b61117d81610f1d565b82525050565b600080fd5b600080fd5b600080fd5b600080833560016020038436030381126111af576111ae61118d565b5b83810192508235915060208301925067ffffffffffffffff8211156111d7576111d6611183565b5b6001820236038313156111ed576111ec611188565b5b509250929050565b600082825260208201905092915050565b82818337600083830152505050565b6000601f19601f8301169050919050565b600061123283856111f5565b935061123f838584611206565b61124883611215565b840190509392505050565b600080833560016020038436030381126112705761126f61118d565b5b83810192508235915060208301925067ffffffffffffffff82111561129857611297611183565b5b6040820236038313156112ae576112ad611188565b5b509250929050565b600082825260208201905092915050565b6000819050919050565b60006112e06020840184611132565b905092915050565b6112f181611031565b82525050565b61130081610fdd565b811461130b57600080fd5b50565b60008135905061131d816112f7565b92915050565b6000611332602084018461130e565b905092915050565b61134381610fdd565b82525050565b6040820161135a60008301836112d1565b61136760008501826112e8565b506113756020830183611323565b611382602085018261133a565b50505050565b60006113948383611349565b60408301905092915050565b600082905092915050565b6000604082019050919050565b60006113c483856112b6565b93506113cf826112c7565b8060005b85811015611408576113e582846113a0565b6113ef8882611388565b97506113fa836113ab565b9250506001810190506113d3565b5085925050509392505050565b600060a083016114286000840184611192565b858303600087015261143b838284611226565b9250505061144c6020840184611192565b858303602087015261145f838284611226565b925050506114706040840184611253565b85830360408701526114838382846113b8565b9250505061149460608401846112d1565b6114a160608601826112e8565b506114af6080840184611192565b85830360808701526114c2838284611226565b925050508091505092915050565b60006040820190506114e56000830185611174565b81810360208301526114f78184611415565b90509392505050565b60008151905061150f816112f7565b92915050565b60006020828403121561152b5761152a610f13565b5b600061153984828501611500565b91505092915050565b600082825260208201905092915050565b7f4d7573742062652070726f706f736564206f776e657200000000000000000000600082015250565b6000611589601683611542565b915061159482611553565b602082019050919050565b600060208201905081810360008301526115b88161157c565b9050919050565b60006040820190506115d46000830185611043565b6115e16020830184610fe7565b9392505050565b60008115159050919050565b6115fd816115e8565b811461160857600080fd5b50565b60008151905061161a816115f4565b92915050565b60006020828403121561163657611635610f13565b5b60006116448482850161160b565b91505092915050565b600080fd5b600080fd5b600080fd5b600080833560016020038436030381126116795761167861164d565b5b80840192508235915067ffffffffffffffff82111561169b5761169a611652565b5b6020830192506040820236038313156116b7576116b6611657565b5b509250929050565b7f4e487b7100000000000000000000000000000000000000000000000000000000600052603260045260246000fd5b60006060820190506117036000830186611043565b6117106020830185611043565b61171d6040830184610fe7565b949350505050565b61172e8161106d565b811461173957600080fd5b50565b60008151905061174b81611725565b92915050565b60006020828403121561176757611766610f13565b5b60006117758482850161173c565b91505092915050565b6000808335600160200384360303811261179b5761179a61164d565b5b80840192508235915067ffffffffffffffff8211156117bd576117bc611652565b5b6020830192506001820236038313156117d9576117d8611657565b5b509250929050565b600082905092915050565b60007fffffffff0000000000000000000000000000000000000000000000000000000082169050919050565b600082821b905092915050565b600061183183836117e1565b8261183c81356117ec565b9250600482101561187c576118777fffffffff0000000000000000000000000000000000000000000000000000000083600403600802611818565b831692505b505092915050565b600080fd5b600080fd5b600080858511156118a2576118a1611884565b5b838611156118b3576118b2611889565b5b6001850283019150848603905094509492505050565b600080fd5b7f4e487b7100000000000000000000000000000000000000000000000000000000600052604160045260246000fd5b61190682611215565b810181811067ffffffffffffffff82111715611925576119246118ce565b5b80604052505050565b6000611938610f09565b905061194482826118fd565b919050565b60006020828403121561195f5761195e6118c9565b5b611969602061192e565b905060006119798482850161130e565b60008301525092915050565b60006020828403121561199b5761199a610f13565b5b60006119a984828501611949565b91505092915050565b7f4f6e6c792063616c6c61626c65206279206f776e657200000000000000000000600082015250565b60006119e8601683611542565b91506119f3826119b2565b602082019050919050565b60006020820190508181036000830152611a17816119db565b9050919050565b7f43616e6e6f74207472616e7366657220746f2073656c66000000000000000000600082015250565b6000611a54601783611542565b9150611a5f82611a1e565b602082019050919050565b60006020820190508181036000830152611a8381611a47565b9050919050565b7f5361666545524332303a204552433230206f7065726174696f6e20646964206e60008201527f6f74207375636365656400000000000000000000000000000000000000000000602082015250565b6000611ae6602a83611542565b9150611af182611a8a565b604082019050919050565b60006020820190508181036000830152611b1581611ad9565b9050919050565b7f416464726573733a20696e73756666696369656e742062616c616e636520666f60008201527f722063616c6c0000000000000000000000000000000000000000000000000000602082015250565b6000611b78602683611542565b9150611b8382611b1c565b604082019050919050565b60006020820190508181036000830152611ba781611b6b565b9050919050565b600081519050919050565b600081905092915050565b60005b83811015611be2578082015181840152602081019050611bc7565b60008484015250505050565b6000611bf982611bae565b611c038185611bb9565b9350611c13818560208601611bc4565b80840191505092915050565b6000611c2b8284611bee565b915081905092915050565b7f416464726573733a2063616c6c20746f206e6f6e2d636f6e7472616374000000600082015250565b6000611c6c601d83611542565b9150611c7782611c36565b602082019050919050565b60006020820190508181036000830152611c9b81611c5f565b9050919050565b600081519050919050565b6000611cb882611ca2565b611cc28185611542565b9350611cd2818560208601611bc4565b611cdb81611215565b840191505092915050565b60006020820190508181036000830152611d008184611cad565b90509291505056fea164736f6c6343000818000a","linkReferences":{}},"methodIdentifiers":{"acceptOwnership()":"79ba5097","ccipSend(uint64,(bytes,bytes,(address,uint256)[],address,bytes))":"96f4e9f9","getFee(uint64,(bytes,bytes,(address,uint256)[],address,bytes))":"20487ded","getRouter()":"b0f479a1","getToken()":"21df0da7","owner()":"8da5cb5b","transferOwnership(address)":"f2fde38b"},"id":12}