{"abi":[{"type":"constructor","inputs":[{"name":"staticConfig","type":"tuple","internalType":"struct CommitStore.StaticConfig","components":[{"name":"chainSelector","type":"uint64","internalType":"uint64"},{"name":"sourceChainSelector","type":"uint64","internalType":"uint64"},{"name":"onRamp","type":"address","internalType":"address"},{"name":"rmnProxy","type":"address","internalType":"address"}]}],"stateMutability":"nonpayable"},{"type":"function","name":"acceptOwnership","inputs":[],"outputs":[],"stateMutability":"nonpayable"},{"type":"function","name":"getDynamicConfig","inputs":[],"outputs":[{"name":"","type":"tuple","internalType":"struct CommitStore.DynamicConfig","components":[{"name":"priceRegistry","type":"address","internalType":"address"}]}],"stateMutability":"view"},{"type":"function","name":"getExpectedNextSequenceNumber","inputs":[],"outputs":[{"name":"","type":"uint64","internalType":"uint64"}],"stateMutability":"view"},{"type":"function","name":"getLatestPriceEpochAndRound","inputs":[],"outputs":[{"name":"","type":"uint64","internalType":"uint64"}],"stateMutability":"view"},{"type":"function","name":"getMerkleRoot","inputs":[{"name":"root","type":"bytes32","internalType":"bytes32"}],"outputs":[{"name":"","type":"uint256","internalType":"uint256"}],"stateMutability":"view"},{"type":"function","name":"getStaticConfig","inputs":[],"outputs":[{"name":"","type":"tuple","internalType":"struct CommitStore.StaticConfig","components":[{"name":"chainSelector","type":"uint64","internalType":"uint64"},{"name":"sourceChainSelector","type":"uint64","internalType":"uint64"},{"name":"onRamp","type":"address","internalType":"address"},{"name":"rmnProxy","type":"address","internalType":"address"}]}],"stateMutability":"view"},{"type":"function","name":"getTransmitters","inputs":[],"outputs":[{"name":"","type":"address[]","internalType":"address[]"}],"stateMutability":"view"},{"type":"function","name":"isBlessed","inputs":[{"name":"root","type":"bytes32","internalType":"bytes32"}],"outputs":[{"name":"","type":"bool","internalType":"bool"}],"stateMutability":"view"},{"type":"function","name":"isUnpausedAndNotCursed","inputs":[],"outputs":[{"name":"","type":"bool","internalType":"bool"}],"stateMutability":"view"},{"type":"function","name":"latestConfigDetails","inputs":[],"outputs":[{"name":"configCount","type":"uint32","internalType":"uint32"},{"name":"blockNumber","type":"uint32","internalType":"uint32"},{"name":"configDigest","type":"bytes32","internalType":"bytes32"}],"stateMutability":"view"},{"type":"function","name":"latestConfigDigestAndEpoch","inputs":[],"outputs":[{"name":"scanLogs","type":"bool","internalType":"bool"},{"name":"configDigest","type":"bytes32","internalType":"bytes32"},{"name":"epoch","type":"uint32","internalType":"uint32"}],"stateMutability":"view"},{"type":"function","name":"owner","inputs":[],"outputs":[{"name":"","type":"address","internalType":"address"}],"stateMutability":"view"},{"type":"function","name":"pause","inputs":[],"outputs":[],"stateMutability":"nonpayable"},{"type":"function","name":"paused","inputs":[],"outputs":[{"name":"","type":"bool","internalType":"bool"}],"stateMutability":"view"},{"type":"function","name":"report","inputs":[{"name":"commitReport","type":"bytes","internalType":"bytes"},{"name":"epochAndRound","type":"uint40","internalType":"uint40"}],"outputs":[],"stateMutability":"nonpayable"},{"type":"function","name":"resetUnblessedRoots","inputs":[{"name":"rootToReset","type":"bytes32[]","internalType":"bytes32[]"}],"outputs":[],"stateMutability":"nonpayable"},{"type":"function","name":"setLatestPriceEpochAndRound","inputs":[{"name":"latestPriceEpochAndRound","type":"uint40","internalType":"uint40"}],"outputs":[],"stateMutability":"nonpayable"},{"type":"function","name":"setMinSeqNr","inputs":[{"name":"minSeqNr","type":"uint64","internalType":"uint64"}],"outputs":[],"stateMutability":"nonpayable"},{"type":"function","name":"setOCR2Config","inputs":[{"name":"signers","type":"address[]","internalType":"address[]"},{"name":"transmitters","type":"address[]","internalType":"address[]"},{"name":"f","type":"uint8","internalType":"uint8"},{"name":"onchainConfig","type":"bytes","internalType":"bytes"},{"name":"offchainConfigVersion","type":"uint64","internalType":"uint64"},{"name":"offchainConfig","type":"bytes","internalType":"bytes"}],"outputs":[],"stateMutability":"nonpayable"},{"type":"function","name":"transferOwnership","inputs":[{"name":"to","type":"address","internalType":"address"}],"outputs":[],"stateMutability":"nonpayable"},{"type":"function","name":"transmit","inputs":[{"name":"reportContext","type":"bytes32[3]","internalType":"bytes32[3]"},{"name":"report","type":"bytes","internalType":"bytes"},{"name":"rs","type":"bytes32[]","internalType":"bytes32[]"},{"name":"ss","type":"bytes32[]","internalType":"bytes32[]"},{"name":"rawVs","type":"bytes32","internalType":"bytes32"}],"outputs":[],"stateMutability":"nonpayable"},{"type":"function","name":"typeAndVersion","inputs":[],"outputs":[{"name":"","type":"string","internalType":"string"}],"stateMutability":"view"},{"type":"function","name":"unpause","inputs":[],"outputs":[],"stateMutability":"nonpayable"},{"type":"function","name":"verify","inputs":[{"name":"hashedLeaves","type":"bytes32[]","internalType":"bytes32[]"},{"name":"proofs","type":"bytes32[]","internalType":"bytes32[]"},{"name":"proofFlagBits","type":"uint256","internalType":"uint256"}],"outputs":[{"name":"timestamp","type":"uint256","internalType":"uint256"}],"stateMutability":"view"},{"type":"event","name":"ConfigSet","inputs":[{"name":"staticConfig","type":"tuple","indexed":false,"internalType":"struct CommitStore.StaticConfig","components":[{"name":"chainSelector","type":"uint64","internalType":"uint64"},{"name":"sourceChainSelector","type":"uint64","internalType":"uint64"},{"name":"onRamp","type":"address","internalType":"address"},{"name":"rmnProxy","type":"address","internalType":"address"}]},{"name":"dynamicConfig","type":"tuple","indexed":false,"internalType":"struct CommitStore.DynamicConfig","components":[{"name":"priceRegistry","type":"address","internalType":"address"}]}],"anonymous":false},{"type":"event","name":"ConfigSet","inputs":[{"name":"previousConfigBlockNumber","type":"uint32","indexed":false,"internalType":"uint32"},{"name":"configDigest","type":"bytes32","indexed":false,"internalType":"bytes32"},{"name":"configCount","type":"uint64","indexed":false,"internalType":"uint64"},{"name":"signers","type":"address[]","indexed":false,"internalType":"address[]"},{"name":"transmitters","type":"address[]","indexed":false,"internalType":"address[]"},{"name":"f","type":"uint8","indexed":false,"internalType":"uint8"},{"name":"onchainConfig","type":"bytes","indexed":false,"internalType":"bytes"},{"name":"offchainConfigVersion","type":"uint64","indexed":false,"internalType":"uint64"},{"name":"offchainConfig","type":"bytes","indexed":false,"internalType":"bytes"}],"anonymous":false},{"type":"event","name":"LatestPriceEpochAndRoundSet","inputs":[{"name":"oldEpochAndRound","type":"uint40","indexed":false,"internalType":"uint40"},{"name":"newEpochAndRound","type":"uint40","indexed":false,"internalType":"uint40"}],"anonymous":false},{"type":"event","name":"OwnershipTransferRequested","inputs":[{"name":"from","type":"address","indexed":true,"internalType":"address"},{"name":"to","type":"address","indexed":true,"internalType":"address"}],"anonymous":false},{"type":"event","name":"OwnershipTransferred","inputs":[{"name":"from","type":"address","indexed":true,"internalType":"address"},{"name":"to","type":"address","indexed":true,"internalType":"address"}],"anonymous":false},{"type":"event","name":"Paused","inputs":[{"name":"account","type":"address","indexed":false,"internalType":"address"}],"anonymous":false},{"type":"event","name":"ReportAccepted","inputs":[{"name":"report","type":"tuple","indexed":false,"internalType":"struct CommitStore.CommitReport","components":[{"name":"priceUpdates","type":"tuple","internalType":"struct Internal.PriceUpdates","components":[{"name":"tokenPriceUpdates","type":"tuple[]","internalType":"struct Internal.TokenPriceUpdate[]","components":[{"name":"sourceToken","type":"address","internalType":"address"},{"name":"usdPerToken","type":"uint224","internalType":"uint224"}]},{"name":"gasPriceUpdates","type":"tuple[]","internalType":"struct Internal.GasPriceUpdate[]","components":[{"name":"destChainSelector","type":"uint64","internalType":"uint64"},{"name":"usdPerUnitGas","type":"uint224","internalType":"uint224"}]}]},{"name":"interval","type":"tuple","internalType":"struct CommitStore.Interval","components":[{"name":"min","type":"uint64","internalType":"uint64"},{"name":"max","type":"uint64","internalType":"uint64"}]},{"name":"merkleRoot","type":"bytes32","internalType":"bytes32"}]}],"anonymous":false},{"type":"event","name":"RootRemoved","inputs":[{"name":"root","type":"bytes32","indexed":false,"internalType":"bytes32"}],"anonymous":false},{"type":"event","name":"SequenceNumberSet","inputs":[{"name":"oldSeqNum","type":"uint64","indexed":false,"internalType":"uint64"},{"name":"newSeqNum","type":"uint64","indexed":false,"internalType":"uint64"}],"anonymous":false},{"type":"event","name":"Transmitted","inputs":[{"name":"configDigest","type":"bytes32","indexed":false,"internalType":"bytes32"},{"name":"epoch","type":"uint32","indexed":false,"internalType":"uint32"}],"anonymous":false},{"type":"event","name":"Unpaused","inputs":[{"name":"account","type":"address","indexed":false,"internalType":"address"}],"anonymous":false},{"type":"error","name":"ConfigDigestMismatch","inputs":[{"name":"expected","type":"bytes32","internalType":"bytes32"},{"name":"actual","type":"bytes32","internalType":"bytes32"}]},{"type":"error","name":"CursedByRMN","inputs":[]},{"type":"error","name":"ForkedChain","inputs":[{"name":"expected","type":"uint256","internalType":"uint256"},{"name":"actual","type":"uint256","internalType":"uint256"}]},{"type":"error","name":"InvalidCommitStoreConfig","inputs":[]},{"type":"error","name":"InvalidConfig","inputs":[{"name":"errorType","type":"uint8","internalType":"enum OCR2Base.InvalidConfigErrorType"}]},{"type":"error","name":"InvalidInterval","inputs":[{"name":"interval","type":"tuple","internalType":"struct CommitStore.Interval","components":[{"name":"min","type":"uint64","internalType":"uint64"},{"name":"max","type":"uint64","internalType":"uint64"}]}]},{"type":"error","name":"InvalidProof","inputs":[]},{"type":"error","name":"InvalidRoot","inputs":[]},{"type":"error","name":"LeavesCannotBeEmpty","inputs":[]},{"type":"error","name":"NonUniqueSignatures","inputs":[]},{"type":"error","name":"OracleCannotBeZeroAddress","inputs":[]},{"type":"error","name":"PausedError","inputs":[]},{"type":"error","name":"RootAlreadyCommitted","inputs":[]},{"type":"error","name":"SignaturesOutOfRegistration","inputs":[]},{"type":"error","name":"StaleReport","inputs":[]},{"type":"error","name":"UnauthorizedSigner","inputs":[]},{"type":"error","name":"UnauthorizedTransmitter","inputs":[]},{"type":"error","name":"WrongMessageLength","inputs":[{"name":"expected","type":"uint256","internalType":"uint256"},{"name":"actual","type":"uint256","internalType":"uint256"}]},{"type":"error","name":"WrongNumberOfSignatures","inputs":[]}],"bytecode":{"object":"0x6101406040526001600960006101000a81548167ffffffffffffffff021916908367ffffffffffffffff16021790555060006009600d6101000a81548160ff0219169083151502179055503480156200005757600080fd5b506040516200506c3803806200506c83398181016040528101906200007d919062000631565b806000338060008073ffffffffffffffffffffffffffffffffffffffff168273ffffffffffffffffffffffffffffffffffffffff1603620000f5576040517f08c379a0000000000000000000000000000000000000000000000000000000008152600401620000ec90620006c4565b60405180910390fd5b816000806101000a81548173ffffffffffffffffffffffffffffffffffffffff021916908373ffffffffffffffffffffffffffffffffffffffff160217905550600073ffffffffffffffffffffffffffffffffffffffff168173ffffffffffffffffffffffffffffffffffffffff16146200017c576200017b816200032a60201b60201c565b5b5050508015156080811515815250504660a0818152505050600073ffffffffffffffffffffffffffffffffffffffff16816040015173ffffffffffffffffffffffffffffffffffffffff161480620001e257506000816000015167ffffffffffffffff16145b80620001fc57506000816020015167ffffffffffffffff16145b80620002385750600073ffffffffffffffffffffffffffffffffffffffff16816060015173ffffffffffffffffffffffffffffffffffffffff16145b1562000270576040517f3f8be2be00000000000000000000000000000000000000000000000000000000815260040160405180910390fd5b806000015167ffffffffffffffff1660c08167ffffffffffffffff1681525050806020015167ffffffffffffffff1660e08167ffffffffffffffff1681525050806040015173ffffffffffffffffffffffffffffffffffffffff166101008173ffffffffffffffffffffffffffffffffffffffff1681525050806060015173ffffffffffffffffffffffffffffffffffffffff166101208173ffffffffffffffffffffffffffffffffffffffff1681525050505062000758565b3373ffffffffffffffffffffffffffffffffffffffff168173ffffffffffffffffffffffffffffffffffffffff16036200039b576040517f08c379a0000000000000000000000000000000000000000000000000000000008152600401620003929062000736565b60405180910390fd5b80600160006101000a81548173ffffffffffffffffffffffffffffffffffffffff021916908373ffffffffffffffffffffffffffffffffffffffff1602179055508073ffffffffffffffffffffffffffffffffffffffff1660008054906101000a900473ffffffffffffffffffffffffffffffffffffffff1673ffffffffffffffffffffffffffffffffffffffff167fed8889f560326eb138920d842192f0eb3dd22b4f139c87a2c57538e05bae127860405160405180910390a350565b6000604051905090565b600080fd5b600080fd5b6000601f19601f8301169050919050565b7f4e487b7100000000000000000000000000000000000000000000000000000000600052604160045260246000fd5b620004b8826200046d565b810181811067ffffffffffffffff82111715620004da57620004d96200047e565b5b80604052505050565b6000620004ef62000459565b9050620004fd8282620004ad565b919050565b600067ffffffffffffffff82169050919050565b620005218162000502565b81146200052d57600080fd5b50565b600081519050620005418162000516565b92915050565b600073ffffffffffffffffffffffffffffffffffffffff82169050919050565b6000620005748262000547565b9050919050565b620005868162000567565b81146200059257600080fd5b50565b600081519050620005a6816200057b565b92915050565b600060808284031215620005c557620005c462000468565b5b620005d16080620004e3565b90506000620005e38482850162000530565b6000830152506020620005f98482850162000530565b60208301525060406200060f8482850162000595565b6040830152506060620006258482850162000595565b60608301525092915050565b6000608082840312156200064a576200064962000463565b5b60006200065a84828501620005ac565b91505092915050565b600082825260208201905092915050565b7f43616e6e6f7420736574206f776e657220746f207a65726f0000000000000000600082015250565b6000620006ac60188362000663565b9150620006b98262000674565b602082019050919050565b60006020820190508181036000830152620006df816200069d565b9050919050565b7f43616e6e6f74207472616e7366657220746f2073656c66000000000000000000600082015250565b60006200071e60178362000663565b91506200072b82620006e6565b602082019050919050565b6000602082019050818103600083015262000751816200070f565b9050919050565b60805160a05160c05160e051610100516101205161487e620007ee600039600081816104ce01528181611b5101528181611cee01528181611df80152612487015260008181610492015261244b01526000818161046201528181611b8d01528181611e34015261241b01526000818161043201526123eb0152600081816114b201526114d801526000611591015261487e6000f3fe608060405234801561001057600080fd5b50600436106101585760003560e01c806379ba5097116100c3578063afcb95d71161007c578063afcb95d71461035b578063b1dc65a41461037b578063e89d039f14610397578063f2fde38b146103b5578063f47a8690146103d1578063ff888fb1146103ed57610158565b806379ba5097146102bd57806381ff7048146102c75780638456cb59146102e75780638da5cb5b146102f1578063a7206cd61461030f578063ad7a22f81461033f57610158565b80633204887511610115578063320488751461020b5780633f4ba83a1461023b5780634120fccd146102455780635c975abb14610263578063666cab8d146102815780637437ff9f1461029f57610158565b806306285c691461015d57806310c374ed1461017b578063181f5a77146101995780631dc18e56146101b75780631ef38174146101d357806329b980e4146101ef575b600080fd5b61016561041d565b6040516101729190612c71565b60405180910390f35b61018361050b565b6040516101909190612c9b565b60405180910390f35b6101a161052d565b6040516101ae9190612d46565b60405180910390f35b6101d160048036038101906101cc9190612e1e565b610566565b005b6101ed60048036038101906101e89190613102565b610576565b005b610209600480360381019061020491906131ff565b610d9e565b005b610225600480360381019061022091906132b8565b610e1e565b604051610232919061335c565b60405180910390f35b610243610f28565b005b61024d610f84565b60405161025a9190612c9b565b60405180910390f35b61026b610fa2565b6040516102789190613392565b60405180910390f35b610289610fb9565b604051610296919061345c565b60405180910390f35b6102a7611047565b6040516102b4919061349a565b60405180910390f35b6102c56110b7565b005b6102cf61124c565b6040516102de939291906134ed565b60405180910390f35b6102ef611286565b005b6102f96112e2565b6040516103069190613533565b60405180910390f35b6103296004803603810190610324919061357a565b61130b565b604051610336919061335c565b60405180910390f35b610359600480360381019061035491906135a7565b611328565b005b6103636113b1565b604051610372939291906135d4565b60405180910390f35b6103956004803603810190610390919061362d565b6113c9565b005b61039f611b4d565b6040516103ac9190613392565b60405180910390f35b6103cf60048036038101906103ca9190613709565b611c35565b005b6103eb60048036038101906103e69190613736565b611c49565b005b6104076004803603810190610402919061357a565b611cea565b6040516104149190613392565b60405180910390f35b610425612a5d565b60405180608001604052807f000000000000000000000000000000000000000000000000000000000000000067ffffffffffffffff1681526020017f000000000000000000000000000000000000000000000000000000000000000067ffffffffffffffff1681526020017f000000000000000000000000000000000000000000000000000000000000000073ffffffffffffffffffffffffffffffffffffffff1681526020017f000000000000000000000000000000000000000000000000000000000000000073ffffffffffffffffffffffffffffffffffffffff16815250905090565b6000600960089054906101000a900464ffffffffff1664ffffffffff16905090565b6040518060400160405280601581526020017f436f6d6d697453746f726520312e352e302d646576000000000000000000000081525081565b610571838383611db7565b505050565b855185518560ff16601f8311156105c55760016040517f367f56a20000000000000000000000000000000000000000000000000000000081526004016105bc91906137fa565b60405180910390fd5b6000810361060b5760006040517f367f56a200000000000000000000000000000000000000000000000000000000815260040161060291906137fa565b60405180910390fd5b8183146106505760046040517f367f56a200000000000000000000000000000000000000000000000000000000815260040161064791906137fa565b60405180910390fd5b80600361065d9190613844565b83116106a15760026040517f367f56a200000000000000000000000000000000000000000000000000000000815260040161069891906137fa565b60405180910390fd5b6106a961223a565b6106b2866122ca565b6000600680549050905060005b818110156108225760056000600683815481106106df576106de613886565b5b9060005260206000200160009054906101000a900473ffffffffffffffffffffffffffffffffffffffff1673ffffffffffffffffffffffffffffffffffffffff1673ffffffffffffffffffffffffffffffffffffffff168152602001908152602001600020600080820160006101000a81549060ff02191690556000820160016101000a81549060ff02191690555050600560006007838154811061078757610786613886565b5b9060005260206000200160009054906101000a900473ffffffffffffffffffffffffffffffffffffffff1673ffffffffffffffffffffffffffffffffffffffff1673ffffffffffffffffffffffffffffffffffffffff168152602001908152602001600020600080820160006101000a81549060ff02191690556000820160016101000a81549060ff021916905550508060010190506106bf565b5060008a51905060005b81811015610c385760008c828151811061084957610848613886565b5b602002602001015190506000600281111561086757610866613783565b5b600560008373ffffffffffffffffffffffffffffffffffffffff1673ffffffffffffffffffffffffffffffffffffffff16815260200190815260200160002060000160019054906101000a900460ff1660028111156108c9576108c8613783565b5b1461090c5760036040517f367f56a200000000000000000000000000000000000000000000000000000000815260040161090391906137fa565b60405180910390fd5b600073ffffffffffffffffffffffffffffffffffffffff168173ffffffffffffffffffffffffffffffffffffffff1603610972576040517fd6c62c9b00000000000000000000000000000000000000000000000000000000815260040160405180910390fd5b60405180604001604052808360ff1681526020016001600281111561099a57610999613783565b5b815250600560008373ffffffffffffffffffffffffffffffffffffffff1673ffffffffffffffffffffffffffffffffffffffff16815260200190815260200160002060008201518160000160006101000a81548160ff021916908360ff16021790555060208201518160000160016101000a81548160ff02191690836002811115610a2857610a27613783565b5b021790555090505060008c8381518110610a4557610a44613886565b5b6020026020010151905060006002811115610a6357610a62613783565b5b600560008373ffffffffffffffffffffffffffffffffffffffff1673ffffffffffffffffffffffffffffffffffffffff16815260200190815260200160002060000160019054906101000a900460ff166002811115610ac557610ac4613783565b5b14610b085760036040517f367f56a2000000000000000000000000000000000000000000000000000000008152600401610aff91906137fa565b60405180910390fd5b600073ffffffffffffffffffffffffffffffffffffffff168173ffffffffffffffffffffffffffffffffffffffff1603610b6e576040517fd6c62c9b00000000000000000000000000000000000000000000000000000000815260040160405180910390fd5b60405180604001604052808460ff168152602001600280811115610b9557610b94613783565b5b815250600560008373ffffffffffffffffffffffffffffffffffffffff1673ffffffffffffffffffffffffffffffffffffffff16815260200190815260200160002060008201518160000160006101000a81548160ff021916908360ff16021790555060208201518160000160016101000a81548160ff02191690836002811115610c2357610c22613783565b5b0217905550905050505080600101905061082c565b508a60069080519060200190610c4f929190612ac5565b508960079080519060200190610c66929190612ac5565b5088600260010160006101000a81548160ff021916908360ff16021790555080600260010160016101000a81548160ff021916908360ff160217905550610cf446306004600081819054906101000a900463ffffffff16610cc6906138b5565b91906101000a81548163ffffffff021916908363ffffffff160217905563ffffffff168e8e8e8e8e8e6124da565b600260000181905550600060048054906101000a900463ffffffff169050436004806101000a81548163ffffffff021916908363ffffffff1602179055507f1591690b8638f5fb2dbec82ac741805ac5da8b45dc5263f4875b0496fdce4e0581600260000154600460009054906101000a900463ffffffff168f8f8f8f8f8f604051610d8899989796959493929190613980565b60405180910390a1505050505050505050505050565b610da661223a565b6000600960089054906101000a900464ffffffffff16905081600960086101000a81548164ffffffffff021916908364ffffffffff1602179055507ff0d557bfce33e354b41885eb9264448726cfe51f486ffa69809d2bf5654564448183604051610e12929190613a38565b60405180910390a15050565b6000610e28610fa2565b15610e5f576040517feced32bc00000000000000000000000000000000000000000000000000000000815260040160405180910390fd5b6000610eee878780806020026020016040519081016040528093929190818152602001838360200280828437600081840152601f19601f82011690508083019250505050505050868680806020026020016040519081016040528093929190818152602001838360200280828437600081840152601f19601f8201169050808301925050505050505085612583565b9050610ef981611cea565b610f07576000915050610f1f565b600a6000828152602001908152602001600020549150505b95945050505050565b610f3061223a565b60006009600d6101000a81548160ff0219169083151502179055507f5db9ee0a495bf2e6ff9c91a7834c1ba4fdd244a5e8aa4e537bd38aeae4b073aa33604051610f7a9190613533565b60405180910390a1565b6000600960009054906101000a900467ffffffffffffffff16905090565b60006009600d9054906101000a900460ff16905090565b6060600780548060200260200160405190810160405280929190818152602001828054801561103d57602002820191906000526020600020905b8160009054906101000a900473ffffffffffffffffffffffffffffffffffffffff1673ffffffffffffffffffffffffffffffffffffffff1681526020019060010190808311610ff3575b5050505050905090565b61104f612b4f565b60086040518060200160405290816000820160009054906101000a900473ffffffffffffffffffffffffffffffffffffffff1673ffffffffffffffffffffffffffffffffffffffff1673ffffffffffffffffffffffffffffffffffffffff1681525050905090565b600160009054906101000a900473ffffffffffffffffffffffffffffffffffffffff1673ffffffffffffffffffffffffffffffffffffffff163373ffffffffffffffffffffffffffffffffffffffff1614611147576040517f08c379a000000000000000000000000000000000000000000000000000000000815260040161113e90613aad565b60405180910390fd5b60008060009054906101000a900473ffffffffffffffffffffffffffffffffffffffff169050336000806101000a81548173ffffffffffffffffffffffffffffffffffffffff021916908373ffffffffffffffffffffffffffffffffffffffff1602179055506000600160006101000a81548173ffffffffffffffffffffffffffffffffffffffff021916908373ffffffffffffffffffffffffffffffffffffffff1602179055503373ffffffffffffffffffffffffffffffffffffffff168173ffffffffffffffffffffffffffffffffffffffff167f8be0079c531659141344cd1fd0a4f28419497f9722a3daafe3b4186f6b6457e060405160405180910390a350565b6000806000600460009054906101000a900463ffffffff1660048054906101000a900463ffffffff16600260000154925092509250909192565b61128e61223a565b60016009600d6101000a81548160ff0219169083151502179055507f62e78cea01bee320cd4e420270b5ea74000d11b0c9f74754ebdbfc544b05a258336040516112d89190613533565b60405180910390a1565b60008060009054906101000a900473ffffffffffffffffffffffffffffffffffffffff16905090565b6000600a6000838152602001908152602001600020549050919050565b61133061223a565b6000600960009054906101000a900467ffffffffffffffff16905081600960006101000a81548167ffffffffffffffff021916908367ffffffffffffffff1602179055507fea59e8027e41fda1525220008cf2416797405065eb21b0ebd417bfc6d361b8de81836040516113a5929190613acd565b60405180910390a15050565b600080600060016000801b6000925092509250909192565b6113ef87878a6001600381106113e2576113e1613886565b5b602002013560001c611db7565b60008860006003811061140557611404613886565b5b6020020135905060006002604051806060016040529081600082015481526020016001820160009054906101000a900460ff1660ff1660ff1681526020016001820160019054906101000a900460ff1660ff1660ff16815250509050818160000151146114af578060000151826040517f93df584c0000000000000000000000000000000000000000000000000000000081526004016114a6929190613af6565b60405180910390fd5b467f000000000000000000000000000000000000000000000000000000000000000014611535577f0000000000000000000000000000000000000000000000000000000000000000466040517f0f01ce8500000000000000000000000000000000000000000000000000000000815260040161152c929190613b1f565b60405180910390fd5b7fb04e63db38c49950639fa09d29872f21f5d49d614f3a969d8adf3d4b52e41a628260088c60016003811061156d5761156c613886565b5b602002013560001c901c604051611585929190613b48565b60405180910390a160007f0000000000000000000000000000000000000000000000000000000000000000156115eb5760016002836020015184604001516115cd9190613b71565b6115d79190613bd5565b6115e19190613b71565b60ff169050611602565b600182602001516115fc9190613b71565b60ff1690505b80888890501461163e576040517f71253a2500000000000000000000000000000000000000000000000000000000815260040160405180910390fd5b85859050888890501461167d576040517fa75d88af00000000000000000000000000000000000000000000000000000000815260040160405180910390fd5b6000600560003373ffffffffffffffffffffffffffffffffffffffff1673ffffffffffffffffffffffffffffffffffffffff1681526020019081526020016000206040518060400160405290816000820160009054906101000a900460ff1660ff1660ff1681526020016000820160019054906101000a900460ff16600281111561170b5761170a613783565b5b600281111561171d5761171c613783565b5b81525050905060028081111561173657611735613783565b5b8160200151600281111561174d5761174c613783565b5b1480156117ca57506007816000015160ff16815481106117705761176f613886565b5b9060005260206000200160009054906101000a900473ffffffffffffffffffffffffffffffffffffffff1673ffffffffffffffffffffffffffffffffffffffff163373ffffffffffffffffffffffffffffffffffffffff16145b611800576040517fda0f08e800000000000000000000000000000000000000000000000000000000815260040160405180910390fd5b5060006020878790506118139190613844565b60208a8a90506118239190613844565b8c8c905061014461ffff166118389190613c06565b6118429190613c06565b61184c9190613c06565b90508060003690501461189c578060003690506040517f8e1192e1000000000000000000000000000000000000000000000000000000008152600401611893929190613b1f565b60405180910390fd5b5060008a8a6040516118af929190613c6a565b60405180910390208c6040516020016118c9929190613cbd565b6040516020818303038152906040528051906020012090506118e9612b78565b60008a8a9050905060005b81811015611b3c576000600185601b8b856020811061191657611915613886565b5b1a60f81b60f81c6119279190613b71565b8f8f8681811061193a57611939613886565b5b905060200201358e8e8781811061195457611953613886565b5b90506020020135604051600081526020016040526040516119789493929190613ce9565b6020604051602081039080840390855afa15801561199a573d6000803e3d6000fd5b5050506020604051035190506000600560008373ffffffffffffffffffffffffffffffffffffffff1673ffffffffffffffffffffffffffffffffffffffff1681526020019081526020016000206040518060400160405290816000820160009054906101000a900460ff1660ff1660ff1681526020016000820160019054906101000a900460ff166002811115611a3457611a33613783565b5b6002811115611a4657611a45613783565b5b81525050905060016002811115611a6057611a5f613783565b5b81602001516002811115611a7757611a76613783565b5b14611aae576040517fca31867a00000000000000000000000000000000000000000000000000000000815260040160405180910390fd5b84816000015160ff16601f8110611ac857611ac7613886565b5b602002015115611b04576040517ff67bc7c400000000000000000000000000000000000000000000000000000000815260040160405180910390fd5b600185826000015160ff16601f8110611b2057611b1f613886565b5b60200201901515908115158152505050508060010190506118f4565b505050505050505050505050505050565b60007f000000000000000000000000000000000000000000000000000000000000000073ffffffffffffffffffffffffffffffffffffffff16632cbc26bb7f000000000000000000000000000000000000000000000000000000000000000067ffffffffffffffff1660801b6040518263ffffffff1660e01b8152600401611bd59190613d69565b602060405180830381865afa158015611bf2573d6000803e3d6000fd5b505050506040513d601f19601f82011682018060405250810190611c169190613db0565b158015611c3057506009600d9054906101000a900460ff16155b905090565b611c3d61223a565b611c46816128cd565b50565b611c5161223a565b60005b82829050811015611ce5576000838383818110611c7457611c73613886565b5b905060200201359050611c8681611cea565b611cd957600a6000828152602001908152602001600020600090557f202f1139a3e334b6056064c0e9b19fd07e44a88d8f6e5ded571b24cf8c371f1281604051611cd09190613ddd565b60405180910390a15b50806001019050611c54565b505050565b60007f000000000000000000000000000000000000000000000000000000000000000073ffffffffffffffffffffffffffffffffffffffff16634d61677160405180604001604052803073ffffffffffffffffffffffffffffffffffffffff168152602001858152506040518263ffffffff1660e01b8152600401611d6f9190613e36565b602060405180830381865afa158015611d8c573d6000803e3d6000fd5b505050506040513d601f19601f82011682018060405250810190611db09190613db0565b9050919050565b611dbf610fa2565b15611df6576040517feced32bc00000000000000000000000000000000000000000000000000000000815260040160405180910390fd5b7f000000000000000000000000000000000000000000000000000000000000000073ffffffffffffffffffffffffffffffffffffffff16632cbc26bb7f000000000000000000000000000000000000000000000000000000000000000067ffffffffffffffff1660801b6040518263ffffffff1660e01b8152600401611e7c9190613d69565b602060405180830381865afa158015611e99573d6000803e3d6000fd5b505050506040513d601f19601f82011682018060405250810190611ebd9190613db0565b15611ef4576040517f53ad11d800000000000000000000000000000000000000000000000000000000815260040160405180910390fd5b60008383810190611f05919061422d565b90506000816000015160000151511180611f285750600081600001516020015151115b15612068578164ffffffffff16600960089054906101000a900464ffffffffff1664ffffffffff1610156120265781600960086101000a81548164ffffffffff021916908364ffffffffff160217905550600860000160009054906101000a900473ffffffffffffffffffffffffffffffffffffffff1673ffffffffffffffffffffffffffffffffffffffff16633937306f82600001516040518263ffffffff1660e01b8152600401611fdb9190614485565b600060405180830381600087803b158015611ff557600080fd5b505af1158015612009573d6000803e3d6000fd5b505050506000801b8160400151036120215750612235565b612067565b6000801b816040015103612066576040517ff803a2ca00000000000000000000000000000000000000000000000000000000815260040160405180910390fd5b5b5b80602001516000015167ffffffffffffffff16600960009054906101000a900467ffffffffffffffff1667ffffffffffffffff161415806120cc575080602001516020015167ffffffffffffffff1681602001516000015167ffffffffffffffff16115b156121125780602001516040517fbb1ae18d00000000000000000000000000000000000000000000000000000000815260040161210991906144d6565b60405180910390fd5b6000801b816040015103612152576040517f504570e300000000000000000000000000000000000000000000000000000000815260040160405180910390fd5b6000600a60008360400151815260200190815260200160002054146121a3576040517fa0bce24f00000000000000000000000000000000000000000000000000000000815260040160405180910390fd5b60018160200151602001516121b891906144f1565b600960006101000a81548167ffffffffffffffff021916908367ffffffffffffffff16021790555042600a600083604001518152602001908152602001600020819055507f291698c01aa71f912280535d88a00d2c59fb63530a3f5d0098560468acb9ebf58160405161222b91906145f0565b60405180910390a1505b505050565b60008054906101000a900473ffffffffffffffffffffffffffffffffffffffff1673ffffffffffffffffffffffffffffffffffffffff163373ffffffffffffffffffffffffffffffffffffffff16146122c8576040517f08c379a00000000000000000000000000000000000000000000000000000000081526004016122bf9061465e565b60405180910390fd5b565b6000818060200190518101906122e091906146cf565b9050600073ffffffffffffffffffffffffffffffffffffffff16816000015173ffffffffffffffffffffffffffffffffffffffff160361234c576040517f3f8be2be00000000000000000000000000000000000000000000000000000000815260040160405180910390fd5b80600860008201518160000160006101000a81548173ffffffffffffffffffffffffffffffffffffffff021916908373ffffffffffffffffffffffffffffffffffffffff1602179055509050506000600960086101000a81548164ffffffffff021916908364ffffffffff1602179055507fc9d7123efd4203e60b0f0a4b1dbc4800fc97ce63679f71c3a27279b24a7ddec360405180608001604052807f000000000000000000000000000000000000000000000000000000000000000067ffffffffffffffff1681526020017f000000000000000000000000000000000000000000000000000000000000000067ffffffffffffffff1681526020017f000000000000000000000000000000000000000000000000000000000000000073ffffffffffffffffffffffffffffffffffffffff1681526020017f000000000000000000000000000000000000000000000000000000000000000073ffffffffffffffffffffffffffffffffffffffff16815250826040516124ce9291906146fc565b60405180910390a15050565b6000808a8a8a8a8a8a8a8a8a6040516020016124fe99989796959493929190614725565b6040516020818303038152906040528051906020012060001c9050600060f07fffffffffffffffffffffffffffffffffffffffffffffffffffffffffffffffff901b905060007e010000000000000000000000000000000000000000000000000000000000009050811983168282161760001b93505050509998505050505050505050565b60008084519050600084519050600082036125ca576040517f11a6b26400000000000000000000000000000000000000000000000000000000815260040160405180910390fd5b60016101000182111580156125e457506001610100018111155b61261a576040517f09bde33900000000000000000000000000000000000000000000000000000000815260040160405180910390fd5b60006001828401039050610100811115612660576040517f09bde33900000000000000000000000000000000000000000000000000000000815260040160405180910390fd5b6000810361268e578660008151811061267c5761267b613886565b5b602002602001015193505050506128c6565b60008167ffffffffffffffff8111156126aa576126a9612e7e565b5b6040519080825280602002602001820160405280156126d85781602001602082028036833780820191505090505b50905060008060008060008092509250925060005b8581101561284b576000816001901b826001901b8c16036127615788851015612738578c858060010196508151811061272957612728613886565b5b6020026020010151905061275c565b85848060010195508151811061275157612750613886565b5b602002602001015190505b612785565b8b838060010194508151811061277a57612779613886565b5b602002602001015190505b6000898610156127b7578d86806001019750815181106127a8576127a7613886565b5b602002602001015190506127db565b8685806001019650815181106127d0576127cf613886565b5b602002602001015190505b82851115612815576040517f09bde33900000000000000000000000000000000000000000000000000000000815260040160405180910390fd5b61281f82826129f9565b87848151811061283257612831613886565b5b60200260200101818152505050508060010190506126ed565b50600185038214801561285d57508683145b801561286857508581145b61289e576040517f09bde33900000000000000000000000000000000000000000000000000000000815260040160405180910390fd5b8360018603815181106128b4576128b3613886565b5b60200260200101519750505050505050505b9392505050565b3373ffffffffffffffffffffffffffffffffffffffff168173ffffffffffffffffffffffffffffffffffffffff160361293b576040517f08c379a00000000000000000000000000000000000000000000000000000000081526004016129329061481a565b60405180910390fd5b80600160006101000a81548173ffffffffffffffffffffffffffffffffffffffff021916908373ffffffffffffffffffffffffffffffffffffffff1602179055508073ffffffffffffffffffffffffffffffffffffffff1660008054906101000a900473ffffffffffffffffffffffffffffffffffffffff1673ffffffffffffffffffffffffffffffffffffffff167fed8889f560326eb138920d842192f0eb3dd22b4f139c87a2c57538e05bae127860405160405180910390a350565b6000818310612a1157612a0c8284612a24565b612a1c565b612a1b8383612a24565b5b905092915050565b6000600160001b8383604051602001612a3f9392919061483a565b60405160208183030381529060405280519060200120905092915050565b6040518060800160405280600067ffffffffffffffff168152602001600067ffffffffffffffff168152602001600073ffffffffffffffffffffffffffffffffffffffff168152602001600073ffffffffffffffffffffffffffffffffffffffff1681525090565b828054828255906000526020600020908101928215612b3e579160200282015b82811115612b3d5782518260006101000a81548173ffffffffffffffffffffffffffffffffffffffff021916908373ffffffffffffffffffffffffffffffffffffffff16021790555091602001919060010190612ae5565b5b509050612b4b9190612b9b565b5090565b6040518060200160405280600073ffffffffffffffffffffffffffffffffffffffff1681525090565b604051806103e00160405280601f90602082028036833780820191505090505090565b5b80821115612bb4576000816000905550600101612b9c565b5090565b600067ffffffffffffffff82169050919050565b612bd581612bb8565b82525050565b600073ffffffffffffffffffffffffffffffffffffffff82169050919050565b6000612c0682612bdb565b9050919050565b612c1681612bfb565b82525050565b608082016000820151612c326000850182612bcc565b506020820151612c456020850182612bcc565b506040820151612c586040850182612c0d565b506060820151612c6b6060850182612c0d565b50505050565b6000608082019050612c866000830184612c1c565b92915050565b612c9581612bb8565b82525050565b6000602082019050612cb06000830184612c8c565b92915050565b600081519050919050565b600082825260208201905092915050565b60005b83811015612cf0578082015181840152602081019050612cd5565b60008484015250505050565b6000601f19601f8301169050919050565b6000612d1882612cb6565b612d228185612cc1565b9350612d32818560208601612cd2565b612d3b81612cfc565b840191505092915050565b60006020820190508181036000830152612d608184612d0d565b905092915050565b6000604051905090565b600080fd5b600080fd5b600080fd5b600080fd5b600080fd5b60008083601f840112612da157612da0612d7c565b5b8235905067ffffffffffffffff811115612dbe57612dbd612d81565b5b602083019150836001820283011115612dda57612dd9612d86565b5b9250929050565b600064ffffffffff82169050919050565b612dfb81612de1565b8114612e0657600080fd5b50565b600081359050612e1881612df2565b92915050565b600080600060408486031215612e3757612e36612d72565b5b600084013567ffffffffffffffff811115612e5557612e54612d77565b5b612e6186828701612d8b565b93509350506020612e7486828701612e09565b9150509250925092565b7f4e487b7100000000000000000000000000000000000000000000000000000000600052604160045260246000fd5b612eb682612cfc565b810181811067ffffffffffffffff82111715612ed557612ed4612e7e565b5b80604052505050565b6000612ee8612d68565b9050612ef48282612ead565b919050565b600067ffffffffffffffff821115612f1457612f13612e7e565b5b602082029050602081019050919050565b612f2e81612bfb565b8114612f3957600080fd5b50565b600081359050612f4b81612f25565b92915050565b6000612f64612f5f84612ef9565b612ede565b90508083825260208201905060208402830185811115612f8757612f86612d86565b5b835b81811015612fb05780612f9c8882612f3c565b845260208401935050602081019050612f89565b5050509392505050565b600082601f830112612fcf57612fce612d7c565b5b8135612fdf848260208601612f51565b91505092915050565b600060ff82169050919050565b612ffe81612fe8565b811461300957600080fd5b50565b60008135905061301b81612ff5565b92915050565b600080fd5b600067ffffffffffffffff82111561304157613040612e7e565b5b61304a82612cfc565b9050602081019050919050565b82818337600083830152505050565b600061307961307484613026565b612ede565b90508281526020810184848401111561309557613094613021565b5b6130a0848285613057565b509392505050565b600082601f8301126130bd576130bc612d7c565b5b81356130cd848260208601613066565b91505092915050565b6130df81612bb8565b81146130ea57600080fd5b50565b6000813590506130fc816130d6565b92915050565b60008060008060008060c0878903121561311f5761311e612d72565b5b600087013567ffffffffffffffff81111561313d5761313c612d77565b5b61314989828a01612fba565b965050602087013567ffffffffffffffff81111561316a57613169612d77565b5b61317689828a01612fba565b955050604061318789828a0161300c565b945050606087013567ffffffffffffffff8111156131a8576131a7612d77565b5b6131b489828a016130a8565b93505060806131c589828a016130ed565b92505060a087013567ffffffffffffffff8111156131e6576131e5612d77565b5b6131f289828a016130a8565b9150509295509295509295565b60006020828403121561321557613214612d72565b5b600061322384828501612e09565b91505092915050565b60008083601f84011261324257613241612d7c565b5b8235905067ffffffffffffffff81111561325f5761325e612d81565b5b60208301915083602082028301111561327b5761327a612d86565b5b9250929050565b6000819050919050565b61329581613282565b81146132a057600080fd5b50565b6000813590506132b28161328c565b92915050565b6000806000806000606086880312156132d4576132d3612d72565b5b600086013567ffffffffffffffff8111156132f2576132f1612d77565b5b6132fe8882890161322c565b9550955050602086013567ffffffffffffffff81111561332157613320612d77565b5b61332d8882890161322c565b93509350506040613340888289016132a3565b9150509295509295909350565b61335681613282565b82525050565b6000602082019050613371600083018461334d565b92915050565b60008115159050919050565b61338c81613377565b82525050565b60006020820190506133a76000830184613383565b92915050565b600081519050919050565b600082825260208201905092915050565b6000819050602082019050919050565b60006133e58383612c0d565b60208301905092915050565b6000602082019050919050565b6000613409826133ad565b61341381856133b8565b935061341e836133c9565b8060005b8381101561344f57815161343688826133d9565b9750613441836133f1565b925050600181019050613422565b5085935050505092915050565b6000602082019050818103600083015261347681846133fe565b905092915050565b6020820160008201516134946000850182612c0d565b50505050565b60006020820190506134af600083018461347e565b92915050565b600063ffffffff82169050919050565b6134ce816134b5565b82525050565b6000819050919050565b6134e7816134d4565b82525050565b600060608201905061350260008301866134c5565b61350f60208301856134c5565b61351c60408301846134de565b949350505050565b61352d81612bfb565b82525050565b60006020820190506135486000830184613524565b92915050565b613557816134d4565b811461356257600080fd5b50565b6000813590506135748161354e565b92915050565b6000602082840312156135905761358f612d72565b5b600061359e84828501613565565b91505092915050565b6000602082840312156135bd576135bc612d72565b5b60006135cb848285016130ed565b91505092915050565b60006060820190506135e96000830186613383565b6135f660208301856134de565b61360360408301846134c5565b949350505050565b60008190508260206003028201111561362757613626612d86565b5b92915050565b60008060008060008060008060e0898b03121561364d5761364c612d72565b5b600061365b8b828c0161360b565b985050606089013567ffffffffffffffff81111561367c5761367b612d77565b5b6136888b828c01612d8b565b9750975050608089013567ffffffffffffffff8111156136ab576136aa612d77565b5b6136b78b828c0161322c565b955095505060a089013567ffffffffffffffff8111156136da576136d9612d77565b5b6136e68b828c0161322c565b935093505060c06136f98b828c01613565565b9150509295985092959890939650565b60006020828403121561371f5761371e612d72565b5b600061372d84828501612f3c565b91505092915050565b6000806020838503121561374d5761374c612d72565b5b600083013567ffffffffffffffff81111561376b5761376a612d77565b5b6137778582860161322c565b92509250509250929050565b7f4e487b7100000000000000000000000000000000000000000000000000000000600052602160045260246000fd5b600581106137c3576137c2613783565b5b50565b60008190506137d4826137b2565b919050565b60006137e4826137c6565b9050919050565b6137f4816137d9565b82525050565b600060208201905061380f60008301846137eb565b92915050565b7f4e487b7100000000000000000000000000000000000000000000000000000000600052601160045260246000fd5b600061384f82613282565b915061385a83613282565b925082820261386881613282565b9150828204841483151761387f5761387e613815565b5b5092915050565b7f4e487b7100000000000000000000000000000000000000000000000000000000600052603260045260246000fd5b60006138c0826134b5565b915063ffffffff82036138d6576138d5613815565b5b600182019050919050565b6000819050919050565b60006139066139016138fc846134b5565b6138e1565b612bb8565b9050919050565b613916816138eb565b82525050565b61392581612fe8565b82525050565b600081519050919050565b600082825260208201905092915050565b60006139528261392b565b61395c8185613936565b935061396c818560208601612cd2565b61397581612cfc565b840191505092915050565b600061012082019050613996600083018c6134c5565b6139a3602083018b6134de565b6139b0604083018a61390d565b81810360608301526139c281896133fe565b905081810360808301526139d681886133fe565b90506139e560a083018761391c565b81810360c08301526139f78186613947565b9050613a0660e0830185612c8c565b818103610100830152613a198184613947565b90509a9950505050505050505050565b613a3281612de1565b82525050565b6000604082019050613a4d6000830185613a29565b613a5a6020830184613a29565b9392505050565b7f4d7573742062652070726f706f736564206f776e657200000000000000000000600082015250565b6000613a97601683612cc1565b9150613aa282613a61565b602082019050919050565b60006020820190508181036000830152613ac681613a8a565b9050919050565b6000604082019050613ae26000830185612c8c565b613aef6020830184612c8c565b9392505050565b6000604082019050613b0b60008301856134de565b613b1860208301846134de565b9392505050565b6000604082019050613b34600083018561334d565b613b41602083018461334d565b9392505050565b6000604082019050613b5d60008301856134de565b613b6a60208301846134c5565b9392505050565b6000613b7c82612fe8565b9150613b8783612fe8565b9250828201905060ff811115613ba057613b9f613815565b5b92915050565b7f4e487b7100000000000000000000000000000000000000000000000000000000600052601260045260246000fd5b6000613be082612fe8565b9150613beb83612fe8565b925082613bfb57613bfa613ba6565b5b828204905092915050565b6000613c1182613282565b9150613c1c83613282565b9250828201905080821115613c3457613c33613815565b5b92915050565b600081905092915050565b6000613c518385613c3a565b9350613c5e838584613057565b82840190509392505050565b6000613c77828486613c45565b91508190509392505050565b6000819050919050565b613c9e613c99826134d4565b613c83565b82525050565b82818337505050565b613cb960608383613ca4565b5050565b6000613cc98285613c8d565b602082019150613cd98284613cad565b6060820191508190509392505050565b6000608082019050613cfe60008301876134de565b613d0b602083018661391c565b613d1860408301856134de565b613d2560608301846134de565b95945050505050565b60007fffffffffffffffffffffffffffffffff0000000000000000000000000000000082169050919050565b613d6381613d2e565b82525050565b6000602082019050613d7e6000830184613d5a565b92915050565b613d8d81613377565b8114613d9857600080fd5b50565b600081519050613daa81613d84565b92915050565b600060208284031215613dc657613dc5612d72565b5b6000613dd484828501613d9b565b91505092915050565b6000602082019050613df260008301846134de565b92915050565b613e01816134d4565b82525050565b604082016000820151613e1d6000850182612c0d565b506020820151613e306020850182613df8565b50505050565b6000604082019050613e4b6000830184613e07565b92915050565b600080fd5b600080fd5b600067ffffffffffffffff821115613e7657613e75612e7e565b5b602082029050602081019050919050565b60007bffffffffffffffffffffffffffffffffffffffffffffffffffffffff82169050919050565b613eb881613e87565b8114613ec357600080fd5b50565b600081359050613ed581613eaf565b92915050565b600060408284031215613ef157613ef0613e51565b5b613efb6040612ede565b90506000613f0b84828501612f3c565b6000830152506020613f1f84828501613ec6565b60208301525092915050565b6000613f3e613f3984613e5b565b612ede565b90508083825260208201905060408402830185811115613f6157613f60612d86565b5b835b81811015613f8a5780613f768882613edb565b845260208401935050604081019050613f63565b5050509392505050565b600082601f830112613fa957613fa8612d7c565b5b8135613fb9848260208601613f2b565b91505092915050565b600067ffffffffffffffff821115613fdd57613fdc612e7e565b5b602082029050602081019050919050565b60006040828403121561400457614003613e51565b5b61400e6040612ede565b9050600061401e848285016130ed565b600083015250602061403284828501613ec6565b60208301525092915050565b600061405161404c84613fc2565b612ede565b9050808382526020820190506040840283018581111561407457614073612d86565b5b835b8181101561409d57806140898882613fee565b845260208401935050604081019050614076565b5050509392505050565b600082601f8301126140bc576140bb612d7c565b5b81356140cc84826020860161403e565b91505092915050565b6000604082840312156140eb576140ea613e51565b5b6140f56040612ede565b9050600082013567ffffffffffffffff81111561411557614114613e56565b5b61412184828501613f94565b600083015250602082013567ffffffffffffffff81111561414557614144613e56565b5b614151848285016140a7565b60208301525092915050565b60006040828403121561417357614172613e51565b5b61417d6040612ede565b9050600061418d848285016130ed565b60008301525060206141a1848285016130ed565b60208301525092915050565b6000608082840312156141c3576141c2613e51565b5b6141cd6060612ede565b9050600082013567ffffffffffffffff8111156141ed576141ec613e56565b5b6141f9848285016140d5565b600083015250602061420d8482850161415d565b602083015250606061422184828501613565565b60408301525092915050565b60006020828403121561424357614242612d72565b5b600082013567ffffffffffffffff81111561426157614260612d77565b5b61426d848285016141ad565b91505092915050565b600081519050919050565b600082825260208201905092915050565b6000819050602082019050919050565b6142ab81613e87565b82525050565b6040820160008201516142c76000850182612c0d565b5060208201516142da60208501826142a2565b50505050565b60006142ec83836142b1565b60408301905092915050565b6000602082019050919050565b600061431082614276565b61431a8185614281565b935061432583614292565b8060005b8381101561435657815161433d88826142e0565b9750614348836142f8565b925050600181019050614329565b5085935050505092915050565b600081519050919050565b600082825260208201905092915050565b6000819050602082019050919050565b6040820160008201516143a56000850182612bcc565b5060208201516143b860208501826142a2565b50505050565b60006143ca838361438f565b60408301905092915050565b6000602082019050919050565b60006143ee82614363565b6143f8818561436e565b93506144038361437f565b8060005b8381101561443457815161441b88826143be565b9750614426836143d6565b925050600181019050614407565b5085935050505092915050565b6000604083016000830151848203600086015261445e8282614305565b9150506020830151848203602086015261447882826143e3565b9150508091505092915050565b6000602082019050818103600083015261449f8184614441565b905092915050565b6040820160008201516144bd6000850182612bcc565b5060208201516144d06020850182612bcc565b50505050565b60006040820190506144eb60008301846144a7565b92915050565b60006144fc82612bb8565b915061450783612bb8565b9250828201905067ffffffffffffffff81111561452757614526613815565b5b92915050565b6000604083016000830151848203600086015261454a8282614305565b9150506020830151848203602086015261456482826143e3565b9150508091505092915050565b6040820160008201516145876000850182612bcc565b50602082015161459a6020850182612bcc565b50505050565b600060808301600083015184820360008601526145bd828261452d565b91505060208301516145d26020860182614571565b5060408301516145e56060860182613df8565b508091505092915050565b6000602082019050818103600083015261460a81846145a0565b905092915050565b7f4f6e6c792063616c6c61626c65206279206f776e657200000000000000000000600082015250565b6000614648601683612cc1565b915061465382614612565b602082019050919050565b600060208201905081810360008301526146778161463b565b9050919050565b60008151905061468d81612f25565b92915050565b6000602082840312156146a9576146a8613e51565b5b6146b36020612ede565b905060006146c38482850161467e565b60008301525092915050565b6000602082840312156146e5576146e4612d72565b5b60006146f384828501614693565b91505092915050565b600060a0820190506147116000830185612c1c565b61471e608083018461347e565b9392505050565b60006101208201905061473b600083018c61334d565b614748602083018b613524565b614755604083018a612c8c565b818103606083015261476781896133fe565b9050818103608083015261477b81886133fe565b905061478a60a083018761391c565b81810360c083015261479c8186613947565b90506147ab60e0830185612c8c565b8181036101008301526147be8184613947565b90509a9950505050505050505050565b7f43616e6e6f74207472616e7366657220746f2073656c66000000000000000000600082015250565b6000614804601783612cc1565b915061480f826147ce565b602082019050919050565b60006020820190508181036000830152614833816147f7565b9050919050565b600060608201905061484f60008301866134de565b61485c60208301856134de565b61486960408301846134de565b94935050505056fea164736f6c6343000818000a","linkReferences":{}},"methodIdentifiers":{"acceptOwnership()":"79ba5097","getDynamicConfig()":"7437ff9f","getExpectedNextSequenceNumber()":"4120fccd","getLatestPriceEpochAndRound()":"10c374ed","getMerkleRoot(bytes32)":"a7206cd6","getStaticConfig()":"06285c69","getTransmitters()":"666cab8d","isBlessed(bytes32)":"ff888fb1","isUnpausedAndNotCursed()":"e89d039f","latestConfigDetails()":"81ff7048","latestConfigDigestAndEpoch()":"afcb95d7","owner()":"8da5cb5b","pause()":"8456cb59","paused()":"5c975abb","report(bytes,uint40)":"1dc18e56","resetUnblessedRoots(bytes32[])":"f47a8690","setLatestPriceEpochAndRound(uint40)":"29b980e4","setMinSeqNr(uint64)":"ad7a22f8","setOCR2Config(address[],address[],uint8,bytes,uint64,bytes)":"1ef38174","transferOwnership(address)":"f2fde38b","transmit(bytes32[3],bytes,bytes32[],bytes32[],bytes32)":"b1dc65a4","typeAndVersion()":"181f5a77","unpause()":"3f4ba83a","verify(bytes32[],bytes32[],uint256)":"32048875"},"id":84}