{"abi":[{"type":"constructor","inputs":[{"name":"config","type":"tuple","internalType":"struct RateLimiter.Config","components":[{"name":"isEnabled","type":"bool","internalType":"bool"},{"name":"capacity","type":"uint128","internalType":"uint128"},{"name":"rate","type":"uint128","internalType":"uint128"}]}],"stateMutability":"nonpayable"},{"type":"function","name":"consume","inputs":[{"name":"requestTokens","type":"uint256","internalType":"uint256"},{"name":"tokenAddress","type":"address","internalType":"address"}],"outputs":[],"stateMutability":"nonpayable"},{"type":"function","name":"currentTokenBucketState","inputs":[],"outputs":[{"name":"","type":"tuple","internalType":"struct RateLimiter.TokenBucket","components":[{"name":"tokens","type":"uint128","internalType":"uint128"},{"name":"lastUpdated","type":"uint32","internalType":"uint32"},{"name":"isEnabled","type":"bool","internalType":"bool"},{"name":"capacity","type":"uint128","internalType":"uint128"},{"name":"rate","type":"uint128","internalType":"uint128"}]}],"stateMutability":"view"},{"type":"function","name":"getRateLimiter","inputs":[],"outputs":[{"name":"","type":"tuple","internalType":"struct RateLimiter.TokenBucket","components":[{"name":"tokens","type":"uint128","internalType":"uint128"},{"name":"lastUpdated","type":"uint32","internalType":"uint32"},{"name":"isEnabled","type":"bool","internalType":"bool"},{"name":"capacity","type":"uint128","internalType":"uint128"},{"name":"rate","type":"uint128","internalType":"uint128"}]}],"stateMutability":"view"},{"type":"function","name":"setTokenBucketConfig","inputs":[{"name":"config","type":"tuple","internalType":"struct RateLimiter.Config","components":[{"name":"isEnabled","type":"bool","internalType":"bool"},{"name":"capacity","type":"uint128","internalType":"uint128"},{"name":"rate","type":"uint128","internalType":"uint128"}]}],"outputs":[],"stateMutability":"nonpayable"},{"type":"event","name":"ConfigChanged","inputs":[{"name":"config","type":"tuple","indexed":false,"internalType":"struct RateLimiter.Config","components":[{"name":"isEnabled","type":"bool","internalType":"bool"},{"name":"capacity","type":"uint128","internalType":"uint128"},{"name":"rate","type":"uint128","internalType":"uint128"}]}],"anonymous":false},{"type":"event","name":"TokensConsumed","inputs":[{"name":"tokens","type":"uint256","indexed":false,"internalType":"uint256"}],"anonymous":false},{"type":"error","name":"AggregateValueMaxCapacityExceeded","inputs":[{"name":"capacity","type":"uint256","internalType":"uint256"},{"name":"requested","type":"uint256","internalType":"uint256"}]},{"type":"error","name":"AggregateValueRateLimitReached","inputs":[{"name":"minWaitInSeconds","type":"uint256","internalType":"uint256"},{"name":"available","type":"uint256","internalType":"uint256"}]},{"type":"error","name":"BucketOverfilled","inputs":[]},{"type":"error","name":"TokenMaxCapacityExceeded","inputs":[{"name":"capacity","type":"uint256","internalType":"uint256"},{"name":"requested","type":"uint256","internalType":"uint256"},{"name":"tokenAddress","type":"address","internalType":"address"}]},{"type":"error","name":"TokenRateLimitReached","inputs":[{"name":"minWaitInSeconds","type":"uint256","internalType":"uint256"},{"name":"available","type":"uint256","internalType":"uint256"},{"name":"tokenAddress","type":"address","internalType":"address"}]}],"bytecode":{"object":"0x60806040523480156200001157600080fd5b506040516200145e3803806200145e83398181016040528101906200003791906200035d565b6040518060a0016040528082602001516fffffffffffffffffffffffffffffffff1681526020014263ffffffff16815260200182600001511515815260200182602001516fffffffffffffffffffffffffffffffff16815260200182604001516fffffffffffffffffffffffffffffffff168152506000808201518160000160006101000a8154816fffffffffffffffffffffffffffffffff02191690836fffffffffffffffffffffffffffffffff16021790555060208201518160000160106101000a81548163ffffffff021916908363ffffffff16021790555060408201518160000160146101000a81548160ff02191690831515021790555060608201518160010160006101000a8154816fffffffffffffffffffffffffffffffff02191690836fffffffffffffffffffffffffffffffff16021790555060808201518160010160106101000a8154816fffffffffffffffffffffffffffffffff02191690836fffffffffffffffffffffffffffffffff160217905550905050506200038f565b6000604051905090565b600080fd5b600080fd5b6000601f19601f8301169050919050565b7f4e487b7100000000000000000000000000000000000000000000000000000000600052604160045260246000fd5b6200021a82620001cf565b810181811067ffffffffffffffff821117156200023c576200023b620001e0565b5b80604052505050565b600062000251620001bb565b90506200025f82826200020f565b919050565b60008115159050919050565b6200027b8162000264565b81146200028757600080fd5b50565b6000815190506200029b8162000270565b92915050565b60006fffffffffffffffffffffffffffffffff82169050919050565b620002c881620002a1565b8114620002d457600080fd5b50565b600081519050620002e881620002bd565b92915050565b600060608284031215620003075762000306620001ca565b5b62000313606062000245565b9050600062000325848285016200028a565b60008301525060206200033b84828501620002d7565b60208301525060406200035184828501620002d7565b60408301525092915050565b600060608284031215620003765762000375620001c5565b5b60006200038684828501620002ee565b91505092915050565b6110bf806200039f6000396000f3fe608060405234801561001057600080fd5b506004361061004c5760003560e01c806358df3db4146100515780636f3d98c71461006d578063a380976814610089578063c38945a7146100a7575b600080fd5b61006b60048036038101906100669190610cc2565b6100c5565b005b61008760048036038101906100829190610d83565b6100dc565b005b6100916100f6565b60405161009e9190610e68565b60405180910390f35b6100af61022f565b6040516100bc9190610e68565b60405180910390f35b6100d981600061037090919063ffffffff16565b50565b6100f2828260006106089092919063ffffffff16565b5050565b6100fe610ad1565b60006040518060a00160405290816000820160009054906101000a90046fffffffffffffffffffffffffffffffff166fffffffffffffffffffffffffffffffff166fffffffffffffffffffffffffffffffff1681526020016000820160109054906101000a900463ffffffff1663ffffffff1663ffffffff1681526020016000820160149054906101000a900460ff161515151581526020016001820160009054906101000a90046fffffffffffffffffffffffffffffffff166fffffffffffffffffffffffffffffffff166fffffffffffffffffffffffffffffffff1681526020016001820160109054906101000a90046fffffffffffffffffffffffffffffffff166fffffffffffffffffffffffffffffffff166fffffffffffffffffffffffffffffffff1681525050905090565b610237610ad1565b61036b60006040518060a00160405290816000820160009054906101000a90046fffffffffffffffffffffffffffffffff166fffffffffffffffffffffffffffffffff166fffffffffffffffffffffffffffffffff1681526020016000820160109054906101000a900463ffffffff1663ffffffff1663ffffffff1681526020016000820160149054906101000a900460ff161515151581526020016001820160009054906101000a90046fffffffffffffffffffffffffffffffff166fffffffffffffffffffffffffffffffff166fffffffffffffffffffffffffffffffff1681526020016001820160109054906101000a90046fffffffffffffffffffffffffffffffff166fffffffffffffffffffffffffffffffff166fffffffffffffffffffffffffffffffff16815250506109d2565b905090565b60008260000160109054906101000a900463ffffffff1663ffffffff16426103989190610eb2565b9050600081146104a2576104448360010160009054906101000a90046fffffffffffffffffffffffffffffffff166fffffffffffffffffffffffffffffffff168460000160009054906101000a90046fffffffffffffffffffffffffffffffff166fffffffffffffffffffffffffffffffff16838660010160109054906101000a90046fffffffffffffffffffffffffffffffff166fffffffffffffffffffffffffffffffff16610a8c565b8360000160006101000a8154816fffffffffffffffffffffffffffffffff02191690836fffffffffffffffffffffffffffffffff160217905550428360000160106101000a81548163ffffffff021916908363ffffffff1602179055505b6104f482602001516fffffffffffffffffffffffffffffffff168460000160009054906101000a90046fffffffffffffffffffffffffffffffff166fffffffffffffffffffffffffffffffff16610ab8565b8360000160006101000a8154816fffffffffffffffffffffffffffffffff02191690836fffffffffffffffffffffffffffffffff16021790555081600001518360000160146101000a81548160ff02191690831515021790555081602001518360010160006101000a8154816fffffffffffffffffffffffffffffffff02191690836fffffffffffffffffffffffffffffffff16021790555081604001518360010160106101000a8154816fffffffffffffffffffffffffffffffff02191690836fffffffffffffffffffffffffffffffff1602179055507f9ea3374b67bf275e6bb9c8ae68f9cae023e1c528b4b27e092f0bb209d3531c19826040516105fb9190610f28565b60405180910390a1505050565b8260000160149054906101000a900460ff1615806106265750600082145b6109cd5760008360000160009054906101000a90046fffffffffffffffffffffffffffffffff166fffffffffffffffffffffffffffffffff16905060008460010160009054906101000a90046fffffffffffffffffffffffffffffffff166fffffffffffffffffffffffffffffffff16905060008560000160109054906101000a900463ffffffff1663ffffffff16426106c09190610eb2565b9050600081146107685781831115610704576040517f9725942a00000000000000000000000000000000000000000000000000000000815260040160405180910390fd5b6107428284838960010160109054906101000a90046fffffffffffffffffffffffffffffffff166fffffffffffffffffffffffffffffffff16610a8c565b9250428660000160106101000a81548163ffffffff021916908363ffffffff1602179055505b8482101561082457600073ffffffffffffffffffffffffffffffffffffffff168473ffffffffffffffffffffffffffffffffffffffff16036107e35781856040517ff94ebcd10000000000000000000000000000000000000000000000000000000081526004016107da929190610f52565b60405180910390fd5b8185856040517f1a76572a00000000000000000000000000000000000000000000000000000000815260040161081b93929190610f8a565b60405180910390fd5b848310156109495760008660010160109054906101000a90046fffffffffffffffffffffffffffffffff166fffffffffffffffffffffffffffffffff1690506000816001836108739190610eb2565b868961087f9190610eb2565b6108899190610fc1565b6108939190611024565b9050600073ffffffffffffffffffffffffffffffffffffffff168673ffffffffffffffffffffffffffffffffffffffff16036109085780856040517f15279c080000000000000000000000000000000000000000000000000000000081526004016108ff929190610f52565b60405180910390fd5b8085876040517fd0c8d23a00000000000000000000000000000000000000000000000000000000815260040161094093929190610f8a565b60405180910390fd5b84836109559190610eb2565b9250828660000160006101000a8154816fffffffffffffffffffffffffffffffff02191690836fffffffffffffffffffffffffffffffff1602179055507f1871cdf8010e63f2eb8384381a68dfa7416dc571a5517e66e88b2d2d0c0a690a856040516109c19190611055565b60405180910390a15050505b505050565b6109da610ad1565b610a3d82606001516fffffffffffffffffffffffffffffffff1683600001516fffffffffffffffffffffffffffffffff16846020015163ffffffff1642610a219190610eb2565b85608001516fffffffffffffffffffffffffffffffff16610a8c565b82600001906fffffffffffffffffffffffffffffffff1690816fffffffffffffffffffffffffffffffff168152505042826020019063ffffffff16908163ffffffff1681525050819050919050565b6000610aae858385610a9e9190611070565b86610aa99190610fc1565b610ab8565b9050949350505050565b6000818310610ac75781610ac9565b825b905092915050565b6040518060a0016040528060006fffffffffffffffffffffffffffffffff168152602001600063ffffffff16815260200160001515815260200160006fffffffffffffffffffffffffffffffff16815260200160006fffffffffffffffffffffffffffffffff1681525090565b6000604051905090565b600080fd5b600080fd5b6000601f19601f8301169050919050565b7f4e487b7100000000000000000000000000000000000000000000000000000000600052604160045260246000fd5b610b9b82610b52565b810181811067ffffffffffffffff82111715610bba57610bb9610b63565b5b80604052505050565b6000610bcd610b3e565b9050610bd98282610b92565b919050565b60008115159050919050565b610bf381610bde565b8114610bfe57600080fd5b50565b600081359050610c1081610bea565b92915050565b60006fffffffffffffffffffffffffffffffff82169050919050565b610c3b81610c16565b8114610c4657600080fd5b50565b600081359050610c5881610c32565b92915050565b600060608284031215610c7457610c73610b4d565b5b610c7e6060610bc3565b90506000610c8e84828501610c01565b6000830152506020610ca284828501610c49565b6020830152506040610cb684828501610c49565b60408301525092915050565b600060608284031215610cd857610cd7610b48565b5b6000610ce684828501610c5e565b91505092915050565b6000819050919050565b610d0281610cef565b8114610d0d57600080fd5b50565b600081359050610d1f81610cf9565b92915050565b600073ffffffffffffffffffffffffffffffffffffffff82169050919050565b6000610d5082610d25565b9050919050565b610d6081610d45565b8114610d6b57600080fd5b50565b600081359050610d7d81610d57565b92915050565b60008060408385031215610d9a57610d99610b48565b5b6000610da885828601610d10565b9250506020610db985828601610d6e565b9150509250929050565b610dcc81610c16565b82525050565b600063ffffffff82169050919050565b610deb81610dd2565b82525050565b610dfa81610bde565b82525050565b60a082016000820151610e166000850182610dc3565b506020820151610e296020850182610de2565b506040820151610e3c6040850182610df1565b506060820151610e4f6060850182610dc3565b506080820151610e626080850182610dc3565b50505050565b600060a082019050610e7d6000830184610e00565b92915050565b7f4e487b7100000000000000000000000000000000000000000000000000000000600052601160045260246000fd5b6000610ebd82610cef565b9150610ec883610cef565b9250828203905081811115610ee057610edf610e83565b5b92915050565b606082016000820151610efc6000850182610df1565b506020820151610f0f6020850182610dc3565b506040820151610f226040850182610dc3565b50505050565b6000606082019050610f3d6000830184610ee6565b92915050565b610f4c81610cef565b82525050565b6000604082019050610f676000830185610f43565b610f746020830184610f43565b9392505050565b610f8481610d45565b82525050565b6000606082019050610f9f6000830186610f43565b610fac6020830185610f43565b610fb96040830184610f7b565b949350505050565b6000610fcc82610cef565b9150610fd783610cef565b9250828201905080821115610fef57610fee610e83565b5b92915050565b7f4e487b7100000000000000000000000000000000000000000000000000000000600052601260045260246000fd5b600061102f82610cef565b915061103a83610cef565b92508261104a57611049610ff5565b5b828204905092915050565b600060208201905061106a6000830184610f43565b92915050565b600061107b82610cef565b915061108683610cef565b925082820261109481610cef565b915082820484148315176110ab576110aa610e83565b5b509291505056fea164736f6c6343000818000a","linkReferences":{}},"methodIdentifiers":{"consume(uint256,address)":"6f3d98c7","currentTokenBucketState()":"c38945a7","getRateLimiter()":"a3809768","setTokenBucketConfig((bool,uint128,uint128))":"58df3db4"},"id":94}