{"abi":[{"type":"function","name":"isBlessed","inputs":[{"name":"taggedRoot","type":"tuple","internalType":"struct IRMN.TaggedRoot","components":[{"name":"commitStore","type":"address","internalType":"address"},{"name":"root","type":"bytes32","internalType":"bytes32"}]}],"outputs":[{"name":"","type":"bool","internalType":"bool"}],"stateMutability":"view"},{"type":"function","name":"isCursed","inputs":[{"name":"subject","type":"bytes16","internalType":"bytes16"}],"outputs":[{"name":"","type":"bool","internalType":"bool"}],"stateMutability":"view"},{"type":"function","name":"isCursed","inputs":[],"outputs":[{"name":"","type":"bool","internalType":"bool"}],"stateMutability":"view"},{"type":"function","name":"setChainCursed","inputs":[{"name":"chainSelector","type":"uint64","internalType":"uint64"},{"name":"cursed","type":"bool","internalType":"bool"}],"outputs":[],"stateMutability":"nonpayable"},{"type":"function","name":"setGlobalCursed","inputs":[{"name":"cursed","type":"bool","internalType":"bool"}],"outputs":[],"stateMutability":"nonpayable"},{"type":"function","name":"setIsCursedRevert","inputs":[{"name":"revertErr","type":"bytes","internalType":"bytes"}],"outputs":[],"stateMutability":"nonpayable"},{"type":"function","name":"setTaggedRootBlessed","inputs":[{"name":"taggedRoot","type":"tuple","internalType":"struct IRMN.TaggedRoot","components":[{"name":"commitStore","type":"address","internalType":"address"},{"name":"root","type":"bytes32","internalType":"bytes32"}]},{"name":"blessed","type":"bool","internalType":"bool"}],"outputs":[],"stateMutability":"nonpayable"},{"type":"error","name":"CustomError","inputs":[{"name":"err","type":"bytes","internalType":"bytes"}]}],"bytecode":{"object":"0x608060405234801561001057600080fd5b50610b7a806100206000396000f3fe608060405234801561001057600080fd5b506004361061007d5760003560e01c806376eb8ae91161005b57806376eb8ae914610100578063d6ff2ef61461011c578063da558ddd14610138578063dc46bc09146101545761007d565b80632cbc26bb14610082578063397796f7146100b25780634d616771146100d0575b600080fd5b61009c6004803603810190610097919061048c565b610170565b6040516100a991906104d4565b60405180910390f35b6100ba61022b565b6040516100c791906104d4565b60405180910390f35b6100ea60048036038101906100e59190610513565b610296565b6040516100f791906104d4565b60405180910390f35b61011a6004803603810190610115919061056c565b610313565b005b610136600480360381019061013191906105fe565b610330565b005b610152600480360381019061014d919061064b565b610346565b005b61016e600480360381019061016991906106cb565b6103c8565b005b600080600080546101809061073a565b905011156101c65760006040517f5a4ff6710000000000000000000000000000000000000000000000000000000081526004016101bd9190610815565b60405180910390fd5b600160009054906101000a900460ff1680610224575060026000836fffffffffffffffffffffffffffffffff19166fffffffffffffffffffffffffffffffff1916815260200190815260200160002060009054906101000a900460ff165b9050919050565b6000806000805461023b9061073a565b905011156102815760006040517f5a4ff6710000000000000000000000000000000000000000000000000000000081526004016102789190610815565b60405180910390fd5b600160009054906101000a900460ff16905090565b6000600360008360000160208101906102af9190610895565b73ffffffffffffffffffffffffffffffffffffffff1673ffffffffffffffffffffffffffffffffffffffff16815260200190815260200160002060008360200135815260200190815260200160002060009054906101000a900460ff169050919050565b80600160006101000a81548160ff02191690831515021790555050565b818160009182610341929190610a9d565b505050565b806003600084600001602081019061035e9190610895565b73ffffffffffffffffffffffffffffffffffffffff1673ffffffffffffffffffffffffffffffffffffffff16815260200190815260200160002060008460200135815260200190815260200160002060006101000a81548160ff0219169083151502179055505050565b80600260008467ffffffffffffffff1660801b6fffffffffffffffffffffffffffffffff19166fffffffffffffffffffffffffffffffff1916815260200190815260200160002060006101000a81548160ff0219169083151502179055505050565b600080fd5b600080fd5b60007fffffffffffffffffffffffffffffffff0000000000000000000000000000000082169050919050565b61046981610434565b811461047457600080fd5b50565b60008135905061048681610460565b92915050565b6000602082840312156104a2576104a161042a565b5b60006104b084828501610477565b91505092915050565b60008115159050919050565b6104ce816104b9565b82525050565b60006020820190506104e960008301846104c5565b92915050565b600080fd5b60006040828403121561050a576105096104ef565b5b81905092915050565b6000604082840312156105295761052861042a565b5b6000610537848285016104f4565b91505092915050565b610549816104b9565b811461055457600080fd5b50565b60008135905061056681610540565b92915050565b6000602082840312156105825761058161042a565b5b600061059084828501610557565b91505092915050565b600080fd5b600080fd5b600080fd5b60008083601f8401126105be576105bd610599565b5b8235905067ffffffffffffffff8111156105db576105da61059e565b5b6020830191508360018202830111156105f7576105f66105a3565b5b9250929050565b600080602083850312156106155761061461042a565b5b600083013567ffffffffffffffff8111156106335761063261042f565b5b61063f858286016105a8565b92509250509250929050565b600080606083850312156106625761066161042a565b5b6000610670858286016104f4565b925050604061068185828601610557565b9150509250929050565b600067ffffffffffffffff82169050919050565b6106a88161068b565b81146106b357600080fd5b50565b6000813590506106c58161069f565b92915050565b600080604083850312156106e2576106e161042a565b5b60006106f0858286016106b6565b925050602061070185828601610557565b9150509250929050565b7f4e487b7100000000000000000000000000000000000000000000000000000000600052602260045260246000fd5b6000600282049050600182168061075257607f821691505b6020821081036107655761076461070b565b5b50919050565b600082825260208201905092915050565b60008190508160005260206000209050919050565b6000815461079e8161073a565b6107a8818661076b565b945060018216600081146107c357600181146107d95761080c565b60ff19831686528115156020028601935061080c565b6107e28561077c565b60005b83811015610804578154818901526001820191506020810190506107e5565b808801955050505b50505092915050565b6000602082019050818103600083015261082f8184610791565b905092915050565b600073ffffffffffffffffffffffffffffffffffffffff82169050919050565b600061086282610837565b9050919050565b61087281610857565b811461087d57600080fd5b50565b60008135905061088f81610869565b92915050565b6000602082840312156108ab576108aa61042a565b5b60006108b984828501610880565b91505092915050565b600082905092915050565b7f4e487b7100000000000000000000000000000000000000000000000000000000600052604160045260246000fd5b60006020601f8301049050919050565b600082821b905092915050565b6000600883026109497fffffffffffffffffffffffffffffffffffffffffffffffffffffffffffffffff8261090c565b610953868361090c565b95508019841693508086168417925050509392505050565b6000819050919050565b6000819050919050565b600061099a6109956109908461096b565b610975565b61096b565b9050919050565b6000819050919050565b6109b48361097f565b6109c86109c0826109a1565b848454610919565b825550505050565b600090565b6109dd6109d0565b6109e88184846109ab565b505050565b5b81811015610a0c57610a016000826109d5565b6001810190506109ee565b5050565b601f821115610a5157610a228161077c565b610a2b846108fc565b81016020851015610a3a578190505b610a4e610a46856108fc565b8301826109ed565b50505b505050565b600082821c905092915050565b6000610a7460001984600802610a56565b1980831691505092915050565b6000610a8d8383610a63565b9150826002028217905092915050565b610aa783836108c2565b67ffffffffffffffff811115610ac057610abf6108cd565b5b610aca825461073a565b610ad5828285610a10565b6000601f831160018114610b045760008415610af2578287013590505b610afc8582610a81565b865550610b64565b601f198416610b128661077c565b60005b82811015610b3a57848901358255600182019150602085019450602081019050610b15565b86831015610b575784890135610b53601f891682610a63565b8355505b6001600288020188555050505b5050505050505056fea164736f6c6343000818000a","linkReferences":{}},"methodIdentifiers":{"isBlessed((address,bytes32))":"4d616771","isCursed()":"397796f7","isCursed(bytes16)":"2cbc26bb","setChainCursed(uint64,bool)":"dc46bc09","setGlobalCursed(bool)":"76eb8ae9","setIsCursedRevert(bytes)":"d6ff2ef6","setTaggedRootBlessed((address,bytes32),bool)":"da558ddd"},"id":109}