{"abi":[{"type":"constructor","inputs":[{"name":"router","type":"address","internalType":"contract IRouterClient"},{"name":"feeToken","type":"address","internalType":"contract IERC20"}],"stateMutability":"nonpayable"},{"type":"function","name":"acceptOwnership","inputs":[],"outputs":[],"stateMutability":"nonpayable"},{"type":"function","name":"ccipReceive","inputs":[{"name":"message","type":"tuple","internalType":"struct Client.Any2EVMMessage","components":[{"name":"messageId","type":"bytes32","internalType":"bytes32"},{"name":"sourceChainSelector","type":"uint64","internalType":"uint64"},{"name":"sender","type":"bytes","internalType":"bytes"},{"name":"data","type":"bytes","internalType":"bytes"},{"name":"destTokenAmounts","type":"tuple[]","internalType":"struct Client.EVMTokenAmount[]","components":[{"name":"token","type":"address","internalType":"address"},{"name":"amount","type":"uint256","internalType":"uint256"}]}]}],"outputs":[],"stateMutability":"nonpayable"},{"type":"function","name":"disableChain","inputs":[{"name":"chainSelector","type":"uint64","internalType":"uint64"}],"outputs":[],"stateMutability":"nonpayable"},{"type":"function","name":"enableChain","inputs":[{"name":"chainSelector","type":"uint64","internalType":"uint64"},{"name":"extraArgs","type":"bytes","internalType":"bytes"}],"outputs":[],"stateMutability":"nonpayable"},{"type":"function","name":"getRouter","inputs":[],"outputs":[{"name":"","type":"address","internalType":"address"}],"stateMutability":"view"},{"type":"function","name":"owner","inputs":[],"outputs":[{"name":"","type":"address","internalType":"address"}],"stateMutability":"view"},{"type":"function","name":"s_chains","inputs":[{"name":"destChainSelector","type":"uint64","internalType":"uint64"}],"outputs":[{"name":"extraArgsBytes","type":"bytes","internalType":"bytes"}],"stateMutability":"view"},{"type":"function","name":"s_feeToken","inputs":[],"outputs":[{"name":"","type":"address","internalType":"contract IERC20"}],"stateMutability":"view"},{"type":"function","name":"sendDataAndTokens","inputs":[{"name":"destChainSelector","type":"uint64","internalType":"uint64"},{"name":"receiver","type":"bytes","internalType":"bytes"},{"name":"data","type":"bytes","internalType":"bytes"},{"name":"tokenAmounts","type":"tuple[]","internalType":"struct Client.EVMTokenAmount[]","components":[{"name":"token","type":"address","internalType":"address"},{"name":"amount","type":"uint256","internalType":"uint256"}]}],"outputs":[],"stateMutability":"nonpayable"},{"type":"function","name":"sendDataPayFeeToken","inputs":[{"name":"destChainSelector","type":"uint64","internalType":"uint64"},{"name":"receiver","type":"bytes","internalType":"bytes"},{"name":"data","type":"bytes","internalType":"bytes"}],"outputs":[],"stateMutability":"nonpayable"},{"type":"function","name":"sendDataPayNative","inputs":[{"name":"destChainSelector","type":"uint64","internalType":"uint64"},{"name":"receiver","type":"bytes","internalType":"bytes"},{"name":"data","type":"bytes","internalType":"bytes"}],"outputs":[],"stateMutability":"nonpayable"},{"type":"function","name":"sendTokens","inputs":[{"name":"destChainSelector","type":"uint64","internalType":"uint64"},{"name":"receiver","type":"bytes","internalType":"bytes"},{"name":"tokenAmounts","type":"tuple[]","internalType":"struct Client.EVMTokenAmount[]","components":[{"name":"token","type":"address","internalType":"address"},{"name":"amount","type":"uint256","internalType":"uint256"}]}],"outputs":[],"stateMutability":"nonpayable"},{"type":"function","name":"supportsInterface","inputs":[{"name":"interfaceId","type":"bytes4","internalType":"bytes4"}],"outputs":[{"name":"","type":"bool","internalType":"bool"}],"stateMutability":"view"},{"type":"function","name":"transferOwnership","inputs":[{"name":"to","type":"address","internalType":"address"}],"outputs":[],"stateMutability":"nonpayable"},{"type":"event","name":"MessageReceived","inputs":[{"name":"messageId","type":"bytes32","indexed":false,"internalType":"bytes32"}],"anonymous":false},{"type":"event","name":"MessageSent","inputs":[{"name":"messageId","type":"bytes32","indexed":false,"internalType":"bytes32"}],"anonymous":false},{"type":"event","name":"OwnershipTransferRequested","inputs":[{"name":"from","type":"address","indexed":true,"internalType":"address"},{"name":"to","type":"address","indexed":true,"internalType":"address"}],"anonymous":false},{"type":"event","name":"OwnershipTransferred","inputs":[{"name":"from","type":"address","indexed":true,"internalType":"address"},{"name":"to","type":"address","indexed":true,"internalType":"address"}],"anonymous":false},{"type":"error","name":"InvalidChain","inputs":[{"name":"chainSelector","type":"uint64","internalType":"uint64"}]},{"type":"error","name":"InvalidRouter","inputs":[{"name":"router","type":"address","internalType":"address"}]}],"bytecode":{"object":"0x60a06040523480156200001157600080fd5b5060405162003148380380620031488339818101604052810190620000379190620004e3565b3380600084600073ffffffffffffffffffffffffffffffffffffffff168173ffffffffffffffffffffffffffffffffffffffff1603620000b15760006040517fd7f73334000000000000000000000000000000000000000000000000000000008152600401620000a891906200053b565b60405180910390fd5b8073ffffffffffffffffffffffffffffffffffffffff1660808173ffffffffffffffffffffffffffffffffffffffff168152505050600073ffffffffffffffffffffffffffffffffffffffff168273ffffffffffffffffffffffffffffffffffffffff160362000158576040517f08c379a00000000000000000000000000000000000000000000000000000000081526004016200014f90620005b9565b60405180910390fd5b816000806101000a81548173ffffffffffffffffffffffffffffffffffffffff021916908373ffffffffffffffffffffffffffffffffffffffff160217905550600073ffffffffffffffffffffffffffffffffffffffff168173ffffffffffffffffffffffffffffffffffffffff1614620001df57620001de81620002f160201b60201c565b5b50505080600260006101000a81548173ffffffffffffffffffffffffffffffffffffffff021916908373ffffffffffffffffffffffffffffffffffffffff160217905550600260009054906101000a900473ffffffffffffffffffffffffffffffffffffffff1673ffffffffffffffffffffffffffffffffffffffff1663095ea7b3837fffffffffffffffffffffffffffffffffffffffffffffffffffffffffffffffff6040518363ffffffff1660e01b8152600401620002a2929190620005f6565b6020604051808303816000875af1158015620002c2573d6000803e3d6000fd5b505050506040513d601f19601f82011682018060405250810190620002e8919062000660565b50505062000704565b3373ffffffffffffffffffffffffffffffffffffffff168173ffffffffffffffffffffffffffffffffffffffff160362000362576040517f08c379a00000000000000000000000000000000000000000000000000000000081526004016200035990620006e2565b60405180910390fd5b80600160006101000a81548173ffffffffffffffffffffffffffffffffffffffff021916908373ffffffffffffffffffffffffffffffffffffffff1602179055508073ffffffffffffffffffffffffffffffffffffffff1660008054906101000a900473ffffffffffffffffffffffffffffffffffffffff1673ffffffffffffffffffffffffffffffffffffffff167fed8889f560326eb138920d842192f0eb3dd22b4f139c87a2c57538e05bae127860405160405180910390a350565b600080fd5b600073ffffffffffffffffffffffffffffffffffffffff82169050919050565b6000620004528262000425565b9050919050565b6000620004668262000445565b9050919050565b620004788162000459565b81146200048457600080fd5b50565b60008151905062000498816200046d565b92915050565b6000620004ab8262000445565b9050919050565b620004bd816200049e565b8114620004c957600080fd5b50565b600081519050620004dd81620004b2565b92915050565b60008060408385031215620004fd57620004fc62000420565b5b60006200050d8582860162000487565b92505060206200052085828601620004cc565b9150509250929050565b620005358162000445565b82525050565b60006020820190506200055260008301846200052a565b92915050565b600082825260208201905092915050565b7f43616e6e6f7420736574206f776e657220746f207a65726f0000000000000000600082015250565b6000620005a160188362000558565b9150620005ae8262000569565b602082019050919050565b60006020820190508181036000830152620005d48162000592565b9050919050565b6000819050919050565b620005f081620005db565b82525050565b60006040820190506200060d60008301856200052a565b6200061c6020830184620005e5565b9392505050565b60008115159050919050565b6200063a8162000623565b81146200064657600080fd5b50565b6000815190506200065a816200062f565b92915050565b60006020828403121562000679576200067862000420565b5b6000620006898482850162000649565b91505092915050565b7f43616e6e6f74207472616e7366657220746f2073656c66000000000000000000600082015250565b6000620006ca60178362000558565b9150620006d78262000692565b602082019050919050565b60006020820190508181036000830152620006fd81620006bb565b9050919050565b6080516129f7620007516000396000818161058a015281816108c701528181610a8a01528181610ce601528181610ea70152818161125f01528181611449015261148501526129f76000f3fe608060405234801561001057600080fd5b50600436106100ea5760003560e01c806379ba50971161008c578063b0f479a111610066578063b0f479a11461021f578063c0cb2d081461023d578063f2fde38b14610259578063ff2deec314610275576100ea565b806379ba5097146101db57806385572ffb146101e55780638da5cb5b14610201576100ea565b80635dc02a2c116100c85780635dc02a2c146101575780635dc5ebdb14610173578063686fab79146101a35780637383c8fb146101bf576100ea565b806301ffc9a7146100ef57806341eade461461011f5780635d8e7f181461013b575b600080fd5b610109600480360381019061010491906118f0565b610293565b6040516101169190611938565b60405180910390f35b61013960048036038101906101349190611993565b610365565b005b61015560048036038101906101509190611b06565b6103a3565b005b610171600480360381019061016c9190611b91565b610668565b005b61018d60048036038101906101889190611993565b6106a9565b60405161019a9190611c6c565b60405180910390f35b6101bd60048036038101906101b89190611e44565b610749565b005b6101d960048036038101906101d49190611ecf565b610b68565b005b6101e3610f85565b005b6101ff60048036038101906101fa9190611fae565b61111a565b005b610209611232565b6040516102169190612006565b60405180910390f35b61022761125b565b6040516102349190612006565b60405180910390f35b61025760048036038101906102529190611b06565b611283565b005b610273600480360381019061026e9190612021565b6115c3565b005b61027d6115d7565b60405161028a91906120ad565b60405180910390f35b60007f85572ffb000000000000000000000000000000000000000000000000000000007bffffffffffffffffffffffffffffffffffffffffffffffffffffffff1916827bffffffffffffffffffffffffffffffffffffffffffffffffffffffff1916148061035e57507f01ffc9a7000000000000000000000000000000000000000000000000000000007bffffffffffffffffffffffffffffffffffffffffffffffffffffffff1916827bffffffffffffffffffffffffffffffffffffffffffffffffffffffff1916145b9050919050565b61036d6115fd565b600360008267ffffffffffffffff1667ffffffffffffffff16815260200190815260200160002060006103a091906117f7565b50565b826000600360008367ffffffffffffffff1667ffffffffffffffff16815260200190815260200160002080546103d8906120f7565b90500361041c57806040517fd79f2ea40000000000000000000000000000000000000000000000000000000081526004016104139190612137565b60405180910390fd5b60008067ffffffffffffffff811115610438576104376119db565b5b60405190808252806020026020018201604052801561047157816020015b61045e611837565b8152602001906001900390816104565790505b50905060006040518060a00160405280868152602001858152602001838152602001600260009054906101000a900473ffffffffffffffffffffffffffffffffffffffff1673ffffffffffffffffffffffffffffffffffffffff168152602001600360008967ffffffffffffffff1667ffffffffffffffff1681526020019081526020016000208054610503906120f7565b80601f016020809104026020016040519081016040528092919081815260200182805461052f906120f7565b801561057c5780601f106105515761010080835404028352916020019161057c565b820191906000526020600020905b81548152906001019060200180831161055f57829003601f168201915b5050505050815250905060007f000000000000000000000000000000000000000000000000000000000000000073ffffffffffffffffffffffffffffffffffffffff166396f4e9f988846040518363ffffffff1660e01b81526004016105e3929190612323565b6020604051808303816000875af1158015610602573d6000803e3d6000fd5b505050506040513d601f19601f820116820180604052508101906106269190612389565b90507f54791b38f3859327992a1ca0590ad3c0f08feba98d1a4f56ab0dca74d203392a8160405161065791906123c5565b60405180910390a150505050505050565b6106706115fd565b80600360008467ffffffffffffffff1667ffffffffffffffff16815260200190815260200160002090816106a49190612582565b505050565b600360205280600052604060002060009150905080546106c8906120f7565b80601f01602080910402602001604051908101604052809291908181526020018280546106f4906120f7565b80156107415780601f1061071657610100808354040283529160200191610741565b820191906000526020600020905b81548152906001019060200180831161072457829003601f168201915b505050505081565b826000600360008367ffffffffffffffff1667ffffffffffffffff168152602001908152602001600020805461077e906120f7565b9050036107c257806040517fd79f2ea40000000000000000000000000000000000000000000000000000000081526004016107b99190612137565b60405180910390fd5b60005b8251811015610971578281815181106107e1576107e0612654565b5b60200260200101516000015173ffffffffffffffffffffffffffffffffffffffff166323b872dd333086858151811061081d5761081c612654565b5b6020026020010151602001516040518463ffffffff1660e01b815260040161084793929190612692565b6020604051808303816000875af1158015610866573d6000803e3d6000fd5b505050506040513d601f19601f8201168201806040525081019061088a91906126f5565b5082818151811061089e5761089d612654565b5b60200260200101516000015173ffffffffffffffffffffffffffffffffffffffff1663095ea7b37f00000000000000000000000000000000000000000000000000000000000000008584815181106108f9576108f8612654565b5b6020026020010151602001516040518363ffffffff1660e01b8152600401610922929190612722565b6020604051808303816000875af1158015610941573d6000803e3d6000fd5b505050506040513d601f19601f8201168201806040525081019061096591906126f5565b508060010190506107c5565b50606060006040518060a00160405280868152602001838152602001858152602001600260009054906101000a900473ffffffffffffffffffffffffffffffffffffffff1673ffffffffffffffffffffffffffffffffffffffff168152602001600360008967ffffffffffffffff1667ffffffffffffffff1681526020019081526020016000208054610a03906120f7565b80601f0160208091040260200160405190810160405280929190818152602001828054610a2f906120f7565b8015610a7c5780601f10610a5157610100808354040283529160200191610a7c565b820191906000526020600020905b815481529060010190602001808311610a5f57829003601f168201915b5050505050815250905060007f000000000000000000000000000000000000000000000000000000000000000073ffffffffffffffffffffffffffffffffffffffff166396f4e9f988846040518363ffffffff1660e01b8152600401610ae3929190612323565b6020604051808303816000875af1158015610b02573d6000803e3d6000fd5b505050506040513d601f19601f82011682018060405250810190610b269190612389565b90507f54791b38f3859327992a1ca0590ad3c0f08feba98d1a4f56ab0dca74d203392a81604051610b5791906123c5565b60405180910390a150505050505050565b836000600360008367ffffffffffffffff1667ffffffffffffffff1681526020019081526020016000208054610b9d906120f7565b905003610be157806040517fd79f2ea4000000000000000000000000000000000000000000000000000000008152600401610bd89190612137565b60405180910390fd5b60005b8251811015610d9057828181518110610c0057610bff612654565b5b60200260200101516000015173ffffffffffffffffffffffffffffffffffffffff166323b872dd3330868581518110610c3c57610c3b612654565b5b6020026020010151602001516040518463ffffffff1660e01b8152600401610c6693929190612692565b6020604051808303816000875af1158015610c85573d6000803e3d6000fd5b505050506040513d601f19601f82011682018060405250810190610ca991906126f5565b50828181518110610cbd57610cbc612654565b5b60200260200101516000015173ffffffffffffffffffffffffffffffffffffffff1663095ea7b37f0000000000000000000000000000000000000000000000000000000000000000858481518110610d1857610d17612654565b5b6020026020010151602001516040518363ffffffff1660e01b8152600401610d41929190612722565b6020604051808303816000875af1158015610d60573d6000803e3d6000fd5b505050506040513d601f19601f82011682018060405250810190610d8491906126f5565b50806001019050610be4565b5060006040518060a00160405280868152602001858152602001848152602001600260009054906101000a900473ffffffffffffffffffffffffffffffffffffffff1673ffffffffffffffffffffffffffffffffffffffff168152602001600360008967ffffffffffffffff1667ffffffffffffffff1681526020019081526020016000208054610e20906120f7565b80601f0160208091040260200160405190810160405280929190818152602001828054610e4c906120f7565b8015610e995780601f10610e6e57610100808354040283529160200191610e99565b820191906000526020600020905b815481529060010190602001808311610e7c57829003601f168201915b5050505050815250905060007f000000000000000000000000000000000000000000000000000000000000000073ffffffffffffffffffffffffffffffffffffffff166396f4e9f988846040518363ffffffff1660e01b8152600401610f00929190612323565b6020604051808303816000875af1158015610f1f573d6000803e3d6000fd5b505050506040513d601f19601f82011682018060405250810190610f439190612389565b90507f54791b38f3859327992a1ca0590ad3c0f08feba98d1a4f56ab0dca74d203392a81604051610f7491906123c5565b60405180910390a150505050505050565b600160009054906101000a900473ffffffffffffffffffffffffffffffffffffffff1673ffffffffffffffffffffffffffffffffffffffff163373ffffffffffffffffffffffffffffffffffffffff1614611015576040517f08c379a000000000000000000000000000000000000000000000000000000000815260040161100c906127a8565b60405180910390fd5b60008060009054906101000a900473ffffffffffffffffffffffffffffffffffffffff169050336000806101000a81548173ffffffffffffffffffffffffffffffffffffffff021916908373ffffffffffffffffffffffffffffffffffffffff1602179055506000600160006101000a81548173ffffffffffffffffffffffffffffffffffffffff021916908373ffffffffffffffffffffffffffffffffffffffff1602179055503373ffffffffffffffffffffffffffffffffffffffff168173ffffffffffffffffffffffffffffffffffffffff167f8be0079c531659141344cd1fd0a4f28419497f9722a3daafe3b4186f6b6457e060405160405180910390a350565b61112261125b565b73ffffffffffffffffffffffffffffffffffffffff163373ffffffffffffffffffffffffffffffffffffffff161461119157336040517fd7f733340000000000000000000000000000000000000000000000000000000081526004016111889190612006565b60405180910390fd5b8060200160208101906111a49190611993565b6000600360008367ffffffffffffffff1667ffffffffffffffff16815260200190815260200160002080546111d8906120f7565b90500361121c57806040517fd79f2ea40000000000000000000000000000000000000000000000000000000081526004016112139190612137565b60405180910390fd5b61122e82611229906128bd565b61168d565b5050565b60008060009054906101000a900473ffffffffffffffffffffffffffffffffffffffff16905090565b60007f0000000000000000000000000000000000000000000000000000000000000000905090565b826000600360008367ffffffffffffffff1667ffffffffffffffff16815260200190815260200160002080546112b8906120f7565b9050036112fc57806040517fd79f2ea40000000000000000000000000000000000000000000000000000000081526004016112f39190612137565b60405180910390fd5b60008067ffffffffffffffff811115611318576113176119db565b5b60405190808252806020026020018201604052801561135157816020015b61133e611837565b8152602001906001900390816113365790505b50905060006040518060a00160405280868152602001858152602001838152602001600073ffffffffffffffffffffffffffffffffffffffff168152602001600360008967ffffffffffffffff1667ffffffffffffffff16815260200190815260200160002080546113c2906120f7565b80601f01602080910402602001604051908101604052809291908181526020018280546113ee906120f7565b801561143b5780601f106114105761010080835404028352916020019161143b565b820191906000526020600020905b81548152906001019060200180831161141e57829003601f168201915b5050505050815250905060007f000000000000000000000000000000000000000000000000000000000000000073ffffffffffffffffffffffffffffffffffffffff166396f4e9f97f000000000000000000000000000000000000000000000000000000000000000073ffffffffffffffffffffffffffffffffffffffff166320487ded8a866040518363ffffffff1660e01b81526004016114de929190612323565b602060405180830381865afa1580156114fb573d6000803e3d6000fd5b505050506040513d601f19601f8201168201806040525081019061151f91906128e5565b89856040518463ffffffff1660e01b815260040161153e929190612323565b60206040518083038185885af115801561155c573d6000803e3d6000fd5b50505050506040513d601f19601f820116820180604052508101906115819190612389565b90507f54791b38f3859327992a1ca0590ad3c0f08feba98d1a4f56ab0dca74d203392a816040516115b291906123c5565b60405180910390a150505050505050565b6115cb6115fd565b6115d4816116cb565b50565b600260009054906101000a900473ffffffffffffffffffffffffffffffffffffffff1681565b60008054906101000a900473ffffffffffffffffffffffffffffffffffffffff1673ffffffffffffffffffffffffffffffffffffffff163373ffffffffffffffffffffffffffffffffffffffff161461168b576040517f08c379a00000000000000000000000000000000000000000000000000000000081526004016116829061295e565b60405180910390fd5b565b7fe29dc34207c78fc0f6048a32f159139c33339c6d6df8b07dcd33f6d699ff232781600001516040516116c091906123c5565b60405180910390a150565b3373ffffffffffffffffffffffffffffffffffffffff168173ffffffffffffffffffffffffffffffffffffffff1603611739576040517f08c379a0000000000000000000000000000000000000000000000000000000008152600401611730906129ca565b60405180910390fd5b80600160006101000a81548173ffffffffffffffffffffffffffffffffffffffff021916908373ffffffffffffffffffffffffffffffffffffffff1602179055508073ffffffffffffffffffffffffffffffffffffffff1660008054906101000a900473ffffffffffffffffffffffffffffffffffffffff1673ffffffffffffffffffffffffffffffffffffffff167fed8889f560326eb138920d842192f0eb3dd22b4f139c87a2c57538e05bae127860405160405180910390a350565b508054611803906120f7565b6000825580601f106118155750611834565b601f0160209004906000526020600020908101906118339190611867565b5b50565b6040518060400160405280600073ffffffffffffffffffffffffffffffffffffffff168152602001600081525090565b5b80821115611880576000816000905550600101611868565b5090565b6000604051905090565b600080fd5b600080fd5b60007fffffffff0000000000000000000000000000000000000000000000000000000082169050919050565b6118cd81611898565b81146118d857600080fd5b50565b6000813590506118ea816118c4565b92915050565b6000602082840312156119065761190561188e565b5b6000611914848285016118db565b91505092915050565b60008115159050919050565b6119328161191d565b82525050565b600060208201905061194d6000830184611929565b92915050565b600067ffffffffffffffff82169050919050565b61197081611953565b811461197b57600080fd5b50565b60008135905061198d81611967565b92915050565b6000602082840312156119a9576119a861188e565b5b60006119b78482850161197e565b91505092915050565b600080fd5b600080fd5b6000601f19601f8301169050919050565b7f4e487b7100000000000000000000000000000000000000000000000000000000600052604160045260246000fd5b611a13826119ca565b810181811067ffffffffffffffff82111715611a3257611a316119db565b5b80604052505050565b6000611a45611884565b9050611a518282611a0a565b919050565b600067ffffffffffffffff821115611a7157611a706119db565b5b611a7a826119ca565b9050602081019050919050565b82818337600083830152505050565b6000611aa9611aa484611a56565b611a3b565b905082815260208101848484011115611ac557611ac46119c5565b5b611ad0848285611a87565b509392505050565b600082601f830112611aed57611aec6119c0565b5b8135611afd848260208601611a96565b91505092915050565b600080600060608486031215611b1f57611b1e61188e565b5b6000611b2d8682870161197e565b935050602084013567ffffffffffffffff811115611b4e57611b4d611893565b5b611b5a86828701611ad8565b925050604084013567ffffffffffffffff811115611b7b57611b7a611893565b5b611b8786828701611ad8565b9150509250925092565b60008060408385031215611ba857611ba761188e565b5b6000611bb68582860161197e565b925050602083013567ffffffffffffffff811115611bd757611bd6611893565b5b611be385828601611ad8565b9150509250929050565b600081519050919050565b600082825260208201905092915050565b60005b83811015611c27578082015181840152602081019050611c0c565b60008484015250505050565b6000611c3e82611bed565b611c488185611bf8565b9350611c58818560208601611c09565b611c61816119ca565b840191505092915050565b60006020820190508181036000830152611c868184611c33565b905092915050565b600067ffffffffffffffff821115611ca957611ca86119db565b5b602082029050602081019050919050565b600080fd5b600080fd5b600080fd5b600073ffffffffffffffffffffffffffffffffffffffff82169050919050565b6000611cf482611cc9565b9050919050565b611d0481611ce9565b8114611d0f57600080fd5b50565b600081359050611d2181611cfb565b92915050565b6000819050919050565b611d3a81611d27565b8114611d4557600080fd5b50565b600081359050611d5781611d31565b92915050565b600060408284031215611d7357611d72611cbf565b5b611d7d6040611a3b565b90506000611d8d84828501611d12565b6000830152506020611da184828501611d48565b60208301525092915050565b6000611dc0611dbb84611c8e565b611a3b565b90508083825260208201905060408402830185811115611de357611de2611cba565b5b835b81811015611e0c5780611df88882611d5d565b845260208401935050604081019050611de5565b5050509392505050565b600082601f830112611e2b57611e2a6119c0565b5b8135611e3b848260208601611dad565b91505092915050565b600080600060608486031215611e5d57611e5c61188e565b5b6000611e6b8682870161197e565b935050602084013567ffffffffffffffff811115611e8c57611e8b611893565b5b611e9886828701611ad8565b925050604084013567ffffffffffffffff811115611eb957611eb8611893565b5b611ec586828701611e16565b9150509250925092565b60008060008060808587031215611ee957611ee861188e565b5b6000611ef78782880161197e565b945050602085013567ffffffffffffffff811115611f1857611f17611893565b5b611f2487828801611ad8565b935050604085013567ffffffffffffffff811115611f4557611f44611893565b5b611f5187828801611ad8565b925050606085013567ffffffffffffffff811115611f7257611f71611893565b5b611f7e87828801611e16565b91505092959194509250565b600080fd5b600060a08284031215611fa557611fa4611f8a565b5b81905092915050565b600060208284031215611fc457611fc361188e565b5b600082013567ffffffffffffffff811115611fe257611fe1611893565b5b611fee84828501611f8f565b91505092915050565b61200081611ce9565b82525050565b600060208201905061201b6000830184611ff7565b92915050565b6000602082840312156120375761203661188e565b5b600061204584828501611d12565b91505092915050565b6000819050919050565b600061207361206e61206984611cc9565b61204e565b611cc9565b9050919050565b600061208582612058565b9050919050565b60006120978261207a565b9050919050565b6120a78161208c565b82525050565b60006020820190506120c2600083018461209e565b92915050565b7f4e487b7100000000000000000000000000000000000000000000000000000000600052602260045260246000fd5b6000600282049050600182168061210f57607f821691505b602082108103612122576121216120c8565b5b50919050565b61213181611953565b82525050565b600060208201905061214c6000830184612128565b92915050565b600082825260208201905092915050565b600061216e82611bed565b6121788185612152565b9350612188818560208601611c09565b612191816119ca565b840191505092915050565b600081519050919050565b600082825260208201905092915050565b6000819050602082019050919050565b6121d181611ce9565b82525050565b6121e081611d27565b82525050565b6040820160008201516121fc60008501826121c8565b50602082015161220f60208501826121d7565b50505050565b600061222183836121e6565b60408301905092915050565b6000602082019050919050565b60006122458261219c565b61224f81856121a7565b935061225a836121b8565b8060005b8381101561228b5781516122728882612215565b975061227d8361222d565b92505060018101905061225e565b5085935050505092915050565b600060a08301600083015184820360008601526122b58282612163565b915050602083015184820360208601526122cf8282612163565b915050604083015184820360408601526122e9828261223a565b91505060608301516122fe60608601826121c8565b50608083015184820360808601526123168282612163565b9150508091505092915050565b60006040820190506123386000830185612128565b818103602083015261234a8184612298565b90509392505050565b6000819050919050565b61236681612353565b811461237157600080fd5b50565b6000815190506123838161235d565b92915050565b60006020828403121561239f5761239e61188e565b5b60006123ad84828501612374565b91505092915050565b6123bf81612353565b82525050565b60006020820190506123da60008301846123b6565b92915050565b60008190508160005260206000209050919050565b60006020601f8301049050919050565b600082821b905092915050565b6000600883026124427fffffffffffffffffffffffffffffffffffffffffffffffffffffffffffffffff82612405565b61244c8683612405565b95508019841693508086168417925050509392505050565b600061247f61247a61247584611d27565b61204e565b611d27565b9050919050565b6000819050919050565b61249983612464565b6124ad6124a582612486565b848454612412565b825550505050565b600090565b6124c26124b5565b6124cd818484612490565b505050565b5b818110156124f1576124e66000826124ba565b6001810190506124d3565b5050565b601f82111561253657612507816123e0565b612510846123f5565b8101602085101561251f578190505b61253361252b856123f5565b8301826124d2565b50505b505050565b600082821c905092915050565b60006125596000198460080261253b565b1980831691505092915050565b60006125728383612548565b9150826002028217905092915050565b61258b82611bed565b67ffffffffffffffff8111156125a4576125a36119db565b5b6125ae82546120f7565b6125b98282856124f5565b600060209050601f8311600181146125ec57600084156125da578287015190505b6125e48582612566565b86555061264c565b601f1984166125fa866123e0565b60005b82811015612622578489015182556001820191506020850194506020810190506125fd565b8683101561263f578489015161263b601f891682612548565b8355505b6001600288020188555050505b505050505050565b7f4e487b7100000000000000000000000000000000000000000000000000000000600052603260045260246000fd5b61268c81611d27565b82525050565b60006060820190506126a76000830186611ff7565b6126b46020830185611ff7565b6126c16040830184612683565b949350505050565b6126d28161191d565b81146126dd57600080fd5b50565b6000815190506126ef816126c9565b92915050565b60006020828403121561270b5761270a61188e565b5b6000612719848285016126e0565b91505092915050565b60006040820190506127376000830185611ff7565b6127446020830184612683565b9392505050565b600082825260208201905092915050565b7f4d7573742062652070726f706f736564206f776e657200000000000000000000600082015250565b600061279260168361274b565b915061279d8261275c565b602082019050919050565b600060208201905081810360008301526127c181612785565b9050919050565b6000813590506127d78161235d565b92915050565b600060a082840312156127f3576127f2611cbf565b5b6127fd60a0611a3b565b9050600061280d848285016127c8565b60008301525060206128218482850161197e565b602083015250604082013567ffffffffffffffff81111561284557612844611cc4565b5b61285184828501611ad8565b604083015250606082013567ffffffffffffffff81111561287557612874611cc4565b5b61288184828501611ad8565b606083015250608082013567ffffffffffffffff8111156128a5576128a4611cc4565b5b6128b184828501611e16565b60808301525092915050565b60006128c936836127dd565b9050919050565b6000815190506128df81611d31565b92915050565b6000602082840312156128fb576128fa61188e565b5b6000612909848285016128d0565b91505092915050565b7f4f6e6c792063616c6c61626c65206279206f776e657200000000000000000000600082015250565b600061294860168361274b565b915061295382612912565b602082019050919050565b600060208201905081810360008301526129778161293b565b9050919050565b7f43616e6e6f74207472616e7366657220746f2073656c66000000000000000000600082015250565b60006129b460178361274b565b91506129bf8261297e565b602082019050919050565b600060208201905081810360008301526129e3816129a7565b905091905056fea164736f6c6343000818000a","linkReferences":{}},"methodIdentifiers":{"acceptOwnership()":"79ba5097","ccipReceive((bytes32,uint64,bytes,bytes,(address,uint256)[]))":"85572ffb","disableChain(uint64)":"41eade46","enableChain(uint64,bytes)":"5dc02a2c","getRouter()":"b0f479a1","owner()":"8da5cb5b","s_chains(uint64)":"5dc5ebdb","s_feeToken()":"ff2deec3","sendDataAndTokens(uint64,bytes,bytes,(address,uint256)[])":"7383c8fb","sendDataPayFeeToken(uint64,bytes,bytes)":"5d8e7f18","sendDataPayNative(uint64,bytes,bytes)":"c0cb2d08","sendTokens(uint64,bytes,(address,uint256)[])":"686fab79","supportsInterface(bytes4)":"01ffc9a7","transferOwnership(address)":"f2fde38b"},"id":6}