{"abi":[{"type":"constructor","inputs":[{"name":"token","type":"address","internalType":"contract IERC20"},{"name":"allowlist","type":"address[]","internalType":"address[]"},{"name":"rmnProxy","type":"address","internalType":"address"},{"name":"router","type":"address","internalType":"address"}],"stateMutability":"nonpayable"},{"type":"function","name":"acceptOwnership","inputs":[],"outputs":[],"stateMutability":"nonpayable"},{"type":"function","name":"applyAllowListUpdates","inputs":[{"name":"removes","type":"address[]","internalType":"address[]"},{"name":"adds","type":"address[]","internalType":"address[]"}],"outputs":[],"stateMutability":"nonpayable"},{"type":"function","name":"applyChainUpdates","inputs":[{"name":"chains","type":"tuple[]","internalType":"struct TokenPool.ChainUpdate[]","components":[{"name":"remoteChainSelector","type":"uint64","internalType":"uint64"},{"name":"allowed","type":"bool","internalType":"bool"},{"name":"remotePoolAddress","type":"bytes","internalType":"bytes"},{"name":"remoteTokenAddress","type":"bytes","internalType":"bytes"},{"name":"outboundRateLimiterConfig","type":"tuple","internalType":"struct RateLimiter.Config","components":[{"name":"isEnabled","type":"bool","internalType":"bool"},{"name":"capacity","type":"uint128","internalType":"uint128"},{"name":"rate","type":"uint128","internalType":"uint128"}]},{"name":"inboundRateLimiterConfig","type":"tuple","internalType":"struct RateLimiter.Config","components":[{"name":"isEnabled","type":"bool","internalType":"bool"},{"name":"capacity","type":"uint128","internalType":"uint128"},{"name":"rate","type":"uint128","internalType":"uint128"}]}]}],"outputs":[],"stateMutability":"nonpayable"},{"type":"function","name":"getAllowList","inputs":[],"outputs":[{"name":"","type":"address[]","internalType":"address[]"}],"stateMutability":"view"},{"type":"function","name":"getAllowListEnabled","inputs":[],"outputs":[{"name":"","type":"bool","internalType":"bool"}],"stateMutability":"view"},{"type":"function","name":"getCurrentInboundRateLimiterState","inputs":[{"name":"remoteChainSelector","type":"uint64","internalType":"uint64"}],"outputs":[{"name":"","type":"tuple","internalType":"struct RateLimiter.TokenBucket","components":[{"name":"tokens","type":"uint128","internalType":"uint128"},{"name":"lastUpdated","type":"uint32","internalType":"uint32"},{"name":"isEnabled","type":"bool","internalType":"bool"},{"name":"capacity","type":"uint128","internalType":"uint128"},{"name":"rate","type":"uint128","internalType":"uint128"}]}],"stateMutability":"view"},{"type":"function","name":"getCurrentOutboundRateLimiterState","inputs":[{"name":"remoteChainSelector","type":"uint64","internalType":"uint64"}],"outputs":[{"name":"","type":"tuple","internalType":"struct RateLimiter.TokenBucket","components":[{"name":"tokens","type":"uint128","internalType":"uint128"},{"name":"lastUpdated","type":"uint32","internalType":"uint32"},{"name":"isEnabled","type":"bool","internalType":"bool"},{"name":"capacity","type":"uint128","internalType":"uint128"},{"name":"rate","type":"uint128","internalType":"uint128"}]}],"stateMutability":"view"},{"type":"function","name":"getRemotePool","inputs":[{"name":"remoteChainSelector","type":"uint64","internalType":"uint64"}],"outputs":[{"name":"","type":"bytes","internalType":"bytes"}],"stateMutability":"view"},{"type":"function","name":"getRemoteToken","inputs":[{"name":"remoteChainSelector","type":"uint64","internalType":"uint64"}],"outputs":[{"name":"","type":"bytes","internalType":"bytes"}],"stateMutability":"view"},{"type":"function","name":"getRmnProxy","inputs":[],"outputs":[{"name":"rmnProxy","type":"address","internalType":"address"}],"stateMutability":"view"},{"type":"function","name":"getRouter","inputs":[],"outputs":[{"name":"router","type":"address","internalType":"address"}],"stateMutability":"view"},{"type":"function","name":"getSupportedChains","inputs":[],"outputs":[{"name":"","type":"uint64[]","internalType":"uint64[]"}],"stateMutability":"view"},{"type":"function","name":"getToken","inputs":[],"outputs":[{"name":"token","type":"address","internalType":"contract IERC20"}],"stateMutability":"view"},{"type":"function","name":"isSupportedChain","inputs":[{"name":"remoteChainSelector","type":"uint64","internalType":"uint64"}],"outputs":[{"name":"","type":"bool","internalType":"bool"}],"stateMutability":"view"},{"type":"function","name":"isSupportedToken","inputs":[{"name":"token","type":"address","internalType":"address"}],"outputs":[{"name":"","type":"bool","internalType":"bool"}],"stateMutability":"view"},{"type":"function","name":"lockOrBurn","inputs":[{"name":"lockOrBurnIn","type":"tuple","internalType":"struct Pool.LockOrBurnInV1","components":[{"name":"receiver","type":"bytes","internalType":"bytes"},{"name":"remoteChainSelector","type":"uint64","internalType":"uint64"},{"name":"originalSender","type":"address","internalType":"address"},{"name":"amount","type":"uint256","internalType":"uint256"},{"name":"localToken","type":"address","internalType":"address"}]}],"outputs":[{"name":"","type":"tuple","internalType":"struct Pool.LockOrBurnOutV1","components":[{"name":"destTokenAddress","type":"bytes","internalType":"bytes"},{"name":"destPoolData","type":"bytes","internalType":"bytes"}]}],"stateMutability":"view"},{"type":"function","name":"onlyOffRampModifier","inputs":[{"name":"remoteChainSelector","type":"uint64","internalType":"uint64"}],"outputs":[],"stateMutability":"view"},{"type":"function","name":"onlyOnRampModifier","inputs":[{"name":"remoteChainSelector","type":"uint64","internalType":"uint64"}],"outputs":[],"stateMutability":"view"},{"type":"function","name":"owner","inputs":[],"outputs":[{"name":"","type":"address","internalType":"address"}],"stateMutability":"view"},{"type":"function","name":"releaseOrMint","inputs":[{"name":"releaseOrMintIn","type":"tuple","internalType":"struct Pool.ReleaseOrMintInV1","components":[{"name":"originalSender","type":"bytes","internalType":"bytes"},{"name":"remoteChainSelector","type":"uint64","internalType":"uint64"},{"name":"receiver","type":"address","internalType":"address"},{"name":"amount","type":"uint256","internalType":"uint256"},{"name":"localToken","type":"address","internalType":"address"},{"name":"sourcePoolAddress","type":"bytes","internalType":"bytes"},{"name":"sourcePoolData","type":"bytes","internalType":"bytes"},{"name":"offchainTokenData","type":"bytes","internalType":"bytes"}]}],"outputs":[{"name":"","type":"tuple","internalType":"struct Pool.ReleaseOrMintOutV1","components":[{"name":"destinationAmount","type":"uint256","internalType":"uint256"}]}],"stateMutability":"pure"},{"type":"function","name":"setChainRateLimiterConfig","inputs":[{"name":"remoteChainSelector","type":"uint64","internalType":"uint64"},{"name":"outboundConfig","type":"tuple","internalType":"struct RateLimiter.Config","components":[{"name":"isEnabled","type":"bool","internalType":"bool"},{"name":"capacity","type":"uint128","internalType":"uint128"},{"name":"rate","type":"uint128","internalType":"uint128"}]},{"name":"inboundConfig","type":"tuple","internalType":"struct RateLimiter.Config","components":[{"name":"isEnabled","type":"bool","internalType":"bool"},{"name":"capacity","type":"uint128","internalType":"uint128"},{"name":"rate","type":"uint128","internalType":"uint128"}]}],"outputs":[],"stateMutability":"nonpayable"},{"type":"function","name":"setRemotePool","inputs":[{"name":"remoteChainSelector","type":"uint64","internalType":"uint64"},{"name":"remotePoolAddress","type":"bytes","internalType":"bytes"}],"outputs":[],"stateMutability":"nonpayable"},{"type":"function","name":"setRouter","inputs":[{"name":"newRouter","type":"address","internalType":"address"}],"outputs":[],"stateMutability":"nonpayable"},{"type":"function","name":"supportsInterface","inputs":[{"name":"interfaceId","type":"bytes4","internalType":"bytes4"}],"outputs":[{"name":"","type":"bool","internalType":"bool"}],"stateMutability":"pure"},{"type":"function","name":"transferOwnership","inputs":[{"name":"to","type":"address","internalType":"address"}],"outputs":[],"stateMutability":"nonpayable"},{"type":"event","name":"AllowListAdd","inputs":[{"name":"sender","type":"address","indexed":false,"internalType":"address"}],"anonymous":false},{"type":"event","name":"AllowListRemove","inputs":[{"name":"sender","type":"address","indexed":false,"internalType":"address"}],"anonymous":false},{"type":"event","name":"Burned","inputs":[{"name":"sender","type":"address","indexed":true,"internalType":"address"},{"name":"amount","type":"uint256","indexed":false,"internalType":"uint256"}],"anonymous":false},{"type":"event","name":"ChainAdded","inputs":[{"name":"remoteChainSelector","type":"uint64","indexed":false,"internalType":"uint64"},{"name":"remoteToken","type":"bytes","indexed":false,"internalType":"bytes"},{"name":"outboundRateLimiterConfig","type":"tuple","indexed":false,"internalType":"struct RateLimiter.Config","components":[{"name":"isEnabled","type":"bool","internalType":"bool"},{"name":"capacity","type":"uint128","internalType":"uint128"},{"name":"rate","type":"uint128","internalType":"uint128"}]},{"name":"inboundRateLimiterConfig","type":"tuple","indexed":false,"internalType":"struct RateLimiter.Config","components":[{"name":"isEnabled","type":"bool","internalType":"bool"},{"name":"capacity","type":"uint128","internalType":"uint128"},{"name":"rate","type":"uint128","internalType":"uint128"}]}],"anonymous":false},{"type":"event","name":"ChainConfigured","inputs":[{"name":"remoteChainSelector","type":"uint64","indexed":false,"internalType":"uint64"},{"name":"outboundRateLimiterConfig","type":"tuple","indexed":false,"internalType":"struct RateLimiter.Config","components":[{"name":"isEnabled","type":"bool","internalType":"bool"},{"name":"capacity","type":"uint128","internalType":"uint128"},{"name":"rate","type":"uint128","internalType":"uint128"}]},{"name":"inboundRateLimiterConfig","type":"tuple","indexed":false,"internalType":"struct RateLimiter.Config","components":[{"name":"isEnabled","type":"bool","internalType":"bool"},{"name":"capacity","type":"uint128","internalType":"uint128"},{"name":"rate","type":"uint128","internalType":"uint128"}]}],"anonymous":false},{"type":"event","name":"ChainRemoved","inputs":[{"name":"remoteChainSelector","type":"uint64","indexed":false,"internalType":"uint64"}],"anonymous":false},{"type":"event","name":"ConfigChanged","inputs":[{"name":"config","type":"tuple","indexed":false,"internalType":"struct RateLimiter.Config","components":[{"name":"isEnabled","type":"bool","internalType":"bool"},{"name":"capacity","type":"uint128","internalType":"uint128"},{"name":"rate","type":"uint128","internalType":"uint128"}]}],"anonymous":false},{"type":"event","name":"Locked","inputs":[{"name":"sender","type":"address","indexed":true,"internalType":"address"},{"name":"amount","type":"uint256","indexed":false,"internalType":"uint256"}],"anonymous":false},{"type":"event","name":"Minted","inputs":[{"name":"sender","type":"address","indexed":true,"internalType":"address"},{"name":"recipient","type":"address","indexed":true,"internalType":"address"},{"name":"amount","type":"uint256","indexed":false,"internalType":"uint256"}],"anonymous":false},{"type":"event","name":"OwnershipTransferRequested","inputs":[{"name":"from","type":"address","indexed":true,"internalType":"address"},{"name":"to","type":"address","indexed":true,"internalType":"address"}],"anonymous":false},{"type":"event","name":"OwnershipTransferred","inputs":[{"name":"from","type":"address","indexed":true,"internalType":"address"},{"name":"to","type":"address","indexed":true,"internalType":"address"}],"anonymous":false},{"type":"event","name":"Released","inputs":[{"name":"sender","type":"address","indexed":true,"internalType":"address"},{"name":"recipient","type":"address","indexed":true,"internalType":"address"},{"name":"amount","type":"uint256","indexed":false,"internalType":"uint256"}],"anonymous":false},{"type":"event","name":"RemotePoolSet","inputs":[{"name":"remoteChainSelector","type":"uint64","indexed":true,"internalType":"uint64"},{"name":"previousPoolAddress","type":"bytes","indexed":false,"internalType":"bytes"},{"name":"remotePoolAddress","type":"bytes","indexed":false,"internalType":"bytes"}],"anonymous":false},{"type":"event","name":"RouterUpdated","inputs":[{"name":"oldRouter","type":"address","indexed":false,"internalType":"address"},{"name":"newRouter","type":"address","indexed":false,"internalType":"address"}],"anonymous":false},{"type":"error","name":"AllowListNotEnabled","inputs":[]},{"type":"error","name":"CallerIsNotARampOnRouter","inputs":[{"name":"caller","type":"address","internalType":"address"}]},{"type":"error","name":"ChainAlreadyExists","inputs":[{"name":"chainSelector","type":"uint64","internalType":"uint64"}]},{"type":"error","name":"ChainNotAllowed","inputs":[{"name":"remoteChainSelector","type":"uint64","internalType":"uint64"}]},{"type":"error","name":"CursedByRMN","inputs":[]},{"type":"error","name":"DisabledNonZeroRateLimit","inputs":[{"name":"config","type":"tuple","internalType":"struct RateLimiter.Config","components":[{"name":"isEnabled","type":"bool","internalType":"bool"},{"name":"capacity","type":"uint128","internalType":"uint128"},{"name":"rate","type":"uint128","internalType":"uint128"}]}]},{"type":"error","name":"InvalidRateLimitRate","inputs":[{"name":"rateLimiterConfig","type":"tuple","internalType":"struct RateLimiter.Config","components":[{"name":"isEnabled","type":"bool","internalType":"bool"},{"name":"capacity","type":"uint128","internalType":"uint128"},{"name":"rate","type":"uint128","internalType":"uint128"}]}]},{"type":"error","name":"InvalidSourcePoolAddress","inputs":[{"name":"sourcePoolAddress","type":"bytes","internalType":"bytes"}]},{"type":"error","name":"InvalidToken","inputs":[{"name":"token","type":"address","internalType":"address"}]},{"type":"error","name":"NonExistentChain","inputs":[{"name":"remoteChainSelector","type":"uint64","internalType":"uint64"}]},{"type":"error","name":"RateLimitMustBeDisabled","inputs":[]},{"type":"error","name":"SenderNotAllowed","inputs":[{"name":"sender","type":"address","internalType":"address"}]},{"type":"error","name":"ZeroAddressNotAllowed","inputs":[]}],"bytecode":{"object":"0x60e06040523480156200001157600080fd5b5060405162004c3b38038062004c3b833981810160405281019062000037919062000a76565b83838383338060008073ffffffffffffffffffffffffffffffffffffffff168273ffffffffffffffffffffffffffffffffffffffff1603620000b0576040517f08c379a0000000000000000000000000000000000000000000000000000000008152600401620000a79062000b68565b60405180910390fd5b816000806101000a81548173ffffffffffffffffffffffffffffffffffffffff021916908373ffffffffffffffffffffffffffffffffffffffff160217905550600073ffffffffffffffffffffffffffffffffffffffff168173ffffffffffffffffffffffffffffffffffffffff1614620001375762000136816200034260201b60201c565b5b505050600073ffffffffffffffffffffffffffffffffffffffff168473ffffffffffffffffffffffffffffffffffffffff161480620001a25750600073ffffffffffffffffffffffffffffffffffffffff168173ffffffffffffffffffffffffffffffffffffffff16145b80620001da5750600073ffffffffffffffffffffffffffffffffffffffff168273ffffffffffffffffffffffffffffffffffffffff16145b1562000212576040517f8579befe00000000000000000000000000000000000000000000000000000000815260040160405180910390fd5b8373ffffffffffffffffffffffffffffffffffffffff1660808173ffffffffffffffffffffffffffffffffffffffff16815250508173ffffffffffffffffffffffffffffffffffffffff1660a08173ffffffffffffffffffffffffffffffffffffffff168152505080600460006101000a81548173ffffffffffffffffffffffffffffffffffffffff021916908373ffffffffffffffffffffffffffffffffffffffff1602179055506000835111151560c08115158152505060c05115620003345762000333600067ffffffffffffffff811115620002f657620002f5620008e6565b5b604051908082528060200260200182016040528015620003255781602001602082028036833780820191505090505b50846200047160201b60201c565b5b505050505050505062000cfc565b3373ffffffffffffffffffffffffffffffffffffffff168173ffffffffffffffffffffffffffffffffffffffff1603620003b3576040517f08c379a0000000000000000000000000000000000000000000000000000000008152600401620003aa9062000bda565b60405180910390fd5b80600160006101000a81548173ffffffffffffffffffffffffffffffffffffffff021916908373ffffffffffffffffffffffffffffffffffffffff1602179055508073ffffffffffffffffffffffffffffffffffffffff1660008054906101000a900473ffffffffffffffffffffffffffffffffffffffff1673ffffffffffffffffffffffffffffffffffffffff167fed8889f560326eb138920d842192f0eb3dd22b4f139c87a2c57538e05bae127860405160405180910390a350565b60c051620004ab576040517f35f4a7b300000000000000000000000000000000000000000000000000000000815260040160405180910390fd5b60005b82518110156200053d576000838281518110620004d057620004cf62000bfc565b5b60200260200101519050620004f08160026200061260201b90919060201c565b1562000530577f800671136ab6cfee9fbe5ed1fb7ca417811aca3cf864800d127b927adedf75668160405162000527919062000c3c565b60405180910390a15b50806001019050620004ae565b5060005b81518110156200060d57600082828151811062000563576200056262000bfc565b5b60200260200101519050600073ffffffffffffffffffffffffffffffffffffffff168173ffffffffffffffffffffffffffffffffffffffff1603620005a9575062000601565b620005bf8160026200064a60201b90919060201c565b15620005ff577f2640d4d76caf8bf478aabfa982fa4e1c4eb71a37f93cd15e80dbc657911546d881604051620005f6919062000c3c565b60405180910390a15b505b80600101905062000541565b505050565b600062000642836000018373ffffffffffffffffffffffffffffffffffffffff1660001b6200068260201b60201c565b905092915050565b60006200067a836000018373ffffffffffffffffffffffffffffffffffffffff1660001b620007a660201b60201c565b905092915050565b600080836001016000848152602001908152602001600020549050600081146200079a576000600182620006b7919062000c92565b9050600060018660000180549050620006d1919062000c92565b905081811462000747576000866000018281548110620006f657620006f562000bfc565b5b90600052602060002001549050808760000184815481106200071d576200071c62000bfc565b5b90600052602060002001819055508387600101600083815260200190815260200160002081905550505b856000018054806200075e576200075d62000ccd565b5b600190038181906000526020600020016000905590558560010160008681526020019081526020016000206000905560019350505050620007a0565b60009150505b92915050565b6000620007ba83836200082060201b60201c565b620008155782600001829080600181540180825580915050600190039060005260206000200160009091909190915055826000018054905083600101600084815260200190815260200160002081905550600190506200081a565b600090505b92915050565b600080836001016000848152602001908152602001600020541415905092915050565b6000604051905090565b600080fd5b600080fd5b600073ffffffffffffffffffffffffffffffffffffffff82169050919050565b6000620008848262000857565b9050919050565b6000620008988262000877565b9050919050565b620008aa816200088b565b8114620008b657600080fd5b50565b600081519050620008ca816200089f565b92915050565b600080fd5b6000601f19601f8301169050919050565b7f4e487b7100000000000000000000000000000000000000000000000000000000600052604160045260246000fd5b6200092082620008d5565b810181811067ffffffffffffffff82111715620009425762000941620008e6565b5b80604052505050565b60006200095762000843565b905062000965828262000915565b919050565b600067ffffffffffffffff821115620009885762000987620008e6565b5b602082029050602081019050919050565b600080fd5b620009a98162000877565b8114620009b557600080fd5b50565b600081519050620009c9816200099e565b92915050565b6000620009e6620009e0846200096a565b6200094b565b9050808382526020820190506020840283018581111562000a0c5762000a0b62000999565b5b835b8181101562000a39578062000a248882620009b8565b84526020840193505060208101905062000a0e565b5050509392505050565b600082601f83011262000a5b5762000a5a620008d0565b5b815162000a6d848260208601620009cf565b91505092915050565b6000806000806080858703121562000a935762000a926200084d565b5b600062000aa387828801620008b9565b945050602085015167ffffffffffffffff81111562000ac75762000ac662000852565b5b62000ad58782880162000a43565b935050604062000ae887828801620009b8565b925050606062000afb87828801620009b8565b91505092959194509250565b600082825260208201905092915050565b7f43616e6e6f7420736574206f776e657220746f207a65726f0000000000000000600082015250565b600062000b5060188362000b07565b915062000b5d8262000b18565b602082019050919050565b6000602082019050818103600083015262000b838162000b41565b9050919050565b7f43616e6e6f74207472616e7366657220746f2073656c66000000000000000000600082015250565b600062000bc260178362000b07565b915062000bcf8262000b8a565b602082019050919050565b6000602082019050818103600083015262000bf58162000bb3565b9050919050565b7f4e487b7100000000000000000000000000000000000000000000000000000000600052603260045260246000fd5b62000c368162000877565b82525050565b600060208201905062000c53600083018462000c2b565b92915050565b6000819050919050565b7f4e487b7100000000000000000000000000000000000000000000000000000000600052601160045260246000fd5b600062000c9f8262000c59565b915062000cac8362000c59565b925082820390508181111562000cc75762000cc662000c63565b5b92915050565b7f4e487b7100000000000000000000000000000000000000000000000000000000600052603160045260246000fd5b60805160a05160c051613f0162000d3a6000396000818161192a0152611b4c015260006119020152600081816106c501526106ed0152613f016000f3fe608060405234801561001057600080fd5b50600436106101735760003560e01c80639a4575b9116100de578063c4bffe2b11610097578063db6327dc11610071578063db6327dc14610470578063dc0bd9711461048c578063e0351e13146104aa578063f2fde38b146104c857610173565b8063c4bffe2b14610406578063c75eea9c14610424578063cf7401f31461045457610173565b80639a4575b91461031e578063a7cd63b71461034e578063af58d59f1461036c578063b0f479a11461039c578063b7946580146103ba578063c0d78655146103ea57610173565b806354c8a4f31161013057806354c8a4f31461027257806378a010b21461028e57806379ba5097146102aa5780638926f54f146102b45780638da5cb5b146102e457806392db166c1461030257610173565b806301ffc9a7146101785780630a2fd493146101a857806321df0da7146101d8578063240028e8146101f657806339077537146102265780635082390f14610256575b600080fd5b610192600480360381019061018d91906129ad565b6104e4565b60405161019f91906129f5565b60405180910390f35b6101c260048036038101906101bd9190612a50565b610605565b6040516101cf9190612b0d565b60405180910390f35b6101e06106c1565b6040516101ed9190612bae565b60405180910390f35b610210600480360381019061020b9190612c07565b6106e9565b60405161021d91906129f5565b60405180910390f35b610240600480360381019061023b9190612c59565b610741565b60405161024d9190612cd7565b60405180910390f35b610270600480360381019061026b9190612a50565b610763565b005b61028c60048036038101906102879190612d57565b61076f565b005b6102a860048036038101906102a39190612e2e565b610809565b005b6102b2610998565b005b6102ce60048036038101906102c99190612a50565b610b2d565b6040516102db91906129f5565b60405180910390f35b6102ec610b54565b6040516102f99190612e9d565b60405180910390f35b61031c60048036038101906103179190612a50565b610b7d565b005b61033860048036038101906103339190612ed7565b610b89565b6040516103459190612fae565b60405180910390f35b610356610bd6565b604051610363919061308e565b60405180910390f35b61038660048036038101906103819190612a50565b610be7565b6040516103939190613171565b60405180910390f35b6103a4610d52565b6040516103b19190612e9d565b60405180910390f35b6103d460048036038101906103cf9190612a50565b610d7c565b6040516103e19190612b0d565b60405180910390f35b61040460048036038101906103ff9190612c07565b610e38565b005b61040e610f4b565b60405161041b919061324a565b60405180910390f35b61043e60048036038101906104399190612a50565b611019565b60405161044b9190613171565b60405180910390f35b61046e600480360381019061046991906133ad565b611184565b005b61048a60048036038101906104859190613456565b61119c565b005b6104946118fe565b6040516104a19190612e9d565b60405180910390f35b6104b2611926565b6040516104bf91906129f5565b60405180910390f35b6104e260048036038101906104dd9190612c07565b61194e565b005b600063aff2afbf60e01b7bffffffffffffffffffffffffffffffffffffffffffffffffffffffff1916827bffffffffffffffffffffffffffffffffffffffffffffffffffffffff1916148061059657507f0e64dd29000000000000000000000000000000000000000000000000000000007bffffffffffffffffffffffffffffffffffffffffffffffffffffffff1916827bffffffffffffffffffffffffffffffffffffffffffffffffffffffff1916145b806105fe57507f01ffc9a7000000000000000000000000000000000000000000000000000000007bffffffffffffffffffffffffffffffffffffffffffffffffffffffff1916827bffffffffffffffffffffffffffffffffffffffffffffffffffffffff1916145b9050919050565b6060600760008367ffffffffffffffff1667ffffffffffffffff168152602001908152602001600020600401805461063c906134d2565b80601f0160208091040260200160405190810160405280929190818152602001828054610668906134d2565b80156106b55780601f1061068a576101008083540402835291602001916106b5565b820191906000526020600020905b81548152906001019060200180831161069857829003601f168201915b50505050509050919050565b60007f0000000000000000000000000000000000000000000000000000000000000000905090565b60007f000000000000000000000000000000000000000000000000000000000000000073ffffffffffffffffffffffffffffffffffffffff168273ffffffffffffffffffffffffffffffffffffffff16149050919050565b61074961284a565b604051806020016040528083606001358152509050919050565b61076c81611962565b50565b610777611aba565b610803848480806020026020016040519081016040528093929190818152602001838360200280828437600081840152601f19601f82011690508083019250505050505050838380806020026020016040519081016040528093929190818152602001838360200280828437600081840152601f19601f82011690508083019250505050505050611b4a565b50505050565b610811611aba565b61081a83610b2d565b61085b57826040517f1e670e4b0000000000000000000000000000000000000000000000000000000081526004016108529190613512565b60405180910390fd5b6000600760008567ffffffffffffffff1667ffffffffffffffff1681526020019081526020016000206004018054610892906134d2565b80601f01602080910402602001604051908101604052809291908181526020018280546108be906134d2565b801561090b5780601f106108e05761010080835404028352916020019161090b565b820191906000526020600020905b8154815290600101906020018083116108ee57829003601f168201915b505050505090508282600760008767ffffffffffffffff1667ffffffffffffffff168152602001908152602001600020600401918261094b9291906136da565b508367ffffffffffffffff167fdb4d6220746a38cbc5335f7e108f7de80f482f4d23350253dfd0917df75a14bf82858560405161098a939291906137e6565b60405180910390a250505050565b600160009054906101000a900473ffffffffffffffffffffffffffffffffffffffff1673ffffffffffffffffffffffffffffffffffffffff163373ffffffffffffffffffffffffffffffffffffffff1614610a28576040517f08c379a0000000000000000000000000000000000000000000000000000000008152600401610a1f9061387c565b60405180910390fd5b60008060009054906101000a900473ffffffffffffffffffffffffffffffffffffffff169050336000806101000a81548173ffffffffffffffffffffffffffffffffffffffff021916908373ffffffffffffffffffffffffffffffffffffffff1602179055506000600160006101000a81548173ffffffffffffffffffffffffffffffffffffffff021916908373ffffffffffffffffffffffffffffffffffffffff1602179055503373ffffffffffffffffffffffffffffffffffffffff168173ffffffffffffffffffffffffffffffffffffffff167f8be0079c531659141344cd1fd0a4f28419497f9722a3daafe3b4186f6b6457e060405160405180910390a350565b6000610b4d8267ffffffffffffffff166005611cf290919063ffffffff16565b9050919050565b60008060009054906101000a900473ffffffffffffffffffffffffffffffffffffffff16905090565b610b8681611d0c565b50565b610b9161285d565b6040518060400160405280610bb7846020016020810190610bb29190612a50565b610d7c565b8152602001604051806020016040528060008152508152509050919050565b6060610be26002611e38565b905090565b610bef612877565b610d4b600760008467ffffffffffffffff1667ffffffffffffffff1681526020019081526020016000206002016040518060a00160405290816000820160009054906101000a90046fffffffffffffffffffffffffffffffff166fffffffffffffffffffffffffffffffff166fffffffffffffffffffffffffffffffff1681526020016000820160109054906101000a900463ffffffff1663ffffffff1663ffffffff1681526020016000820160149054906101000a900460ff161515151581526020016001820160009054906101000a90046fffffffffffffffffffffffffffffffff166fffffffffffffffffffffffffffffffff166fffffffffffffffffffffffffffffffff1681526020016001820160109054906101000a90046fffffffffffffffffffffffffffffffff166fffffffffffffffffffffffffffffffff166fffffffffffffffffffffffffffffffff1681525050611e59565b9050919050565b6000600460009054906101000a900473ffffffffffffffffffffffffffffffffffffffff16905090565b6060600760008367ffffffffffffffff1667ffffffffffffffff1681526020019081526020016000206005018054610db3906134d2565b80601f0160208091040260200160405190810160405280929190818152602001828054610ddf906134d2565b8015610e2c5780601f10610e0157610100808354040283529160200191610e2c565b820191906000526020600020905b815481529060010190602001808311610e0f57829003601f168201915b50505050509050919050565b610e40611aba565b600073ffffffffffffffffffffffffffffffffffffffff168173ffffffffffffffffffffffffffffffffffffffff1603610ea6576040517f8579befe00000000000000000000000000000000000000000000000000000000815260040160405180910390fd5b6000600460009054906101000a900473ffffffffffffffffffffffffffffffffffffffff16905081600460006101000a81548173ffffffffffffffffffffffffffffffffffffffff021916908373ffffffffffffffffffffffffffffffffffffffff1602179055507f02dc5c233404867c793b749c6d644beb2277536d18a7e7974d3f238e4c6f16848183604051610f3f92919061389c565b60405180910390a15050565b60606000610f596005611f13565b90506000815167ffffffffffffffff811115610f7857610f77613271565b5b604051908082528060200260200182016040528015610fa65781602001602082028036833780820191505090505b50905060005b825181101561101057828181518110610fc857610fc76138c5565b5b6020026020010151828281518110610fe357610fe26138c5565b5b602002602001019067ffffffffffffffff16908167ffffffffffffffff1681525050806001019050610fac565b50809250505090565b611021612877565b61117d600760008467ffffffffffffffff1667ffffffffffffffff1681526020019081526020016000206000016040518060a00160405290816000820160009054906101000a90046fffffffffffffffffffffffffffffffff166fffffffffffffffffffffffffffffffff166fffffffffffffffffffffffffffffffff1681526020016000820160109054906101000a900463ffffffff1663ffffffff1663ffffffff1681526020016000820160149054906101000a900460ff161515151581526020016001820160009054906101000a90046fffffffffffffffffffffffffffffffff166fffffffffffffffffffffffffffffffff166fffffffffffffffffffffffffffffffff1681526020016001820160109054906101000a90046fffffffffffffffffffffffffffffffff166fffffffffffffffffffffffffffffffff166fffffffffffffffffffffffffffffffff1681525050611e59565b9050919050565b61118c611aba565b611197838383611f34565b505050565b6111a4611aba565b60005b828290508110156118f95760008383838181106111c7576111c66138c5565b5b90506020028101906111d991906138f9565b6111e290613aa1565b90506111f7816080015182602001511561204c565b61120a8160a0015182602001511561204c565b8060200151156116c657611236816000015167ffffffffffffffff1660056121aa90919063ffffffff16565b61127b5780600001516040517f1d5ad3c50000000000000000000000000000000000000000000000000000000081526004016112729190613512565b60405180910390fd5b6000816040015151148061129457506000816060015151145b156112cb576040517f8579befe00000000000000000000000000000000000000000000000000000000815260040160405180910390fd5b60405180608001604052806040518060a001604052808460800151602001516fffffffffffffffffffffffffffffffff1681526020014263ffffffff168152602001846080015160000151151581526020018460800151602001516fffffffffffffffffffffffffffffffff1681526020018460800151604001516fffffffffffffffffffffffffffffffff1681525081526020016040518060a001604052808460a00151602001516fffffffffffffffffffffffffffffffff1681526020014263ffffffff1681526020018460a0015160000151151581526020018460a00151602001516fffffffffffffffffffffffffffffffff1681526020018460a00151604001516fffffffffffffffffffffffffffffffff16815250815260200182604001518152602001826060015181525060076000836000015167ffffffffffffffff1667ffffffffffffffff16815260200190815260200160002060008201518160000160008201518160000160006101000a8154816fffffffffffffffffffffffffffffffff02191690836fffffffffffffffffffffffffffffffff16021790555060208201518160000160106101000a81548163ffffffff021916908363ffffffff16021790555060408201518160000160146101000a81548160ff02191690831515021790555060608201518160010160006101000a8154816fffffffffffffffffffffffffffffffff02191690836fffffffffffffffffffffffffffffffff16021790555060808201518160010160106101000a8154816fffffffffffffffffffffffffffffffff02191690836fffffffffffffffffffffffffffffffff160217905550505060208201518160020160008201518160000160006101000a8154816fffffffffffffffffffffffffffffffff02191690836fffffffffffffffffffffffffffffffff16021790555060208201518160000160106101000a81548163ffffffff021916908363ffffffff16021790555060408201518160000160146101000a81548160ff02191690831515021790555060608201518160010160006101000a8154816fffffffffffffffffffffffffffffffff02191690836fffffffffffffffffffffffffffffffff16021790555060808201518160010160106101000a8154816fffffffffffffffffffffffffffffffff02191690836fffffffffffffffffffffffffffffffff1602179055505050604082015181600401908161165a9190613ab4565b5060608201518160050190816116709190613ab4565b509050507f8d340f17e19058004c20453540862a9c62778504476f6756755cb33bcd6c38c28160000151826060015183608001518460a001516040516116b99493929190613bc8565b60405180910390a16118ed565b6116e8816000015167ffffffffffffffff1660056121c490919063ffffffff16565b61172d5780600001516040517f1e670e4b0000000000000000000000000000000000000000000000000000000081526004016117249190613512565b60405180910390fd5b60076000826000015167ffffffffffffffff1667ffffffffffffffff1681526020019081526020016000206000808201600080820160006101000a8154906fffffffffffffffffffffffffffffffff02191690556000820160106101000a81549063ffffffff02191690556000820160146101000a81549060ff02191690556001820160006101000a8154906fffffffffffffffffffffffffffffffff02191690556001820160106101000a8154906fffffffffffffffffffffffffffffffff0219169055505060028201600080820160006101000a8154906fffffffffffffffffffffffffffffffff02191690556000820160106101000a81549063ffffffff02191690556000820160146101000a81549060ff02191690556001820160006101000a8154906fffffffffffffffffffffffffffffffff02191690556001820160106101000a8154906fffffffffffffffffffffffffffffffff0219169055505060048201600061189f91906128e4565b6005820160006118af91906128e4565b50507f5204aec90a3c794d8e90fded8b46ae9c7c552803e7e832e0c1d358396d85991681600001516040516118e49190613512565b60405180910390a15b508060010190506111a7565b505050565b60007f0000000000000000000000000000000000000000000000000000000000000000905090565b60007f0000000000000000000000000000000000000000000000000000000000000000905090565b611956611aba565b61195f816121de565b50565b61196b81610b2d565b6119ac57806040517fa9902c7e0000000000000000000000000000000000000000000000000000000081526004016119a39190613512565b60405180910390fd5b600460009054906101000a900473ffffffffffffffffffffffffffffffffffffffff1673ffffffffffffffffffffffffffffffffffffffff1663a8d87a3b826040518263ffffffff1660e01b8152600401611a079190613512565b602060405180830381865afa158015611a24573d6000803e3d6000fd5b505050506040513d601f19601f82011682018060405250810190611a489190613c2a565b73ffffffffffffffffffffffffffffffffffffffff163373ffffffffffffffffffffffffffffffffffffffff1614611ab757336040517f728fe07b000000000000000000000000000000000000000000000000000000008152600401611aae9190612e9d565b60405180910390fd5b50565b60008054906101000a900473ffffffffffffffffffffffffffffffffffffffff1673ffffffffffffffffffffffffffffffffffffffff163373ffffffffffffffffffffffffffffffffffffffff1614611b48576040517f08c379a0000000000000000000000000000000000000000000000000000000008152600401611b3f90613ca3565b60405180910390fd5b565b7f0000000000000000000000000000000000000000000000000000000000000000611ba1576040517f35f4a7b300000000000000000000000000000000000000000000000000000000815260040160405180910390fd5b60005b8251811015611c29576000838281518110611bc257611bc16138c5565b5b60200260200101519050611be081600261230a90919063ffffffff16565b15611c1d577f800671136ab6cfee9fbe5ed1fb7ca417811aca3cf864800d127b927adedf756681604051611c149190612e9d565b60405180910390a15b50806001019050611ba4565b5060005b8151811015611ced576000828281518110611c4b57611c4a6138c5565b5b60200260200101519050600073ffffffffffffffffffffffffffffffffffffffff168173ffffffffffffffffffffffffffffffffffffffff1603611c8f5750611ce2565b611ca381600261233a90919063ffffffff16565b15611ce0577f2640d4d76caf8bf478aabfa982fa4e1c4eb71a37f93cd15e80dbc657911546d881604051611cd79190612e9d565b60405180910390a15b505b806001019050611c2d565b505050565b6000611d04836000018360001b61236a565b905092915050565b611d1581610b2d565b611d5657806040517fa9902c7e000000000000000000000000000000000000000000000000000000008152600401611d4d9190613512565b60405180910390fd5b600460009054906101000a900473ffffffffffffffffffffffffffffffffffffffff1673ffffffffffffffffffffffffffffffffffffffff166383826b2b82336040518363ffffffff1660e01b8152600401611db3929190613cc3565b602060405180830381865afa158015611dd0573d6000803e3d6000fd5b505050506040513d601f19601f82011682018060405250810190611df49190613d01565b611e3557336040517f728fe07b000000000000000000000000000000000000000000000000000000008152600401611e2c9190612e9d565b60405180910390fd5b50565b60606000611e488360000161238d565b905060608190508092505050919050565b611e61612877565b611ec482606001516fffffffffffffffffffffffffffffffff1683600001516fffffffffffffffffffffffffffffffff16846020015163ffffffff1642611ea89190613d5d565b85608001516fffffffffffffffffffffffffffffffff166123e9565b82600001906fffffffffffffffffffffffffffffffff1690816fffffffffffffffffffffffffffffffff168152505042826020019063ffffffff16908163ffffffff1681525050819050919050565b60606000611f238360000161238d565b905060608190508092505050919050565b611f3d83610b2d565b611f7e57826040517f1e670e4b000000000000000000000000000000000000000000000000000000008152600401611f759190613512565b60405180910390fd5b611f8982600061204c565b611fc582600760008667ffffffffffffffff1667ffffffffffffffff16815260200190815260200160002060000161241590919063ffffffff16565b611fd081600061204c565b61200c81600760008667ffffffffffffffff1667ffffffffffffffff16815260200190815260200160002060020161241590919063ffffffff16565b7f0350d63aa5f270e01729d00d627eeb8f3429772b1818c016c66a588a864f912b83838360405161203f93929190613d91565b60405180910390a1505050565b8160000151156121265781602001516fffffffffffffffffffffffffffffffff1682604001516fffffffffffffffffffffffffffffffff161015806120a75750600082604001516fffffffffffffffffffffffffffffffff16145b156120e957816040517f8020d1240000000000000000000000000000000000000000000000000000000081526004016120e09190613dc8565b60405180910390fd5b8015612121576040517f433fc33d00000000000000000000000000000000000000000000000000000000815260040160405180910390fd5b6121a6565b600082604001516fffffffffffffffffffffffffffffffff161415806121635750600082602001516fffffffffffffffffffffffffffffffff1614155b156121a557816040517fd68af9cc00000000000000000000000000000000000000000000000000000000815260040161219c9190613dc8565b60405180910390fd5b5b5050565b60006121bc836000018360001b6126ad565b905092915050565b60006121d6836000018360001b61271d565b905092915050565b3373ffffffffffffffffffffffffffffffffffffffff168173ffffffffffffffffffffffffffffffffffffffff160361224c576040517f08c379a000000000000000000000000000000000000000000000000000000000815260040161224390613e2f565b60405180910390fd5b80600160006101000a81548173ffffffffffffffffffffffffffffffffffffffff021916908373ffffffffffffffffffffffffffffffffffffffff1602179055508073ffffffffffffffffffffffffffffffffffffffff1660008054906101000a900473ffffffffffffffffffffffffffffffffffffffff1673ffffffffffffffffffffffffffffffffffffffff167fed8889f560326eb138920d842192f0eb3dd22b4f139c87a2c57538e05bae127860405160405180910390a350565b6000612332836000018373ffffffffffffffffffffffffffffffffffffffff1660001b61271d565b905092915050565b6000612362836000018373ffffffffffffffffffffffffffffffffffffffff1660001b6126ad565b905092915050565b600080836001016000848152602001908152602001600020541415905092915050565b6060816000018054806020026020016040519081016040528092919081815260200182805480156123dd57602002820191906000526020600020905b8154815260200190600101908083116123c9575b50505050509050919050565b600061240b8583856123fb9190613e4f565b866124069190613e91565b612831565b9050949350505050565b60008260000160109054906101000a900463ffffffff1663ffffffff164261243d9190613d5d565b905060008114612547576124e98360010160009054906101000a90046fffffffffffffffffffffffffffffffff166fffffffffffffffffffffffffffffffff168460000160009054906101000a90046fffffffffffffffffffffffffffffffff166fffffffffffffffffffffffffffffffff16838660010160109054906101000a90046fffffffffffffffffffffffffffffffff166fffffffffffffffffffffffffffffffff166123e9565b8360000160006101000a8154816fffffffffffffffffffffffffffffffff02191690836fffffffffffffffffffffffffffffffff160217905550428360000160106101000a81548163ffffffff021916908363ffffffff1602179055505b61259982602001516fffffffffffffffffffffffffffffffff168460000160009054906101000a90046fffffffffffffffffffffffffffffffff166fffffffffffffffffffffffffffffffff16612831565b8360000160006101000a8154816fffffffffffffffffffffffffffffffff02191690836fffffffffffffffffffffffffffffffff16021790555081600001518360000160146101000a81548160ff02191690831515021790555081602001518360010160006101000a8154816fffffffffffffffffffffffffffffffff02191690836fffffffffffffffffffffffffffffffff16021790555081604001518360010160106101000a8154816fffffffffffffffffffffffffffffffff02191690836fffffffffffffffffffffffffffffffff1602179055507f9ea3374b67bf275e6bb9c8ae68f9cae023e1c528b4b27e092f0bb209d3531c19826040516126a09190613dc8565b60405180910390a1505050565b60006126b9838361236a565b612712578260000182908060018154018082558091505060019003906000526020600020016000909190919091505582600001805490508360010160008481526020019081526020016000208190555060019050612717565b600090505b92915050565b6000808360010160008481526020019081526020016000205490506000811461282557600060018261274f9190613d5d565b90506000600186600001805490506127679190613d5d565b90508181146127d6576000866000018281548110612788576127876138c5565b5b90600052602060002001549050808760000184815481106127ac576127ab6138c5565b5b90600052602060002001819055508387600101600083815260200190815260200160002081905550505b856000018054806127ea576127e9613ec5565b5b60019003818190600052602060002001600090559055856001016000868152602001908152602001600020600090556001935050505061282b565b60009150505b92915050565b60008183106128405781612842565b825b905092915050565b6040518060200160405280600081525090565b604051806040016040528060608152602001606081525090565b6040518060a0016040528060006fffffffffffffffffffffffffffffffff168152602001600063ffffffff16815260200160001515815260200160006fffffffffffffffffffffffffffffffff16815260200160006fffffffffffffffffffffffffffffffff1681525090565b5080546128f0906134d2565b6000825580601f106129025750612921565b601f0160209004906000526020600020908101906129209190612924565b5b50565b5b8082111561293d576000816000905550600101612925565b5090565b6000604051905090565b600080fd5b600080fd5b60007fffffffff0000000000000000000000000000000000000000000000000000000082169050919050565b61298a81612955565b811461299557600080fd5b50565b6000813590506129a781612981565b92915050565b6000602082840312156129c3576129c261294b565b5b60006129d184828501612998565b91505092915050565b60008115159050919050565b6129ef816129da565b82525050565b6000602082019050612a0a60008301846129e6565b92915050565b600067ffffffffffffffff82169050919050565b612a2d81612a10565b8114612a3857600080fd5b50565b600081359050612a4a81612a24565b92915050565b600060208284031215612a6657612a6561294b565b5b6000612a7484828501612a3b565b91505092915050565b600081519050919050565b600082825260208201905092915050565b60005b83811015612ab7578082015181840152602081019050612a9c565b60008484015250505050565b6000601f19601f8301169050919050565b6000612adf82612a7d565b612ae98185612a88565b9350612af9818560208601612a99565b612b0281612ac3565b840191505092915050565b60006020820190508181036000830152612b278184612ad4565b905092915050565b600073ffffffffffffffffffffffffffffffffffffffff82169050919050565b6000819050919050565b6000612b74612b6f612b6a84612b2f565b612b4f565b612b2f565b9050919050565b6000612b8682612b59565b9050919050565b6000612b9882612b7b565b9050919050565b612ba881612b8d565b82525050565b6000602082019050612bc36000830184612b9f565b92915050565b6000612bd482612b2f565b9050919050565b612be481612bc9565b8114612bef57600080fd5b50565b600081359050612c0181612bdb565b92915050565b600060208284031215612c1d57612c1c61294b565b5b6000612c2b84828501612bf2565b91505092915050565b600080fd5b60006101008284031215612c5057612c4f612c34565b5b81905092915050565b600060208284031215612c6f57612c6e61294b565b5b600082013567ffffffffffffffff811115612c8d57612c8c612950565b5b612c9984828501612c39565b91505092915050565b6000819050919050565b612cb581612ca2565b82525050565b602082016000820151612cd16000850182612cac565b50505050565b6000602082019050612cec6000830184612cbb565b92915050565b600080fd5b600080fd5b600080fd5b60008083601f840112612d1757612d16612cf2565b5b8235905067ffffffffffffffff811115612d3457612d33612cf7565b5b602083019150836020820283011115612d5057612d4f612cfc565b5b9250929050565b60008060008060408587031215612d7157612d7061294b565b5b600085013567ffffffffffffffff811115612d8f57612d8e612950565b5b612d9b87828801612d01565b9450945050602085013567ffffffffffffffff811115612dbe57612dbd612950565b5b612dca87828801612d01565b925092505092959194509250565b60008083601f840112612dee57612ded612cf2565b5b8235905067ffffffffffffffff811115612e0b57612e0a612cf7565b5b602083019150836001820283011115612e2757612e26612cfc565b5b9250929050565b600080600060408486031215612e4757612e4661294b565b5b6000612e5586828701612a3b565b935050602084013567ffffffffffffffff811115612e7657612e75612950565b5b612e8286828701612dd8565b92509250509250925092565b612e9781612bc9565b82525050565b6000602082019050612eb26000830184612e8e565b92915050565b600060a08284031215612ece57612ecd612c34565b5b81905092915050565b600060208284031215612eed57612eec61294b565b5b600082013567ffffffffffffffff811115612f0b57612f0a612950565b5b612f1784828501612eb8565b91505092915050565b600082825260208201905092915050565b6000612f3c82612a7d565b612f468185612f20565b9350612f56818560208601612a99565b612f5f81612ac3565b840191505092915050565b60006040830160008301518482036000860152612f878282612f31565b91505060208301518482036020860152612fa18282612f31565b9150508091505092915050565b60006020820190508181036000830152612fc88184612f6a565b905092915050565b600081519050919050565b600082825260208201905092915050565b6000819050602082019050919050565b61300581612bc9565b82525050565b60006130178383612ffc565b60208301905092915050565b6000602082019050919050565b600061303b82612fd0565b6130458185612fdb565b935061305083612fec565b8060005b83811015613081578151613068888261300b565b975061307383613023565b925050600181019050613054565b5085935050505092915050565b600060208201905081810360008301526130a88184613030565b905092915050565b60006fffffffffffffffffffffffffffffffff82169050919050565b6130d5816130b0565b82525050565b600063ffffffff82169050919050565b6130f4816130db565b82525050565b613103816129da565b82525050565b60a08201600082015161311f60008501826130cc565b50602082015161313260208501826130eb565b50604082015161314560408501826130fa565b50606082015161315860608501826130cc565b50608082015161316b60808501826130cc565b50505050565b600060a0820190506131866000830184613109565b92915050565b600081519050919050565b600082825260208201905092915050565b6000819050602082019050919050565b6131c181612a10565b82525050565b60006131d383836131b8565b60208301905092915050565b6000602082019050919050565b60006131f78261318c565b6132018185613197565b935061320c836131a8565b8060005b8381101561323d57815161322488826131c7565b975061322f836131df565b925050600181019050613210565b5085935050505092915050565b6000602082019050818103600083015261326481846131ec565b905092915050565b600080fd5b7f4e487b7100000000000000000000000000000000000000000000000000000000600052604160045260246000fd5b6132a982612ac3565b810181811067ffffffffffffffff821117156132c8576132c7613271565b5b80604052505050565b60006132db612941565b90506132e782826132a0565b919050565b600080fd5b6132fa816129da565b811461330557600080fd5b50565b600081359050613317816132f1565b92915050565b613326816130b0565b811461333157600080fd5b50565b6000813590506133438161331d565b92915050565b60006060828403121561335f5761335e61326c565b5b61336960606132d1565b9050600061337984828501613308565b600083015250602061338d84828501613334565b60208301525060406133a184828501613334565b60408301525092915050565b600080600060e084860312156133c6576133c561294b565b5b60006133d486828701612a3b565b93505060206133e586828701613349565b92505060806133f686828701613349565b9150509250925092565b60008083601f84011261341657613415612cf2565b5b8235905067ffffffffffffffff81111561343357613432612cf7565b5b60208301915083602082028301111561344f5761344e612cfc565b5b9250929050565b6000806020838503121561346d5761346c61294b565b5b600083013567ffffffffffffffff81111561348b5761348a612950565b5b61349785828601613400565b92509250509250929050565b7f4e487b7100000000000000000000000000000000000000000000000000000000600052602260045260246000fd5b600060028204905060018216806134ea57607f821691505b6020821081036134fd576134fc6134a3565b5b50919050565b61350c81612a10565b82525050565b60006020820190506135276000830184613503565b92915050565b600082905092915050565b60008190508160005260206000209050919050565b60006020601f8301049050919050565b600082821b905092915050565b60006008830261359a7fffffffffffffffffffffffffffffffffffffffffffffffffffffffffffffffff8261355d565b6135a4868361355d565b95508019841693508086168417925050509392505050565b60006135d76135d26135cd84612ca2565b612b4f565b612ca2565b9050919050565b6000819050919050565b6135f1836135bc565b6136056135fd826135de565b84845461356a565b825550505050565b600090565b61361a61360d565b6136258184846135e8565b505050565b5b818110156136495761363e600082613612565b60018101905061362b565b5050565b601f82111561368e5761365f81613538565b6136688461354d565b81016020851015613677578190505b61368b6136838561354d565b83018261362a565b50505b505050565b600082821c905092915050565b60006136b160001984600802613693565b1980831691505092915050565b60006136ca83836136a0565b9150826002028217905092915050565b6136e4838361352d565b67ffffffffffffffff8111156136fd576136fc613271565b5b61370782546134d2565b61371282828561364d565b6000601f831160018114613741576000841561372f578287013590505b61373985826136be565b8655506137a1565b601f19841661374f86613538565b60005b8281101561377757848901358255600182019150602085019450602081019050613752565b868310156137945784890135613790601f8916826136a0565b8355505b6001600288020188555050505b50505050505050565b82818337600083830152505050565b60006137c58385612a88565b93506137d28385846137aa565b6137db83612ac3565b840190509392505050565b600060408201905081810360008301526138008186612ad4565b905081810360208301526138158184866137b9565b9050949350505050565b600082825260208201905092915050565b7f4d7573742062652070726f706f736564206f776e657200000000000000000000600082015250565b600061386660168361381f565b915061387182613830565b602082019050919050565b6000602082019050818103600083015261389581613859565b9050919050565b60006040820190506138b16000830185612e8e565b6138be6020830184612e8e565b9392505050565b7f4e487b7100000000000000000000000000000000000000000000000000000000600052603260045260246000fd5b600080fd5b60008235600161014003833603038112613916576139156138f4565b5b80830191505092915050565b600080fd5b600067ffffffffffffffff82111561394257613941613271565b5b61394b82612ac3565b9050602081019050919050565b600061396b61396684613927565b6132d1565b90508281526020810184848401111561398757613986613922565b5b6139928482856137aa565b509392505050565b600082601f8301126139af576139ae612cf2565b5b81356139bf848260208601613958565b91505092915050565b600061014082840312156139df576139de61326c565b5b6139e960c06132d1565b905060006139f984828501612a3b565b6000830152506020613a0d84828501613308565b602083015250604082013567ffffffffffffffff811115613a3157613a306132ec565b5b613a3d8482850161399a565b604083015250606082013567ffffffffffffffff811115613a6157613a606132ec565b5b613a6d8482850161399a565b6060830152506080613a8184828501613349565b60808301525060e0613a9584828501613349565b60a08301525092915050565b6000613aad36836139c8565b9050919050565b613abd82612a7d565b67ffffffffffffffff811115613ad657613ad5613271565b5b613ae082546134d2565b613aeb82828561364d565b600060209050601f831160018114613b1e5760008415613b0c578287015190505b613b1685826136be565b865550613b7e565b601f198416613b2c86613538565b60005b82811015613b5457848901518255600182019150602085019450602081019050613b2f565b86831015613b715784890151613b6d601f8916826136a0565b8355505b6001600288020188555050505b505050505050565b606082016000820151613b9c60008501826130fa565b506020820151613baf60208501826130cc565b506040820151613bc260408501826130cc565b50505050565b600061010082019050613bde6000830187613503565b8181036020830152613bf08186612ad4565b9050613bff6040830185613b86565b613c0c60a0830184613b86565b95945050505050565b600081519050613c2481612bdb565b92915050565b600060208284031215613c4057613c3f61294b565b5b6000613c4e84828501613c15565b91505092915050565b7f4f6e6c792063616c6c61626c65206279206f776e657200000000000000000000600082015250565b6000613c8d60168361381f565b9150613c9882613c57565b602082019050919050565b60006020820190508181036000830152613cbc81613c80565b9050919050565b6000604082019050613cd86000830185613503565b613ce56020830184612e8e565b9392505050565b600081519050613cfb816132f1565b92915050565b600060208284031215613d1757613d1661294b565b5b6000613d2584828501613cec565b91505092915050565b7f4e487b7100000000000000000000000000000000000000000000000000000000600052601160045260246000fd5b6000613d6882612ca2565b9150613d7383612ca2565b9250828203905081811115613d8b57613d8a613d2e565b5b92915050565b600060e082019050613da66000830186613503565b613db36020830185613b86565b613dc06080830184613b86565b949350505050565b6000606082019050613ddd6000830184613b86565b92915050565b7f43616e6e6f74207472616e7366657220746f2073656c66000000000000000000600082015250565b6000613e1960178361381f565b9150613e2482613de3565b602082019050919050565b60006020820190508181036000830152613e4881613e0c565b9050919050565b6000613e5a82612ca2565b9150613e6583612ca2565b9250828202613e7381612ca2565b91508282048414831517613e8a57613e89613d2e565b5b5092915050565b6000613e9c82612ca2565b9150613ea783612ca2565b9250828201905080821115613ebf57613ebe613d2e565b5b92915050565b7f4e487b7100000000000000000000000000000000000000000000000000000000600052603160045260246000fdfea164736f6c6343000818000a","linkReferences":{}},"methodIdentifiers":{"acceptOwnership()":"79ba5097","applyAllowListUpdates(address[],address[])":"54c8a4f3","applyChainUpdates((uint64,bool,bytes,bytes,(bool,uint128,uint128),(bool,uint128,uint128))[])":"db6327dc","getAllowList()":"a7cd63b7","getAllowListEnabled()":"e0351e13","getCurrentInboundRateLimiterState(uint64)":"af58d59f","getCurrentOutboundRateLimiterState(uint64)":"c75eea9c","getRemotePool(uint64)":"0a2fd493","getRemoteToken(uint64)":"b7946580","getRmnProxy()":"dc0bd971","getRouter()":"b0f479a1","getSupportedChains()":"c4bffe2b","getToken()":"21df0da7","isSupportedChain(uint64)":"8926f54f","isSupportedToken(address)":"240028e8","lockOrBurn((bytes,uint64,address,uint256,address))":"9a4575b9","onlyOffRampModifier(uint64)":"92db166c","onlyOnRampModifier(uint64)":"5082390f","owner()":"8da5cb5b","releaseOrMint((bytes,uint64,address,uint256,address,bytes,bytes,bytes))":"39077537","setChainRateLimiterConfig(uint64,(bool,uint128,uint128),(bool,uint128,uint128))":"cf7401f3","setRemotePool(uint64,bytes)":"78a010b2","setRouter(address)":"c0d78655","supportsInterface(bytes4)":"01ffc9a7","transferOwnership(address)":"f2fde38b"},"id":95}