{"abi":[{"type":"constructor","inputs":[{"name":"toRevert","type":"bool","internalType":"bool"}],"stateMutability":"nonpayable"},{"type":"receive","stateMutability":"payable"},{"type":"function","name":"ccipReceive","inputs":[{"name":"","type":"tuple","internalType":"struct Client.Any2EVMMessage","components":[{"name":"messageId","type":"bytes32","internalType":"bytes32"},{"name":"sourceChainSelector","type":"uint64","internalType":"uint64"},{"name":"sender","type":"bytes","internalType":"bytes"},{"name":"data","type":"bytes","internalType":"bytes"},{"name":"destTokenAmounts","type":"tuple[]","internalType":"struct Client.EVMTokenAmount[]","components":[{"name":"token","type":"address","internalType":"address"},{"name":"amount","type":"uint256","internalType":"uint256"}]}]}],"outputs":[],"stateMutability":"nonpayable"},{"type":"function","name":"s_toRevert","inputs":[],"outputs":[{"name":"","type":"bool","internalType":"bool"}],"stateMutability":"view"},{"type":"function","name":"setErr","inputs":[{"name":"err","type":"bytes","internalType":"bytes"}],"outputs":[],"stateMutability":"nonpayable"},{"type":"function","name":"setRevert","inputs":[{"name":"toRevert","type":"bool","internalType":"bool"}],"outputs":[],"stateMutability":"nonpayable"},{"type":"function","name":"supportsInterface","inputs":[{"name":"interfaceId","type":"bytes4","internalType":"bytes4"}],"outputs":[{"name":"","type":"bool","internalType":"bool"}],"stateMutability":"pure"},{"type":"event","name":"MessageReceived","inputs":[],"anonymous":false},{"type":"event","name":"ValueReceived","inputs":[{"name":"amount","type":"uint256","indexed":false,"internalType":"uint256"}],"anonymous":false},{"type":"error","name":"CustomError","inputs":[{"name":"err","type":"bytes","internalType":"bytes"}]},{"type":"error","name":"ReceiveRevert","inputs":[]}],"bytecode":{"object":"0x608060405234801561001057600080fd5b50604051610b62380380610b62833981810160405281019061003291906100cf565b336000806101000a81548173ffffffffffffffffffffffffffffffffffffffff021916908373ffffffffffffffffffffffffffffffffffffffff16021790555080600060146101000a81548160ff021916908315150217905550506100fc565b600080fd5b60008115159050919050565b6100ac81610097565b81146100b757600080fd5b50565b6000815190506100c9816100a3565b92915050565b6000602082840312156100e5576100e4610092565b5b60006100f3848285016100ba565b91505092915050565b610a578061010b6000396000f3fe60806040526004361061004e5760003560e01c806301ffc9a7146100d85780635100fc211461011557806377f5b0e61461014057806385572ffb146101695780638fb5f17114610192576100d3565b366100d357600060149054906101000a900460ff161561009a576040517f3085b8db00000000000000000000000000000000000000000000000000000000815260040160405180910390fd5b7fe12e3b7047ff60a2dd763cf536a43597e5ce7fe7aa7476345bd4cd079912bcef346040516100c9919061036b565b60405180910390a1005b600080fd5b3480156100e457600080fd5b506100ff60048036038101906100fa91906103f2565b6101bb565b60405161010c919061043a565b60405180910390f35b34801561012157600080fd5b5061012a61028d565b604051610137919061043a565b60405180910390f35b34801561014c57600080fd5b506101676004803603810190610162919061059b565b6102a0565b005b34801561017557600080fd5b50610190600480360381019061018b9190610608565b6102b3565b005b34801561019e57600080fd5b506101b960048036038101906101b4919061067d565b610335565b005b60007f85572ffb000000000000000000000000000000000000000000000000000000007bffffffffffffffffffffffffffffffffffffffffffffffffffffffff1916827bffffffffffffffffffffffffffffffffffffffffffffffffffffffff1916148061028657507f01ffc9a7000000000000000000000000000000000000000000000000000000007bffffffffffffffffffffffffffffffffffffffffffffffffffffffff1916827bffffffffffffffffffffffffffffffffffffffffffffffffffffffff1916145b9050919050565b600060149054906101000a900460ff1681565b80600190816102af91906108c1565b5050565b600060149054906101000a900460ff16156103065760016040517f5a4ff6710000000000000000000000000000000000000000000000000000000081526004016102fd9190610a28565b60405180910390fd5b7fd82ce31e3523f6eeb2d24317b2b4133001e8472729657f663b68624c45f8f3e860405160405180910390a150565b80600060146101000a81548160ff02191690831515021790555050565b6000819050919050565b61036581610352565b82525050565b6000602082019050610380600083018461035c565b92915050565b6000604051905090565b600080fd5b600080fd5b60007fffffffff0000000000000000000000000000000000000000000000000000000082169050919050565b6103cf8161039a565b81146103da57600080fd5b50565b6000813590506103ec816103c6565b92915050565b60006020828403121561040857610407610390565b5b6000610416848285016103dd565b91505092915050565b60008115159050919050565b6104348161041f565b82525050565b600060208201905061044f600083018461042b565b92915050565b600080fd5b600080fd5b6000601f19601f8301169050919050565b7f4e487b7100000000000000000000000000000000000000000000000000000000600052604160045260246000fd5b6104a88261045f565b810181811067ffffffffffffffff821117156104c7576104c6610470565b5b80604052505050565b60006104da610386565b90506104e6828261049f565b919050565b600067ffffffffffffffff82111561050657610505610470565b5b61050f8261045f565b9050602081019050919050565b82818337600083830152505050565b600061053e610539846104eb565b6104d0565b90508281526020810184848401111561055a5761055961045a565b5b61056584828561051c565b509392505050565b600082601f83011261058257610581610455565b5b813561059284826020860161052b565b91505092915050565b6000602082840312156105b1576105b0610390565b5b600082013567ffffffffffffffff8111156105cf576105ce610395565b5b6105db8482850161056d565b91505092915050565b600080fd5b600060a082840312156105ff576105fe6105e4565b5b81905092915050565b60006020828403121561061e5761061d610390565b5b600082013567ffffffffffffffff81111561063c5761063b610395565b5b610648848285016105e9565b91505092915050565b61065a8161041f565b811461066557600080fd5b50565b60008135905061067781610651565b92915050565b60006020828403121561069357610692610390565b5b60006106a184828501610668565b91505092915050565b600081519050919050565b7f4e487b7100000000000000000000000000000000000000000000000000000000600052602260045260246000fd5b600060028204905060018216806106fc57607f821691505b60208210810361070f5761070e6106b5565b5b50919050565b60008190508160005260206000209050919050565b60006020601f8301049050919050565b600082821b905092915050565b6000600883026107777fffffffffffffffffffffffffffffffffffffffffffffffffffffffffffffffff8261073a565b610781868361073a565b95508019841693508086168417925050509392505050565b6000819050919050565b60006107be6107b96107b484610352565b610799565b610352565b9050919050565b6000819050919050565b6107d8836107a3565b6107ec6107e4826107c5565b848454610747565b825550505050565b600090565b6108016107f4565b61080c8184846107cf565b505050565b5b81811015610830576108256000826107f9565b600181019050610812565b5050565b601f8211156108755761084681610715565b61084f8461072a565b8101602085101561085e578190505b61087261086a8561072a565b830182610811565b50505b505050565b600082821c905092915050565b60006108986000198460080261087a565b1980831691505092915050565b60006108b18383610887565b9150826002028217905092915050565b6108ca826106aa565b67ffffffffffffffff8111156108e3576108e2610470565b5b6108ed82546106e4565b6108f8828285610834565b600060209050601f83116001811461092b5760008415610919578287015190505b61092385826108a5565b86555061098b565b601f19841661093986610715565b60005b828110156109615784890151825560018201915060208501945060208101905061093c565b8683101561097e578489015161097a601f891682610887565b8355505b6001600288020188555050505b505050505050565b600082825260208201905092915050565b600081546109b1816106e4565b6109bb8186610993565b945060018216600081146109d657600181146109ec57610a1f565b60ff198316865281151560200286019350610a1f565b6109f585610715565b60005b83811015610a17578154818901526001820191506020810190506109f8565b808801955050505b50505092915050565b60006020820190508181036000830152610a4281846109a4565b90509291505056fea164736f6c6343000818000a","linkReferences":{}},"methodIdentifiers":{"ccipReceive((bytes32,uint64,bytes,bytes,(address,uint256)[]))":"85572ffb","s_toRevert()":"5100fc21","setErr(bytes)":"77f5b0e6","setRevert(bool)":"8fb5f171","supportsInterface(bytes4)":"01ffc9a7"},"id":98}