{"abi":[{"type":"constructor","inputs":[{"name":"toRevert","type":"bool","internalType":"bool"}],"stateMutability":"nonpayable"},{"type":"function","name":"ccipReceive","inputs":[{"name":"","type":"tuple","internalType":"struct Client.Any2EVMMessage","components":[{"name":"messageId","type":"bytes32","internalType":"bytes32"},{"name":"sourceChainSelector","type":"uint64","internalType":"uint64"},{"name":"sender","type":"bytes","internalType":"bytes"},{"name":"data","type":"bytes","internalType":"bytes"},{"name":"destTokenAmounts","type":"tuple[]","internalType":"struct Client.EVMTokenAmount[]","components":[{"name":"token","type":"address","internalType":"address"},{"name":"amount","type":"uint256","internalType":"uint256"}]}]}],"outputs":[],"stateMutability":"nonpayable"},{"type":"function","name":"s_toRevert","inputs":[],"outputs":[{"name":"","type":"bool","internalType":"bool"}],"stateMutability":"view"},{"type":"function","name":"setRevert","inputs":[{"name":"toRevert","type":"bool","internalType":"bool"}],"outputs":[],"stateMutability":"nonpayable"},{"type":"event","name":"MessageReceived","inputs":[],"anonymous":false}],"bytecode":{"object":"0x608060405234801561001057600080fd5b50604051610333380380610333833981810160405281019061003291906100cf565b336000806101000a81548173ffffffffffffffffffffffffffffffffffffffff021916908373ffffffffffffffffffffffffffffffffffffffff16021790555080600060146101000a81548160ff021916908315150217905550506100fc565b600080fd5b60008115159050919050565b6100ac81610097565b81146100b757600080fd5b50565b6000815190506100c9816100a3565b92915050565b6000602082840312156100e5576100e4610092565b5b60006100f3848285016100ba565b91505092915050565b6102288061010b6000396000f3fe608060405234801561001057600080fd5b50600436106100415760003560e01c80635100fc211461004657806385572ffb146100645780638fb5f17114610080575b600080fd5b61004e61009c565b60405161005b9190610130565b60405180910390f35b61007e60048036038101906100799190610179565b6100af565b005b61009a600480360381019061009591906101ee565b6100f8565b005b600060149054906101000a900460ff1681565b600060149054906101000a900460ff16156100c957600080fd5b7fd82ce31e3523f6eeb2d24317b2b4133001e8472729657f663b68624c45f8f3e860405160405180910390a150565b80600060146101000a81548160ff02191690831515021790555050565b60008115159050919050565b61012a81610115565b82525050565b60006020820190506101456000830184610121565b92915050565b600080fd5b600080fd5b600080fd5b600060a082840312156101705761016f610155565b5b81905092915050565b60006020828403121561018f5761018e61014b565b5b600082013567ffffffffffffffff8111156101ad576101ac610150565b5b6101b98482850161015a565b91505092915050565b6101cb81610115565b81146101d657600080fd5b50565b6000813590506101e8816101c2565b92915050565b6000602082840312156102045761020361014b565b5b6000610212848285016101d9565b9150509291505056fea164736f6c6343000818000a","linkReferences":{}},"methodIdentifiers":{"ccipReceive((bytes32,uint64,bytes,bytes,(address,uint256)[]))":"85572ffb","s_toRevert()":"5100fc21","setRevert(bool)":"8fb5f171"},"id":99}