{"abi":[{"type":"constructor","inputs":[{"name":"wrappedNative","type":"address","internalType":"address"},{"name":"armProxy","type":"address","internalType":"address"}],"stateMutability":"nonpayable"},{"type":"function","name":"MAX_RET_BYTES","inputs":[],"outputs":[{"name":"","type":"uint16","internalType":"uint16"}],"stateMutability":"view"},{"type":"function","name":"acceptOwnership","inputs":[],"outputs":[],"stateMutability":"nonpayable"},{"type":"function","name":"applyRampUpdates","inputs":[{"name":"onRampUpdates","type":"tuple[]","internalType":"struct Router.OnRamp[]","components":[{"name":"destChainSelector","type":"uint64","internalType":"uint64"},{"name":"onRamp","type":"address","internalType":"address"}]},{"name":"offRampRemoves","type":"tuple[]","internalType":"struct Router.OffRamp[]","components":[{"name":"sourceChainSelector","type":"uint64","internalType":"uint64"},{"name":"offRamp","type":"address","internalType":"address"}]},{"name":"offRampAdds","type":"tuple[]","internalType":"struct Router.OffRamp[]","components":[{"name":"sourceChainSelector","type":"uint64","internalType":"uint64"},{"name":"offRamp","type":"address","internalType":"address"}]}],"outputs":[],"stateMutability":"nonpayable"},{"type":"function","name":"ccipSend","inputs":[{"name":"destinationChainSelector","type":"uint64","internalType":"uint64"},{"name":"message","type":"tuple","internalType":"struct Client.EVM2AnyMessage","components":[{"name":"receiver","type":"bytes","internalType":"bytes"},{"name":"data","type":"bytes","internalType":"bytes"},{"name":"tokenAmounts","type":"tuple[]","internalType":"struct Client.EVMTokenAmount[]","components":[{"name":"token","type":"address","internalType":"address"},{"name":"amount","type":"uint256","internalType":"uint256"}]},{"name":"feeToken","type":"address","internalType":"address"},{"name":"extraArgs","type":"bytes","internalType":"bytes"}]}],"outputs":[{"name":"","type":"bytes32","internalType":"bytes32"}],"stateMutability":"payable"},{"type":"function","name":"getArmProxy","inputs":[],"outputs":[{"name":"","type":"address","internalType":"address"}],"stateMutability":"view"},{"type":"function","name":"getFee","inputs":[{"name":"destinationChainSelector","type":"uint64","internalType":"uint64"},{"name":"message","type":"tuple","internalType":"struct Client.EVM2AnyMessage","components":[{"name":"receiver","type":"bytes","internalType":"bytes"},{"name":"data","type":"bytes","internalType":"bytes"},{"name":"tokenAmounts","type":"tuple[]","internalType":"struct Client.EVMTokenAmount[]","components":[{"name":"token","type":"address","internalType":"address"},{"name":"amount","type":"uint256","internalType":"uint256"}]},{"name":"feeToken","type":"address","internalType":"address"},{"name":"extraArgs","type":"bytes","internalType":"bytes"}]}],"outputs":[{"name":"fee","type":"uint256","internalType":"uint256"}],"stateMutability":"view"},{"type":"function","name":"getOffRamps","inputs":[],"outputs":[{"name":"","type":"tuple[]","internalType":"struct Router.OffRamp[]","components":[{"name":"sourceChainSelector","type":"uint64","internalType":"uint64"},{"name":"offRamp","type":"address","internalType":"address"}]}],"stateMutability":"view"},{"type":"function","name":"getOnRamp","inputs":[{"name":"destChainSelector","type":"uint64","internalType":"uint64"}],"outputs":[{"name":"","type":"address","internalType":"address"}],"stateMutability":"view"},{"type":"function","name":"getSupportedTokens","inputs":[{"name":"chainSelector","type":"uint64","internalType":"uint64"}],"outputs":[{"name":"","type":"address[]","internalType":"address[]"}],"stateMutability":"view"},{"type":"function","name":"getWrappedNative","inputs":[],"outputs":[{"name":"","type":"address","internalType":"address"}],"stateMutability":"view"},{"type":"function","name":"isChainSupported","inputs":[{"name":"chainSelector","type":"uint64","internalType":"uint64"}],"outputs":[{"name":"","type":"bool","internalType":"bool"}],"stateMutability":"view"},{"type":"function","name":"isOffRamp","inputs":[{"name":"sourceChainSelector","type":"uint64","internalType":"uint64"},{"name":"offRamp","type":"address","internalType":"address"}],"outputs":[{"name":"","type":"bool","internalType":"bool"}],"stateMutability":"view"},{"type":"function","name":"owner","inputs":[],"outputs":[{"name":"","type":"address","internalType":"address"}],"stateMutability":"view"},{"type":"function","name":"recoverTokens","inputs":[{"name":"tokenAddress","type":"address","internalType":"address"},{"name":"to","type":"address","internalType":"address"},{"name":"amount","type":"uint256","internalType":"uint256"}],"outputs":[],"stateMutability":"nonpayable"},{"type":"function","name":"routeMessage","inputs":[{"name":"message","type":"tuple","internalType":"struct Client.Any2EVMMessage","components":[{"name":"messageId","type":"bytes32","internalType":"bytes32"},{"name":"sourceChainSelector","type":"uint64","internalType":"uint64"},{"name":"sender","type":"bytes","internalType":"bytes"},{"name":"data","type":"bytes","internalType":"bytes"},{"name":"destTokenAmounts","type":"tuple[]","internalType":"struct Client.EVMTokenAmount[]","components":[{"name":"token","type":"address","internalType":"address"},{"name":"amount","type":"uint256","internalType":"uint256"}]}]},{"name":"gasForCallExactCheck","type":"uint16","internalType":"uint16"},{"name":"gasLimit","type":"uint256","internalType":"uint256"},{"name":"receiver","type":"address","internalType":"address"}],"outputs":[{"name":"success","type":"bool","internalType":"bool"},{"name":"retData","type":"bytes","internalType":"bytes"},{"name":"gasUsed","type":"uint256","internalType":"uint256"}],"stateMutability":"nonpayable"},{"type":"function","name":"setWrappedNative","inputs":[{"name":"wrappedNative","type":"address","internalType":"address"}],"outputs":[],"stateMutability":"nonpayable"},{"type":"function","name":"transferOwnership","inputs":[{"name":"to","type":"address","internalType":"address"}],"outputs":[],"stateMutability":"nonpayable"},{"type":"function","name":"typeAndVersion","inputs":[],"outputs":[{"name":"","type":"string","internalType":"string"}],"stateMutability":"view"},{"type":"event","name":"MessageExecuted","inputs":[{"name":"messageId","type":"bytes32","indexed":false,"internalType":"bytes32"},{"name":"sourceChainSelector","type":"uint64","indexed":false,"internalType":"uint64"},{"name":"offRamp","type":"address","indexed":false,"internalType":"address"},{"name":"calldataHash","type":"bytes32","indexed":false,"internalType":"bytes32"}],"anonymous":false},{"type":"event","name":"OffRampAdded","inputs":[{"name":"sourceChainSelector","type":"uint64","indexed":true,"internalType":"uint64"},{"name":"offRamp","type":"address","indexed":false,"internalType":"address"}],"anonymous":false},{"type":"event","name":"OffRampRemoved","inputs":[{"name":"sourceChainSelector","type":"uint64","indexed":true,"internalType":"uint64"},{"name":"offRamp","type":"address","indexed":false,"internalType":"address"}],"anonymous":false},{"type":"event","name":"OnRampSet","inputs":[{"name":"destChainSelector","type":"uint64","indexed":true,"internalType":"uint64"},{"name":"onRamp","type":"address","indexed":false,"internalType":"address"}],"anonymous":false},{"type":"event","name":"OwnershipTransferRequested","inputs":[{"name":"from","type":"address","indexed":true,"internalType":"address"},{"name":"to","type":"address","indexed":true,"internalType":"address"}],"anonymous":false},{"type":"event","name":"OwnershipTransferred","inputs":[{"name":"from","type":"address","indexed":true,"internalType":"address"},{"name":"to","type":"address","indexed":true,"internalType":"address"}],"anonymous":false},{"type":"error","name":"BadARMSignal","inputs":[]},{"type":"error","name":"FailedToSendValue","inputs":[]},{"type":"error","name":"InsufficientFeeTokenAmount","inputs":[]},{"type":"error","name":"InvalidMsgValue","inputs":[]},{"type":"error","name":"InvalidRecipientAddress","inputs":[{"name":"to","type":"address","internalType":"address"}]},{"type":"error","name":"OffRampMismatch","inputs":[{"name":"chainSelector","type":"uint64","internalType":"uint64"},{"name":"offRamp","type":"address","internalType":"address"}]},{"type":"error","name":"OnlyOffRamp","inputs":[]},{"type":"error","name":"UnsupportedDestinationChain","inputs":[{"name":"destChainSelector","type":"uint64","internalType":"uint64"}]}],"bytecode":{"object":"0x60a06040523480156200001157600080fd5b50604051620040ce380380620040ce83398181016040528101906200003791906200034c565b338060008073ffffffffffffffffffffffffffffffffffffffff168273ffffffffffffffffffffffffffffffffffffffff1603620000ac576040517f08c379a0000000000000000000000000000000000000000000000000000000008152600401620000a390620003f4565b60405180910390fd5b816000806101000a81548173ffffffffffffffffffffffffffffffffffffffff021916908373ffffffffffffffffffffffffffffffffffffffff160217905550600073ffffffffffffffffffffffffffffffffffffffff168173ffffffffffffffffffffffffffffffffffffffff161462000133576200013281620001b360201b60201c565b5b50505081600260006101000a81548173ffffffffffffffffffffffffffffffffffffffff021916908373ffffffffffffffffffffffffffffffffffffffff1602179055508073ffffffffffffffffffffffffffffffffffffffff1660808173ffffffffffffffffffffffffffffffffffffffff1681525050505062000488565b3373ffffffffffffffffffffffffffffffffffffffff168173ffffffffffffffffffffffffffffffffffffffff160362000224576040517f08c379a00000000000000000000000000000000000000000000000000000000081526004016200021b9062000466565b60405180910390fd5b80600160006101000a81548173ffffffffffffffffffffffffffffffffffffffff021916908373ffffffffffffffffffffffffffffffffffffffff1602179055508073ffffffffffffffffffffffffffffffffffffffff1660008054906101000a900473ffffffffffffffffffffffffffffffffffffffff1673ffffffffffffffffffffffffffffffffffffffff167fed8889f560326eb138920d842192f0eb3dd22b4f139c87a2c57538e05bae127860405160405180910390a350565b600080fd5b600073ffffffffffffffffffffffffffffffffffffffff82169050919050565b60006200031482620002e7565b9050919050565b620003268162000307565b81146200033257600080fd5b50565b60008151905062000346816200031b565b92915050565b60008060408385031215620003665762000365620002e2565b5b6000620003768582860162000335565b9250506020620003898582860162000335565b9150509250929050565b600082825260208201905092915050565b7f43616e6e6f7420736574206f776e657220746f207a65726f0000000000000000600082015250565b6000620003dc60188362000393565b9150620003e982620003a4565b602082019050919050565b600060208201905081810360008301526200040f81620003cd565b9050919050565b7f43616e6e6f74207472616e7366657220746f2073656c66000000000000000000600082015250565b60006200044e60178362000393565b91506200045b8262000416565b602082019050919050565b6000602082019050818103600083015262000481816200043f565b9050919050565b608051613c1c620004b2600039600081816106780152818161088b0152610c700152613c1c6000f3fe6080604052600436106101095760003560e01c80638da5cb5b11610095578063a8d87a3b11610064578063a8d87a3b14610374578063da5fcac8146103b1578063e861e907146103da578063f2fde38b14610405578063fbca3b741461042e57610109565b80638da5cb5b146102b157806396f4e9f9146102dc578063a40e69c71461030c578063a48a90581461033757610109565b806352cb60ca116100dc57806352cb60ca146101e05780635f3e849f14610209578063787350e31461023257806379ba50971461025d57806383826b2b1461027457610109565b8063181f5a771461010e57806320487ded146101395780633cf97983146101765780635246492f146101b5575b600080fd5b34801561011a57600080fd5b5061012361046b565b604051610130919061227b565b60405180910390f35b34801561014557600080fd5b50610160600480360381019061015b91906126d8565b6104a4565b60405161016d9190612743565b60405180910390f35b34801561018257600080fd5b5061019d600480360381019061019891906127bc565b610670565b6040516101ac939291906128af565b60405180910390f35b3480156101c157600080fd5b506101ca610887565b6040516101d791906128fc565b60405180910390f35b3480156101ec57600080fd5b5061020760048036038101906102029190612917565b6108af565b005b34801561021557600080fd5b50610230600480360381019061022b9190612944565b6108fb565b005b34801561023e57600080fd5b50610247610a82565b60405161025491906129a6565b60405180910390f35b34801561026957600080fd5b50610272610a87565b005b34801561028057600080fd5b5061029b600480360381019061029691906129c1565b610c1c565b6040516102a89190612a01565b60405180910390f35b3480156102bd57600080fd5b506102c6610c43565b6040516102d391906128fc565b60405180910390f35b6102f660048036038101906102f191906126d8565b610c6c565b6040516103039190612a35565b60405180910390f35b34801561031857600080fd5b50610321611253565b60405161032e9190612b4c565b60405180910390f35b34801561034357600080fd5b5061035e60048036038101906103599190612b6e565b611353565b60405161036b9190612a01565b60405180910390f35b34801561038057600080fd5b5061039b60048036038101906103969190612b6e565b6113c9565b6040516103a891906128fc565b60405180910390f35b3480156103bd57600080fd5b506103d860048036038101906103d39190612c4c565b611410565b005b3480156103e657600080fd5b506103ef611711565b6040516103fc91906128fc565b60405180910390f35b34801561041157600080fd5b5061042c60048036038101906104279190612917565b61173b565b005b34801561043a57600080fd5b5061045560048036038101906104509190612b6e565b61174f565b6040516104629190612daf565b60405180910390f35b6040518060400160405280600c81526020017f526f7574657220312e322e30000000000000000000000000000000000000000081525081565b60008073ffffffffffffffffffffffffffffffffffffffff16826060015173ffffffffffffffffffffffffffffffffffffffff160361053857600260009054906101000a900473ffffffffffffffffffffffffffffffffffffffff16826060019073ffffffffffffffffffffffffffffffffffffffff16908173ffffffffffffffffffffffffffffffffffffffff16815250505b6000600360008567ffffffffffffffff16815260200190815260200160002060009054906101000a900473ffffffffffffffffffffffffffffffffffffffff169050600073ffffffffffffffffffffffffffffffffffffffff168173ffffffffffffffffffffffffffffffffffffffff16036105eb57836040517fae236d9c0000000000000000000000000000000000000000000000000000000081526004016105e29190612de0565b60405180910390fd5b8073ffffffffffffffffffffffffffffffffffffffff166320487ded85856040518363ffffffff1660e01b8152600401610626929190612fbd565b602060405180830381865afa158015610643573d6000803e3d6000fd5b505050506040513d601f19601f820116820180604052508101906106679190613002565b91505092915050565b6000606060007f000000000000000000000000000000000000000000000000000000000000000073ffffffffffffffffffffffffffffffffffffffff1663397796f76040518163ffffffff1660e01b8152600401602060405180830381865afa1580156106e1573d6000803e3d6000fd5b505050506040513d601f19601f82011682018060405250810190610705919061305b565b1561073c576040517fc148371500000000000000000000000000000000000000000000000000000000815260040160405180910390fd5b6107588760200160208101906107529190612b6e565b33610c1c565b61078e576040517fd2316ede00000000000000000000000000000000000000000000000000000000815260040160405180910390fd5b60006385572ffb60e01b886040516024016107a991906133a9565b604051602081830303815290604052907bffffffffffffffffffffffffffffffffffffffffffffffffffffffff19166020820180517bffffffffffffffffffffffffffffffffffffffffffffffffffffffff838183161783525050505090506108168186888a6084611873565b8094508195508296505050507f9b877de93ea9895756e337442c657f95a34fc68e7eb988bdfa693d5be83016b6886000013589602001602081019061085b9190612b6e565b33848051906020012060405161087494939291906133cb565b60405180910390a1509450945094915050565b60007f0000000000000000000000000000000000000000000000000000000000000000905090565b6108b76119a6565b80600260006101000a81548173ffffffffffffffffffffffffffffffffffffffff021916908373ffffffffffffffffffffffffffffffffffffffff16021790555050565b6109036119a6565b600073ffffffffffffffffffffffffffffffffffffffff168273ffffffffffffffffffffffffffffffffffffffff160361097457816040517f26a78f8f00000000000000000000000000000000000000000000000000000000815260040161096b91906128fc565b60405180910390fd5b600073ffffffffffffffffffffffffffffffffffffffff168373ffffffffffffffffffffffffffffffffffffffff1603610a515760008273ffffffffffffffffffffffffffffffffffffffff16826040516109ce90613441565b60006040518083038185875af1925050503d8060008114610a0b576040519150601f19603f3d011682016040523d82523d6000602084013e610a10565b606091505b5050905080610a4b576040517fe417b80b00000000000000000000000000000000000000000000000000000000815260040160405180910390fd5b50610a7d565b610a7c82828573ffffffffffffffffffffffffffffffffffffffff16611a369092919063ffffffff16565b5b505050565b608481565b600160009054906101000a900473ffffffffffffffffffffffffffffffffffffffff1673ffffffffffffffffffffffffffffffffffffffff163373ffffffffffffffffffffffffffffffffffffffff1614610b17576040517f08c379a0000000000000000000000000000000000000000000000000000000008152600401610b0e906134a2565b60405180910390fd5b60008060009054906101000a900473ffffffffffffffffffffffffffffffffffffffff169050336000806101000a81548173ffffffffffffffffffffffffffffffffffffffff021916908373ffffffffffffffffffffffffffffffffffffffff1602179055506000600160006101000a81548173ffffffffffffffffffffffffffffffffffffffff021916908373ffffffffffffffffffffffffffffffffffffffff1602179055503373ffffffffffffffffffffffffffffffffffffffff168173ffffffffffffffffffffffffffffffffffffffff167f8be0079c531659141344cd1fd0a4f28419497f9722a3daafe3b4186f6b6457e060405160405180910390a350565b6000610c3b610c2b8484611abc565b6004611af690919063ffffffff16565b905092915050565b60008060009054906101000a900473ffffffffffffffffffffffffffffffffffffffff16905090565b60007f000000000000000000000000000000000000000000000000000000000000000073ffffffffffffffffffffffffffffffffffffffff1663397796f76040518163ffffffff1660e01b8152600401602060405180830381865afa158015610cd9573d6000803e3d6000fd5b505050506040513d601f19601f82011682018060405250810190610cfd919061305b565b15610d34576040517fc148371500000000000000000000000000000000000000000000000000000000815260040160405180910390fd5b6000600360008567ffffffffffffffff16815260200190815260200160002060009054906101000a900473ffffffffffffffffffffffffffffffffffffffff169050600073ffffffffffffffffffffffffffffffffffffffff168173ffffffffffffffffffffffffffffffffffffffff1603610de757836040517fae236d9c000000000000000000000000000000000000000000000000000000008152600401610dde9190612de0565b60405180910390fd5b60008073ffffffffffffffffffffffffffffffffffffffff16846060015173ffffffffffffffffffffffffffffffffffffffff1603610fce57600260009054906101000a900473ffffffffffffffffffffffffffffffffffffffff16846060019073ffffffffffffffffffffffffffffffffffffffff16908173ffffffffffffffffffffffffffffffffffffffff16815250508173ffffffffffffffffffffffffffffffffffffffff166320487ded86866040518363ffffffff1660e01b8152600401610eb5929190612fbd565b602060405180830381865afa158015610ed2573d6000803e3d6000fd5b505050506040513d601f19601f82011682018060405250810190610ef69190613002565b905080341015610f32576040517f07da6ee600000000000000000000000000000000000000000000000000000000815260040160405180910390fd5b349050836060015173ffffffffffffffffffffffffffffffffffffffff1663d0e30db0826040518263ffffffff1660e01b81526004016000604051808303818588803b158015610f8157600080fd5b505af1158015610f95573d6000803e3d6000fd5b5050505050610fc98282866060015173ffffffffffffffffffffffffffffffffffffffff16611a369092919063ffffffff16565b6110b9565b6000341115611009576040517f1841b4e100000000000000000000000000000000000000000000000000000000815260040160405180910390fd5b8173ffffffffffffffffffffffffffffffffffffffff166320487ded86866040518363ffffffff1660e01b8152600401611044929190612fbd565b602060405180830381865afa158015611061573d6000803e3d6000fd5b505050506040513d601f19601f820116820180604052508101906110859190613002565b90506110b8338383876060015173ffffffffffffffffffffffffffffffffffffffff16611b10909392919063ffffffff16565b5b60005b8460400151518110156111c6576000856040015182815181106110e2576110e16134c2565b5b60200260200101516000015190506111ba338573ffffffffffffffffffffffffffffffffffffffff166348a98aa48a856040518363ffffffff1660e01b815260040161112f929190613550565b602060405180830381865afa15801561114c573d6000803e3d6000fd5b505050506040513d601f19601f8201168201806040525081019061117091906135b7565b88604001518581518110611187576111866134c2565b5b6020026020010151602001518473ffffffffffffffffffffffffffffffffffffffff16611b10909392919063ffffffff16565b508060010190506110bc565b508173ffffffffffffffffffffffffffffffffffffffff1663df0aa9e9868684336040518563ffffffff1660e01b815260040161120694939291906135e4565b6020604051808303816000875af1158015611225573d6000803e3d6000fd5b505050506040513d601f19601f820116820180604052508101906112499190613645565b9250505092915050565b606060006112616004611b99565b90506000815167ffffffffffffffff8111156112805761127f6122f6565b5b6040519080825280602002602001820160405280156112b957816020015b6112a66121b1565b81526020019060019003908161129e5790505b50905060005b825181101561134a5760008382815181106112dd576112dc6134c2565b5b60200260200101519050604051806040016040528060a083901c67ffffffffffffffff1681526020018273ffffffffffffffffffffffffffffffffffffffff16815250838381518110611333576113326134c2565b5b6020026020010181905250508060010190506112bf565b50809250505090565b60008073ffffffffffffffffffffffffffffffffffffffff16600360008467ffffffffffffffff16815260200190815260200160002060009054906101000a900473ffffffffffffffffffffffffffffffffffffffff1673ffffffffffffffffffffffffffffffffffffffff1614159050919050565b6000600360008367ffffffffffffffff16815260200190815260200160002060009054906101000a900473ffffffffffffffffffffffffffffffffffffffff169050919050565b6114186119a6565b60005b8686905081101561150d57600087878381811061143b5761143a6134c2565b5b90506040020180360381019061145191906136c2565b9050806020015160036000836000015167ffffffffffffffff16815260200190815260200160002060006101000a81548173ffffffffffffffffffffffffffffffffffffffff021916908373ffffffffffffffffffffffffffffffffffffffff160217905550806000015167ffffffffffffffff167f1f7d0ec248b80e5c0dde0ee531c4fc8fdb6ce9a2b3d90f560c74acd6a7202f2382602001516040516114f991906128fc565b60405180910390a25080600101905061141b565b5060005b84849050811015611629576000858583818110611531576115306134c2565b5b90506040020160000160208101906115499190612b6e565b905060008686848181106115605761155f6134c2565b5b90506040020160200160208101906115789190612917565b90506115976115878383611abc565b6004611bba90919063ffffffff16565b6115da5781816040517f496477900000000000000000000000000000000000000000000000000000000081526004016115d19291906136ef565b60405180910390fd5b8167ffffffffffffffff167fa823809efda3ba66c873364eec120fa0923d9fabda73bc97dd5663341e2d9bcb8260405161161491906128fc565b60405180910390a25050806001019050611511565b5060005b8282905081101561170857600083838381811061164d5761164c6134c2565b5b90506040020160000160208101906116659190612b6e565b9050600084848481811061167c5761167b6134c2565b5b90506040020160200160208101906116949190612917565b90506116b36116a38383611abc565b6004611bd490919063ffffffff16565b156116fb578167ffffffffffffffff167fa4bdf64ebdf3316320601a081916a75aa144bcef6c4beeb0e9fb1982cacc6b94826040516116f291906128fc565b60405180910390a25b505080600101905061162d565b50505050505050565b6000600260009054906101000a900473ffffffffffffffffffffffffffffffffffffffff16905090565b6117436119a6565b61174c81611bee565b50565b606061175a82611353565b6117af57600067ffffffffffffffff811115611779576117786122f6565b5b6040519080825280602002602001820160405280156117a75781602001602082028036833780820191505090505b50905061186e565b600360008367ffffffffffffffff16815260200190815260200160002060009054906101000a900473ffffffffffffffffffffffffffffffffffffffff1673ffffffffffffffffffffffffffffffffffffffff1663fbca3b74836040518263ffffffff1660e01b81526004016118259190612de0565b600060405180830381865afa158015611842573d6000803e3d6000fd5b505050506040513d6000823e3d601f19601f8201168201806040525081019061186b91906137f0565b90505b919050565b6000606060008361ffff1667ffffffffffffffff811115611897576118966122f6565b5b6040519080825280601f01601f1916602001820160405280156118c95781602001600182028036833780820191505090505b509150863b6118fc577f0c3b563c0000000000000000000000000000000000000000000000000000000060005260046000fd5b5a8581101561192f577fafa32a2c0000000000000000000000000000000000000000000000000000000060005260046000fd5b8581039050866040820482031161196a577f37c3be290000000000000000000000000000000000000000000000000000000060005260046000fd5b5a6000808b5160208d0160008d8df194505a810392503d8681111561198d578690505b808552806000602087013e505050955095509592505050565b60008054906101000a900473ffffffffffffffffffffffffffffffffffffffff1673ffffffffffffffffffffffffffffffffffffffff163373ffffffffffffffffffffffffffffffffffffffff1614611a34576040517f08c379a0000000000000000000000000000000000000000000000000000000008152600401611a2b90613885565b60405180910390fd5b565b611ab78363a9059cbb60e01b8484604051602401611a559291906138a5565b604051602081830303815290604052907bffffffffffffffffffffffffffffffffffffffffffffffffffffffff19166020820180517bffffffffffffffffffffffffffffffffffffffffffffffffffffffff8381831617835250505050611d1a565b505050565b60008173ffffffffffffffffffffffffffffffffffffffff1660a08467ffffffffffffffff16901b611aee91906138fd565b905092915050565b6000611b08836000018360001b611de1565b905092915050565b611b93846323b872dd60e01b858585604051602401611b3193929190613931565b604051602081830303815290604052907bffffffffffffffffffffffffffffffffffffffffffffffffffffffff19166020820180517bffffffffffffffffffffffffffffffffffffffffffffffffffffffff8381831617835250505050611d1a565b50505050565b60606000611ba983600001611e04565b905060608190508092505050919050565b6000611bcc836000018360001b611e60565b905092915050565b6000611be6836000018360001b611f74565b905092915050565b3373ffffffffffffffffffffffffffffffffffffffff168173ffffffffffffffffffffffffffffffffffffffff1603611c5c576040517f08c379a0000000000000000000000000000000000000000000000000000000008152600401611c53906139b4565b60405180910390fd5b80600160006101000a81548173ffffffffffffffffffffffffffffffffffffffff021916908373ffffffffffffffffffffffffffffffffffffffff1602179055508073ffffffffffffffffffffffffffffffffffffffff1660008054906101000a900473ffffffffffffffffffffffffffffffffffffffff1673ffffffffffffffffffffffffffffffffffffffff167fed8889f560326eb138920d842192f0eb3dd22b4f139c87a2c57538e05bae127860405160405180910390a350565b6000611d7c826040518060400160405280602081526020017f5361666545524332303a206c6f772d6c6576656c2063616c6c206661696c65648152508573ffffffffffffffffffffffffffffffffffffffff16611fe49092919063ffffffff16565b9050600081511115611ddc5780806020019051810190611d9c919061305b565b611ddb576040517f08c379a0000000000000000000000000000000000000000000000000000000008152600401611dd290613a46565b60405180910390fd5b5b505050565b600080836001016000848152602001908152602001600020541415905092915050565b606081600001805480602002602001604051908101604052809291908181526020018280548015611e5457602002820191906000526020600020905b815481526020019060010190808311611e40575b50505050509050919050565b60008083600101600084815260200190815260200160002054905060008114611f68576000600182611e929190613a66565b9050600060018660000180549050611eaa9190613a66565b9050818114611f19576000866000018281548110611ecb57611eca6134c2565b5b9060005260206000200154905080876000018481548110611eef57611eee6134c2565b5b90600052602060002001819055508387600101600083815260200190815260200160002081905550505b85600001805480611f2d57611f2c613a9a565b5b600190038181906000526020600020016000905590558560010160008681526020019081526020016000206000905560019350505050611f6e565b60009150505b92915050565b6000611f808383611de1565b611fd9578260000182908060018154018082558091505060019003906000526020600020016000909190919091505582600001805490508360010160008481526020019081526020016000208190555060019050611fde565b600090505b92915050565b6060611ff38484600085611ffc565b90509392505050565b606082471015612041576040517f08c379a000000000000000000000000000000000000000000000000000000000815260040161203890613b3b565b60405180910390fd5b6000808673ffffffffffffffffffffffffffffffffffffffff16858760405161206a9190613b8c565b60006040518083038185875af1925050503d80600081146120a7576040519150601f19603f3d011682016040523d82523d6000602084013e6120ac565b606091505b50915091506120bd878383876120c9565b92505050949350505050565b6060831561212b576000835103612123576120e38561213e565b612122576040517f08c379a000000000000000000000000000000000000000000000000000000000815260040161211990613bef565b60405180910390fd5b5b829050612136565b6121358383612161565b5b949350505050565b6000808273ffffffffffffffffffffffffffffffffffffffff163b119050919050565b6000825111156121745781518083602001fd5b806040517f08c379a00000000000000000000000000000000000000000000000000000000081526004016121a8919061227b565b60405180910390fd5b6040518060400160405280600067ffffffffffffffff168152602001600073ffffffffffffffffffffffffffffffffffffffff1681525090565b600081519050919050565b600082825260208201905092915050565b60005b8381101561222557808201518184015260208101905061220a565b60008484015250505050565b6000601f19601f8301169050919050565b600061224d826121eb565b61225781856121f6565b9350612267818560208601612207565b61227081612231565b840191505092915050565b600060208201905081810360008301526122958184612242565b905092915050565b6000604051905090565b600080fd5b600080fd5b600067ffffffffffffffff82169050919050565b6122ce816122b1565b81146122d957600080fd5b50565b6000813590506122eb816122c5565b92915050565b600080fd5b7f4e487b7100000000000000000000000000000000000000000000000000000000600052604160045260246000fd5b61232e82612231565b810181811067ffffffffffffffff8211171561234d5761234c6122f6565b5b80604052505050565b600061236061229d565b905061236c8282612325565b919050565b600080fd5b600080fd5b600080fd5b600067ffffffffffffffff82111561239b5761239a6122f6565b5b6123a482612231565b9050602081019050919050565b82818337600083830152505050565b60006123d36123ce84612380565b612356565b9050828152602081018484840111156123ef576123ee61237b565b5b6123fa8482856123b1565b509392505050565b600082601f83011261241757612416612376565b5b81356124278482602086016123c0565b91505092915050565b600067ffffffffffffffff82111561244b5761244a6122f6565b5b602082029050602081019050919050565b600080fd5b600073ffffffffffffffffffffffffffffffffffffffff82169050919050565b600061248c82612461565b9050919050565b61249c81612481565b81146124a757600080fd5b50565b6000813590506124b981612493565b92915050565b6000819050919050565b6124d2816124bf565b81146124dd57600080fd5b50565b6000813590506124ef816124c9565b92915050565b60006040828403121561250b5761250a6122f1565b5b6125156040612356565b90506000612525848285016124aa565b6000830152506020612539848285016124e0565b60208301525092915050565b600061255861255384612430565b612356565b9050808382526020820190506040840283018581111561257b5761257a61245c565b5b835b818110156125a4578061259088826124f5565b84526020840193505060408101905061257d565b5050509392505050565b600082601f8301126125c3576125c2612376565b5b81356125d3848260208601612545565b91505092915050565b600060a082840312156125f2576125f16122f1565b5b6125fc60a0612356565b9050600082013567ffffffffffffffff81111561261c5761261b612371565b5b61262884828501612402565b600083015250602082013567ffffffffffffffff81111561264c5761264b612371565b5b61265884828501612402565b602083015250604082013567ffffffffffffffff81111561267c5761267b612371565b5b612688848285016125ae565b604083015250606061269c848285016124aa565b606083015250608082013567ffffffffffffffff8111156126c0576126bf612371565b5b6126cc84828501612402565b60808301525092915050565b600080604083850312156126ef576126ee6122a7565b5b60006126fd858286016122dc565b925050602083013567ffffffffffffffff81111561271e5761271d6122ac565b5b61272a858286016125dc565b9150509250929050565b61273d816124bf565b82525050565b60006020820190506127586000830184612734565b92915050565b600080fd5b600060a082840312156127795761277861275e565b5b81905092915050565b600061ffff82169050919050565b61279981612782565b81146127a457600080fd5b50565b6000813590506127b681612790565b92915050565b600080600080608085870312156127d6576127d56122a7565b5b600085013567ffffffffffffffff8111156127f4576127f36122ac565b5b61280087828801612763565b9450506020612811878288016127a7565b9350506040612822878288016124e0565b9250506060612833878288016124aa565b91505092959194509250565b60008115159050919050565b6128548161283f565b82525050565b600081519050919050565b600082825260208201905092915050565b60006128818261285a565b61288b8185612865565b935061289b818560208601612207565b6128a481612231565b840191505092915050565b60006060820190506128c4600083018661284b565b81810360208301526128d68185612876565b90506128e56040830184612734565b949350505050565b6128f681612481565b82525050565b600060208201905061291160008301846128ed565b92915050565b60006020828403121561292d5761292c6122a7565b5b600061293b848285016124aa565b91505092915050565b60008060006060848603121561295d5761295c6122a7565b5b600061296b868287016124aa565b935050602061297c868287016124aa565b925050604061298d868287016124e0565b9150509250925092565b6129a081612782565b82525050565b60006020820190506129bb6000830184612997565b92915050565b600080604083850312156129d8576129d76122a7565b5b60006129e6858286016122dc565b92505060206129f7858286016124aa565b9150509250929050565b6000602082019050612a16600083018461284b565b92915050565b6000819050919050565b612a2f81612a1c565b82525050565b6000602082019050612a4a6000830184612a26565b92915050565b600081519050919050565b600082825260208201905092915050565b6000819050602082019050919050565b612a85816122b1565b82525050565b612a9481612481565b82525050565b604082016000820151612ab06000850182612a7c565b506020820151612ac36020850182612a8b565b50505050565b6000612ad58383612a9a565b60408301905092915050565b6000602082019050919050565b6000612af982612a50565b612b038185612a5b565b9350612b0e83612a6c565b8060005b83811015612b3f578151612b268882612ac9565b9750612b3183612ae1565b925050600181019050612b12565b5085935050505092915050565b60006020820190508181036000830152612b668184612aee565b905092915050565b600060208284031215612b8457612b836122a7565b5b6000612b92848285016122dc565b91505092915050565b600080fd5b60008083601f840112612bb657612bb5612376565b5b8235905067ffffffffffffffff811115612bd357612bd2612b9b565b5b602083019150836040820283011115612bef57612bee61245c565b5b9250929050565b60008083601f840112612c0c57612c0b612376565b5b8235905067ffffffffffffffff811115612c2957612c28612b9b565b5b602083019150836040820283011115612c4557612c4461245c565b5b9250929050565b60008060008060008060608789031215612c6957612c686122a7565b5b600087013567ffffffffffffffff811115612c8757612c866122ac565b5b612c9389828a01612ba0565b9650965050602087013567ffffffffffffffff811115612cb657612cb56122ac565b5b612cc289828a01612bf6565b9450945050604087013567ffffffffffffffff811115612ce557612ce46122ac565b5b612cf189828a01612bf6565b92509250509295509295509295565b600081519050919050565b600082825260208201905092915050565b6000819050602082019050919050565b6000612d388383612a8b565b60208301905092915050565b6000602082019050919050565b6000612d5c82612d00565b612d668185612d0b565b9350612d7183612d1c565b8060005b83811015612da2578151612d898882612d2c565b9750612d9483612d44565b925050600181019050612d75565b5085935050505092915050565b60006020820190508181036000830152612dc98184612d51565b905092915050565b612dda816122b1565b82525050565b6000602082019050612df56000830184612dd1565b92915050565b600082825260208201905092915050565b6000612e178261285a565b612e218185612dfb565b9350612e31818560208601612207565b612e3a81612231565b840191505092915050565b600081519050919050565b600082825260208201905092915050565b6000819050602082019050919050565b612e7a816124bf565b82525050565b604082016000820151612e966000850182612a8b565b506020820151612ea96020850182612e71565b50505050565b6000612ebb8383612e80565b60408301905092915050565b6000602082019050919050565b6000612edf82612e45565b612ee98185612e50565b9350612ef483612e61565b8060005b83811015612f25578151612f0c8882612eaf565b9750612f1783612ec7565b925050600181019050612ef8565b5085935050505092915050565b600060a0830160008301518482036000860152612f4f8282612e0c565b91505060208301518482036020860152612f698282612e0c565b91505060408301518482036040860152612f838282612ed4565b9150506060830151612f986060860182612a8b565b5060808301518482036080860152612fb08282612e0c565b9150508091505092915050565b6000604082019050612fd26000830185612dd1565b8181036020830152612fe48184612f32565b90509392505050565b600081519050612ffc816124c9565b92915050565b600060208284031215613018576130176122a7565b5b600061302684828501612fed565b91505092915050565b6130388161283f565b811461304357600080fd5b50565b6000815190506130558161302f565b92915050565b600060208284031215613071576130706122a7565b5b600061307f84828501613046565b91505092915050565b61309181612a1c565b811461309c57600080fd5b50565b6000813590506130ae81613088565b92915050565b60006130c3602084018461309f565b905092915050565b6130d481612a1c565b82525050565b60006130e960208401846122dc565b905092915050565b600080fd5b600080fd5b600080fd5b6000808335600160200384360303811261311d5761311c6130fb565b5b83810192508235915060208301925067ffffffffffffffff821115613145576131446130f1565b5b60018202360383131561315b5761315a6130f6565b5b509250929050565b600061316f8385612dfb565b935061317c8385846123b1565b61318583612231565b840190509392505050565b600080833560016020038436030381126131ad576131ac6130fb565b5b83810192508235915060208301925067ffffffffffffffff8211156131d5576131d46130f1565b5b6040820236038313156131eb576131ea6130f6565b5b509250929050565b6000819050919050565b600061320c60208401846124aa565b905092915050565b600061322360208401846124e0565b905092915050565b6040820161323c60008301836131fd565b6132496000850182612a8b565b506132576020830183613214565b6132646020850182612e71565b50505050565b6000613276838361322b565b60408301905092915050565b600082905092915050565b6000604082019050919050565b60006132a68385612e50565b93506132b1826131f3565b8060005b858110156132ea576132c78284613282565b6132d1888261326a565b97506132dc8361328d565b9250506001810190506132b5565b5085925050509392505050565b600060a0830161330a60008401846130b4565b61331760008601826130cb565b5061332560208401846130da565b6133326020860182612a7c565b506133406040840184613100565b8583036040870152613353838284613163565b925050506133646060840184613100565b8583036060870152613377838284613163565b925050506133886080840184613190565b858303608087015261339b83828461329a565b925050508091505092915050565b600060208201905081810360008301526133c381846132f7565b905092915050565b60006080820190506133e06000830187612a26565b6133ed6020830186612dd1565b6133fa60408301856128ed565b6134076060830184612a26565b95945050505050565b600081905092915050565b50565b600061342b600083613410565b91506134368261341b565b600082019050919050565b600061344c8261341e565b9150819050919050565b7f4d7573742062652070726f706f736564206f776e657200000000000000000000600082015250565b600061348c6016836121f6565b915061349782613456565b602082019050919050565b600060208201905081810360008301526134bb8161347f565b9050919050565b7f4e487b7100000000000000000000000000000000000000000000000000000000600052603260045260246000fd5b6000819050919050565b600061351661351161350c84612461565b6134f1565b612461565b9050919050565b6000613528826134fb565b9050919050565b600061353a8261351d565b9050919050565b61354a8161352f565b82525050565b60006040820190506135656000830185612dd1565b6135726020830184613541565b9392505050565b600061358482612481565b9050919050565b61359481613579565b811461359f57600080fd5b50565b6000815190506135b18161358b565b92915050565b6000602082840312156135cd576135cc6122a7565b5b60006135db848285016135a2565b91505092915050565b60006080820190506135f96000830187612dd1565b818103602083015261360b8186612f32565b905061361a6040830185612734565b61362760608301846128ed565b95945050505050565b60008151905061363f81613088565b92915050565b60006020828403121561365b5761365a6122a7565b5b600061366984828501613630565b91505092915050565b600060408284031215613688576136876122f1565b5b6136926040612356565b905060006136a2848285016122dc565b60008301525060206136b6848285016124aa565b60208301525092915050565b6000604082840312156136d8576136d76122a7565b5b60006136e684828501613672565b91505092915050565b60006040820190506137046000830185612dd1565b61371160208301846128ed565b9392505050565b600067ffffffffffffffff821115613733576137326122f6565b5b602082029050602081019050919050565b60008151905061375381612493565b92915050565b600061376c61376784613718565b612356565b9050808382526020820190506020840283018581111561378f5761378e61245c565b5b835b818110156137b857806137a48882613744565b845260208401935050602081019050613791565b5050509392505050565b600082601f8301126137d7576137d6612376565b5b81516137e7848260208601613759565b91505092915050565b600060208284031215613806576138056122a7565b5b600082015167ffffffffffffffff811115613824576138236122ac565b5b613830848285016137c2565b91505092915050565b7f4f6e6c792063616c6c61626c65206279206f776e657200000000000000000000600082015250565b600061386f6016836121f6565b915061387a82613839565b602082019050919050565b6000602082019050818103600083015261389e81613862565b9050919050565b60006040820190506138ba60008301856128ed565b6138c76020830184612734565b9392505050565b7f4e487b7100000000000000000000000000000000000000000000000000000000600052601160045260246000fd5b6000613908826124bf565b9150613913836124bf565b925082820190508082111561392b5761392a6138ce565b5b92915050565b600060608201905061394660008301866128ed565b61395360208301856128ed565b6139606040830184612734565b949350505050565b7f43616e6e6f74207472616e7366657220746f2073656c66000000000000000000600082015250565b600061399e6017836121f6565b91506139a982613968565b602082019050919050565b600060208201905081810360008301526139cd81613991565b9050919050565b7f5361666545524332303a204552433230206f7065726174696f6e20646964206e60008201527f6f74207375636365656400000000000000000000000000000000000000000000602082015250565b6000613a30602a836121f6565b9150613a3b826139d4565b604082019050919050565b60006020820190508181036000830152613a5f81613a23565b9050919050565b6000613a71826124bf565b9150613a7c836124bf565b9250828203905081811115613a9457613a936138ce565b5b92915050565b7f4e487b7100000000000000000000000000000000000000000000000000000000600052603160045260246000fd5b7f416464726573733a20696e73756666696369656e742062616c616e636520666f60008201527f722063616c6c0000000000000000000000000000000000000000000000000000602082015250565b6000613b256026836121f6565b9150613b3082613ac9565b604082019050919050565b60006020820190508181036000830152613b5481613b18565b9050919050565b6000613b668261285a565b613b708185613410565b9350613b80818560208601612207565b80840191505092915050565b6000613b988284613b5b565b915081905092915050565b7f416464726573733a2063616c6c20746f206e6f6e2d636f6e7472616374000000600082015250565b6000613bd9601d836121f6565b9150613be482613ba3565b602082019050919050565b60006020820190508181036000830152613c0881613bcc565b905091905056fea164736f6c6343000818000a","linkReferences":{}},"methodIdentifiers":{"MAX_RET_BYTES()":"787350e3","acceptOwnership()":"79ba5097","applyRampUpdates((uint64,address)[],(uint64,address)[],(uint64,address)[])":"da5fcac8","ccipSend(uint64,(bytes,bytes,(address,uint256)[],address,bytes))":"96f4e9f9","getArmProxy()":"5246492f","getFee(uint64,(bytes,bytes,(address,uint256)[],address,bytes))":"20487ded","getOffRamps()":"a40e69c7","getOnRamp(uint64)":"a8d87a3b","getSupportedTokens(uint64)":"fbca3b74","getWrappedNative()":"e861e907","isChainSupported(uint64)":"a48a9058","isOffRamp(uint64,address)":"83826b2b","owner()":"8da5cb5b","recoverTokens(address,address,uint256)":"5f3e849f","routeMessage((bytes32,uint64,bytes,bytes,(address,uint256)[]),uint16,uint256,address)":"3cf97983","setWrappedNative(address)":"52cb60ca","transferOwnership(address)":"f2fde38b","typeAndVersion()":"181f5a77"},"id":5}