{"abi":[{"type":"constructor","inputs":[{"name":"token","type":"address","internalType":"contract IERC20"},{"name":"allowlist","type":"address[]","internalType":"address[]"},{"name":"rmnProxy","type":"address","internalType":"address"},{"name":"acceptLiquidity","type":"bool","internalType":"bool"},{"name":"router","type":"address","internalType":"address"}],"stateMutability":"nonpayable"},{"type":"function","name":"acceptOwnership","inputs":[],"outputs":[],"stateMutability":"nonpayable"},{"type":"function","name":"applyAllowListUpdates","inputs":[{"name":"removes","type":"address[]","internalType":"address[]"},{"name":"adds","type":"address[]","internalType":"address[]"}],"outputs":[],"stateMutability":"nonpayable"},{"type":"function","name":"applyChainUpdates","inputs":[{"name":"chains","type":"tuple[]","internalType":"struct TokenPool.ChainUpdate[]","components":[{"name":"remoteChainSelector","type":"uint64","internalType":"uint64"},{"name":"allowed","type":"bool","internalType":"bool"},{"name":"remotePoolAddress","type":"bytes","internalType":"bytes"},{"name":"remoteTokenAddress","type":"bytes","internalType":"bytes"},{"name":"outboundRateLimiterConfig","type":"tuple","internalType":"struct RateLimiter.Config","components":[{"name":"isEnabled","type":"bool","internalType":"bool"},{"name":"capacity","type":"uint128","internalType":"uint128"},{"name":"rate","type":"uint128","internalType":"uint128"}]},{"name":"inboundRateLimiterConfig","type":"tuple","internalType":"struct RateLimiter.Config","components":[{"name":"isEnabled","type":"bool","internalType":"bool"},{"name":"capacity","type":"uint128","internalType":"uint128"},{"name":"rate","type":"uint128","internalType":"uint128"}]}]}],"outputs":[],"stateMutability":"nonpayable"},{"type":"function","name":"canAcceptLiquidity","inputs":[],"outputs":[{"name":"","type":"bool","internalType":"bool"}],"stateMutability":"view"},{"type":"function","name":"getAllowList","inputs":[],"outputs":[{"name":"","type":"address[]","internalType":"address[]"}],"stateMutability":"view"},{"type":"function","name":"getAllowListEnabled","inputs":[],"outputs":[{"name":"","type":"bool","internalType":"bool"}],"stateMutability":"view"},{"type":"function","name":"getCurrentInboundRateLimiterState","inputs":[{"name":"remoteChainSelector","type":"uint64","internalType":"uint64"}],"outputs":[{"name":"","type":"tuple","internalType":"struct RateLimiter.TokenBucket","components":[{"name":"tokens","type":"uint128","internalType":"uint128"},{"name":"lastUpdated","type":"uint32","internalType":"uint32"},{"name":"isEnabled","type":"bool","internalType":"bool"},{"name":"capacity","type":"uint128","internalType":"uint128"},{"name":"rate","type":"uint128","internalType":"uint128"}]}],"stateMutability":"view"},{"type":"function","name":"getCurrentOutboundRateLimiterState","inputs":[{"name":"remoteChainSelector","type":"uint64","internalType":"uint64"}],"outputs":[{"name":"","type":"tuple","internalType":"struct RateLimiter.TokenBucket","components":[{"name":"tokens","type":"uint128","internalType":"uint128"},{"name":"lastUpdated","type":"uint32","internalType":"uint32"},{"name":"isEnabled","type":"bool","internalType":"bool"},{"name":"capacity","type":"uint128","internalType":"uint128"},{"name":"rate","type":"uint128","internalType":"uint128"}]}],"stateMutability":"view"},{"type":"function","name":"getOnRamp","inputs":[{"name":"","type":"uint64","internalType":"uint64"}],"outputs":[{"name":"onRampAddress","type":"address","internalType":"address"}],"stateMutability":"view"},{"type":"function","name":"getRateLimitAdmin","inputs":[],"outputs":[{"name":"","type":"address","internalType":"address"}],"stateMutability":"view"},{"type":"function","name":"getRebalancer","inputs":[],"outputs":[{"name":"","type":"address","internalType":"address"}],"stateMutability":"view"},{"type":"function","name":"getRemotePool","inputs":[{"name":"remoteChainSelector","type":"uint64","internalType":"uint64"}],"outputs":[{"name":"","type":"bytes","internalType":"bytes"}],"stateMutability":"view"},{"type":"function","name":"getRemoteToken","inputs":[{"name":"remoteChainSelector","type":"uint64","internalType":"uint64"}],"outputs":[{"name":"","type":"bytes","internalType":"bytes"}],"stateMutability":"view"},{"type":"function","name":"getRmnProxy","inputs":[],"outputs":[{"name":"rmnProxy","type":"address","internalType":"address"}],"stateMutability":"view"},{"type":"function","name":"getRouter","inputs":[],"outputs":[{"name":"router","type":"address","internalType":"address"}],"stateMutability":"view"},{"type":"function","name":"getSupportedChains","inputs":[],"outputs":[{"name":"","type":"uint64[]","internalType":"uint64[]"}],"stateMutability":"view"},{"type":"function","name":"getToken","inputs":[],"outputs":[{"name":"token","type":"address","internalType":"contract IERC20"}],"stateMutability":"view"},{"type":"function","name":"isOffRamp","inputs":[{"name":"sourceChainSelector","type":"uint64","internalType":"uint64"},{"name":"offRamp","type":"address","internalType":"address"}],"outputs":[{"name":"","type":"bool","internalType":"bool"}],"stateMutability":"view"},{"type":"function","name":"isSupportedChain","inputs":[{"name":"remoteChainSelector","type":"uint64","internalType":"uint64"}],"outputs":[{"name":"","type":"bool","internalType":"bool"}],"stateMutability":"view"},{"type":"function","name":"isSupportedToken","inputs":[{"name":"token","type":"address","internalType":"address"}],"outputs":[{"name":"","type":"bool","internalType":"bool"}],"stateMutability":"view"},{"type":"function","name":"lockOrBurn","inputs":[{"name":"lockOrBurnIn","type":"tuple","internalType":"struct Pool.LockOrBurnInV1","components":[{"name":"receiver","type":"bytes","internalType":"bytes"},{"name":"remoteChainSelector","type":"uint64","internalType":"uint64"},{"name":"originalSender","type":"address","internalType":"address"},{"name":"amount","type":"uint256","internalType":"uint256"},{"name":"localToken","type":"address","internalType":"address"}]}],"outputs":[{"name":"","type":"tuple","internalType":"struct Pool.LockOrBurnOutV1","components":[{"name":"destTokenAddress","type":"bytes","internalType":"bytes"},{"name":"destPoolData","type":"bytes","internalType":"bytes"}]}],"stateMutability":"nonpayable"},{"type":"function","name":"owner","inputs":[],"outputs":[{"name":"","type":"address","internalType":"address"}],"stateMutability":"view"},{"type":"function","name":"provideLiquidity","inputs":[{"name":"amount","type":"uint256","internalType":"uint256"}],"outputs":[],"stateMutability":"nonpayable"},{"type":"function","name":"releaseOrMint","inputs":[{"name":"releaseOrMintIn","type":"tuple","internalType":"struct Pool.ReleaseOrMintInV1","components":[{"name":"originalSender","type":"bytes","internalType":"bytes"},{"name":"remoteChainSelector","type":"uint64","internalType":"uint64"},{"name":"receiver","type":"address","internalType":"address"},{"name":"amount","type":"uint256","internalType":"uint256"},{"name":"localToken","type":"address","internalType":"address"},{"name":"sourcePoolAddress","type":"bytes","internalType":"bytes"},{"name":"sourcePoolData","type":"bytes","internalType":"bytes"},{"name":"offchainTokenData","type":"bytes","internalType":"bytes"}]}],"outputs":[{"name":"","type":"tuple","internalType":"struct Pool.ReleaseOrMintOutV1","components":[{"name":"destinationAmount","type":"uint256","internalType":"uint256"}]}],"stateMutability":"nonpayable"},{"type":"function","name":"setChainRateLimiterConfig","inputs":[{"name":"remoteChainSelector","type":"uint64","internalType":"uint64"},{"name":"outboundConfig","type":"tuple","internalType":"struct RateLimiter.Config","components":[{"name":"isEnabled","type":"bool","internalType":"bool"},{"name":"capacity","type":"uint128","internalType":"uint128"},{"name":"rate","type":"uint128","internalType":"uint128"}]},{"name":"inboundConfig","type":"tuple","internalType":"struct RateLimiter.Config","components":[{"name":"isEnabled","type":"bool","internalType":"bool"},{"name":"capacity","type":"uint128","internalType":"uint128"},{"name":"rate","type":"uint128","internalType":"uint128"}]}],"outputs":[],"stateMutability":"nonpayable"},{"type":"function","name":"setPreviousPool","inputs":[{"name":"prevPool","type":"address","internalType":"contract IPoolPriorTo1_5"}],"outputs":[],"stateMutability":"nonpayable"},{"type":"function","name":"setRateLimitAdmin","inputs":[{"name":"rateLimitAdmin","type":"address","internalType":"address"}],"outputs":[],"stateMutability":"nonpayable"},{"type":"function","name":"setRebalancer","inputs":[{"name":"rebalancer","type":"address","internalType":"address"}],"outputs":[],"stateMutability":"nonpayable"},{"type":"function","name":"setRemotePool","inputs":[{"name":"remoteChainSelector","type":"uint64","internalType":"uint64"},{"name":"remotePoolAddress","type":"bytes","internalType":"bytes"}],"outputs":[],"stateMutability":"nonpayable"},{"type":"function","name":"setRouter","inputs":[{"name":"newRouter","type":"address","internalType":"address"}],"outputs":[],"stateMutability":"nonpayable"},{"type":"function","name":"supportsInterface","inputs":[{"name":"interfaceId","type":"bytes4","internalType":"bytes4"}],"outputs":[{"name":"","type":"bool","internalType":"bool"}],"stateMutability":"pure"},{"type":"function","name":"transferOwnership","inputs":[{"name":"to","type":"address","internalType":"address"}],"outputs":[],"stateMutability":"nonpayable"},{"type":"function","name":"typeAndVersion","inputs":[],"outputs":[{"name":"","type":"string","internalType":"string"}],"stateMutability":"view"},{"type":"function","name":"withdrawLiquidity","inputs":[{"name":"amount","type":"uint256","internalType":"uint256"}],"outputs":[],"stateMutability":"nonpayable"},{"type":"event","name":"AllowListAdd","inputs":[{"name":"sender","type":"address","indexed":false,"internalType":"address"}],"anonymous":false},{"type":"event","name":"AllowListRemove","inputs":[{"name":"sender","type":"address","indexed":false,"internalType":"address"}],"anonymous":false},{"type":"event","name":"Burned","inputs":[{"name":"sender","type":"address","indexed":true,"internalType":"address"},{"name":"amount","type":"uint256","indexed":false,"internalType":"uint256"}],"anonymous":false},{"type":"event","name":"ChainAdded","inputs":[{"name":"remoteChainSelector","type":"uint64","indexed":false,"internalType":"uint64"},{"name":"remoteToken","type":"bytes","indexed":false,"internalType":"bytes"},{"name":"outboundRateLimiterConfig","type":"tuple","indexed":false,"internalType":"struct RateLimiter.Config","components":[{"name":"isEnabled","type":"bool","internalType":"bool"},{"name":"capacity","type":"uint128","internalType":"uint128"},{"name":"rate","type":"uint128","internalType":"uint128"}]},{"name":"inboundRateLimiterConfig","type":"tuple","indexed":false,"internalType":"struct RateLimiter.Config","components":[{"name":"isEnabled","type":"bool","internalType":"bool"},{"name":"capacity","type":"uint128","internalType":"uint128"},{"name":"rate","type":"uint128","internalType":"uint128"}]}],"anonymous":false},{"type":"event","name":"ChainConfigured","inputs":[{"name":"remoteChainSelector","type":"uint64","indexed":false,"internalType":"uint64"},{"name":"outboundRateLimiterConfig","type":"tuple","indexed":false,"internalType":"struct RateLimiter.Config","components":[{"name":"isEnabled","type":"bool","internalType":"bool"},{"name":"capacity","type":"uint128","internalType":"uint128"},{"name":"rate","type":"uint128","internalType":"uint128"}]},{"name":"inboundRateLimiterConfig","type":"tuple","indexed":false,"internalType":"struct RateLimiter.Config","components":[{"name":"isEnabled","type":"bool","internalType":"bool"},{"name":"capacity","type":"uint128","internalType":"uint128"},{"name":"rate","type":"uint128","internalType":"uint128"}]}],"anonymous":false},{"type":"event","name":"ChainRemoved","inputs":[{"name":"remoteChainSelector","type":"uint64","indexed":false,"internalType":"uint64"}],"anonymous":false},{"type":"event","name":"ConfigChanged","inputs":[{"name":"config","type":"tuple","indexed":false,"internalType":"struct RateLimiter.Config","components":[{"name":"isEnabled","type":"bool","internalType":"bool"},{"name":"capacity","type":"uint128","internalType":"uint128"},{"name":"rate","type":"uint128","internalType":"uint128"}]}],"anonymous":false},{"type":"event","name":"LegacyPoolChanged","inputs":[{"name":"oldPool","type":"address","indexed":false,"internalType":"contract IPoolPriorTo1_5"},{"name":"newPool","type":"address","indexed":false,"internalType":"contract IPoolPriorTo1_5"}],"anonymous":false},{"type":"event","name":"LiquidityAdded","inputs":[{"name":"provider","type":"address","indexed":true,"internalType":"address"},{"name":"amount","type":"uint256","indexed":true,"internalType":"uint256"}],"anonymous":false},{"type":"event","name":"LiquidityRemoved","inputs":[{"name":"provider","type":"address","indexed":true,"internalType":"address"},{"name":"amount","type":"uint256","indexed":true,"internalType":"uint256"}],"anonymous":false},{"type":"event","name":"Locked","inputs":[{"name":"sender","type":"address","indexed":true,"internalType":"address"},{"name":"amount","type":"uint256","indexed":false,"internalType":"uint256"}],"anonymous":false},{"type":"event","name":"Minted","inputs":[{"name":"sender","type":"address","indexed":true,"internalType":"address"},{"name":"recipient","type":"address","indexed":true,"internalType":"address"},{"name":"amount","type":"uint256","indexed":false,"internalType":"uint256"}],"anonymous":false},{"type":"event","name":"OwnershipTransferRequested","inputs":[{"name":"from","type":"address","indexed":true,"internalType":"address"},{"name":"to","type":"address","indexed":true,"internalType":"address"}],"anonymous":false},{"type":"event","name":"OwnershipTransferred","inputs":[{"name":"from","type":"address","indexed":true,"internalType":"address"},{"name":"to","type":"address","indexed":true,"internalType":"address"}],"anonymous":false},{"type":"event","name":"Released","inputs":[{"name":"sender","type":"address","indexed":true,"internalType":"address"},{"name":"recipient","type":"address","indexed":true,"internalType":"address"},{"name":"amount","type":"uint256","indexed":false,"internalType":"uint256"}],"anonymous":false},{"type":"event","name":"RemotePoolSet","inputs":[{"name":"remoteChainSelector","type":"uint64","indexed":true,"internalType":"uint64"},{"name":"previousPoolAddress","type":"bytes","indexed":false,"internalType":"bytes"},{"name":"remotePoolAddress","type":"bytes","indexed":false,"internalType":"bytes"}],"anonymous":false},{"type":"event","name":"RouterUpdated","inputs":[{"name":"oldRouter","type":"address","indexed":false,"internalType":"address"},{"name":"newRouter","type":"address","indexed":false,"internalType":"address"}],"anonymous":false},{"type":"event","name":"TokensConsumed","inputs":[{"name":"tokens","type":"uint256","indexed":false,"internalType":"uint256"}],"anonymous":false},{"type":"error","name":"AggregateValueMaxCapacityExceeded","inputs":[{"name":"capacity","type":"uint256","internalType":"uint256"},{"name":"requested","type":"uint256","internalType":"uint256"}]},{"type":"error","name":"AggregateValueRateLimitReached","inputs":[{"name":"minWaitInSeconds","type":"uint256","internalType":"uint256"},{"name":"available","type":"uint256","internalType":"uint256"}]},{"type":"error","name":"AllowListNotEnabled","inputs":[]},{"type":"error","name":"BucketOverfilled","inputs":[]},{"type":"error","name":"CallerIsNotARampOnRouter","inputs":[{"name":"caller","type":"address","internalType":"address"}]},{"type":"error","name":"ChainAlreadyExists","inputs":[{"name":"chainSelector","type":"uint64","internalType":"uint64"}]},{"type":"error","name":"ChainNotAllowed","inputs":[{"name":"remoteChainSelector","type":"uint64","internalType":"uint64"}]},{"type":"error","name":"CursedByRMN","inputs":[]},{"type":"error","name":"DisabledNonZeroRateLimit","inputs":[{"name":"config","type":"tuple","internalType":"struct RateLimiter.Config","components":[{"name":"isEnabled","type":"bool","internalType":"bool"},{"name":"capacity","type":"uint128","internalType":"uint128"},{"name":"rate","type":"uint128","internalType":"uint128"}]}]},{"type":"error","name":"InsufficientLiquidity","inputs":[]},{"type":"error","name":"InvalidRateLimitRate","inputs":[{"name":"rateLimiterConfig","type":"tuple","internalType":"struct RateLimiter.Config","components":[{"name":"isEnabled","type":"bool","internalType":"bool"},{"name":"capacity","type":"uint128","internalType":"uint128"},{"name":"rate","type":"uint128","internalType":"uint128"}]}]},{"type":"error","name":"InvalidSourcePoolAddress","inputs":[{"name":"sourcePoolAddress","type":"bytes","internalType":"bytes"}]},{"type":"error","name":"InvalidToken","inputs":[{"name":"token","type":"address","internalType":"address"}]},{"type":"error","name":"LiquidityNotAccepted","inputs":[]},{"type":"error","name":"NonExistentChain","inputs":[{"name":"remoteChainSelector","type":"uint64","internalType":"uint64"}]},{"type":"error","name":"RateLimitMustBeDisabled","inputs":[]},{"type":"error","name":"SenderNotAllowed","inputs":[{"name":"sender","type":"address","internalType":"address"}]},{"type":"error","name":"TokenMaxCapacityExceeded","inputs":[{"name":"capacity","type":"uint256","internalType":"uint256"},{"name":"requested","type":"uint256","internalType":"uint256"},{"name":"tokenAddress","type":"address","internalType":"address"}]},{"type":"error","name":"TokenRateLimitReached","inputs":[{"name":"minWaitInSeconds","type":"uint256","internalType":"uint256"},{"name":"available","type":"uint256","internalType":"uint256"},{"name":"tokenAddress","type":"address","internalType":"address"}]},{"type":"error","name":"Unauthorized","inputs":[{"name":"caller","type":"address","internalType":"address"}]},{"type":"error","name":"ZeroAddressNotAllowed","inputs":[]}],"bytecode":{"object":"0x6101006040523480156200001257600080fd5b5060405162006f0838038062006f08833981810160405281019062000038919062000ac9565b8484848383838383338060008073ffffffffffffffffffffffffffffffffffffffff168273ffffffffffffffffffffffffffffffffffffffff1603620000b5576040517f08c379a0000000000000000000000000000000000000000000000000000000008152600401620000ac9062000bd1565b60405180910390fd5b816000806101000a81548173ffffffffffffffffffffffffffffffffffffffff021916908373ffffffffffffffffffffffffffffffffffffffff160217905550600073ffffffffffffffffffffffffffffffffffffffff168173ffffffffffffffffffffffffffffffffffffffff16146200013c576200013b816200035860201b60201c565b5b505050600073ffffffffffffffffffffffffffffffffffffffff168473ffffffffffffffffffffffffffffffffffffffff161480620001a75750600073ffffffffffffffffffffffffffffffffffffffff168173ffffffffffffffffffffffffffffffffffffffff16145b80620001df5750600073ffffffffffffffffffffffffffffffffffffffff168273ffffffffffffffffffffffffffffffffffffffff16145b1562000217576040517f8579befe00000000000000000000000000000000000000000000000000000000815260040160405180910390fd5b8373ffffffffffffffffffffffffffffffffffffffff1660808173ffffffffffffffffffffffffffffffffffffffff16815250508173ffffffffffffffffffffffffffffffffffffffff1660a08173ffffffffffffffffffffffffffffffffffffffff168152505080600460006101000a81548173ffffffffffffffffffffffffffffffffffffffff021916908373ffffffffffffffffffffffffffffffffffffffff1602179055506000835111151560c08115158152505060c05115620003395762000338600067ffffffffffffffff811115620002fb57620002fa620008fc565b5b6040519080825280602002602001820160405280156200032a5781602001602082028036833780820191505090505b50846200048760201b60201c565b5b505050505050505081151560e081151581525050505050505062000d65565b3373ffffffffffffffffffffffffffffffffffffffff168173ffffffffffffffffffffffffffffffffffffffff1603620003c9576040517f08c379a0000000000000000000000000000000000000000000000000000000008152600401620003c09062000c43565b60405180910390fd5b80600160006101000a81548173ffffffffffffffffffffffffffffffffffffffff021916908373ffffffffffffffffffffffffffffffffffffffff1602179055508073ffffffffffffffffffffffffffffffffffffffff1660008054906101000a900473ffffffffffffffffffffffffffffffffffffffff1673ffffffffffffffffffffffffffffffffffffffff167fed8889f560326eb138920d842192f0eb3dd22b4f139c87a2c57538e05bae127860405160405180910390a350565b60c051620004c1576040517f35f4a7b300000000000000000000000000000000000000000000000000000000815260040160405180910390fd5b60005b825181101562000553576000838281518110620004e657620004e562000c65565b5b60200260200101519050620005068160026200062860201b90919060201c565b1562000546577f800671136ab6cfee9fbe5ed1fb7ca417811aca3cf864800d127b927adedf7566816040516200053d919062000ca5565b60405180910390a15b50806001019050620004c4565b5060005b81518110156200062357600082828151811062000579576200057862000c65565b5b60200260200101519050600073ffffffffffffffffffffffffffffffffffffffff168173ffffffffffffffffffffffffffffffffffffffff1603620005bf575062000617565b620005d58160026200066060201b90919060201c565b1562000615577f2640d4d76caf8bf478aabfa982fa4e1c4eb71a37f93cd15e80dbc657911546d8816040516200060c919062000ca5565b60405180910390a15b505b80600101905062000557565b505050565b600062000658836000018373ffffffffffffffffffffffffffffffffffffffff1660001b6200069860201b60201c565b905092915050565b600062000690836000018373ffffffffffffffffffffffffffffffffffffffff1660001b620007bc60201b60201c565b905092915050565b60008083600101600084815260200190815260200160002054905060008114620007b0576000600182620006cd919062000cfb565b9050600060018660000180549050620006e7919062000cfb565b90508181146200075d5760008660000182815481106200070c576200070b62000c65565b5b906000526020600020015490508087600001848154811062000733576200073262000c65565b5b90600052602060002001819055508387600101600083815260200190815260200160002081905550505b8560000180548062000774576200077362000d36565b5b600190038181906000526020600020016000905590558560010160008681526020019081526020016000206000905560019350505050620007b6565b60009150505b92915050565b6000620007d083836200083660201b60201c565b6200082b57826000018290806001815401808255809150506001900390600052602060002001600090919091909150558260000180549050836001016000848152602001908152602001600020819055506001905062000830565b600090505b92915050565b600080836001016000848152602001908152602001600020541415905092915050565b6000604051905090565b600080fd5b600080fd5b600073ffffffffffffffffffffffffffffffffffffffff82169050919050565b60006200089a826200086d565b9050919050565b6000620008ae826200088d565b9050919050565b620008c081620008a1565b8114620008cc57600080fd5b50565b600081519050620008e081620008b5565b92915050565b600080fd5b6000601f19601f8301169050919050565b7f4e487b7100000000000000000000000000000000000000000000000000000000600052604160045260246000fd5b6200093682620008eb565b810181811067ffffffffffffffff82111715620009585762000957620008fc565b5b80604052505050565b60006200096d62000859565b90506200097b82826200092b565b919050565b600067ffffffffffffffff8211156200099e576200099d620008fc565b5b602082029050602081019050919050565b600080fd5b620009bf816200088d565b8114620009cb57600080fd5b50565b600081519050620009df81620009b4565b92915050565b6000620009fc620009f68462000980565b62000961565b9050808382526020820190506020840283018581111562000a225762000a21620009af565b5b835b8181101562000a4f578062000a3a8882620009ce565b84526020840193505060208101905062000a24565b5050509392505050565b600082601f83011262000a715762000a70620008e6565b5b815162000a83848260208601620009e5565b91505092915050565b60008115159050919050565b62000aa38162000a8c565b811462000aaf57600080fd5b50565b60008151905062000ac38162000a98565b92915050565b600080600080600060a0868803121562000ae85762000ae762000863565b5b600062000af888828901620008cf565b955050602086015167ffffffffffffffff81111562000b1c5762000b1b62000868565b5b62000b2a8882890162000a59565b945050604062000b3d88828901620009ce565b935050606062000b508882890162000ab2565b925050608062000b6388828901620009ce565b9150509295509295909350565b600082825260208201905092915050565b7f43616e6e6f7420736574206f776e657220746f207a65726f0000000000000000600082015250565b600062000bb960188362000b70565b915062000bc68262000b81565b602082019050919050565b6000602082019050818103600083015262000bec8162000baa565b9050919050565b7f43616e6e6f74207472616e7366657220746f2073656c66000000000000000000600082015250565b600062000c2b60178362000b70565b915062000c388262000bf3565b602082019050919050565b6000602082019050818103600083015262000c5e8162000c1c565b9050919050565b7f4e487b7100000000000000000000000000000000000000000000000000000000600052603260045260246000fd5b62000c9f816200088d565b82525050565b600060208201905062000cbc600083018462000c94565b92915050565b6000819050919050565b7f4e487b7100000000000000000000000000000000000000000000000000000000600052601160045260246000fd5b600062000d088262000cc2565b915062000d158362000cc2565b925082820390508181111562000d305762000d2f62000ccc565b5b92915050565b7f4e487b7100000000000000000000000000000000000000000000000000000000600052603160045260246000fd5b60805160a05160c05160e05161611562000df36000396000818161153b015261214201526000818161211c015281816127d5015261345b0152600081816120f4015281816124cc01526129e901526000818161086e01528181610945015281816109f001528181610a180152818161223101528181612b250152818161337a015261363a01526161156000f3fe608060405234801561001057600080fd5b50600436106102065760003560e01c80639766b9321161011a578063c0d78655116100ad578063db6327dc1161007c578063db6327dc14610613578063dc0bd9711461062f578063e0351e131461064d578063eb521a4c1461066b578063f2fde38b1461068757610206565b8063c0d786551461058d578063c4bffe2b146105a9578063c75eea9c146105c7578063cf7401f3146105f757610206565b8063af58d59f116100e9578063af58d59f146104f1578063b0f479a114610521578063b79465801461053f578063bb98546b1461056f57610206565b80639766b932146104575780639a4575b914610473578063a7cd63b7146104a3578063a8d87a3b146104c157610206565b806354c8a4f31161019d57806379ba50971161016c57806379ba5097146103b35780637d54534e146103bd57806383826b2b146103d95780638926f54f146104095780638da5cb5b1461043957610206565b806354c8a4f3146103415780636cfd15531461035d5780636d3d1a581461037957806378a010b21461039757610206565b806321df0da7116101d957806321df0da7146102a5578063240028e8146102c357806339077537146102f3578063432a6ba31461032357610206565b806301ffc9a71461020b5780630a2fd4931461023b5780630a861f2a1461026b578063181f5a7714610287575b600080fd5b6102256004803603810190610220919061427d565b6106a3565b60405161023291906142c5565b60405180910390f35b61025560048036038101906102509190614320565b61071d565b60405161026291906143dd565b60405180910390f35b61028560048036038101906102809190614435565b6107d9565b005b61028f6109d0565b60405161029c91906144b7565b60405180910390f35b6102ad6109ec565b6040516102ba9190614558565b60405180910390f35b6102dd60048036038101906102d891906145b1565b610a14565b6040516102ea91906142c5565b60405180910390f35b61030d60048036038101906103089190614603565b610a6c565b60405161031a9190614677565b60405180910390f35b61032b610b75565b60405161033891906146a1565b60405180910390f35b61035b60048036038101906103569190614721565b610b9f565b005b610377600480360381019061037291906145b1565b610c39565b005b610381610c85565b60405161038e91906146a1565b60405180910390f35b6103b160048036038101906103ac91906147f8565b610caf565b005b6103bb610e3e565b005b6103d760048036038101906103d291906145b1565b610fd3565b005b6103f360048036038101906103ee9190614858565b61101f565b60405161040091906142c5565b60405180910390f35b610423600480360381019061041e9190614320565b6110fd565b60405161043091906142c5565b60405180910390f35b610441611124565b60405161044e91906146a1565b60405180910390f35b610471600480360381019061046c91906148d6565b61114d565b005b61048d60048036038101906104889190614922565b6111fa565b60405161049a91906149f9565b60405180910390f35b6104ab6112cb565b6040516104b89190614ad9565b60405180910390f35b6104db60048036038101906104d69190614320565b6112dc565b6040516104e891906146a1565b60405180910390f35b61050b60048036038101906105069190614320565b6112e6565b6040516105189190614bbc565b60405180910390f35b610529611451565b60405161053691906146a1565b60405180910390f35b61055960048036038101906105549190614320565b61147b565b60405161056691906143dd565b60405180910390f35b610577611537565b60405161058491906142c5565b60405180910390f35b6105a760048036038101906105a291906145b1565b61155f565b005b6105b1611672565b6040516105be9190614c95565b60405180910390f35b6105e160048036038101906105dc9190614320565b611740565b6040516105ee9190614bbc565b60405180910390f35b610611600480360381019061060c9190614df8565b6118ab565b005b61062d60048036038101906106289190614ea1565b61198e565b005b6106376120f0565b60405161064491906146a1565b60405180910390f35b610655612118565b60405161066291906142c5565b60405180910390f35b61068560048036038101906106809190614435565b612140565b005b6106a1600480360381019061069c91906145b1565b6122bd565b005b60007fe1d40566000000000000000000000000000000000000000000000000000000007bffffffffffffffffffffffffffffffffffffffffffffffffffffffff1916827bffffffffffffffffffffffffffffffffffffffffffffffffffffffff191614806107165750610715826122d1565b5b9050919050565b6060600760008367ffffffffffffffff1667ffffffffffffffff168152602001908152602001600020600401805461075490614f1d565b80601f016020809104026020016040519081016040528092919081815260200182805461078090614f1d565b80156107cd5780601f106107a2576101008083540402835291602001916107cd565b820191906000526020600020905b8154815290600101906020018083116107b057829003601f168201915b50505050509050919050565b3373ffffffffffffffffffffffffffffffffffffffff16600960009054906101000a900473ffffffffffffffffffffffffffffffffffffffff1673ffffffffffffffffffffffffffffffffffffffff161461086b57336040517f8e4a23d600000000000000000000000000000000000000000000000000000000815260040161086291906146a1565b60405180910390fd5b807f000000000000000000000000000000000000000000000000000000000000000073ffffffffffffffffffffffffffffffffffffffff166370a08231306040518263ffffffff1660e01b81526004016108c591906146a1565b602060405180830381865afa1580156108e2573d6000803e3d6000fd5b505050506040513d601f19601f820116820180604052508101906109069190614f63565b101561093e576040517fbb55fd2700000000000000000000000000000000000000000000000000000000815260040160405180910390fd5b61098933827f000000000000000000000000000000000000000000000000000000000000000073ffffffffffffffffffffffffffffffffffffffff166123f29092919063ffffffff16565b803373ffffffffffffffffffffffffffffffffffffffff167fc2c3f06e49b9f15e7b4af9055e183b0d73362e033ad82a07dec9bf984017171960405160405180910390a350565b6040518060600160405280602681526020016160e36026913981565b60007f0000000000000000000000000000000000000000000000000000000000000000905090565b60007f000000000000000000000000000000000000000000000000000000000000000073ffffffffffffffffffffffffffffffffffffffff168273ffffffffffffffffffffffffffffffffffffffff16149050919050565b610a7461411a565b610a8682610a819061517f565b612478565b610a8e612648565b610acd57610ac8338360600135610aa36109ec565b73ffffffffffffffffffffffffffffffffffffffff166123f29092919063ffffffff16565b610ae0565b610adf82610ada9061517f565b6126a1565b5b816040016020810190610af391906145b1565b73ffffffffffffffffffffffffffffffffffffffff163373ffffffffffffffffffffffffffffffffffffffff167f2d87480f50083e2b2759522a8fdda59802650a8055e609a7772cf70c07748f528460600135604051610b5391906151a1565b60405180910390a3604051806020016040528083606001358152509050919050565b6000600960009054906101000a900473ffffffffffffffffffffffffffffffffffffffff16905090565b610ba7612743565b610c33848480806020026020016040519081016040528093929190818152602001838360200280828437600081840152601f19601f82011690508083019250505050505050838380806020026020016040519081016040528093929190818152602001838360200280828437600081840152601f19601f820116905080830192505050505050506127d3565b50505050565b610c41612743565b80600960006101000a81548173ffffffffffffffffffffffffffffffffffffffff021916908373ffffffffffffffffffffffffffffffffffffffff16021790555050565b6000600a60009054906101000a900473ffffffffffffffffffffffffffffffffffffffff16905090565b610cb7612743565b610cc0836110fd565b610d0157826040517f1e670e4b000000000000000000000000000000000000000000000000000000008152600401610cf891906151cb565b60405180910390fd5b6000600760008567ffffffffffffffff1667ffffffffffffffff1681526020019081526020016000206004018054610d3890614f1d565b80601f0160208091040260200160405190810160405280929190818152602001828054610d6490614f1d565b8015610db15780601f10610d8657610100808354040283529160200191610db1565b820191906000526020600020905b815481529060010190602001808311610d9457829003601f168201915b505050505090508282600760008767ffffffffffffffff1667ffffffffffffffff1681526020019081526020016000206004019182610df1929190615393565b508367ffffffffffffffff167fdb4d6220746a38cbc5335f7e108f7de80f482f4d23350253dfd0917df75a14bf828585604051610e3093929190615490565b60405180910390a250505050565b600160009054906101000a900473ffffffffffffffffffffffffffffffffffffffff1673ffffffffffffffffffffffffffffffffffffffff163373ffffffffffffffffffffffffffffffffffffffff1614610ece576040517f08c379a0000000000000000000000000000000000000000000000000000000008152600401610ec590615515565b60405180910390fd5b60008060009054906101000a900473ffffffffffffffffffffffffffffffffffffffff169050336000806101000a81548173ffffffffffffffffffffffffffffffffffffffff021916908373ffffffffffffffffffffffffffffffffffffffff1602179055506000600160006101000a81548173ffffffffffffffffffffffffffffffffffffffff021916908373ffffffffffffffffffffffffffffffffffffffff1602179055503373ffffffffffffffffffffffffffffffffffffffff168173ffffffffffffffffffffffffffffffffffffffff167f8be0079c531659141344cd1fd0a4f28419497f9722a3daafe3b4186f6b6457e060405160405180910390a350565b610fdb612743565b80600a60006101000a81548173ffffffffffffffffffffffffffffffffffffffff021916908373ffffffffffffffffffffffffffffffffffffffff16021790555050565b60003073ffffffffffffffffffffffffffffffffffffffff168273ffffffffffffffffffffffffffffffffffffffff1614806110f55750600460009054906101000a900473ffffffffffffffffffffffffffffffffffffffff1673ffffffffffffffffffffffffffffffffffffffff166383826b2b84846040518363ffffffff1660e01b81526004016110b3929190615535565b602060405180830381865afa1580156110d0573d6000803e3d6000fd5b505050506040513d601f19601f820116820180604052508101906110f49190615573565b5b905092915050565b600061111d8267ffffffffffffffff16600561297b90919063ffffffff16565b9050919050565b60008060009054906101000a900473ffffffffffffffffffffffffffffffffffffffff16905090565b611155612743565b6000600860009054906101000a900473ffffffffffffffffffffffffffffffffffffffff16905081600860006101000a81548173ffffffffffffffffffffffffffffffffffffffff021916908373ffffffffffffffffffffffffffffffffffffffff1602179055507f81accd0a7023865eaa51b3399dd0eafc488bf3ba238402911e1659cfe860f22881836040516111ee9291906155c1565b60405180910390a15050565b61120261412d565b6112148261120f90615692565b612995565b61121c612648565b15611234576112338261122e90615692565b612af8565b5b3373ffffffffffffffffffffffffffffffffffffffff167f9f1ec8c880f76798e7b793325d625e9b60e4082a553c98f42b6cda368dd60008836060013560405161127e91906151a1565b60405180910390a260405180604001604052806112ac8460200160208101906112a79190614320565b61147b565b8152602001604051806020016040528060008152508152509050919050565b60606112d76002612c26565b905090565b6000309050919050565b6112ee614147565b61144a600760008467ffffffffffffffff1667ffffffffffffffff1681526020019081526020016000206002016040518060a00160405290816000820160009054906101000a90046fffffffffffffffffffffffffffffffff166fffffffffffffffffffffffffffffffff166fffffffffffffffffffffffffffffffff1681526020016000820160109054906101000a900463ffffffff1663ffffffff1663ffffffff1681526020016000820160149054906101000a900460ff161515151581526020016001820160009054906101000a90046fffffffffffffffffffffffffffffffff166fffffffffffffffffffffffffffffffff166fffffffffffffffffffffffffffffffff1681526020016001820160109054906101000a90046fffffffffffffffffffffffffffffffff166fffffffffffffffffffffffffffffffff166fffffffffffffffffffffffffffffffff1681525050612c47565b9050919050565b6000600460009054906101000a900473ffffffffffffffffffffffffffffffffffffffff16905090565b6060600760008367ffffffffffffffff1667ffffffffffffffff16815260200190815260200160002060050180546114b290614f1d565b80601f01602080910402602001604051908101604052809291908181526020018280546114de90614f1d565b801561152b5780601f106115005761010080835404028352916020019161152b565b820191906000526020600020905b81548152906001019060200180831161150e57829003601f168201915b50505050509050919050565b60007f0000000000000000000000000000000000000000000000000000000000000000905090565b611567612743565b600073ffffffffffffffffffffffffffffffffffffffff168173ffffffffffffffffffffffffffffffffffffffff16036115cd576040517f8579befe00000000000000000000000000000000000000000000000000000000815260040160405180910390fd5b6000600460009054906101000a900473ffffffffffffffffffffffffffffffffffffffff16905081600460006101000a81548173ffffffffffffffffffffffffffffffffffffffff021916908373ffffffffffffffffffffffffffffffffffffffff1602179055507f02dc5c233404867c793b749c6d644beb2277536d18a7e7974d3f238e4c6f168481836040516116669291906156a5565b60405180910390a15050565b606060006116806005612d01565b90506000815167ffffffffffffffff81111561169f5761169e614cbc565b5b6040519080825280602002602001820160405280156116cd5781602001602082028036833780820191505090505b50905060005b8251811015611737578281815181106116ef576116ee6156ce565b5b602002602001015182828151811061170a576117096156ce565b5b602002602001019067ffffffffffffffff16908167ffffffffffffffff16815250508060010190506116d3565b50809250505090565b611748614147565b6118a4600760008467ffffffffffffffff1667ffffffffffffffff1681526020019081526020016000206000016040518060a00160405290816000820160009054906101000a90046fffffffffffffffffffffffffffffffff166fffffffffffffffffffffffffffffffff166fffffffffffffffffffffffffffffffff1681526020016000820160109054906101000a900463ffffffff1663ffffffff1663ffffffff1681526020016000820160149054906101000a900460ff161515151581526020016001820160009054906101000a90046fffffffffffffffffffffffffffffffff166fffffffffffffffffffffffffffffffff166fffffffffffffffffffffffffffffffff1681526020016001820160109054906101000a90046fffffffffffffffffffffffffffffffff166fffffffffffffffffffffffffffffffff166fffffffffffffffffffffffffffffffff1681525050612c47565b9050919050565b600a60009054906101000a900473ffffffffffffffffffffffffffffffffffffffff1673ffffffffffffffffffffffffffffffffffffffff163373ffffffffffffffffffffffffffffffffffffffff161415801561193c575061190c611124565b73ffffffffffffffffffffffffffffffffffffffff163373ffffffffffffffffffffffffffffffffffffffff1614155b1561197e57336040517f8e4a23d600000000000000000000000000000000000000000000000000000000815260040161197591906146a1565b60405180910390fd5b611989838383612d22565b505050565b611996612743565b60005b828290508110156120eb5760008383838181106119b9576119b86156ce565b5b90506020028101906119cb9190615702565b6119d490615804565b90506119e98160800151826020015115612e3a565b6119fc8160a00151826020015115612e3a565b806020015115611eb857611a28816000015167ffffffffffffffff166005612f9890919063ffffffff16565b611a6d5780600001516040517f1d5ad3c5000000000000000000000000000000000000000000000000000000008152600401611a6491906151cb565b60405180910390fd5b60008160400151511480611a8657506000816060015151145b15611abd576040517f8579befe00000000000000000000000000000000000000000000000000000000815260040160405180910390fd5b60405180608001604052806040518060a001604052808460800151602001516fffffffffffffffffffffffffffffffff1681526020014263ffffffff168152602001846080015160000151151581526020018460800151602001516fffffffffffffffffffffffffffffffff1681526020018460800151604001516fffffffffffffffffffffffffffffffff1681525081526020016040518060a001604052808460a00151602001516fffffffffffffffffffffffffffffffff1681526020014263ffffffff1681526020018460a0015160000151151581526020018460a00151602001516fffffffffffffffffffffffffffffffff1681526020018460a00151604001516fffffffffffffffffffffffffffffffff16815250815260200182604001518152602001826060015181525060076000836000015167ffffffffffffffff1667ffffffffffffffff16815260200190815260200160002060008201518160000160008201518160000160006101000a8154816fffffffffffffffffffffffffffffffff02191690836fffffffffffffffffffffffffffffffff16021790555060208201518160000160106101000a81548163ffffffff021916908363ffffffff16021790555060408201518160000160146101000a81548160ff02191690831515021790555060608201518160010160006101000a8154816fffffffffffffffffffffffffffffffff02191690836fffffffffffffffffffffffffffffffff16021790555060808201518160010160106101000a8154816fffffffffffffffffffffffffffffffff02191690836fffffffffffffffffffffffffffffffff160217905550505060208201518160020160008201518160000160006101000a8154816fffffffffffffffffffffffffffffffff02191690836fffffffffffffffffffffffffffffffff16021790555060208201518160000160106101000a81548163ffffffff021916908363ffffffff16021790555060408201518160000160146101000a81548160ff02191690831515021790555060608201518160010160006101000a8154816fffffffffffffffffffffffffffffffff02191690836fffffffffffffffffffffffffffffffff16021790555060808201518160010160106101000a8154816fffffffffffffffffffffffffffffffff02191690836fffffffffffffffffffffffffffffffff16021790555050506040820151816004019081611e4c9190615817565b506060820151816005019081611e629190615817565b509050507f8d340f17e19058004c20453540862a9c62778504476f6756755cb33bcd6c38c28160000151826060015183608001518460a00151604051611eab949392919061592b565b60405180910390a16120df565b611eda816000015167ffffffffffffffff166005612fb290919063ffffffff16565b611f1f5780600001516040517f1e670e4b000000000000000000000000000000000000000000000000000000008152600401611f1691906151cb565b60405180910390fd5b60076000826000015167ffffffffffffffff1667ffffffffffffffff1681526020019081526020016000206000808201600080820160006101000a8154906fffffffffffffffffffffffffffffffff02191690556000820160106101000a81549063ffffffff02191690556000820160146101000a81549060ff02191690556001820160006101000a8154906fffffffffffffffffffffffffffffffff02191690556001820160106101000a8154906fffffffffffffffffffffffffffffffff0219169055505060028201600080820160006101000a8154906fffffffffffffffffffffffffffffffff02191690556000820160106101000a81549063ffffffff02191690556000820160146101000a81549060ff02191690556001820160006101000a8154906fffffffffffffffffffffffffffffffff02191690556001820160106101000a8154906fffffffffffffffffffffffffffffffff0219169055505060048201600061209191906141b4565b6005820160006120a191906141b4565b50507f5204aec90a3c794d8e90fded8b46ae9c7c552803e7e832e0c1d358396d85991681600001516040516120d691906151cb565b60405180910390a15b50806001019050611999565b505050565b60007f0000000000000000000000000000000000000000000000000000000000000000905090565b60007f0000000000000000000000000000000000000000000000000000000000000000905090565b7f0000000000000000000000000000000000000000000000000000000000000000612197576040517fe93f8fa400000000000000000000000000000000000000000000000000000000815260040160405180910390fd5b3373ffffffffffffffffffffffffffffffffffffffff16600960009054906101000a900473ffffffffffffffffffffffffffffffffffffffff1673ffffffffffffffffffffffffffffffffffffffff161461222957336040517f8e4a23d600000000000000000000000000000000000000000000000000000000815260040161222091906146a1565b60405180910390fd5b6122763330837f000000000000000000000000000000000000000000000000000000000000000073ffffffffffffffffffffffffffffffffffffffff16612fcc909392919063ffffffff16565b803373ffffffffffffffffffffffffffffffffffffffff167fc17cea59c2955cb181b03393209566960365771dbba9dc3d510180e7cb31208860405160405180910390a350565b6122c5612743565b6122ce81613055565b50565b600063aff2afbf60e01b7bffffffffffffffffffffffffffffffffffffffffffffffffffffffff1916827bffffffffffffffffffffffffffffffffffffffffffffffffffffffff1916148061238357507f0e64dd29000000000000000000000000000000000000000000000000000000007bffffffffffffffffffffffffffffffffffffffffffffffffffffffff1916827bffffffffffffffffffffffffffffffffffffffffffffffffffffffff1916145b806123eb57507f01ffc9a7000000000000000000000000000000000000000000000000000000007bffffffffffffffffffffffffffffffffffffffffffffffffffffffff1916827bffffffffffffffffffffffffffffffffffffffffffffffffffffffff1916145b9050919050565b6124738363a9059cbb60e01b8484604051602401612411929190615978565b604051602081830303815290604052907bffffffffffffffffffffffffffffffffffffffffffffffffffffffff19166020820180517bffffffffffffffffffffffffffffffffffffffffffffffffffffffff8381831617835250505050613181565b505050565b6124858160800151610a14565b6124ca5780608001516040517f961c9a4f0000000000000000000000000000000000000000000000000000000081526004016124c191906146a1565b60405180910390fd5b7f000000000000000000000000000000000000000000000000000000000000000073ffffffffffffffffffffffffffffffffffffffff16632cbc26bb826020015167ffffffffffffffff1660801b6040518263ffffffff1660e01b815260040161253491906159dc565b602060405180830381865afa158015612551573d6000803e3d6000fd5b505050506040513d601f19601f820116820180604052508101906125759190615573565b156125ac576040517f53ad11d800000000000000000000000000000000000000000000000000000000815260040160405180910390fd5b6125b98160200151613248565b60006125c8826020015161071d565b90506000815114806125ec575080805190602001208260a001518051906020012014155b15612632578160a001516040517f24eb47e500000000000000000000000000000000000000000000000000000000815260040161262991906143dd565b60405180910390fd5b61264482602001518360600151613374565b5050565b60008073ffffffffffffffffffffffffffffffffffffffff16600860009054906101000a900473ffffffffffffffffffffffffffffffffffffffff1673ffffffffffffffffffffffffffffffffffffffff161415905090565b600860009054906101000a900473ffffffffffffffffffffffffffffffffffffffff1673ffffffffffffffffffffffffffffffffffffffff16638627fad6826000015133846060015185602001516040518563ffffffff1660e01b815260040161270e9493929190615a1d565b600060405180830381600087803b15801561272857600080fd5b505af115801561273c573d6000803e3d6000fd5b5050505050565b60008054906101000a900473ffffffffffffffffffffffffffffffffffffffff1673ffffffffffffffffffffffffffffffffffffffff163373ffffffffffffffffffffffffffffffffffffffff16146127d1576040517f08c379a00000000000000000000000000000000000000000000000000000000081526004016127c890615ac8565b60405180910390fd5b565b7f000000000000000000000000000000000000000000000000000000000000000061282a576040517f35f4a7b300000000000000000000000000000000000000000000000000000000815260040160405180910390fd5b60005b82518110156128b257600083828151811061284b5761284a6156ce565b5b602002602001015190506128698160026133d690919063ffffffff16565b156128a6577f800671136ab6cfee9fbe5ed1fb7ca417811aca3cf864800d127b927adedf75668160405161289d91906146a1565b60405180910390a15b5080600101905061282d565b5060005b81518110156129765760008282815181106128d4576128d36156ce565b5b60200260200101519050600073ffffffffffffffffffffffffffffffffffffffff168173ffffffffffffffffffffffffffffffffffffffff1603612918575061296b565b61292c81600261340690919063ffffffff16565b15612969577f2640d4d76caf8bf478aabfa982fa4e1c4eb71a37f93cd15e80dbc657911546d88160405161296091906146a1565b60405180910390a15b505b8060010190506128b6565b505050565b600061298d836000018360001b613436565b905092915050565b6129a28160800151610a14565b6129e75780608001516040517f961c9a4f0000000000000000000000000000000000000000000000000000000081526004016129de91906146a1565b60405180910390fd5b7f000000000000000000000000000000000000000000000000000000000000000073ffffffffffffffffffffffffffffffffffffffff16632cbc26bb826020015167ffffffffffffffff1660801b6040518263ffffffff1660e01b8152600401612a5191906159dc565b602060405180830381865afa158015612a6e573d6000803e3d6000fd5b505050506040513d601f19601f82011682018060405250810190612a929190615573565b15612ac9576040517f53ad11d800000000000000000000000000000000000000000000000000000000815260040160405180910390fd5b612ad68160400151613459565b612ae381602001516134dc565b612af581602001518260600151613634565b50565b612b69600860009054906101000a900473ffffffffffffffffffffffffffffffffffffffff1682606001517f000000000000000000000000000000000000000000000000000000000000000073ffffffffffffffffffffffffffffffffffffffff166123f29092919063ffffffff16565b600860009054906101000a900473ffffffffffffffffffffffffffffffffffffffff1673ffffffffffffffffffffffffffffffffffffffff16639687544582604001518360000151846060015185602001516040518563ffffffff1660e01b8152600401612bda9493929190615ae8565b6000604051808303816000875af1158015612bf9573d6000803e3d6000fd5b505050506040513d6000823e3d601f19601f82011682018060405250810190612c229190615bb7565b5050565b60606000612c3683600001613696565b905060608190508092505050919050565b612c4f614147565b612cb282606001516fffffffffffffffffffffffffffffffff1683600001516fffffffffffffffffffffffffffffffff16846020015163ffffffff1642612c969190615c2f565b85608001516fffffffffffffffffffffffffffffffff166136f2565b82600001906fffffffffffffffffffffffffffffffff1690816fffffffffffffffffffffffffffffffff168152505042826020019063ffffffff16908163ffffffff1681525050819050919050565b60606000612d1183600001613696565b905060608190508092505050919050565b612d2b836110fd565b612d6c57826040517f1e670e4b000000000000000000000000000000000000000000000000000000008152600401612d6391906151cb565b60405180910390fd5b612d77826000612e3a565b612db382600760008667ffffffffffffffff1667ffffffffffffffff16815260200190815260200160002060000161371e90919063ffffffff16565b612dbe816000612e3a565b612dfa81600760008667ffffffffffffffff1667ffffffffffffffff16815260200190815260200160002060020161371e90919063ffffffff16565b7f0350d63aa5f270e01729d00d627eeb8f3429772b1818c016c66a588a864f912b838383604051612e2d93929190615c63565b60405180910390a1505050565b816000015115612f145781602001516fffffffffffffffffffffffffffffffff1682604001516fffffffffffffffffffffffffffffffff16101580612e955750600082604001516fffffffffffffffffffffffffffffffff16145b15612ed757816040517f8020d124000000000000000000000000000000000000000000000000000000008152600401612ece9190615c9a565b60405180910390fd5b8015612f0f576040517f433fc33d00000000000000000000000000000000000000000000000000000000815260040160405180910390fd5b612f94565b600082604001516fffffffffffffffffffffffffffffffff16141580612f515750600082602001516fffffffffffffffffffffffffffffffff1614155b15612f9357816040517fd68af9cc000000000000000000000000000000000000000000000000000000008152600401612f8a9190615c9a565b60405180910390fd5b5b5050565b6000612faa836000018360001b6139b6565b905092915050565b6000612fc4836000018360001b613a26565b905092915050565b61304f846323b872dd60e01b858585604051602401612fed93929190615cb5565b604051602081830303815290604052907bffffffffffffffffffffffffffffffffffffffffffffffffffffffff19166020820180517bffffffffffffffffffffffffffffffffffffffffffffffffffffffff8381831617835250505050613181565b50505050565b3373ffffffffffffffffffffffffffffffffffffffff168173ffffffffffffffffffffffffffffffffffffffff16036130c3576040517f08c379a00000000000000000000000000000000000000000000000000000000081526004016130ba90615d38565b60405180910390fd5b80600160006101000a81548173ffffffffffffffffffffffffffffffffffffffff021916908373ffffffffffffffffffffffffffffffffffffffff1602179055508073ffffffffffffffffffffffffffffffffffffffff1660008054906101000a900473ffffffffffffffffffffffffffffffffffffffff1673ffffffffffffffffffffffffffffffffffffffff167fed8889f560326eb138920d842192f0eb3dd22b4f139c87a2c57538e05bae127860405160405180910390a350565b60006131e3826040518060400160405280602081526020017f5361666545524332303a206c6f772d6c6576656c2063616c6c206661696c65648152508573ffffffffffffffffffffffffffffffffffffffff16613b3a9092919063ffffffff16565b905060008151111561324357808060200190518101906132039190615573565b613242576040517f08c379a000000000000000000000000000000000000000000000000000000000815260040161323990615dca565b60405180910390fd5b5b505050565b613251816110fd565b61329257806040517fa9902c7e00000000000000000000000000000000000000000000000000000000815260040161328991906151cb565b60405180910390fd5b600460009054906101000a900473ffffffffffffffffffffffffffffffffffffffff1673ffffffffffffffffffffffffffffffffffffffff166383826b2b82336040518363ffffffff1660e01b81526004016132ef929190615535565b602060405180830381865afa15801561330c573d6000803e3d6000fd5b505050506040513d601f19601f820116820180604052508101906133309190615573565b61337157336040517f728fe07b00000000000000000000000000000000000000000000000000000000815260040161336891906146a1565b60405180910390fd5b50565b6133d2817f0000000000000000000000000000000000000000000000000000000000000000600760008667ffffffffffffffff1667ffffffffffffffff168152602001908152602001600020600201613b529092919063ffffffff16565b5050565b60006133fe836000018373ffffffffffffffffffffffffffffffffffffffff1660001b613a26565b905092915050565b600061342e836000018373ffffffffffffffffffffffffffffffffffffffff1660001b6139b6565b905092915050565b600080836001016000848152602001908152602001600020541415905092915050565b7f000000000000000000000000000000000000000000000000000000000000000080156134975750613495816002613f1c90919063ffffffff16565b155b156134d957806040517fd0d259760000000000000000000000000000000000000000000000000000000081526004016134d091906146a1565b60405180910390fd5b50565b6134e5816110fd565b61352657806040517fa9902c7e00000000000000000000000000000000000000000000000000000000815260040161351d91906151cb565b60405180910390fd5b600460009054906101000a900473ffffffffffffffffffffffffffffffffffffffff1673ffffffffffffffffffffffffffffffffffffffff1663a8d87a3b826040518263ffffffff1660e01b815260040161358191906151cb565b602060405180830381865afa15801561359e573d6000803e3d6000fd5b505050506040513d601f19601f820116820180604052508101906135c29190615dff565b73ffffffffffffffffffffffffffffffffffffffff163373ffffffffffffffffffffffffffffffffffffffff161461363157336040517f728fe07b00000000000000000000000000000000000000000000000000000000815260040161362891906146a1565b60405180910390fd5b50565b613692817f0000000000000000000000000000000000000000000000000000000000000000600760008667ffffffffffffffff1667ffffffffffffffff168152602001908152602001600020600001613b529092919063ffffffff16565b5050565b6060816000018054806020026020016040519081016040528092919081815260200182805480156136e657602002820191906000526020600020905b8154815260200190600101908083116136d2575b50505050509050919050565b60006137148583856137049190615e2c565b8661370f9190615e6e565b613f4c565b9050949350505050565b60008260000160109054906101000a900463ffffffff1663ffffffff16426137469190615c2f565b905060008114613850576137f28360010160009054906101000a90046fffffffffffffffffffffffffffffffff166fffffffffffffffffffffffffffffffff168460000160009054906101000a90046fffffffffffffffffffffffffffffffff166fffffffffffffffffffffffffffffffff16838660010160109054906101000a90046fffffffffffffffffffffffffffffffff166fffffffffffffffffffffffffffffffff166136f2565b8360000160006101000a8154816fffffffffffffffffffffffffffffffff02191690836fffffffffffffffffffffffffffffffff160217905550428360000160106101000a81548163ffffffff021916908363ffffffff1602179055505b6138a282602001516fffffffffffffffffffffffffffffffff168460000160009054906101000a90046fffffffffffffffffffffffffffffffff166fffffffffffffffffffffffffffffffff16613f4c565b8360000160006101000a8154816fffffffffffffffffffffffffffffffff02191690836fffffffffffffffffffffffffffffffff16021790555081600001518360000160146101000a81548160ff02191690831515021790555081602001518360010160006101000a8154816fffffffffffffffffffffffffffffffff02191690836fffffffffffffffffffffffffffffffff16021790555081604001518360010160106101000a8154816fffffffffffffffffffffffffffffffff02191690836fffffffffffffffffffffffffffffffff1602179055507f9ea3374b67bf275e6bb9c8ae68f9cae023e1c528b4b27e092f0bb209d3531c19826040516139a99190615c9a565b60405180910390a1505050565b60006139c28383613436565b613a1b578260000182908060018154018082558091505060019003906000526020600020016000909190919091505582600001805490508360010160008481526020019081526020016000208190555060019050613a20565b600090505b92915050565b60008083600101600084815260200190815260200160002054905060008114613b2e576000600182613a589190615c2f565b9050600060018660000180549050613a709190615c2f565b9050818114613adf576000866000018281548110613a9157613a906156ce565b5b9060005260206000200154905080876000018481548110613ab557613ab46156ce565b5b90600052602060002001819055508387600101600083815260200190815260200160002081905550505b85600001805480613af357613af2615ea2565b5b600190038181906000526020600020016000905590558560010160008681526020019081526020016000206000905560019350505050613b34565b60009150505b92915050565b6060613b498484600085613f65565b90509392505050565b8260000160149054906101000a900460ff161580613b705750600082145b613f175760008360000160009054906101000a90046fffffffffffffffffffffffffffffffff166fffffffffffffffffffffffffffffffff16905060008460010160009054906101000a90046fffffffffffffffffffffffffffffffff166fffffffffffffffffffffffffffffffff16905060008560000160109054906101000a900463ffffffff1663ffffffff1642613c0a9190615c2f565b905060008114613cb25781831115613c4e576040517f9725942a00000000000000000000000000000000000000000000000000000000815260040160405180910390fd5b613c8c8284838960010160109054906101000a90046fffffffffffffffffffffffffffffffff166fffffffffffffffffffffffffffffffff166136f2565b9250428660000160106101000a81548163ffffffff021916908363ffffffff1602179055505b84821015613d6e57600073ffffffffffffffffffffffffffffffffffffffff168473ffffffffffffffffffffffffffffffffffffffff1603613d2d5781856040517ff94ebcd1000000000000000000000000000000000000000000000000000000008152600401613d24929190615ed1565b60405180910390fd5b8185856040517f1a76572a000000000000000000000000000000000000000000000000000000008152600401613d6593929190615efa565b60405180910390fd5b84831015613e935760008660010160109054906101000a90046fffffffffffffffffffffffffffffffff166fffffffffffffffffffffffffffffffff169050600081600183613dbd9190615c2f565b8689613dc99190615c2f565b613dd39190615e6e565b613ddd9190615f60565b9050600073ffffffffffffffffffffffffffffffffffffffff168673ffffffffffffffffffffffffffffffffffffffff1603613e525780856040517f15279c08000000000000000000000000000000000000000000000000000000008152600401613e49929190615ed1565b60405180910390fd5b8085876040517fd0c8d23a000000000000000000000000000000000000000000000000000000008152600401613e8a93929190615efa565b60405180910390fd5b8483613e9f9190615c2f565b9250828660000160006101000a8154816fffffffffffffffffffffffffffffffff02191690836fffffffffffffffffffffffffffffffff1602179055507f1871cdf8010e63f2eb8384381a68dfa7416dc571a5517e66e88b2d2d0c0a690a85604051613f0b91906151a1565b60405180910390a15050505b505050565b6000613f44836000018373ffffffffffffffffffffffffffffffffffffffff1660001b613436565b905092915050565b6000818310613f5b5781613f5d565b825b905092915050565b606082471015613faa576040517f08c379a0000000000000000000000000000000000000000000000000000000008152600401613fa190616003565b60405180910390fd5b6000808673ffffffffffffffffffffffffffffffffffffffff168587604051613fd3919061605f565b60006040518083038185875af1925050503d8060008114614010576040519150601f19603f3d011682016040523d82523d6000602084013e614015565b606091505b509150915061402687838387614032565b92505050949350505050565b6060831561409457600083510361408c5761404c856140a7565b61408b576040517f08c379a0000000000000000000000000000000000000000000000000000000008152600401614082906160c2565b60405180910390fd5b5b82905061409f565b61409e83836140ca565b5b949350505050565b6000808273ffffffffffffffffffffffffffffffffffffffff163b119050919050565b6000825111156140dd5781518083602001fd5b806040517f08c379a000000000000000000000000000000000000000000000000000000000815260040161411191906144b7565b60405180910390fd5b6040518060200160405280600081525090565b604051806040016040528060608152602001606081525090565b6040518060a0016040528060006fffffffffffffffffffffffffffffffff168152602001600063ffffffff16815260200160001515815260200160006fffffffffffffffffffffffffffffffff16815260200160006fffffffffffffffffffffffffffffffff1681525090565b5080546141c090614f1d565b6000825580601f106141d257506141f1565b601f0160209004906000526020600020908101906141f091906141f4565b5b50565b5b8082111561420d5760008160009055506001016141f5565b5090565b6000604051905090565b600080fd5b600080fd5b60007fffffffff0000000000000000000000000000000000000000000000000000000082169050919050565b61425a81614225565b811461426557600080fd5b50565b60008135905061427781614251565b92915050565b6000602082840312156142935761429261421b565b5b60006142a184828501614268565b91505092915050565b60008115159050919050565b6142bf816142aa565b82525050565b60006020820190506142da60008301846142b6565b92915050565b600067ffffffffffffffff82169050919050565b6142fd816142e0565b811461430857600080fd5b50565b60008135905061431a816142f4565b92915050565b6000602082840312156143365761433561421b565b5b60006143448482850161430b565b91505092915050565b600081519050919050565b600082825260208201905092915050565b60005b8381101561438757808201518184015260208101905061436c565b60008484015250505050565b6000601f19601f8301169050919050565b60006143af8261434d565b6143b98185614358565b93506143c9818560208601614369565b6143d281614393565b840191505092915050565b600060208201905081810360008301526143f781846143a4565b905092915050565b6000819050919050565b614412816143ff565b811461441d57600080fd5b50565b60008135905061442f81614409565b92915050565b60006020828403121561444b5761444a61421b565b5b600061445984828501614420565b91505092915050565b600081519050919050565b600082825260208201905092915050565b600061448982614462565b614493818561446d565b93506144a3818560208601614369565b6144ac81614393565b840191505092915050565b600060208201905081810360008301526144d1818461447e565b905092915050565b600073ffffffffffffffffffffffffffffffffffffffff82169050919050565b6000819050919050565b600061451e614519614514846144d9565b6144f9565b6144d9565b9050919050565b600061453082614503565b9050919050565b600061454282614525565b9050919050565b61455281614537565b82525050565b600060208201905061456d6000830184614549565b92915050565b600061457e826144d9565b9050919050565b61458e81614573565b811461459957600080fd5b50565b6000813590506145ab81614585565b92915050565b6000602082840312156145c7576145c661421b565b5b60006145d58482850161459c565b91505092915050565b600080fd5b600061010082840312156145fa576145f96145de565b5b81905092915050565b6000602082840312156146195761461861421b565b5b600082013567ffffffffffffffff81111561463757614636614220565b5b614643848285016145e3565b91505092915050565b614655816143ff565b82525050565b602082016000820151614671600085018261464c565b50505050565b600060208201905061468c600083018461465b565b92915050565b61469b81614573565b82525050565b60006020820190506146b66000830184614692565b92915050565b600080fd5b600080fd5b600080fd5b60008083601f8401126146e1576146e06146bc565b5b8235905067ffffffffffffffff8111156146fe576146fd6146c1565b5b60208301915083602082028301111561471a576147196146c6565b5b9250929050565b6000806000806040858703121561473b5761473a61421b565b5b600085013567ffffffffffffffff81111561475957614758614220565b5b614765878288016146cb565b9450945050602085013567ffffffffffffffff81111561478857614787614220565b5b614794878288016146cb565b925092505092959194509250565b60008083601f8401126147b8576147b76146bc565b5b8235905067ffffffffffffffff8111156147d5576147d46146c1565b5b6020830191508360018202830111156147f1576147f06146c6565b5b9250929050565b6000806000604084860312156148115761481061421b565b5b600061481f8682870161430b565b935050602084013567ffffffffffffffff8111156148405761483f614220565b5b61484c868287016147a2565b92509250509250925092565b6000806040838503121561486f5761486e61421b565b5b600061487d8582860161430b565b925050602061488e8582860161459c565b9150509250929050565b60006148a382614573565b9050919050565b6148b381614898565b81146148be57600080fd5b50565b6000813590506148d0816148aa565b92915050565b6000602082840312156148ec576148eb61421b565b5b60006148fa848285016148c1565b91505092915050565b600060a08284031215614919576149186145de565b5b81905092915050565b6000602082840312156149385761493761421b565b5b600082013567ffffffffffffffff81111561495657614955614220565b5b61496284828501614903565b91505092915050565b600082825260208201905092915050565b60006149878261434d565b614991818561496b565b93506149a1818560208601614369565b6149aa81614393565b840191505092915050565b600060408301600083015184820360008601526149d2828261497c565b915050602083015184820360208601526149ec828261497c565b9150508091505092915050565b60006020820190508181036000830152614a1381846149b5565b905092915050565b600081519050919050565b600082825260208201905092915050565b6000819050602082019050919050565b614a5081614573565b82525050565b6000614a628383614a47565b60208301905092915050565b6000602082019050919050565b6000614a8682614a1b565b614a908185614a26565b9350614a9b83614a37565b8060005b83811015614acc578151614ab38882614a56565b9750614abe83614a6e565b925050600181019050614a9f565b5085935050505092915050565b60006020820190508181036000830152614af38184614a7b565b905092915050565b60006fffffffffffffffffffffffffffffffff82169050919050565b614b2081614afb565b82525050565b600063ffffffff82169050919050565b614b3f81614b26565b82525050565b614b4e816142aa565b82525050565b60a082016000820151614b6a6000850182614b17565b506020820151614b7d6020850182614b36565b506040820151614b906040850182614b45565b506060820151614ba36060850182614b17565b506080820151614bb66080850182614b17565b50505050565b600060a082019050614bd16000830184614b54565b92915050565b600081519050919050565b600082825260208201905092915050565b6000819050602082019050919050565b614c0c816142e0565b82525050565b6000614c1e8383614c03565b60208301905092915050565b6000602082019050919050565b6000614c4282614bd7565b614c4c8185614be2565b9350614c5783614bf3565b8060005b83811015614c88578151614c6f8882614c12565b9750614c7a83614c2a565b925050600181019050614c5b565b5085935050505092915050565b60006020820190508181036000830152614caf8184614c37565b905092915050565b600080fd5b7f4e487b7100000000000000000000000000000000000000000000000000000000600052604160045260246000fd5b614cf482614393565b810181811067ffffffffffffffff82111715614d1357614d12614cbc565b5b80604052505050565b6000614d26614211565b9050614d328282614ceb565b919050565b600080fd5b614d45816142aa565b8114614d5057600080fd5b50565b600081359050614d6281614d3c565b92915050565b614d7181614afb565b8114614d7c57600080fd5b50565b600081359050614d8e81614d68565b92915050565b600060608284031215614daa57614da9614cb7565b5b614db46060614d1c565b90506000614dc484828501614d53565b6000830152506020614dd884828501614d7f565b6020830152506040614dec84828501614d7f565b60408301525092915050565b600080600060e08486031215614e1157614e1061421b565b5b6000614e1f8682870161430b565b9350506020614e3086828701614d94565b9250506080614e4186828701614d94565b9150509250925092565b60008083601f840112614e6157614e606146bc565b5b8235905067ffffffffffffffff811115614e7e57614e7d6146c1565b5b602083019150836020820283011115614e9a57614e996146c6565b5b9250929050565b60008060208385031215614eb857614eb761421b565b5b600083013567ffffffffffffffff811115614ed657614ed5614220565b5b614ee285828601614e4b565b92509250509250929050565b7f4e487b7100000000000000000000000000000000000000000000000000000000600052602260045260246000fd5b60006002820490506001821680614f3557607f821691505b602082108103614f4857614f47614eee565b5b50919050565b600081519050614f5d81614409565b92915050565b600060208284031215614f7957614f7861421b565b5b6000614f8784828501614f4e565b91505092915050565b600080fd5b600067ffffffffffffffff821115614fb057614faf614cbc565b5b614fb982614393565b9050602081019050919050565b82818337600083830152505050565b6000614fe8614fe384614f95565b614d1c565b90508281526020810184848401111561500457615003614f90565b5b61500f848285614fc6565b509392505050565b600082601f83011261502c5761502b6146bc565b5b813561503c848260208601614fd5565b91505092915050565b6000610100828403121561505c5761505b614cb7565b5b615067610100614d1c565b9050600082013567ffffffffffffffff81111561508757615086614d37565b5b61509384828501615017565b60008301525060206150a78482850161430b565b60208301525060406150bb8482850161459c565b60408301525060606150cf84828501614420565b60608301525060806150e38482850161459c565b60808301525060a082013567ffffffffffffffff81111561510757615106614d37565b5b61511384828501615017565b60a08301525060c082013567ffffffffffffffff81111561513757615136614d37565b5b61514384828501615017565b60c08301525060e082013567ffffffffffffffff81111561516757615166614d37565b5b61517384828501615017565b60e08301525092915050565b600061518b3683615045565b9050919050565b61519b816143ff565b82525050565b60006020820190506151b66000830184615192565b92915050565b6151c5816142e0565b82525050565b60006020820190506151e060008301846151bc565b92915050565b600082905092915050565b60008190508160005260206000209050919050565b60006020601f8301049050919050565b600082821b905092915050565b6000600883026152537fffffffffffffffffffffffffffffffffffffffffffffffffffffffffffffffff82615216565b61525d8683615216565b95508019841693508086168417925050509392505050565b600061529061528b615286846143ff565b6144f9565b6143ff565b9050919050565b6000819050919050565b6152aa83615275565b6152be6152b682615297565b848454615223565b825550505050565b600090565b6152d36152c6565b6152de8184846152a1565b505050565b5b81811015615302576152f76000826152cb565b6001810190506152e4565b5050565b601f82111561534757615318816151f1565b61532184615206565b81016020851015615330578190505b61534461533c85615206565b8301826152e3565b50505b505050565b600082821c905092915050565b600061536a6000198460080261534c565b1980831691505092915050565b60006153838383615359565b9150826002028217905092915050565b61539d83836151e6565b67ffffffffffffffff8111156153b6576153b5614cbc565b5b6153c08254614f1d565b6153cb828285615306565b6000601f8311600181146153fa57600084156153e8578287013590505b6153f28582615377565b86555061545a565b601f198416615408866151f1565b60005b828110156154305784890135825560018201915060208501945060208101905061540b565b8683101561544d5784890135615449601f891682615359565b8355505b6001600288020188555050505b50505050505050565b600061546f8385614358565b935061547c838584614fc6565b61548583614393565b840190509392505050565b600060408201905081810360008301526154aa81866143a4565b905081810360208301526154bf818486615463565b9050949350505050565b7f4d7573742062652070726f706f736564206f776e657200000000000000000000600082015250565b60006154ff60168361446d565b915061550a826154c9565b602082019050919050565b6000602082019050818103600083015261552e816154f2565b9050919050565b600060408201905061554a60008301856151bc565b6155576020830184614692565b9392505050565b60008151905061556d81614d3c565b92915050565b6000602082840312156155895761558861421b565b5b60006155978482850161555e565b91505092915050565b60006155ab82614525565b9050919050565b6155bb816155a0565b82525050565b60006040820190506155d660008301856155b2565b6155e360208301846155b2565b9392505050565b600060a08284031215615600576155ff614cb7565b5b61560a60a0614d1c565b9050600082013567ffffffffffffffff81111561562a57615629614d37565b5b61563684828501615017565b600083015250602061564a8482850161430b565b602083015250604061565e8482850161459c565b604083015250606061567284828501614420565b60608301525060806156868482850161459c565b60808301525092915050565b600061569e36836155ea565b9050919050565b60006040820190506156ba6000830185614692565b6156c76020830184614692565b9392505050565b7f4e487b7100000000000000000000000000000000000000000000000000000000600052603260045260246000fd5b600080fd5b6000823560016101400383360303811261571f5761571e6156fd565b5b80830191505092915050565b6000610140828403121561574257615741614cb7565b5b61574c60c0614d1c565b9050600061575c8482850161430b565b600083015250602061577084828501614d53565b602083015250604082013567ffffffffffffffff81111561579457615793614d37565b5b6157a084828501615017565b604083015250606082013567ffffffffffffffff8111156157c4576157c3614d37565b5b6157d084828501615017565b60608301525060806157e484828501614d94565b60808301525060e06157f884828501614d94565b60a08301525092915050565b6000615810368361572b565b9050919050565b6158208261434d565b67ffffffffffffffff81111561583957615838614cbc565b5b6158438254614f1d565b61584e828285615306565b600060209050601f831160018114615881576000841561586f578287015190505b6158798582615377565b8655506158e1565b601f19841661588f866151f1565b60005b828110156158b757848901518255600182019150602085019450602081019050615892565b868310156158d457848901516158d0601f891682615359565b8355505b6001600288020188555050505b505050505050565b6060820160008201516158ff6000850182614b45565b5060208201516159126020850182614b17565b5060408201516159256040850182614b17565b50505050565b60006101008201905061594160008301876151bc565b818103602083015261595381866143a4565b905061596260408301856158e9565b61596f60a08301846158e9565b95945050505050565b600060408201905061598d6000830185614692565b61599a6020830184615192565b9392505050565b60007fffffffffffffffffffffffffffffffff0000000000000000000000000000000082169050919050565b6159d6816159a1565b82525050565b60006020820190506159f160008301846159cd565b92915050565b50565b6000615a07600083614358565b9150615a12826159f7565b600082019050919050565b600060a0820190508181036000830152615a3781876143a4565b9050615a466020830186614692565b615a536040830185615192565b615a6060608301846151bc565b8181036080830152615a71816159fa565b905095945050505050565b7f4f6e6c792063616c6c61626c65206279206f776e657200000000000000000000600082015250565b6000615ab260168361446d565b9150615abd82615a7c565b602082019050919050565b60006020820190508181036000830152615ae181615aa5565b9050919050565b600060a082019050615afd6000830187614692565b8181036020830152615b0f81866143a4565b9050615b1e6040830185615192565b615b2b60608301846151bc565b8181036080830152615b3c816159fa565b905095945050505050565b6000615b5a615b5584614f95565b614d1c565b905082815260208101848484011115615b7657615b75614f90565b5b615b81848285614369565b509392505050565b600082601f830112615b9e57615b9d6146bc565b5b8151615bae848260208601615b47565b91505092915050565b600060208284031215615bcd57615bcc61421b565b5b600082015167ffffffffffffffff811115615beb57615bea614220565b5b615bf784828501615b89565b91505092915050565b7f4e487b7100000000000000000000000000000000000000000000000000000000600052601160045260246000fd5b6000615c3a826143ff565b9150615c45836143ff565b9250828203905081811115615c5d57615c5c615c00565b5b92915050565b600060e082019050615c7860008301866151bc565b615c8560208301856158e9565b615c9260808301846158e9565b949350505050565b6000606082019050615caf60008301846158e9565b92915050565b6000606082019050615cca6000830186614692565b615cd76020830185614692565b615ce46040830184615192565b949350505050565b7f43616e6e6f74207472616e7366657220746f2073656c66000000000000000000600082015250565b6000615d2260178361446d565b9150615d2d82615cec565b602082019050919050565b60006020820190508181036000830152615d5181615d15565b9050919050565b7f5361666545524332303a204552433230206f7065726174696f6e20646964206e60008201527f6f74207375636365656400000000000000000000000000000000000000000000602082015250565b6000615db4602a8361446d565b9150615dbf82615d58565b604082019050919050565b60006020820190508181036000830152615de381615da7565b9050919050565b600081519050615df981614585565b92915050565b600060208284031215615e1557615e1461421b565b5b6000615e2384828501615dea565b91505092915050565b6000615e37826143ff565b9150615e42836143ff565b9250828202615e50816143ff565b91508282048414831517615e6757615e66615c00565b5b5092915050565b6000615e79826143ff565b9150615e84836143ff565b9250828201905080821115615e9c57615e9b615c00565b5b92915050565b7f4e487b7100000000000000000000000000000000000000000000000000000000600052603160045260246000fd5b6000604082019050615ee66000830185615192565b615ef36020830184615192565b9392505050565b6000606082019050615f0f6000830186615192565b615f1c6020830185615192565b615f296040830184614692565b949350505050565b7f4e487b7100000000000000000000000000000000000000000000000000000000600052601260045260246000fd5b6000615f6b826143ff565b9150615f76836143ff565b925082615f8657615f85615f31565b5b828204905092915050565b7f416464726573733a20696e73756666696369656e742062616c616e636520666f60008201527f722063616c6c0000000000000000000000000000000000000000000000000000602082015250565b6000615fed60268361446d565b9150615ff882615f91565b604082019050919050565b6000602082019050818103600083015261601c81615fe0565b9050919050565b600081905092915050565b60006160398261434d565b6160438185616023565b9350616053818560208601614369565b80840191505092915050565b600061606b828461602e565b915081905092915050565b7f416464726573733a2063616c6c20746f206e6f6e2d636f6e7472616374000000600082015250565b60006160ac601d8361446d565b91506160b782616076565b602082019050919050565b600060208201905081810360008301526160db8161609f565b905091905056fe4c6f636b52656c65617365546f6b656e506f6f6c416e6450726f787920312e352e302d646576a164736f6c6343000818000a","linkReferences":{}},"methodIdentifiers":{"acceptOwnership()":"79ba5097","applyAllowListUpdates(address[],address[])":"54c8a4f3","applyChainUpdates((uint64,bool,bytes,bytes,(bool,uint128,uint128),(bool,uint128,uint128))[])":"db6327dc","canAcceptLiquidity()":"bb98546b","getAllowList()":"a7cd63b7","getAllowListEnabled()":"e0351e13","getCurrentInboundRateLimiterState(uint64)":"af58d59f","getCurrentOutboundRateLimiterState(uint64)":"c75eea9c","getOnRamp(uint64)":"a8d87a3b","getRateLimitAdmin()":"6d3d1a58","getRebalancer()":"432a6ba3","getRemotePool(uint64)":"0a2fd493","getRemoteToken(uint64)":"b7946580","getRmnProxy()":"dc0bd971","getRouter()":"b0f479a1","getSupportedChains()":"c4bffe2b","getToken()":"21df0da7","isOffRamp(uint64,address)":"83826b2b","isSupportedChain(uint64)":"8926f54f","isSupportedToken(address)":"240028e8","lockOrBurn((bytes,uint64,address,uint256,address))":"9a4575b9","owner()":"8da5cb5b","provideLiquidity(uint256)":"eb521a4c","releaseOrMint((bytes,uint64,address,uint256,address,bytes,bytes,bytes))":"39077537","setChainRateLimiterConfig(uint64,(bool,uint128,uint128),(bool,uint128,uint128))":"cf7401f3","setPreviousPool(address)":"9766b932","setRateLimitAdmin(address)":"7d54534e","setRebalancer(address)":"6cfd1553","setRemotePool(uint64,bytes)":"78a010b2","setRouter(address)":"c0d78655","supportsInterface(bytes4)":"01ffc9a7","transferOwnership(address)":"f2fde38b","typeAndVersion()":"181f5a77","withdrawLiquidity(uint256)":"0a861f2a"},"id":47}