{"abi":[{"type":"function","name":"acceptOwnership","inputs":[],"outputs":[],"stateMutability":"nonpayable"},{"type":"function","name":"configDigestFromConfigData","inputs":[{"name":"chainSelector","type":"uint256","internalType":"uint256"},{"name":"contractAddress","type":"address","internalType":"address"},{"name":"configCount","type":"uint64","internalType":"uint64"},{"name":"signers","type":"address[]","internalType":"address[]"},{"name":"transmitters","type":"address[]","internalType":"address[]"},{"name":"f","type":"uint8","internalType":"uint8"},{"name":"onchainConfig","type":"bytes","internalType":"bytes"},{"name":"offchainConfigVersion","type":"uint64","internalType":"uint64"},{"name":"offchainConfig","type":"bytes","internalType":"bytes"}],"outputs":[{"name":"","type":"bytes32","internalType":"bytes32"}],"stateMutability":"pure"},{"type":"function","name":"getTransmitters","inputs":[],"outputs":[{"name":"","type":"address[]","internalType":"address[]"}],"stateMutability":"view"},{"type":"function","name":"latestConfigDetails","inputs":[],"outputs":[{"name":"configCount","type":"uint32","internalType":"uint32"},{"name":"blockNumber","type":"uint32","internalType":"uint32"},{"name":"configDigest","type":"bytes32","internalType":"bytes32"}],"stateMutability":"view"},{"type":"function","name":"latestConfigDigestAndEpoch","inputs":[],"outputs":[{"name":"scanLogs","type":"bool","internalType":"bool"},{"name":"configDigest","type":"bytes32","internalType":"bytes32"},{"name":"epoch","type":"uint32","internalType":"uint32"}],"stateMutability":"view"},{"type":"function","name":"owner","inputs":[],"outputs":[{"name":"","type":"address","internalType":"address"}],"stateMutability":"view"},{"type":"function","name":"setOCR2Config","inputs":[{"name":"signers","type":"address[]","internalType":"address[]"},{"name":"transmitters","type":"address[]","internalType":"address[]"},{"name":"f","type":"uint8","internalType":"uint8"},{"name":"onchainConfig","type":"bytes","internalType":"bytes"},{"name":"offchainConfigVersion","type":"uint64","internalType":"uint64"},{"name":"offchainConfig","type":"bytes","internalType":"bytes"}],"outputs":[],"stateMutability":"nonpayable"},{"type":"function","name":"transferOwnership","inputs":[{"name":"to","type":"address","internalType":"address"}],"outputs":[],"stateMutability":"nonpayable"},{"type":"function","name":"transmit","inputs":[{"name":"reportContext","type":"bytes32[3]","internalType":"bytes32[3]"},{"name":"report","type":"bytes","internalType":"bytes"},{"name":"rs","type":"bytes32[]","internalType":"bytes32[]"},{"name":"ss","type":"bytes32[]","internalType":"bytes32[]"},{"name":"rawVs","type":"bytes32","internalType":"bytes32"}],"outputs":[],"stateMutability":"nonpayable"},{"type":"function","name":"typeAndVersion","inputs":[],"outputs":[{"name":"","type":"string","internalType":"string"}],"stateMutability":"pure"},{"type":"event","name":"ConfigSet","inputs":[{"name":"previousConfigBlockNumber","type":"uint32","indexed":false,"internalType":"uint32"},{"name":"configDigest","type":"bytes32","indexed":false,"internalType":"bytes32"},{"name":"configCount","type":"uint64","indexed":false,"internalType":"uint64"},{"name":"signers","type":"address[]","indexed":false,"internalType":"address[]"},{"name":"transmitters","type":"address[]","indexed":false,"internalType":"address[]"},{"name":"f","type":"uint8","indexed":false,"internalType":"uint8"},{"name":"onchainConfig","type":"bytes","indexed":false,"internalType":"bytes"},{"name":"offchainConfigVersion","type":"uint64","indexed":false,"internalType":"uint64"},{"name":"offchainConfig","type":"bytes","indexed":false,"internalType":"bytes"}],"anonymous":false},{"type":"event","name":"OwnershipTransferRequested","inputs":[{"name":"from","type":"address","indexed":true,"internalType":"address"},{"name":"to","type":"address","indexed":true,"internalType":"address"}],"anonymous":false},{"type":"event","name":"OwnershipTransferred","inputs":[{"name":"from","type":"address","indexed":true,"internalType":"address"},{"name":"to","type":"address","indexed":true,"internalType":"address"}],"anonymous":false},{"type":"event","name":"Transmitted","inputs":[{"name":"configDigest","type":"bytes32","indexed":false,"internalType":"bytes32"},{"name":"epoch","type":"uint32","indexed":false,"internalType":"uint32"}],"anonymous":false},{"type":"error","name":"ConfigDigestMismatch","inputs":[{"name":"expected","type":"bytes32","internalType":"bytes32"},{"name":"actual","type":"bytes32","internalType":"bytes32"}]},{"type":"error","name":"ForkedChain","inputs":[{"name":"expected","type":"uint256","internalType":"uint256"},{"name":"actual","type":"uint256","internalType":"uint256"}]},{"type":"error","name":"InvalidConfig","inputs":[{"name":"errorType","type":"uint8","internalType":"enum OCR2Base.InvalidConfigErrorType"}]},{"type":"error","name":"NonUniqueSignatures","inputs":[]},{"type":"error","name":"OracleCannotBeZeroAddress","inputs":[]},{"type":"error","name":"SignaturesOutOfRegistration","inputs":[]},{"type":"error","name":"UnauthorizedSigner","inputs":[]},{"type":"error","name":"UnauthorizedTransmitter","inputs":[]},{"type":"error","name":"WrongMessageLength","inputs":[{"name":"expected","type":"uint256","internalType":"uint256"},{"name":"actual","type":"uint256","internalType":"uint256"}]},{"type":"error","name":"WrongNumberOfSignatures","inputs":[]}],"bytecode":{"object":"0x60c06040523480156200001157600080fd5b506000338060008073ffffffffffffffffffffffffffffffffffffffff168273ffffffffffffffffffffffffffffffffffffffff160362000089576040517f08c379a00000000000000000000000000000000000000000000000000000000081526004016200008090620002be565b60405180910390fd5b816000806101000a81548173ffffffffffffffffffffffffffffffffffffffff021916908373ffffffffffffffffffffffffffffffffffffffff160217905550600073ffffffffffffffffffffffffffffffffffffffff168173ffffffffffffffffffffffffffffffffffffffff161462000110576200010f816200012e60201b60201c565b5b5050508015156080811515815250504660a081815250505062000352565b3373ffffffffffffffffffffffffffffffffffffffff168173ffffffffffffffffffffffffffffffffffffffff16036200019f576040517f08c379a0000000000000000000000000000000000000000000000000000000008152600401620001969062000330565b60405180910390fd5b80600160006101000a81548173ffffffffffffffffffffffffffffffffffffffff021916908373ffffffffffffffffffffffffffffffffffffffff1602179055508073ffffffffffffffffffffffffffffffffffffffff1660008054906101000a900473ffffffffffffffffffffffffffffffffffffffff1673ffffffffffffffffffffffffffffffffffffffff167fed8889f560326eb138920d842192f0eb3dd22b4f139c87a2c57538e05bae127860405160405180910390a350565b600082825260208201905092915050565b7f43616e6e6f7420736574206f776e657220746f207a65726f0000000000000000600082015250565b6000620002a66018836200025d565b9150620002b3826200026e565b602082019050919050565b60006020820190508181036000830152620002d98162000297565b9050919050565b7f43616e6e6f74207472616e7366657220746f2073656c66000000000000000000600082015250565b6000620003186017836200025d565b91506200032582620002e0565b602082019050919050565b600060208201905081810360008301526200034b8162000309565b9050919050565b60805160a0516128aa6200037f60003960008181610dd90152610dff01526000610eb801526128aa6000f3fe608060405234801561001057600080fd5b506004361061009e5760003560e01c806381ff70481161006657806381ff7048146101355780638da5cb5b14610155578063afcb95d714610173578063b1dc65a414610193578063f2fde38b146101af5761009e565b8063181f5a77146100a35780631ef38174146100c157806350f70782146100dd578063666cab8d1461010d57806379ba50971461012b575b600080fd5b6100ab6101cb565b6040516100b8919061184f565b60405180910390f35b6100db60048036038101906100d69190611b59565b610208565b005b6100f760048036038101906100f29190611c8c565b610a30565b6040516101049190611ddf565b60405180910390f35b610115610a52565b6040516101229190611eb8565b60405180910390f35b610133610ae0565b005b61013d610c75565b60405161014c93929190611ef9565b60405180910390f35b61015d610caf565b60405161016a9190611f3f565b60405180910390f35b61017b610cd8565b60405161018a93929190611f75565b60405180910390f35b6101ad60048036038101906101a891906120ab565b610cf0565b005b6101c960048036038101906101c49190612187565b611474565b005b60606040518060400160405280601481526020017f4f4352324261736548656c70657220312e302e30000000000000000000000000815250905090565b855185518560ff16601f8311156102575760016040517f367f56a200000000000000000000000000000000000000000000000000000000815260040161024e919061222b565b60405180910390fd5b6000810361029d5760006040517f367f56a2000000000000000000000000000000000000000000000000000000008152600401610294919061222b565b60405180910390fd5b8183146102e25760046040517f367f56a20000000000000000000000000000000000000000000000000000000081526004016102d9919061222b565b60405180910390fd5b8060036102ef9190612275565b83116103335760026040517f367f56a200000000000000000000000000000000000000000000000000000000815260040161032a919061222b565b60405180910390fd5b61033b611488565b61034486611518565b6000600680549050905060005b818110156104b4576005600060068381548110610371576103706122b7565b5b9060005260206000200160009054906101000a900473ffffffffffffffffffffffffffffffffffffffff1673ffffffffffffffffffffffffffffffffffffffff1673ffffffffffffffffffffffffffffffffffffffff168152602001908152602001600020600080820160006101000a81549060ff02191690556000820160016101000a81549060ff021916905550506005600060078381548110610419576104186122b7565b5b9060005260206000200160009054906101000a900473ffffffffffffffffffffffffffffffffffffffff1673ffffffffffffffffffffffffffffffffffffffff1673ffffffffffffffffffffffffffffffffffffffff168152602001908152602001600020600080820160006101000a81549060ff02191690556000820160016101000a81549060ff02191690555050806001019050610351565b5060008a51905060005b818110156108ca5760008c82815181106104db576104da6122b7565b5b60200260200101519050600060028111156104f9576104f86121b4565b5b600560008373ffffffffffffffffffffffffffffffffffffffff1673ffffffffffffffffffffffffffffffffffffffff16815260200190815260200160002060000160019054906101000a900460ff16600281111561055b5761055a6121b4565b5b1461059e5760036040517f367f56a2000000000000000000000000000000000000000000000000000000008152600401610595919061222b565b60405180910390fd5b600073ffffffffffffffffffffffffffffffffffffffff168173ffffffffffffffffffffffffffffffffffffffff1603610604576040517fd6c62c9b00000000000000000000000000000000000000000000000000000000815260040160405180910390fd5b60405180604001604052808360ff1681526020016001600281111561062c5761062b6121b4565b5b815250600560008373ffffffffffffffffffffffffffffffffffffffff1673ffffffffffffffffffffffffffffffffffffffff16815260200190815260200160002060008201518160000160006101000a81548160ff021916908360ff16021790555060208201518160000160016101000a81548160ff021916908360028111156106ba576106b96121b4565b5b021790555090505060008c83815181106106d7576106d66122b7565b5b60200260200101519050600060028111156106f5576106f46121b4565b5b600560008373ffffffffffffffffffffffffffffffffffffffff1673ffffffffffffffffffffffffffffffffffffffff16815260200190815260200160002060000160019054906101000a900460ff166002811115610757576107566121b4565b5b1461079a5760036040517f367f56a2000000000000000000000000000000000000000000000000000000008152600401610791919061222b565b60405180910390fd5b600073ffffffffffffffffffffffffffffffffffffffff168173ffffffffffffffffffffffffffffffffffffffff1603610800576040517fd6c62c9b00000000000000000000000000000000000000000000000000000000815260040160405180910390fd5b60405180604001604052808460ff168152602001600280811115610827576108266121b4565b5b815250600560008373ffffffffffffffffffffffffffffffffffffffff1673ffffffffffffffffffffffffffffffffffffffff16815260200190815260200160002060008201518160000160006101000a81548160ff021916908360ff16021790555060208201518160000160016101000a81548160ff021916908360028111156108b5576108b46121b4565b5b021790555090505050508060010190506104be565b508a600690805190602001906108e19291906116f5565b5089600790805190602001906108f89291906116f5565b5088600260010160006101000a81548160ff021916908360ff16021790555080600260010160016101000a81548160ff021916908360ff16021790555061098646306004600081819054906101000a900463ffffffff16610958906122e6565b91906101000a81548163ffffffff021916908363ffffffff160217905563ffffffff168e8e8e8e8e8e61151b565b600260000181905550600060048054906101000a900463ffffffff169050436004806101000a81548163ffffffff021916908363ffffffff1602179055507f1591690b8638f5fb2dbec82ac741805ac5da8b45dc5263f4875b0496fdce4e0581600260000154600460009054906101000a900463ffffffff168f8f8f8f8f8f604051610a1a999897969594939291906123c0565b60405180910390a1505050505050505050505050565b6000610a438a8a8a8a8a8a8a8a8a61151b565b90509998505050505050505050565b60606007805480602002602001604051908101604052809291908181526020018280548015610ad657602002820191906000526020600020905b8160009054906101000a900473ffffffffffffffffffffffffffffffffffffffff1673ffffffffffffffffffffffffffffffffffffffff1681526020019060010190808311610a8c575b5050505050905090565b600160009054906101000a900473ffffffffffffffffffffffffffffffffffffffff1673ffffffffffffffffffffffffffffffffffffffff163373ffffffffffffffffffffffffffffffffffffffff1614610b70576040517f08c379a0000000000000000000000000000000000000000000000000000000008152600401610b67906124b5565b60405180910390fd5b60008060009054906101000a900473ffffffffffffffffffffffffffffffffffffffff169050336000806101000a81548173ffffffffffffffffffffffffffffffffffffffff021916908373ffffffffffffffffffffffffffffffffffffffff1602179055506000600160006101000a81548173ffffffffffffffffffffffffffffffffffffffff021916908373ffffffffffffffffffffffffffffffffffffffff1602179055503373ffffffffffffffffffffffffffffffffffffffff168173ffffffffffffffffffffffffffffffffffffffff167f8be0079c531659141344cd1fd0a4f28419497f9722a3daafe3b4186f6b6457e060405160405180910390a350565b6000806000600460009054906101000a900463ffffffff1660048054906101000a900463ffffffff16600260000154925092509250909192565b60008060009054906101000a900473ffffffffffffffffffffffffffffffffffffffff16905090565b600080600060016000801b6000925092509250909192565b610d1687878a600160038110610d0957610d086122b7565b5b602002013560001c6115c4565b600088600060038110610d2c57610d2b6122b7565b5b6020020135905060006002604051806060016040529081600082015481526020016001820160009054906101000a900460ff1660ff1660ff1681526020016001820160019054906101000a900460ff1660ff1660ff1681525050905081816000015114610dd6578060000151826040517f93df584c000000000000000000000000000000000000000000000000000000008152600401610dcd9291906124d5565b60405180910390fd5b467f000000000000000000000000000000000000000000000000000000000000000014610e5c577f0000000000000000000000000000000000000000000000000000000000000000466040517f0f01ce85000000000000000000000000000000000000000000000000000000008152600401610e5392919061250d565b60405180910390fd5b7fb04e63db38c49950639fa09d29872f21f5d49d614f3a969d8adf3d4b52e41a628260088c600160038110610e9457610e936122b7565b5b602002013560001c901c604051610eac929190612536565b60405180910390a160007f000000000000000000000000000000000000000000000000000000000000000015610f12576001600283602001518460400151610ef4919061255f565b610efe91906125c3565b610f08919061255f565b60ff169050610f29565b60018260200151610f23919061255f565b60ff1690505b808888905014610f65576040517f71253a2500000000000000000000000000000000000000000000000000000000815260040160405180910390fd5b858590508888905014610fa4576040517fa75d88af00000000000000000000000000000000000000000000000000000000815260040160405180910390fd5b6000600560003373ffffffffffffffffffffffffffffffffffffffff1673ffffffffffffffffffffffffffffffffffffffff1681526020019081526020016000206040518060400160405290816000820160009054906101000a900460ff1660ff1660ff1681526020016000820160019054906101000a900460ff166002811115611032576110316121b4565b5b6002811115611044576110436121b4565b5b81525050905060028081111561105d5761105c6121b4565b5b81602001516002811115611074576110736121b4565b5b1480156110f157506007816000015160ff1681548110611097576110966122b7565b5b9060005260206000200160009054906101000a900473ffffffffffffffffffffffffffffffffffffffff1673ffffffffffffffffffffffffffffffffffffffff163373ffffffffffffffffffffffffffffffffffffffff16145b611127576040517fda0f08e800000000000000000000000000000000000000000000000000000000815260040160405180910390fd5b50600060208787905061113a9190612275565b60208a8a905061114a9190612275565b8c8c905061014461ffff1661115f91906125f4565b61116991906125f4565b61117391906125f4565b9050806000369050146111c3578060003690506040517f8e1192e10000000000000000000000000000000000000000000000000000000081526004016111ba92919061250d565b60405180910390fd5b5060008a8a6040516111d6929190612658565b60405180910390208c6040516020016111f09291906126ab565b60405160208183030381529060405280519060200120905061121061177f565b60008a8a9050905060005b81811015611463576000600185601b8b856020811061123d5761123c6122b7565b5b1a60f81b60f81c61124e919061255f565b8f8f86818110611261576112606122b7565b5b905060200201358e8e8781811061127b5761127a6122b7565b5b905060200201356040516000815260200160405260405161129f94939291906126d7565b6020604051602081039080840390855afa1580156112c1573d6000803e3d6000fd5b5050506020604051035190506000600560008373ffffffffffffffffffffffffffffffffffffffff1673ffffffffffffffffffffffffffffffffffffffff1681526020019081526020016000206040518060400160405290816000820160009054906101000a900460ff1660ff1660ff1681526020016000820160019054906101000a900460ff16600281111561135b5761135a6121b4565b5b600281111561136d5761136c6121b4565b5b81525050905060016002811115611387576113866121b4565b5b8160200151600281111561139e5761139d6121b4565b5b146113d5576040517fca31867a00000000000000000000000000000000000000000000000000000000815260040160405180910390fd5b84816000015160ff16601f81106113ef576113ee6122b7565b5b60200201511561142b576040517ff67bc7c400000000000000000000000000000000000000000000000000000000815260040160405180910390fd5b600185826000015160ff16601f8110611447576114466122b7565b5b602002019015159081151581525050505080600101905061121b565b505050505050505050505050505050565b61147c611488565b611485816115c9565b50565b60008054906101000a900473ffffffffffffffffffffffffffffffffffffffff1673ffffffffffffffffffffffffffffffffffffffff163373ffffffffffffffffffffffffffffffffffffffff1614611516576040517f08c379a000000000000000000000000000000000000000000000000000000000815260040161150d90612768565b60405180910390fd5b565b50565b6000808a8a8a8a8a8a8a8a8a60405160200161153f99989796959493929190612788565b6040516020818303038152906040528051906020012060001c9050600060f07fffffffffffffffffffffffffffffffffffffffffffffffffffffffffffffffff901b905060007e010000000000000000000000000000000000000000000000000000000000009050811983168282161760001b93505050509998505050505050505050565b505050565b3373ffffffffffffffffffffffffffffffffffffffff168173ffffffffffffffffffffffffffffffffffffffff1603611637576040517f08c379a000000000000000000000000000000000000000000000000000000000815260040161162e9061287d565b60405180910390fd5b80600160006101000a81548173ffffffffffffffffffffffffffffffffffffffff021916908373ffffffffffffffffffffffffffffffffffffffff1602179055508073ffffffffffffffffffffffffffffffffffffffff1660008054906101000a900473ffffffffffffffffffffffffffffffffffffffff1673ffffffffffffffffffffffffffffffffffffffff167fed8889f560326eb138920d842192f0eb3dd22b4f139c87a2c57538e05bae127860405160405180910390a350565b82805482825590600052602060002090810192821561176e579160200282015b8281111561176d5782518260006101000a81548173ffffffffffffffffffffffffffffffffffffffff021916908373ffffffffffffffffffffffffffffffffffffffff16021790555091602001919060010190611715565b5b50905061177b91906117a2565b5090565b604051806103e00160405280601f90602082028036833780820191505090505090565b5b808211156117bb5760008160009055506001016117a3565b5090565b600081519050919050565b600082825260208201905092915050565b60005b838110156117f95780820151818401526020810190506117de565b60008484015250505050565b6000601f19601f8301169050919050565b6000611821826117bf565b61182b81856117ca565b935061183b8185602086016117db565b61184481611805565b840191505092915050565b600060208201905081810360008301526118698184611816565b905092915050565b6000604051905090565b600080fd5b600080fd5b600080fd5b7f4e487b7100000000000000000000000000000000000000000000000000000000600052604160045260246000fd5b6118c282611805565b810181811067ffffffffffffffff821117156118e1576118e061188a565b5b80604052505050565b60006118f4611871565b905061190082826118b9565b919050565b600067ffffffffffffffff8211156119205761191f61188a565b5b602082029050602081019050919050565b600080fd5b600073ffffffffffffffffffffffffffffffffffffffff82169050919050565b600061196182611936565b9050919050565b61197181611956565b811461197c57600080fd5b50565b60008135905061198e81611968565b92915050565b60006119a76119a284611905565b6118ea565b905080838252602082019050602084028301858111156119ca576119c9611931565b5b835b818110156119f357806119df888261197f565b8452602084019350506020810190506119cc565b5050509392505050565b600082601f830112611a1257611a11611885565b5b8135611a22848260208601611994565b91505092915050565b600060ff82169050919050565b611a4181611a2b565b8114611a4c57600080fd5b50565b600081359050611a5e81611a38565b92915050565b600080fd5b600067ffffffffffffffff821115611a8457611a8361188a565b5b611a8d82611805565b9050602081019050919050565b82818337600083830152505050565b6000611abc611ab784611a69565b6118ea565b905082815260208101848484011115611ad857611ad7611a64565b5b611ae3848285611a9a565b509392505050565b600082601f830112611b0057611aff611885565b5b8135611b10848260208601611aa9565b91505092915050565b600067ffffffffffffffff82169050919050565b611b3681611b19565b8114611b4157600080fd5b50565b600081359050611b5381611b2d565b92915050565b60008060008060008060c08789031215611b7657611b7561187b565b5b600087013567ffffffffffffffff811115611b9457611b93611880565b5b611ba089828a016119fd565b965050602087013567ffffffffffffffff811115611bc157611bc0611880565b5b611bcd89828a016119fd565b9550506040611bde89828a01611a4f565b945050606087013567ffffffffffffffff811115611bff57611bfe611880565b5b611c0b89828a01611aeb565b9350506080611c1c89828a01611b44565b92505060a087013567ffffffffffffffff811115611c3d57611c3c611880565b5b611c4989828a01611aeb565b9150509295509295509295565b6000819050919050565b611c6981611c56565b8114611c7457600080fd5b50565b600081359050611c8681611c60565b92915050565b60008060008060008060008060006101208a8c031215611caf57611cae61187b565b5b6000611cbd8c828d01611c77565b9950506020611cce8c828d0161197f565b9850506040611cdf8c828d01611b44565b97505060608a013567ffffffffffffffff811115611d0057611cff611880565b5b611d0c8c828d016119fd565b96505060808a013567ffffffffffffffff811115611d2d57611d2c611880565b5b611d398c828d016119fd565b95505060a0611d4a8c828d01611a4f565b94505060c08a013567ffffffffffffffff811115611d6b57611d6a611880565b5b611d778c828d01611aeb565b93505060e0611d888c828d01611b44565b9250506101008a013567ffffffffffffffff811115611daa57611da9611880565b5b611db68c828d01611aeb565b9150509295985092959850929598565b6000819050919050565b611dd981611dc6565b82525050565b6000602082019050611df46000830184611dd0565b92915050565b600081519050919050565b600082825260208201905092915050565b6000819050602082019050919050565b611e2f81611956565b82525050565b6000611e418383611e26565b60208301905092915050565b6000602082019050919050565b6000611e6582611dfa565b611e6f8185611e05565b9350611e7a83611e16565b8060005b83811015611eab578151611e928882611e35565b9750611e9d83611e4d565b925050600181019050611e7e565b5085935050505092915050565b60006020820190508181036000830152611ed28184611e5a565b905092915050565b600063ffffffff82169050919050565b611ef381611eda565b82525050565b6000606082019050611f0e6000830186611eea565b611f1b6020830185611eea565b611f286040830184611dd0565b949350505050565b611f3981611956565b82525050565b6000602082019050611f546000830184611f30565b92915050565b60008115159050919050565b611f6f81611f5a565b82525050565b6000606082019050611f8a6000830186611f66565b611f976020830185611dd0565b611fa46040830184611eea565b949350505050565b600081905082602060030282011115611fc857611fc7611931565b5b92915050565b600080fd5b60008083601f840112611fe957611fe8611885565b5b8235905067ffffffffffffffff81111561200657612005611fce565b5b60208301915083600182028301111561202257612021611931565b5b9250929050565b60008083601f84011261203f5761203e611885565b5b8235905067ffffffffffffffff81111561205c5761205b611fce565b5b60208301915083602082028301111561207857612077611931565b5b9250929050565b61208881611dc6565b811461209357600080fd5b50565b6000813590506120a58161207f565b92915050565b60008060008060008060008060e0898b0312156120cb576120ca61187b565b5b60006120d98b828c01611fac565b985050606089013567ffffffffffffffff8111156120fa576120f9611880565b5b6121068b828c01611fd3565b9750975050608089013567ffffffffffffffff81111561212957612128611880565b5b6121358b828c01612029565b955095505060a089013567ffffffffffffffff81111561215857612157611880565b5b6121648b828c01612029565b935093505060c06121778b828c01612096565b9150509295985092959890939650565b60006020828403121561219d5761219c61187b565b5b60006121ab8482850161197f565b91505092915050565b7f4e487b7100000000000000000000000000000000000000000000000000000000600052602160045260246000fd5b600581106121f4576121f36121b4565b5b50565b6000819050612205826121e3565b919050565b6000612215826121f7565b9050919050565b6122258161220a565b82525050565b6000602082019050612240600083018461221c565b92915050565b7f4e487b7100000000000000000000000000000000000000000000000000000000600052601160045260246000fd5b600061228082611c56565b915061228b83611c56565b925082820261229981611c56565b915082820484148315176122b0576122af612246565b5b5092915050565b7f4e487b7100000000000000000000000000000000000000000000000000000000600052603260045260246000fd5b60006122f182611eda565b915063ffffffff820361230757612306612246565b5b600182019050919050565b6000819050919050565b600061233761233261232d84611eda565b612312565b611b19565b9050919050565b6123478161231c565b82525050565b61235681611a2b565b82525050565b600081519050919050565b600082825260208201905092915050565b60006123838261235c565b61238d8185612367565b935061239d8185602086016117db565b6123a681611805565b840191505092915050565b6123ba81611b19565b82525050565b6000610120820190506123d6600083018c611eea565b6123e3602083018b611dd0565b6123f0604083018a61233e565b81810360608301526124028189611e5a565b905081810360808301526124168188611e5a565b905061242560a083018761234d565b81810360c08301526124378186612378565b905061244660e08301856123b1565b8181036101008301526124598184612378565b90509a9950505050505050505050565b7f4d7573742062652070726f706f736564206f776e657200000000000000000000600082015250565b600061249f6016836117ca565b91506124aa82612469565b602082019050919050565b600060208201905081810360008301526124ce81612492565b9050919050565b60006040820190506124ea6000830185611dd0565b6124f76020830184611dd0565b9392505050565b61250781611c56565b82525050565b600060408201905061252260008301856124fe565b61252f60208301846124fe565b9392505050565b600060408201905061254b6000830185611dd0565b6125586020830184611eea565b9392505050565b600061256a82611a2b565b915061257583611a2b565b9250828201905060ff81111561258e5761258d612246565b5b92915050565b7f4e487b7100000000000000000000000000000000000000000000000000000000600052601260045260246000fd5b60006125ce82611a2b565b91506125d983611a2b565b9250826125e9576125e8612594565b5b828204905092915050565b60006125ff82611c56565b915061260a83611c56565b925082820190508082111561262257612621612246565b5b92915050565b600081905092915050565b600061263f8385612628565b935061264c838584611a9a565b82840190509392505050565b6000612665828486612633565b91508190509392505050565b6000819050919050565b61268c61268782611dc6565b612671565b82525050565b82818337505050565b6126a760608383612692565b5050565b60006126b7828561267b565b6020820191506126c7828461269b565b6060820191508190509392505050565b60006080820190506126ec6000830187611dd0565b6126f9602083018661234d565b6127066040830185611dd0565b6127136060830184611dd0565b95945050505050565b7f4f6e6c792063616c6c61626c65206279206f776e657200000000000000000000600082015250565b60006127526016836117ca565b915061275d8261271c565b602082019050919050565b6000602082019050818103600083015261278181612745565b9050919050565b60006101208201905061279e600083018c6124fe565b6127ab602083018b611f30565b6127b8604083018a6123b1565b81810360608301526127ca8189611e5a565b905081810360808301526127de8188611e5a565b90506127ed60a083018761234d565b81810360c08301526127ff8186612378565b905061280e60e08301856123b1565b8181036101008301526128218184612378565b90509a9950505050505050505050565b7f43616e6e6f74207472616e7366657220746f2073656c66000000000000000000600082015250565b60006128676017836117ca565b915061287282612831565b602082019050919050565b600060208201905081810360008301526128968161285a565b905091905056fea164736f6c6343000818000a","linkReferences":{}},"methodIdentifiers":{"acceptOwnership()":"79ba5097","configDigestFromConfigData(uint256,address,uint64,address[],address[],uint8,bytes,uint64,bytes)":"50f70782","getTransmitters()":"666cab8d","latestConfigDetails()":"81ff7048","latestConfigDigestAndEpoch()":"afcb95d7","owner()":"8da5cb5b","setOCR2Config(address[],address[],uint8,bytes,uint64,bytes)":"1ef38174","transferOwnership(address)":"f2fde38b","transmit(bytes32[3],bytes,bytes32[],bytes32[],bytes32)":"b1dc65a4","typeAndVersion()":"181f5a77"},"id":92}