{"abi":[{"type":"constructor","inputs":[{"name":"facade","type":"address","internalType":"address"},{"name":"token","type":"address","internalType":"contract IERC20"},{"name":"rmnProxy","type":"address","internalType":"address"},{"name":"router","type":"address","internalType":"address"}],"stateMutability":"nonpayable"},{"type":"function","name":"acceptOwnership","inputs":[],"outputs":[],"stateMutability":"nonpayable"},{"type":"function","name":"applyAllowListUpdates","inputs":[{"name":"removes","type":"address[]","internalType":"address[]"},{"name":"adds","type":"address[]","internalType":"address[]"}],"outputs":[],"stateMutability":"nonpayable"},{"type":"function","name":"applyChainUpdates","inputs":[{"name":"chains","type":"tuple[]","internalType":"struct TokenPool.ChainUpdate[]","components":[{"name":"remoteChainSelector","type":"uint64","internalType":"uint64"},{"name":"allowed","type":"bool","internalType":"bool"},{"name":"remotePoolAddress","type":"bytes","internalType":"bytes"},{"name":"remoteTokenAddress","type":"bytes","internalType":"bytes"},{"name":"outboundRateLimiterConfig","type":"tuple","internalType":"struct RateLimiter.Config","components":[{"name":"isEnabled","type":"bool","internalType":"bool"},{"name":"capacity","type":"uint128","internalType":"uint128"},{"name":"rate","type":"uint128","internalType":"uint128"}]},{"name":"inboundRateLimiterConfig","type":"tuple","internalType":"struct RateLimiter.Config","components":[{"name":"isEnabled","type":"bool","internalType":"bool"},{"name":"capacity","type":"uint128","internalType":"uint128"},{"name":"rate","type":"uint128","internalType":"uint128"}]}]}],"outputs":[],"stateMutability":"nonpayable"},{"type":"function","name":"getAllowList","inputs":[],"outputs":[{"name":"","type":"address[]","internalType":"address[]"}],"stateMutability":"view"},{"type":"function","name":"getAllowListEnabled","inputs":[],"outputs":[{"name":"","type":"bool","internalType":"bool"}],"stateMutability":"view"},{"type":"function","name":"getCurrentInboundRateLimiterState","inputs":[{"name":"remoteChainSelector","type":"uint64","internalType":"uint64"}],"outputs":[{"name":"","type":"tuple","internalType":"struct RateLimiter.TokenBucket","components":[{"name":"tokens","type":"uint128","internalType":"uint128"},{"name":"lastUpdated","type":"uint32","internalType":"uint32"},{"name":"isEnabled","type":"bool","internalType":"bool"},{"name":"capacity","type":"uint128","internalType":"uint128"},{"name":"rate","type":"uint128","internalType":"uint128"}]}],"stateMutability":"view"},{"type":"function","name":"getCurrentOutboundRateLimiterState","inputs":[{"name":"remoteChainSelector","type":"uint64","internalType":"uint64"}],"outputs":[{"name":"","type":"tuple","internalType":"struct RateLimiter.TokenBucket","components":[{"name":"tokens","type":"uint128","internalType":"uint128"},{"name":"lastUpdated","type":"uint32","internalType":"uint32"},{"name":"isEnabled","type":"bool","internalType":"bool"},{"name":"capacity","type":"uint128","internalType":"uint128"},{"name":"rate","type":"uint128","internalType":"uint128"}]}],"stateMutability":"view"},{"type":"function","name":"getRemotePool","inputs":[{"name":"remoteChainSelector","type":"uint64","internalType":"uint64"}],"outputs":[{"name":"","type":"bytes","internalType":"bytes"}],"stateMutability":"view"},{"type":"function","name":"getRemoteToken","inputs":[{"name":"remoteChainSelector","type":"uint64","internalType":"uint64"}],"outputs":[{"name":"","type":"bytes","internalType":"bytes"}],"stateMutability":"view"},{"type":"function","name":"getRmnProxy","inputs":[],"outputs":[{"name":"rmnProxy","type":"address","internalType":"address"}],"stateMutability":"view"},{"type":"function","name":"getRouter","inputs":[],"outputs":[{"name":"router","type":"address","internalType":"address"}],"stateMutability":"view"},{"type":"function","name":"getSupportedChains","inputs":[],"outputs":[{"name":"","type":"uint64[]","internalType":"uint64[]"}],"stateMutability":"view"},{"type":"function","name":"getToken","inputs":[],"outputs":[{"name":"token","type":"address","internalType":"contract IERC20"}],"stateMutability":"view"},{"type":"function","name":"isSupportedChain","inputs":[{"name":"remoteChainSelector","type":"uint64","internalType":"uint64"}],"outputs":[{"name":"","type":"bool","internalType":"bool"}],"stateMutability":"view"},{"type":"function","name":"isSupportedToken","inputs":[{"name":"token","type":"address","internalType":"address"}],"outputs":[{"name":"","type":"bool","internalType":"bool"}],"stateMutability":"view"},{"type":"function","name":"lockOrBurn","inputs":[{"name":"lockOrBurnIn","type":"tuple","internalType":"struct Pool.LockOrBurnInV1","components":[{"name":"receiver","type":"bytes","internalType":"bytes"},{"name":"remoteChainSelector","type":"uint64","internalType":"uint64"},{"name":"originalSender","type":"address","internalType":"address"},{"name":"amount","type":"uint256","internalType":"uint256"},{"name":"localToken","type":"address","internalType":"address"}]}],"outputs":[{"name":"","type":"tuple","internalType":"struct Pool.LockOrBurnOutV1","components":[{"name":"destTokenAddress","type":"bytes","internalType":"bytes"},{"name":"destPoolData","type":"bytes","internalType":"bytes"}]}],"stateMutability":"nonpayable"},{"type":"function","name":"owner","inputs":[],"outputs":[{"name":"","type":"address","internalType":"address"}],"stateMutability":"view"},{"type":"function","name":"releaseOrMint","inputs":[{"name":"releaseOrMintIn","type":"tuple","internalType":"struct Pool.ReleaseOrMintInV1","components":[{"name":"originalSender","type":"bytes","internalType":"bytes"},{"name":"remoteChainSelector","type":"uint64","internalType":"uint64"},{"name":"receiver","type":"address","internalType":"address"},{"name":"amount","type":"uint256","internalType":"uint256"},{"name":"localToken","type":"address","internalType":"address"},{"name":"sourcePoolAddress","type":"bytes","internalType":"bytes"},{"name":"sourcePoolData","type":"bytes","internalType":"bytes"},{"name":"offchainTokenData","type":"bytes","internalType":"bytes"}]}],"outputs":[{"name":"","type":"tuple","internalType":"struct Pool.ReleaseOrMintOutV1","components":[{"name":"destinationAmount","type":"uint256","internalType":"uint256"}]}],"stateMutability":"pure"},{"type":"function","name":"setChainRateLimiterConfig","inputs":[{"name":"remoteChainSelector","type":"uint64","internalType":"uint64"},{"name":"outboundConfig","type":"tuple","internalType":"struct RateLimiter.Config","components":[{"name":"isEnabled","type":"bool","internalType":"bool"},{"name":"capacity","type":"uint128","internalType":"uint128"},{"name":"rate","type":"uint128","internalType":"uint128"}]},{"name":"inboundConfig","type":"tuple","internalType":"struct RateLimiter.Config","components":[{"name":"isEnabled","type":"bool","internalType":"bool"},{"name":"capacity","type":"uint128","internalType":"uint128"},{"name":"rate","type":"uint128","internalType":"uint128"}]}],"outputs":[],"stateMutability":"nonpayable"},{"type":"function","name":"setRemotePool","inputs":[{"name":"remoteChainSelector","type":"uint64","internalType":"uint64"},{"name":"remotePoolAddress","type":"bytes","internalType":"bytes"}],"outputs":[],"stateMutability":"nonpayable"},{"type":"function","name":"setRouter","inputs":[{"name":"newRouter","type":"address","internalType":"address"}],"outputs":[],"stateMutability":"nonpayable"},{"type":"function","name":"supportsInterface","inputs":[{"name":"interfaceId","type":"bytes4","internalType":"bytes4"}],"outputs":[{"name":"","type":"bool","internalType":"bool"}],"stateMutability":"pure"},{"type":"function","name":"transferOwnership","inputs":[{"name":"to","type":"address","internalType":"address"}],"outputs":[],"stateMutability":"nonpayable"},{"type":"event","name":"AllowListAdd","inputs":[{"name":"sender","type":"address","indexed":false,"internalType":"address"}],"anonymous":false},{"type":"event","name":"AllowListRemove","inputs":[{"name":"sender","type":"address","indexed":false,"internalType":"address"}],"anonymous":false},{"type":"event","name":"Burned","inputs":[{"name":"sender","type":"address","indexed":true,"internalType":"address"},{"name":"amount","type":"uint256","indexed":false,"internalType":"uint256"}],"anonymous":false},{"type":"event","name":"ChainAdded","inputs":[{"name":"remoteChainSelector","type":"uint64","indexed":false,"internalType":"uint64"},{"name":"remoteToken","type":"bytes","indexed":false,"internalType":"bytes"},{"name":"outboundRateLimiterConfig","type":"tuple","indexed":false,"internalType":"struct RateLimiter.Config","components":[{"name":"isEnabled","type":"bool","internalType":"bool"},{"name":"capacity","type":"uint128","internalType":"uint128"},{"name":"rate","type":"uint128","internalType":"uint128"}]},{"name":"inboundRateLimiterConfig","type":"tuple","indexed":false,"internalType":"struct RateLimiter.Config","components":[{"name":"isEnabled","type":"bool","internalType":"bool"},{"name":"capacity","type":"uint128","internalType":"uint128"},{"name":"rate","type":"uint128","internalType":"uint128"}]}],"anonymous":false},{"type":"event","name":"ChainConfigured","inputs":[{"name":"remoteChainSelector","type":"uint64","indexed":false,"internalType":"uint64"},{"name":"outboundRateLimiterConfig","type":"tuple","indexed":false,"internalType":"struct RateLimiter.Config","components":[{"name":"isEnabled","type":"bool","internalType":"bool"},{"name":"capacity","type":"uint128","internalType":"uint128"},{"name":"rate","type":"uint128","internalType":"uint128"}]},{"name":"inboundRateLimiterConfig","type":"tuple","indexed":false,"internalType":"struct RateLimiter.Config","components":[{"name":"isEnabled","type":"bool","internalType":"bool"},{"name":"capacity","type":"uint128","internalType":"uint128"},{"name":"rate","type":"uint128","internalType":"uint128"}]}],"anonymous":false},{"type":"event","name":"ChainRemoved","inputs":[{"name":"remoteChainSelector","type":"uint64","indexed":false,"internalType":"uint64"}],"anonymous":false},{"type":"event","name":"ConfigChanged","inputs":[{"name":"config","type":"tuple","indexed":false,"internalType":"struct RateLimiter.Config","components":[{"name":"isEnabled","type":"bool","internalType":"bool"},{"name":"capacity","type":"uint128","internalType":"uint128"},{"name":"rate","type":"uint128","internalType":"uint128"}]}],"anonymous":false},{"type":"event","name":"Locked","inputs":[{"name":"sender","type":"address","indexed":true,"internalType":"address"},{"name":"amount","type":"uint256","indexed":false,"internalType":"uint256"}],"anonymous":false},{"type":"event","name":"Minted","inputs":[{"name":"sender","type":"address","indexed":true,"internalType":"address"},{"name":"recipient","type":"address","indexed":true,"internalType":"address"},{"name":"amount","type":"uint256","indexed":false,"internalType":"uint256"}],"anonymous":false},{"type":"event","name":"OwnershipTransferRequested","inputs":[{"name":"from","type":"address","indexed":true,"internalType":"address"},{"name":"to","type":"address","indexed":true,"internalType":"address"}],"anonymous":false},{"type":"event","name":"OwnershipTransferred","inputs":[{"name":"from","type":"address","indexed":true,"internalType":"address"},{"name":"to","type":"address","indexed":true,"internalType":"address"}],"anonymous":false},{"type":"event","name":"Released","inputs":[{"name":"sender","type":"address","indexed":true,"internalType":"address"},{"name":"recipient","type":"address","indexed":true,"internalType":"address"},{"name":"amount","type":"uint256","indexed":false,"internalType":"uint256"}],"anonymous":false},{"type":"event","name":"RemotePoolSet","inputs":[{"name":"remoteChainSelector","type":"uint64","indexed":true,"internalType":"uint64"},{"name":"previousPoolAddress","type":"bytes","indexed":false,"internalType":"bytes"},{"name":"remotePoolAddress","type":"bytes","indexed":false,"internalType":"bytes"}],"anonymous":false},{"type":"event","name":"RouterUpdated","inputs":[{"name":"oldRouter","type":"address","indexed":false,"internalType":"address"},{"name":"newRouter","type":"address","indexed":false,"internalType":"address"}],"anonymous":false},{"type":"error","name":"AllowListNotEnabled","inputs":[]},{"type":"error","name":"CallerIsNotARampOnRouter","inputs":[{"name":"caller","type":"address","internalType":"address"}]},{"type":"error","name":"ChainAlreadyExists","inputs":[{"name":"chainSelector","type":"uint64","internalType":"uint64"}]},{"type":"error","name":"ChainNotAllowed","inputs":[{"name":"remoteChainSelector","type":"uint64","internalType":"uint64"}]},{"type":"error","name":"CursedByRMN","inputs":[]},{"type":"error","name":"DisabledNonZeroRateLimit","inputs":[{"name":"config","type":"tuple","internalType":"struct RateLimiter.Config","components":[{"name":"isEnabled","type":"bool","internalType":"bool"},{"name":"capacity","type":"uint128","internalType":"uint128"},{"name":"rate","type":"uint128","internalType":"uint128"}]}]},{"type":"error","name":"InvalidRateLimitRate","inputs":[{"name":"rateLimiterConfig","type":"tuple","internalType":"struct RateLimiter.Config","components":[{"name":"isEnabled","type":"bool","internalType":"bool"},{"name":"capacity","type":"uint128","internalType":"uint128"},{"name":"rate","type":"uint128","internalType":"uint128"}]}]},{"type":"error","name":"InvalidSourcePoolAddress","inputs":[{"name":"sourcePoolAddress","type":"bytes","internalType":"bytes"}]},{"type":"error","name":"InvalidToken","inputs":[{"name":"token","type":"address","internalType":"address"}]},{"type":"error","name":"NonExistentChain","inputs":[{"name":"remoteChainSelector","type":"uint64","internalType":"uint64"}]},{"type":"error","name":"RateLimitMustBeDisabled","inputs":[]},{"type":"error","name":"SenderNotAllowed","inputs":[{"name":"sender","type":"address","internalType":"address"}]},{"type":"error","name":"ZeroAddressNotAllowed","inputs":[]}],"bytecode":{"object":"0x60e06040523480156200001157600080fd5b506040516200493138038062004931833981810160405281019062000037919062000980565b82600067ffffffffffffffff811115620000565762000055620009f2565b5b604051908082528060200260200182016040528015620000855781602001602082028036833780820191505090505b508383338060008073ffffffffffffffffffffffffffffffffffffffff168273ffffffffffffffffffffffffffffffffffffffff1603620000fd576040517f08c379a0000000000000000000000000000000000000000000000000000000008152600401620000f49062000a82565b60405180910390fd5b816000806101000a81548173ffffffffffffffffffffffffffffffffffffffff021916908373ffffffffffffffffffffffffffffffffffffffff160217905550600073ffffffffffffffffffffffffffffffffffffffff168173ffffffffffffffffffffffffffffffffffffffff161462000184576200018381620003d060201b60201c565b5b505050600073ffffffffffffffffffffffffffffffffffffffff168473ffffffffffffffffffffffffffffffffffffffff161480620001ef5750600073ffffffffffffffffffffffffffffffffffffffff168173ffffffffffffffffffffffffffffffffffffffff16145b80620002275750600073ffffffffffffffffffffffffffffffffffffffff168273ffffffffffffffffffffffffffffffffffffffff16145b156200025f576040517f8579befe00000000000000000000000000000000000000000000000000000000815260040160405180910390fd5b8373ffffffffffffffffffffffffffffffffffffffff1660808173ffffffffffffffffffffffffffffffffffffffff16815250508173ffffffffffffffffffffffffffffffffffffffff1660a08173ffffffffffffffffffffffffffffffffffffffff168152505080600460006101000a81548173ffffffffffffffffffffffffffffffffffffffff021916908373ffffffffffffffffffffffffffffffffffffffff1602179055506000835111151560c08115158152505060c05115620003815762000380600067ffffffffffffffff811115620003435762000342620009f2565b5b604051908082528060200260200182016040528015620003725781602001602082028036833780820191505090505b5084620004ff60201b60201c565b5b5050505083600860006101000a81548173ffffffffffffffffffffffffffffffffffffffff021916908373ffffffffffffffffffffffffffffffffffffffff1602179055505050505062000c16565b3373ffffffffffffffffffffffffffffffffffffffff168173ffffffffffffffffffffffffffffffffffffffff160362000441576040517f08c379a0000000000000000000000000000000000000000000000000000000008152600401620004389062000af4565b60405180910390fd5b80600160006101000a81548173ffffffffffffffffffffffffffffffffffffffff021916908373ffffffffffffffffffffffffffffffffffffffff1602179055508073ffffffffffffffffffffffffffffffffffffffff1660008054906101000a900473ffffffffffffffffffffffffffffffffffffffff1673ffffffffffffffffffffffffffffffffffffffff167fed8889f560326eb138920d842192f0eb3dd22b4f139c87a2c57538e05bae127860405160405180910390a350565b60c05162000539576040517f35f4a7b300000000000000000000000000000000000000000000000000000000815260040160405180910390fd5b60005b8251811015620005cb5760008382815181106200055e576200055d62000b16565b5b602002602001015190506200057e816002620006a060201b90919060201c565b15620005be577f800671136ab6cfee9fbe5ed1fb7ca417811aca3cf864800d127b927adedf756681604051620005b5919062000b56565b60405180910390a15b508060010190506200053c565b5060005b81518110156200069b576000828281518110620005f157620005f062000b16565b5b60200260200101519050600073ffffffffffffffffffffffffffffffffffffffff168173ffffffffffffffffffffffffffffffffffffffff16036200063757506200068f565b6200064d816002620006d860201b90919060201c565b156200068d577f2640d4d76caf8bf478aabfa982fa4e1c4eb71a37f93cd15e80dbc657911546d88160405162000684919062000b56565b60405180910390a15b505b806001019050620005cf565b505050565b6000620006d0836000018373ffffffffffffffffffffffffffffffffffffffff1660001b6200071060201b60201c565b905092915050565b600062000708836000018373ffffffffffffffffffffffffffffffffffffffff1660001b6200083460201b60201c565b905092915050565b600080836001016000848152602001908152602001600020549050600081146200082857600060018262000745919062000bac565b90506000600186600001805490506200075f919062000bac565b9050818114620007d557600086600001828154811062000784576200078362000b16565b5b9060005260206000200154905080876000018481548110620007ab57620007aa62000b16565b5b90600052602060002001819055508387600101600083815260200190815260200160002081905550505b85600001805480620007ec57620007eb62000be7565b5b6001900381819060005260206000200160009055905585600101600086815260200190815260200160002060009055600193505050506200082e565b60009150505b92915050565b6000620008488383620008ae60201b60201c565b620008a3578260000182908060018154018082558091505060019003906000526020600020016000909190919091505582600001805490508360010160008481526020019081526020016000208190555060019050620008a8565b600090505b92915050565b600080836001016000848152602001908152602001600020541415905092915050565b600080fd5b600073ffffffffffffffffffffffffffffffffffffffff82169050919050565b60006200090382620008d6565b9050919050565b6200091581620008f6565b81146200092157600080fd5b50565b60008151905062000935816200090a565b92915050565b60006200094882620008f6565b9050919050565b6200095a816200093b565b81146200096657600080fd5b50565b6000815190506200097a816200094f565b92915050565b600080600080608085870312156200099d576200099c620008d1565b5b6000620009ad8782880162000924565b9450506020620009c08782880162000969565b9350506040620009d38782880162000924565b9250506060620009e68782880162000924565b91505092959194509250565b7f4e487b7100000000000000000000000000000000000000000000000000000000600052604160045260246000fd5b600082825260208201905092915050565b7f43616e6e6f7420736574206f776e657220746f207a65726f0000000000000000600082015250565b600062000a6a60188362000a21565b915062000a778262000a32565b602082019050919050565b6000602082019050818103600083015262000a9d8162000a5b565b9050919050565b7f43616e6e6f74207472616e7366657220746f2073656c66000000000000000000600082015250565b600062000adc60178362000a21565b915062000ae98262000aa4565b602082019050919050565b6000602082019050818103600083015262000b0f8162000acd565b9050919050565b7f4e487b7100000000000000000000000000000000000000000000000000000000600052603260045260246000fd5b62000b5081620008f6565b82525050565b600060208201905062000b6d600083018462000b45565b92915050565b6000819050919050565b7f4e487b7100000000000000000000000000000000000000000000000000000000600052601160045260246000fd5b600062000bb98262000b73565b915062000bc68362000b73565b925082820390508181111562000be15762000be062000b7d565b5b92915050565b7f4e487b7100000000000000000000000000000000000000000000000000000000600052603160045260246000fd5b60805160a05160c051613cdd62000c5460003960008181611a0d0152611ad7015260006119e5015260008181610667015261068f0152613cdd6000f3fe608060405234801561001057600080fd5b506004361061014d5760003560e01c8063a7cd63b7116100c3578063c75eea9c1161007c578063c75eea9c146103c6578063cf7401f3146103f6578063db6327dc14610412578063dc0bd9711461042e578063e0351e131461044c578063f2fde38b1461046a5761014d565b8063a7cd63b7146102f0578063af58d59f1461030e578063b0f479a11461033e578063b79465801461035c578063c0d786551461038c578063c4bffe2b146103a85761014d565b806354c8a4f31161011557806354c8a4f31461023057806378a010b21461024c57806379ba5097146102685780638926f54f146102725780638da5cb5b146102a25780639a4575b9146102c05761014d565b806301ffc9a7146101525780630a2fd4931461018257806321df0da7146101b2578063240028e8146101d05780633907753714610200575b600080fd5b61016c6004803603810190610167919061280c565b610486565b6040516101799190612854565b60405180910390f35b61019c600480360381019061019791906128af565b6105a7565b6040516101a9919061296c565b60405180910390f35b6101ba610663565b6040516101c79190612a0d565b60405180910390f35b6101ea60048036038101906101e59190612a66565b61068b565b6040516101f79190612854565b60405180910390f35b61021a60048036038101906102159190612ab8565b6106e3565b6040516102279190612b36565b60405180910390f35b61024a60048036038101906102459190612bb6565b610705565b005b61026660048036038101906102619190612c8d565b61079f565b005b61027061092e565b005b61028c600480360381019061028791906128af565b610ac3565b6040516102999190612854565b60405180910390f35b6102aa610aea565b6040516102b79190612cfc565b60405180910390f35b6102da60048036038101906102d59190612d36565b610b13565b6040516102e79190612e0d565b60405180910390f35b6102f8610cb9565b6040516103059190612eed565b60405180910390f35b610328600480360381019061032391906128af565b610cca565b6040516103359190612fd0565b60405180910390f35b610346610e35565b6040516103539190612cfc565b60405180910390f35b610376600480360381019061037191906128af565b610e5f565b604051610383919061296c565b60405180910390f35b6103a660048036038101906103a19190612a66565b610f1b565b005b6103b061102e565b6040516103bd91906130a9565b60405180910390f35b6103e060048036038101906103db91906128af565b6110fc565b6040516103ed9190612fd0565b60405180910390f35b610410600480360381019061040b919061320c565b611267565b005b61042c600480360381019061042791906132b5565b61127f565b005b6104366119e1565b6040516104439190612cfc565b60405180910390f35b610454611a09565b6040516104619190612854565b60405180910390f35b610484600480360381019061047f9190612a66565b611a31565b005b600063aff2afbf60e01b7bffffffffffffffffffffffffffffffffffffffffffffffffffffffff1916827bffffffffffffffffffffffffffffffffffffffffffffffffffffffff1916148061053857507f0e64dd29000000000000000000000000000000000000000000000000000000007bffffffffffffffffffffffffffffffffffffffffffffffffffffffff1916827bffffffffffffffffffffffffffffffffffffffffffffffffffffffff1916145b806105a057507f01ffc9a7000000000000000000000000000000000000000000000000000000007bffffffffffffffffffffffffffffffffffffffffffffffffffffffff1916827bffffffffffffffffffffffffffffffffffffffffffffffffffffffff1916145b9050919050565b6060600760008367ffffffffffffffff1667ffffffffffffffff16815260200190815260200160002060040180546105de90613331565b80601f016020809104026020016040519081016040528092919081815260200182805461060a90613331565b80156106575780601f1061062c57610100808354040283529160200191610657565b820191906000526020600020905b81548152906001019060200180831161063a57829003601f168201915b50505050509050919050565b60007f0000000000000000000000000000000000000000000000000000000000000000905090565b60007f000000000000000000000000000000000000000000000000000000000000000073ffffffffffffffffffffffffffffffffffffffff168273ffffffffffffffffffffffffffffffffffffffff16149050919050565b6106eb6126a9565b604051806020016040528083606001358152509050919050565b61070d611a45565b610799848480806020026020016040519081016040528093929190818152602001838360200280828437600081840152601f19601f82011690508083019250505050505050838380806020026020016040519081016040528093929190818152602001838360200280828437600081840152601f19601f82011690508083019250505050505050611ad5565b50505050565b6107a7611a45565b6107b083610ac3565b6107f157826040517f1e670e4b0000000000000000000000000000000000000000000000000000000081526004016107e89190613371565b60405180910390fd5b6000600760008567ffffffffffffffff1667ffffffffffffffff168152602001908152602001600020600401805461082890613331565b80601f016020809104026020016040519081016040528092919081815260200182805461085490613331565b80156108a15780601f10610876576101008083540402835291602001916108a1565b820191906000526020600020905b81548152906001019060200180831161088457829003601f168201915b505050505090508282600760008767ffffffffffffffff1667ffffffffffffffff16815260200190815260200160002060040191826108e1929190613539565b508367ffffffffffffffff167fdb4d6220746a38cbc5335f7e108f7de80f482f4d23350253dfd0917df75a14bf82858560405161092093929190613645565b60405180910390a250505050565b600160009054906101000a900473ffffffffffffffffffffffffffffffffffffffff1673ffffffffffffffffffffffffffffffffffffffff163373ffffffffffffffffffffffffffffffffffffffff16146109be576040517f08c379a00000000000000000000000000000000000000000000000000000000081526004016109b5906136db565b60405180910390fd5b60008060009054906101000a900473ffffffffffffffffffffffffffffffffffffffff169050336000806101000a81548173ffffffffffffffffffffffffffffffffffffffff021916908373ffffffffffffffffffffffffffffffffffffffff1602179055506000600160006101000a81548173ffffffffffffffffffffffffffffffffffffffff021916908373ffffffffffffffffffffffffffffffffffffffff1602179055503373ffffffffffffffffffffffffffffffffffffffff168173ffffffffffffffffffffffffffffffffffffffff167f8be0079c531659141344cd1fd0a4f28419497f9722a3daafe3b4186f6b6457e060405160405180910390a350565b6000610ae38267ffffffffffffffff166005611c7d90919063ffffffff16565b9050919050565b60008060009054906101000a900473ffffffffffffffffffffffffffffffffffffffff16905090565b610b1b6126bc565b600860149054906101000a900460ff1615610b75576040518060400160405280610b56846020016020810190610b5191906128af565b610e5f565b8152602001604051806020016040528060008152508152509050610cb4565b6001600860146101000a81548160ff021916908315150217905550600860009054906101000a900473ffffffffffffffffffffffffffffffffffffffff1673ffffffffffffffffffffffffffffffffffffffff1663a52c101e83606001356040518263ffffffff1660e01b8152600401610bef919061370a565b600060405180830381600087803b158015610c0957600080fd5b505af1158015610c1d573d6000803e3d6000fd5b505050503373ffffffffffffffffffffffffffffffffffffffff167f696de425f79f4a40bc6d2122ca50507f0efbeabbff86a84871b7196ab8ea8df78360600135604051610c6b919061370a565b60405180910390a26040518060400160405280610c99846020016020810190610c9491906128af565b610e5f565b81526020016040518060200160405280600081525081525090505b919050565b6060610cc56002611c97565b905090565b610cd26126d6565b610e2e600760008467ffffffffffffffff1667ffffffffffffffff1681526020019081526020016000206002016040518060a00160405290816000820160009054906101000a90046fffffffffffffffffffffffffffffffff166fffffffffffffffffffffffffffffffff166fffffffffffffffffffffffffffffffff1681526020016000820160109054906101000a900463ffffffff1663ffffffff1663ffffffff1681526020016000820160149054906101000a900460ff161515151581526020016001820160009054906101000a90046fffffffffffffffffffffffffffffffff166fffffffffffffffffffffffffffffffff166fffffffffffffffffffffffffffffffff1681526020016001820160109054906101000a90046fffffffffffffffffffffffffffffffff166fffffffffffffffffffffffffffffffff166fffffffffffffffffffffffffffffffff1681525050611cb8565b9050919050565b6000600460009054906101000a900473ffffffffffffffffffffffffffffffffffffffff16905090565b6060600760008367ffffffffffffffff1667ffffffffffffffff1681526020019081526020016000206005018054610e9690613331565b80601f0160208091040260200160405190810160405280929190818152602001828054610ec290613331565b8015610f0f5780601f10610ee457610100808354040283529160200191610f0f565b820191906000526020600020905b815481529060010190602001808311610ef257829003601f168201915b50505050509050919050565b610f23611a45565b600073ffffffffffffffffffffffffffffffffffffffff168173ffffffffffffffffffffffffffffffffffffffff1603610f89576040517f8579befe00000000000000000000000000000000000000000000000000000000815260040160405180910390fd5b6000600460009054906101000a900473ffffffffffffffffffffffffffffffffffffffff16905081600460006101000a81548173ffffffffffffffffffffffffffffffffffffffff021916908373ffffffffffffffffffffffffffffffffffffffff1602179055507f02dc5c233404867c793b749c6d644beb2277536d18a7e7974d3f238e4c6f16848183604051611022929190613725565b60405180910390a15050565b6060600061103c6005611d72565b90506000815167ffffffffffffffff81111561105b5761105a6130d0565b5b6040519080825280602002602001820160405280156110895781602001602082028036833780820191505090505b50905060005b82518110156110f3578281815181106110ab576110aa61374e565b5b60200260200101518282815181106110c6576110c561374e565b5b602002602001019067ffffffffffffffff16908167ffffffffffffffff168152505080600101905061108f565b50809250505090565b6111046126d6565b611260600760008467ffffffffffffffff1667ffffffffffffffff1681526020019081526020016000206000016040518060a00160405290816000820160009054906101000a90046fffffffffffffffffffffffffffffffff166fffffffffffffffffffffffffffffffff166fffffffffffffffffffffffffffffffff1681526020016000820160109054906101000a900463ffffffff1663ffffffff1663ffffffff1681526020016000820160149054906101000a900460ff161515151581526020016001820160009054906101000a90046fffffffffffffffffffffffffffffffff166fffffffffffffffffffffffffffffffff166fffffffffffffffffffffffffffffffff1681526020016001820160109054906101000a90046fffffffffffffffffffffffffffffffff166fffffffffffffffffffffffffffffffff166fffffffffffffffffffffffffffffffff1681525050611cb8565b9050919050565b61126f611a45565b61127a838383611d93565b505050565b611287611a45565b60005b828290508110156119dc5760008383838181106112aa576112a961374e565b5b90506020028101906112bc9190613782565b6112c59061392a565b90506112da8160800151826020015115611eab565b6112ed8160a00151826020015115611eab565b8060200151156117a957611319816000015167ffffffffffffffff16600561200990919063ffffffff16565b61135e5780600001516040517f1d5ad3c50000000000000000000000000000000000000000000000000000000081526004016113559190613371565b60405180910390fd5b6000816040015151148061137757506000816060015151145b156113ae576040517f8579befe00000000000000000000000000000000000000000000000000000000815260040160405180910390fd5b60405180608001604052806040518060a001604052808460800151602001516fffffffffffffffffffffffffffffffff1681526020014263ffffffff168152602001846080015160000151151581526020018460800151602001516fffffffffffffffffffffffffffffffff1681526020018460800151604001516fffffffffffffffffffffffffffffffff1681525081526020016040518060a001604052808460a00151602001516fffffffffffffffffffffffffffffffff1681526020014263ffffffff1681526020018460a0015160000151151581526020018460a00151602001516fffffffffffffffffffffffffffffffff1681526020018460a00151604001516fffffffffffffffffffffffffffffffff16815250815260200182604001518152602001826060015181525060076000836000015167ffffffffffffffff1667ffffffffffffffff16815260200190815260200160002060008201518160000160008201518160000160006101000a8154816fffffffffffffffffffffffffffffffff02191690836fffffffffffffffffffffffffffffffff16021790555060208201518160000160106101000a81548163ffffffff021916908363ffffffff16021790555060408201518160000160146101000a81548160ff02191690831515021790555060608201518160010160006101000a8154816fffffffffffffffffffffffffffffffff02191690836fffffffffffffffffffffffffffffffff16021790555060808201518160010160106101000a8154816fffffffffffffffffffffffffffffffff02191690836fffffffffffffffffffffffffffffffff160217905550505060208201518160020160008201518160000160006101000a8154816fffffffffffffffffffffffffffffffff02191690836fffffffffffffffffffffffffffffffff16021790555060208201518160000160106101000a81548163ffffffff021916908363ffffffff16021790555060408201518160000160146101000a81548160ff02191690831515021790555060608201518160010160006101000a8154816fffffffffffffffffffffffffffffffff02191690836fffffffffffffffffffffffffffffffff16021790555060808201518160010160106101000a8154816fffffffffffffffffffffffffffffffff02191690836fffffffffffffffffffffffffffffffff1602179055505050604082015181600401908161173d919061393d565b506060820151816005019081611753919061393d565b509050507f8d340f17e19058004c20453540862a9c62778504476f6756755cb33bcd6c38c28160000151826060015183608001518460a0015160405161179c9493929190613a51565b60405180910390a16119d0565b6117cb816000015167ffffffffffffffff16600561202390919063ffffffff16565b6118105780600001516040517f1e670e4b0000000000000000000000000000000000000000000000000000000081526004016118079190613371565b60405180910390fd5b60076000826000015167ffffffffffffffff1667ffffffffffffffff1681526020019081526020016000206000808201600080820160006101000a8154906fffffffffffffffffffffffffffffffff02191690556000820160106101000a81549063ffffffff02191690556000820160146101000a81549060ff02191690556001820160006101000a8154906fffffffffffffffffffffffffffffffff02191690556001820160106101000a8154906fffffffffffffffffffffffffffffffff0219169055505060028201600080820160006101000a8154906fffffffffffffffffffffffffffffffff02191690556000820160106101000a81549063ffffffff02191690556000820160146101000a81549060ff02191690556001820160006101000a8154906fffffffffffffffffffffffffffffffff02191690556001820160106101000a8154906fffffffffffffffffffffffffffffffff021916905550506004820160006119829190612743565b6005820160006119929190612743565b50507f5204aec90a3c794d8e90fded8b46ae9c7c552803e7e832e0c1d358396d85991681600001516040516119c79190613371565b60405180910390a15b5080600101905061128a565b505050565b60007f0000000000000000000000000000000000000000000000000000000000000000905090565b60007f0000000000000000000000000000000000000000000000000000000000000000905090565b611a39611a45565b611a428161203d565b50565b60008054906101000a900473ffffffffffffffffffffffffffffffffffffffff1673ffffffffffffffffffffffffffffffffffffffff163373ffffffffffffffffffffffffffffffffffffffff1614611ad3576040517f08c379a0000000000000000000000000000000000000000000000000000000008152600401611aca90613aea565b60405180910390fd5b565b7f0000000000000000000000000000000000000000000000000000000000000000611b2c576040517f35f4a7b300000000000000000000000000000000000000000000000000000000815260040160405180910390fd5b60005b8251811015611bb4576000838281518110611b4d57611b4c61374e565b5b60200260200101519050611b6b81600261216990919063ffffffff16565b15611ba8577f800671136ab6cfee9fbe5ed1fb7ca417811aca3cf864800d127b927adedf756681604051611b9f9190612cfc565b60405180910390a15b50806001019050611b2f565b5060005b8151811015611c78576000828281518110611bd657611bd561374e565b5b60200260200101519050600073ffffffffffffffffffffffffffffffffffffffff168173ffffffffffffffffffffffffffffffffffffffff1603611c1a5750611c6d565b611c2e81600261219990919063ffffffff16565b15611c6b577f2640d4d76caf8bf478aabfa982fa4e1c4eb71a37f93cd15e80dbc657911546d881604051611c629190612cfc565b60405180910390a15b505b806001019050611bb8565b505050565b6000611c8f836000018360001b6121c9565b905092915050565b60606000611ca7836000016121ec565b905060608190508092505050919050565b611cc06126d6565b611d2382606001516fffffffffffffffffffffffffffffffff1683600001516fffffffffffffffffffffffffffffffff16846020015163ffffffff1642611d079190613b39565b85608001516fffffffffffffffffffffffffffffffff16612248565b82600001906fffffffffffffffffffffffffffffffff1690816fffffffffffffffffffffffffffffffff168152505042826020019063ffffffff16908163ffffffff1681525050819050919050565b60606000611d82836000016121ec565b905060608190508092505050919050565b611d9c83610ac3565b611ddd57826040517f1e670e4b000000000000000000000000000000000000000000000000000000008152600401611dd49190613371565b60405180910390fd5b611de8826000611eab565b611e2482600760008667ffffffffffffffff1667ffffffffffffffff16815260200190815260200160002060000161227490919063ffffffff16565b611e2f816000611eab565b611e6b81600760008667ffffffffffffffff1667ffffffffffffffff16815260200190815260200160002060020161227490919063ffffffff16565b7f0350d63aa5f270e01729d00d627eeb8f3429772b1818c016c66a588a864f912b838383604051611e9e93929190613b6d565b60405180910390a1505050565b816000015115611f855781602001516fffffffffffffffffffffffffffffffff1682604001516fffffffffffffffffffffffffffffffff16101580611f065750600082604001516fffffffffffffffffffffffffffffffff16145b15611f4857816040517f8020d124000000000000000000000000000000000000000000000000000000008152600401611f3f9190613ba4565b60405180910390fd5b8015611f80576040517f433fc33d00000000000000000000000000000000000000000000000000000000815260040160405180910390fd5b612005565b600082604001516fffffffffffffffffffffffffffffffff16141580611fc25750600082602001516fffffffffffffffffffffffffffffffff1614155b1561200457816040517fd68af9cc000000000000000000000000000000000000000000000000000000008152600401611ffb9190613ba4565b60405180910390fd5b5b5050565b600061201b836000018360001b61250c565b905092915050565b6000612035836000018360001b61257c565b905092915050565b3373ffffffffffffffffffffffffffffffffffffffff168173ffffffffffffffffffffffffffffffffffffffff16036120ab576040517f08c379a00000000000000000000000000000000000000000000000000000000081526004016120a290613c0b565b60405180910390fd5b80600160006101000a81548173ffffffffffffffffffffffffffffffffffffffff021916908373ffffffffffffffffffffffffffffffffffffffff1602179055508073ffffffffffffffffffffffffffffffffffffffff1660008054906101000a900473ffffffffffffffffffffffffffffffffffffffff1673ffffffffffffffffffffffffffffffffffffffff167fed8889f560326eb138920d842192f0eb3dd22b4f139c87a2c57538e05bae127860405160405180910390a350565b6000612191836000018373ffffffffffffffffffffffffffffffffffffffff1660001b61257c565b905092915050565b60006121c1836000018373ffffffffffffffffffffffffffffffffffffffff1660001b61250c565b905092915050565b600080836001016000848152602001908152602001600020541415905092915050565b60608160000180548060200260200160405190810160405280929190818152602001828054801561223c57602002820191906000526020600020905b815481526020019060010190808311612228575b50505050509050919050565b600061226a85838561225a9190613c2b565b866122659190613c6d565b612690565b9050949350505050565b60008260000160109054906101000a900463ffffffff1663ffffffff164261229c9190613b39565b9050600081146123a6576123488360010160009054906101000a90046fffffffffffffffffffffffffffffffff166fffffffffffffffffffffffffffffffff168460000160009054906101000a90046fffffffffffffffffffffffffffffffff166fffffffffffffffffffffffffffffffff16838660010160109054906101000a90046fffffffffffffffffffffffffffffffff166fffffffffffffffffffffffffffffffff16612248565b8360000160006101000a8154816fffffffffffffffffffffffffffffffff02191690836fffffffffffffffffffffffffffffffff160217905550428360000160106101000a81548163ffffffff021916908363ffffffff1602179055505b6123f882602001516fffffffffffffffffffffffffffffffff168460000160009054906101000a90046fffffffffffffffffffffffffffffffff166fffffffffffffffffffffffffffffffff16612690565b8360000160006101000a8154816fffffffffffffffffffffffffffffffff02191690836fffffffffffffffffffffffffffffffff16021790555081600001518360000160146101000a81548160ff02191690831515021790555081602001518360010160006101000a8154816fffffffffffffffffffffffffffffffff02191690836fffffffffffffffffffffffffffffffff16021790555081604001518360010160106101000a8154816fffffffffffffffffffffffffffffffff02191690836fffffffffffffffffffffffffffffffff1602179055507f9ea3374b67bf275e6bb9c8ae68f9cae023e1c528b4b27e092f0bb209d3531c19826040516124ff9190613ba4565b60405180910390a1505050565b600061251883836121c9565b612571578260000182908060018154018082558091505060019003906000526020600020016000909190919091505582600001805490508360010160008481526020019081526020016000208190555060019050612576565b600090505b92915050565b600080836001016000848152602001908152602001600020549050600081146126845760006001826125ae9190613b39565b90506000600186600001805490506125c69190613b39565b90508181146126355760008660000182815481106125e7576125e661374e565b5b906000526020600020015490508087600001848154811061260b5761260a61374e565b5b90600052602060002001819055508387600101600083815260200190815260200160002081905550505b8560000180548061264957612648613ca1565b5b60019003818190600052602060002001600090559055856001016000868152602001908152602001600020600090556001935050505061268a565b60009150505b92915050565b600081831061269f57816126a1565b825b905092915050565b6040518060200160405280600081525090565b604051806040016040528060608152602001606081525090565b6040518060a0016040528060006fffffffffffffffffffffffffffffffff168152602001600063ffffffff16815260200160001515815260200160006fffffffffffffffffffffffffffffffff16815260200160006fffffffffffffffffffffffffffffffff1681525090565b50805461274f90613331565b6000825580601f106127615750612780565b601f01602090049060005260206000209081019061277f9190612783565b5b50565b5b8082111561279c576000816000905550600101612784565b5090565b6000604051905090565b600080fd5b600080fd5b60007fffffffff0000000000000000000000000000000000000000000000000000000082169050919050565b6127e9816127b4565b81146127f457600080fd5b50565b600081359050612806816127e0565b92915050565b600060208284031215612822576128216127aa565b5b6000612830848285016127f7565b91505092915050565b60008115159050919050565b61284e81612839565b82525050565b60006020820190506128696000830184612845565b92915050565b600067ffffffffffffffff82169050919050565b61288c8161286f565b811461289757600080fd5b50565b6000813590506128a981612883565b92915050565b6000602082840312156128c5576128c46127aa565b5b60006128d38482850161289a565b91505092915050565b600081519050919050565b600082825260208201905092915050565b60005b838110156129165780820151818401526020810190506128fb565b60008484015250505050565b6000601f19601f8301169050919050565b600061293e826128dc565b61294881856128e7565b93506129588185602086016128f8565b61296181612922565b840191505092915050565b600060208201905081810360008301526129868184612933565b905092915050565b600073ffffffffffffffffffffffffffffffffffffffff82169050919050565b6000819050919050565b60006129d36129ce6129c98461298e565b6129ae565b61298e565b9050919050565b60006129e5826129b8565b9050919050565b60006129f7826129da565b9050919050565b612a07816129ec565b82525050565b6000602082019050612a2260008301846129fe565b92915050565b6000612a338261298e565b9050919050565b612a4381612a28565b8114612a4e57600080fd5b50565b600081359050612a6081612a3a565b92915050565b600060208284031215612a7c57612a7b6127aa565b5b6000612a8a84828501612a51565b91505092915050565b600080fd5b60006101008284031215612aaf57612aae612a93565b5b81905092915050565b600060208284031215612ace57612acd6127aa565b5b600082013567ffffffffffffffff811115612aec57612aeb6127af565b5b612af884828501612a98565b91505092915050565b6000819050919050565b612b1481612b01565b82525050565b602082016000820151612b306000850182612b0b565b50505050565b6000602082019050612b4b6000830184612b1a565b92915050565b600080fd5b600080fd5b600080fd5b60008083601f840112612b7657612b75612b51565b5b8235905067ffffffffffffffff811115612b9357612b92612b56565b5b602083019150836020820283011115612baf57612bae612b5b565b5b9250929050565b60008060008060408587031215612bd057612bcf6127aa565b5b600085013567ffffffffffffffff811115612bee57612bed6127af565b5b612bfa87828801612b60565b9450945050602085013567ffffffffffffffff811115612c1d57612c1c6127af565b5b612c2987828801612b60565b925092505092959194509250565b60008083601f840112612c4d57612c4c612b51565b5b8235905067ffffffffffffffff811115612c6a57612c69612b56565b5b602083019150836001820283011115612c8657612c85612b5b565b5b9250929050565b600080600060408486031215612ca657612ca56127aa565b5b6000612cb48682870161289a565b935050602084013567ffffffffffffffff811115612cd557612cd46127af565b5b612ce186828701612c37565b92509250509250925092565b612cf681612a28565b82525050565b6000602082019050612d116000830184612ced565b92915050565b600060a08284031215612d2d57612d2c612a93565b5b81905092915050565b600060208284031215612d4c57612d4b6127aa565b5b600082013567ffffffffffffffff811115612d6a57612d696127af565b5b612d7684828501612d17565b91505092915050565b600082825260208201905092915050565b6000612d9b826128dc565b612da58185612d7f565b9350612db58185602086016128f8565b612dbe81612922565b840191505092915050565b60006040830160008301518482036000860152612de68282612d90565b91505060208301518482036020860152612e008282612d90565b9150508091505092915050565b60006020820190508181036000830152612e278184612dc9565b905092915050565b600081519050919050565b600082825260208201905092915050565b6000819050602082019050919050565b612e6481612a28565b82525050565b6000612e768383612e5b565b60208301905092915050565b6000602082019050919050565b6000612e9a82612e2f565b612ea48185612e3a565b9350612eaf83612e4b565b8060005b83811015612ee0578151612ec78882612e6a565b9750612ed283612e82565b925050600181019050612eb3565b5085935050505092915050565b60006020820190508181036000830152612f078184612e8f565b905092915050565b60006fffffffffffffffffffffffffffffffff82169050919050565b612f3481612f0f565b82525050565b600063ffffffff82169050919050565b612f5381612f3a565b82525050565b612f6281612839565b82525050565b60a082016000820151612f7e6000850182612f2b565b506020820151612f916020850182612f4a565b506040820151612fa46040850182612f59565b506060820151612fb76060850182612f2b565b506080820151612fca6080850182612f2b565b50505050565b600060a082019050612fe56000830184612f68565b92915050565b600081519050919050565b600082825260208201905092915050565b6000819050602082019050919050565b6130208161286f565b82525050565b60006130328383613017565b60208301905092915050565b6000602082019050919050565b600061305682612feb565b6130608185612ff6565b935061306b83613007565b8060005b8381101561309c5781516130838882613026565b975061308e8361303e565b92505060018101905061306f565b5085935050505092915050565b600060208201905081810360008301526130c3818461304b565b905092915050565b600080fd5b7f4e487b7100000000000000000000000000000000000000000000000000000000600052604160045260246000fd5b61310882612922565b810181811067ffffffffffffffff82111715613127576131266130d0565b5b80604052505050565b600061313a6127a0565b905061314682826130ff565b919050565b600080fd5b61315981612839565b811461316457600080fd5b50565b60008135905061317681613150565b92915050565b61318581612f0f565b811461319057600080fd5b50565b6000813590506131a28161317c565b92915050565b6000606082840312156131be576131bd6130cb565b5b6131c86060613130565b905060006131d884828501613167565b60008301525060206131ec84828501613193565b602083015250604061320084828501613193565b60408301525092915050565b600080600060e08486031215613225576132246127aa565b5b60006132338682870161289a565b9350506020613244868287016131a8565b9250506080613255868287016131a8565b9150509250925092565b60008083601f84011261327557613274612b51565b5b8235905067ffffffffffffffff81111561329257613291612b56565b5b6020830191508360208202830111156132ae576132ad612b5b565b5b9250929050565b600080602083850312156132cc576132cb6127aa565b5b600083013567ffffffffffffffff8111156132ea576132e96127af565b5b6132f68582860161325f565b92509250509250929050565b7f4e487b7100000000000000000000000000000000000000000000000000000000600052602260045260246000fd5b6000600282049050600182168061334957607f821691505b60208210810361335c5761335b613302565b5b50919050565b61336b8161286f565b82525050565b60006020820190506133866000830184613362565b92915050565b600082905092915050565b60008190508160005260206000209050919050565b60006020601f8301049050919050565b600082821b905092915050565b6000600883026133f97fffffffffffffffffffffffffffffffffffffffffffffffffffffffffffffffff826133bc565b61340386836133bc565b95508019841693508086168417925050509392505050565b600061343661343161342c84612b01565b6129ae565b612b01565b9050919050565b6000819050919050565b6134508361341b565b61346461345c8261343d565b8484546133c9565b825550505050565b600090565b61347961346c565b613484818484613447565b505050565b5b818110156134a85761349d600082613471565b60018101905061348a565b5050565b601f8211156134ed576134be81613397565b6134c7846133ac565b810160208510156134d6578190505b6134ea6134e2856133ac565b830182613489565b50505b505050565b600082821c905092915050565b6000613510600019846008026134f2565b1980831691505092915050565b600061352983836134ff565b9150826002028217905092915050565b613543838361338c565b67ffffffffffffffff81111561355c5761355b6130d0565b5b6135668254613331565b6135718282856134ac565b6000601f8311600181146135a0576000841561358e578287013590505b613598858261351d565b865550613600565b601f1984166135ae86613397565b60005b828110156135d6578489013582556001820191506020850194506020810190506135b1565b868310156135f357848901356135ef601f8916826134ff565b8355505b6001600288020188555050505b50505050505050565b82818337600083830152505050565b600061362483856128e7565b9350613631838584613609565b61363a83612922565b840190509392505050565b6000604082019050818103600083015261365f8186612933565b90508181036020830152613674818486613618565b9050949350505050565b600082825260208201905092915050565b7f4d7573742062652070726f706f736564206f776e657200000000000000000000600082015250565b60006136c560168361367e565b91506136d08261368f565b602082019050919050565b600060208201905081810360008301526136f4816136b8565b9050919050565b61370481612b01565b82525050565b600060208201905061371f60008301846136fb565b92915050565b600060408201905061373a6000830185612ced565b6137476020830184612ced565b9392505050565b7f4e487b7100000000000000000000000000000000000000000000000000000000600052603260045260246000fd5b600080fd5b6000823560016101400383360303811261379f5761379e61377d565b5b80830191505092915050565b600080fd5b600067ffffffffffffffff8211156137cb576137ca6130d0565b5b6137d482612922565b9050602081019050919050565b60006137f46137ef846137b0565b613130565b9050828152602081018484840111156138105761380f6137ab565b5b61381b848285613609565b509392505050565b600082601f83011261383857613837612b51565b5b81356138488482602086016137e1565b91505092915050565b60006101408284031215613868576138676130cb565b5b61387260c0613130565b905060006138828482850161289a565b600083015250602061389684828501613167565b602083015250604082013567ffffffffffffffff8111156138ba576138b961314b565b5b6138c684828501613823565b604083015250606082013567ffffffffffffffff8111156138ea576138e961314b565b5b6138f684828501613823565b606083015250608061390a848285016131a8565b60808301525060e061391e848285016131a8565b60a08301525092915050565b60006139363683613851565b9050919050565b613946826128dc565b67ffffffffffffffff81111561395f5761395e6130d0565b5b6139698254613331565b6139748282856134ac565b600060209050601f8311600181146139a75760008415613995578287015190505b61399f858261351d565b865550613a07565b601f1984166139b586613397565b60005b828110156139dd578489015182556001820191506020850194506020810190506139b8565b868310156139fa57848901516139f6601f8916826134ff565b8355505b6001600288020188555050505b505050505050565b606082016000820151613a256000850182612f59565b506020820151613a386020850182612f2b565b506040820151613a4b6040850182612f2b565b50505050565b600061010082019050613a676000830187613362565b8181036020830152613a798186612933565b9050613a886040830185613a0f565b613a9560a0830184613a0f565b95945050505050565b7f4f6e6c792063616c6c61626c65206279206f776e657200000000000000000000600082015250565b6000613ad460168361367e565b9150613adf82613a9e565b602082019050919050565b60006020820190508181036000830152613b0381613ac7565b9050919050565b7f4e487b7100000000000000000000000000000000000000000000000000000000600052601160045260246000fd5b6000613b4482612b01565b9150613b4f83612b01565b9250828203905081811115613b6757613b66613b0a565b5b92915050565b600060e082019050613b826000830186613362565b613b8f6020830185613a0f565b613b9c6080830184613a0f565b949350505050565b6000606082019050613bb96000830184613a0f565b92915050565b7f43616e6e6f74207472616e7366657220746f2073656c66000000000000000000600082015250565b6000613bf560178361367e565b9150613c0082613bbf565b602082019050919050565b60006020820190508181036000830152613c2481613be8565b9050919050565b6000613c3682612b01565b9150613c4183612b01565b9250828202613c4f81612b01565b91508282048414831517613c6657613c65613b0a565b5b5092915050565b6000613c7882612b01565b9150613c8383612b01565b9250828201905080821115613c9b57613c9a613b0a565b5b92915050565b7f4e487b7100000000000000000000000000000000000000000000000000000000600052603160045260246000fdfea164736f6c6343000818000a","linkReferences":{}},"methodIdentifiers":{"acceptOwnership()":"79ba5097","applyAllowListUpdates(address[],address[])":"54c8a4f3","applyChainUpdates((uint64,bool,bytes,bytes,(bool,uint128,uint128),(bool,uint128,uint128))[])":"db6327dc","getAllowList()":"a7cd63b7","getAllowListEnabled()":"e0351e13","getCurrentInboundRateLimiterState(uint64)":"af58d59f","getCurrentOutboundRateLimiterState(uint64)":"c75eea9c","getRemotePool(uint64)":"0a2fd493","getRemoteToken(uint64)":"b7946580","getRmnProxy()":"dc0bd971","getRouter()":"b0f479a1","getSupportedChains()":"c4bffe2b","getToken()":"21df0da7","isSupportedChain(uint64)":"8926f54f","isSupportedToken(address)":"240028e8","lockOrBurn((bytes,uint64,address,uint256,address))":"9a4575b9","owner()":"8da5cb5b","releaseOrMint((bytes,uint64,address,uint256,address,bytes,bytes,bytes))":"39077537","setChainRateLimiterConfig(uint64,(bool,uint128,uint128),(bool,uint128,uint128))":"cf7401f3","setRemotePool(uint64,bytes)":"78a010b2","setRouter(address)":"c0d78655","supportsInterface(bytes4)":"01ffc9a7","transferOwnership(address)":"f2fde38b"},"id":76}