{"abi":[{"type":"constructor","inputs":[{"name":"router","type":"address","internalType":"address"},{"name":"feeToken","type":"address","internalType":"contract IERC20"}],"stateMutability":"nonpayable"},{"type":"function","name":"acceptOwnership","inputs":[],"outputs":[],"stateMutability":"nonpayable"},{"type":"function","name":"ccipReceive","inputs":[{"name":"message","type":"tuple","internalType":"struct Client.Any2EVMMessage","components":[{"name":"messageId","type":"bytes32","internalType":"bytes32"},{"name":"sourceChainSelector","type":"uint64","internalType":"uint64"},{"name":"sender","type":"bytes","internalType":"bytes"},{"name":"data","type":"bytes","internalType":"bytes"},{"name":"destTokenAmounts","type":"tuple[]","internalType":"struct Client.EVMTokenAmount[]","components":[{"name":"token","type":"address","internalType":"address"},{"name":"amount","type":"uint256","internalType":"uint256"}]}]}],"outputs":[],"stateMutability":"nonpayable"},{"type":"function","name":"getCounterpartAddress","inputs":[],"outputs":[{"name":"","type":"address","internalType":"address"}],"stateMutability":"view"},{"type":"function","name":"getCounterpartChainSelector","inputs":[],"outputs":[{"name":"","type":"uint64","internalType":"uint64"}],"stateMutability":"view"},{"type":"function","name":"getFeeToken","inputs":[],"outputs":[{"name":"","type":"address","internalType":"contract IERC20"}],"stateMutability":"view"},{"type":"function","name":"getRouter","inputs":[],"outputs":[{"name":"","type":"address","internalType":"address"}],"stateMutability":"view"},{"type":"function","name":"isPaused","inputs":[],"outputs":[{"name":"","type":"bool","internalType":"bool"}],"stateMutability":"view"},{"type":"function","name":"owner","inputs":[],"outputs":[{"name":"","type":"address","internalType":"address"}],"stateMutability":"view"},{"type":"function","name":"setCounterpart","inputs":[{"name":"counterpartChainSelector","type":"uint64","internalType":"uint64"},{"name":"counterpartAddress","type":"address","internalType":"address"}],"outputs":[],"stateMutability":"nonpayable"},{"type":"function","name":"setCounterpartAddress","inputs":[{"name":"addr","type":"address","internalType":"address"}],"outputs":[],"stateMutability":"nonpayable"},{"type":"function","name":"setCounterpartChainSelector","inputs":[{"name":"chainSelector","type":"uint64","internalType":"uint64"}],"outputs":[],"stateMutability":"nonpayable"},{"type":"function","name":"setPaused","inputs":[{"name":"pause","type":"bool","internalType":"bool"}],"outputs":[],"stateMutability":"nonpayable"},{"type":"function","name":"startPingPong","inputs":[],"outputs":[],"stateMutability":"nonpayable"},{"type":"function","name":"supportsInterface","inputs":[{"name":"interfaceId","type":"bytes4","internalType":"bytes4"}],"outputs":[{"name":"","type":"bool","internalType":"bool"}],"stateMutability":"view"},{"type":"function","name":"transferOwnership","inputs":[{"name":"to","type":"address","internalType":"address"}],"outputs":[],"stateMutability":"nonpayable"},{"type":"function","name":"typeAndVersion","inputs":[],"outputs":[{"name":"","type":"string","internalType":"string"}],"stateMutability":"pure"},{"type":"event","name":"OwnershipTransferRequested","inputs":[{"name":"from","type":"address","indexed":true,"internalType":"address"},{"name":"to","type":"address","indexed":true,"internalType":"address"}],"anonymous":false},{"type":"event","name":"OwnershipTransferred","inputs":[{"name":"from","type":"address","indexed":true,"internalType":"address"},{"name":"to","type":"address","indexed":true,"internalType":"address"}],"anonymous":false},{"type":"event","name":"Ping","inputs":[{"name":"pingPongCount","type":"uint256","indexed":false,"internalType":"uint256"}],"anonymous":false},{"type":"event","name":"Pong","inputs":[{"name":"pingPongCount","type":"uint256","indexed":false,"internalType":"uint256"}],"anonymous":false},{"type":"error","name":"InvalidRouter","inputs":[{"name":"router","type":"address","internalType":"address"}]}],"bytecode":{"object":"0x60a06040523480156200001157600080fd5b5060405162002043380380620020438339818101604052810190620000379190620004ea565b3380600084600073ffffffffffffffffffffffffffffffffffffffff168173ffffffffffffffffffffffffffffffffffffffff1603620000b15760006040517fd7f73334000000000000000000000000000000000000000000000000000000008152600401620000a8919062000542565b60405180910390fd5b8073ffffffffffffffffffffffffffffffffffffffff1660808173ffffffffffffffffffffffffffffffffffffffff168152505050600073ffffffffffffffffffffffffffffffffffffffff168273ffffffffffffffffffffffffffffffffffffffff160362000158576040517f08c379a00000000000000000000000000000000000000000000000000000000081526004016200014f90620005c0565b60405180910390fd5b816000806101000a81548173ffffffffffffffffffffffffffffffffffffffff021916908373ffffffffffffffffffffffffffffffffffffffff160217905550600073ffffffffffffffffffffffffffffffffffffffff168173ffffffffffffffffffffffffffffffffffffffff1614620001df57620001de816200030c60201b60201c565b5b5050506000600260146101000a81548160ff02191690831515021790555080600360006101000a81548173ffffffffffffffffffffffffffffffffffffffff021916908373ffffffffffffffffffffffffffffffffffffffff160217905550600360009054906101000a900473ffffffffffffffffffffffffffffffffffffffff1673ffffffffffffffffffffffffffffffffffffffff1663095ea7b3837fffffffffffffffffffffffffffffffffffffffffffffffffffffffffffffffff6040518363ffffffff1660e01b8152600401620002bd929190620005fd565b6020604051808303816000875af1158015620002dd573d6000803e3d6000fd5b505050506040513d601f19601f8201168201806040525081019062000303919062000667565b5050506200070b565b3373ffffffffffffffffffffffffffffffffffffffff168173ffffffffffffffffffffffffffffffffffffffff16036200037d576040517f08c379a00000000000000000000000000000000000000000000000000000000081526004016200037490620006e9565b60405180910390fd5b80600160006101000a81548173ffffffffffffffffffffffffffffffffffffffff021916908373ffffffffffffffffffffffffffffffffffffffff1602179055508073ffffffffffffffffffffffffffffffffffffffff1660008054906101000a900473ffffffffffffffffffffffffffffffffffffffff1673ffffffffffffffffffffffffffffffffffffffff167fed8889f560326eb138920d842192f0eb3dd22b4f139c87a2c57538e05bae127860405160405180910390a350565b600080fd5b600073ffffffffffffffffffffffffffffffffffffffff82169050919050565b60006200046d8262000440565b9050919050565b6200047f8162000460565b81146200048b57600080fd5b50565b6000815190506200049f8162000474565b92915050565b6000620004b28262000460565b9050919050565b620004c481620004a5565b8114620004d057600080fd5b50565b600081519050620004e481620004b9565b92915050565b600080604083850312156200050457620005036200043b565b5b600062000514858286016200048e565b92505060206200052785828601620004d3565b9150509250929050565b6200053c8162000460565b82525050565b600060208201905062000559600083018462000531565b92915050565b600082825260208201905092915050565b7f43616e6e6f7420736574206f776e657220746f207a65726f0000000000000000600082015250565b6000620005a86018836200055f565b9150620005b58262000570565b602082019050919050565b60006020820190508181036000830152620005db8162000599565b9050919050565b6000819050919050565b620005f781620005e2565b82525050565b600060408201905062000614600083018562000531565b620006236020830184620005ec565b9392505050565b60008115159050919050565b62000641816200062a565b81146200064d57600080fd5b50565b600081519050620006618162000636565b92915050565b60006020828403121562000680576200067f6200043b565b5b6000620006908482850162000650565b91505092915050565b7f43616e6e6f74207472616e7366657220746f2073656c66000000000000000000600082015250565b6000620006d16017836200055f565b9150620006de8262000699565b602082019050919050565b600060208201905081810360008301526200070481620006c2565b9050919050565b60805161191c62000727600039600061071e015261191c6000f3fe608060405234801561001057600080fd5b50600436106101005760003560e01c80638da5cb5b11610097578063b5a1101111610066578063b5a110111461024f578063bee518a41461026b578063ca709a2514610289578063f2fde38b146102a757610100565b80638da5cb5b146101d95780639d2aede5146101f7578063b0f479a114610213578063b187bd261461023157610100565b80632874d8bf116100d35780632874d8bf1461018b5780632b6e5d631461019557806379ba5097146101b357806385572ffb146101bd57610100565b806301ffc9a71461010557806316c38b3c14610135578063181f5a77146101515780631892b9061461016f575b600080fd5b61011f600480360381019061011a9190610d17565b6102c3565b60405161012c9190610d5f565b60405180910390f35b61014f600480360381019061014a9190610da6565b610395565b005b6101596103ba565b6040516101669190610e63565b60405180910390f35b61018960048036038101906101849190610ec5565b6103f7565b005b61019361042b565b005b61019d61045a565b6040516101aa9190610f33565b60405180910390f35b6101bb610484565b005b6101d760048036038101906101d29190610f72565b610619565b005b6101e16106a5565b6040516101ee9190610f33565b60405180910390f35b610211600480360381019061020c9190610fe7565b6106ce565b005b61021b61071a565b6040516102289190610f33565b60405180910390f35b610239610742565b6040516102469190610d5f565b60405180910390f35b61026960048036038101906102649190611014565b610759565b005b6102736107cf565b6040516102809190611063565b60405180910390f35b6102916107ed565b60405161029e91906110dd565b60405180910390f35b6102c160048036038101906102bc9190610fe7565b610817565b005b60007f85572ffb000000000000000000000000000000000000000000000000000000007bffffffffffffffffffffffffffffffffffffffffffffffffffffffff1916827bffffffffffffffffffffffffffffffffffffffffffffffffffffffff1916148061038e57507f01ffc9a7000000000000000000000000000000000000000000000000000000007bffffffffffffffffffffffffffffffffffffffffffffffffffffffff1916827bffffffffffffffffffffffffffffffffffffffffffffffffffffffff1916145b9050919050565b61039d61082b565b80600260146101000a81548160ff02191690831515021790555050565b60606040518060400160405280601281526020017f50696e67506f6e6744656d6f20312e322e300000000000000000000000000000815250905090565b6103ff61082b565b80600160146101000a81548167ffffffffffffffff021916908367ffffffffffffffff16021790555050565b61043361082b565b6000600260146101000a81548160ff02191690831515021790555061045860016108bb565b565b6000600260009054906101000a900473ffffffffffffffffffffffffffffffffffffffff16905090565b600160009054906101000a900473ffffffffffffffffffffffffffffffffffffffff1673ffffffffffffffffffffffffffffffffffffffff163373ffffffffffffffffffffffffffffffffffffffff1614610514576040517f08c379a000000000000000000000000000000000000000000000000000000000815260040161050b90611144565b60405180910390fd5b60008060009054906101000a900473ffffffffffffffffffffffffffffffffffffffff169050336000806101000a81548173ffffffffffffffffffffffffffffffffffffffff021916908373ffffffffffffffffffffffffffffffffffffffff1602179055506000600160006101000a81548173ffffffffffffffffffffffffffffffffffffffff021916908373ffffffffffffffffffffffffffffffffffffffff1602179055503373ffffffffffffffffffffffffffffffffffffffff168173ffffffffffffffffffffffffffffffffffffffff167f8be0079c531659141344cd1fd0a4f28419497f9722a3daafe3b4186f6b6457e060405160405180910390a350565b61062161071a565b73ffffffffffffffffffffffffffffffffffffffff163373ffffffffffffffffffffffffffffffffffffffff161461069057336040517fd7f733340000000000000000000000000000000000000000000000000000000081526004016106879190610f33565b60405180910390fd5b6106a28161069d90611507565b610b05565b50565b60008060009054906101000a900473ffffffffffffffffffffffffffffffffffffffff16905090565b6106d661082b565b80600260006101000a81548173ffffffffffffffffffffffffffffffffffffffff021916908373ffffffffffffffffffffffffffffffffffffffff16021790555050565b60007f0000000000000000000000000000000000000000000000000000000000000000905090565b6000600260149054906101000a900460ff16905090565b61076161082b565b81600160146101000a81548167ffffffffffffffff021916908367ffffffffffffffff16021790555080600260006101000a81548173ffffffffffffffffffffffffffffffffffffffff021916908373ffffffffffffffffffffffffffffffffffffffff1602179055505050565b6000600160149054906101000a900467ffffffffffffffff16905090565b6000600360009054906101000a900473ffffffffffffffffffffffffffffffffffffffff16905090565b61081f61082b565b61082881610b4f565b50565b60008054906101000a900473ffffffffffffffffffffffffffffffffffffffff1673ffffffffffffffffffffffffffffffffffffffff163373ffffffffffffffffffffffffffffffffffffffff16146108b9576040517f08c379a00000000000000000000000000000000000000000000000000000000081526004016108b090611566565b60405180910390fd5b565b600180821603610901577f48257dc961b6f792c2b78a080dacfed693b660960a702de21cee364e20270e2f816040516108f49190611595565b60405180910390a1610939565b7f58b69f57828e6962d216502094c54f6562f3bf082ba758966c3454f9e37b1525816040516109309190611595565b60405180910390a15b60008160405160200161094c9190611595565b604051602081830303815290604052905060006040518060a00160405280600260009054906101000a900473ffffffffffffffffffffffffffffffffffffffff1660405160200161099d9190610f33565b6040516020818303038152906040528152602001838152602001600067ffffffffffffffff8111156109d2576109d1611169565b5b604051908082528060200260200182016040528015610a0b57816020015b6109f8610c7b565b8152602001906001900390816109f05790505b508152602001600360009054906101000a900473ffffffffffffffffffffffffffffffffffffffff1673ffffffffffffffffffffffffffffffffffffffff168152602001604051806020016040528060008152508152509050610a6c61071a565b73ffffffffffffffffffffffffffffffffffffffff166396f4e9f9600160149054906101000a900467ffffffffffffffff16836040518363ffffffff1660e01b8152600401610abc92919061178c565b6020604051808303816000875af1158015610adb573d6000803e3d6000fd5b505050506040513d601f19601f82011682018060405250810190610aff91906117d1565b50505050565b60008160600151806020019051810190610b1f9190611813565b9050600260149054906101000a900460ff16610b4b57610b4a600182610b45919061186f565b6108bb565b5b5050565b3373ffffffffffffffffffffffffffffffffffffffff168173ffffffffffffffffffffffffffffffffffffffff1603610bbd576040517f08c379a0000000000000000000000000000000000000000000000000000000008152600401610bb4906118ef565b60405180910390fd5b80600160006101000a81548173ffffffffffffffffffffffffffffffffffffffff021916908373ffffffffffffffffffffffffffffffffffffffff1602179055508073ffffffffffffffffffffffffffffffffffffffff1660008054906101000a900473ffffffffffffffffffffffffffffffffffffffff1673ffffffffffffffffffffffffffffffffffffffff167fed8889f560326eb138920d842192f0eb3dd22b4f139c87a2c57538e05bae127860405160405180910390a350565b6040518060400160405280600073ffffffffffffffffffffffffffffffffffffffff168152602001600081525090565b6000604051905090565b600080fd5b600080fd5b60007fffffffff0000000000000000000000000000000000000000000000000000000082169050919050565b610cf481610cbf565b8114610cff57600080fd5b50565b600081359050610d1181610ceb565b92915050565b600060208284031215610d2d57610d2c610cb5565b5b6000610d3b84828501610d02565b91505092915050565b60008115159050919050565b610d5981610d44565b82525050565b6000602082019050610d746000830184610d50565b92915050565b610d8381610d44565b8114610d8e57600080fd5b50565b600081359050610da081610d7a565b92915050565b600060208284031215610dbc57610dbb610cb5565b5b6000610dca84828501610d91565b91505092915050565b600081519050919050565b600082825260208201905092915050565b60005b83811015610e0d578082015181840152602081019050610df2565b60008484015250505050565b6000601f19601f8301169050919050565b6000610e3582610dd3565b610e3f8185610dde565b9350610e4f818560208601610def565b610e5881610e19565b840191505092915050565b60006020820190508181036000830152610e7d8184610e2a565b905092915050565b600067ffffffffffffffff82169050919050565b610ea281610e85565b8114610ead57600080fd5b50565b600081359050610ebf81610e99565b92915050565b600060208284031215610edb57610eda610cb5565b5b6000610ee984828501610eb0565b91505092915050565b600073ffffffffffffffffffffffffffffffffffffffff82169050919050565b6000610f1d82610ef2565b9050919050565b610f2d81610f12565b82525050565b6000602082019050610f486000830184610f24565b92915050565b600080fd5b600060a08284031215610f6957610f68610f4e565b5b81905092915050565b600060208284031215610f8857610f87610cb5565b5b600082013567ffffffffffffffff811115610fa657610fa5610cba565b5b610fb284828501610f53565b91505092915050565b610fc481610f12565b8114610fcf57600080fd5b50565b600081359050610fe181610fbb565b92915050565b600060208284031215610ffd57610ffc610cb5565b5b600061100b84828501610fd2565b91505092915050565b6000806040838503121561102b5761102a610cb5565b5b600061103985828601610eb0565b925050602061104a85828601610fd2565b9150509250929050565b61105d81610e85565b82525050565b60006020820190506110786000830184611054565b92915050565b6000819050919050565b60006110a361109e61109984610ef2565b61107e565b610ef2565b9050919050565b60006110b582611088565b9050919050565b60006110c7826110aa565b9050919050565b6110d7816110bc565b82525050565b60006020820190506110f260008301846110ce565b92915050565b7f4d7573742062652070726f706f736564206f776e657200000000000000000000600082015250565b600061112e601683610dde565b9150611139826110f8565b602082019050919050565b6000602082019050818103600083015261115d81611121565b9050919050565b600080fd5b7f4e487b7100000000000000000000000000000000000000000000000000000000600052604160045260246000fd5b6111a182610e19565b810181811067ffffffffffffffff821117156111c0576111bf611169565b5b80604052505050565b60006111d3610cab565b90506111df8282611198565b919050565b600080fd5b6000819050919050565b6111fc816111e9565b811461120757600080fd5b50565b600081359050611219816111f3565b92915050565b600080fd5b600080fd5b600067ffffffffffffffff82111561124457611243611169565b5b61124d82610e19565b9050602081019050919050565b82818337600083830152505050565b600061127c61127784611229565b6111c9565b90508281526020810184848401111561129857611297611224565b5b6112a384828561125a565b509392505050565b600082601f8301126112c0576112bf61121f565b5b81356112d0848260208601611269565b91505092915050565b600067ffffffffffffffff8211156112f4576112f3611169565b5b602082029050602081019050919050565b600080fd5b6000819050919050565b61131d8161130a565b811461132857600080fd5b50565b60008135905061133a81611314565b92915050565b60006040828403121561135657611355611164565b5b61136060406111c9565b9050600061137084828501610fd2565b60008301525060206113848482850161132b565b60208301525092915050565b60006113a361139e846112d9565b6111c9565b905080838252602082019050604084028301858111156113c6576113c5611305565b5b835b818110156113ef57806113db8882611340565b8452602084019350506040810190506113c8565b5050509392505050565b600082601f83011261140e5761140d61121f565b5b813561141e848260208601611390565b91505092915050565b600060a0828403121561143d5761143c611164565b5b61144760a06111c9565b905060006114578482850161120a565b600083015250602061146b84828501610eb0565b602083015250604082013567ffffffffffffffff81111561148f5761148e6111e4565b5b61149b848285016112ab565b604083015250606082013567ffffffffffffffff8111156114bf576114be6111e4565b5b6114cb848285016112ab565b606083015250608082013567ffffffffffffffff8111156114ef576114ee6111e4565b5b6114fb848285016113f9565b60808301525092915050565b60006115133683611427565b9050919050565b7f4f6e6c792063616c6c61626c65206279206f776e657200000000000000000000600082015250565b6000611550601683610dde565b915061155b8261151a565b602082019050919050565b6000602082019050818103600083015261157f81611543565b9050919050565b61158f8161130a565b82525050565b60006020820190506115aa6000830184611586565b92915050565b600081519050919050565b600082825260208201905092915050565b60006115d7826115b0565b6115e181856115bb565b93506115f1818560208601610def565b6115fa81610e19565b840191505092915050565b600081519050919050565b600082825260208201905092915050565b6000819050602082019050919050565b61163a81610f12565b82525050565b6116498161130a565b82525050565b6040820160008201516116656000850182611631565b5060208201516116786020850182611640565b50505050565b600061168a838361164f565b60408301905092915050565b6000602082019050919050565b60006116ae82611605565b6116b88185611610565b93506116c383611621565b8060005b838110156116f45781516116db888261167e565b97506116e683611696565b9250506001810190506116c7565b5085935050505092915050565b600060a083016000830151848203600086015261171e82826115cc565b9150506020830151848203602086015261173882826115cc565b9150506040830151848203604086015261175282826116a3565b91505060608301516117676060860182611631565b506080830151848203608086015261177f82826115cc565b9150508091505092915050565b60006040820190506117a16000830185611054565b81810360208301526117b38184611701565b90509392505050565b6000815190506117cb816111f3565b92915050565b6000602082840312156117e7576117e6610cb5565b5b60006117f5848285016117bc565b91505092915050565b60008151905061180d81611314565b92915050565b60006020828403121561182957611828610cb5565b5b6000611837848285016117fe565b91505092915050565b7f4e487b7100000000000000000000000000000000000000000000000000000000600052601160045260246000fd5b600061187a8261130a565b91506118858361130a565b925082820190508082111561189d5761189c611840565b5b92915050565b7f43616e6e6f74207472616e7366657220746f2073656c66000000000000000000600082015250565b60006118d9601783610dde565b91506118e4826118a3565b602082019050919050565b60006020820190508181036000830152611908816118cc565b905091905056fea164736f6c6343000818000a","linkReferences":{}},"methodIdentifiers":{"acceptOwnership()":"79ba5097","ccipReceive((bytes32,uint64,bytes,bytes,(address,uint256)[]))":"85572ffb","getCounterpartAddress()":"2b6e5d63","getCounterpartChainSelector()":"bee518a4","getFeeToken()":"ca709a25","getRouter()":"b0f479a1","isPaused()":"b187bd26","owner()":"8da5cb5b","setCounterpart(uint64,address)":"b5a11011","setCounterpartAddress(address)":"9d2aede5","setCounterpartChainSelector(uint64)":"1892b906","setPaused(bool)":"16c38b3c","startPingPong()":"2874d8bf","supportsInterface(bytes4)":"01ffc9a7","transferOwnership(address)":"f2fde38b","typeAndVersion()":"181f5a77"},"id":10}