{"abi":[{"type":"constructor","inputs":[{"name":"config","type":"tuple","internalType":"struct RateLimiter.Config","components":[{"name":"isEnabled","type":"bool","internalType":"bool"},{"name":"capacity","type":"uint128","internalType":"uint128"},{"name":"rate","type":"uint128","internalType":"uint128"}]}],"stateMutability":"nonpayable"},{"type":"function","name":"acceptOwnership","inputs":[],"outputs":[],"stateMutability":"nonpayable"},{"type":"function","name":"currentRateLimiterState","inputs":[],"outputs":[{"name":"","type":"tuple","internalType":"struct RateLimiter.TokenBucket","components":[{"name":"tokens","type":"uint128","internalType":"uint128"},{"name":"lastUpdated","type":"uint32","internalType":"uint32"},{"name":"isEnabled","type":"bool","internalType":"bool"},{"name":"capacity","type":"uint128","internalType":"uint128"},{"name":"rate","type":"uint128","internalType":"uint128"}]}],"stateMutability":"view"},{"type":"function","name":"getTokenLimitAdmin","inputs":[],"outputs":[{"name":"","type":"address","internalType":"address"}],"stateMutability":"view"},{"type":"function","name":"getTokenValue","inputs":[{"name":"tokenAmount","type":"tuple","internalType":"struct Client.EVMTokenAmount","components":[{"name":"token","type":"address","internalType":"address"},{"name":"amount","type":"uint256","internalType":"uint256"}]},{"name":"priceRegistry","type":"address","internalType":"contract IPriceRegistry"}],"outputs":[{"name":"","type":"uint256","internalType":"uint256"}],"stateMutability":"view"},{"type":"function","name":"owner","inputs":[],"outputs":[{"name":"","type":"address","internalType":"address"}],"stateMutability":"view"},{"type":"function","name":"rateLimitValue","inputs":[{"name":"value","type":"uint256","internalType":"uint256"}],"outputs":[],"stateMutability":"nonpayable"},{"type":"function","name":"setAdmin","inputs":[{"name":"newAdmin","type":"address","internalType":"address"}],"outputs":[],"stateMutability":"nonpayable"},{"type":"function","name":"setRateLimiterConfig","inputs":[{"name":"config","type":"tuple","internalType":"struct RateLimiter.Config","components":[{"name":"isEnabled","type":"bool","internalType":"bool"},{"name":"capacity","type":"uint128","internalType":"uint128"},{"name":"rate","type":"uint128","internalType":"uint128"}]}],"outputs":[],"stateMutability":"nonpayable"},{"type":"function","name":"transferOwnership","inputs":[{"name":"to","type":"address","internalType":"address"}],"outputs":[],"stateMutability":"nonpayable"},{"type":"event","name":"AdminSet","inputs":[{"name":"newAdmin","type":"address","indexed":false,"internalType":"address"}],"anonymous":false},{"type":"event","name":"ConfigChanged","inputs":[{"name":"config","type":"tuple","indexed":false,"internalType":"struct RateLimiter.Config","components":[{"name":"isEnabled","type":"bool","internalType":"bool"},{"name":"capacity","type":"uint128","internalType":"uint128"},{"name":"rate","type":"uint128","internalType":"uint128"}]}],"anonymous":false},{"type":"event","name":"OwnershipTransferRequested","inputs":[{"name":"from","type":"address","indexed":true,"internalType":"address"},{"name":"to","type":"address","indexed":true,"internalType":"address"}],"anonymous":false},{"type":"event","name":"OwnershipTransferred","inputs":[{"name":"from","type":"address","indexed":true,"internalType":"address"},{"name":"to","type":"address","indexed":true,"internalType":"address"}],"anonymous":false},{"type":"event","name":"TokensConsumed","inputs":[{"name":"tokens","type":"uint256","indexed":false,"internalType":"uint256"}],"anonymous":false},{"type":"error","name":"AggregateValueMaxCapacityExceeded","inputs":[{"name":"capacity","type":"uint256","internalType":"uint256"},{"name":"requested","type":"uint256","internalType":"uint256"}]},{"type":"error","name":"AggregateValueRateLimitReached","inputs":[{"name":"minWaitInSeconds","type":"uint256","internalType":"uint256"},{"name":"available","type":"uint256","internalType":"uint256"}]},{"type":"error","name":"BucketOverfilled","inputs":[]},{"type":"error","name":"OnlyCallableByAdminOrOwner","inputs":[]},{"type":"error","name":"PriceNotFoundForToken","inputs":[{"name":"token","type":"address","internalType":"address"}]},{"type":"error","name":"TokenMaxCapacityExceeded","inputs":[{"name":"capacity","type":"uint256","internalType":"uint256"},{"name":"requested","type":"uint256","internalType":"uint256"},{"name":"tokenAddress","type":"address","internalType":"address"}]},{"type":"error","name":"TokenRateLimitReached","inputs":[{"name":"minWaitInSeconds","type":"uint256","internalType":"uint256"},{"name":"available","type":"uint256","internalType":"uint256"},{"name":"tokenAddress","type":"address","internalType":"address"}]}],"bytecode":{"object":"0x60806040523480156200001157600080fd5b50604051620021cc380380620021cc83398181016040528101906200003791906200058e565b80338060008073ffffffffffffffffffffffffffffffffffffffff168273ffffffffffffffffffffffffffffffffffffffff1603620000ad576040517f08c379a0000000000000000000000000000000000000000000000000000000008152600401620000a49062000621565b60405180910390fd5b816000806101000a81548173ffffffffffffffffffffffffffffffffffffffff021916908373ffffffffffffffffffffffffffffffffffffffff160217905550600073ffffffffffffffffffffffffffffffffffffffff168173ffffffffffffffffffffffffffffffffffffffff161462000134576200013381620002bd60201b60201c565b5b5050506040518060a0016040528082602001516fffffffffffffffffffffffffffffffff1681526020014263ffffffff16815260200182600001511515815260200182602001516fffffffffffffffffffffffffffffffff16815260200182604001516fffffffffffffffffffffffffffffffff16815250600360008201518160000160006101000a8154816fffffffffffffffffffffffffffffffff02191690836fffffffffffffffffffffffffffffffff16021790555060208201518160000160106101000a81548163ffffffff021916908363ffffffff16021790555060408201518160000160146101000a81548160ff02191690831515021790555060608201518160010160006101000a8154816fffffffffffffffffffffffffffffffff02191690836fffffffffffffffffffffffffffffffff16021790555060808201518160010160106101000a8154816fffffffffffffffffffffffffffffffff02191690836fffffffffffffffffffffffffffffffff1602179055509050505050620006b5565b3373ffffffffffffffffffffffffffffffffffffffff168173ffffffffffffffffffffffffffffffffffffffff16036200032e576040517f08c379a0000000000000000000000000000000000000000000000000000000008152600401620003259062000693565b60405180910390fd5b80600160006101000a81548173ffffffffffffffffffffffffffffffffffffffff021916908373ffffffffffffffffffffffffffffffffffffffff1602179055508073ffffffffffffffffffffffffffffffffffffffff1660008054906101000a900473ffffffffffffffffffffffffffffffffffffffff1673ffffffffffffffffffffffffffffffffffffffff167fed8889f560326eb138920d842192f0eb3dd22b4f139c87a2c57538e05bae127860405160405180910390a350565b6000604051905090565b600080fd5b600080fd5b6000601f19601f8301169050919050565b7f4e487b7100000000000000000000000000000000000000000000000000000000600052604160045260246000fd5b6200044b8262000400565b810181811067ffffffffffffffff821117156200046d576200046c62000411565b5b80604052505050565b600062000482620003ec565b905062000490828262000440565b919050565b60008115159050919050565b620004ac8162000495565b8114620004b857600080fd5b50565b600081519050620004cc81620004a1565b92915050565b60006fffffffffffffffffffffffffffffffff82169050919050565b620004f981620004d2565b81146200050557600080fd5b50565b6000815190506200051981620004ee565b92915050565b600060608284031215620005385762000537620003fb565b5b62000544606062000476565b905060006200055684828501620004bb565b60008301525060206200056c8482850162000508565b6020830152506040620005828482850162000508565b60408301525092915050565b600060608284031215620005a757620005a6620003f6565b5b6000620005b7848285016200051f565b91505092915050565b600082825260208201905092915050565b7f43616e6e6f7420736574206f776e657220746f207a65726f0000000000000000600082015250565b600062000609601883620005c0565b91506200061682620005d1565b602082019050919050565b600060208201905081810360008301526200063c81620005fa565b9050919050565b7f43616e6e6f74207472616e7366657220746f2073656c66000000000000000000600082015250565b60006200067b601783620005c0565b9150620006888262000643565b602082019050919050565b60006020820190508181036000830152620006ae816200066c565b9050919050565b611b0780620006c56000396000f3fe608060405234801561001057600080fd5b50600436106100935760003560e01c806379ba50971161006657806379ba5097146101205780638da5cb5b1461012a578063a5905ab414610148578063c92b283214610164578063f2fde38b1461018057610093565b80632245c5f014610098578063546719cd146100c8578063599f6431146100e6578063704b6c0214610104575b600080fd5b6100b260048036038101906100ad91906113f3565b61019c565b6040516100bf9190611442565b60405180910390f35b6100d06101b0565b6040516100dd919061152a565b60405180910390f35b6100ee6102f1565b6040516100fb9190611554565b60405180910390f35b61011e6004803603810190610119919061156f565b61031b565b005b61012861045e565b005b6101326105f3565b60405161013f9190611554565b60405180910390f35b610162600480360381019061015d919061159c565b61061c565b005b61017e60048036038101906101799190611685565b610628565b005b61019a6004803603810190610195919061156f565b610707565b005b60006101a8838361071b565b905092915050565b6101b86111c4565b6102ec60036040518060a00160405290816000820160009054906101000a90046fffffffffffffffffffffffffffffffff166fffffffffffffffffffffffffffffffff166fffffffffffffffffffffffffffffffff1681526020016000820160109054906101000a900463ffffffff1663ffffffff1663ffffffff1681526020016000820160149054906101000a900460ff161515151581526020016001820160009054906101000a90046fffffffffffffffffffffffffffffffff166fffffffffffffffffffffffffffffffff166fffffffffffffffffffffffffffffffff1681526020016001820160109054906101000a90046fffffffffffffffffffffffffffffffff166fffffffffffffffffffffffffffffffff166fffffffffffffffffffffffffffffffff1681525050610846565b905090565b6000600260009054906101000a900473ffffffffffffffffffffffffffffffffffffffff16905090565b6103236105f3565b73ffffffffffffffffffffffffffffffffffffffff163373ffffffffffffffffffffffffffffffffffffffff16141580156103ac5750600260009054906101000a900473ffffffffffffffffffffffffffffffffffffffff1673ffffffffffffffffffffffffffffffffffffffff163373ffffffffffffffffffffffffffffffffffffffff1614155b156103e3576040517ff6cd562000000000000000000000000000000000000000000000000000000000815260040160405180910390fd5b80600260006101000a81548173ffffffffffffffffffffffffffffffffffffffff021916908373ffffffffffffffffffffffffffffffffffffffff1602179055507f8fe72c3e0020beb3234e76ae6676fa576fbfcae600af1c4fea44784cf0db329c816040516104539190611554565b60405180910390a150565b600160009054906101000a900473ffffffffffffffffffffffffffffffffffffffff1673ffffffffffffffffffffffffffffffffffffffff163373ffffffffffffffffffffffffffffffffffffffff16146104ee576040517f08c379a00000000000000000000000000000000000000000000000000000000081526004016104e59061170f565b60405180910390fd5b60008060009054906101000a900473ffffffffffffffffffffffffffffffffffffffff169050336000806101000a81548173ffffffffffffffffffffffffffffffffffffffff021916908373ffffffffffffffffffffffffffffffffffffffff1602179055506000600160006101000a81548173ffffffffffffffffffffffffffffffffffffffff021916908373ffffffffffffffffffffffffffffffffffffffff1602179055503373ffffffffffffffffffffffffffffffffffffffff168173ffffffffffffffffffffffffffffffffffffffff167f8be0079c531659141344cd1fd0a4f28419497f9722a3daafe3b4186f6b6457e060405160405180910390a350565b60008060009054906101000a900473ffffffffffffffffffffffffffffffffffffffff16905090565b61062581610900565b50565b6106306105f3565b73ffffffffffffffffffffffffffffffffffffffff163373ffffffffffffffffffffffffffffffffffffffff16141580156106b95750600260009054906101000a900473ffffffffffffffffffffffffffffffffffffffff1673ffffffffffffffffffffffffffffffffffffffff163373ffffffffffffffffffffffffffffffffffffffff1614155b156106f0576040517ff6cd562000000000000000000000000000000000000000000000000000000000815260040160405180910390fd5b61070481600361091a90919063ffffffff16565b50565b61070f610bb2565b61071881610c42565b50565b6000808273ffffffffffffffffffffffffffffffffffffffff1663d02641a085600001516040518263ffffffff1660e01b815260040161075b9190611554565b6040805180830381865afa158015610777573d6000803e3d6000fd5b505050506040513d601f19601f8201168201806040525081019061079b91906117ff565b6000015190506000817bffffffffffffffffffffffffffffffffffffffffffffffffffffffff16036108085783600001516040517f9a655f7b0000000000000000000000000000000000000000000000000000000081526004016107ff9190611554565b60405180910390fd5b61083d8460200151827bffffffffffffffffffffffffffffffffffffffffffffffffffffffff16610d6e90919063ffffffff16565b91505092915050565b61084e6111c4565b6108b182606001516fffffffffffffffffffffffffffffffff1683600001516fffffffffffffffffffffffffffffffff16846020015163ffffffff1642610895919061185b565b85608001516fffffffffffffffffffffffffffffffff16610db5565b82600001906fffffffffffffffffffffffffffffffff1690816fffffffffffffffffffffffffffffffff168152505042826020019063ffffffff16908163ffffffff1681525050819050919050565b6109178160006003610de19092919063ffffffff16565b50565b60008260000160109054906101000a900463ffffffff1663ffffffff1642610942919061185b565b905060008114610a4c576109ee8360010160009054906101000a90046fffffffffffffffffffffffffffffffff166fffffffffffffffffffffffffffffffff168460000160009054906101000a90046fffffffffffffffffffffffffffffffff166fffffffffffffffffffffffffffffffff16838660010160109054906101000a90046fffffffffffffffffffffffffffffffff166fffffffffffffffffffffffffffffffff16610db5565b8360000160006101000a8154816fffffffffffffffffffffffffffffffff02191690836fffffffffffffffffffffffffffffffff160217905550428360000160106101000a81548163ffffffff021916908363ffffffff1602179055505b610a9e82602001516fffffffffffffffffffffffffffffffff168460000160009054906101000a90046fffffffffffffffffffffffffffffffff166fffffffffffffffffffffffffffffffff166111ab565b8360000160006101000a8154816fffffffffffffffffffffffffffffffff02191690836fffffffffffffffffffffffffffffffff16021790555081600001518360000160146101000a81548160ff02191690831515021790555081602001518360010160006101000a8154816fffffffffffffffffffffffffffffffff02191690836fffffffffffffffffffffffffffffffff16021790555081604001518360010160106101000a8154816fffffffffffffffffffffffffffffffff02191690836fffffffffffffffffffffffffffffffff1602179055507f9ea3374b67bf275e6bb9c8ae68f9cae023e1c528b4b27e092f0bb209d3531c1982604051610ba591906118d1565b60405180910390a1505050565b60008054906101000a900473ffffffffffffffffffffffffffffffffffffffff1673ffffffffffffffffffffffffffffffffffffffff163373ffffffffffffffffffffffffffffffffffffffff1614610c40576040517f08c379a0000000000000000000000000000000000000000000000000000000008152600401610c3790611938565b60405180910390fd5b565b3373ffffffffffffffffffffffffffffffffffffffff168173ffffffffffffffffffffffffffffffffffffffff1603610cb0576040517f08c379a0000000000000000000000000000000000000000000000000000000008152600401610ca7906119a4565b60405180910390fd5b80600160006101000a81548173ffffffffffffffffffffffffffffffffffffffff021916908373ffffffffffffffffffffffffffffffffffffffff1602179055508073ffffffffffffffffffffffffffffffffffffffff1660008054906101000a900473ffffffffffffffffffffffffffffffffffffffff1673ffffffffffffffffffffffffffffffffffffffff167fed8889f560326eb138920d842192f0eb3dd22b4f139c87a2c57538e05bae127860405160405180910390a350565b6000670de0b6b3a764000082847bffffffffffffffffffffffffffffffffffffffffffffffffffffffff16610da391906119c4565b610dad9190611a35565b905092915050565b6000610dd7858385610dc791906119c4565b86610dd29190611a66565b6111ab565b9050949350505050565b8260000160149054906101000a900460ff161580610dff5750600082145b6111a65760008360000160009054906101000a90046fffffffffffffffffffffffffffffffff166fffffffffffffffffffffffffffffffff16905060008460010160009054906101000a90046fffffffffffffffffffffffffffffffff166fffffffffffffffffffffffffffffffff16905060008560000160109054906101000a900463ffffffff1663ffffffff1642610e99919061185b565b905060008114610f415781831115610edd576040517f9725942a00000000000000000000000000000000000000000000000000000000815260040160405180910390fd5b610f1b8284838960010160109054906101000a90046fffffffffffffffffffffffffffffffff166fffffffffffffffffffffffffffffffff16610db5565b9250428660000160106101000a81548163ffffffff021916908363ffffffff1602179055505b84821015610ffd57600073ffffffffffffffffffffffffffffffffffffffff168473ffffffffffffffffffffffffffffffffffffffff1603610fbc5781856040517ff94ebcd1000000000000000000000000000000000000000000000000000000008152600401610fb3929190611a9a565b60405180910390fd5b8185856040517f1a76572a000000000000000000000000000000000000000000000000000000008152600401610ff493929190611ac3565b60405180910390fd5b848310156111225760008660010160109054906101000a90046fffffffffffffffffffffffffffffffff166fffffffffffffffffffffffffffffffff16905060008160018361104c919061185b565b8689611058919061185b565b6110629190611a66565b61106c9190611a35565b9050600073ffffffffffffffffffffffffffffffffffffffff168673ffffffffffffffffffffffffffffffffffffffff16036110e15780856040517f15279c080000000000000000000000000000000000000000000000000000000081526004016110d8929190611a9a565b60405180910390fd5b8085876040517fd0c8d23a00000000000000000000000000000000000000000000000000000000815260040161111993929190611ac3565b60405180910390fd5b848361112e919061185b565b9250828660000160006101000a8154816fffffffffffffffffffffffffffffffff02191690836fffffffffffffffffffffffffffffffff1602179055507f1871cdf8010e63f2eb8384381a68dfa7416dc571a5517e66e88b2d2d0c0a690a8560405161119a9190611442565b60405180910390a15050505b505050565b60008183106111ba57816111bc565b825b905092915050565b6040518060a0016040528060006fffffffffffffffffffffffffffffffff168152602001600063ffffffff16815260200160001515815260200160006fffffffffffffffffffffffffffffffff16815260200160006fffffffffffffffffffffffffffffffff1681525090565b6000604051905090565b600080fd5b600080fd5b6000601f19601f8301169050919050565b7f4e487b7100000000000000000000000000000000000000000000000000000000600052604160045260246000fd5b61128e82611245565b810181811067ffffffffffffffff821117156112ad576112ac611256565b5b80604052505050565b60006112c0611231565b90506112cc8282611285565b919050565b600073ffffffffffffffffffffffffffffffffffffffff82169050919050565b60006112fc826112d1565b9050919050565b61130c816112f1565b811461131757600080fd5b50565b60008135905061132981611303565b92915050565b6000819050919050565b6113428161132f565b811461134d57600080fd5b50565b60008135905061135f81611339565b92915050565b60006040828403121561137b5761137a611240565b5b61138560406112b6565b905060006113958482850161131a565b60008301525060206113a984828501611350565b60208301525092915050565b60006113c0826112f1565b9050919050565b6113d0816113b5565b81146113db57600080fd5b50565b6000813590506113ed816113c7565b92915050565b6000806060838503121561140a5761140961123b565b5b600061141885828601611365565b9250506040611429858286016113de565b9150509250929050565b61143c8161132f565b82525050565b60006020820190506114576000830184611433565b92915050565b60006fffffffffffffffffffffffffffffffff82169050919050565b6114828161145d565b82525050565b600063ffffffff82169050919050565b6114a181611488565b82525050565b60008115159050919050565b6114bc816114a7565b82525050565b60a0820160008201516114d86000850182611479565b5060208201516114eb6020850182611498565b5060408201516114fe60408501826114b3565b5060608201516115116060850182611479565b5060808201516115246080850182611479565b50505050565b600060a08201905061153f60008301846114c2565b92915050565b61154e816112f1565b82525050565b60006020820190506115696000830184611545565b92915050565b6000602082840312156115855761158461123b565b5b60006115938482850161131a565b91505092915050565b6000602082840312156115b2576115b161123b565b5b60006115c084828501611350565b91505092915050565b6115d2816114a7565b81146115dd57600080fd5b50565b6000813590506115ef816115c9565b92915050565b6115fe8161145d565b811461160957600080fd5b50565b60008135905061161b816115f5565b92915050565b60006060828403121561163757611636611240565b5b61164160606112b6565b90506000611651848285016115e0565b60008301525060206116658482850161160c565b60208301525060406116798482850161160c565b60408301525092915050565b60006060828403121561169b5761169a61123b565b5b60006116a984828501611621565b91505092915050565b600082825260208201905092915050565b7f4d7573742062652070726f706f736564206f776e657200000000000000000000600082015250565b60006116f96016836116b2565b9150611704826116c3565b602082019050919050565b60006020820190508181036000830152611728816116ec565b9050919050565b60007bffffffffffffffffffffffffffffffffffffffffffffffffffffffff82169050919050565b6117608161172f565b811461176b57600080fd5b50565b60008151905061177d81611757565b92915050565b61178c81611488565b811461179757600080fd5b50565b6000815190506117a981611783565b92915050565b6000604082840312156117c5576117c4611240565b5b6117cf60406112b6565b905060006117df8482850161176e565b60008301525060206117f38482850161179a565b60208301525092915050565b6000604082840312156118155761181461123b565b5b6000611823848285016117af565b91505092915050565b7f4e487b7100000000000000000000000000000000000000000000000000000000600052601160045260246000fd5b60006118668261132f565b91506118718361132f565b92508282039050818111156118895761188861182c565b5b92915050565b6060820160008201516118a560008501826114b3565b5060208201516118b86020850182611479565b5060408201516118cb6040850182611479565b50505050565b60006060820190506118e6600083018461188f565b92915050565b7f4f6e6c792063616c6c61626c65206279206f776e657200000000000000000000600082015250565b60006119226016836116b2565b915061192d826118ec565b602082019050919050565b6000602082019050818103600083015261195181611915565b9050919050565b7f43616e6e6f74207472616e7366657220746f2073656c66000000000000000000600082015250565b600061198e6017836116b2565b915061199982611958565b602082019050919050565b600060208201905081810360008301526119bd81611981565b9050919050565b60006119cf8261132f565b91506119da8361132f565b92508282026119e88161132f565b915082820484148315176119ff576119fe61182c565b5b5092915050565b7f4e487b7100000000000000000000000000000000000000000000000000000000600052601260045260246000fd5b6000611a408261132f565b9150611a4b8361132f565b925082611a5b57611a5a611a06565b5b828204905092915050565b6000611a718261132f565b9150611a7c8361132f565b9250828201905080821115611a9457611a9361182c565b5b92915050565b6000604082019050611aaf6000830185611433565b611abc6020830184611433565b9392505050565b6000606082019050611ad86000830186611433565b611ae56020830185611433565b611af26040830184611545565b94935050505056fea164736f6c6343000818000a","linkReferences":{}},"methodIdentifiers":{"acceptOwnership()":"79ba5097","currentRateLimiterState()":"546719cd","getTokenLimitAdmin()":"599f6431","getTokenValue((address,uint256),address)":"2245c5f0","owner()":"8da5cb5b","rateLimitValue(uint256)":"a5905ab4","setAdmin(address)":"704b6c02","setRateLimiterConfig((bool,uint128,uint128))":"c92b2832","transferOwnership(address)":"f2fde38b"},"id":81}