{"abi":[{"type":"constructor","inputs":[{"name":"name","type":"string","internalType":"string"},{"name":"symbol","type":"string","internalType":"string"}],"stateMutability":"nonpayable"},{"type":"function","name":"acceptOwnership","inputs":[],"outputs":[],"stateMutability":"nonpayable"},{"type":"function","name":"allowance","inputs":[{"name":"owner","type":"address","internalType":"address"},{"name":"spender","type":"address","internalType":"address"}],"outputs":[{"name":"","type":"uint256","internalType":"uint256"}],"stateMutability":"view"},{"type":"function","name":"approve","inputs":[{"name":"spender","type":"address","internalType":"address"},{"name":"amount","type":"uint256","internalType":"uint256"}],"outputs":[{"name":"","type":"bool","internalType":"bool"}],"stateMutability":"nonpayable"},{"type":"function","name":"balanceOf","inputs":[{"name":"account","type":"address","internalType":"address"}],"outputs":[{"name":"","type":"uint256","internalType":"uint256"}],"stateMutability":"view"},{"type":"function","name":"burn","inputs":[{"name":"amount","type":"uint256","internalType":"uint256"}],"outputs":[],"stateMutability":"nonpayable"},{"type":"function","name":"burn","inputs":[{"name":"account","type":"address","internalType":"address"},{"name":"amount","type":"uint256","internalType":"uint256"}],"outputs":[],"stateMutability":"nonpayable"},{"type":"function","name":"burnFrom","inputs":[{"name":"account","type":"address","internalType":"address"},{"name":"amount","type":"uint256","internalType":"uint256"}],"outputs":[],"stateMutability":"nonpayable"},{"type":"function","name":"decimals","inputs":[],"outputs":[{"name":"","type":"uint8","internalType":"uint8"}],"stateMutability":"view"},{"type":"function","name":"decreaseAllowance","inputs":[{"name":"spender","type":"address","internalType":"address"},{"name":"subtractedValue","type":"uint256","internalType":"uint256"}],"outputs":[{"name":"","type":"bool","internalType":"bool"}],"stateMutability":"nonpayable"},{"type":"function","name":"decreaseApproval","inputs":[{"name":"spender","type":"address","internalType":"address"},{"name":"subtractedValue","type":"uint256","internalType":"uint256"}],"outputs":[{"name":"success","type":"bool","internalType":"bool"}],"stateMutability":"nonpayable"},{"type":"function","name":"drip","inputs":[{"name":"to","type":"address","internalType":"address"}],"outputs":[],"stateMutability":"nonpayable"},{"type":"function","name":"getBurners","inputs":[],"outputs":[{"name":"","type":"address[]","internalType":"address[]"}],"stateMutability":"view"},{"type":"function","name":"getCCIPAdmin","inputs":[],"outputs":[{"name":"","type":"address","internalType":"address"}],"stateMutability":"view"},{"type":"function","name":"getMinters","inputs":[],"outputs":[{"name":"","type":"address[]","internalType":"address[]"}],"stateMutability":"view"},{"type":"function","name":"grantBurnRole","inputs":[{"name":"burner","type":"address","internalType":"address"}],"outputs":[],"stateMutability":"nonpayable"},{"type":"function","name":"grantMintAndBurnRoles","inputs":[{"name":"burnAndMinter","type":"address","internalType":"address"}],"outputs":[],"stateMutability":"nonpayable"},{"type":"function","name":"grantMintRole","inputs":[{"name":"minter","type":"address","internalType":"address"}],"outputs":[],"stateMutability":"nonpayable"},{"type":"function","name":"increaseAllowance","inputs":[{"name":"spender","type":"address","internalType":"address"},{"name":"addedValue","type":"uint256","internalType":"uint256"}],"outputs":[{"name":"","type":"bool","internalType":"bool"}],"stateMutability":"nonpayable"},{"type":"function","name":"increaseApproval","inputs":[{"name":"spender","type":"address","internalType":"address"},{"name":"addedValue","type":"uint256","internalType":"uint256"}],"outputs":[],"stateMutability":"nonpayable"},{"type":"function","name":"isBurner","inputs":[{"name":"burner","type":"address","internalType":"address"}],"outputs":[{"name":"","type":"bool","internalType":"bool"}],"stateMutability":"view"},{"type":"function","name":"isMinter","inputs":[{"name":"minter","type":"address","internalType":"address"}],"outputs":[{"name":"","type":"bool","internalType":"bool"}],"stateMutability":"view"},{"type":"function","name":"maxSupply","inputs":[],"outputs":[{"name":"","type":"uint256","internalType":"uint256"}],"stateMutability":"view"},{"type":"function","name":"mint","inputs":[{"name":"account","type":"address","internalType":"address"},{"name":"amount","type":"uint256","internalType":"uint256"}],"outputs":[],"stateMutability":"nonpayable"},{"type":"function","name":"name","inputs":[],"outputs":[{"name":"","type":"string","internalType":"string"}],"stateMutability":"view"},{"type":"function","name":"owner","inputs":[],"outputs":[{"name":"","type":"address","internalType":"address"}],"stateMutability":"view"},{"type":"function","name":"revokeBurnRole","inputs":[{"name":"burner","type":"address","internalType":"address"}],"outputs":[],"stateMutability":"nonpayable"},{"type":"function","name":"revokeMintRole","inputs":[{"name":"minter","type":"address","internalType":"address"}],"outputs":[],"stateMutability":"nonpayable"},{"type":"function","name":"supportsInterface","inputs":[{"name":"interfaceId","type":"bytes4","internalType":"bytes4"}],"outputs":[{"name":"","type":"bool","internalType":"bool"}],"stateMutability":"pure"},{"type":"function","name":"symbol","inputs":[],"outputs":[{"name":"","type":"string","internalType":"string"}],"stateMutability":"view"},{"type":"function","name":"totalSupply","inputs":[],"outputs":[{"name":"","type":"uint256","internalType":"uint256"}],"stateMutability":"view"},{"type":"function","name":"transfer","inputs":[{"name":"to","type":"address","internalType":"address"},{"name":"amount","type":"uint256","internalType":"uint256"}],"outputs":[{"name":"","type":"bool","internalType":"bool"}],"stateMutability":"nonpayable"},{"type":"function","name":"transferAndCall","inputs":[{"name":"to","type":"address","internalType":"address"},{"name":"amount","type":"uint256","internalType":"uint256"},{"name":"data","type":"bytes","internalType":"bytes"}],"outputs":[{"name":"success","type":"bool","internalType":"bool"}],"stateMutability":"nonpayable"},{"type":"function","name":"transferFrom","inputs":[{"name":"from","type":"address","internalType":"address"},{"name":"to","type":"address","internalType":"address"},{"name":"amount","type":"uint256","internalType":"uint256"}],"outputs":[{"name":"","type":"bool","internalType":"bool"}],"stateMutability":"nonpayable"},{"type":"function","name":"transferOwnership","inputs":[{"name":"to","type":"address","internalType":"address"}],"outputs":[],"stateMutability":"nonpayable"},{"type":"event","name":"Approval","inputs":[{"name":"owner","type":"address","indexed":true,"internalType":"address"},{"name":"spender","type":"address","indexed":true,"internalType":"address"},{"name":"value","type":"uint256","indexed":false,"internalType":"uint256"}],"anonymous":false},{"type":"event","name":"BurnAccessGranted","inputs":[{"name":"burner","type":"address","indexed":true,"internalType":"address"}],"anonymous":false},{"type":"event","name":"BurnAccessRevoked","inputs":[{"name":"burner","type":"address","indexed":true,"internalType":"address"}],"anonymous":false},{"type":"event","name":"MintAccessGranted","inputs":[{"name":"minter","type":"address","indexed":true,"internalType":"address"}],"anonymous":false},{"type":"event","name":"MintAccessRevoked","inputs":[{"name":"minter","type":"address","indexed":true,"internalType":"address"}],"anonymous":false},{"type":"event","name":"OwnershipTransferRequested","inputs":[{"name":"from","type":"address","indexed":true,"internalType":"address"},{"name":"to","type":"address","indexed":true,"internalType":"address"}],"anonymous":false},{"type":"event","name":"OwnershipTransferred","inputs":[{"name":"from","type":"address","indexed":true,"internalType":"address"},{"name":"to","type":"address","indexed":true,"internalType":"address"}],"anonymous":false},{"type":"event","name":"Transfer","inputs":[{"name":"from","type":"address","indexed":true,"internalType":"address"},{"name":"to","type":"address","indexed":true,"internalType":"address"},{"name":"value","type":"uint256","indexed":false,"internalType":"uint256"},{"name":"data","type":"bytes","indexed":false,"internalType":"bytes"}],"anonymous":false},{"type":"event","name":"Transfer","inputs":[{"name":"from","type":"address","indexed":true,"internalType":"address"},{"name":"to","type":"address","indexed":true,"internalType":"address"},{"name":"value","type":"uint256","indexed":false,"internalType":"uint256"}],"anonymous":false},{"type":"error","name":"MaxSupplyExceeded","inputs":[{"name":"supplyAfterMint","type":"uint256","internalType":"uint256"}]},{"type":"error","name":"SenderNotBurner","inputs":[{"name":"sender","type":"address","internalType":"address"}]},{"type":"error","name":"SenderNotMinter","inputs":[{"name":"sender","type":"address","internalType":"address"}]}],"bytecode":{"object":"0x60c06040523480156200001157600080fd5b506040516200389338038062003893833981810160405281019062000037919062000450565b8181601260003380600086868181816003908162000056919062000720565b50806004908162000068919062000720565b5050505050600073ffffffffffffffffffffffffffffffffffffffff168273ffffffffffffffffffffffffffffffffffffffff1603620000df576040517f08c379a0000000000000000000000000000000000000000000000000000000008152600401620000d69062000868565b60405180910390fd5b81600560006101000a81548173ffffffffffffffffffffffffffffffffffffffff021916908373ffffffffffffffffffffffffffffffffffffffff160217905550600073ffffffffffffffffffffffffffffffffffffffff168173ffffffffffffffffffffffffffffffffffffffff1614620001675762000166816200018c60201b60201c565b5b5050508160ff1660808160ff16815250508060a08181525050505050505050620008fc565b3373ffffffffffffffffffffffffffffffffffffffff168173ffffffffffffffffffffffffffffffffffffffff1603620001fd576040517f08c379a0000000000000000000000000000000000000000000000000000000008152600401620001f490620008da565b60405180910390fd5b80600660006101000a81548173ffffffffffffffffffffffffffffffffffffffff021916908373ffffffffffffffffffffffffffffffffffffffff1602179055508073ffffffffffffffffffffffffffffffffffffffff16600560009054906101000a900473ffffffffffffffffffffffffffffffffffffffff1673ffffffffffffffffffffffffffffffffffffffff167fed8889f560326eb138920d842192f0eb3dd22b4f139c87a2c57538e05bae127860405160405180910390a350565b6000604051905090565b600080fd5b600080fd5b600080fd5b600080fd5b6000601f19601f8301169050919050565b7f4e487b7100000000000000000000000000000000000000000000000000000000600052604160045260246000fd5b6200032682620002db565b810181811067ffffffffffffffff82111715620003485762000347620002ec565b5b80604052505050565b60006200035d620002bd565b90506200036b82826200031b565b919050565b600067ffffffffffffffff8211156200038e576200038d620002ec565b5b6200039982620002db565b9050602081019050919050565b60005b83811015620003c6578082015181840152602081019050620003a9565b60008484015250505050565b6000620003e9620003e38462000370565b62000351565b905082815260208101848484011115620004085762000407620002d6565b5b62000415848285620003a6565b509392505050565b600082601f830112620004355762000434620002d1565b5b815162000447848260208601620003d2565b91505092915050565b600080604083850312156200046a5762000469620002c7565b5b600083015167ffffffffffffffff8111156200048b576200048a620002cc565b5b62000499858286016200041d565b925050602083015167ffffffffffffffff811115620004bd57620004bc620002cc565b5b620004cb858286016200041d565b9150509250929050565b600081519050919050565b7f4e487b7100000000000000000000000000000000000000000000000000000000600052602260045260246000fd5b600060028204905060018216806200052857607f821691505b6020821081036200053e576200053d620004e0565b5b50919050565b60008190508160005260206000209050919050565b60006020601f8301049050919050565b600082821b905092915050565b600060088302620005a87fffffffffffffffffffffffffffffffffffffffffffffffffffffffffffffffff8262000569565b620005b4868362000569565b95508019841693508086168417925050509392505050565b6000819050919050565b6000819050919050565b600062000601620005fb620005f584620005cc565b620005d6565b620005cc565b9050919050565b6000819050919050565b6200061d83620005e0565b620006356200062c8262000608565b84845462000576565b825550505050565b600090565b6200064c6200063d565b6200065981848462000612565b505050565b5b8181101562000681576200067560008262000642565b6001810190506200065f565b5050565b601f821115620006d0576200069a8162000544565b620006a58462000559565b81016020851015620006b5578190505b620006cd620006c48562000559565b8301826200065e565b50505b505050565b600082821c905092915050565b6000620006f560001984600802620006d5565b1980831691505092915050565b6000620007108383620006e2565b9150826002028217905092915050565b6200072b82620004d5565b67ffffffffffffffff811115620007475762000746620002ec565b5b6200075382546200050f565b6200076082828562000685565b600060209050601f83116001811462000798576000841562000783578287015190505b6200078f858262000702565b865550620007ff565b601f198416620007a88662000544565b60005b82811015620007d257848901518255600182019150602085019450602081019050620007ab565b86831015620007f25784890151620007ee601f891682620006e2565b8355505b6001600288020188555050505b505050505050565b600082825260208201905092915050565b7f43616e6e6f7420736574206f776e657220746f207a65726f0000000000000000600082015250565b60006200085060188362000807565b91506200085d8262000818565b602082019050919050565b60006020820190508181036000830152620008838162000841565b9050919050565b7f43616e6e6f74207472616e7366657220746f2073656c66000000000000000000600082015250565b6000620008c260178362000807565b9150620008cf826200088a565b602082019050919050565b60006020820190508181036000830152620008f581620008b3565b9050919050565b60805160a051612f636200093060003960008181610b3801528181610b6201526111cf015260006109470152612f636000f3fe608060405234801561001057600080fd5b50600436106102065760003560e01c806379cc67901161011a578063aa271e1a116100ad578063d5abeb011161007c578063d5abeb0114610611578063d73dd6231461062f578063dd62ed3e1461064b578063f2fde38b1461067b578063f81094f31461069757610206565b8063aa271e1a1461058d578063c2e3273d146105bd578063c630948d146105d9578063c64d0ebc146105f557610206565b806395d89b41116100e957806395d89b41146104f35780639dc29fac14610511578063a457c2d71461052d578063a9059cbb1461055d57610206565b806379cc67901461047d57806386fe8b43146104995780638da5cb5b146104b75780638fd6a6ac146104d557610206565b806340c10f191161019d578063661884631161016c57806366188463146103d957806367a5cd06146104095780636b32810b1461042557806370a082311461044357806379ba50971461047357610206565b806340c10f191461035557806342966c68146103715780634334614a1461038d5780634f5632f8146103bd57610206565b806323b872dd116101d957806323b872dd146102a7578063313ce567146102d757806339509351146102f55780634000aea01461032557610206565b806301ffc9a71461020b57806306fdde031461023b578063095ea7b31461025957806318160ddd14610289575b600080fd5b610225600480360381019061022091906120ad565b6106b3565b60405161023291906120f5565b60405180910390f35b610243610855565b60405161025091906121a0565b60405180910390f35b610273600480360381019061026e9190612256565b6108e7565b60405161028091906120f5565b60405180910390f35b61029161090a565b60405161029e91906122a5565b60405180910390f35b6102c160048036038101906102bc91906122c0565b610914565b6040516102ce91906120f5565b60405180910390f35b6102df610943565b6040516102ec919061232f565b60405180910390f35b61030f600480360381019061030a9190612256565b61096b565b60405161031c91906120f5565b60405180910390f35b61033f600480360381019061033a919061247f565b6109a2565b60405161034c91906120f5565b60405180910390f35b61036f600480360381019061036a9190612256565b610ab1565b005b61038b600480360381019061038691906124ee565b610bf9565b005b6103a760048036038101906103a2919061251b565b610c4f565b6040516103b491906120f5565b60405180910390f35b6103d760048036038101906103d2919061251b565b610c6c565b005b6103f360048036038101906103ee9190612256565b610cd4565b60405161040091906120f5565b60405180910390f35b610423600480360381019061041e919061251b565b610ce8565b005b61042d610cfd565b60405161043a9190612606565b60405180910390f35b61045d6004803603810190610458919061251b565b610d0e565b60405161046a91906122a5565b60405180910390f35b61047b610d56565b005b61049760048036038101906104929190612256565b610eed565b005b6104a1610f45565b6040516104ae9190612606565b60405180910390f35b6104bf610f56565b6040516104cc9190612637565b60405180910390f35b6104dd610f80565b6040516104ea9190612637565b60405180910390f35b6104fb610f8f565b60405161050891906121a0565b60405180910390f35b61052b60048036038101906105269190612256565b611021565b005b61054760048036038101906105429190612256565b61102f565b60405161055491906120f5565b60405180910390f35b61057760048036038101906105729190612256565b6110a6565b60405161058491906120f5565b60405180910390f35b6105a760048036038101906105a2919061251b565b6110c9565b6040516105b491906120f5565b60405180910390f35b6105d760048036038101906105d2919061251b565b6110e6565b005b6105f360048036038101906105ee919061251b565b61114e565b005b61060f600480360381019061060a919061251b565b611163565b005b6106196111cb565b60405161062691906122a5565b60405180910390f35b61064960048036038101906106449190612256565b6111f3565b005b61066560048036038101906106609190612652565b611202565b60405161067291906122a5565b60405180910390f35b6106956004803603810190610690919061251b565b611289565b005b6106b160048036038101906106ac919061251b565b61129d565b005b60007f36372b07000000000000000000000000000000000000000000000000000000007bffffffffffffffffffffffffffffffffffffffffffffffffffffffff1916827bffffffffffffffffffffffffffffffffffffffffffffffffffffffff1916148061077e57507f4000aea0000000000000000000000000000000000000000000000000000000007bffffffffffffffffffffffffffffffffffffffffffffffffffffffff1916827bffffffffffffffffffffffffffffffffffffffffffffffffffffffff1916145b806107e657507fe6599b4d000000000000000000000000000000000000000000000000000000007bffffffffffffffffffffffffffffffffffffffffffffffffffffffff1916827bffffffffffffffffffffffffffffffffffffffffffffffffffffffff1916145b8061084e57507f01ffc9a7000000000000000000000000000000000000000000000000000000007bffffffffffffffffffffffffffffffffffffffffffffffffffffffff1916827bffffffffffffffffffffffffffffffffffffffffffffffffffffffff1916145b9050919050565b606060038054610864906126c1565b80601f0160208091040260200160405190810160405280929190818152602001828054610890906126c1565b80156108dd5780601f106108b2576101008083540402835291602001916108dd565b820191906000526020600020905b8154815290600101906020018083116108c057829003601f168201915b5050505050905090565b6000806108f2611305565b90506108ff81858561130d565b600191505092915050565b6000600254905090565b60008061091f611305565b905061092c858285611357565b6109378585856113e3565b60019150509392505050565b60007f0000000000000000000000000000000000000000000000000000000000000000905090565b600080610976611305565b90506109978185856109888589611202565b6109929190612721565b61130d565b600191505092915050565b60006109ae84846110a6565b508373ffffffffffffffffffffffffffffffffffffffff163373ffffffffffffffffffffffffffffffffffffffff167fe19260aff97b920c7df27010903aeb9c8d2be5d310a2c67824cf3f15396e4c168585604051610a0e9291906127aa565b60405180910390a360008473ffffffffffffffffffffffffffffffffffffffff163b1115610aa6578373ffffffffffffffffffffffffffffffffffffffff1663a4c0ed363385856040518463ffffffff1660e01b8152600401610a73939291906127da565b600060405180830381600087803b158015610a8d57600080fd5b505af1158015610aa1573d6000803e3d6000fd5b505050505b600190509392505050565b610aba336110c9565b610afb57336040517fe2c8c9d5000000000000000000000000000000000000000000000000000000008152600401610af29190612637565b60405180910390fd5b813073ffffffffffffffffffffffffffffffffffffffff168173ffffffffffffffffffffffffffffffffffffffff1603610b3457600080fd5b60007f000000000000000000000000000000000000000000000000000000000000000014158015610b9657507f000000000000000000000000000000000000000000000000000000000000000082610b8a61090a565b610b949190612721565b115b15610bea5781610ba461090a565b610bae9190612721565b6040517fcbbf1113000000000000000000000000000000000000000000000000000000008152600401610be191906122a5565b60405180910390fd5b610bf4838361142d565b505050565b610c0233610c4f565b610c4357336040517fc820b10b000000000000000000000000000000000000000000000000000000008152600401610c3a9190612637565b60405180910390fd5b610c4c81611583565b50565b6000610c6582600961159790919063ffffffff16565b9050919050565b610c746115c7565b610c8881600961165990919063ffffffff16565b15610cd1578073ffffffffffffffffffffffffffffffffffffffff167f0a675452746933cefe3d74182e78db7afe57ba60eaa4234b5d85e9aa41b0610c60405160405180910390a25b50565b6000610ce0838361102f565b905092915050565b610cfa81670de0b6b3a764000061142d565b50565b6060610d096007611689565b905090565b60008060008373ffffffffffffffffffffffffffffffffffffffff1673ffffffffffffffffffffffffffffffffffffffff168152602001908152602001600020549050919050565b600660009054906101000a900473ffffffffffffffffffffffffffffffffffffffff1673ffffffffffffffffffffffffffffffffffffffff163373ffffffffffffffffffffffffffffffffffffffff1614610de6576040517f08c379a0000000000000000000000000000000000000000000000000000000008152600401610ddd90612864565b60405180910390fd5b6000600560009054906101000a900473ffffffffffffffffffffffffffffffffffffffff16905033600560006101000a81548173ffffffffffffffffffffffffffffffffffffffff021916908373ffffffffffffffffffffffffffffffffffffffff1602179055506000600660006101000a81548173ffffffffffffffffffffffffffffffffffffffff021916908373ffffffffffffffffffffffffffffffffffffffff1602179055503373ffffffffffffffffffffffffffffffffffffffff168173ffffffffffffffffffffffffffffffffffffffff167f8be0079c531659141344cd1fd0a4f28419497f9722a3daafe3b4186f6b6457e060405160405180910390a350565b610ef633610c4f565b610f3757336040517fc820b10b000000000000000000000000000000000000000000000000000000008152600401610f2e9190612637565b60405180910390fd5b610f4182826116aa565b5050565b6060610f516009611689565b905090565b6000600560009054906101000a900473ffffffffffffffffffffffffffffffffffffffff16905090565b6000610f8a610f56565b905090565b606060048054610f9e906126c1565b80601f0160208091040260200160405190810160405280929190818152602001828054610fca906126c1565b80156110175780601f10610fec57610100808354040283529160200191611017565b820191906000526020600020905b815481529060010190602001808311610ffa57829003601f168201915b5050505050905090565b61102b8282610eed565b5050565b60008061103a611305565b905060006110488286611202565b90508381101561108d576040517f08c379a0000000000000000000000000000000000000000000000000000000008152600401611084906128f6565b60405180910390fd5b61109a828686840361130d565b60019250505092915050565b6000806110b1611305565b90506110be8185856113e3565b600191505092915050565b60006110df82600761159790919063ffffffff16565b9050919050565b6110ee6115c7565b6111028160076116ca90919063ffffffff16565b1561114b578073ffffffffffffffffffffffffffffffffffffffff167fe46fef8bbff1389d9010703cf8ebb363fb3daf5bf56edc27080b67bc8d9251ea60405160405180910390a25b50565b611157816110e6565b61116081611163565b50565b61116b6115c7565b61117f8160096116ca90919063ffffffff16565b156111c8578073ffffffffffffffffffffffffffffffffffffffff167f92308bb7573b2a3d17ddb868b39d8ebec433f3194421abc22d084f89658c9bad60405160405180910390a25b50565b60007f0000000000000000000000000000000000000000000000000000000000000000905090565b6111fd828261096b565b505050565b6000600160008473ffffffffffffffffffffffffffffffffffffffff1673ffffffffffffffffffffffffffffffffffffffff16815260200190815260200160002060008373ffffffffffffffffffffffffffffffffffffffff1673ffffffffffffffffffffffffffffffffffffffff16815260200190815260200160002054905092915050565b6112916115c7565b61129a816116fa565b50565b6112a56115c7565b6112b981600761165990919063ffffffff16565b15611302578073ffffffffffffffffffffffffffffffffffffffff167fed998b960f6340d045f620c119730f7aa7995e7425c2401d3a5b64ff998a59e960405160405180910390a25b50565b600033905090565b813073ffffffffffffffffffffffffffffffffffffffff168173ffffffffffffffffffffffffffffffffffffffff160361134657600080fd5b611351848484611828565b50505050565b60006113638484611202565b90507fffffffffffffffffffffffffffffffffffffffffffffffffffffffffffffffff81146113dd57818110156113cf576040517f08c379a00000000000000000000000000000000000000000000000000000000081526004016113c690612962565b60405180910390fd5b6113dc848484840361130d565b5b50505050565b813073ffffffffffffffffffffffffffffffffffffffff168173ffffffffffffffffffffffffffffffffffffffff160361141c57600080fd5b6114278484846119f1565b50505050565b600073ffffffffffffffffffffffffffffffffffffffff168273ffffffffffffffffffffffffffffffffffffffff160361149c576040517f08c379a0000000000000000000000000000000000000000000000000000000008152600401611493906129ce565b60405180910390fd5b6114a860008383611c67565b80600260008282546114ba9190612721565b92505081905550806000808473ffffffffffffffffffffffffffffffffffffffff1673ffffffffffffffffffffffffffffffffffffffff168152602001908152602001600020600082825401925050819055508173ffffffffffffffffffffffffffffffffffffffff16600073ffffffffffffffffffffffffffffffffffffffff167fddf252ad1be2c89b69c2b068fc378daa952ba7f163c4a11628f55a4df523b3ef8360405161156b91906122a5565b60405180910390a361157f60008383611c6c565b5050565b61159461158e611305565b82611c71565b50565b60006115bf836000018373ffffffffffffffffffffffffffffffffffffffff1660001b611e3e565b905092915050565b600560009054906101000a900473ffffffffffffffffffffffffffffffffffffffff1673ffffffffffffffffffffffffffffffffffffffff163373ffffffffffffffffffffffffffffffffffffffff1614611657576040517f08c379a000000000000000000000000000000000000000000000000000000000815260040161164e90612a3a565b60405180910390fd5b565b6000611681836000018373ffffffffffffffffffffffffffffffffffffffff1660001b611e61565b905092915050565b6060600061169983600001611f75565b905060608190508092505050919050565b6116bc826116b6611305565b83611357565b6116c68282611c71565b5050565b60006116f2836000018373ffffffffffffffffffffffffffffffffffffffff1660001b611fd1565b905092915050565b3373ffffffffffffffffffffffffffffffffffffffff168173ffffffffffffffffffffffffffffffffffffffff1603611768576040517f08c379a000000000000000000000000000000000000000000000000000000000815260040161175f90612aa6565b60405180910390fd5b80600660006101000a81548173ffffffffffffffffffffffffffffffffffffffff021916908373ffffffffffffffffffffffffffffffffffffffff1602179055508073ffffffffffffffffffffffffffffffffffffffff16600560009054906101000a900473ffffffffffffffffffffffffffffffffffffffff1673ffffffffffffffffffffffffffffffffffffffff167fed8889f560326eb138920d842192f0eb3dd22b4f139c87a2c57538e05bae127860405160405180910390a350565b600073ffffffffffffffffffffffffffffffffffffffff168373ffffffffffffffffffffffffffffffffffffffff1603611897576040517f08c379a000000000000000000000000000000000000000000000000000000000815260040161188e90612b38565b60405180910390fd5b600073ffffffffffffffffffffffffffffffffffffffff168273ffffffffffffffffffffffffffffffffffffffff1603611906576040517f08c379a00000000000000000000000000000000000000000000000000000000081526004016118fd90612bca565b60405180910390fd5b80600160008573ffffffffffffffffffffffffffffffffffffffff1673ffffffffffffffffffffffffffffffffffffffff16815260200190815260200160002060008473ffffffffffffffffffffffffffffffffffffffff1673ffffffffffffffffffffffffffffffffffffffff168152602001908152602001600020819055508173ffffffffffffffffffffffffffffffffffffffff168373ffffffffffffffffffffffffffffffffffffffff167f8c5be1e5ebec7d5bd14f71427d1e84f3dd0314c0f7b2291e5b200ac8c7c3b925836040516119e491906122a5565b60405180910390a3505050565b600073ffffffffffffffffffffffffffffffffffffffff168373ffffffffffffffffffffffffffffffffffffffff1603611a60576040517f08c379a0000000000000000000000000000000000000000000000000000000008152600401611a5790612c5c565b60405180910390fd5b600073ffffffffffffffffffffffffffffffffffffffff168273ffffffffffffffffffffffffffffffffffffffff1603611acf576040517f08c379a0000000000000000000000000000000000000000000000000000000008152600401611ac690612cee565b60405180910390fd5b611ada838383611c67565b60008060008573ffffffffffffffffffffffffffffffffffffffff1673ffffffffffffffffffffffffffffffffffffffff16815260200190815260200160002054905081811015611b60576040517f08c379a0000000000000000000000000000000000000000000000000000000008152600401611b5790612d80565b60405180910390fd5b8181036000808673ffffffffffffffffffffffffffffffffffffffff1673ffffffffffffffffffffffffffffffffffffffff16815260200190815260200160002081905550816000808573ffffffffffffffffffffffffffffffffffffffff1673ffffffffffffffffffffffffffffffffffffffff168152602001908152602001600020600082825401925050819055508273ffffffffffffffffffffffffffffffffffffffff168473ffffffffffffffffffffffffffffffffffffffff167fddf252ad1be2c89b69c2b068fc378daa952ba7f163c4a11628f55a4df523b3ef84604051611c4e91906122a5565b60405180910390a3611c61848484611c6c565b50505050565b505050565b505050565b600073ffffffffffffffffffffffffffffffffffffffff168273ffffffffffffffffffffffffffffffffffffffff1603611ce0576040517f08c379a0000000000000000000000000000000000000000000000000000000008152600401611cd790612e12565b60405180910390fd5b611cec82600083611c67565b60008060008473ffffffffffffffffffffffffffffffffffffffff1673ffffffffffffffffffffffffffffffffffffffff16815260200190815260200160002054905081811015611d72576040517f08c379a0000000000000000000000000000000000000000000000000000000008152600401611d6990612ea4565b60405180910390fd5b8181036000808573ffffffffffffffffffffffffffffffffffffffff1673ffffffffffffffffffffffffffffffffffffffff1681526020019081526020016000208190555081600260008282540392505081905550600073ffffffffffffffffffffffffffffffffffffffff168373ffffffffffffffffffffffffffffffffffffffff167fddf252ad1be2c89b69c2b068fc378daa952ba7f163c4a11628f55a4df523b3ef84604051611e2591906122a5565b60405180910390a3611e3983600084611c6c565b505050565b600080836001016000848152602001908152602001600020541415905092915050565b60008083600101600084815260200190815260200160002054905060008114611f69576000600182611e939190612ec4565b9050600060018660000180549050611eab9190612ec4565b9050818114611f1a576000866000018281548110611ecc57611ecb612ef8565b5b9060005260206000200154905080876000018481548110611ef057611eef612ef8565b5b90600052602060002001819055508387600101600083815260200190815260200160002081905550505b85600001805480611f2e57611f2d612f27565b5b600190038181906000526020600020016000905590558560010160008681526020019081526020016000206000905560019350505050611f6f565b60009150505b92915050565b606081600001805480602002602001604051908101604052809291908181526020018280548015611fc557602002820191906000526020600020905b815481526020019060010190808311611fb1575b50505050509050919050565b6000611fdd8383611e3e565b61203657826000018290806001815401808255809150506001900390600052602060002001600090919091909150558260000180549050836001016000848152602001908152602001600020819055506001905061203b565b600090505b92915050565b6000604051905090565b600080fd5b600080fd5b60007fffffffff0000000000000000000000000000000000000000000000000000000082169050919050565b61208a81612055565b811461209557600080fd5b50565b6000813590506120a781612081565b92915050565b6000602082840312156120c3576120c261204b565b5b60006120d184828501612098565b91505092915050565b60008115159050919050565b6120ef816120da565b82525050565b600060208201905061210a60008301846120e6565b92915050565b600081519050919050565b600082825260208201905092915050565b60005b8381101561214a57808201518184015260208101905061212f565b60008484015250505050565b6000601f19601f8301169050919050565b600061217282612110565b61217c818561211b565b935061218c81856020860161212c565b61219581612156565b840191505092915050565b600060208201905081810360008301526121ba8184612167565b905092915050565b600073ffffffffffffffffffffffffffffffffffffffff82169050919050565b60006121ed826121c2565b9050919050565b6121fd816121e2565b811461220857600080fd5b50565b60008135905061221a816121f4565b92915050565b6000819050919050565b61223381612220565b811461223e57600080fd5b50565b6000813590506122508161222a565b92915050565b6000806040838503121561226d5761226c61204b565b5b600061227b8582860161220b565b925050602061228c85828601612241565b9150509250929050565b61229f81612220565b82525050565b60006020820190506122ba6000830184612296565b92915050565b6000806000606084860312156122d9576122d861204b565b5b60006122e78682870161220b565b93505060206122f88682870161220b565b925050604061230986828701612241565b9150509250925092565b600060ff82169050919050565b61232981612313565b82525050565b60006020820190506123446000830184612320565b92915050565b600080fd5b600080fd5b7f4e487b7100000000000000000000000000000000000000000000000000000000600052604160045260246000fd5b61238c82612156565b810181811067ffffffffffffffff821117156123ab576123aa612354565b5b80604052505050565b60006123be612041565b90506123ca8282612383565b919050565b600067ffffffffffffffff8211156123ea576123e9612354565b5b6123f382612156565b9050602081019050919050565b82818337600083830152505050565b600061242261241d846123cf565b6123b4565b90508281526020810184848401111561243e5761243d61234f565b5b612449848285612400565b509392505050565b600082601f8301126124665761246561234a565b5b813561247684826020860161240f565b91505092915050565b6000806000606084860312156124985761249761204b565b5b60006124a68682870161220b565b93505060206124b786828701612241565b925050604084013567ffffffffffffffff8111156124d8576124d7612050565b5b6124e486828701612451565b9150509250925092565b6000602082840312156125045761250361204b565b5b600061251284828501612241565b91505092915050565b6000602082840312156125315761253061204b565b5b600061253f8482850161220b565b91505092915050565b600081519050919050565b600082825260208201905092915050565b6000819050602082019050919050565b61257d816121e2565b82525050565b600061258f8383612574565b60208301905092915050565b6000602082019050919050565b60006125b382612548565b6125bd8185612553565b93506125c883612564565b8060005b838110156125f95781516125e08882612583565b97506125eb8361259b565b9250506001810190506125cc565b5085935050505092915050565b6000602082019050818103600083015261262081846125a8565b905092915050565b612631816121e2565b82525050565b600060208201905061264c6000830184612628565b92915050565b600080604083850312156126695761266861204b565b5b60006126778582860161220b565b92505060206126888582860161220b565b9150509250929050565b7f4e487b7100000000000000000000000000000000000000000000000000000000600052602260045260246000fd5b600060028204905060018216806126d957607f821691505b6020821081036126ec576126eb612692565b5b50919050565b7f4e487b7100000000000000000000000000000000000000000000000000000000600052601160045260246000fd5b600061272c82612220565b915061273783612220565b925082820190508082111561274f5761274e6126f2565b5b92915050565b600081519050919050565b600082825260208201905092915050565b600061277c82612755565b6127868185612760565b935061279681856020860161212c565b61279f81612156565b840191505092915050565b60006040820190506127bf6000830185612296565b81810360208301526127d18184612771565b90509392505050565b60006060820190506127ef6000830186612628565b6127fc6020830185612296565b818103604083015261280e8184612771565b9050949350505050565b7f4d7573742062652070726f706f736564206f776e657200000000000000000000600082015250565b600061284e60168361211b565b915061285982612818565b602082019050919050565b6000602082019050818103600083015261287d81612841565b9050919050565b7f45524332303a2064656372656173656420616c6c6f77616e63652062656c6f7760008201527f207a65726f000000000000000000000000000000000000000000000000000000602082015250565b60006128e060258361211b565b91506128eb82612884565b604082019050919050565b6000602082019050818103600083015261290f816128d3565b9050919050565b7f45524332303a20696e73756666696369656e7420616c6c6f77616e6365000000600082015250565b600061294c601d8361211b565b915061295782612916565b602082019050919050565b6000602082019050818103600083015261297b8161293f565b9050919050565b7f45524332303a206d696e7420746f20746865207a65726f206164647265737300600082015250565b60006129b8601f8361211b565b91506129c382612982565b602082019050919050565b600060208201905081810360008301526129e7816129ab565b9050919050565b7f4f6e6c792063616c6c61626c65206279206f776e657200000000000000000000600082015250565b6000612a2460168361211b565b9150612a2f826129ee565b602082019050919050565b60006020820190508181036000830152612a5381612a17565b9050919050565b7f43616e6e6f74207472616e7366657220746f2073656c66000000000000000000600082015250565b6000612a9060178361211b565b9150612a9b82612a5a565b602082019050919050565b60006020820190508181036000830152612abf81612a83565b9050919050565b7f45524332303a20617070726f76652066726f6d20746865207a65726f2061646460008201527f7265737300000000000000000000000000000000000000000000000000000000602082015250565b6000612b2260248361211b565b9150612b2d82612ac6565b604082019050919050565b60006020820190508181036000830152612b5181612b15565b9050919050565b7f45524332303a20617070726f766520746f20746865207a65726f20616464726560008201527f7373000000000000000000000000000000000000000000000000000000000000602082015250565b6000612bb460228361211b565b9150612bbf82612b58565b604082019050919050565b60006020820190508181036000830152612be381612ba7565b9050919050565b7f45524332303a207472616e736665722066726f6d20746865207a65726f20616460008201527f6472657373000000000000000000000000000000000000000000000000000000602082015250565b6000612c4660258361211b565b9150612c5182612bea565b604082019050919050565b60006020820190508181036000830152612c7581612c39565b9050919050565b7f45524332303a207472616e7366657220746f20746865207a65726f206164647260008201527f6573730000000000000000000000000000000000000000000000000000000000602082015250565b6000612cd860238361211b565b9150612ce382612c7c565b604082019050919050565b60006020820190508181036000830152612d0781612ccb565b9050919050565b7f45524332303a207472616e7366657220616d6f756e742065786365656473206260008201527f616c616e63650000000000000000000000000000000000000000000000000000602082015250565b6000612d6a60268361211b565b9150612d7582612d0e565b604082019050919050565b60006020820190508181036000830152612d9981612d5d565b9050919050565b7f45524332303a206275726e2066726f6d20746865207a65726f2061646472657360008201527f7300000000000000000000000000000000000000000000000000000000000000602082015250565b6000612dfc60218361211b565b9150612e0782612da0565b604082019050919050565b60006020820190508181036000830152612e2b81612def565b9050919050565b7f45524332303a206275726e20616d6f756e7420657863656564732062616c616e60008201527f6365000000000000000000000000000000000000000000000000000000000000602082015250565b6000612e8e60228361211b565b9150612e9982612e32565b604082019050919050565b60006020820190508181036000830152612ebd81612e81565b9050919050565b6000612ecf82612220565b9150612eda83612220565b9250828203905081811115612ef257612ef16126f2565b5b92915050565b7f4e487b7100000000000000000000000000000000000000000000000000000000600052603260045260246000fd5b7f4e487b7100000000000000000000000000000000000000000000000000000000600052603160045260246000fdfea164736f6c6343000818000a","linkReferences":{}},"methodIdentifiers":{"acceptOwnership()":"79ba5097","allowance(address,address)":"dd62ed3e","approve(address,uint256)":"095ea7b3","balanceOf(address)":"70a08231","burn(address,uint256)":"9dc29fac","burn(uint256)":"42966c68","burnFrom(address,uint256)":"79cc6790","decimals()":"313ce567","decreaseAllowance(address,uint256)":"a457c2d7","decreaseApproval(address,uint256)":"66188463","drip(address)":"67a5cd06","getBurners()":"86fe8b43","getCCIPAdmin()":"8fd6a6ac","getMinters()":"6b32810b","grantBurnRole(address)":"c64d0ebc","grantMintAndBurnRoles(address)":"c630948d","grantMintRole(address)":"c2e3273d","increaseAllowance(address,uint256)":"39509351","increaseApproval(address,uint256)":"d73dd623","isBurner(address)":"4334614a","isMinter(address)":"aa271e1a","maxSupply()":"d5abeb01","mint(address,uint256)":"40c10f19","name()":"06fdde03","owner()":"8da5cb5b","revokeBurnRole(address)":"4f5632f8","revokeMintRole(address)":"f81094f3","supportsInterface(bytes4)":"01ffc9a7","symbol()":"95d89b41","totalSupply()":"18160ddd","transfer(address,uint256)":"a9059cbb","transferAndCall(address,uint256,bytes)":"4000aea0","transferFrom(address,address,uint256)":"23b872dd","transferOwnership(address)":"f2fde38b"},"id":82}