{"abi":[{"type":"constructor","inputs":[{"name":"tokens","type":"address[]","internalType":"contract IERC20[]"},{"name":"allowlist","type":"address[]","internalType":"address[]"},{"name":"rmnProxy","type":"address","internalType":"address"},{"name":"router","type":"address","internalType":"address"}],"stateMutability":"nonpayable"},{"type":"function","name":"acceptOwnership","inputs":[],"outputs":[],"stateMutability":"nonpayable"},{"type":"function","name":"applyAllowListUpdates","inputs":[{"name":"removes","type":"address[]","internalType":"address[]"},{"name":"adds","type":"address[]","internalType":"address[]"}],"outputs":[],"stateMutability":"nonpayable"},{"type":"function","name":"applyChainUpdates","inputs":[{"name":"token","type":"address","internalType":"address"},{"name":"chains","type":"tuple[]","internalType":"struct MultiTokenPool.ChainUpdate[]","components":[{"name":"remoteChainSelector","type":"uint64","internalType":"uint64"},{"name":"allowed","type":"bool","internalType":"bool"},{"name":"remotePoolAddress","type":"bytes","internalType":"bytes"},{"name":"remoteTokenAddress","type":"bytes","internalType":"bytes"},{"name":"outboundRateLimiterConfig","type":"tuple","internalType":"struct RateLimiter.Config","components":[{"name":"isEnabled","type":"bool","internalType":"bool"},{"name":"capacity","type":"uint128","internalType":"uint128"},{"name":"rate","type":"uint128","internalType":"uint128"}]},{"name":"inboundRateLimiterConfig","type":"tuple","internalType":"struct RateLimiter.Config","components":[{"name":"isEnabled","type":"bool","internalType":"bool"},{"name":"capacity","type":"uint128","internalType":"uint128"},{"name":"rate","type":"uint128","internalType":"uint128"}]}]}],"outputs":[],"stateMutability":"nonpayable"},{"type":"function","name":"getAllowList","inputs":[],"outputs":[{"name":"","type":"address[]","internalType":"address[]"}],"stateMutability":"view"},{"type":"function","name":"getAllowListEnabled","inputs":[],"outputs":[{"name":"","type":"bool","internalType":"bool"}],"stateMutability":"view"},{"type":"function","name":"getCurrentInboundRateLimiterState","inputs":[{"name":"token","type":"address","internalType":"address"},{"name":"remoteChainSelector","type":"uint64","internalType":"uint64"}],"outputs":[{"name":"","type":"tuple","internalType":"struct RateLimiter.TokenBucket","components":[{"name":"tokens","type":"uint128","internalType":"uint128"},{"name":"lastUpdated","type":"uint32","internalType":"uint32"},{"name":"isEnabled","type":"bool","internalType":"bool"},{"name":"capacity","type":"uint128","internalType":"uint128"},{"name":"rate","type":"uint128","internalType":"uint128"}]}],"stateMutability":"view"},{"type":"function","name":"getCurrentOutboundRateLimiterState","inputs":[{"name":"token","type":"address","internalType":"address"},{"name":"remoteChainSelector","type":"uint64","internalType":"uint64"}],"outputs":[{"name":"","type":"tuple","internalType":"struct RateLimiter.TokenBucket","components":[{"name":"tokens","type":"uint128","internalType":"uint128"},{"name":"lastUpdated","type":"uint32","internalType":"uint32"},{"name":"isEnabled","type":"bool","internalType":"bool"},{"name":"capacity","type":"uint128","internalType":"uint128"},{"name":"rate","type":"uint128","internalType":"uint128"}]}],"stateMutability":"view"},{"type":"function","name":"getRemotePool","inputs":[{"name":"token","type":"address","internalType":"address"},{"name":"remoteChainSelector","type":"uint64","internalType":"uint64"}],"outputs":[{"name":"","type":"bytes","internalType":"bytes"}],"stateMutability":"view"},{"type":"function","name":"getRemoteToken","inputs":[{"name":"token","type":"address","internalType":"address"},{"name":"remoteChainSelector","type":"uint64","internalType":"uint64"}],"outputs":[{"name":"","type":"bytes","internalType":"bytes"}],"stateMutability":"view"},{"type":"function","name":"getRmnProxy","inputs":[],"outputs":[{"name":"rmnProxy","type":"address","internalType":"address"}],"stateMutability":"view"},{"type":"function","name":"getRouter","inputs":[],"outputs":[{"name":"router","type":"address","internalType":"address"}],"stateMutability":"view"},{"type":"function","name":"getSupportedChains","inputs":[],"outputs":[{"name":"","type":"uint64[]","internalType":"uint64[]"}],"stateMutability":"view"},{"type":"function","name":"getTokens","inputs":[],"outputs":[{"name":"tokens","type":"address[]","internalType":"contract IERC20[]"}],"stateMutability":"view"},{"type":"function","name":"isSupportedChain","inputs":[{"name":"remoteChainSelector","type":"uint64","internalType":"uint64"}],"outputs":[{"name":"","type":"bool","internalType":"bool"}],"stateMutability":"view"},{"type":"function","name":"isSupportedToken","inputs":[{"name":"token","type":"address","internalType":"address"}],"outputs":[{"name":"","type":"bool","internalType":"bool"}],"stateMutability":"view"},{"type":"function","name":"lockOrBurn","inputs":[{"name":"lockOrBurnIn","type":"tuple","internalType":"struct Pool.LockOrBurnInV1","components":[{"name":"receiver","type":"bytes","internalType":"bytes"},{"name":"remoteChainSelector","type":"uint64","internalType":"uint64"},{"name":"originalSender","type":"address","internalType":"address"},{"name":"amount","type":"uint256","internalType":"uint256"},{"name":"localToken","type":"address","internalType":"address"}]}],"outputs":[{"name":"","type":"tuple","internalType":"struct Pool.LockOrBurnOutV1","components":[{"name":"destTokenAddress","type":"bytes","internalType":"bytes"},{"name":"destPoolData","type":"bytes","internalType":"bytes"}]}],"stateMutability":"nonpayable"},{"type":"function","name":"owner","inputs":[],"outputs":[{"name":"","type":"address","internalType":"address"}],"stateMutability":"view"},{"type":"function","name":"releaseOrMint","inputs":[{"name":"releaseOrMintIn","type":"tuple","internalType":"struct Pool.ReleaseOrMintInV1","components":[{"name":"originalSender","type":"bytes","internalType":"bytes"},{"name":"remoteChainSelector","type":"uint64","internalType":"uint64"},{"name":"receiver","type":"address","internalType":"address"},{"name":"amount","type":"uint256","internalType":"uint256"},{"name":"localToken","type":"address","internalType":"address"},{"name":"sourcePoolAddress","type":"bytes","internalType":"bytes"},{"name":"sourcePoolData","type":"bytes","internalType":"bytes"},{"name":"offchainTokenData","type":"bytes","internalType":"bytes"}]}],"outputs":[{"name":"","type":"tuple","internalType":"struct Pool.ReleaseOrMintOutV1","components":[{"name":"destinationAmount","type":"uint256","internalType":"uint256"}]}],"stateMutability":"nonpayable"},{"type":"function","name":"setRemotePool","inputs":[{"name":"token","type":"address","internalType":"address"},{"name":"remoteChainSelector","type":"uint64","internalType":"uint64"},{"name":"remotePoolAddress","type":"bytes","internalType":"bytes"}],"outputs":[],"stateMutability":"nonpayable"},{"type":"function","name":"setRouter","inputs":[{"name":"newRouter","type":"address","internalType":"address"}],"outputs":[],"stateMutability":"nonpayable"},{"type":"function","name":"supportsInterface","inputs":[{"name":"interfaceId","type":"bytes4","internalType":"bytes4"}],"outputs":[{"name":"","type":"bool","internalType":"bool"}],"stateMutability":"pure"},{"type":"function","name":"transferOwnership","inputs":[{"name":"to","type":"address","internalType":"address"}],"outputs":[],"stateMutability":"nonpayable"},{"type":"event","name":"AllowListAdd","inputs":[{"name":"sender","type":"address","indexed":false,"internalType":"address"}],"anonymous":false},{"type":"event","name":"AllowListRemove","inputs":[{"name":"sender","type":"address","indexed":false,"internalType":"address"}],"anonymous":false},{"type":"event","name":"Burned","inputs":[{"name":"sender","type":"address","indexed":true,"internalType":"address"},{"name":"amount","type":"uint256","indexed":false,"internalType":"uint256"}],"anonymous":false},{"type":"event","name":"ChainAdded","inputs":[{"name":"remoteChainSelector","type":"uint64","indexed":false,"internalType":"uint64"},{"name":"remoteToken","type":"bytes","indexed":false,"internalType":"bytes"},{"name":"outboundRateLimiterConfig","type":"tuple","indexed":false,"internalType":"struct RateLimiter.Config","components":[{"name":"isEnabled","type":"bool","internalType":"bool"},{"name":"capacity","type":"uint128","internalType":"uint128"},{"name":"rate","type":"uint128","internalType":"uint128"}]},{"name":"inboundRateLimiterConfig","type":"tuple","indexed":false,"internalType":"struct RateLimiter.Config","components":[{"name":"isEnabled","type":"bool","internalType":"bool"},{"name":"capacity","type":"uint128","internalType":"uint128"},{"name":"rate","type":"uint128","internalType":"uint128"}]}],"anonymous":false},{"type":"event","name":"ChainConfigured","inputs":[{"name":"remoteChainSelector","type":"uint64","indexed":false,"internalType":"uint64"},{"name":"outboundRateLimiterConfig","type":"tuple","indexed":false,"internalType":"struct RateLimiter.Config","components":[{"name":"isEnabled","type":"bool","internalType":"bool"},{"name":"capacity","type":"uint128","internalType":"uint128"},{"name":"rate","type":"uint128","internalType":"uint128"}]},{"name":"inboundRateLimiterConfig","type":"tuple","indexed":false,"internalType":"struct RateLimiter.Config","components":[{"name":"isEnabled","type":"bool","internalType":"bool"},{"name":"capacity","type":"uint128","internalType":"uint128"},{"name":"rate","type":"uint128","internalType":"uint128"}]}],"anonymous":false},{"type":"event","name":"ChainRemoved","inputs":[{"name":"remoteChainSelector","type":"uint64","indexed":false,"internalType":"uint64"}],"anonymous":false},{"type":"event","name":"Locked","inputs":[{"name":"sender","type":"address","indexed":true,"internalType":"address"},{"name":"amount","type":"uint256","indexed":false,"internalType":"uint256"}],"anonymous":false},{"type":"event","name":"Minted","inputs":[{"name":"sender","type":"address","indexed":true,"internalType":"address"},{"name":"recipient","type":"address","indexed":true,"internalType":"address"},{"name":"amount","type":"uint256","indexed":false,"internalType":"uint256"}],"anonymous":false},{"type":"event","name":"OwnershipTransferRequested","inputs":[{"name":"from","type":"address","indexed":true,"internalType":"address"},{"name":"to","type":"address","indexed":true,"internalType":"address"}],"anonymous":false},{"type":"event","name":"OwnershipTransferred","inputs":[{"name":"from","type":"address","indexed":true,"internalType":"address"},{"name":"to","type":"address","indexed":true,"internalType":"address"}],"anonymous":false},{"type":"event","name":"Released","inputs":[{"name":"sender","type":"address","indexed":true,"internalType":"address"},{"name":"recipient","type":"address","indexed":true,"internalType":"address"},{"name":"amount","type":"uint256","indexed":false,"internalType":"uint256"}],"anonymous":false},{"type":"event","name":"RemotePoolSet","inputs":[{"name":"remoteChainSelector","type":"uint64","indexed":true,"internalType":"uint64"},{"name":"previousPoolAddress","type":"bytes","indexed":false,"internalType":"bytes"},{"name":"remotePoolAddress","type":"bytes","indexed":false,"internalType":"bytes"}],"anonymous":false},{"type":"event","name":"RouterUpdated","inputs":[{"name":"oldRouter","type":"address","indexed":false,"internalType":"address"},{"name":"newRouter","type":"address","indexed":false,"internalType":"address"}],"anonymous":false},{"type":"event","name":"TokensConsumed","inputs":[{"name":"tokens","type":"uint256","indexed":false,"internalType":"uint256"}],"anonymous":false},{"type":"error","name":"AggregateValueMaxCapacityExceeded","inputs":[{"name":"capacity","type":"uint256","internalType":"uint256"},{"name":"requested","type":"uint256","internalType":"uint256"}]},{"type":"error","name":"AggregateValueRateLimitReached","inputs":[{"name":"minWaitInSeconds","type":"uint256","internalType":"uint256"},{"name":"available","type":"uint256","internalType":"uint256"}]},{"type":"error","name":"AllowListNotEnabled","inputs":[]},{"type":"error","name":"BucketOverfilled","inputs":[]},{"type":"error","name":"CallerIsNotARampOnRouter","inputs":[{"name":"caller","type":"address","internalType":"address"}]},{"type":"error","name":"ChainAlreadyExists","inputs":[{"name":"chainSelector","type":"uint64","internalType":"uint64"}]},{"type":"error","name":"ChainNotAllowed","inputs":[{"name":"remoteChainSelector","type":"uint64","internalType":"uint64"}]},{"type":"error","name":"CursedByRMN","inputs":[]},{"type":"error","name":"DisabledNonZeroRateLimit","inputs":[{"name":"config","type":"tuple","internalType":"struct RateLimiter.Config","components":[{"name":"isEnabled","type":"bool","internalType":"bool"},{"name":"capacity","type":"uint128","internalType":"uint128"},{"name":"rate","type":"uint128","internalType":"uint128"}]}]},{"type":"error","name":"InvalidRateLimitRate","inputs":[{"name":"rateLimiterConfig","type":"tuple","internalType":"struct RateLimiter.Config","components":[{"name":"isEnabled","type":"bool","internalType":"bool"},{"name":"capacity","type":"uint128","internalType":"uint128"},{"name":"rate","type":"uint128","internalType":"uint128"}]}]},{"type":"error","name":"InvalidSourcePoolAddress","inputs":[{"name":"sourcePoolAddress","type":"bytes","internalType":"bytes"}]},{"type":"error","name":"InvalidToken","inputs":[{"name":"token","type":"address","internalType":"address"}]},{"type":"error","name":"NonExistentChain","inputs":[{"name":"remoteChainSelector","type":"uint64","internalType":"uint64"}]},{"type":"error","name":"RateLimitMustBeDisabled","inputs":[]},{"type":"error","name":"SenderNotAllowed","inputs":[{"name":"sender","type":"address","internalType":"address"}]},{"type":"error","name":"TokenMaxCapacityExceeded","inputs":[{"name":"capacity","type":"uint256","internalType":"uint256"},{"name":"requested","type":"uint256","internalType":"uint256"},{"name":"tokenAddress","type":"address","internalType":"address"}]},{"type":"error","name":"TokenRateLimitReached","inputs":[{"name":"minWaitInSeconds","type":"uint256","internalType":"uint256"},{"name":"available","type":"uint256","internalType":"uint256"},{"name":"tokenAddress","type":"address","internalType":"address"}]},{"type":"error","name":"ZeroAddressNotAllowed","inputs":[]}],"bytecode":{"object":"0x60c06040523480156200001157600080fd5b5060405162005a6738038062005a67833981810160405281019062000037919062000b2e565b83838383338060008073ffffffffffffffffffffffffffffffffffffffff168273ffffffffffffffffffffffffffffffffffffffff1603620000b0576040517f08c379a0000000000000000000000000000000000000000000000000000000008152600401620000a79062000c3f565b60405180910390fd5b816000806101000a81548173ffffffffffffffffffffffffffffffffffffffff021916908373ffffffffffffffffffffffffffffffffffffffff160217905550600073ffffffffffffffffffffffffffffffffffffffff168173ffffffffffffffffffffffffffffffffffffffff1614620001375762000136816200032460201b60201c565b5b505050600073ffffffffffffffffffffffffffffffffffffffff168173ffffffffffffffffffffffffffffffffffffffff161480620001a25750600073ffffffffffffffffffffffffffffffffffffffff168273ffffffffffffffffffffffffffffffffffffffff16145b15620001da576040517f8579befe00000000000000000000000000000000000000000000000000000000815260040160405180910390fd5b60005b845181101562000227576200021a85828151811062000201576200020062000c61565b5b602002602001015160026200045360201b90919060201c565b50806001019050620001dd565b508173ffffffffffffffffffffffffffffffffffffffff1660808173ffffffffffffffffffffffffffffffffffffffff168152505080600660006101000a81548173ffffffffffffffffffffffffffffffffffffffff021916908373ffffffffffffffffffffffffffffffffffffffff1602179055506000835111151560a08115158152505060a05115620003165762000315600067ffffffffffffffff811115620002d857620002d76200084f565b5b604051908082528060200260200182016040528015620003075781602001602082028036833780820191505090505b50846200048b60201b60201c565b5b505050505050505062000dd3565b3373ffffffffffffffffffffffffffffffffffffffff168173ffffffffffffffffffffffffffffffffffffffff160362000395576040517f08c379a00000000000000000000000000000000000000000000000000000000081526004016200038c9062000ce0565b60405180910390fd5b80600160006101000a81548173ffffffffffffffffffffffffffffffffffffffff021916908373ffffffffffffffffffffffffffffffffffffffff1602179055508073ffffffffffffffffffffffffffffffffffffffff1660008054906101000a900473ffffffffffffffffffffffffffffffffffffffff1673ffffffffffffffffffffffffffffffffffffffff167fed8889f560326eb138920d842192f0eb3dd22b4f139c87a2c57538e05bae127860405160405180910390a350565b600062000483836000018373ffffffffffffffffffffffffffffffffffffffff1660001b6200062c60201b60201c565b905092915050565b60a051620004c5576040517f35f4a7b300000000000000000000000000000000000000000000000000000000815260040160405180910390fd5b60005b825181101562000557576000838281518110620004ea57620004e962000c61565b5b602002602001015190506200050a816004620006a660201b90919060201c565b156200054a577f800671136ab6cfee9fbe5ed1fb7ca417811aca3cf864800d127b927adedf75668160405162000541919062000d13565b60405180910390a15b50806001019050620004c8565b5060005b8151811015620006275760008282815181106200057d576200057c62000c61565b5b60200260200101519050600073ffffffffffffffffffffffffffffffffffffffff168173ffffffffffffffffffffffffffffffffffffffff1603620005c357506200061b565b620005d98160046200045360201b90919060201c565b1562000619577f2640d4d76caf8bf478aabfa982fa4e1c4eb71a37f93cd15e80dbc657911546d88160405162000610919062000d13565b60405180910390a15b505b8060010190506200055b565b505050565b6000620006408383620006de60201b60201c565b6200069b578260000182908060018154018082558091505060019003906000526020600020016000909190919091505582600001805490508360010160008481526020019081526020016000208190555060019050620006a0565b600090505b92915050565b6000620006d6836000018373ffffffffffffffffffffffffffffffffffffffff1660001b6200070160201b60201c565b905092915050565b600080836001016000848152602001908152602001600020541415905092915050565b600080836001016000848152602001908152602001600020549050600081146200081957600060018262000736919062000d69565b905060006001866000018054905062000750919062000d69565b9050818114620007c657600086600001828154811062000775576200077462000c61565b5b90600052602060002001549050808760000184815481106200079c576200079b62000c61565b5b90600052602060002001819055508387600101600083815260200190815260200160002081905550505b85600001805480620007dd57620007dc62000da4565b5b6001900381819060005260206000200160009055905585600101600086815260200190815260200160002060009055600193505050506200081f565b60009150505b92915050565b6000604051905090565b600080fd5b600080fd5b600080fd5b6000601f19601f8301169050919050565b7f4e487b7100000000000000000000000000000000000000000000000000000000600052604160045260246000fd5b62000889826200083e565b810181811067ffffffffffffffff82111715620008ab57620008aa6200084f565b5b80604052505050565b6000620008c062000825565b9050620008ce82826200087e565b919050565b600067ffffffffffffffff821115620008f157620008f06200084f565b5b602082029050602081019050919050565b600080fd5b600073ffffffffffffffffffffffffffffffffffffffff82169050919050565b6000620009348262000907565b9050919050565b6000620009488262000927565b9050919050565b6200095a816200093b565b81146200096657600080fd5b50565b6000815190506200097a816200094f565b92915050565b6000620009976200099184620008d3565b620008b4565b90508083825260208201905060208402830185811115620009bd57620009bc62000902565b5b835b81811015620009ea5780620009d5888262000969565b845260208401935050602081019050620009bf565b5050509392505050565b600082601f83011262000a0c5762000a0b62000839565b5b815162000a1e84826020860162000980565b91505092915050565b600067ffffffffffffffff82111562000a455762000a446200084f565b5b602082029050602081019050919050565b62000a618162000927565b811462000a6d57600080fd5b50565b60008151905062000a818162000a56565b92915050565b600062000a9e62000a988462000a27565b620008b4565b9050808382526020820190506020840283018581111562000ac45762000ac362000902565b5b835b8181101562000af1578062000adc888262000a70565b84526020840193505060208101905062000ac6565b5050509392505050565b600082601f83011262000b135762000b1262000839565b5b815162000b2584826020860162000a87565b91505092915050565b6000806000806080858703121562000b4b5762000b4a6200082f565b5b600085015167ffffffffffffffff81111562000b6c5762000b6b62000834565b5b62000b7a87828801620009f4565b945050602085015167ffffffffffffffff81111562000b9e5762000b9d62000834565b5b62000bac8782880162000afb565b935050604062000bbf8782880162000a70565b925050606062000bd28782880162000a70565b91505092959194509250565b600082825260208201905092915050565b7f43616e6e6f7420736574206f776e657220746f207a65726f0000000000000000600082015250565b600062000c2760188362000bde565b915062000c348262000bef565b602082019050919050565b6000602082019050818103600083015262000c5a8162000c18565b9050919050565b7f4e487b7100000000000000000000000000000000000000000000000000000000600052603260045260246000fd5b7f43616e6e6f74207472616e7366657220746f2073656c66000000000000000000600082015250565b600062000cc860178362000bde565b915062000cd58262000c90565b602082019050919050565b6000602082019050818103600083015262000cfb8162000cb9565b9050919050565b62000d0d8162000927565b82525050565b600060208201905062000d2a600083018462000d02565b92915050565b6000819050919050565b7f4e487b7100000000000000000000000000000000000000000000000000000000600052601160045260246000fd5b600062000d768262000d30565b915062000d838362000d30565b925082820390508181111562000d9e5762000d9d62000d3a565b5b92915050565b7f4e487b7100000000000000000000000000000000000000000000000000000000600052603160045260246000fd5b60805160a051614c5262000e1560003960008181611ce2015281816120700152612aa8015260008181611cba01528181611ee801526124160152614c526000f3fe608060405234801561001057600080fd5b50600436106101425760003560e01c80639bc53a20116100b8578063c0d786551161007c578063c0d786551461039d578063c4b7e200146103b9578063c4bffe2b146103e9578063dc0bd97114610407578063e0351e1314610425578063f2fde38b1461044357610142565b80639bc53a20146102e35780639bdfc53514610313578063a7cd63b714610343578063aa6ca80814610361578063b0f479a11461037f57610142565b806354c8a4f31161010a57806354c8a4f31461022357806379ba50971461023f57806384eb3120146102495780638926f54f146102655780638da5cb5b146102955780639a4575b9146102b357610142565b806301ffc9a71461014757806312775e0e1461017757806313f77d80146101a7578063240028e8146101c357806339077537146101f3575b600080fd5b610161600480360381019061015c91906132df565b61045f565b60405161016e9190613327565b60405180910390f35b610191600480360381019061018c91906133e0565b610580565b60405161019e91906134e1565b60405180910390f35b6101c160048036038101906101bc9190613561565b610729565b005b6101dd60048036038101906101d891906135d5565b610933565b6040516101ea9190613327565b60405180910390f35b61020d60048036038101906102089190613627565b610950565b60405161021a91906136a5565b60405180910390f35b61023d60048036038101906102389190613716565b610a82565b005b610247610b1c565b005b610263600480360381019061025e91906137ed565b610cb1565b005b61027f600480360381019061027a919061384d565b61148e565b60405161028c9190613327565b60405180910390f35b61029d6114b5565b6040516102aa9190613889565b60405180910390f35b6102cd60048036038101906102c891906138c3565b6114de565b6040516102da91906139e0565b60405180910390f35b6102fd60048036038101906102f891906133e0565b611623565b60405161030a9190613a4c565b60405180910390f35b61032d600480360381019061032891906133e0565b61171d565b60405161033a91906134e1565b60405180910390f35b61034b6118c6565b6040516103589190613b2c565b60405180910390f35b6103696118d7565b6040516103769190613c4b565b60405180910390f35b6103876119b1565b6040516103949190613889565b60405180910390f35b6103b760048036038101906103b291906135d5565b6119db565b005b6103d360048036038101906103ce91906133e0565b611aee565b6040516103e09190613a4c565b60405180910390f35b6103f1611be8565b6040516103fe9190613d2b565b60405180910390f35b61040f611cb6565b60405161041c9190613889565b60405180910390f35b61042d611cde565b60405161043a9190613327565b60405180910390f35b61045d600480360381019061045891906135d5565b611d06565b005b600063aff2afbf60e01b7bffffffffffffffffffffffffffffffffffffffffffffffffffffffff1916827bffffffffffffffffffffffffffffffffffffffffffffffffffffffff1916148061051157507f0e64dd29000000000000000000000000000000000000000000000000000000007bffffffffffffffffffffffffffffffffffffffffffffffffffffffff1916827bffffffffffffffffffffffffffffffffffffffffffffffffffffffff1916145b8061057957507f01ffc9a7000000000000000000000000000000000000000000000000000000007bffffffffffffffffffffffffffffffffffffffffffffffffffffffff1916827bffffffffffffffffffffffffffffffffffffffffffffffffffffffff1916145b9050919050565b61058861317c565b610721600960008573ffffffffffffffffffffffffffffffffffffffff1673ffffffffffffffffffffffffffffffffffffffff16815260200190815260200160002060008467ffffffffffffffff1667ffffffffffffffff1681526020019081526020016000206000016040518060a00160405290816000820160009054906101000a90046fffffffffffffffffffffffffffffffff166fffffffffffffffffffffffffffffffff166fffffffffffffffffffffffffffffffff1681526020016000820160109054906101000a900463ffffffff1663ffffffff1663ffffffff1681526020016000820160149054906101000a900460ff161515151581526020016001820160009054906101000a90046fffffffffffffffffffffffffffffffff166fffffffffffffffffffffffffffffffff166fffffffffffffffffffffffffffffffff1681526020016001820160109054906101000a90046fffffffffffffffffffffffffffffffff166fffffffffffffffffffffffffffffffff166fffffffffffffffffffffffffffffffff1681525050611d1a565b905092915050565b610731611dd4565b61073a8361148e565b61077b57826040517f1e670e4b0000000000000000000000000000000000000000000000000000000081526004016107729190613d5c565b60405180910390fd5b6000600960008673ffffffffffffffffffffffffffffffffffffffff1673ffffffffffffffffffffffffffffffffffffffff16815260200190815260200160002060008567ffffffffffffffff1667ffffffffffffffff16815260200190815260200160002060040180546107ef90613da6565b80601f016020809104026020016040519081016040528092919081815260200182805461081b90613da6565b80156108685780601f1061083d57610100808354040283529160200191610868565b820191906000526020600020905b81548152906001019060200180831161084b57829003601f168201915b505050505090508282600960008873ffffffffffffffffffffffffffffffffffffffff1673ffffffffffffffffffffffffffffffffffffffff16815260200190815260200160002060008767ffffffffffffffff1667ffffffffffffffff16815260200190815260200160002060040191826108e5929190613fb3565b508367ffffffffffffffff167fdb4d6220746a38cbc5335f7e108f7de80f482f4d23350253dfd0917df75a14bf828585604051610924939291906140bf565b60405180910390a25050505050565b6000610949826002611e6490919063ffffffff16565b9050919050565b6109586131e9565b61096a826109659061435a565b611e94565b81608001602081019061097d91906135d5565b73ffffffffffffffffffffffffffffffffffffffff166340c10f193384606001356040518363ffffffff1660e01b81526004016109bb92919061437c565b600060405180830381600087803b1580156109d557600080fd5b505af11580156109e9573d6000803e3d6000fd5b50505050816040016020810190610a0091906135d5565b73ffffffffffffffffffffffffffffffffffffffff163373ffffffffffffffffffffffffffffffffffffffff167f9d228d69b5fdb8d273a2336f8fb8612d039631024ea9bf09c424a9503aa078f08460600135604051610a6091906143a5565b60405180910390a3604051806020016040528083606001358152509050919050565b610a8a611dd4565b610b16848480806020026020016040519081016040528093929190818152602001838360200280828437600081840152601f19601f82011690508083019250505050505050838380806020026020016040519081016040528093929190818152602001838360200280828437600081840152601f19601f8201169050808301925050505050505061206e565b50505050565b600160009054906101000a900473ffffffffffffffffffffffffffffffffffffffff1673ffffffffffffffffffffffffffffffffffffffff163373ffffffffffffffffffffffffffffffffffffffff1614610bac576040517f08c379a0000000000000000000000000000000000000000000000000000000008152600401610ba39061441d565b60405180910390fd5b60008060009054906101000a900473ffffffffffffffffffffffffffffffffffffffff169050336000806101000a81548173ffffffffffffffffffffffffffffffffffffffff021916908373ffffffffffffffffffffffffffffffffffffffff1602179055506000600160006101000a81548173ffffffffffffffffffffffffffffffffffffffff021916908373ffffffffffffffffffffffffffffffffffffffff1602179055503373ffffffffffffffffffffffffffffffffffffffff168173ffffffffffffffffffffffffffffffffffffffff167f8be0079c531659141344cd1fd0a4f28419497f9722a3daafe3b4186f6b6457e060405160405180910390a350565b610cb9611dd4565b60005b82829050811015611488576000838383818110610cdc57610cdb61443d565b5b9050602002810190610cee9190614471565b610cf79061462f565b9050610d0c8160800151826020015115612216565b610d1f8160a00151826020015115612216565b80602001511561121857610d4b816000015167ffffffffffffffff16600761237490919063ffffffff16565b610d905780600001516040517f1d5ad3c5000000000000000000000000000000000000000000000000000000008152600401610d879190613d5c565b60405180910390fd5b60008160400151511480610da957506000816060015151145b15610de0576040517f8579befe00000000000000000000000000000000000000000000000000000000815260040160405180910390fd5b60405180608001604052806040518060a001604052808460800151602001516fffffffffffffffffffffffffffffffff1681526020014263ffffffff168152602001846080015160000151151581526020018460800151602001516fffffffffffffffffffffffffffffffff1681526020018460800151604001516fffffffffffffffffffffffffffffffff1681525081526020016040518060a001604052808460a00151602001516fffffffffffffffffffffffffffffffff1681526020014263ffffffff1681526020018460a0015160000151151581526020018460a00151602001516fffffffffffffffffffffffffffffffff1681526020018460a00151604001516fffffffffffffffffffffffffffffffff168152508152602001826040015181526020018260600151815250600960008773ffffffffffffffffffffffffffffffffffffffff1673ffffffffffffffffffffffffffffffffffffffff1681526020019081526020016000206000836000015167ffffffffffffffff1667ffffffffffffffff16815260200190815260200160002060008201518160000160008201518160000160006101000a8154816fffffffffffffffffffffffffffffffff02191690836fffffffffffffffffffffffffffffffff16021790555060208201518160000160106101000a81548163ffffffff021916908363ffffffff16021790555060408201518160000160146101000a81548160ff02191690831515021790555060608201518160010160006101000a8154816fffffffffffffffffffffffffffffffff02191690836fffffffffffffffffffffffffffffffff16021790555060808201518160010160106101000a8154816fffffffffffffffffffffffffffffffff02191690836fffffffffffffffffffffffffffffffff160217905550505060208201518160020160008201518160000160006101000a8154816fffffffffffffffffffffffffffffffff02191690836fffffffffffffffffffffffffffffffff16021790555060208201518160000160106101000a81548163ffffffff021916908363ffffffff16021790555060408201518160000160146101000a81548160ff02191690831515021790555060608201518160010160006101000a8154816fffffffffffffffffffffffffffffffff02191690836fffffffffffffffffffffffffffffffff16021790555060808201518160010160106101000a8154816fffffffffffffffffffffffffffffffff02191690836fffffffffffffffffffffffffffffffff160217905550505060408201518160040190816111ac9190614642565b5060608201518160050190816111c29190614642565b509050507f8d340f17e19058004c20453540862a9c62778504476f6756755cb33bcd6c38c28160000151826060015183608001518460a0015160405161120b9493929190614756565b60405180910390a161147c565b61123a816000015167ffffffffffffffff16600761238e90919063ffffffff16565b61127f5780600001516040517f1e670e4b0000000000000000000000000000000000000000000000000000000081526004016112769190613d5c565b60405180910390fd5b600960008673ffffffffffffffffffffffffffffffffffffffff1673ffffffffffffffffffffffffffffffffffffffff1681526020019081526020016000206000826000015167ffffffffffffffff1667ffffffffffffffff1681526020019081526020016000206000808201600080820160006101000a8154906fffffffffffffffffffffffffffffffff02191690556000820160106101000a81549063ffffffff02191690556000820160146101000a81549060ff02191690556001820160006101000a8154906fffffffffffffffffffffffffffffffff02191690556001820160106101000a8154906fffffffffffffffffffffffffffffffff0219169055505060028201600080820160006101000a8154906fffffffffffffffffffffffffffffffff02191690556000820160106101000a81549063ffffffff02191690556000820160146101000a81549060ff02191690556001820160006101000a8154906fffffffffffffffffffffffffffffffff02191690556001820160106101000a8154906fffffffffffffffffffffffffffffffff0219169055505060048201600061142e91906131fc565b60058201600061143e91906131fc565b50507f5204aec90a3c794d8e90fded8b46ae9c7c552803e7e832e0c1d358396d85991681600001516040516114739190613d5c565b60405180910390a15b50806001019050610cbc565b50505050565b60006114ae8267ffffffffffffffff1660076123a890919063ffffffff16565b9050919050565b60008060009054906101000a900473ffffffffffffffffffffffffffffffffffffffff16905090565b6114e661323c565b6114f8826114f39061484b565b6123c2565b81608001602081019061150b91906135d5565b73ffffffffffffffffffffffffffffffffffffffff166342966c6883606001356040518263ffffffff1660e01b815260040161154791906143a5565b600060405180830381600087803b15801561156157600080fd5b505af1158015611575573d6000803e3d6000fd5b505050503373ffffffffffffffffffffffffffffffffffffffff167f696de425f79f4a40bc6d2122ca50507f0efbeabbff86a84871b7196ab8ea8df783606001356040516115c391906143a5565b60405180910390a260405180604001604052806116048460800160208101906115ec91906135d5565b8560200160208101906115ff919061384d565b611623565b8152602001604051806020016040528060008152508152509050919050565b6060600960008473ffffffffffffffffffffffffffffffffffffffff1673ffffffffffffffffffffffffffffffffffffffff16815260200190815260200160002060008367ffffffffffffffff1667ffffffffffffffff168152602001908152602001600020600501805461169790613da6565b80601f01602080910402602001604051908101604052809291908181526020018280546116c390613da6565b80156117105780601f106116e557610100808354040283529160200191611710565b820191906000526020600020905b8154815290600101906020018083116116f357829003601f168201915b5050505050905092915050565b61172561317c565b6118be600960008573ffffffffffffffffffffffffffffffffffffffff1673ffffffffffffffffffffffffffffffffffffffff16815260200190815260200160002060008467ffffffffffffffff1667ffffffffffffffff1681526020019081526020016000206002016040518060a00160405290816000820160009054906101000a90046fffffffffffffffffffffffffffffffff166fffffffffffffffffffffffffffffffff166fffffffffffffffffffffffffffffffff1681526020016000820160109054906101000a900463ffffffff1663ffffffff1663ffffffff1681526020016000820160149054906101000a900460ff161515151581526020016001820160009054906101000a90046fffffffffffffffffffffffffffffffff166fffffffffffffffffffffffffffffffff166fffffffffffffffffffffffffffffffff1681526020016001820160109054906101000a90046fffffffffffffffffffffffffffffffff166fffffffffffffffffffffffffffffffff166fffffffffffffffffffffffffffffffff1681525050611d1a565b905092915050565b60606118d2600461252a565b905090565b60606118e3600261254b565b67ffffffffffffffff8111156118fc576118fb613de2565b5b60405190808252806020026020018201604052801561192a5781602001602082028036833780820191505090505b50905060005b61193a600261254b565b8110156119ad5761195581600261256090919063ffffffff16565b8282815181106119685761196761443d565b5b602002602001019073ffffffffffffffffffffffffffffffffffffffff16908173ffffffffffffffffffffffffffffffffffffffff1681525050806001019050611930565b5090565b6000600660009054906101000a900473ffffffffffffffffffffffffffffffffffffffff16905090565b6119e3611dd4565b600073ffffffffffffffffffffffffffffffffffffffff168173ffffffffffffffffffffffffffffffffffffffff1603611a49576040517f8579befe00000000000000000000000000000000000000000000000000000000815260040160405180910390fd5b6000600660009054906101000a900473ffffffffffffffffffffffffffffffffffffffff16905081600660006101000a81548173ffffffffffffffffffffffffffffffffffffffff021916908373ffffffffffffffffffffffffffffffffffffffff1602179055507f02dc5c233404867c793b749c6d644beb2277536d18a7e7974d3f238e4c6f16848183604051611ae292919061485e565b60405180910390a15050565b6060600960008473ffffffffffffffffffffffffffffffffffffffff1673ffffffffffffffffffffffffffffffffffffffff16815260200190815260200160002060008367ffffffffffffffff1667ffffffffffffffff1681526020019081526020016000206004018054611b6290613da6565b80601f0160208091040260200160405190810160405280929190818152602001828054611b8e90613da6565b8015611bdb5780601f10611bb057610100808354040283529160200191611bdb565b820191906000526020600020905b815481529060010190602001808311611bbe57829003601f168201915b5050505050905092915050565b60606000611bf6600761257a565b90506000815167ffffffffffffffff811115611c1557611c14613de2565b5b604051908082528060200260200182016040528015611c435781602001602082028036833780820191505090505b50905060005b8251811015611cad57828181518110611c6557611c6461443d565b5b6020026020010151828281518110611c8057611c7f61443d565b5b602002602001019067ffffffffffffffff16908167ffffffffffffffff1681525050806001019050611c49565b50809250505090565b60007f0000000000000000000000000000000000000000000000000000000000000000905090565b60007f0000000000000000000000000000000000000000000000000000000000000000905090565b611d0e611dd4565b611d178161259b565b50565b611d2261317c565b611d8582606001516fffffffffffffffffffffffffffffffff1683600001516fffffffffffffffffffffffffffffffff16846020015163ffffffff1642611d6991906148b6565b85608001516fffffffffffffffffffffffffffffffff166126c7565b82600001906fffffffffffffffffffffffffffffffff1690816fffffffffffffffffffffffffffffffff168152505042826020019063ffffffff16908163ffffffff1681525050819050919050565b60008054906101000a900473ffffffffffffffffffffffffffffffffffffffff1673ffffffffffffffffffffffffffffffffffffffff163373ffffffffffffffffffffffffffffffffffffffff1614611e62576040517f08c379a0000000000000000000000000000000000000000000000000000000008152600401611e5990614936565b60405180910390fd5b565b6000611e8c836000018373ffffffffffffffffffffffffffffffffffffffff1660001b6126f3565b905092915050565b611ea18160800151610933565b611ee65780608001516040517f961c9a4f000000000000000000000000000000000000000000000000000000008152600401611edd9190613889565b60405180910390fd5b7f000000000000000000000000000000000000000000000000000000000000000073ffffffffffffffffffffffffffffffffffffffff16632cbc26bb826020015167ffffffffffffffff1660801b6040518263ffffffff1660e01b8152600401611f509190614991565b602060405180830381865afa158015611f6d573d6000803e3d6000fd5b505050506040513d601f19601f82011682018060405250810190611f9191906149c1565b15611fc8576040517f53ad11d800000000000000000000000000000000000000000000000000000000815260040160405180910390fd5b611fd58160200151612716565b6000611fe982608001518360200151611aee565b905060008151148061200d575080805190602001208260a001518051906020012014155b15612053578160a001516040517f24eb47e500000000000000000000000000000000000000000000000000000000815260040161204a9190613a4c565b60405180910390fd5b61206a826080015183602001518460600151612842565b5050565b7f00000000000000000000000000000000000000000000000000000000000000006120c5576040517f35f4a7b300000000000000000000000000000000000000000000000000000000815260040160405180910390fd5b60005b825181101561214d5760008382815181106120e6576120e561443d565b5b602002602001015190506121048160046128c290919063ffffffff16565b15612141577f800671136ab6cfee9fbe5ed1fb7ca417811aca3cf864800d127b927adedf7566816040516121389190613889565b60405180910390a15b508060010190506120c8565b5060005b815181101561221157600082828151811061216f5761216e61443d565b5b60200260200101519050600073ffffffffffffffffffffffffffffffffffffffff168173ffffffffffffffffffffffffffffffffffffffff16036121b35750612206565b6121c78160046128f290919063ffffffff16565b15612204577f2640d4d76caf8bf478aabfa982fa4e1c4eb71a37f93cd15e80dbc657911546d8816040516121fb9190613889565b60405180910390a15b505b806001019050612151565b505050565b8160000151156122f05781602001516fffffffffffffffffffffffffffffffff1682604001516fffffffffffffffffffffffffffffffff161015806122715750600082604001516fffffffffffffffffffffffffffffffff16145b156122b357816040517f8020d1240000000000000000000000000000000000000000000000000000000081526004016122aa91906149ee565b60405180910390fd5b80156122eb576040517f433fc33d00000000000000000000000000000000000000000000000000000000815260040160405180910390fd5b612370565b600082604001516fffffffffffffffffffffffffffffffff1614158061232d5750600082602001516fffffffffffffffffffffffffffffffff1614155b1561236f57816040517fd68af9cc00000000000000000000000000000000000000000000000000000000815260040161236691906149ee565b60405180910390fd5b5b5050565b6000612386836000018360001b612922565b905092915050565b60006123a0836000018360001b612992565b905092915050565b60006123ba836000018360001b6126f3565b905092915050565b6123cf8160800151610933565b6124145780608001516040517f961c9a4f00000000000000000000000000000000000000000000000000000000815260040161240b9190613889565b60405180910390fd5b7f000000000000000000000000000000000000000000000000000000000000000073ffffffffffffffffffffffffffffffffffffffff16632cbc26bb826020015167ffffffffffffffff1660801b6040518263ffffffff1660e01b815260040161247e9190614991565b602060405180830381865afa15801561249b573d6000803e3d6000fd5b505050506040513d601f19601f820116820180604052508101906124bf91906149c1565b156124f6576040517f53ad11d800000000000000000000000000000000000000000000000000000000815260040160405180910390fd5b6125038160400151612aa6565b6125108160200151612b29565b612527816080015182602001518360600151612c81565b50565b6060600061253a83600001612d01565b905060608190508092505050919050565b600061255982600001612d5d565b9050919050565b600061256f8360000183612d6e565b60001c905092915050565b6060600061258a83600001612d01565b905060608190508092505050919050565b3373ffffffffffffffffffffffffffffffffffffffff168173ffffffffffffffffffffffffffffffffffffffff1603612609576040517f08c379a000000000000000000000000000000000000000000000000000000000815260040161260090614a55565b60405180910390fd5b80600160006101000a81548173ffffffffffffffffffffffffffffffffffffffff021916908373ffffffffffffffffffffffffffffffffffffffff1602179055508073ffffffffffffffffffffffffffffffffffffffff1660008054906101000a900473ffffffffffffffffffffffffffffffffffffffff1673ffffffffffffffffffffffffffffffffffffffff167fed8889f560326eb138920d842192f0eb3dd22b4f139c87a2c57538e05bae127860405160405180910390a350565b60006126e98583856126d99190614a75565b866126e49190614ab7565b612d99565b9050949350505050565b600080836001016000848152602001908152602001600020541415905092915050565b61271f8161148e565b61276057806040517fa9902c7e0000000000000000000000000000000000000000000000000000000081526004016127579190613d5c565b60405180910390fd5b600660009054906101000a900473ffffffffffffffffffffffffffffffffffffffff1673ffffffffffffffffffffffffffffffffffffffff166383826b2b82336040518363ffffffff1660e01b81526004016127bd929190614aeb565b602060405180830381865afa1580156127da573d6000803e3d6000fd5b505050506040513d601f19601f820116820180604052508101906127fe91906149c1565b61283f57336040517f728fe07b0000000000000000000000000000000000000000000000000000000081526004016128369190613889565b60405180910390fd5b50565b6128bd8184600960008773ffffffffffffffffffffffffffffffffffffffff1673ffffffffffffffffffffffffffffffffffffffff16815260200190815260200160002060008667ffffffffffffffff1667ffffffffffffffff168152602001908152602001600020600201612db29092919063ffffffff16565b505050565b60006128ea836000018373ffffffffffffffffffffffffffffffffffffffff1660001b612992565b905092915050565b600061291a836000018373ffffffffffffffffffffffffffffffffffffffff1660001b612922565b905092915050565b600061292e83836126f3565b61298757826000018290806001815401808255809150506001900390600052602060002001600090919091909150558260000180549050836001016000848152602001908152602001600020819055506001905061298c565b600090505b92915050565b60008083600101600084815260200190815260200160002054905060008114612a9a5760006001826129c491906148b6565b90506000600186600001805490506129dc91906148b6565b9050818114612a4b5760008660000182815481106129fd576129fc61443d565b5b9060005260206000200154905080876000018481548110612a2157612a2061443d565b5b90600052602060002001819055508387600101600083815260200190815260200160002081905550505b85600001805480612a5f57612a5e614b14565b5b600190038181906000526020600020016000905590558560010160008681526020019081526020016000206000905560019350505050612aa0565b60009150505b92915050565b7f00000000000000000000000000000000000000000000000000000000000000008015612ae45750612ae2816004611e6490919063ffffffff16565b155b15612b2657806040517fd0d25976000000000000000000000000000000000000000000000000000000008152600401612b1d9190613889565b60405180910390fd5b50565b612b328161148e565b612b7357806040517fa9902c7e000000000000000000000000000000000000000000000000000000008152600401612b6a9190613d5c565b60405180910390fd5b600660009054906101000a900473ffffffffffffffffffffffffffffffffffffffff1673ffffffffffffffffffffffffffffffffffffffff1663a8d87a3b826040518263ffffffff1660e01b8152600401612bce9190613d5c565b602060405180830381865afa158015612beb573d6000803e3d6000fd5b505050506040513d601f19601f82011682018060405250810190612c0f9190614b58565b73ffffffffffffffffffffffffffffffffffffffff163373ffffffffffffffffffffffffffffffffffffffff1614612c7e57336040517f728fe07b000000000000000000000000000000000000000000000000000000008152600401612c759190613889565b60405180910390fd5b50565b612cfc8184600960008773ffffffffffffffffffffffffffffffffffffffff1673ffffffffffffffffffffffffffffffffffffffff16815260200190815260200160002060008667ffffffffffffffff1667ffffffffffffffff168152602001908152602001600020600001612db29092919063ffffffff16565b505050565b606081600001805480602002602001604051908101604052809291908181526020018280548015612d5157602002820191906000526020600020905b815481526020019060010190808311612d3d575b50505050509050919050565b600081600001805490509050919050565b6000826000018281548110612d8657612d8561443d565b5b9060005260206000200154905092915050565b6000818310612da85781612daa565b825b905092915050565b8260000160149054906101000a900460ff161580612dd05750600082145b6131775760008360000160009054906101000a90046fffffffffffffffffffffffffffffffff166fffffffffffffffffffffffffffffffff16905060008460010160009054906101000a90046fffffffffffffffffffffffffffffffff166fffffffffffffffffffffffffffffffff16905060008560000160109054906101000a900463ffffffff1663ffffffff1642612e6a91906148b6565b905060008114612f125781831115612eae576040517f9725942a00000000000000000000000000000000000000000000000000000000815260040160405180910390fd5b612eec8284838960010160109054906101000a90046fffffffffffffffffffffffffffffffff166fffffffffffffffffffffffffffffffff166126c7565b9250428660000160106101000a81548163ffffffff021916908363ffffffff1602179055505b84821015612fce57600073ffffffffffffffffffffffffffffffffffffffff168473ffffffffffffffffffffffffffffffffffffffff1603612f8d5781856040517ff94ebcd1000000000000000000000000000000000000000000000000000000008152600401612f84929190614b85565b60405180910390fd5b8185856040517f1a76572a000000000000000000000000000000000000000000000000000000008152600401612fc593929190614bae565b60405180910390fd5b848310156130f35760008660010160109054906101000a90046fffffffffffffffffffffffffffffffff166fffffffffffffffffffffffffffffffff16905060008160018361301d91906148b6565b868961302991906148b6565b6130339190614ab7565b61303d9190614c14565b9050600073ffffffffffffffffffffffffffffffffffffffff168673ffffffffffffffffffffffffffffffffffffffff16036130b25780856040517f15279c080000000000000000000000000000000000000000000000000000000081526004016130a9929190614b85565b60405180910390fd5b8085876040517fd0c8d23a0000000000000000000000000000000000000000000000000000000081526004016130ea93929190614bae565b60405180910390fd5b84836130ff91906148b6565b9250828660000160006101000a8154816fffffffffffffffffffffffffffffffff02191690836fffffffffffffffffffffffffffffffff1602179055507f1871cdf8010e63f2eb8384381a68dfa7416dc571a5517e66e88b2d2d0c0a690a8560405161316b91906143a5565b60405180910390a15050505b505050565b6040518060a0016040528060006fffffffffffffffffffffffffffffffff168152602001600063ffffffff16815260200160001515815260200160006fffffffffffffffffffffffffffffffff16815260200160006fffffffffffffffffffffffffffffffff1681525090565b6040518060200160405280600081525090565b50805461320890613da6565b6000825580601f1061321a5750613239565b601f0160209004906000526020600020908101906132389190613256565b5b50565b604051806040016040528060608152602001606081525090565b5b8082111561326f576000816000905550600101613257565b5090565b6000604051905090565b600080fd5b600080fd5b60007fffffffff0000000000000000000000000000000000000000000000000000000082169050919050565b6132bc81613287565b81146132c757600080fd5b50565b6000813590506132d9816132b3565b92915050565b6000602082840312156132f5576132f461327d565b5b6000613303848285016132ca565b91505092915050565b60008115159050919050565b6133218161330c565b82525050565b600060208201905061333c6000830184613318565b92915050565b600073ffffffffffffffffffffffffffffffffffffffff82169050919050565b600061336d82613342565b9050919050565b61337d81613362565b811461338857600080fd5b50565b60008135905061339a81613374565b92915050565b600067ffffffffffffffff82169050919050565b6133bd816133a0565b81146133c857600080fd5b50565b6000813590506133da816133b4565b92915050565b600080604083850312156133f7576133f661327d565b5b60006134058582860161338b565b9250506020613416858286016133cb565b9150509250929050565b60006fffffffffffffffffffffffffffffffff82169050919050565b61344581613420565b82525050565b600063ffffffff82169050919050565b6134648161344b565b82525050565b6134738161330c565b82525050565b60a08201600082015161348f600085018261343c565b5060208201516134a2602085018261345b565b5060408201516134b5604085018261346a565b5060608201516134c8606085018261343c565b5060808201516134db608085018261343c565b50505050565b600060a0820190506134f66000830184613479565b92915050565b600080fd5b600080fd5b600080fd5b60008083601f840112613521576135206134fc565b5b8235905067ffffffffffffffff81111561353e5761353d613501565b5b60208301915083600182028301111561355a57613559613506565b5b9250929050565b6000806000806060858703121561357b5761357a61327d565b5b60006135898782880161338b565b945050602061359a878288016133cb565b935050604085013567ffffffffffffffff8111156135bb576135ba613282565b5b6135c78782880161350b565b925092505092959194509250565b6000602082840312156135eb576135ea61327d565b5b60006135f98482850161338b565b91505092915050565b600080fd5b6000610100828403121561361e5761361d613602565b5b81905092915050565b60006020828403121561363d5761363c61327d565b5b600082013567ffffffffffffffff81111561365b5761365a613282565b5b61366784828501613607565b91505092915050565b6000819050919050565b61368381613670565b82525050565b60208201600082015161369f600085018261367a565b50505050565b60006020820190506136ba6000830184613689565b92915050565b60008083601f8401126136d6576136d56134fc565b5b8235905067ffffffffffffffff8111156136f3576136f2613501565b5b60208301915083602082028301111561370f5761370e613506565b5b9250929050565b600080600080604085870312156137305761372f61327d565b5b600085013567ffffffffffffffff81111561374e5761374d613282565b5b61375a878288016136c0565b9450945050602085013567ffffffffffffffff81111561377d5761377c613282565b5b613789878288016136c0565b925092505092959194509250565b60008083601f8401126137ad576137ac6134fc565b5b8235905067ffffffffffffffff8111156137ca576137c9613501565b5b6020830191508360208202830111156137e6576137e5613506565b5b9250929050565b6000806000604084860312156138065761380561327d565b5b60006138148682870161338b565b935050602084013567ffffffffffffffff81111561383557613834613282565b5b61384186828701613797565b92509250509250925092565b6000602082840312156138635761386261327d565b5b6000613871848285016133cb565b91505092915050565b61388381613362565b82525050565b600060208201905061389e600083018461387a565b92915050565b600060a082840312156138ba576138b9613602565b5b81905092915050565b6000602082840312156138d9576138d861327d565b5b600082013567ffffffffffffffff8111156138f7576138f6613282565b5b613903848285016138a4565b91505092915050565b600081519050919050565b600082825260208201905092915050565b60005b8381101561394657808201518184015260208101905061392b565b60008484015250505050565b6000601f19601f8301169050919050565b600061396e8261390c565b6139788185613917565b9350613988818560208601613928565b61399181613952565b840191505092915050565b600060408301600083015184820360008601526139b98282613963565b915050602083015184820360208601526139d38282613963565b9150508091505092915050565b600060208201905081810360008301526139fa818461399c565b905092915050565b600082825260208201905092915050565b6000613a1e8261390c565b613a288185613a02565b9350613a38818560208601613928565b613a4181613952565b840191505092915050565b60006020820190508181036000830152613a668184613a13565b905092915050565b600081519050919050565b600082825260208201905092915050565b6000819050602082019050919050565b613aa381613362565b82525050565b6000613ab58383613a9a565b60208301905092915050565b6000602082019050919050565b6000613ad982613a6e565b613ae38185613a79565b9350613aee83613a8a565b8060005b83811015613b1f578151613b068882613aa9565b9750613b1183613ac1565b925050600181019050613af2565b5085935050505092915050565b60006020820190508181036000830152613b468184613ace565b905092915050565b600081519050919050565b6000819050602082019050919050565b6000819050919050565b6000613b8e613b89613b8484613342565b613b69565b613342565b9050919050565b6000613ba082613b73565b9050919050565b6000613bb282613b95565b9050919050565b613bc281613ba7565b82525050565b6000613bd48383613bb9565b60208301905092915050565b6000602082019050919050565b6000613bf882613b4e565b613c028185613a79565b9350613c0d83613b59565b8060005b83811015613c3e578151613c258882613bc8565b9750613c3083613be0565b925050600181019050613c11565b5085935050505092915050565b60006020820190508181036000830152613c658184613bed565b905092915050565b600081519050919050565b600082825260208201905092915050565b6000819050602082019050919050565b613ca2816133a0565b82525050565b6000613cb48383613c99565b60208301905092915050565b6000602082019050919050565b6000613cd882613c6d565b613ce28185613c78565b9350613ced83613c89565b8060005b83811015613d1e578151613d058882613ca8565b9750613d1083613cc0565b925050600181019050613cf1565b5085935050505092915050565b60006020820190508181036000830152613d458184613ccd565b905092915050565b613d56816133a0565b82525050565b6000602082019050613d716000830184613d4d565b92915050565b7f4e487b7100000000000000000000000000000000000000000000000000000000600052602260045260246000fd5b60006002820490506001821680613dbe57607f821691505b602082108103613dd157613dd0613d77565b5b50919050565b600082905092915050565b7f4e487b7100000000000000000000000000000000000000000000000000000000600052604160045260246000fd5b60008190508160005260206000209050919050565b60006020601f8301049050919050565b600082821b905092915050565b600060088302613e737fffffffffffffffffffffffffffffffffffffffffffffffffffffffffffffffff82613e36565b613e7d8683613e36565b95508019841693508086168417925050509392505050565b6000613eb0613eab613ea684613670565b613b69565b613670565b9050919050565b6000819050919050565b613eca83613e95565b613ede613ed682613eb7565b848454613e43565b825550505050565b600090565b613ef3613ee6565b613efe818484613ec1565b505050565b5b81811015613f2257613f17600082613eeb565b600181019050613f04565b5050565b601f821115613f6757613f3881613e11565b613f4184613e26565b81016020851015613f50578190505b613f64613f5c85613e26565b830182613f03565b50505b505050565b600082821c905092915050565b6000613f8a60001984600802613f6c565b1980831691505092915050565b6000613fa38383613f79565b9150826002028217905092915050565b613fbd8383613dd7565b67ffffffffffffffff811115613fd657613fd5613de2565b5b613fe08254613da6565b613feb828285613f26565b6000601f83116001811461401a5760008415614008578287013590505b6140128582613f97565b86555061407a565b601f19841661402886613e11565b60005b828110156140505784890135825560018201915060208501945060208101905061402b565b8683101561406d5784890135614069601f891682613f79565b8355505b6001600288020188555050505b50505050505050565b82818337600083830152505050565b600061409e8385613a02565b93506140ab838584614083565b6140b483613952565b840190509392505050565b600060408201905081810360008301526140d98186613a13565b905081810360208301526140ee818486614092565b9050949350505050565b600080fd5b61410682613952565b810181811067ffffffffffffffff8211171561412557614124613de2565b5b80604052505050565b6000614138613273565b905061414482826140fd565b919050565b600080fd5b600080fd5b600067ffffffffffffffff82111561416e5761416d613de2565b5b61417782613952565b9050602081019050919050565b600061419761419284614153565b61412e565b9050828152602081018484840111156141b3576141b261414e565b5b6141be848285614083565b509392505050565b600082601f8301126141db576141da6134fc565b5b81356141eb848260208601614184565b91505092915050565b6141fd81613670565b811461420857600080fd5b50565b60008135905061421a816141f4565b92915050565b60006101008284031215614237576142366140f8565b5b61424261010061412e565b9050600082013567ffffffffffffffff81111561426257614261614149565b5b61426e848285016141c6565b6000830152506020614282848285016133cb565b60208301525060406142968482850161338b565b60408301525060606142aa8482850161420b565b60608301525060806142be8482850161338b565b60808301525060a082013567ffffffffffffffff8111156142e2576142e1614149565b5b6142ee848285016141c6565b60a08301525060c082013567ffffffffffffffff81111561431257614311614149565b5b61431e848285016141c6565b60c08301525060e082013567ffffffffffffffff81111561434257614341614149565b5b61434e848285016141c6565b60e08301525092915050565b60006143663683614220565b9050919050565b61437681613670565b82525050565b6000604082019050614391600083018561387a565b61439e602083018461436d565b9392505050565b60006020820190506143ba600083018461436d565b92915050565b600082825260208201905092915050565b7f4d7573742062652070726f706f736564206f776e657200000000000000000000600082015250565b60006144076016836143c0565b9150614412826143d1565b602082019050919050565b60006020820190508181036000830152614436816143fa565b9050919050565b7f4e487b7100000000000000000000000000000000000000000000000000000000600052603260045260246000fd5b600080fd5b6000823560016101400383360303811261448e5761448d61446c565b5b80830191505092915050565b6144a38161330c565b81146144ae57600080fd5b50565b6000813590506144c08161449a565b92915050565b6144cf81613420565b81146144da57600080fd5b50565b6000813590506144ec816144c6565b92915050565b600060608284031215614508576145076140f8565b5b614512606061412e565b90506000614522848285016144b1565b6000830152506020614536848285016144dd565b602083015250604061454a848285016144dd565b60408301525092915050565b6000610140828403121561456d5761456c6140f8565b5b61457760c061412e565b90506000614587848285016133cb565b600083015250602061459b848285016144b1565b602083015250604082013567ffffffffffffffff8111156145bf576145be614149565b5b6145cb848285016141c6565b604083015250606082013567ffffffffffffffff8111156145ef576145ee614149565b5b6145fb848285016141c6565b606083015250608061460f848285016144f2565b60808301525060e0614623848285016144f2565b60a08301525092915050565b600061463b3683614556565b9050919050565b61464b8261390c565b67ffffffffffffffff81111561466457614663613de2565b5b61466e8254613da6565b614679828285613f26565b600060209050601f8311600181146146ac576000841561469a578287015190505b6146a48582613f97565b86555061470c565b601f1984166146ba86613e11565b60005b828110156146e2578489015182556001820191506020850194506020810190506146bd565b868310156146ff57848901516146fb601f891682613f79565b8355505b6001600288020188555050505b505050505050565b60608201600082015161472a600085018261346a565b50602082015161473d602085018261343c565b506040820151614750604085018261343c565b50505050565b60006101008201905061476c6000830187613d4d565b818103602083015261477e8186613a13565b905061478d6040830185614714565b61479a60a0830184614714565b95945050505050565b600060a082840312156147b9576147b86140f8565b5b6147c360a061412e565b9050600082013567ffffffffffffffff8111156147e3576147e2614149565b5b6147ef848285016141c6565b6000830152506020614803848285016133cb565b60208301525060406148178482850161338b565b604083015250606061482b8482850161420b565b606083015250608061483f8482850161338b565b60808301525092915050565b600061485736836147a3565b9050919050565b6000604082019050614873600083018561387a565b614880602083018461387a565b9392505050565b7f4e487b7100000000000000000000000000000000000000000000000000000000600052601160045260246000fd5b60006148c182613670565b91506148cc83613670565b92508282039050818111156148e4576148e3614887565b5b92915050565b7f4f6e6c792063616c6c61626c65206279206f776e657200000000000000000000600082015250565b60006149206016836143c0565b915061492b826148ea565b602082019050919050565b6000602082019050818103600083015261494f81614913565b9050919050565b60007fffffffffffffffffffffffffffffffff0000000000000000000000000000000082169050919050565b61498b81614956565b82525050565b60006020820190506149a66000830184614982565b92915050565b6000815190506149bb8161449a565b92915050565b6000602082840312156149d7576149d661327d565b5b60006149e5848285016149ac565b91505092915050565b6000606082019050614a036000830184614714565b92915050565b7f43616e6e6f74207472616e7366657220746f2073656c66000000000000000000600082015250565b6000614a3f6017836143c0565b9150614a4a82614a09565b602082019050919050565b60006020820190508181036000830152614a6e81614a32565b9050919050565b6000614a8082613670565b9150614a8b83613670565b9250828202614a9981613670565b91508282048414831517614ab057614aaf614887565b5b5092915050565b6000614ac282613670565b9150614acd83613670565b9250828201905080821115614ae557614ae4614887565b5b92915050565b6000604082019050614b006000830185613d4d565b614b0d602083018461387a565b9392505050565b7f4e487b7100000000000000000000000000000000000000000000000000000000600052603160045260246000fd5b600081519050614b5281613374565b92915050565b600060208284031215614b6e57614b6d61327d565b5b6000614b7c84828501614b43565b91505092915050565b6000604082019050614b9a600083018561436d565b614ba7602083018461436d565b9392505050565b6000606082019050614bc3600083018661436d565b614bd0602083018561436d565b614bdd604083018461387a565b949350505050565b7f4e487b7100000000000000000000000000000000000000000000000000000000600052601260045260246000fd5b6000614c1f82613670565b9150614c2a83613670565b925082614c3a57614c39614be5565b5b82820490509291505056fea164736f6c6343000818000a","linkReferences":{}},"methodIdentifiers":{"acceptOwnership()":"79ba5097","applyAllowListUpdates(address[],address[])":"54c8a4f3","applyChainUpdates(address,(uint64,bool,bytes,bytes,(bool,uint128,uint128),(bool,uint128,uint128))[])":"84eb3120","getAllowList()":"a7cd63b7","getAllowListEnabled()":"e0351e13","getCurrentInboundRateLimiterState(address,uint64)":"9bdfc535","getCurrentOutboundRateLimiterState(address,uint64)":"12775e0e","getRemotePool(address,uint64)":"c4b7e200","getRemoteToken(address,uint64)":"9bc53a20","getRmnProxy()":"dc0bd971","getRouter()":"b0f479a1","getSupportedChains()":"c4bffe2b","getTokens()":"aa6ca808","isSupportedChain(uint64)":"8926f54f","isSupportedToken(address)":"240028e8","lockOrBurn((bytes,uint64,address,uint256,address))":"9a4575b9","owner()":"8da5cb5b","releaseOrMint((bytes,uint64,address,uint256,address,bytes,bytes,bytes))":"39077537","setRemotePool(address,uint64,bytes)":"13f77d80","setRouter(address)":"c0d78655","supportsInterface(bytes4)":"01ffc9a7","transferOwnership(address)":"f2fde38b"},"id":83}